:020000040000FA
:0600000002010702245A70
:03002B000228A404
:0300430002285838
:030053000224D0B4
:03006B0002287EEA
:030073000228C19F
:100083000222B7E5C754F84401F5C77901220000FD
:100093000080FB120086B900030200F1E4792178A5
:1000A30008B800028004F709D8FCE479297802B87B
:1000B30000028004F709D8FCE49002817855791690
:1000C3008002F0A3D8FCD9FA7AD57B179001377850
:1000D300D579048015E493A3AD82AE838A828B83A2
:1000E300F0A3AA82AB838D828E83D8E9D9E7758288
:1000F300847583FF740112011975829175830074ED
:100103000012011975D00075813F751881751902A8
:10011300759F00020096C09FF59FE473D09F22D085
:1001230083D082C09FE493C0E0740193C0E0740263
:1001330093F59F22FF0000B4000028002800283018
:1001430075A000A000A000A00000080008E001F0D6
:10015300001000100010001000100010005000509C
:1001630000500010001000D0070000000000000F36
:100173000001000500307507001000010081FF0039
:10018300000000FFFFFF270745072D076907FF0250
:10019300020208025000A0000000E80302DF82010F
:1001A3000000C78202DB82010000301802D5820101
:1001B3000000BF0202DB82010000311802D382017A
:1001C3000000D50202DB82010000321802DD820149
:1001D3000000D70202DB82010000331802FD82080F
:1001E3000000D80202DB82010000341802E782011A
:1001F30000003518FF0100FF2002DF82010000D05C
:100203008202DB82010000991802F38200000000E1
:100213000002D78203000006031700D50DD50DD5C4
:100223000DD50DD50DD50DD50DD50DD50DD50DD5BB
:100233000DD50DD50D7B108D107510020202020233
:1002430002020202010D000000100102DF82010020
:1002530000CA8202DB82010000DC1802FF82010077
:1002630000460702DB82010000DD1802FB82010069
:1002730000C58102DB82010000DE1802F982010061
:1002830000EE8102DB82010000DF1802F782010029
:1002930000068202DB82010000E01802F582010001
:1002A30000268202DB82010000E11802F1820100D4
:1002B30000F78102DB82010000E21802ED820100F7
:1002C300002E8202DB82010000E31802EB820100B0
:1002D30000AA8102DB82010000E41802E982010026
:1002E30000E51801E8030577100AFFFFFF0001305E
:1002F300750302010600000000000000000000007A
:1003030000000000000000000000000000000000EA
:1003130000FFFF0600800CE803000000000000005F
:10032300000000006400140023004B000E0B1110AA
:10033300370700000000000000000080D4440000E4
:100343000000000000000000000000000A094174E2
:100353006F6D466173742005125000BC07020A00DA
:1003630002010611068125C7A1232DA487FD4F8C09
:10037300C24A2A4663A9150000B515104D6561737D
:1003830056616C756520616E6420466C616773000D
:10039300024D65617356616C756573320000000030
:1003A30000000A46697273742054726573686F6C37
:1003B300640000000A5365636F6E642054726573B2
:1003C300686F6C6400000A54686972642054726533
:1003D30073686F6C640000000A4465766963652086
:1003E3004D616E61676D656E74000A426173696386
:1003F3002043616C4461746100000000416E6369D5
:100403006C6C61727920446174610000000A0A44D3
:100413006576696365204E616D650000000000002C
:1004230002DF82010000CD8202DB820100001C1A80
:10043300103C81000000551702D9820100001D1AEB
:1004430002D782030000621702DB82010000311A27
:10045300106C81010000641702D982010000321A76
:1004630002DB82010000431A102C8103000078177D
:1004730002D982010000441A02DB82010000551AEE
:1004830010DC80030000821702D982010000561A93
:1004930002DB82010000671A100C810300008C1735
:1004A30002D982010000681A02DB82010000791A76
:1004B300104C81030000961702D9820100007A1ABA
:1004C30002DB820100008B1A101C810300009E17BF
:1004D30002D9820100008C1A02DB82010000AE1AED
:1004E30010CC80030000B01702D9820100009D1ACE
:1004F30002DB82010000AF1A10EC80030000C11779
:1005030002D982010000B01A12012248C10312016C
:10051300225BC1031201228AC103120122C2C10359
:100523001201220BC2031201224EC20312012294B2
:10053300C203120122C7C203120122EEC203120137
:10054300221DC30312012254C3031201226DC303EC
:10055300120122BCC303120122D5C3031201221DBF
:10056300C40312012251C4031201228FE1021201BA
:10057300228DE202120122F3E20212012216E302A9
:1005830012012218E30212012256E302120122C7CA
:10059300E30212012287E402120122A9E4021201FA
:1005A3002245E5021201227CE502120122C1E50285
:1005B300120122CEE5021201223EE6021201228836
:1005C300E6021201228BE602120122D1E602120197
:1005D30022D4E602120122DEE60212012251E702D0
:1005E30012012279E702120122ACE702120122D0A2
:1005F300E702120122CDE80212012271E90212017F
:1006030022DDE90212012219EA02120122B6B50320
:10061300120122DEB5031201220BB603120122439B
:10062300B603120122A9B603120122F3B603120183
:100633002257B7031201229FB703120122DCB7032B
:100643001201220AB8031201229FB803120122A940
:10065300B803120122B6B803120122E9B80312014A
:1006630022F5B8031201220DB90312012217B903AF
:1006730012012248E00312012256E0031201226E06
:10068300E00312012285E00312012235CD0112019C
:1006930022D8CD01120122F1CE0112012269CF012C
:1006A30012012290D001120122C9D001120122614C
:1006B300D1011201224ED201120122F7D2011201FD
:1006C300227FD40112012267D5011201225ED601D5
:1006D30012012294D60112012236D7011201225CA3
:1006E300D70112012228D9011201226ED901120168
:1006F3002290D901120122FCD901120122C7DA0189
:1007030012012281DB011201228DDD01120122403F
:10071300F9021201221CFA02120122C6FA02120184
:100723002207FB021201228EFB0212012209FC02A4
:10073300120122DCFC0212012205FD02120122F940
:10074300FD0212012236FE021201221EFF021201D5
:10075300224FFF0212012275FF021201220FD4035E
:100763001201228ED403120122B9D403120122C929
:10077300D503120122A5B903120122BBB903120149
:1007830022D9B903120122E9BA03120122F3BA03EF
:100793001201221DBC031201220ABD03120122769B
:1007A300BD03120122A18503120122CE8603120189
:1007B300220587031201225C870312012254890355
:1007C30012012212AA0112012299AA01120122ED99
:1007D300AB01120122F9AB0112012271AC0112012A
:1007E300224AAD011201224AAE0112012246AF0193
:1007F30012012212B0011201226CB10112012282F4
:10080300B101120122A3B10112012235B201120179
:1008130022ABB201120122D1B2011201227EB50133
:1008230012012283B501120122A7B701120122EEA0
:10083300B70112012254B8011201229AB801120120
:10084300226AB9011201221FBA011201227BBA01E5
:100853001201227EBA01120122CABA011201220632
:10086300BB0112012245BB0112012267BB01120128
:10087300229BBB0112012209BC01120122E595034F
:10088300120122F3950312012243960312012262FD
:100893009603120122AC9603120122EF9703120171
:1008A30022879803120122CB9803120122F59803A1
:1008B300120122609903120122A499031201222733
:1008C3009A03120122D69A031201224C2900120123
:1008D300225C2900120122F62900120122522A0069
:1008E300120122102B00120122332C001201226369
:1008F3002C00120122922C00120122482E00120118
:10090300229B3000120122FA3200120122E333004B
:10091300120122D33400120122A636001201229EB4
:100923003900120122BB3A00120122B53C00120128
:1009330022C43D00120122533F001201223F400016
:100943001201228E4000120122FE40001201221ADF
:1009530041001201226B41001201220B46001201D9
:10096300221247001201227447001201229F4700FE
:100973001201225748001201220CAD031201221664
:10098300AD031201225EAD0312012272AD03120107
:100993002203AE031201223AAE0312012275AE0303
:1009A3001201229EAE03120122F2AE0312012207AC
:1009B300AF0312012229AF031201223EAF0312013A
:1009C3002252AF0312012267AF03120122A1AF0328
:1009D300120122CDAF0312012216B0031201228CA1
:1009E300B003120122B7B003120122FAB0031201BD
:1009F3002224B1031201224FB1031201224EDD035F
:100A030012012225BB02120122FEBB021201226D3A
:100A1300BC02120122A8BC02120122E3BD02120190
:100A23002295BE0212012242C102120122EDC1022D
:100A3300120122CEC20212012244C402120122ACCC
:100A4300C402120122919F03120122D49F031201B7
:100A5300223FA1031201227DA3031201221CD00312
:100A6300120122C9D003120122C2D103120122FFB3
:100A7300D103120122F8D50312012257D603120122
:100A830022F4D60312012227D70312012255D703DA
:100A930012012290D703120122B0D703120122E8D8
:100AA3009A03120122719B03120122309C0312014B
:100AB300223E9D031201225E9F03120122B9990275
:100AC300120122CE9902120122999A021201226680
:100AD3009B02120122D39B021201220E9C021201DD
:100AE30022AF9C02120122B89D02120122909E02A3
:100AF300120122139F021201229C9F02120122055E
:100B0300A0021201228FA002120122DCA002120114
:100B1300224AA102120122ECA1021201229AA2028C
:100B2300120122BAA202120122FEA20212012246DD
:100B3300A30212012262A30212012281A302120163
:100B430022FBA30212012209A4021201229CA40285
:100B530012012206A5021201221AA40312012296EF
:100B6300A403120122D4A403120122B8A503120183
:100B73002227A6031201226BA603120122AEA603AB
:100B8300120122DBA603120122F9A603120122316C
:100B9300A7031201226EA7031201228FA7031201DA
:100BA3002205A8031201224FA803120122C3BC018C
:100BB30012012257BE0112012295C001120122DD4A
:100BC300C00112012208C101120122FEC10112015A
:100BD300222EC20112012285C20112012298C201F2
:100BE300120122D9C20112012206C3011201224FAE
:100BF300C3011201228BC301120122D0C3011201CE
:100C0300221DC40112012285C401120122B7C601AB
:100C13001201227EC801120122B9C8011201223732
:100C2300CA011201227BCA01120122EECA0112017A
:100C3300224FCB01120122D7CB0112012200CC019A
:100C43001201221FCD0112012230CD0112012251C6
:100C5300C502120122C2C5021201228BCB0212016C
:100C63002285CC0212012247CE02120122C5CE02F6
:100C73001201229A66001201222167001201224EFC
:100C830067001201229067001201228C6800120192
:100C930022D168001201224D6A00120122CA6A00A1
:100CA300120122EF6A00120122626B001201221F5D
:100CB3006C00120122DB6C001201225B6D00120139
:100CC30022296E001201224F6E00120122C16E0012
:100CD300120122656F001201228A6F00120122F6AF
:100CE3006F001201225C7000120122927000120147
:100CF30022367100120122CF7100120122527200BA
:100D0300120122BE72001201220A73001201227024
:100D13007300120122A17300120122557400120103
:100D2300226B7500120122B47500120122D17500E5
:100D3300120122B17B00120122F97B00120122E68B
:100D43007C001201220B7D00120122207D00120182
:100D530022887D00120122C87D00120122DB7E0061
:100D6300120122887F00120122EECE0212012239E3
:100D7300CF0212012245CF0212012210D00212012A
:100D83002226D00212012262D0021201229BD0023B
:100D9300120122D3D00212012229D1021201223FD1
:100DA300D1021201227BD1021201228ED102120141
:100DB30022B5D102120122E9D102120122BDD202CF
:100DC3001201224CD40212012248D50212012251EF
:100DD300D60212012241290012012234EC01120130
:100DE300226FEC0112012273EF01120122C5F001FF
:100DF3001201228AF10112012284F4011201226EEE
:100E0300F501120122B9F501120122D3F5011201F4
:100E13002210F6011201221BF6011201225AF601D9
:100E230012012263F60112012224F701120122E1C9
:100E3300F70112012244F801120122A8F80112015C
:100E43002229F901120122059701120122619A0157
:100E5300120122679A01120122A8A1011201228024
:100E6300A601120122BCC70312012286C803120184
:100E730022CAC80312012204C90312012296C9031C
:100E830012012205CA031201220ECA031201221AF9
:100E9300CA031201222ECA0312012252CA031201EB
:100EA3002282CA0312012277B10312012284B10301
:100EB3001201229EB103120122D1B1031201220EAB
:100EC300B20312012274B20312012289B203120186
:100ED3002294B203120122A1B203120122B8B20377
:100EE300120122C6B203120122D1B203120122DD82
:100EF300B203120122ECB203120122F7B203120170
:100F0300221DB303120122C1B303120122D1B30381
:100F1300120122EBB30312012208B40312012223AC
:100F2300B4031201224AB40312012255B40312017D
:100F3300226AB4031201227EB403120122DFB40336
:100F4300120122E5B403120122EBB403120122F1D0
:100F5300B40312012209B5031201223CB5031201A5
:100F630022058002120122938002120122288102AB
:100F73001201220482021201223882021201224B40
:100F83008202120122C582021201224D8402120141
:100F930022748402120122FB84021201223A850286
:100FA3001201224B8502120122C08502120122DFA7
:100FB3008502120122F785021201223B87021201E8
:100FC30022458902120122778B021201227D8C02B3
:100FD300120122C08C021201229ADD01120122ADFC
:100FE300DE0112012295DF011201229FDF011201AE
:100FF30022C1DF01120122CDDF011201221AE10118
:1010030012012247E10112012268E201120122AA20
:10101300E201120122DFE301120122AFE401120116
:1010230022FEE4011201225FE50112012294E5018F
:10103300120122CDE50112012278E9011201228F6A
:10104300E9011201220DEA011201221BEA01120138
:101053002264EA0112012272EA01120122F3EA0177
:1010630012012262EB01120122AEEB0112012240B6
:10107300B00212012262B0021201223EB202120138
:1010830022B6B50212012200B702120122E2B70210
:10109300120122BED703120122E3D7031201225405
:1010A300D8031201223FEA0212012248EA02120186
:1010B3002251EA0212012275EB0212012266ED02AD
:1010C30012012294ED02120122BFED02120122ED60
:1010D300ED0212012218EE0212012256EE02120153
:1010E3002282EE02120122BFEE02120122EAEE0276
:1010F30012012236EF021201228DEF02120122CDDC
:10110300EF021201221CF00212012247F002120127
:10111300228DF002120122BBF002120122E6F0023C
:1011230012012213F10212012236F102120122C42A
:10113300E103120122F0E10312012249E203120149
:101143002253E20312012263E203120122DD900320
:10115300120122049103120122409103120122A3DE
:10116300E303120122C04800120122D14B001201F5
:1011730022674D00120122E44D00120122904E001D
:10118300120122334F00120122CB4F00120122FA27
:101193004F0012012292540012012226550012011F
:1011A30022625600120122CC5600120122805700FF
:1011B300120122365A00120122705A00120122DA59
:1011C3005A00120122385B00120122965B001201C1
:1011D300221F5C001201220E5D00120122545D00E9
:1011E300120122995D00120122BC5D00120122034B
:1011F3005F00120122175F001201228660001201B4
:1012030022C560001201220561001201225861000B
:10121300120122796100120122B76100120122DD5D
:1012230063001201221E6400120122B9640012013C
:101233002225650012012266660012012200800346
:10124300120122A68003120122EB810312012274F0
:101253008203120122618303120122A0830312017C
:10126300220A8403120122788403120122E5FF0279
:10127300120122B1CA031201227CCD03120122D929
:10128300FF011201226ADF031201227ADF03120136
:10129300229ADF031201223AE003120122B9C403A6
:1012A3001201225FC503120122A1C70312012262A8
:1012B300DE031201228EDE03120122E5DE03120198
:1012C3002238DF031201226FD90312012287D903C7
:1012D300120122A2D903120122C2D9031201221040
:1012E300DA031201222ADA0312012244DA03120179
:1012F300225ADA0312012279DA031201229ADA035B
:1013030012012296A803120122B8A8031201224E49
:10131300A9031201224CAA03120122ACAC0312014D
:101323002273FA0112012270FC01120122F6FC0160
:1013330012012204FE0112012281FE01120122F395
:10134300FE01120122F6FE0112012204FF01120125
:101353002223FF011201224EFF011201225CFF0131
:1013630012012276FF011201226DE203120122E62D
:10137300E20312012205E303120122CFDA03120171
:101383002200DB031201222ADB031201224ADB03C0
:10139300120122A8DB03120122C2F102120122D799
:1013A300F10212012233F2021201229EF202120111
:1013B30022E6F20212012258F30212012282F30200
:1013C30012012290F302120122F2F30212012230DF
:1013D300F4021201224BF402120122E6F40212017A
:1013E300228DF5021201220EF60212012245F602A7
:1013F300120122CEF60212012223F70212012280E9
:10140300F70212012292F702120122B8F702120127
:1014130022C1F7021201220CF90212012219D2038E
:101423001201227ED20312012239D303120122B701
:10143300D30312012280BD03120122B3BD031201A3
:1014430022E5BE0312012229BF0312012201C003B8
:1014530012012211DC03120122F2DC031201228A9F
:10146300CD03120122CFCD0312012213CE031201A9
:1014730022DACF0312012215E10312012215E3033D
:1014830012012230E30312012240E3031201222955
:10149300A50212012205A60212012248A602120188
:1014A3002282A60212012219A70212012273A702A5
:1014B300120122E3A7021201226DA9021201225D89
:1014C300AA02120122D4AA0212012271AC02120151
:1014D3002249AD02120122BDAD021201223BAE022E
:1014E30012012252AE0212012279AF02120122D45A
:1014F300AF02120122418B031201225E8B03120100
:1015030022608C03120122AC8C03120122CC8C03C7
:101513001201221D8D03120122888D03120122CC98
:101523008D031201222E8E03120122CC900312018D
:1015330022018301120122308801120122338B011F
:101543001201225C8B01120122858B0112012233CD
:101553008C011201221C8E01120122678F011201DC
:1015630022808F01120122B79401120122F094010B
:101573001201223495011201224596011201227EA5
:10158300D802120122C5D80212012207D902120180
:101593002206DC02120122B9DC02120122F1DC0272
:1015A30012012211DD0212012233DD021201223661
:1015B300DE02120122A0E00212012227E10212013F
:1015C300220D8D02120122968D02120122B38D0289
:1015D3001201220C9002120122B991021201229AE5
:1015E3009502120122BA7F0012012228E40312019C
:1015F3002254E403E066701008A3E066700A08A3AF
:10160300E066700408A3E06622C3E7960809E7963C
:101613000809E7960809E79622C3E09608A3E0962F
:1016230008A3E09608A3E09622C008C3E096F50855
:1016330008A3E096420808A3E096420808A3E096B0
:1016430045087001D3D00822080808EAC0E0EBC0BF
:10165300E086F0E7A4FA180986F0E7A42AFA180945
:1016630086F0E7A42AFA180986F0E7A42AFA19866D
:10167300F0E7A4FBE5F02AFA190886F0E7A42BFBB0
:10168300E5F03AFA190886F0E7A42BFBE5F03AFAFD
:1016930018180986F0E7A4C5F02BFBE43AFA1908F9
:1016A300E7C5F0C6A426F6E5F03BFBE43AFA188654
:1016B300F0E7A4F6E5F00826F6E43B08F6E43A087A
:1016C300F6D0E0FBD0E0FA22E4CFC0E0E4CEC0E005
:1016D300E4CDC0E0E4CCC0E075F020E626F608E6F1
:1016E30033F608E633F608E633F6181818EC33FC3D
:1016F300ED33FDEE33FEEF33FFC3EC9709ED9709AE
:10170300EE9709EF97191919400FFFEC97FC09EDB4
:1017130097FD09EE97FE191906D5F0BFECF709ED11
:10172300F709EEF709EFF7191919D0E0FCD0E0FD3E
:10173300D0E0FED0E0FF226016080808C6C313C637
:1017430018C613C618C613C618C613C6D5E0EA22B0
:101753007009080808226016181818C6C333C6088B
:10176300C633C608C633C608C633C6D5E0EA22E682
:1017730027F60809E637F60809E637F60809E637D3
:10178300F622E026F608A3E036F608A3E036F608CC
:10179300A3E036F622E026F008A3E036F008A3E043
:1017A30036F008A3E036F022C3E697F60809E69779
:1017B300F60809E697F60809E697F622C3E0C69607
:1017C300F608A3E0C696F608A3E0C696F608A3E0DB
:1017D300C696F622C3E096F008A3E096F008A3E0CD
:1017E30096F008A3E096F022E056F608A3E056F63A
:1017F30008A3E056F608A3E056F622E056F008A345
:10180300E056F008A3E056F008A3E056F022E0F615
:1018130008A3E0F608A3E0F608A3E0F622E6F00842
:10182300A3E6F008A3E6F008A3E6F022E0FAA3E0BB
:10183300FBA3E0FCA3E0FD22E0FCA3E0FDA3E0FEAC
:10184300A3E0FF22ECF0A3EDF0A3EEF0A3EFF02270
:10185300E0F8A3E0F9A3E0FAA3E0FB22E8F0A3E9B0
:10186300F0A3EAF0A3EBF022CAC0E0E6F0A308DAA3
:10187300FAD0E0FA22CAC0E0E0A3C582CCC582C593
:1018830083CDC583F0A3C582CCC582C583CDC58373
:10189300DAE6D0E0CA22C3E498F8E499F91218DA38
:1018A3008026C3E49AFAE49BFBE920E7E91218DAFD
:1018B300E498F8E499F922C3E498F8E499F9121842
:1018C300DAE498F8E499F9C3E49AFAE49BFB22EB8F
:1018D30020E7CFE920E7E0B90010BB0008E88AF071
:1018E30084F8AAF022E4FBC8FA22EB70227B10C82A
:1018F30033C8C933C9335007C39AC3DBF280069A8E
:1019030050012ADBEAC833F4C8C933F4C9FA227593
:10191300F008E4C833C8C933C933C99AC99B500412
:10192300C92AC93BD5F0ECFBC833F4C8E4C9FA2291
:10193300600D08C6A2E713C618C613C6D5E0F32286
:10194300600C08C6C313C618C613C6D5E0F42270CC
:101953000422600D18C6C333C608C633C6D5E0F4E7
:101963001822251810AF08F518400C15198008F532
:101973001840021519D2AF2200C0D0251810AF08A5
:10198300F518500C05198008F51850020519D2AF47
:10199300D0D0222518F58210AF08F518400C151980
:1019A3008008F51840021519D2AF8519832225182E
:1019B300F582E43519F583222518F8E43519F9225F
:1019C3002518FAE43519FB222518FCE43519FD2204
:1019D300E4732518C582C0E0E51934FFC583C0E070
:1019E300E518C3958224F810AF08858319858218FA
:1019F3008008858319858218D2AFCEF0A3E520F045
:101A0300A37808E608F0A3DEFAEFF0A3E58124FA51
:101A1300F8E608F0A3E608F0A3E608F0A30808E652
:101A230008F0A3E608F0A315811581D0E0FED0E00D
:101A3300F8158115811581E8C0E0EEC0E022251874
:101A4300C582C0E0E51934FFC583C0E0E518C3953E
:101A53008224F910AF08858319858218800885834D
:101A630019858218D2AFCEF0A3E520F0A37808E65B
:101A730008F0A3DEFAEFF0A3E58124FBF8E608F013
:101A8300A3E608F0A30808E608F0A3E608F0A31508
:101A9300811581D0E0FED0E0F815811581E8C0E022
:101AA300EEC0E022851983851882E0A3FEE0A3F54A
:101AB300207808E0A3F608DFFAE0A3FFE0A3C0E084
:101AC300E0A3C0E0E0A3C0E0E0A3C0E0E0A3C0E087
:101AD30010AF08858218858319800885821885834D
:101AE30019D2AFD083D08202011F85198385188252
:101AF300E0A3FEE0A3F5207808E0A3F608DFFAE010
:101B0300A3FFE0A3C0E0E0A3C0E0E0A3C0E0E0A344
:101B1300C0E010AF08858218858319800885821874
:101B2300858319D2AFD083D08222C0D02518C58235
:101B3300C0E0E51934FFC583C0E0E518C3958224EE
:101B4300F310AF088583198582188008858319856A
:101B53008218D2AFC8F0A3E9F0A3EAF0A3EBF0A395
:101B63007908E709F0A3D8FAECF0A3EDF0A3EEF0BF
:101B7300A3EFF0A3D0E0F0A3D0E0F0A3D0E0F0A374
:101B8300E520F0A3E5F0F0A322851983851882E010
:101B9300C0E0A3E0F9A3E0FAA3E0FBA37808E0F632
:101BA30008A3DFFAE0FCA3E0FDA3E0FEA3E0FFA3AC
:101BB300E0C0E0A3E0C0E0A3E0F5D0A3E0F520A3FC
:101BC300E0A3F5F010AF0885831985821880088596
:101BD3008319858218D2AFD082D083D0E0F8D0E0C9
:101BE3003274048006740280027401C0E0F40412AB
:101BF3001996D0E012186B227404800474028000DA
:101C0300CCC0E0EDC0E0E518C39CCCAD1950011D7C
:101C130010AF068C188D1980068C188D19D2AF124F
:101C23001878D0E0FDD0E0FC22D083D082E9C0E078
:101C3300E493A3C386F0C5F095F0F908E493A38673
:101C4300F0C5F095F0700BE493A3C3994005E90444
:101C53008002A3E475F002A42582F582E5F03583C2
:101C6300F583D0E0F9E493A3C0E0E493C0E022D08D
:101C730083D082ECC0E0EDC0E0E493A3FCE493A343
:101C8300FDED4C600D121CBEEC24FFFCED34FFFD9A
:101C930080EFE493A3FCE493A3FDED4C600D121CD1
:101CA300FDEC24FFFCED34FFFD80EFD0E0FDD0E040
:101CB300FCE493A3C0E0E493C0E022C0E0C3E49358
:101CC30096087401939618400FE49366700808749D
:101CD3000193661870007019A3A3C3E49396087464
:101CE30001939618A3A3400DD0E0D0E0D0E0021CEE
:101CF300AEA3A3A3A3A3A3D0E022C0E0C0F088F0C7
:101D0300E4936670080874019366187000A8F0A342
:101D1300A3700BD0F0D0E0D0E0D0E0021CAEA3A3C0
:101D2300D0F0D0E02274F6121A41EAFEEBFF8C08E1
:101D33008D09EA2434F8E43FF9E8FCE9FDEA2435A7
:101D43001220CFFAEE24371220CFF88508F0A4C86A
:101D530085F00A8509F0A4250AF9EA28F8E439F997
:101D63007A257B001218DAEA8C828D83F0FA13133A
:101D730013541F1220C3245DF582E439F583E0C0B8
:101D8300E074075AF8D0E0B800028004C313D8FC0B
:101D9300A2E0EE50082434F582E43F801424361286
:101DA30020CFF5F0EA84A8F01220C42438F582E4A9
:101DB30039F583E0F97F03021AED74F7121A41EA49
:101DC300FEEBFFEA24341220CFC0E0EA2435F5828B
:101DD300E43FF583D0E0F08A828B83A3A3A3A3A37C
:101DE300A3A3C082C0838A828B83A3A3A3A3A3E0FC
:101DF300F8A3E0F9D083D082E0C398F508A3E09973
:101E0300F509EA24801220CF6401703EEA2481F5AB
:101E130082E43FF583C082C0838A828B83A3A3A31A
:101E2300A3A3E0240108A3E03400F9D083D082E027
:101E3300687003A3E06970127CB67D04120D15EE81
:101E43002480F582E43FF583E4F0AC08AD09EEFAB3
:101E5300EFFB121D28E9F912284A7F02021AEDC08E
:101E630082C083851882851983E0F8A3E0F9C3EA69
:101E73009CEB9D5010C3EC98ED99401BC3EA98EB83
:101E8300995014800EC3EA98EB994007C3EC98ED80
:101E9300994004790180027900D083D08222EAC379
:101EA3009CFAEB9DFB2274EF121A41900376E064D7
:101EB300086005E06407702A9061C8E0602490031D
:101EC300A4E0F4601DE0F875F010A4C8AAF02AF9A4
:101ED30074A628FE740339FF8E82F583A3A3A3E0BF
:101EE3007003021FC2906060E0C0E0EE2468F582D8
:101EF300E43FF583D0E0F0750C27750D05750800F8
:101F0300750900E5D914F50AE5D95403F50E602FD8
:101F13007403650E601DE50A6008EE24671220CF86
:101F2300601D900522E06401602C1220CC601278C1
:101F33000480101220CC602CE50AC3940550258040
:101F4300637800E50AC398FA95E0FB120BBF8A0891
:101F53008B09EA4B7005120F4380641220CC700486
:101F63008A0C8B0DE50A6012850C82850D83F50BB7
:101F7300E5D9F0A3150BE50B70F61220CC60457480
:101F8300FC250AF50A780C121BE8AC0AA90EEEFA36
:101F9300EFFB120DCF740212197BE97027AA08AB6D
:101FA30009121423793D8E828F83A3A3A3A3E0FA9E
:101FB3007B00120A27EEFAEFFB120D39120DE179BD
:101FC300000220BE7403650E6053E50AF510751117
:101FD300007810121BE8AC0CAD0DAA08AB09120D6A
:101FE30093740212197BEE24681220CF648070046C
:101FF300747F8001E0F50C780C121BECE50EF50CF8
:10200300780C121BECA90AAC08AD099003A4E0FA02
:102013007B001209FD740212197B0220B9850C8220
:10202300850D83E0C3940E5011E0F8749C28F5826B
:10203300E43481F583E0650A6069850C82850D834C
:10204300E0C0E0EE24F7F582E43FF583D0E0F0A2B0
:10205300AFE433FCC2AF7A0080010AEE246E122093
:10206300CFF8EAC3985013EA1220C3246AF582E436
:1020730039F583E0640770E28022EE246EF8E43FD2
:10208300F9E0FAEE2AFAE43FFBEA246AF582E43B3C
:10209300F5837407F088828983E004F0ECA2E09270
:1020A300AF8013900376E06408600BAC0CAD0DEECB
:1020B300FAEFFB120E59120F4F79017F0A021AED44
:1020C300F8EE28F8E43FF9E822EE2484F582E43FB1
:1020D300F583E02274F1121A4174FC121965EAFEC9
:1020E300EBFF8909750D00A2AFE433F508C2AF9089
:1020F30004BEE0FA9061D0E0F8748098F895E0F9B6
:10210300C3EA98E499A2D265D03340030221C17592
:102113000D010221C1E0601B780A121BE8AC0EA975
:102123000FEEFAEFFB120DC9740212197B7404252A
:102133000EF50E7401250EF5D9850FD9E50E601243
:10214300850A82850B83F50CE0F5D9A3150CE50C04
:1021530070F675E195EE2463F8E43FF97A007B00AD
:10216300A2AFE433F50AC2AF88828983E0FCA3E01F
:10217300FDEC4D603A88828983E0FAA3E0FB8C8210
:10218300F583E0FCA3E0FD88828983ECF0A3EDF006
:102193008A828B83E4F0A3F088828983E0FCA3E046
:1021A300FDEC4D700A88828983A3A3E4F0A3F0E5D4
:1021B3000AA2E092AF1214239004BDE004F0EE24CF
:1021C300631220CFF8A3E0F9E8496063EE246312B9
:1021D30020CF2402F8A3E034008882F583E582242B
:1021E30002F50AE43583F50BE0F50EA3E0F50FEEF7
:1021F30024621220CF640170369061D0E0F812207F
:10220300CC60047C0480027C007480C398FA95E05F
:10221300FBE50E2CF8E43400F9E82402F850010938
:10222300C3EA98EB99A2D265D033400302211890F8
:1022330061D0E0F87480C3989004BEF0E50D60535C
:102243009004BDE0604D9004BFE0F89004BDE0C38E
:1022530098500C74026509703A9004C0E060348EA3
:10226300828F83A3A3A3A3E08518828519831222F7
:10227300A674021219B1E81222A69004BCE028F059
:1022830074021219CBAA18AB197901120A519004DE
:10229300BDE4F0E508A2E092AF740412197B7F0855
:1022A300021AEDF0A3E4F09004BDE0F82285218743
:1022B3008522C622C0E074EB121B2DA2AFE433F5D6
:1022C30008C2AF759B00906182E0A2E0502DE591BA
:1022D300A2E050277591FE74016521701E12242E11
:1022E300122445121BFB1225F9740412197BE964AD
:1022F3000170057901120ED7121EA9906182E0A226
:10230300E5505AE591A2E550547591DF900376E0CC
:1023130064076005E06408702C12242E74016521A3
:10232300703B122445121BFB1225F9740412197B0E
:10233300E9640170057901120ED77901EEFAEFFB1A
:102343001220D78018E0640D7013900398E004F016
:1023530064287002E4F07A00E0F9120F559061826C
:10236300E0A2E64003022403E591A2E6400302242F
:10237300037591BF900376E064057008120E831213
:102383000E8F8003120E89752100120EE3E990036C
:1023930077F07900120ED7120C857A017B00900337
:1023A30075E0F91213F3907803E0644270529005DC
:1023B30026E014F0704AC2AF1223BE00782AD0E0A0
:1023C300F618D0E0F6E59F540770047BFF80027B8C
:1023D3007FC4C0E07829E6F50A08E65BF50B740BC9
:1023E300780A121943D0E0250AF8906270E0A2E758
:1023F30040F8E8C333906272F0906270E0D2E0F08C
:10240300906181E0A2E35009E5E9A2E3500375E995
:10241300F7A3E0A2E75009E591A2E7500375917F86
:10242300E508A2E092AF7F08021B8C9003A4E0F8BA
:1024330075F010A4C8AAF02AF974A628FE7403390B
:10244300FF22120E9B8E828F83E0F8A3E0C824162E
:10245300F582E438F58322C0E0C0D0C082C0839007
:102463006183E0A2E05009E5BFA2E0500375BFFE1F
:10247300E0A2E15009E5BFA2E1500375BFFDE0A270
:10248300E25009E5BFA2E2500375BFFBE0A2E350AF
:1024930009E5BFA2E3500375BFF7E0A2E45009E5E5
:1024A300BFA2E4500375BFEFE0A2E55009E5BFA268
:1024B300E5500375BFDFE0A2E65009E5BFA2E65091
:1024C3000375BFBFD083D082D0D0D0E032C0E074D8
:1024D300F2121B2DE5A7A2E6500FE5A1A2E65009D3
:1024E30053A7BF75A1BF122524E5A7A2E5500CE5AC
:1024F300A1A2E5500653A7DF75A1DFE5A7A2E1502E
:1025030009E5A1A2E1500375A1FDE5A7A2E2500CE4
:10251300E5A1A2E2500653A7FB75A1FB7F01021BB5
:102523008C74F7121A41752101900376E0640670EA
:1025330015120E058A828B83A3A3A3A3A3A3E0FA98
:10254300A3E0FB120E71A2AFE433FED2AF90037C83
:10255300E0640170187A207B00900375E0F912158E
:10256300197A207B00900375E0F91213F9906182C8
:10257300E0D2E6F0900523E0602185C62280169024
:10258300037BE064017008E5C654F84405F5C653BF
:10259300BEFC1222B07401652160E4EEA2E092AFAA
:1025A3007F02021AED8E238F248582288583278557
:1025B3001882851983E0CEA3E0CF852882852783FF
:1025C300EBC9EAC8EDCBECCA75F010C3E833C8E930
:1025D30033C9EA33CAEB33CBC3EA9EF526EB9FF547
:1025E30025B35004AB25AA26EC33CCED33CDD5F07F
:1025F300DAAE23AF242274F1121A418A088B098CB4
:102603000A8D0B90828378081217EB740F1219B19D
:10261300780C121811908283780C1217EB780879D2
:102623000C12160C90826B50107808790C1217ABB1
:10263300780812162C4014800E780C79081217AB08
:10264300780C12162C50047901800279007F08025D
:102653001AED74ED121A418A088B098C0A8D0B90BE
:10266300828378081217EB74131219B1780C1218BD
:1026730011908283780C1217EB780C790812160CE0
:1026830040117808790C1217ABAA08AB09AC0AAD54
:102693000B802275100075110075120075130178F7
:1026A30010790C1217AB78107908121772AA10ABB5
:1026B30011AC12AD137F0C021AED908283780812CD
:1026C30018118A828B8378081217FE7F04021AED91
:1026D30074F5121A418C828D8378081218118A823C
:1026E3008B8378081217D712272BC3E09CF0A3E043
:1026F3009D12271D40229082AB78081218118A82FE
:102703008B8378081217988A828B83A3A3A3A3E0F1
:102713002420F0A3E0344EF080A0F088828983C3A4
:10272300E09420A3E0944E22EA2404F8E43BF98CDD
:10273300828D83A3A3A3A3E0FCA3E0FD8882898306
:102743002274F5121A419004D9E0FAA3E0FBE929B7
:10275300F8E433F9747C28F582748139F583E02A2F
:10276300F508A3E03BF5097808121BE8908287126D
:10277300182F1225A8740212197B8A088B098C0A58
:102783008D0B7410780812173AAA08AB097F04025C
:102793001AED74F1121A418A0C8B0D8C0E8D0F7485
:1027A300111219B1121BFF74111219B1E02401F5B2
:1027B30008A3E03400F509E4F50AF50B780C790871
:1027C30012164B9082677808121811780C79081248
:1027D300164BAA0CAB0DAC0EAD0F1225A87402124A
:1027E300197BEA4B60047A0180027A00EC2AFCE44C
:1027F3003DFD74131219B1E0F8A3E0F9E8FEE9FF17
:10280300ECF8EDF97A717B021218DA88088909E489
:10281300F50AF50B8E828F837808121820ECF8EDF9
:10282300F97A717B021218DA8A088B097405780821
:102833001219528E828F83A3A3A3A3E508F0A3E505
:1028430009F07F08021AEDC082C083E9906000F0AE
:10285300D083D08222C0E074F2121B2DA2AFE433E6
:10286300FED2AFC2C0E5D1A2E4500675D10F121358
:1028730063EEA2E092AF7F01021B8CC0E074F21200
:102883001B2DA2AFE433FED2AFE589A2E0500312C1
:1028930012C1758900C2C5EEA2E092AF7F01021B8F
:1028A3008CC0E0C0D0E8C0E0A2AFE433F8D2AFC23E
:1028B300C7E8A2E092AFD0E0F8D0D0D0E032C0E0D9
:1028C300C0D0E8C0E0E9C0E0EAC0E0EBC0E0C0820D
:1028D300C083A2AFE433F9D2AF9009E2E0F89009E4
:1028E300E3E068700B539AF79009E47401F0802ECB
:1028F300C2EA9009E2E0F87401289009E2F0E8FAEC
:102903007B0074622AF58274093BF583E0F5F99044
:1029130009E2E0C3948040069009E27400F0E9A262
:10292300E092AFD083D082D0E0FBD0E0FAD0E0F9E0
:10293300D0E0F8D0D0D0E032C2AF020000220201D2
:102943001FFFFFFFFFFFFFFFFFC082C083E9901857
:1029530098F0D083D08202011F74F61219D5E99042
:1029630002E8F0900348E0F508750900740278085E
:10297300121952AA08AB0912146B9002E9122E30F5
:10298300606E900348E075F003A4FAABF012146B89
:10299300900306122E30700B9002E9123674121453
:1029A30071804D9003061245DD7AFF7BFF12123DC5
:1029B3007A00801EEAF50875090074027808121976
:1029C3005212407974FFF0A31245F1A3A3E4F0A3DC
:1029D300F00A900348E0F8EAC39840D87905120852
:1029E300E39002E8E0F91207CF7A6D7B09120B5FDF
:1029F30002411574F41219D58A088B09EB548060CF
:102A0300479002E8E0F91213DB8A0A8B0BAE0AAF98
:102A13000BEA4F602A8A828B83E064B0701A120833
:102A2300F5E960148E828F83A3A3A3A3E0F9EE24B8
:102A330005FAE43FFB1208C5EEFAEFFB1213C9AA2D
:102A430008E5096480FB80047A007B00022C5E7435
:102A5300F21219D574FB121965EAFEEBFFEA4F6017
:102A63004374031219B11232DD851882851983EC80
:102A7300F0A3EDF074021219B1E9F0AA18AB191220
:102A830007C9E9F508707774131219B1E0F50AA3C1
:102A9300E0F50BE50A450B60658E828F831230717A
:102AA300EE4F700575080280557A067B0012146B91
:102AB3008A0C8B0DA80CA90DEA49700575081380C3
:102AC3003D8A828B83E4F0122B08A3EEF0A3EF126E
:102AD30048B6E50AF0A3E50BF09002EC122C229025
:102AE30002EC6017E0FCA3E08003EAFCEBFD8C82C0
:102AF3008D83122C2270F38C828D83123C99A9084A
:102B0300740502484FA3F08A828B83A32274F212C6
:102B130019D58908E9F50C750D007403780C1219A1
:102B230052850C0A850D0B9002EBF09002E91245D9
:102B3300C2122C20602F1214717900801EE9F50C4B
:102B4300750D007402780C1219529002E9123F328B
:102B53008882F583A3A3E4F0A3F009900348E0F887
:102B6300E9C39840D8900348E0FA850AF0A4CAA8BC
:102B7300F0850BF0A428FB12146B8A0C8B0DAE0CA2
:102B8300AF0DEA4F7003022C16900348E0FC850A50
:102B9300F0A4CCA8F0850BF0A428FD79001213B79C
:102BA3007C008032EDF50C750D007403780C12195E
:102BB300528A828B83122C1B8882F583E4F0122CB9
:102BC30028A3A3F0A3F00DEDC3950840D7EE250A83
:102BD300FEEF350BFF0C900348E0F8ECC398502947
:102BE300ECF50C750D007402780C1219529002E981
:102BF300122C1BE82402500109FAE9FB8A82F583AF
:102C0300EEF0A3EFF07D0080BEE5089002EBF079D3
:102C13000080027913024852123F36F922A3A3120D
:102C230032F5EA4B22A3F088828983A3A3A3A322CC
:102C330074F41219D57900EAA2E0501F750847759C
:102C430009827808121BE879107C047D007A9A7B4C
:102C5300181208DD740212197BE9F97F04021AA71E
:102C6300C082C0839002EC124038601C8882898342
:102C7300A3A3E06A7003A3E06B8882898370E8A34F
:102C8300A3A3A312367480047A007B00022955742F
:102C9300F21219D574FD121965EAFEEBFF8518824D
:102CA300851983E4F0A3F074021219B17401F09052
:102CB30002EF1240387011120A9912146B9002EF4E
:102CC300122E307003022E241233CAEE2404F50AA6
:102CD300E43FF50B850A82F583E024FE603C24FC87
:102CE300607424FE607E24FE7003022D7424FE7043
:102CF30003022D8124FE7003022D8E24FE70030235
:102D03002D9B24FE7003022DA824FC7003022DC901
:102D130024FE7003022DE1022E1D120A999002F186
:102D2300EAF0A3EB122E39120517E96003022E1DF8
:102D33009002F1121BFF8E828F83A3A3A3A3A3127E
:102D430045DD8508828509831236741208AD740245
:102D530012197B022E1DAC18AD19EEFAEFFB120807
:102D6300FB022DECAC18AD19EEFAEFFB1209018052
:102D730078AC18AD19EEFAEFFB120907806BAC18AB
:102D8300AD19EEFAEFFB12090D805EAC18AD19EE2A
:102D9300FAEFFB1209138051AC18AD19EEFAEFFBF1
:102DA300120919804474021219BB880C890D780C1E
:102DB300121BE874021219CBEEFAEFFB12091F740F
:102DC3000212197B8023AC18AD19EEFAEFFB12093E
:102DD30025E9F8701674021219B1E4F0803CAC18BE
:102DE300AD19EEFAEFFB12092BE9F8E8602C8E829D
:102DF3008F83A3E064146022850A82850B83E090AD
:102E030002F1F08518828519831236749002F2124A
:102E130032DDE8A3122E39120511EEFAEFFB120888
:102E23008374021219B1E0F9740302484FEAF0A364
:102E3300EBF0F9EA4922F07CF17D028508828509ED
:102E4300831232F52274E81219D574FA12196574D3
:102E5300041219B1ECF0A3EDF08A128B13EA2405E6
:102E6300F50EE43513F50FEA2402F510E43513F5F6
:102E73001185108212391B7508007C037D007900CF
:102E83007AF17B021213B7E50E2402F516E4350F2F
:102E9300F51774021219BB880C890D780C121BE804
:102EA300850E82850F83A3A3A3A3E0F50C750D0004
:102EB300780C121BE8E50E2405F50CE4350FF50D2F
:102EC300780C121BE8851682851783123963121951
:102ED3007B8A0C8B0DE50C450D700302304080207E
:102EE300851882851983E088828983F0050885180F
:102EF30082851983A3E0C0E012307BD0E0F005089F
:102F0300E50A24FBF8E50B34FFF9C3E50898E499D7
:102F130040030230407E007F00851282851383A325
:102F2300A3A3A3E0F5097809121BECE4F514F51546
:102F33007814121BE87514EE7515027814121BE849
:102F43009002EF121BFF74091219B1121BFFE50A5D
:102F530024F9F9AC0CAD0D12397512197BE9600334
:102F6300022FE7850E82850F83A3A3A3A3A3A3A3A5
:102F7300E0F89002EEE068706BE0F5148E157814BB
:102F8300121BE81245DA850E82850F83A3A3A3A340
:102F9300A3A3A3A31236741213B1740212197BE90B
:102FA30060421240357034E4F5147814121BE87C47
:102FB300FF7DFF790712398412197B8B15A915122E
:102FC30030907017850E82850F831247697404123F
:102FD30019B112402212399602306E850C82850D8A
:102FE30083123071A818A919881489157814121B33
:102FF300E874041219B1121BFF8516828517831218
:10300300394512197B8A0C8B0DEE4F7003022ED8B3
:1030130012307BEE12308612392CEF123086F8A371
:10302300E03400F9E50C4B6003022EE388828983C8
:1030330074FFF0050812307B74FFF00508E50860A3
:10304300141313543F1232E3120523E96003123FB2
:103053004979008016850E82850F831247697404AF
:103063001219B1124022123C99790A0238FCA3A327
:10307300A3A3E0FEA3E0FF22A8089002F2E0281237
:10308300392C22F00508089002F2E028229002F27F
:10309300EAF0A3EBF0EA492274E81219D574FA12A4
:1030A300196574021219B11232DD74041219B1ECEC
:1030B300F0A3EDF074021219B1E02405123906F5FC
:1030C30083E0F50CA3E0F50D74021219B1E02402BC
:1030D300F510A3E03400F5118510821236787508D7
:1030E30000750900EA24FCFEEB34FFFF8008050CA1
:1030F300E50C7002050DA808C3EE98EF9400500389
:1031030002328EA818A919880E890F780E121BE8AF
:10311300851482851583A3A3A3A31245B9121BE8C3
:10312300E5142405F50EE43515F50F780E121BE8AA
:10313300851482851583A3A31245DDAA0CAB0D125A
:1031430007E7740612197B8A0E8B0FEA4B70030292
:10315300328EEA2404F516E4350FF517851682F549
:1031630083E0F50CA3E0F50D851882851983121B06
:10317300FFAC0EAD0F85108285118312391212191F
:103183007BE9F509600302328E74021219B1123918
:103193003CF5097809121BECE4F512F513781212C9
:1031A3001BE87512EE7513027812121BE89002EFFA
:1031B300121BFF74071219B1121BFFEEF9AC0EAD0F
:1031C3000F12397512197BE9F509600302328EE596
:1031D30008703BE4F50EF50F780E121BE87CFF7DBB
:1031E300FF790912398412197B8B0FA90F9002F30F
:1031F300123093700D74041219B11232D079110286
:1032030032BF9002EEE024029002F2F080149002AA
:10321300F2E0FA9002EEE0790024025001096A49D3
:10322300706DA8089002EEE0FAE82AFAE43400FB95
:10323300EE9AEF9B4055851682851783E0C0E09098
:1032430002F3123080D0E0F00508851682851783DB
:10325300A3E0C0E0089002F3123080D0E0F005084C
:103263009002EE1245B9121BE81245DAA808123291
:10327300C212197B9002EEE02508F50874FF650C75
:10328300700474FF650D60030230F1E508601C9063
:1032930002F2E0F5F0E508841232E3120529E96051
:1032A300069002F3123F4C79008011E50970037513
:1032B300090A74041219B11232D0A9090238FC9018
:1032C30002F3E028FAA3E03400124597221245C620
:1032D300E50CF0A3E50DF022A3A3EAF0A3EBF022A3
:1032E3009002F1F07CF17D02851082851183123208
:1032F300F522123C89FB2274EC1219D574FC1219C5
:1033030065123DA974021219CB850A82850B8312BB
:1033130034C970030233BA1233CAA818A919881022
:1033230089117810121BE87CFF7DFF790B850882D9
:1033330085098312398A12197B1233D4700B850ADB
:1033430082850B83123993807B8E828F83A3A3A301
:10335300A3E0F5127812121BECE4F512F5137812C0
:10336300121BE87512F17513027812121BE878101C
:10337300121BE874091219B1121BFF74091219B157
:103383001234C285088285098312397B12197BE9BD
:10339300FE70157CF17D02850882850983123674DF
:1033A30012052FE97009801A74166E70027E0012DE
:1033B3003F49EE7004800B7E01850A82850B8312E0
:1033C3003C96EEF9023CABEE2402F508E43FF50926
:1033D300228A108B119002F2EAF0A3EBF0EA4B225F
:1033E30074EC1219D574FC121965EAFEEBFF8C0E0E
:1033F3008D0FEA2405F508E43FF50974021219CB91
:103403008508828509831234C970030234B2EE241D
:1034130002F50AE43FF50BA818A919881089117859
:1034230010121BE87CFF7DFF790D850A82850B83D3
:1034330012398A12197B1233D4700B8508828509DD
:103443008312399380768E828F83A3A3A3A3E0F59F
:10345300127812121BEC850882850983A3A3121B21
:10346300FF7512F17513027812121BE87810121B04
:10347300E874091219B1121BFF74091219B112343D
:10348300C2850A82850B8312397B12197BE9FE7090
:103493000F7CF17D0212366E120535E97009801A30
:1034A30074166E70027E00123F49EE7004800B7E2C
:1034B30001850882850983123C96EEF9023CABE054
:1034C300F9AC0CAD0D22123C818A0C8B0DEA4B2218
:1034D30074E81219D574FE1219658A168B178C14A9
:1034E3008D15EA2405F50CE43517F50DEA2402F5EC
:1034F3000EE43517F50F850E821236788A088B098C
:10350300750B007C037D0079007AF17B021213B7FF
:10351300750A00E50814F5100424FFF508E50934DD
:10352300FFF509804C9002F1E0FA9002EEE0F8EA30
:1035330028F8E43400F9E50898E50999500D90025C
:10354300F1E0F8E510C3989002EEF0E0F512751380
:10355300007812121BE81245DA9002F2E02A1232C6
:10356300C712197B9002EEE0F89002F1E028F00513
:103573000A850C82850D83A3A3123F4240030236C2
:10358300539002F1E0C39508E495094003023653D2
:10359300AE0AEE2EFEE433FF123695AC18AD1912C7
:1035A30045E7E439FB1207ED8A128B13AC12AD1316
:1035B300EA4D701B750B01123686123C9A9002F28B
:1035C300122C226003121423A90B74020238FE8505
:1035D3001682851783A3A3A3A3E0F50B780B121B15
:1035E300ECE4F512F5137812121BE87512EE75135D
:1035F300027812121BE89002EF121BFF74071219D4
:10360300B1121BFFA910850E82850F8312397B121D
:10361300197BE9F50B70A01240356003023528E4ED
:10362300F512F5137812121BE87CFF7DFF790F85E5
:103633000E82850F8312398A12197B8B13A91312F9
:10364300309060030235281236861239970235CD41
:103653007CF17D02850E82850F8312367412053B41
:10366300E960030235C079000235CD850A82850BF6
:10367300831232F52212367C22F583123C89FB1227
:10368300060722123695123C89F9EA8514828515BC
:103693008322850C82850D83E02EF8A3E03F888288
:1036A300F5832274E81219D574FA12196574041299
:1036B30019B11232DD8C168D1774041219B1E0247E
:1036C30005F50EA3E03400F50F74041219B1E024DC
:1036D3000212390612391B7F007E00A818A9198827
:1036E3000889097808121BE8850E82850F83A3A336
:1036F300A3A3E0F5088F097808121BE8E50E24055B
:10370300F508E4350FF5097808121BE8850E828564
:103713000F83A3A312396312197B8A0C8B0D8024A8
:10372300123936F00F123936F00F9002EE123C6C5C
:10373300121BE81245DAEFF81232C212197B90021B
:10374300EEE02FFFE50C450D607A8518828519831D
:10375300121BFFAC0CAD0D85148285158312391233
:1037630012197BE9FEE50C2404F510E4350DF5117F
:10377300E9704B74041219B112393CF50878081238
:103783001BECE4F508F5097808121BE87508EE75DB
:1037930009027808121BE89002EF121BFF7407124C
:1037A30019B1121BFFE50A24FAF9AC0CAD0D85140F
:1037B3008285158312397B12197BE9FE6036123933
:1037C30052123C99EF70030238E99002F2E0F5F0EF
:1037D300EF849002F1F07CF17D02851482851583DC
:1037E300123674120541E960069002F3123F4C79D8
:1037F300000238FCEFF508703DE4F512F51378127A
:10380300121BE87CFF7DFF791185148285158312D5
:10381300398A12197B8B13A9139002F31230937018
:10382300091239521239960238FC9002EEE0240450
:103833009002F2F080359002EEE0F89002F2E0FCA4
:10384300E82404FAE43400FBEA6C4B60030237CD4E
:10385300E50A24FAFAE50B34FFFBE50828F8E4341B
:1038630000F9EA98EB9950030237CD851082851150
:1038730083E0C0E09002F3E02FF8A3E034008882F5
:10388300F583D0E0F00F851082851183A3E0C0E0BB
:10389300123923D0E0F00F74021219BB880889098A
:1038A3007808121BE874021219B1121BFF850E82ED
:1038B300850F83A3A312394512197B8A0C8B0DEA5A
:1038C3004B700302372374021219B1E0C0E01239BE
:1038D30023D0E0F00F74021219B1A3E0C0E0123953
:1038E30023D0E002372BEE70027E0A850E82850F0D
:1038F30083123958123C99EEF9740612197B7F1022
:10390300021AA7F514A3E03400F5158514822212D8
:1039130032F51207D574022212367C8A0A8B0B22E7
:10392300123927229002F3E02FFAA3E034008A82AF
:10393300F5832212392774FF221245C6A3A3A3A33A
:10394300E0221245E1AA0CAB0D1207F374042285A1
:10395300108285118312476FF9851682851783229A
:103963001245E1850E82850F831232F51207E77443
:1039730006228510828511831232F51209557409C6
:10398300228510828511831232F51208BF74022238
:10399300123C9FE8F0A3E9F079112274EA1219D5D9
:1039A30074FE1219658A088B098C128D13EA24059B
:1039B300FEE43509FF123C758A0C8B0DEE2406F5E7
:1039C3000EE43FF50FEA4B7003023A84E508240244
:1039D300F50AE43509F50B8A828B83A3A3A3E0A23E
:1039E300E55022123AAE8A108B11EA4B6024791209
:1039F300AC0CAD0D12366E8510828511831219D36E
:103A0300E9F50C707F850E82850F83E0600979529A
:103A13008011750C0E806D850882850983A3A3A38D
:103A2300A3E0F9E4F508F5097808121BE88E828F04
:103A330083A3A3E0F5087808121BE88E828F83A383
:103A4300A3A3121BFF8E828F831245DD850A828515
:103A53000B83123DBB12197BE9F50C7011850E82A5
:103A6300850F83E0702C12366E120547802474167E
:103A7300697011750C0074181219B11245C2E480F3
:103A830010750C01124765851282851383E8F0A334
:103A9300E9F0850E82850F83E0600479008002A936
:103AA3000C740212197B7F0E021AA78518828519DE
:103AB300831232F51209492274EC1219D574F712E4
:103AC30019658A0A8B0B8C108D11EA2405FEE435E7
:103AD3000BFF750C00123C758A088B09EA4B7003C7
:103AE300023C57E50A2402F50A5002050B8A828B31
:103AF30083A3A3A3E0A2E55025123AAE8A0C8B0D53
:103B0300EA4B604F7912AC08AD0912366E850C8210
:103B1300850D831219D3E9F50C6003023C5A850A1B
:103B230082850B83E0F508A3E0F509AA08FB1209D7
:103B33003DEA4B70197AFF7BFF12093DEA4B700394
:103B4300023C4D8A828B83E508F0A3E509F07508F2
:103B5300008008750C0E023C5A05089002EBE0F851
:103B6300E508C3984003023C4DE508F50E750F00C8
:103B73007403780E1219528A828B83A3A3E0250E55
:103B8300F8A3E0350F12402A70CF8E828F83123C48
:103B93008E1232DD8E828F83A3A3123C8E1232DB10
:103BA300EE2404F508E43FF509850882F583E088EF
:103BB300828983A3A3A3A3F0A3E4F0EE2405F50E67
:103BC300E43FF50F850E82F583123C8EA3A3A3A3D6
:103BD3001232DB7512077513007812121BE8EEFC24
:103BE300EFFD74041219C312459812197BE4F51200
:103BF3007812121BE8850882850983E0FC7D007931
:103C030017850A82850B8312398A12197B7407126E
:103C130019B11233DB6038850882850983123C6C45
:103C2300121BE8850E82850F831245DD124598121B
:103C3300197B74021219CB12366E12054DE96023FB
:103C430074071219B1123F4C8019750C098008755D
:103C53000C118003750C0112476585108285118351
:103C6300123C99A90C74098041E0F50875090078A4
:103C73000822AC18AD198E82F583123C8122123CC6
:103C830089FB1207ED22E0FAA3E0221232F58882C3
:103C9300898322123C9FE8F0A3E9F022E0F8A3E035
:103CA300F9850E82850F8322740412197B7F0C021F
:103CB3001AA774EC1219D5123DA9751000EA240253
:103CC300F50CE43FF50D850C82F583123674120969
:103CD3003D8A088B09EA4B7003023D8D850A828574
:103CE3000B83E064016003023D82AC08AD09AA0ABC
:103CF300AB0B120931E9606F8508828509831230A5
:103D030073EE2406F50AE43FF50B8E828F83A3A39B
:103D1300121BFF8E828F83A3A3A3A3121BFF850A0B
:103D230082850B83121BFF79188E828F831245DDE8
:103D3300850C82850D83123DBB12197BE9F874163D
:103D430068700B850A82850B83E4F0A38014E96015
:103D5300128E828F83123674850E82850F83EAF06A
:103D6300A3EBF089108018780E121BE8AC08AD099C
:103D7300EEFAEFFB120937740212197BE9F510AA68
:103D830008AB09120943E510700E850C82850D837B
:103D9300123674120553800974166510700375107A
:103DA30000A910023CB0EAFEEBFF8C0E8D0FEA2453
:103DB30005F50AE43FF50B221232F512095B74068E
:103DC3002274EA1219D57508007509007E007F0078
:103DD300750A00EC2402F510E43DF5118035EC651D
:103DE300087003ED65096003023E7988828983A325
:103DF300A3E06A7003A3E06B707C88828983A3A32A
:103E0300A3A3124769EE28FEEF39FFEA28FAEB393C
:103E1300FB050A123F3F503BE50AF50C750D007494
:103E230003780C121952851082851183123F3212C6
:103E3300402A601FE508450970A48C088D09888213
:103E4300898312307188828983A3A3E02EFAA3E0C9
:103E53003F80BDE50AC394025003023F2D7508005D
:103E6300750900EE4F600FEEFAEFFB12141D8A0E78
:103E73008B0FEA4B70057900023F2F750B00807F93
:103E8300E50BF50C750D007403780C1219528510AF
:103E930082851183E0250CF50CA3E0350DF50DE5C6
:103EA3000C2406F514E4350DF51585148212402D06
:103EB300603AE50C2404F512E4350DF513851282FE
:103EC300F583121BFFE50E2508FAE50F1245911243
:103ED300197B851282851383E02508F508A3E03555
:103EE30009F509851482851583123F4CE50B600D96
:103EF3007C087D007900AA0CAB0D1213B7050BE506
:103F03000BC3950A5003023E8385108285118312E9
:103F130047698882F583A3A3A3A3A3A3E50EF0A314
:103F2300E50F122C29EEF0A3EFF07901023AA91262
:103F33003F3622E0250CF8A3E0350D229002EBE09A
:103F4300F8E50AC398229002F21232F512142322E2
:103F530074F01219D58A0E8B0F8C0A8D0B750D0018
:103F6300750C00804A7916EE2406F508E43FF5093E
:103F73008E828F83A3A3121BFF8E828F83A3A3A39F
:103F8300A3121BFF850882850983121BFF850E82FE
:103F9300850F83A3A3123DBB12197BE9F50D74169C
:103FA300697064850882850983E4F0A3F0050C90A9
:103FB30002EBE0F8E50CC398505EAA0C7B008A087C
:103FC3008B0974037808121952850A82850B83A31F
:103FD300A3124084E8FEE9FF12402B603BEA240170
:103FE3000A50010B9002EBE06A7001EB60148882C7
:103FF3008983A3A3A3A3A3A3A3A3124038600302AB
:104003003F687918023F6AE960A31247657410128A
:1040130019B1124022123C99A90D7F08021AA71266
:104023003C89F5838A8222F98882F5831245E1EC83
:104033004D229002F212476FF9E8492274F61219E1
:10404300D57C0080010C900348E0F8ECC398501F26
:10405300ECF50875090074027808121952124079B8
:10406300E06A7003A3E06B70DCE8FAE9FB80047A92
:10407300007B000241159002E91240848882F58397
:1040830022E02508F8A3E03509F92274F21219D5C4
:104093008A088B09750A0080278E828F83A3A3A3C6
:1040A300A3122C2060031214237C087D007900EEF8
:1040B300FAEFFB1213B78E828F83E4F0A3F0050AA5
:1040C300123F3F5028E50AF50C750D007403780C78
:1040D300121952850882850983A3A3E0250CFEA348
:1040E300E0350DFF8E82F58312403870AC8508826F
:1040F30085098374FFF0A3F002485274F61219D5B0
:1041030012470670067A007B008007A3A3A3A312BD
:1041130036747F02021AA774F61219D5E9FE8C824F
:104123008D83E06402703D1246F6F508A3E0F9A81A
:104133000874026870037429697029750802750987
:10414300007808121BE8740E1219B1121BFF740ECB
:104153001219B1121BFFEEF912124F740612197BDA
:10416300E9F98002790180AA74E81219D574FB1267
:104173001965E9851882851983F08A168B17ECFE79
:10418300EDFF7510008C82F583A3A3A3E0A2E45096
:104193002A741D1219B1123AB48A828B83E58245BF
:1041A300837003024587790AEEFCEFFDAA16AB176D
:1041B3001219D3E9F510600302458A741F1219B16D
:1041C300E0F508A3E0F50974211219B1E0F50AA39B
:1041D300E0F50B74231219B1E0F50EA3E0F50F8E91
:1041E300828F83E064026003024533A3124769852B
:1041F3000882850983A3858212858313EE2406F53D
:104203000CE43FF50D888289831245E7F514E43900
:10421300F5157814121C7201000028012842420788
:104223000002280E430328774200292F4401295A0C
:10423300440229F84303292F440429D0443345E594
:104243000E450F600302452E850C82850D831247B0
:1042530069E8FAE98882F583E0850A82850B83128F
:1042630045F112459E121BE88A828983A3E0FCA3D1
:10427300E00244BCE50E450F600302452E850A8229
:10428300850B837401F01245CF850882850983F07D
:104293007C007D008E828F83A3A3A3A3E02401FA75
:1042A300A3E03400FB1207EDEA4B60458A828B835F
:1042B300E02402F8850A82850B83E028F0EA2404CF
:1042C300F8E43BF98882F583E08512828513831233
:1042D30045F7F08A828B8312459E121BE88A828BF4
:1042E30083A31245DDE5082403FAE43509FB024400
:1042F300C1850A82850B83E02404F07C047D007968
:1043030000AA12AB131213B702458AE50E450F60DC
:104313000302452E1245CFFEA3E0FF850A82850BDB
:10432300837404F0EE850882850983F0EF85128299
:10433300851383F074031219CB1246E8700302430A
:10434300D98A828B83A3A312307174011219BB889B
:104353000E890F780E121BE874051219B1121BFF98
:104363007CFF7DFF1207F3740412197BEA4B703351
:10437300850C82850D831245B9121BE8850C828555
:104383000D83A3121BFF7C027D007AEF7B82120553
:10439300F5740412197BE9700A74011219B174FFE0
:1043A300F0A3F08E828F83E064027034750C027583
:1043B3000D00780C121BE88E828F83A31245DDE576
:1043C300082404FAE412459112197B850A82850BAD
:1043D30083E02402800974011219B1EEF0A3EFF017
:1043E30074011219B11245AFF074011219B1A3127D
:1043F30045A7024528E50E450F600302452E850CAF
:1044030082850D831245C21245DDAA16AB1712121F
:1044130055850A82850B837402F08508828509839A
:10442300EAF0851282851383EB02452BE50E450FD7
:10443300600302452E1245CFF8A3E0F9850A828571
:104443000B837402F0E8850882850983F0E98512FD
:104453008285138302452B850C82850D8312367466
:10446300121399EAF8C3950EE4950F405AEA650EC4
:10447300450F700478008021851882851983E0FC3C
:10448300E50E2CFCE4350FFDC3EC9AED94005003CC
:10449300E08005E50EC8C398F8E8850A82850B839A
:1044A300F0F50A750B00780A121BE8850C82850D5E
:1044B30083E0250EFCA3E0350FFDAA08AB091245E6
:1044C3009812197B02458A75100702458AE50E4545
:1044D3000F7058850C82850D83124769850A828582
:1044E3000B8374071245F11245A71245F1A3E0852A
:1044F3001282851383F0E82402FAE439FB8A82F5F9
:10450300831245A7A3122B081245AF122C2812457C
:10451300B3F0E82405F8500109F58289831245B305
:10452300A31245F7A3A3A3A3F0805C75100B8057D8
:10453300741D1219B11246FF604A12476F880CF5B9
:104543000DE8450D603E74251219B1E0F5107810A1
:10455300121BEC780E121BE8780A121BE87808127B
:104563001BE874071219B1E0F9EEFCEFFDAA16ABD4
:1045730017850C82850D831219D3740712197BE9F1
:10458300F510800375100EA91074050238FE350965
:1045930012459722FB12139F740222E0F50A750B52
:1045A30000780A22E08508828509832212460122C7
:1045B300124601A3A322E0F50E750F00780E221216
:1045C30045C622E0F8A3E0F583888222850C828524
:1045D3000D831245C6E0229002EF1245E122E0FC72
:1045E300A3E0FD22123C89F8E4C8F9EA2822F08806
:1045F30082898322F088828983A312460122E0857F
:104603000882850983A3A32274EE1219D574FE12BE
:1046130019658A088B09ECFEEDFF890AAC18AD1900
:104623001246E870030246D985188285198312461B
:10463300FF70030246D4A312476E880EF50FE845B8
:104643000F70030246D474141219B1E0F510A3E0FD
:10465300F511E50AF50B780B121BEC74191219B15D
:10466300121BFF7810121BE8741B1219B11234C20B
:10467300AA08AB09850E82850F831219D37405121C
:10468300197BE9F50B705274FE650A604C850C8248
:10469300850D83E0640270411246F6FAA3E0F9EA5D
:1046A300F87402687003742969702E85108285116D
:1046B300831245E7F50CE439F50D780C121BE8EE8F
:1046C300FCEFFDAA08AB09120973740212197B806F
:1046D30008750B0E8003750B01A90B740212197B6D
:1046E3007F0A021AA7EEFAEFFB1207ED8A0C8B0D75
:1046F300EA4B2212476E8882F583E0221232F512CA
:104703004706221208EF8A828B83E582458322744F
:10471300F61219D574FE121965740C1219B11247E9
:1047230069E8851882851983F074011219B1E9F0DB
:10473300E4F508F5097808121BE8750802780812F1
:104743001BE874041219BB880889097808121BE84E
:1047530079FE12095B740612197B740212197B022B
:1047630041158E828F8312476FF922A3E0F8A3E0ED
:104773002274F71219D5EAFEEBFF8908900306129B
:1047830045DD121255EA5402600BA908EEFAEFFB5D
:104793001207E1800279017F01021AA774F212194C
:1047A300D574FE121965EAFEEBFF74016960137498
:1047B3000269600302484D7901120B7DE96003022F
:1047C300484DEEFAEFFB12093DEA4B600312094331
:1047D300A818A919880889097808121BE87508021E
:1047E3007509007808121BE87508D77509827808DF
:1047F300121BE87CFF7DFF7A017B001207E774063A
:1048030012197B803B850882850983A3A3A3A3A3F5
:10481300A31245C21245DDEEFAEFFB12123DE4F599
:104823000CF50D780C121BE874021219B1121BFF60
:104833007CFF7DFFAA08AB091207F3740412197BEE
:104843008A088B09E508450970BB740212197B7F3E
:1048530006021AA774F41219D58A088B09ECFEED27
:10486300FF901898E0F460487A097B001213C3EABA
:104873004B603D8A828B8374B1F0A3E41248B61275
:104883002B09A3E508F0A3E5091248B6A3EEF0A3AC
:10489300EFF0740C1219B11247698A828B83A3A3B8
:1048A300A3A3A3A3A3123C99901898E0F91213CFE2
:1048B300022C5EF08A828B83A3A3A3A32274EE123D
:1048C30019D574FA1219658A0A8B0BE9FF8C088DC6
:1048D300097E00850A0C850B0D780C121C2C000434
:1048E300109D4B08492B494A496D499049B349E406
:1048F30049074A1E4A4E4AFE4A214B444B724B9D7E
:104903004B9D4B774A74016F701985088285098323
:10491300E0C39403500D850882850983E0901984D0
:10492300F080027E18024BC574026F7015850882F1
:10493300850983E0F8A3E0F9901985E8F0A3E9F08D
:1049430080027E18024BC574016F70198508828539
:104953000983E0C39402500D850882850983E090A2
:10496300074FF080027E18024BC574016F701985E2
:104973000882850983E0C39405500D850882850963
:1049830083E0900750F080027E18024BC574016FDC
:104993007019850882850983E0C39402500D850848
:1049A30082850983E0900751F080027E18024BC58F
:1049B30074106F7027750C10750D00780C121BE8BE
:1049C300AC08AD097A527B0712139F740212197B4C
:1049D3008A0C8B0D850C82850D8380027E18024B19
:1049E300C574016F7019850882850983E0C3940239
:1049F300500D850882850983E0900762F080027E6E
:104A030018024BC574016F700D850882850983E018
:104A1300901988F080027E18024BC574046F7026CB
:104A2300908287780C121811850882850983780C87
:104A330012161C501185088285098312185390079A
:104A43006412185F80027E18024BC5EF70211207B3
:104A530087E970131211E3E9F50D79501214EFE9A8
:104A6300F50C1211D1800A9007F77401F080027ED1
:104A730018024BC574076F707D750E06750F0078AD
:104A83000E121BE8850882850983A3AC82AD83746B
:104A9300021219C31213A5740212197B8A108B1107
:104AA30085100E85110F7C007D00AA18AB198508AF
:104AB30082850983E0F9121177E9F50CE50CC394BB
:104AC3000A502F120787E97015A90C1211E9E9F5AD
:104AD3000E79501214EFE9F50D1211D1801AE50C7D
:104AE300F8790074F828F582740739F5837401F0B6
:104AF30080067E0280027E18024BC574016F701916
:104B0300850882850983E0C39402500D8508828558
:104B13000983E0900763F080027E18024BC574019D
:104B23006F7019850882850983E0C3940A500D8547
:104B33000882850983E0901987F080027E18024B72
:104B4300C574016F7025850882850983E0C39407C6
:104B53004019850882850983E0C39411500D8508A7
:104B630082850983E0901989F080577E18805374F9
:104B7300016F70229007F6E0F50C850882850983A2
:104B8300E09007F6F0E50C70399007F6E0640170E9
:104B9300311211D1802C7E188028C3E50A9427E5B1
:104BA3000B9400501B74026F70168508828509836D
:104BB300E0FCA3E0FDAA0AAB0B12060DE9FE80029E
:104BC3007E02EEF9740612197B7F0A021AA774ECAF
:104BD3001219D574DA121965890D8A128B138C0A8E
:104BE3008D0B743A1219B1E0F50C908241AC18ADFB
:104BF300197406121878AC18AD19AA12AB13A90DC3
:104C0300121177E9FEEEC3940A4003024D46EEF912
:104C13001211B3E9FF901984E064027004740180F7
:104C2300027400F5087808121BECAD0CEFFCEEF9EA
:104C3300AA0AAB0B121225740112197B7C147D0096
:104C4300790074121219C31213B78A0E8B0F850ED3
:104C530008850F0974121219CB7A1075F006EEA4A9
:104C63002424F91214E9E9703C7C1079FF741212C0
:104C730019C3121417E9702D74221219B1AC82AD45
:104C8300837A0475F006EEA42425F91214E9E9F5F4
:104C93000874121219CBEFA2E0E433F9AA0AAB0BA2
:104CA300120697E9F874061219CB7A0C74702EF970
:104CB3001214E9E9707A74061219C31211A7750E5A
:104CC30000E50EC394045068E50EF87900E875F02A
:104CD30003A4C8AAF075F000A42AFA75F003E9A4A6
:104CE3002AF974061219B1E58228F508E58339F526
:104CF30009850882850983E0F8A3E0F9E849602C77
:104D0300850882850983A3A3E0F510751100781047
:104D1300121BE8850882850983E0FCA3E0FDAA0A4B
:104D2300AB0B120961740212197BE9F8050E80912D
:104D3300EFA2E1500E90074EE0F9AA0AAB0B12095D
:104D430067E9F87404650C700F901984E0640270CD
:104D530007AA0AAB0B12121F7900742612197B7F64
:104D63000C021AA774F71219D5EAFEEBFF12078794
:104D7300E970699007F7E06401701B1211E3E9F52C
:104D8300089007F77400F07C0A7D0079007AF87BBD
:104D9300071213B7803B750800E508C3940A503126
:104DA300E508F8790074F828F582740739F583E08B
:104DB30064017019A9081211E9E9F8E508FA7B0002
:104DC30074F82AF58274073BF5837400F0050880B4
:104DD300C879501214EFE9F5081211D17F01021AB4
:104DE300A774F21219D5890BEAFEEBFF8C088D0923
:104DF300750A0AE50B600C146009146044146064BE
:104E0300024E89EEFAEFFB1211C5E9F50AE50AC372
:104E1300940A5072E5084509606C750C06750D001F
:104E2300780C121BE8EEFCEFFDAA08AB0912139FE6
:104E3300740212197B8A0C8B0D850C82850D83807D
:104E430045EEFAEFFB1211BFE9F50AE50AC3940A2E
:104E53005034E5084509602EAA08AB09A90A1211C6
:104E6300B9E98022EEFAEFFB1211CBE9F50AE50A64
:104E7300C3940A5011E5084509600BAA08AB09A9B8
:104E83000A1211B9E9F8A90A7F06021AA774F212E5
:104E930019D58A0C8B0DE9FF7E1574FF650C700420
:104EA30074FF650D702A750800E508C3940A501451
:104EB300EFFC7A027B00A908121195E960027E00DB
:104EC300050880E5EF60627A0D7B12120BA1805911
:104ED300AA0CAB0D120B718A0A8B0B850A08850B82
:104EE30009E508450960407C007D00E5082405FAD2
:104EF300E43509FB850882850983A3A3A3A3E0F90D
:104F0300121177E9F50AE50AC3940A500EEFFC7A09
:104F1300027B00A90A121195E97E00EF600BAA0833
:104F2300AB0912120D80027E14EEF97F06021AA756
:104F330074EE1219D58A0E8B0F8C0A8D0B74121214
:104F430019B1E0F50CA3E0F50D75081574FF650EB6
:104F5300700474FF650F701E7E00EEC3940A5061E7
:104F6300AC0CAD0DAA0AAB0BEEF912119BE9600371
:104F73007508000E80E4AA0EAB0F120B718A108B1A
:104F830011AE10AF11EE4F60357C007D00EE2405AD
:104F9300FAE43FFB8E828F83A3A3A3A3E0F912114C
:104FA30077E9F509E509C3940A5016AC0CAD0DAACF
:104FB3000AAB0BA90912119BE97508008003750858
:104FC30014A9087F0A021AA774F71219D5EAFEEB8F
:104FD300FF900768EEF0A3EFF090074EE0FC7D0032
:104FE3007A267B0012060DE9F50890074EE0F912C8
:104FF30008CB7F01021AA774F01219D574EC1219A9
:10500300658A0C8B0D850C82850D83A3A3E024FA9E
:10501300700302547324FD70030252E814700302F8
:1050230050EA14601024FD700302529014700302BE
:105033005327025486AE0CAF0D900768E0F8A3E047
:10504300F9E8496066900768E0F8A3E0F583888291
:10505300E0F8A3E0F9E8496052EE240CF582E43F5E
:10506300F583E0F5087808121BECEE240BF582E4D7
:105073003FF583E0F98E828F83A3A3A3A3A3A3A306
:10508300A3A3E0FCA3E0FDEE2403FAE43FFB9007B7
:1050930068E0F8A3E0F5838882E0F8A3E0F583886D
:1050A300821219D3740112197B80398E828F83A3E4
:1050B300A3A3A3A3A3A3A3A3121BFF900764121884
:1050C3002F1206A9740212197BE9601879018E82E6
:1050D3008F83A3A3A3A3A3A3A3A3A3E0FAA3E0FBA8
:1050E3001206A3E9025486AE0CAF0D7508008E823A
:1050F3008F83A3E060030252128E828F83A3A3A344
:10510300A3A3E0A2E04003025212900802E0F8A336
:10511300E0F9E84960030252127C0E7D007900AA8F
:1051230018AB191213B78A0A8B0BAA0AAB0BEE241E
:105133000CF582E43FF583E0F8A3E0F9E849603633
:10514300750A06750B00780A121BE8EE240CF5822B
:10515300E43FF583E02410FCA3E03400FD74021265
:1051630019C312139F740212197B8A0A8B0B850AC7
:1051730082850B83804F8E828F83A3A3A3E0FAA340
:10518300E0FB120B718A0E8B0F850E0A850F0BE560
:105193000A450B602D750E06750F00780E121BE87D
:1051A300E50A2405FCE4350BFD74021219C312133E
:1051B3009F740212197B8A0E8B0F850E82850F83D3
:1051C30080030254868E828F83A3A3A3A3A3E0A2AA
:1051D300E25004D2F08002C2F0A2F0E433F8790086
:1051E300740C1219B1E048F0A3E049F0EEFCEFFDB6
:1051F300AA18AB191211ADE970127A027B0090075D
:105203004EE0F91213F3E9790002548875081590FA
:105213000768E0F8A3E0F9E849606F900768E0F8F1
:10522300A3E0F5838882A3A3E0F8A3E0F9E849604B
:10523300598E828F83A3E0FC79018E828F83A3A38F
:10524300A3E0FAA3E0FB900768E0F8A3E0F5838806
:1052530082A3A3E0F8A3E0F58388821219D3E508BB
:105263006028AC0879038E828F83A3A3A3E0FAA3FB
:10527300E0FB900768E0F8A3E0F5838882A3A3E04E
:10528300F8A3E0F58388821219D3025486AE0CAFDB
:105293000D900768E0F8A3E0F9E8496045900768D6
:1052A300E0F8A3E0F5838882A3A3E0F8A3E0F9E89C
:1052B30049602F850C82850D83A3E0FC79028E82E1
:1052C3008F83A3A3A3E0FAA3E0FB900768E0F8A30E
:1052D300E0F5838882A3A3E0F8A3E0F58388821234
:1052E30019D3025486AE0CAF0D7C007D00EE24046E
:1052F300FAE43FFB8E828F83A3A3A3E0F912117715
:10530300E9F508E508C3940A5017EE240AFCE43FC4
:10531300FD7A0475F006E508A42425F91214E3E9DF
:10532300F8025486AE0CAF0D900763E06019901934
:1053330087E0F98E828F83A3A3A3E0FAA3E0FB1295
:1053430006A3E9F8025486901984E0701679058E55
:10535300828F83A3A3A3E0FAA3E0FB1206A3E9F8D9
:105363000254868E828F83A3A3A3E0FAA3E0FB12E9
:105373000B718A0A8B0B850A08850B09E508450919
:1053830070030254868E828F83A3A3A3A3A3A3A334
:10539300E0A2E0506D850882850983A3A3A3A3E05F
:1053A30060608E828F83A3A3A3A3A3A3A3A3A3E07D
:1053B300F50AA3E0F50B7409780A121943E50A54B8
:1053C30001F8E50B5400F9E8A2E04036740E121917
:1053D300CBE5082405FAE43509FB850882850983B2
:1053E300A3A3A3A3E0F9121177E9701679038E82C0
:1053F3008F83A3A3A3E0FAA3E0FB1206A3E9F802B9
:105403005486EE2405FCE43FFD850882850983A3C9
:10541300A3A3A3E0F98E828F83A3A3A3E0FAA3E05F
:10542300FB121219900768E0F8A3E0F9E84960530A
:10543300900768E0F8A3E0F5838882A3A3E0F8A3CC
:10544300E0F9E849603D7C0079008E828F83A3A355
:10545300A3E0FAA3E0FB900768E0F8A3E0F58388F4
:1054630082A3A3E0F8A3E0F58388821219D3801303
:10547300AE0CAF0D8E828F83A3A3A3E0FAA3E0FB50
:105483001211717901741412197B7F08021AA7741F
:10549300F51219D574F21219658909EAFEEBFF8C2E
:1054A3000AAC18AD197A0E75F006E509A42420F9A3
:1054B3001214E9E970617C0679FFAA18AB1912147A
:1054C30017E97053740C1219B1E0F8A3E0F9E8F589
:1054D30008E50A6005EE42088004EEF45208E50888
:1054E300F87900740C1219B1E0687003A3E06960E5
:1054F30022E508F87900740C1219B1E8F0A3E9F079
:10550300AC18AD197A0E75F006E509A42420F9123A
:1055130014E3E9790180027900740E12197B7F0389
:10552300021AA774F01219D574E6121965890B8A49
:105533000C8B0DECFEEDFF740C1219CB7A0E75F08B
:1055430006E50BA42420F91214E9E9600302565678
:105553007C0679FF740C1219C3121417E960030255
:105563005656AC18AD197A0C7470250BF91214E960
:10557300E96003025652750A00AA18AB191211A763
:10558300E50C450D702E7C0C7900AA18AB1912148A
:1055930017E960030256387C0C7D007900AA18AB2A
:1055A300191213B78A088B09850882850983750A3E
:1055B30001025638AC18AD19AA0CAB0D1211A18A11
:1055C3000E8B0F850E08850F09E50845097030EE2F
:1055D3004F601BAC18AD197A007B001211A18A0E23
:1055E3008B0FA80EA90F88088909E8497004790070
:1055F3008063850882850983E50CF0A3E50DF085BA
:105603000882850983A3A3E0F87900EE687002EFAE
:10561300696022EEC0E0850882850983A3A3D0E0F8
:10562300F0EE4F700D8508828509837400F0A37432
:1056330000F0750A01E50A6016AA18AB191211A742
:10564300AC18AD197A0C7470250BF91214E3E979CF
:105653000180027900741A12197B7F08021AA77459
:10566300F61219D58A088B097E00EEC394045050B4
:10567300EEF87900E875F003A4C8AAF075F000A469
:105683002AFA75F003E9A42AF9EC28F582ED39F535
:1056930083E065087004A3E065097021EEF87900E2
:1056A300E875F003A4C8AAF075F000A42AFA75F00F
:1056B30003E9A42AF9EC28FAED39FB80070E80AA46
:1056C3007A007B007F02021AA774F71219D57C00B7
:1056D300ECC39404400302577BECF87900E875F0BF
:1056E30003A4C8ADF075F000A42DFD75F003E9A483
:1056F3002DF9EA28F582EB39F583E0F4FEA3E0F413
:10570300FFECF87900E875F003A4C8ADF075F0007C
:10571300A42DFD75F003E9A42DF9EA28F582EB39F0
:10572300F583EEF0A3EFF0ECF87900E875F003A44D
:10573300C8ADF075F000A42DFD75F003E9A42DF9B3
:10574300EA28F582EB39F583A3A3E0F4C0E0ECF893
:105753007900E875F003A4C8ADF075F000A42DFD41
:1057630075F003E9A42DF9EA28F582EB39F583A353
:10577300A3D0E0F00C0256D37F01021AA774F012F3
:1057830019D574F4121965EAFEEBFF8C088D0990A4
:105793000802E0F8A3E0F9E849702CEE4F6006E553
:1057A30008450970057901025A2CEEFAEFFB121134
:1057B300C5E990198AF090198AE0C3940A40081247
:1057C30011D7E990198AF090198AE0C3940A40032B
:1057D300025A2A900802E0F8A3E0F9E849600302BC
:1057E3005876EEFCEFFD7A0E75F00690198AE0A468
:1057F3002420F91214E3E9F50C7C0C7D0079FFAA4F
:1058030018AB191213B78A0E8B0F850E0A850F0B6F
:10581300AC18AD197A0C90198AE02470F91214E3CC
:10582300E9F50D750E0E750F00780E121BE8EEFCF0
:10583300EFFD90198AE0F87900E875F00EA4C8AA84
:10584300F075F000A42AFA75F00EE9A42AF9746A37
:1058530028FA740739FB12139F740212197B8A0EFC
:105863008B0FA80EA90F900802E508F0A3E509F035
:10587300025A26900802E0F8A3E0C82406F582C87D
:105883003400F583E0F8A3E0F9E8496043900802A7
:10589300E0F8A3E0C82406F582C83400F583E0FCF1
:1058A300A3E0FD7A1B75F00690198AE0A42421F980
:1058B3001214E3E9F8900802E0F9A3E0C92406F51D
:1058C30082C93400F5837400F0A37400F0025A26F1
:1058D300900802E0F8A3E0C8240AF582C83400F572
:1058E30083E0F8A3E0F9E8496043900802E0F8A3F5
:1058F300E0C8240AF582C83400F583E0FCA3E0FD88
:105903007A1B75F00690198AE0A42422F91214E395
:10591300E9F8900802E0F9A3E0C9240AF582C93442
:1059230000F5837400F0A37400F0025A2690080275
:10593300E0F8A3E0C8240CF582C83400F583E0F84E
:10594300A3E0F9E8496043900802E0F8A3E0C82423
:105953000CF582C83400F583E0FCA3E0FD7A1075F2
:10596300F00690198AE0A42423F91214E3E9F890CD
:105973000802E0F9A3E0C9240CF582C93400F583D9
:105983007400F0A37400F0025A26900802E0F8A312
:10599300E0C82408F582C83400F583E0F8A3E0F9F1
:1059A300E849606F900802E0F8A3E0C82408F58294
:1059B300C83400F583E0FCA3E0FD7A1075F006908F
:1059C300198AE0A42424F91214E3E9F50A900802E1
:1059D300E0F8A3E0C82408F582C83400F583E02486
:1059E30010FCA3E03400FD7A0475F00690198AE0F8
:1059F300A42425F91214E3E9F8900802E0F9A3E0DE
:105A0300C92408F582C93400F5837400F0A3740037
:105A1300F080109007F6E0600312122B1212137934
:105A2300018006790080027901740C12197B7F08CA
:105A3300021AA774F71219D574F2121965E9FEACAC
:105A430018AD197A0E75F006EEA42420F91214E9A4
:105A5300E9700E740C1219B1E0F8A3E0F9E8F980CB
:105A6300027900740E12197B7F01021AA774F412D3
:105A730019D574F21219658909EAFEEBFFE509C32A
:105A8300940A5004EE4F700479028041AC18AD19AA
:105A93007A0E75F006E509A42420F91214E9E9F554
:105AA30008E5087026750A06750B00780A121BE8CC
:105AB30074021219CBEEFAEFFB12139F7402121940
:105AC3007B8A0A8B0B850A82850B83A908740E12C5
:105AD300197B7F04021AA774F41219D5EAFEEBFFAF
:105AE300750800E508C3940A5044750A06750B004F
:105AF300780A121BE8EEFCEFFDE508F87900E8757B
:105B0300F00EA4C8AAF075F000A42AFA75F00EE905
:105B1300A42AF9747028FA740739FB1213B17402BA
:105B230012197BE96004A9088006050880B5790A83
