:020000040000FA
:0600000002011A02227643
:03002B0002290F98
:030053000222EC9A
:03006B000228DD8B
:100083000220D3E5C754F84401F5C77901220000E3
:100093000080FB120086B90003020104E479217891
:1000A30008B800028004F709D8FCE479297802B87B
:1000B30000028004F709D8FCE490028178C6791322
:1000C3008002F0A3D8FCD9FA781A90014A7A01BACF
:1000D30000028007E493A3F608DAF97A467B1590C9
:1000E300014B784179048015E493A3AD82AE838AF2
:1000F300828B83F0A3AA82AB838D828E83D8E9D9C6
:10010300E77582D27583BE740312012C75829175D3
:100113008300740012012C75D00075813F7518811E
:10012300751902759F00020096C09FF59FE473D076
:100133009F22D083D082C09FE493C0E0740193C018
:10014300E0740293F59F2201FF0000B40000280031
:100153002800283075A000A000A000A0000008001F
:1001630008E001F000100010001000100010001053
:100173000050005000500010001000D00700000095
:100183000000000F0001000500307507001000019A
:100193000081FF00000000FFFFFFA706C506AD06B4
:1001A300E906FF02020208025000A0000000E80373
:1001B3000224900100000C90022090010000A11580
:1001C300022E8F010000BF02022090010000A21541
:1001D300021290010000D502022090010000A31535
:1001E300021490010000D702022090010000A41520
:1001F300021690080000D802022090010000A51505
:10020300021890010000A615FF0100FF20022490B0
:1002130001000003900220900100000A16021A90C8
:100223000000000000021C90030000060317008575
:100233000D850D850D850D850D850D850D850D852B
:100243000D850D850D850D850D6D107F10671002D1
:100253000202020202020202010D0000001001026A
:1002630024900100000F900220900100004D16021F
:10027300469001000046070220900100004E16023E
:100283004490010000218F0220900100004F1602CC
:100293003690010000058F022090010000501602E5
:1002A3003490010000A38E02209001000051160239
:1002B30032900100007F8E0220900100005216024E
:1002C3003090010000B58E02209001000053160209
:1002D3002C90010000918E02209001000054160220
:1002E3002A90010000F78E022090010000551602AB
:1002F3002890010000561601E8030577100AFFFF56
:10030300FF00013075030201060000000000000039
:1003130000000000000000000000000000000000DA
:100323000000000000FFFF0600800CE803140953DF
:10033300696D706C65424C45506572697068657291
:10034300616C051250002003020A0002010503023A
:10035300F0FF53696D706C6520424C452050657207
:100363006970686572616CCF140000D5140A436824
:100373006172616374657269737469632031000229
:10038300436861726163746572697374696320326F
:1003930000084368617261637465726973746963A9
:1003A300203300104368617261637465726973740A
:1003B3006963203400024368617261637465726922
:1003C30073746963203500022490010000069002D3
:1003D30020900100006B17023A90030000381502C9
:1003E3001E900100006C170220900100007D17028F
:1003F3003C900100003915021E900100007E170297
:1004030020900100008F17023E900200003A15026F
:100413001E900100009017022090010000A1170216
:1004230040900000003B15021C900300003C1502A5
:100433001E90010000A217022090010000B31702D2
:1004430042900400003E15021E90010000B41710F4
:100453004B65792050726573732053746174650022
:1004630002249001000009900220900100004D1821
:10047300024A900000004315021C9003000044153B
:10048300021E900100004E18120135EF9F03120166
:100493003502A00312013531A00312013569A0030F
:1004A300120135B2A003120135F5A0031201353B49
:1004B300A1031201356EA10312013595A1031201A7
:1004C30035C4A103120135FBA10312013514A203A4
:1004D30012013563A2031201357CA203120135C454
:1004E300A203120135F8A203120135D7B802120193
:1004F30035D5B9021201353BBA021201355EBA0293
:1005030012013560BA021201359EBA021201350F8B
:10051300BB02120135CFBB02120135F1BB0212013E
:10052300358DBC02120135C4BC0212013509BD026E
:1005330012013516BD0212013586BD02120135D0F6
:10054300BD02120135D3BD0212013519BE021201DB
:10055300351CBE0212013526BE0212013599BE02B8
:10056300120135C1BE02120135F4BE021201351863
:10057300BF0212013515C002120135B9C0021201C2
:100583003525C10212013561C102120135F590030F
:100593001201351D91031201354A9103120135826F
:1005A3009103120135E891031201353292031201CE
:1005B30035969203120135DE92031201351B930324
:1005C300120135499303120135DE9303120135E815
:1005D3009303120135F59303120135289403120195
:1005E300353494031201354C9403120135569403A8
:1005F30012013559BC0312013567BC031201357F63
:10060300BC0312013596BC031201352EC801120139
:1006130035D1C801120135EAC90112013562CA0197
:1006230012013589CB01120135C2CB011201355AB2
:10063300CC0112013547CD01120135F0CD01120174
:100643003578CF0112013560D00112013557D10140
:100653001201358DD1011201352FD2011201355509
:10066300D20112013521D40112013567D4011201DF
:100673003589D401120135F5D401120135C0D501F4
:100683001201357AD60112013586D8011201357F60
:10069300D1021201355BD20212013505D3021201D8
:1006A3003546D302120135CDD30212013548D402A7
:1006B3001201351BD50212013544D502120135381A
:1006C300D60212013575D6021201355DD702120129
:1006D300358ED702120135B4D702120135E9AC03C6
:1006E30012013568AD0312013593AD03120135A331
:1006F300AE03120135E49403120135FA9403120197
:1007030035189503120135289603120135329603E5
:100713001201355C9703120135499803120135B56F
:10072300980312013524D80212013551D90212015E
:100733003588D902120135DFD902120135D7DB0220
:10074300120135E3A3011201356AA401120135BE7A
:10075300A501120135CAA50112013542A6011201F4
:10076300351BA7011201351BA80112013517A90179
:10077300120135E3A9011201353DAB0112013553D5
:10078300AB0112013574AB0112013506AC01120144
:10079300357CAC01120135A2AC011201354FAF011A
:1007A30012013554AF0112013578B101120135BF81
:1007B300B10112013525B2011201356BB2011201EB
:1007C300353BB301120135F0B3011201354CB401CD
:1007D3001201354FB4011201359BB401120135D713
:1007E300B40112013516B50112013538B5011201F4
:1007F300356CB501120135DAB5011201350EE3028C
:100803001201351CE3021201356CE3021201358B30
:10081300E302120135D5E30212013518E502120194
:1008230035B0E502120135F4E5021201351EE60288
:1008330012013589E602120135CDE6021201355067
:10084300E702120135FFE7021201353C29001201CC
:10085300354C2900120135E62900120135422A00E0
:10086300120135002B00120135232C0012013553E0
:100873002C00120135822C00120135382E00120192
:10088300358B3000120135EA3200120135D33300C3
:10089300120135C334001201359636001201358E2C
:1008A3003900120135AB3A00120135A53C001201A3
:1008B30035B43D00120135433F001201352F40008E
:1008C3001201357E4000120135EE40001201350A57
:1008D30041001201355B4100120135FB4500120155
:1008E300350247001201356447001201358F470076
:1008F300120135474800120135B78803120135C18B
:1009030088031201350989031201351D8903120178
:1009130035AE8903120135E58903120135208A03B7
:10092300120135498A031201359D8A03120135B23A
:100933008A03120135D48A03120135E98A031201AD
:1009430035FD8A03120135128B031201354C8B03DB
:10095300120135788B03120135C18B031201353730
:100963008C031201357A8C03120135A48C03120116
:1009730035CF8C03120135EAFE021201357EA50242
:1009830012013557A602120135C6A602120135011E
:10099300A7021201353CA802120135EEA80212018A
:1009A300359BAB0212013546AC0212013527AD026D
:1009B3001201359DAE0212013505AF0212013576E3
:1009C300F102120135B9F10212013524F3021201C9
:1009D3003562F502120135F0A8031201359DA90312
:1009E30012013596AA03120135D3AA03120135ACBD
:1009F300B0031201350BB103120135A8B103120183
:100A030035DBB10312013509B20312013544B203D8
:100A130012013564B203120135CDEC0212013556D1
:100A2300ED0212013515EE0212013523EF02120118
:100A33003543F1021201350E9A02120135239A024F
:100A4300120135EE9A02120135BB9B0212013528C1
:100A53009C02120135639C02120135049D021201AE
:100A6300350D9E02120135E59E02120135689F0283
:100A7300120135F19F021201355AA002120135E429
:100A8300A00212013531A1021201359FA102120108
:100A93003541A202120135EFA2021201350FA30262
:100AA30012013553A3021201359BA302120135B77C
:100AB300A302120135D6A30212013550A40212017A
:100AC300355EA402120135F1A4021201355BA502C1
:100AD300120135FFF5021201357BF602120135B919
:100AE300F6021201359DF7021201350CF8021201CC
:100AF3003550F80212013593F802120135C0F8029D
:100B0300120135DEF80212013516F90212013553CE
:100B1300F90212013574F902120135EAF9021201E0
:100B23003534FA0212013594B60112013531B80198
:100B33001201355CBA01120135A4BA01120135CF95
:100B4300BA01120135BBBB01120135FFBB01120112
:100B5300356BBC011201357EBC01120135BFBC01EE
:100B6300120135ECBC0112013535BD011201357896
:100B7300BD01120135AEBD01120135FFBD011201E8
:100B83003563BE011201353AC1011201352EC3018D
:100B930012013569C301120135E9C4011201352D72
:100BA300C5011201359DC501120135F2C5011201BE
:100BB300353EC601120135E0C60112013518C801E0
:100BC30012013529C801120135867600120135EF6D
:100BD3007600120135B27C00120135A77D001201A7
:100BE30035317F00120135C97F00120135B048004D
:100BF300120135F848001201352549001201355715
:100C0300490012013564490012013570490012018F
:100C130035824900120135494A00120135A74A00BD
:100C2300120135DC4A00120135184C0012013565FA
:100C33004C00120135804C00120135F44C001201B6
:100C430035AB4D001201358B4E00120135F14E00CC
:100C5300120135C34F00120135E54F00120135551E
:100C63005000120135EC50001201351351001201EE
:100C7300358B5100120135135200120135405200D9
:100C8300120135E552001201356553001201350496
:100C930054001201357C5400120135D15400120165
:100CA300351955001201354E5500120135F0550026
:100CB30012013514570012013554570012013571D2
:100CC3005700120135E75D00120135305E00120155
:100CD30035CC5E00120135F15E00120135065F006E
:100CE3001201356D5F00120135B45F00120135C486
:100CF3006000120135706100120135CA61001201F2
:100D0300352662001201353F6200120135AAAF0297
:100D1300120135F5AF0212013501B002120135D1CE
:100D2300B002120135FAB0021201352DB1021201DF
:100D33003599B102120135D7B10212013510B20251
:100D430012013528B20212013581B2021201359A1D
:100D5300B202120135DFB202120135F2B202120100
:100D6300350CB30212013522B30212013529B40244
:100D73001201354AB50212013533B602120135228A
:100D8300B702120135F27F001201350D8D021201F7
:100D930035408D02120135AA9002120135FF9102EE
:100DA300120135D292021201351494021201350C4C
:100DB30095021201355A95021201357495021201FA
:100DC30035B69502120135C195021201350A960214
:100DD300120135139602120135BF9602120135999D
:100DE3009702120135E59702120135459802120167
:100DF30035979802120135C59802120135039902FD
:100E03001201354F9001120135309401120135362C
:100E13009401120135A69A01120135799F0112013D
:100E23003593A301120135BF980312013535990398
:100E33001201354B9903120135C89903120135FF8D
:100E43009903120135399A03120135739A0312017A
:100E530035E69A03120135219B031201352A9B03C0
:100E6300120135369B031201354F9B031201357373
:100E73009B03120135889B03120135B19B031201B9
:100E830035139C031201353A9C0312013511E80214
:100E930012013524E8021201353EE8021201356BD6
:100EA300E802120135B1E802120135E4E802120149
:100EB3003521E90212013587E9021201359CE90265
:100EC300120135A7E902120135B4E902120135CB4B
:100ED300E902120135D9E902120135E4E9021201EE
:100EE30035F0E90212013503EA021201350EEA0276
:100EF30012013534EA02120135D8EA02120135E84B
:100F0300EA0212013502EB021201351FEB02120154
:100F1300353AEB0212013561EB021201356CEB023B
:100F230012013581EB0212013595EB02120135F600
:100F3300EB02120135FCEB0212013502EC02120145
:100F43003508EC0212013520EC0212013553EC0294
:100F530012013505800212013593800212013528F2
:100F63008102120135048202120135388202120114
:100F7300354B8202120135C582021201354D8402BE
:100F8300120135748402120135FB84021201353AD1
:100F930085021201354B8502120135C0850212010B
:100FA30035DF8502120135F785021201353B8702D1
:100FB300120135458902120135778B021201357D05
:100FC3008C02120135C08C0212013593D801120133
:100FD30035A6D9011201358EDA0112013598DA01ED
:100FE300120135BADA01120135C6DA0112013513DD
:100FF300DC0112013540DC0112013561DD01120112
:1010030035A3DD01120135D8DE01120135A8DF0158
:10101300120135F7DF0112013558E0011201358D58
:10102300E001120135C6E00112013571E40112013C
:101033003588E40112013506E50112013514E50195
:101043001201355DE5011201356BE501120135EC45
:10105300E5011201355BE601120135A7E601120134
:1010630035C9F401120135EBF401120135C7F6015C
:101073001201353FFA0112013589FB011201356B6B
:10108300FC0112013572B20312013597B20312014A
:101093003508B303120135FCC90212013505CA0232
:1010A3001201350ECA0212013532CB021201352369
:1010B300CD0212013551CD021201357CCD02120150
:1010C30035AACD02120135D5CD0212013513CE0258
:1010D3001201353FCE021201357CCE02120135A733
:1010E300CE02120135F3CE021201354ACF021201AC
:1010F300358ACF02120135D9CF0212013504D0024D
:101103001201354AD00212013578D002120135A3FB
:10111300D002120135D0D002120135F3D0021201F0
:101123003526BD0312013552BD03120135ABBD0394
:10113300120135B5BD03120135C5BD03120135607A
:10114300A30312013587A303120135B2A3031201CE
:1011530035AEFF01120135716200120135C864001A
:10116300120135786600120135D56600120135D5B6
:101173006700120135526800120135DA6800120166
:1011830035FF6800120135DA6B001201354E6C0031
:101193001201353D6D00120135736D00120135B634
:1011A3006D00120135376F00120135796F0012019E
:1011B30035C26F001201352B70001201354D7000DE
:1011C30012013567700012013585710012013595E2
:1011D30071001201351873001201353873001201C2
:1011E300356E7300120135EA74001201352775005C
:1011F300120135617600120135008003120135506A
:1012030080031201358A8103120135F9810312012A
:10121300359D8203120135BC82031201350A830313
:101223001201354C830312013516C0031201352A0E
:10123300BF0312013569BF0312013503C003120155
:10124300357ABB031201358ABB031201359FBB03F9
:1012530012013553BC0312013595B8031201351839
:10126300B9031201357EB90312013569B7031201BF
:101273003590B703120135E6B703120135F9B70309
:101283001201354AB80312013589B8031201358CAE
:10129300B803120135F78C031201350B8D031201CC
:1012A30035848D03120135588E031201352A9003BC
:1012B3001201358F9003120135E29003120135F8C4
:1012C3007F00120135D2AE0312013548B00312017B
:1012D30035A9B0031201358DBA03120135B0BA0333
:1012E300120135D9BA03120135EFBA0312013531B0
:1012F300BB03120135C4DD02120135CEDD0212013A
:10130300350EDE0212013557DE021201358FDE0281
:10131300120135E5DE0212013502DF021201350B3F
:10132300DF0212013550DF0212013579DF021201AB
:10133300358EDF02120135FEDF021201358BE0022A
:10134300120135DFE00212013502E102120135819B
:10135300E102120135BCE102120135F1E102120191
:101363003503E20212013522E2021201352BE202B9
:10137300120135E2E202120135C7B5031201351835
:10138300B603120135A1B6031201350BB7031201DF
:101393003535A6031201355DA60312013552A703A5
:1013A30012013577A70312013506A80312013597F9
:1013B300B903120135EDAA0312013523AB03120160
:1013C3003556AB03120135AFAC03120135CFBD0364
:1013D300120135E5BD03120135EFBD03120135439B
:1013E300BE031201356EBE0312013587C10212011D
:1013F3003541C2021201357CC202120135ADC2026F
:101403001201351DC30212013573C302120135C720
:10141300C302120135B4C402120135ADC502120173
:10142300352EC702120135E2C7021201354BC8023D
:101433001201355EC80212013543C9021201359CFF
:10144300C9021201357BFA0212013591FA02120127
:101453003532FB0212013571FB021201358EFB029C
:10146300120135BFFB021201350CFC021201353F9C
:10147300FC021201357AFC0212013575FE021201DB
:1014830035DDFE021201352DE701120135B5EA0102
:1014930012013544EC011201359BEC01120135BAFE
:1014A300EC0112013538ED01120135BEEE011201D6
:1014B3003591EF011201354BF30112013533F4017C
:1014C3001201355D8403120135A18603120135CE65
:1014D30087031201358E8803120135699C031201BB
:1014E30035CC9C03120135E99C03120135AF9D03F2
:1014F300120135029E03120135E59E0312013523C5
:10150300B40312013586B403120135E8B4031201A2
:101513003567B50312013573BF03120135B9BF0334
:10152300120135E5BF03E066701008A3E066700A98
:1015330008A3E066700408A3E06622C3E7960809DF
:10154300E7960809E7960809E79622C3E09608A3F9
:10155300E09608A3E09608A3E09622C008C3E096AD
:10156300F50808A3E096420808A3E096420808A3FA
:10157300E09645087001D3D00822080808EAC0E0C5
:10158300EBC0E086F0E7A4FA180986F0E7A42AFA8C
:10159300180986F0E7A42AFA180986F0E7A42AFABC
:1015A3001986F0E7A4FBE5F02AFA190886F0E7A408
:1015B3002BFBE5F03AFA190886F0E7A42BFBE5F0DC
:1015C3003AFA18180986F0E7A4C5F02BFBE43AFAB7
:1015D3001908E7C5F0C6A426F6E5F03BFBE43AFAA2
:1015E3001886F0E7A4F6E5F00826F6E43B08F6E4EF
:1015F3003A08F6D0E0FBD0E0FA22E4CFC0E0E4CE34
:10160300C0E0E4CDC0E0E4CCC0E075F020E626F60F
:1016130008E633F608E633F608E633F6181818EC4E
:1016230033FCED33FDEE33FEEF33FFC3EC9709EDEF
:101633009709EE9709EF97191919400FFFEC97FCDB
:1016430009ED97FD09EE97FE191906D5F0BFECF7E2
:1016530009EDF709EEF709EFF7191919D0E0FCD0F6
:10166300E0FDD0E0FED0E0FF226016080808C6C304
:1016730013C618C613C618C613C618C613C6D5E0B4
:10168300EA227009080808226016181818C6C3331E
:10169300C608C633C608C633C608C633C6D5E0EA8D
:1016A30022E627F60809E637F60809E637F60809B9
:1016B300E637F622E026F608A3E036F608A3E0367E
:1016C300F608A3E036F622E026F008A3E036F00899
:1016D300A3E036F008A3E036F022C3E697F6080944
:1016E300E697F60809E697F60809E697F622C3E0B7
:1016F300C696F608A3E0C696F608A3E0C696F608D3
:10170300A3E0C696F622C3E096F008A3E096F0089D
:10171300A3E096F008A3E096F022E056F608A3E0D3
:1017230056F608A3E056F608A3E056F622E056F074
:1017330008A3E056F008A3E056F008A3E056F02211
:10174300E0F608A3E0F608A3E0F608A3E0F622E635
:10175300F008A3E6F008A3E6F008A3E6F022E0FA17
:10176300A3E0FBA3E0FCA3E0FD22E0FCA3E0FDA3D8
:10177300E0FEA3E0FF22ECF0A3EDF0A3EEF0A3EF75
:10178300F022E0F8A3E0F9A3E0FAA3E0FB22E8F0FB
:10179300A3E9F0A3EAF0A3EBF022CAC0E0E6F0A3CA
:1017A30008DAFAD0E0FA22CAC0E0E0A3C582CCC5C9
:1017B30082C583CDC583F0A3C582CCC582C583CD45
:1017C300C583DAE6D0E0CA22C3E498F8E499F912B3
:1017D300180C8026C3E49AFAE49BFBE920E7E9129C
:1017E300180CE498F8E499F922C3E498F8E499F919
:1017F30012180CE498F8E499F9C3E49AFAE49BFB11
:1018030022EB20E7CFE920E7E0B90010BB0008E8AE
:101813008AF084F8AAF022E4FBC8FA22EB70227B58
:1018230010C833C8C933C9335007C39AC3DBF28026
:10183300069A50012ADBEAC833F4C8C933F4C9FA5B
:101843002275F008E4C833C8C933C933C99AC99BA0
:101853005004C92AC93BD5F0ECFBC833F4C8E4C92A
:10186300FA22600D08C6A2E713C618C613C6D5E050
:10187300F322600C08C6C313C618C613C6D5E0F41A
:1018830022700422600D18C6C333C608C633C6D5FA
:10189300E0F41822251810AF08F518400C1519802C
:1018A30008F51840021519D2AF2200C0D025181030
:1018B300AF08F518500C05198008F51850020519E2
:1018C300D2AFD0D0222518F58210AF08F518400CFE
:1018D30015198008F51840021519D2AF851983220E
:1018E3002518F582E43519F583222518F8E435190E
:1018F300F9222518FAE43519FB222518FCE43519D9
:10190300FD22E4732518C582C0E0E51934FFC583C1
:10191300C0E0E518C3958224F810AF0885831985C4
:1019230082188008858319858218D2AFCEF0A3E58B
:1019330020F0A37808E608F0A3DEFAEFF0A3E58130
:1019430024FAF8E608F0A3E608F0A3E608F0A308F3
:1019530008E608F0A3E608F0A315811581D0E0FEA0
:10196300D0E0F8158115811581E8C0E0EEC0E022D2
:101973002518C582C0E0E51934FFC583C0E0E5182A
:10198300C3958224F910AF088583198582188008CE
:10199300858319858218D2AFCEF0A3E520F0A37812
:1019A30008E608F0A3DEFAEFF0A3E58124FBF8E6EE
:1019B30008F0A3E608F0A30808E608F0A3E608F099
:1019C300A315811581D0E0FED0E0F815811581E8DB
:1019D300C0E0EEC0E022851983851882E0A3FEE013
:1019E300A3F5207808E0A3F608DFFAE0A3FFE0A35D
:1019F300C0E0E0A3C0E0E0A3C0E0E0A3C0E0E0A358
:101A0300C0E010AF08858218858319800885821885
:101A1300858319D2AFD083D08202013285198385A1
:101A23001882E0A3FEE0A3F5207808E0A3F608DF20
:101A3300FAE0A3FFE0A3C0E0E0A3C0E0E0A3C0E0BE
:101A4300E0A3C0E010AF088582188583198008855C
:101A53008218858319D2AFD083D08222C0D02518B3
:101A6300C582C0E0E51934FFC583C0E0E518C3951E
:101A73008224F310AF088583198582188008858333
:101A830019858218D2AFC8F0A3E9F0A3EAF0A3EB5B
:101A9300F0A37908E709F0A3D8FAECF0A3EDF0A3DB
:101AA300EEF0A3EFF0A3D0E0F0A3D0E0F0A3D0E0FA
:101AB300F0A3E520F0A3E5F0F0A3228519838518B0
:101AC30082E0C0E0A3E0F9A3E0FAA3E0FBA3780877
:101AD300E0F608A3DFFAE0FCA3E0FDA3E0FEA3E049
:101AE300FFA3E0C0E0A3E0C0E0A3E0F5D0A3E0F5EE
:101AF30020A3E0A3F5F010AF088583198582188031
:101B030008858319858218D2AFD082D083D0E0F8BC
:101B1300D0E03274048006740280027401C0E0F4E1
:101B2300041218C8D0E012179D22740480047402B2
:101B33008000CCC0E0EDC0E0E518C39CCCAD1950EB
:101B4300011D10AF068C188D1980068C188D19D2C3
:101B5300AF1217AAD0E0FDD0E0FC22D083D082E9F7
:101B6300C0E0E493A3C386F0C5F095F0F908E493CD
:101B7300A386F0C5F095F0700BE493A3C3994005D9
:101B8300E9048002A3E475F002A42582F582E5F05E
:101B93003583F583D0E0F9E493A3C0E0E493C0E098
:101BA30022D083D082ECC0E0EDC0E0E493A3FCE458
:101BB30093A3FDED4C600D121BF0EC24FFFCED3400
:101BC300FFFD80EFE493A3FCE493A3FDED4C600DD4
:101BD300121C2FEC24FFFCED34FFFD80EFD0E0FD61
:101BE300D0E0FCE493A3C0E0E493C0E022C0E0C3F0
:101BF300E49396087401939618400FE49366700873
:101C030008740193661870007019A3A3C3E4939634
:101C1300087401939618A3A3400DD0E0D0E0D0E060
:101C2300021BE0A3A3A3A3A3A3D0E022C0E0C0F0C0
:101C330088F0E4936670080874019366187000A82E
:101C4300F0A3A3700BD0F0D0E0D0E0D0E0021BE013
:071C5300A3A3D0F0D0E022B2
:101C5C0074F6121973EAFEEBFF8C088D09EA243432
:101C6C00F8E43FF9E8FCE9FD121D8AE0FAEE2437AE
:101C7C00F582E43FF583E0F88508F0A4C885F00A06
:101C8C008509F0A4250AF9EA28F8E439F97A257BC4
:101C9C000012180CEA8C828D83F0F9131313541F65
:101CAC00FAEE2AFAE43FFBEA245DF582E43BF58385
:101CBC00E0C0E0740759F8D0E0B800028004C31308
:101CCC00D8FCA2E04021EE2436F582E43FF583E017
:101CDC00F5F0E984A8F0EE28F8E43FF9E82438F5AB
:101CEC0082E439F583E0F97F03021A1F74F51219A7
:101CFC0073EAFEEBFFEA2434F582E43FF583E0C09F
:101D0C00E0121D8AD0E0F08A828B83A3A3A3A3A345
:101D1C00E0FAA3E0FB8E828F83A3A3A3A3A3A3A3C8
:101D2C00E0C39AF508A3E09BF509EE2480F8E43FA4
:101D3C00880AF50B8882F583E06401702CEE24810F
:101D4C00F582E43FF583EA2401F8E43BF9E068709E
:101D5C0003A3E06970137CB67D04EEFAEFFB120C62
:101D6C00A7850A82850B83E4F0AC08AD09EEFAEF87
:101D7C00FB121C5CE9F91228CF7F04021A1FEA241B
:101D8C0035F582E43FF58322C082C08385188285B5
:101D9C001983E0F8A3E0F9C3EA9CEB9D5010C3EC67
:101DAC0098ED99401BC3EA98EB995014800EC3EA46
:101DBC0098EB994007C3EC98ED99400479018002A7
:101DCC007900D083D08222EAC39CFAEB9DFB22746B
:101DDC00ED121973900376E064086005E0640770F7
:101DEC002C9061C8E060269003A4E0F874FF686052
:101DFC001CE875F010A4C8AAF02AF974A628FE7481
:101E0C000339FF8E82F583A3A3A3E070057900024A
:101E1C001FB7EE2468F50EE43FF50F906060E08587
:101E2C000E82850F83F075102775110575080075E6
:101E3C000900E5D914F50AE5D95403F50B6044EE15
:101E4C002484F50CE43FF50D7403650B6025E50A5D
:101E5C00600CEE2467F582E43FF583E06025900585
:101E6C0022E06401603E850C82850D83E060207861
:101E7C0004801E850C82850D83E0603BE50AC394CB
:101E8C00055034793DEEFAEFFB120CD1021E197895
:101E9C0000E50AC398FA95E0FB120B398A088B0906
:101EAC00EA4B7006120F35021E19850C82850D83C4
:101EBC00E070048A108B1178008014E5D9C0E0E83A
:101ECC00FAE5102AF582E43511F583D0E0F008E844
:101EDC00C3950A40E6850C82850D83E0602874FC6E
:101EEC00250AF50A7810121B1AAC0AA90BEEFAEFA8
:101EFC00FB120D7F74021218ADE9700AAA08AB0927
:101F0C0012137F021E8F7403650B6055E50AF50CE6
:101F1C00750D00780C121B1AAC10AD11AA08AB0988
:101F2C00120D4374021218AD850E82850F83E0F8F2
:101F3C007480687005750C7F8002880CE50CF50DBB
:101F4C00780D121B1E780B121B1EA90AAC08AD09CA
:101F5C009003A4E0FA7B0012097774021218AD808A
:101F6C0045851082851183E0F8C3940E500F7413CD
:101F7C0028F582E4348FF583E0650A6016EE24F7C9
:101F8C00F582E43FF583E8F07907EEFAEFFB120CEB
:101F9C00958013900376E06408600BAC10AD11EEE5
:101FAC00FAEFFB120E15120F4179017F0C021A1F6A
:101FBC0074F112197374FC121897EAFEEBFF89097D
:101FCC00750C00A2AFE433F508C2AF9004BEE0FA82
:101FDC009061D0E0F8748098F895E0F9C3EA98E441
:101FEC0099A2D265D0335015750C018010AA0AAB9A
:101FFC000B120CFB12137F9004BDE004F0EE246373
:10200C00F50AE43FF50B850A82F583E0F8A3E0F9C5
:10201C00E849602DE82402FAE439FBEA2402F50EC3
:10202C00E43BF50F780E121B1A8A828B83E0FCA31B
:10203C00E0F9EEFAEFFB120CEF74021218ADE96046
:10204C00AC9061D0E0F87480C3989004BEF0E50CBD
:10205C0060539004BDE0604D9004BFE0F89004BD67
:10206C00E0C398500C74026509703A9004C0E060AB
:10207C00348E828F83A3A3A3A3E085188285198352
:10208C001220C174021218E3E81220C19004BCE0C3
:10209C0028F074021218FDAA18AB1979011209CB99
:1020AC009004BDE4F0E508A2E092AF74041218AD00
:1020BC007F08021A1FF0A3E4F09004BDE0F82200A0
:1020CC008521878522C622C0E074EB121A5FA2AF6D
:1020DC00E433F508C2AF759B00906182E0A2E0503A
:1020EC002DE591A2E050277591FE74016521701EBB
:1020FC0012224A122261121B2D12267E740412180F
:10210C00ADE9640170057901120EC9121DDB9061F5
:10211C0082E0A2E5505AE591A2E550547591DF900A
:10212C000376E064076005E06408702C12224A74A0
:10213C00016521703B122261121B2D12267E740444
:10214C001218ADE9640170057901120EC97901EE1E
:10215C00FAEFFB121FBC8018E0640D70139003980B
:10216C00E004F064287002E4F07A00E0F9120F4702
:10217C00906182E0A2E6400302221FE591A2E640B4
:10218C000302221F7591BF900376E064057008125C
:10219C000E57120E638003120E5D752100120ED5C0
:1021AC00E9900377F07900120EC9120C117A017BB9
:1021BC0000900375E0F912134F907803E0644270BD
:1021CC0052900526E014F0704AC2AF1221DA007862
:1021DC002AD0E0F618D0E0F6E59F540770047BFF98
:1021EC0080027B7FC4C0E07829E6F50A08E65BF53F
:1021FC000B740B780A121875D0E0250AF8906270EF
:10220C00E0A2E740F8E8C333906272F0906270E0AD
:10221C00D2E0F0906181E0A2E35009E5E9A2E3503D
:10222C000375E9F7A3E0A2E75009E591A2E7500393
:10223C0075917FE508A2E092AF7F08021ABE900369
:10224C00A4E0F875F010A4C8AAF02AF974A628FE28
:10225C00740339FF22120E6F8E828F83E0F8A3E095
:10226C00C82416F582E438F58322C0E0C0D0C082C1
:10227C00C083906183E0A2E05009E5BFA2E0500367
:10228C0075BFFEE0A2E15009E5BFA2E1500375BFA6
:10229C00FDE0A2E25009E5BFA2E2500375BFFBE0EE
:1022AC00A2E35009E5BFA2E3500375BFF7E0A2E437
:1022BC005009E5BFA2E4500375BFEFE0A2E5500959
:1022CC00E5BFA2E5500375BFDFE0A2E65009E5BF0C
:1022DC00A2E6500375BFBFD083D082D0D0D0E032FD
:1022EC00C0E074F2121A5FE5A7A2E4500FE5A1A2B8
:1022FC00E4500953A7EF75A1EF122340E5A7A2E51F
:10230C00500CE5A1A2E5500653A7DF75A1DFE5A7A8
:10231C00A2E15009E5A1A2E1500375A1FDE5A7A238
:10232C00E2500CE5A1A2E2500653A7FB75A1FB7F7E
:10233C0001021ABE74F8121973752101900376E02C
:10234C00640670077A007B00120E3FA2AFE433FEE6
:10235C00D2AF90037CE0640170187A207B0090036C
:10236C0075E0F91214697A207B00900375E0F9127C
:10237C001355906182E0D2E6F0900523E060218550
:10238C00C622801690037BE064017008E5C654F801
:10239C004405F5C653BEFC1220CC7401652160E4E3
:1023AC00EEA2E092AF7F01021A1F00008E238F2451
:1023BC00858228858327851882851983E0CEA3E042
:1023CC00CF852882852783EBC9EAC8EDCBECCA758B
:1023DC00F010C3E833C8E933C9EA33CAEB33CBC3D3
:1023EC00EA9EF526EB9FF525B35004AB25AA26EC07
:1023FC0033CCED33CDD5F0DAAE23AF242274E91211
:10240C00197374FA121897EAFEEBFF8C088D0912F7
:10241C000E81EAF8EBF9ECFAEDFB8E828F83121742
:10242C0091900376E024F7C39405500675100102D1
:10243C00253F120DB58A0A8B0BEA4B700302253C23
:10244C00120E758A0C8B0D120E75EA650C7003EB6F
:10245C00650D60ECEEFCEFFDAA18AB19120E7B8536
:10246C000A82850B83A3A3780C121743908FDB7819
:10247C000C12171D85188285198378141217439036
:10248C008FDB781412171D780C791412153E501F1F
:10249C00780C79141216DD908F83780C12155E402F
:1024AC005D850C10850D11850E12850F13803790EC
:1024BC008F838514108515118516128517137810C6
:1024CC00790C1216DD781012155E503275100075ED
:1024DC001100751200751301781079141216DD783D
:1024EC0010790C1216A474097810121685908FA707
:1024FC00780C1217437810790C1215FD800C75109E
:10250C0014751100751200751300900376E06408C1
:10251C00600AE064066005E064057020908F87789F
:10252C001012155E5016908F8B78101216B7800C07
:10253C0075100075110075120075130085088285E1
:10254C000983781012175274061218AD7F10021AF4
:10255C001F74F7121973120E93900521E064017029
:10256C0010906245E4F0A3F053F4F343FE0C539047
:10257C00F3120E2DE5C654B84441F5C6E59E5447FA
:10258C00644170F8906185740FF090051FE0F47051
:10259C0002A3E0602C75080175090090051FE07816
:1025AC0008121884E508F4FAA3E0600814600A1411
:1025BC00600C800DEA52808008EA52908003EA5247
:1025CC00A079007F02021A1F74F7121973E9FEEA50
:1025DC00FF74016E700C7A807B00900375E0F91229
:1025EC00134F902934E493F46008E493F9120BF33D
:1025FC00800953C6B8E59E544770FA120E33900505
:10260C0021E064017003120C2990051FE0F47002A4
:10261C00A3E0602B75080175090090051FE0780890
:10262C00121884E508FAA3E0600814600A14600C20
:10263C00800DEA42808008EA42908003EA42A012B0
:10264C000DB58B09A909EA496016E5E170FCEA248D
:10265C0014F582E439F583E0F874FF68600288E1D0
:10266C0074016F700A7A01900375E0F91213D902A4
:10267C0025CF74F11219738A088B098C0A8D0B9073
:10268C008FDB780812171D740F1218E3780C1217D1
:10269C0043908FDB780C12171D7808790C12153EBD
:1026AC00908F8350107808790C1216DD780812156B
:1026BC005E4014800E780C79081216DD780C121519
:1026CC005E50047901800279007F08021A1F74EDB4
:1026DC001219738A088B098C0A8D0B908FDB780882
:1026EC0012171D74131218E3780C121743908FDB1A
:1026FC00780C12171D780C790812153E40117808C9
:10270C00790C1216DDAA08AB09AC0AAD0B80227548
:10271C0010007511007512007513017810790C12E8
:10272C0016DD781079081216A4AA10AB11AC12ADF4
:10273C00137F0C021A1F908FDB78081217438A82C2
:10274C008B8378081217307F04021A1F74F5121944
:10275C00738C828D8378081217438A828B83780856
:10276C001217091227ACC3E098F0A3E09912279E28
:10277C00401E908FBB78081217438A828B8378088F
:10278C001216CA8E828F83E02420F0A3E0344EF020
:10279C0080A4F08E828F83C3E09420A3E0944E2219
:1027AC00EA2404F8E43BF9E8FEE9FF8C828D83A36C
:1027BC00A3A3A3E0F8A3E0F98E828F832274F51211
:1027CC0019739004D9E0FAA3E0FBE929F8E433F992
:1027DC0074E728F582748E39F583E02AF508A3E0B6
:1027EC003BF5097808121B1A908FF7121761122308
:1027FC00B874021218AD8A088B098C0A8D0B7410F0
:10280C00780812166CAA08AB097F04021A1F74F11F
:10281C001219738A0C8B0D8C0E8D0F74111218E318
:10282C00121B3174111218E3E02401F508A3E034F3
:10283C0000F509E4F50AF50B780C790812157D9072
:10284C008F977808121743780C790812157DAA0C0B
:10285C00AB0DAC0EAD0F1223B874021218ADEA4BCF
:10286C0060047A0180027A00EC2AFCE43DFD7413CA
:10287C001218E3E0F8A3E0F9E8FEE9FFECF8EDF953
:10288C007A717B0212180C88088909E4F50AF50B99
:10289C008E828F837808121752ECF8EDF97A717BDF
:1028AC000212180C8A088B09740578081218848E89
:1028BC00828F83A3A3A3A3E508F0A3E509F07F0807
:1028CC00021A1FC082C083E9906000F0D083D082CE
:1028DC0022C0E074F2121A5FA2AFE433FED2AFE56D
:1028EC0089A2E04006E589A2E150031212837589A2
:1028FC0000758900C2C5751A00EEA2E092AF7F0187
:10290C00021ABEC0E0C0D0E8C0E0A8A8D2AFC2C7CF
:10291C00751A00E8A2E792AFD0E0F8D0D0D0E03240
:06292C00C2AF0200002210
:10293400FFFFFFFFFFFFFFFFC082C083E99016097E
:10294400F0D083D08202013274F6121907E99002A2
:10295400E8F0900348E0F50875090074027808125D
:102964001884AA08AB091213C19002E9122E206040
:102974006E900348E075F003A4FAABF01213C19013
:102984000306122E20700B9002E91236641213C74C
:10299400804D9003061245CD7AFF7BFF1211F97A20
:1029A40000801EEAF508750900740278081218847C
:1029B40012406974FFF0A31245E1A3A3E4F0A3F06D
:1029C4000A900348E0F8EAC39840D87905120863EE
:1029D4009002E8E0F912074F7AED7B08120AD90257
:1029E400410574F41219078A088B09EB5480604777
:1029F4009002E8E0F91213378A0A8B0BAE0AAF0B88
:102A0400EA4F602A8A828B83E064B0701A120875D8
:102A1400E960148E828F83A3A3A3A3E0F9EE2405B7
:102A2400FAE43FFB120845EEFAEFFB121325AA085D
:102A3400E5096480FB80047A007B00022C4E74F26A
:102A440012190774FB121897EAFEEBFFEA4F604372
:102A540074031218E31232CD851882851983ECF0C1
:102A6400A3EDF074021218E3E9F0AA18AB191207E7
:102A740049E9F508707774131218E3E0F50AA3E046
:102A8400F50BE50A450B60658E828F83123061EE8B
:102A94004F700575080280557A067B001213C18AAF
:102AA4000C8B0DA80CA90DEA497005750813803D1F
:102AB4008A828B83E4F0122AF8A3EEF0A3EF124883
:102AC400A6E50AF0A3E50BF09002EC122C1290029A
:102AD400EC6017E0FCA3E08003EAFCEBFD8C828D44
:102AE40083122C1270F38C828D83123C89A9087492
:102AF4000502483FA3F08A828B83A32274F2121941
:102B0400078908E9F50C750D007403780C12188414
:102B1400850C0A850D0B9002EBF09002E91245B288
:102B2400122C10602F1213C77900801EE9F50C7562
:102B34000D007402780C1218849002E9123F228866
:102B440082F583A3A3E4F0A3F009900348E0F8E935
:102B5400C39840D8900348E0FA850AF0A4CAA8F0C4
:102B6400850BF0A428FB1213C18A0C8B0DAE0CAF9D
:102B74000DEA4F7003022C06900348E0FC850AF02E
:102B8400A4CCA8F0850BF0A428FD79001213137CC3
:102B9400008032EDF50C750D007403780C12188466
:102BA4008A828B83122C0B8882F583E4F0122C1812
:102BB400A3A3F0A3F00DEDC3950840D7EE250AFEBC
:102BC400EF350BFF0C900348E0F8ECC3985029EC68
:102BD400F50C750D007402780C1218849002E91239
:102BE4002C0BE82402500109FAE9FB8A82F583EEF2
:102BF400F0A3EFF07D0080BEE5089002EBF07900D1
:102C040080027913024842123F26F922A3A312320A
:102C1400E5EA4B22A3F088828983A3A3A3A32274A9
:102C2400F41219077900EAA2E0501F7508527509D9
:102C34008F7808121B1A79107C047D007A0B7B169E
:102C440012085D74021218ADE9F97F040219D9C0A3
:102C540082C0839002EC124028601C88828983A37E
:102C6400A3E06A7003A3E06B8882898370E8A3A35E
:102C7400A3A312366480047A007B0002294574F20F
:102C840012190774FD121897EAFEEBFF8518828566
:102C94001983E4F0A3F074021218E37401F09002B3
:102CA400EF1240287011120A131213C19002EF128E
:102CB4002E207003022E141233BAEE2404F50AE413
:102CC4003FF50B850A82F583E024FE603C24FC601A
:102CD4007424FE607E24FE7003022D6424FE7003BF
:102CE400022D7124FE7003022D7E24FE7003022D3A
:102CF4008B24FE7003022D9824FC7003022DB9244A
:102D0400FE7003022DD1022E0D120A139002F1EA75
:102D1400F0A3EB122E29120497E96003022E0D9002
:102D240002F1121B318E828F83A3A3A3A3A31245A6
:102D3400CD85088285098312366412082D74021227
:102D440018AD022E0DAC18AD19EEFAEFFB12087B8C
:102D5400022DDCAC18AD19EEFAEFFB120881807875
:102D6400AC18AD19EEFAEFFB120887806BAC18AD06
:102D740019EEFAEFFB12088D805EAC18AD19EEFA6D
:102D8400EFFB1208938051AC18AD19EEFAEFFB1269
:102D94000899804474021218ED880C890D780C127D
:102DA4001B1A74021218FDEEFAEFFB12089F74024C
:102DB4001218AD8023AC18AD19EEFAEFFB1208A57A
:102DC400E9F8701674021218E3E4F0803CAC18AD14
:102DD40019EEFAEFFB1208ABE9F8E8602C8E828F4B
:102DE40083A3E064146022850A82850B83E0900249
:102DF400F1F08518828519831236649002F212323A
:102E0400CDE8A3122E29120491EEFAEFFB12080367
:102E140074021218E3E0F9740302483FEAF0A3EBEA
:102E2400F0F9EA4922F07CF17D0285088285098364
:102E34001232E52274E812190774FA12189774040E
:102E44001218E3ECF0A3EDF08A128B13EA2405F5D3
:102E54000EE43513F50FEA2402F510E43513F511E9
:102E640085108212390B7508007C037D0079007A85
:102E7400F17B02121313E50E2402F516E4350FF567
:102E84001774021218ED880C890D780C121B1A8520
:102E94000E82850F83A3A3A3A3E0F50C750D007820
:102EA4000C121B1AE50E2405F50CE4350FF50D780C
:102EB4000C121B1A8516828517831239531218AD0A
:102EC4008A0C8B0DE50C450D700302303080208593
:102ED4001882851983E088828983F0050885188221
:102EE400851983A3E0C0E012306BD0E0F00508E55B
:102EF4000A24FBF8E50B34FFF9C3E50898E499408C
:102F0400030230307E007F00851282851383A3A3E1
:102F1400A3A3E0F5097809121B1EE4F514F515784E
:102F240014121B1A7514EE7515027814121B1A90DC
:102F340002EF121B3174091218E3121B31E50A2443
:102F4400F9F9AC0CAD0D1239651218ADE960030244
:102F54002FD7850E82850F83A3A3A3A3A3A3A3E0E6
:102F6400F89002EEE068706BE0F5148E1578141298
:102F74001B1A1245CA850E82850F83A3A3A3A3A39C
:102F8400A3A3A312366412130D74021218ADE960E0
:102F9400421240257034E4F5147814121B1A7CFF95
:102FA4007DFF79071239741218AD8B15A9151230EB
:102FB400807017850E82850F831247597404121886
:102FC400E312401212398602305E850C82850D832D
:102FD400123061A818A919881489157814121B1ABB
:102FE40074041218E3121B31851682851783123973
:102FF400351218AD8A0C8B0DEE4F7003022EC812D9
:10300400306BEE12307612391CEF123076F8A3E0F2
:103014003400F9E50C4B6003022ED3888289837453
:10302400FFF0050812306B74FFF00508E508601422
:103034001313543F1232D31204A3E96003123F392D
:1030440079008016850E82850F8312475974041205
:1030540018E3124012123C89790A0238ECA3A3A3A4
:10306400A3E0FEA3E0FF22A8089002F2E0281239B0
:103074001C22F00508089002F2E028229002F2EAED
:10308400F0A3EBF0EA492274E812190774FA121853
:103094009774021218E31232CD74041218E3ECF0A0
:1030A400A3EDF074021218E3E024051238F6F58358
:1030B400E0F50CA3E0F50D74021218E3E02402F528
:1030C40010A3E03400F511851082123668750800EB
:1030D400750900EA24FCFEEB34FFFF8008050CE5CB
:1030E4000C7002050DA808C3EE98EF94005003027B
:1030F400327EA818A919880E890F780E121B1A851A
:103104001482851583A3A3A3A31245A9121B1AE550
:10311400142405F50EE43515F50F780E121B1A85E7
:103124001482851583A3A31245CDAA0CAB0D1207F7
:103134006774061218AD8A0E8B0FEA4B70030232C5
:103144007EEA2404F516E4350FF517851682F58317
:10315400E0F50CA3E0F50D851882851983121B3167
:10316400AC0EAD0F8510828511831239021218AD91
:10317400E9F509600302327E74021218E312392C55
:10318400F5097809121B1EE4F512F5137812121BC7
:103194001A7512EE7513027812121B1A9002EF12AE
:1031A4001B3174071218E3121B31EEF9AC0EAD0F8C
:1031B4001239651218ADE9F509600302327EE5089B
:1031C400703BE4F50EF50F780E121B1A7CFF7DFFA1
:1031D40079091239741218AD8B0FA90F9002F312EA
:1031E4003083700D74041218E31232C07911023264
:1031F400AF9002EEE024029002F2F080149002F20A
:10320400E0FA9002EEE0790024025001096A497064
:103214006DA8089002EEE0FAE82AFAE43400FBEE26
:103224009AEF9B4055851682851783E0C0E0900293
:10323400F3123070D0E0F00508851682851783A359
:10324400E0C0E0089002F3123070D0E0F00508907E
:1032540002EE1245A9121B1A1245CAA8081232B26C
:103264001218AD9002EEE02508F50874FF650C70A5
:103274000474FF650D60030230E1E508601C9002F0
:10328400F2E0F5F0E508841232D31204A9E96006ED
:103294009002F3123F3C79008011E509700375092F
:1032A4000A74041218E31232C0A9090238EC90021D
:1032B400F3E028FAA3E03400124587221245B6E56C
:1032C4000CF0A3E50DF022A3A3EAF0A3EBF0229007
:1032D40002F1F07CF17D028510828511831232E5C2
:1032E40022123C79FB2274EC12190774FC12189711
:1032F400123D9974021218FD850A82850B831234DB
:10330400B970030233AA1233BAA818A9198810890C
:10331400117810121B1A7CFF7DFF790B85088285BA
:10332400098312397A1218AD1233C4700B850A82DC
:10333400850B83123983807B8E828F83A3A3A3A3FF
:10334400E0F5127812121B1EE4F512F5137812122E
:103354001B1A7512F17513027812121B1A781012C7
:103364001B1A74091218E3121B3174091218E312A0
:1033740034B285088285098312396B1218ADE9FECF
:1033840070157CF17D0285088285098312366412EA
:1033940004AFE97009801A74166E70027E00123F41
:1033A40039EE7004800B7E01850A82850B83123C02
:1033B40086EEF9023C9BEE2402F508E43FF509226F
:1033C4008A108B119002F2EAF0A3EBF0EA4B22741C
:1033D400EC12190774FC121897EAFEEBFF8C0E8DA1
:1033E4000FEA2405F508E43FF50974021218FD8577
:1033F40008828509831234B970030234A2EE2402D0
:10340400F50AE43FF50BA818A9198810891178105A
:10341400121B1A7CFF7DFF790D850A82850B8312AE
:10342400397A1218AD1233C4700B8508828509836A
:1034340012398380768E828F83A3A3A3A3E0F5122F
:103444007812121B1E850882850983A3A3121B31DF
:103454007512F17513027812121B1A7810121B1AC6
:1034640074091218E3121B3174091218E31234B2EE
:10347400850A82850B8312396B1218ADE9FE700F31
:103484007CF17D0212365E1204B5E97009801A746B
:10349400166E70027E00123F39EE7004800B7E01BE
:1034A400850882850983123C86EEF9023C9BE0F98B
:1034B400AC0CAD0D22123C718A0C8B0DEA4B2274BC
:1034C400E812190774FE1218978A168B178C148D3C
:1034D40015EA2405F50CE43517F50DEA2402F50E7A
:1034E400E43517F50F850E821236688A088B097544
:1034F4000B007C037D0079007AF17B0212131375B3
:103504000A00E50814F5100424FFF508E50934FF62
:10351400F509804C9002F1E0FA9002EEE0F8EA2816
:10352400F8E43400F9E50898E50999500D9002F1A2
:10353400E0F8E510C3989002EEF0E0F51275130080
:103544007812121B1A1245CA9002F2E02A1232B7FC
:103554001218AD9002EEE0F89002F1E028F0050AAE
:10356400850C82850D83A3A3123F324003023643A8
:103574009002F1E0C39508E495094003023643AE96
:103584000AEE2EFEE433FF123685AC18AD1912454F
:10359400D7E439FB12076D8A128B13AC12AD13EA10
:1035A4004D701B750B01123676123C8A9002F21292
:1035B4002C12600312137FA90B74020238EE8516D5
:1035C40082851783A3A3A3A3E0F50B780B121B1E1C
:1035D400E4F512F5137812121B1A7512EE75130224
:1035E4007812121B1A9002EF121B3174071218E39F
:1035F400121B31A910850E82850F8312396B1218A4
:10360400ADE9F50B70A01240256003023518E4F50E
:1036140012F5137812121B1A7CFF7DFF790F850EA9
:1036240082850F8312397A1218AD8B13A9131230C5
:103634008060030235181236761239870235BD7C54
:10364400F17D02850E82850F831236641204BBE974
:1036540060030235B079000235BD850A82850B838B
:103664001232E52212366C22F583123C79FB1205E4
:103674008722123685123C79F9EA851482851583EE
:1036840022850C82850D83E02EF8A3E03F8882F525
:10369400832274E812190774FA1218977404121822
:1036A400E31232CD8C168D1774041218E3E024054E
:1036B400F50EA3E03400F50F74041218E3E02402BD
:1036C4001238F612390B7F007E00A818A919880851
:1036D40089097808121B1A850E82850F83A3A3A378
:1036E400A3E0F5088F097808121B1AE50E2405F5E6
:1036F40008E4350FF5097808121B1A850E82850F28
:1037040083A3A31239531218AD8A0C8B0D80241293
:103714003926F00F123926F00F9002EE123C5C129B
:103724001B1A1245CAEFF81232B21218AD9002EE0B
:10373400E02FFFE50C450D607A8518828519831208
:103744001B31AC0CAD0D8514828515831239021220
:1037540018ADE9FEE50C2404F510E4350DF511E986
:10376400704B74041218E312392CF5087808121BF4
:103774001EE4F508F5097808121B1A7508EE750998
:10378400027808121B1A9002EF121B3174071218E8
:10379400E3121B31E50A24FAF9AC0CAD0D85148251
:1037A40085158312396B1218ADE9FE603612394261
:1037B400123C89EF70030238D99002F2E0F5F0EF81
:1037C400849002F1F07CF17D0285148285158312C8
:1037D40036641204C1E960069002F3123F3C79009A
:1037E4000238ECEFF508703DE4F512F51378121287
:1037F4001B1A7CFF7DFF791185148285158312398C
:103804007A1218AD8B13A9139002F3123083700946
:103814001239421239860238EC9002EEE024049008
:1038240002F2F080359002EEE0F89002F2E0FCE85B
:103834002404FAE43400FBEA6C4B60030237BDE570
:103844000A24FAFAE50B34FFFBE50828F8E434000F
:10385400F9EA98EB9950030237BD851082851183EC
:10386400E0C0E09002F3E02FF8A3E034008882F592
:1038740083D0E0F00F851082851183A3E0C0E012AD
:103884003913D0E0F00F74021218ED880889097812
:1038940008121B1A74021218E3121B31850E82855A
:1038A4000F83A3A31239351218AD8A0C8B0DEA4B82
:1038B400700302371374021218E3E0C0E0123913E4
:1038C400D0E0F00F74021218E3A3E0C0E012391341
:1038D400D0E002371BEE70027E0A850E82850F83CC
:1038E400123948123C89EEF974061218AD7F1002A1
:1038F40019D9F514A3E03400F51585148222123287
:10390400E512075574022212366C8A0A8B0B2212B6
:103914003917229002F3E02FFAA3E034008A82F5EB
:10392400832212391774FF221245B6A3A3A3A3E07E
:10393400221245D1AA0CAB0D120773740422851010
:103944008285118312475FF98516828517832212B7
:1039540045D1850E82850F831232E51207677406FE
:10396400228510828511831232E51208D57409224A
:103974008510828511831232E512083F74022212E7
:103984003C8FE8F0A3E9F079112274EA1219077464
:10399400FE1218978A088B098C128D13EA2405FEEF
:1039A400E43509FF123C658A0C8B0DEE2406F50EF6
:1039B400E43FF50FEA4B7003023A74E5082402F57C
:1039C4000AE43509F50B8A828B83A3A3A3E0A2E55D
:1039D4005022123A9E8A108B11EA4B60247912AC61
:1039E4000CAD0D12365E851082851183121905E91E
:1039F400F50C707F850E82850F83E0600979528013
:103A040011750C0E806D850882850983A3A3A3A379
:103A1400E0F9E4F508F5097808121B1A8E828F8301
:103A2400A3A3E0F5087808121B1A8E828F83A3A340
:103A3400A3121B318E828F831245CD850A82850B9A
:103A440083123DAB1218ADE9F50C7011850E828519
:103A54000F83E0702C12365E1204C780247416693A
:103A64007011750C0074181218E31245B2E480103A
:103A7400750C01124755851282851383E8F0A3E97A
:103A8400F0850E82850F83E0600479008002A90C22
:103A940074021218AD7F0E0219D985188285198314
:103AA4001232E51208C92274EC12190774F71218BD
:103AB400978A0A8B0B8C108D11EA2405FEE4350BD2
:103AC400FF750C00123C658A088B09EA4B700302EF
:103AD4003C47E50A2402F50A5002050B8A828B83CF
:103AE400A3A3A3E0A2E55025123A9E8A0C8B0DEA0B
:103AF4004B604F7912AC08AD0912365E850C828595
:103B04000D83121905E9F50C6003023C4A850A820B
:103B1400850B83E0F508A3E0F509AA08FB1208BDAC
:103B2400EA4B70197AFF7BFF1208BDEA4B7003025F
:103B34003C3D8A828B83E508F0A3E509F075080013
:103B44008008750C0E023C4A05089002EBE0F8E58B
:103B540008C3984003023C3DE508F50E750F007458
:103B640003780E1218848A828B83A3A3E0250EF8AF
:103B7400A3E0350F12401A70CF8E828F83123C7EE1
:103B84001232CD8E828F83A3A3123C7E1232CBEEEF
:103B94002404F508E43FF509850882F583E088826A
:103BA4008983A3A3A3A3F0A3E4F0EE2405F50EE414
:103BB4003FF50F850E82F583123C7EA3A3A3A312C7
:103BC40032CB7512077513007812121B1AEEFCEF34
:103BD400FD74041218F51245881218ADE4F5127834
:103BE40012121B1A850882850983E0FC7D0079176F
:103BF400850A82850B8312397A1218AD740712185C
:103C0400E31233CB6038850882850983123C5C1249
:103C14001B1A850E82850F831245CD124588121812
:103C2400AD74021218FD12365E1204CDE9602374DD
:103C3400071218E3123F3C8019750C098008750CB3
:103C4400118003750C01124755851082851183126A
:103C54003C89A90C74098041E0F5087509007808CD
:103C640022AC18AD198E82F583123C7122123C7974
:103C7400FB12076D22E0FAA3E0221232E588828962
:103C84008322123C8FE8F0A3E9F022E0F8A3E0F9E4
:103C9400850E82850F832274041218AD7F0C0219DD
:103CA400D974EC121907123D99751000EA2402F533
:103CB4000CE43FF50D850C82F5831236641208BDC1
:103CC4008A088B09EA4B7003023D7D850A82850BC5
:103CD40083E064016003023D72AC08AD09AA0AAB3B
:103CE4000B1208B1E9606F8508828509831230637D
:103CF400EE2406F50AE43FF50B8E828F83A3A3120C
:103D04001B318E828F83A3A3A3A3121B31850A8246
:103D1400850B83121B3179188E828F831245CD85D2
:103D24000C82850D83123DAB1218ADE9F874166848
:103D3400700B850A82850B83E4F0A38014E960127A
:103D44008E828F83123664850E82850F83EAF0A3F8
:103D5400EBF089108018780E121B1AAC08AD09EE2E
:103D6400FAEFFB1208B774021218ADE9F510AA08AD
:103D7400AB091208C3E510700E850C82850D831201
:103D840036641204D380097416651070037510002C
:103D9400A910023CA0EAFEEBFF8C0E8D0FEA24056D
:103DA400F50AE43FF50B221232E51208DB74062211
:103DB40074EA1219077508007509007E007F007502
:103DC4000A00EC2402F510E43DF5118035EC650899
:103DD4007003ED65096003023E6988828983A3A3A9
:103DE400E06A7003A3E06B707C88828983A3A3A339
:103DF400A3124759EE28FEEF39FFEA28FAEB39FB04
:103E0400050A123F2F503BE50AF50C750D007403AB
:103E1400780C121884851082851183123F22124077
:103E24001A601FE508450970A48C088D09888289E9
:103E34008312306188828983A3A3E02EFAA3E03F32
:103E440080BDE50AC394025003023F1D7508007546
:103E54000900EE4F600FEEFAEFFB1213798A0E8B16
:103E64000FEA4B70057900023F1F750B00807FE558
:103E74000BF50C750D007403780C121884851082F0
:103E8400851183E0250CF50CA3E0350DF50DE50C4B
:103E94002406F514E4350DF51585148212401D60D1
:103EA4003AE50C2404F512E4350DF513851282F578
:103EB40083121B31E50E2508FAE50F12458112180D
:103EC400AD851282851383E02508F508A3E0350942
:103ED400F509851482851583123F3CE50B600D7C42
:103EE400087D007900AA0CAB0D121313050BE50B2A
:103EF400C3950A5003023E738510828511831247CD
:103F0400598882F583A3A3A3A3A3A3E50EF0A3E595
:103F14000F122C19EEF0A3EFF07901023A99123F37
:103F24002622E0250CF8A3E0350D229002EBE0F800
:103F3400E50AC398229002F21232E512137F22742A
:103F4400F01219078A0E8B0F8C0A8D0B750D0075F4
:103F54000C00804A7916EE2406F508E43FF5098E34
:103F6400828F83A3A3121B318E828F83A3A3A3A367
:103F7400121B31850882850983121B31850E8285C7
:103F84000F83A3A3123DAB1218ADE9F50D741669A6
:103F94007064850882850983E4F0A3F0050C90021F
:103FA400EBE0F8E50CC398505EAA0C7B008A088B02
:103FB4000974037808121884850A82850B83A3A3E5
:103FC400124074E8FEE9FF12401B603BEA24010A38
:103FD40050010B9002EBE06A7001EB601488828957
:103FE40083A3A3A3A3A3A3A3A31240286003023F14
:103FF400587918023F5AE960A312475574101218F1
:10400400E3124012123C89A90D7F080219D9123C0F
:1040140079F5838A8222F98882F5831245D1EC4DA1
:10402400229002F212475FF9E8492274F612190746
:104034007C0080010C900348E0F8ECC398501FEC1E
:10404400F50875090074027808121884124069E0B2
:104054006A7003A3E06B70DCE8FAE9FB80047A0081
:104064007B000241059002E91240748882F58322A4
:10407400E02508F8A3E03509F92274F21219078A39
:10408400088B09750A0080278E828F83A3A3A3A3BC
:10409400122C10600312137F7C087D007900EEFA65
:1040A400EFFB1213138E828F83E4F0A3F0050A1240
:1040B4003F2F5028E50AF50C750D007403780C1297
:1040C4001884850882850983A3A3E0250CFEA3E058
:1040D400350DFF8E82F58312402870AC85088285E9
:1040E400098374FFF0A3F002484274F61219071210
:1040F40046F670067A007B008007A3A3A3A31236BA
:10410400647F020219D974F6121907E9FE8C828DB4
:1041140083E06402703D1246E6F508A3E0F9A808BE
:10412400740268700374296970297508027509009E
:104134007808121B1A740E1218E3121B31740E1233
:1041440018E3121B31EEF912120B74061218ADE9C2
:10415400F98002790180AA74E812190774FB121815
:1041640097E9851882851983F08A168B17ECFEED82
:10417400FF7510008C82F583A3A3A3E0A2E4502A68
:10418400741D1218E3123AA48A828B83E582458354
:104194007003024577790AEEFCEFFDAA16AB1712FD
:1041A4001905E9F510600302457A741F1218E3E05B
:1041B400F508A3E0F50974211218E3E0F50AA3E079
:1041C400F50B74231218E3E0F50EA3E0F50F8E82CD
:1041D4008F83E064026003024523A31247598508D4
:1041E40082850983A3858212858313EE2406F50C48
:1041F400E43FF50D888289831245D7F514E439F537
:10420400157814121BA4010000280128324207006B
:104214000228FE420328674200291F4401294A4418
:104224000229E84303291F440429C0442345E50E19
:10423400450F600302451E850C82850D8312475984
:10424400E8FAE98882F583E0850A82850B831245C2
:10425400E112458E121B1A8A828983A3E0FCA3E033
:104264000244ACE50E450F600302451E850A8285B3
:104274000B837401F01245BF850882850983F07CA5
:10428400007D008E828F83A3A3A3A3E02401FAA35D
:10429400E03400FB12076DEA4B60458A828B83E0B1
:1042A4002402F8850A82850B83E028F0EA2404F8C6
:1042B400E43BF98882F583E08512828513831245F5
:1042C400E7F08A828B8312458E121B1A8A828B83B3
:1042D400A31245CDE5082403FAE43509FB0244B1F1
:1042E400850A82850B83E02404F07C047D00790038
:1042F400AA12AB1312131302457AE50E450F60039D
:1043040002451E1245BFFEA3E0FF850A82850B838A
:104314007404F0EE850882850983F0EF85128285A6
:104324001383F074031218FD1246D870030243C9B4
:104334008A828B83A3A312306174011218ED880E54
:10434400890F780E121B1A74051218E3121B317CA4
:10435400FF7DFF12077374041218ADEA4B703385A6
:104364000C82850D831245A9121B1A850C82850DBA
:1043740083A3121B317C027D007A227B9012057587
:1043840074041218ADE9700A74011218E374FFF092
:10439400A3F08E828F83E064027034750C02750D75
:1043A40000780C121B1A8E828F83A31245CDE50868
:1043B4002404FAE41245811218AD850A82850B8320
:1043C400E02402800974011218E3EEF0A3EFF07404
:1043D400011218E312459FF074011218E3A3124569
:1043E40097024518E50E450F600302451E850C82B1
:1043F400850D831245B21245CDAA16AB17121211C0
:10440400850A82850B837402F0850882850983EA14
:10441400F0851282851383EB02451BE50E450F6080
:104424000302451E1245BFF8A3E0F9850A82850BF5
:10443400837402F0E8850882850983F0E985128295
:1044440085138302451B850C82850D831236641205
:1044540012F5EAF8C3950EE4950F405AEA650E4545
:104464000F700478008021851882851983E0FCE5AB
:104474000E2CFCE4350FFDC3EC9AED94005003E0E0
:104484008005E50EC8C398F8E8850A82850B83F099
:10449400F50A750B00780A121B1A850C82850D83A8
:1044A400E0250EFCA3E0350FFDAA08AB09124588F0
:1044B4001218AD02457A75100702457AE50E450FCC
:1044C4007058850C82850D83124759850A82850BA5
:1044D4008374071245E11245971245E1A3E0851262
:1044E40082851383F0E82402FAE439FB8A82F58397
:1044F400124597A3122AF812459F122C181245A3AD
:10450400F0E82405F8500109F58289831245A3A334
:104514001245E7A3A3A3A3F0805C75100B80577426
:104524001D1218E31246EF604A12475F880CF50D1E
:10453400E8450D603E74251218E3E0F5107810127A
:104544001B1E780E121B1A780A121B1A7808121BEB
:104554001A74071218E3E0F9EEFCEFFDAA16AB1784
:10456400850C82850D8312190574071218ADE9F5BF
:1045740010800375100EA91074050238EE35091267
:10458400458722FB1212FB740222E0F50A750B0028
:10459400780A22E0850882850983221245F12212D5
:1045A40045F1A3A322E0F50E750F00780E22124503
:1045B400B622E0F8A3E0F583888222850C82850D7B
:1045C400831245B6E0229002EF1245D122E0FCA30B
:1045D400E0FD22123C79F8E4C8F9EA2822F0888246
:1045E400898322F088828983A31245F122E0850819
:1045F40082850983A3A32274EE12190774FE12188C
:10460400978A088B09ECFEEDFF890AAC18AD1912E4
:1046140046D870030246C98518828519831246EF6D
:1046240070030246C4A312475E880EF50FE8450FD7
:1046340070030246C474141218E3E0F510A3E0F505
:1046440011E50AF50B780B121B1E74191218E312EC
:104654001B317810121B1A741B1218E31234B2AAFD
:1046640008AB09850E82850F83121905740512188B
:10467400ADE9F50B705274FE650A604C850C8285B9
:104684000D83E0640270411246E6FAA3E0F9EAF809
:104694007402687003742969702E851082851183F1
:1046A4001245D7F50CE439F50D780C121B1AEEFC03
:1046B400EFFDAA08AB091208F374021218AD8008C2
:1046C400750B0E8003750B01A90B74021218AD7FD4
:1046D4000A0219D9EEFAEFFB12076D8A0C8B0DEA68
:1046E4004B2212475E8882F583E0221232E512469D
:1046F400F62212086F8A828B83E58245832274F640
:1047040012190774FE121897740C1218E312475901
:10471400E8851882851983F074011218E3E9F0E43E
:10472400F508F5097808121B1A7508027808121B97
:104734001A74041218ED880889097808121B1A796A
:10474400FE1208DB74061218AD74021218AD024191
:10475400058E828F8312475FF922A3E0F8A3E0223B
:1047640074F7121907EAFEEBFF8908900306124555
:10477400CD121211EA5402600BA908EEFAEFFB12F3
:104784000761800279017F010219D974F2121907B5
:1047940074FE121897EAFEEBFF7401696013740249
:1047A40069600302483D7901120AF7E9600302488F
:1047B4003DEEFAEFFB1208BDEA4B60031208C3A8F2
:1047C40018A919880889097808121B1A750802752E
:1047D40009007808121B1A75081C750990780812CC
:1047E4001B1A7CFF7DFF7A017B0012076774061297
:1047F40018AD803B850882850983A3A3A3A3A3A343
:104804001245B21245CDEEFAEFFB1211F9E4F50CA4
:10481400F50D780C121B1A74021218E3121B317C6A
:10482400FF7DFFAA08AB0912077374041218AD8A3E
:10483400088B09E508450970BB74021218AD7F06A0
:104844000219D974F41219078A088B09ECFEEDFFDA
:10485400901609E0F460487A097B0012131FEA4BB2
:10486400603D8A828B8374B1F0A3E41248A6122AB5
:10487400F9A3E508F0A3E5091248A6A3EEF0A3EF17
:10488400F0740C1218E31247598A828B83A3A3A3F2
:10489400A3A3A3A3123C89901609E0F912132B02D7
:1048A4002C4EF08A828B83A3A3A3A322C082C0834D
:1048B4009061907404F0A37448125EC79061807490
:1048C40040F09061BC7407F09061877469F0906166
:1048D400B67416F07900120C177902120C1D902987
:1048E40034E493F46006E493F9120BF37905120FA0
:1048F40029024E84C082C083E9540FF9906185E097
:10490400696012E5C654B84441F5C6E59E5447644F
:104914004170F8E9F053C6B8E59E544770FA024E68
:104924008474F7121907AEA853A87E120BFFC2BAFB
:10493400539AFEC289759B00C2C2120C0575A91157
:1049440075B905120C0BD2BA439A0174805E42A861
:104954000250E7C082C083906181E4F0A3024E7BE1
:1049640075E90075910075BF00020132C082C083F1
:10497400906181E4F0A374C0F0A3E4024E7DC08290
:10498400C08374F8121897900378126209700302B6
:104994004A2B900378E0544060177908AA18AB19A1
:1049A400120D19AA18AB1912095F900378E054BFCD
:1049B400F0E054806010790C7A477B05120D199051
:1049C4000378E0547FF0E0A2E050087900124A3303
:1049D40054FEF0E0540260087901124A3354FDF0A9
:1049E400E0540460087900124A3E54FBF0E0540895
:1049F40060087901124A3E54F7F0E05410600879D7
:104A040002124A3E54EFF0E0542060087903124A3F
:104A14003E54DFF0A3E05401600D120C2912097119
:104A2400900379E054FEF074081218AD024E84121B
:104A34000C17120965900378E022120C1D12096B01
:104A4400900378E022C082C083E9600514602A8064
:104A54004F90619A7433F0A37455F09061A0743A46
:104A6400F0900521E064017009C29190037A7467A3
:104A7400802D90037A7461802690619A743FF0A32C
:104A8400745AF09061A0747FF0900521E064017085
:104A940009D29190037A7471800590037A746AF054
:104AA400024E84C082C083E9600B14600D14601749
:104AB40014600C802090293880159029398010903A
:104AC4000521E06401700590293A800390293BE4B4
:104AD40093906186F0024E8474EC12190774F412F8
:104AE4001897908FCFAC18AD1974041217AA902997
:104AF4003893F46003024BFF907808E0C3940250AB
:104B040003024BE3908F3674041218FD74081217D5
:104B1400AA7F00750CFF750DFF750EFF7E00EFFC7C
:104B240025E0F8E433F974041218E3E58228F582E9
:104B3400E58339F583E0F512A3E0F513800F7408DB
:104B44006E605B74096E6056740A6E6051EEF5080F
:104B540075090074027808121884124C091217435C
:104B6400A909E50AC9F5107418780812166CE5103D
:104B74004508F8C3E51298E51399400AE512C3986D
:104B8400F8E513998008E8C39512F8E99513F9C379
:104B9400E8950CE9950D5006880C890D8E0E0EEEE5
:104BA400C39413409974FF650C700474FF650D6021
:104BB40024E50EF50874027808121884124C0912C0
:104BC4001743851882851983E5822CF582E43583A1
:104BD400F583E508F00FEFC394045003024B1775F7
:104BE40008017509007808121B1A74021218FD7A5C
:104BF4004E7B0A12125F74021218AD740C1218ADB7
:104C04007F0C0219D974482508F58274783509F5A2
:104C140083780822C082C083906186E0F890293BA3
:104C2400E49368700990293AE493906186F0906166
:104C3400AE7468F0A3746AF090624574FBF0A30448
:104C4400F053F4FD43FE029005217401F09061A03D
:104C5400E0643A7004790080027901120C17024E64
:104C640084C082C0839004D3E06401700A9004D8A5
:104C7400E06004790C80027900024E84C082C08313
:104C840075E1F19004D6E06054146009146058147E
:104C94006050147057120C3B9004C5E0F97AC67B3F
:104CA40004120EAB908FA3121761120EE1908FDFE6
:104CB400121761120EB79004D7E0F9120EC37901EE
:104CC400120F1D9004C3124FDF241AF582E438F545
:104CD400837453F0A3740CF07900024E84120C41D7
:104CE40080B6120C4780B1120C4D80AC791280EA68
:104CF40074F412190775D90D9004CCE0A2E0E433E2
:104D04001313F8124D99484401F5D97800124E0B4B
:104D140040FB7800E8FA74CD1256F73404124E15AD
:104D240040F275E1959004CCE0F97ACD7B04120E43
:104D3400B190162D74C9F0A3740B124E20124E6A52
:104D4400124E61124FA79004D6E064019004C37020
:104D54000B124DA3121743908F9F8009124DA3127B
:104D64001743908F9B78081216B7908FDB78081240
:104D7400171D9004C3124FDF124E587808121752B1
:104D84009004C3124FDF124E4F7413F090037674E5
:104D940002F0025E1F9004C5E0C4333354C02212F3
:104DA4005D3AA3A3780822C082C083124F638AD9D4
:104DB4007800E8FC74C62C124E1040F67800800D82
:104DC400E8FC74DD2CF582E43404125036E8C3990F
:104DD40040EE124F55124E0B40FB780080081256DD
:104DE400F33404125036E8C39940F375E1959016F4
:104DF4002D74D5F0A3740B124E20124E2A7412F0A7
:104E040090037674018072E8FA74C62AF582E43459
:104E140004F583E0F5D908E8C3940622124F907490
:104E2400CFF0A3740B22124E6A124E61124FAB9054
:104E340004C3E0F8A3E0C8124E5874FF1256EB9076
:104E440004C3E0F8A3E0C8124E4F222414F582E410
:104E540038F58322240EF582E438F58322F0A37416
:104E6400E7F0A3740B22124E6E22124E7222F0A3AC
:104E74007485F0A3740D22F0A3F08004A2E092AF35
:104E8400D083D082020132C082C083124ED0124D30
:104E9400994402F5D97800124E0B40FB7800800C3F
:104EA400E8FA74DD1256F73404125036E8C3994018
:104EB400EF75E19590162D124EDBF0A3124EDB1226
:104EC4004E2D7414F0900376740480AD9004DCE0ED
:104ED400F9740729F5D92274E1124EE8124EE8F06C
:104EE400A3740B22F0A3740BF0A374E122C082C05C
:104EF40083124F6374064AF5D97800E8FC74C62C13
:104F0400124E1040F67800800DE8FC74DD2CF5821A
:104F1400E43404125036E8C39940EE124F55124E51
:104F24000B40FB780080081256F33404125036E824
:104F3400C39940F375E19590162D74DBF0A3740BBF
:104F4400124F86124E2A7415F09003767403024EA3
:104F54007D9004FC124ED374044AF5D978002212D1
:104F64004ED09004C5E0C4333354C0FA22F582E431
:104F740039F583E0F5D90AEAC322EE28F8E43FF9CB
:104F8400E822124F907485F0A3740D22124F9422DC
:104F9400124FA17485F0A3740D124FA122124E7208
:104FA400F0A322124FAB22F090163B7485F0A37449
:104FB4000D124F947485F0A3740D124E6EF022C03E
:104FC40082C0839004C3124FDF2406F582E438F5CF
:104FD40083E4024E7B851882851983E0F8A3E0C838
:104FE4002274F71219079003A4125E2474A628F8F9
:104FF400740339F9E82405FAE4391260B5A3A3A3CC
:10500400A3A3A3A3A3A31261B3A3A3A3A3A3A3A32F
:10501400E024FFF8A3E034FFF98A828B83125DBD9C
:105024000250E77F060219D9E8FA74272AF582E4C8
:105034003405F583E0F5D90822EAFEEBFF1252DBD2
:1050440022EAF8EE28F8E43BF9E822124F719404BE
:105054002274F7121907EAFEEBFF9061D0E0706446
:1050640075D90E75D90375D9047A00125045248D6B
:105074001250DB40F67A00125045248512504F40FE
:10508400F675E1957908EE248D1250D424851250DA
:10509400CC7C00ECF8C3E498FA95E0FBEE2AFAEF36
:1050A4003BFBEA248C125FACC0E0124F7E24ACF5CB
:1050B40082E439F583D0E0F00CECC3940840D412B8
:1050C40051F680027900801BFAE43FFB120D0D2299
:1050D4001250CC7904EE22124F71940822A2E0926D
:1050E400AF79007F010219D9C082C08375D90275D6
:1050F400D90375D90575E195EA246FF582E43B126D
:105104005166EA2471F582E43B125209024E84741A
:10511400F6121907EAFEEBFF900527740612518177
:10512400121B1A7C01790312616A1218AD75D90633
:1051340075D903780012516C40FB75E195900376A4
:10514400E064087016EE246FF582E43F125166EEB7
:105154002471F582E43FF583125DBD79010253E4C5
:105164008882F583125D9422E8FA74272AF582E492
:105174003405F583E0F5D908E8C3940522F07508F1
:105184002775090578082274F6121907EAFEEBFF61
:105194009061D0E0704F7801900527740BF0900374
:1051A40076E0640770177508277509057808121BDF
:1051B4001A7C01790312616A1218AD78057401280A
:1051C400F5D975D9037900800FE9FA74271256F7D7
:1051D4003405F583E0F5D909E9C39840EC75E19508
:1051E4001251F6800279000253E475E195790412B4
:1051F4000EE7EE246FF582E43FF583125D94EE240E
:1052040071F582E43FF583E8F0A3E9F079012274B3
:10521400F7121907EAFEEBFF75D90375D90375D99F
:105224000DEA24DF125233F5D91251EE0250E7F59C
:1052340082E43FF583E0227F030219D974F5121941
:10524400071252C36004780F8002780BEAC39812E5
:1052540054754041750A099005277409F0790812BC
:1052640052A960147508277509057808121B1A12CB
:1052740061621218AD750A0D12529D800312502CF2
:10528400E8C3950A40F775E1957904120EE71253C5
:10529400E9790180027900809E7401250AF5D975A7
:1052A400D903780022EE24E4FCE43FFD7A287B0550
:1052B4001252B822120D07850882850983E0221252
:1052C40052D7FAEE2484F8E43F8808F5098882F579
:1052D40083E022EAFEEBFF9061D0E0F87480C3988B
:1052E4002274F212190712535160047A0C80027A64
:1052F400081254724052750A06900527740CF090F7
:105304000393E0900528F079027C947D037A297B4D
:1053140005120D0779027C967D031252B86016754A
:1053240008277509057808121B1A7C061261641295
:1053340018AD750A0A12529D800312502CE8C395C9
:105344000A40F71251EE800279000250271252D718
:10535400F8EA2484F508E43FF509850882F583E03A
:105364002274F612190712503DFAEE2484F8E43F31
:10537400F98882F583E060047C0880027C04EAC337
:105384009C12547540587A02900527EAF0EE24F6F0
:10539400F582E43F1253F7601975082775090578FB
:1053A40008121B1A7C027903EEFA12616A1218AD14
:1053B4007A0674012AF5D975D90378008008E8FCC7
:1053C40074272C125031E8C39A40F375E1951253B7
:1053D400E97904120EE7EE240D1251F980027900E6
:1053E4007F020219D9EE241DF582E43FF583E4F02F
:1053F400A3F022F583E0900528F088828983E022D7
:1054040074F6121907125041FCEA2484F8E43BF9BB
:105414008882F583E060047E0880027E04ECC39EEB
:1054240012547540447C029005277407F0EA24F76F
:10543400F582E43B1253F760157508277509057862
:1054440008121B1A790312616A1218AD7C067401E2
:105454002CF5D975D9037800800312502CE8C39C2D
:1054640040F875E1957901800279000253E4E8C3BC
:105474009A95E0C365D0332274F71219078908A2FC
:10548400AFE433FFC2AF7E00EA246EF8E43BF98058
:10549400010E88828983E0FCEEC39C5018EEFCEA7E
:1054A4002CFCE43BFDEC246AF582E43DF583E065E5
:1054B4000870DE8010EA2CFAE43BFB125537E5084D
:1054C4001253FD04F0EFA2E092AF0250E7C082C095
:1054D40083A2AFE433FDC2AF125FA914F07C00ECE9
:1054E400F8EA125048246BF582E439F583E0C0E011
:1054F400E8246AF582E439F583D0E0F00CECC39437
:105504000340DCEA246DF582E43BF58374FF125515
:1055140041ED024E80C082C083A2AFE433F8C2AF33
:10552400125537E9125541125FA970037401F0E86E
:10553400024E80EA246AF582E43BF58322F0EA24F1
:1055440069F582E43BF583E4F02274F01219078CC8
:10555400828D83A3A3A3A3E0541FF0EA2436125F31
:105564004A8882F583E4F0750C00E50CF50AEC2515
:105574000AF8E43D8808F5098882F583E0C0E0EA8A
:10558400250AF8E43BF9E8245DF582E439F583D093
:10559400E0F0750A00850882850983E0F50E750F31
:1055A40000E50A780E121865E50EA2E05027E50C16
:1055B40033333354F8250AC0E08E828F83E0F8EA4F
:1055C4001250482438F582E439F583D0E0F08E8215
:1055D4008F83E004F0050AE50AC3940840B7050C7C
:1055E400E50CC3940540837F080219D9C082C083A7
:1055F4009003A2E0640170030256E378009003A8CC
:10560400E060030256E3125EC5A3F090040804F0C0
:1056140090040DF09003AB1256EA9003B504F09099
:1056240003DBE4F09003BE1256FCA3F0900426F0D2
:1056340090041AF0900429F090040E7480125EC74E
:10564400900414F090049212570C90049BF0900470
:105654002AF090047A12570CA3F0A3F0900486F079
:10566400900488F0900484F090049E12570C9004E7
:10567400B1F09004AB1256FC74FF9004107904F05E
:10568400A3D9FCE8FA74B61256F73404F583E0C0E3
:10569400E074031256F73404F583D0E0F008E8C34D
:1056A400940540DF7800E8FA748A1256F73403F55B
:1056B40083E0C0E0748A1256F73404F583D0E0F036
:1056C40008E8C3940840DF9003A2E004F06401708A
:1056D400089003AAE09003A4F07AA67B0380047ADE
:1056E400007B00024E84E4F0A3F0A3F0A3F022E8D0
:1056F400FA74FD2AF582E42212570022F0A3F0A3E3
:10570400F0A3F0A3F0A3F022125700A3F0A3F02219
:10571400C082C083EA2403125FAC6008E4F0900303
:10572400A3E014F09003A2E014F070069003A474B4
:10573400FFF08A828B83A3A3E4F09004BBE0700D96
:105744009003A3E0640170057900120EC9024E842F
:10575400C082C0839003A9E4F09003A8F09003A250
:10576400F0A3F0A374FFF075E1F1024E8474E81223
:10577400190774E4121897851882851983125DC776
:10578400F58388821251688882F583A3A312176D6A
:1057940074121218E312177988828983A3A3A3A32E
:1057A400A3A312516874161218E3125DD2240B12CB
:1057B40060A574101218E3125DD2240D1260A57452
:1057C4000E1218E3125DD224071260A57404121895
:1057D400E3125DBD74341218E3121B2D74161218F3
:1057E400E312176112267E74041218ADE9600302F5
:1057F4005CC8125D71121B2D74381218E312176104
:105804001226DA74041218AD8A088B098C0A8D0BDF
:10581400851882851983E024051260A5740A12187C
:10582400E3125DBD740A1218E3125DB28518828515
:105834001983E024741260A574081218E3125DBD84
:1058440074081218E3125D56F8851882851983E0EE
:10585400242EFCA3E03400FD74021218E3ECF0A340
:10586400EDF0E87003025B7A851882851983E0F90C
:10587400A3E0C92475F582E439F583E0C39AF50CF5
:10588400A3E09BF50D851882851983E0240EFAA305
:10589400E03401FB740C1218E3EAF0A3EBF0740299
:1058A400687004740C800274021218E3125D678538
:1058B4000C14850D15751600751700E4F512F51313
:1058C4007814791012157D74181218E378141217CD
:1058D40052125D71781012174374181218E378107D
:1058E4001216B77810121B1674381218E3121761C7
:1058F40012267E74041218ADE97003025B4C8518FD
:1059040082851983E0247A1260A574061218E312C2
:105914005DBD74061218E3125D67E4F512F51374A5
:10592400181218E378081216F1780879101216A4E0
:10593400908FBB78081216B785101485111585123F
:1059440016851317780879141215FD85081485092E
:1059540015850A16850B177814791012157DE50C38
:105964002508FEE50D3509FF740A1218E3125D5F80
:105974003FF974041218E3125DBA74181218E3C0E4
:1059840082C083124FD92478F582E438F583E0F598
:105994000CA3E0F50DE4F50EF50FD083D082780C5E
:1059A4001216B7780C79141216A474081218E3129C
:1059B4005D5664016003025BBC851882851983E02F
:1059C4002477F510A3E03400F511AC10FD8518829E
:1059D400851983125F59120CDD851882851983E0BD
:1059E400247CF508A3E03400F509850882F58312C8
:1059F4005F59124FD92420F582E438F583125DC72C
:105A0400C8241CF582E438F583E4125DC3F8A3E0EE
:105A1400C8241DF582E438F583E4F0A3F07404127D
:105A240018E3125DB2740E1218E3125D562AFAA33B
:105A3400E03BFB74101218E3125D36EAF0A3EB129C
:105A44005DC3247EF516A3E03400F517851682F5B0
:105A540083E0F514A3E0F51574061218E3125D56FD
:105A6400FCA3E0FD851882851983E02430F512A398
:105A7400E03400F513851882851983E02432F50A91
:105A8400A3E03400F50B74021218E3125D566C7037
:105A940003A3E06D701D850A82850B83E065147095
:105AA40004A3E06515700C125D26E0687003A3E0A2
:105AB400696032740478141218757814121B1A85EC
:105AC4000882850983121B31EDC313FDEC13FC74AA
:105AD400041218E3125D47A3A3E0FA7B001209C580
:105AE40074041218AD74021218E3125DB2740C122D
:105AF40018E3125D4D851082851183E0C0E0124FDA
:105B0400D9242BF582E438F583D0E0F0740612181A
:105B1400E3125DB274021218E3125D4D125D261297
:105B24005DBD851682851783125168850A82850BAF
:105B340083125DD2FAA3E0FB120CE374081218E39B
