:020000040000FA
:0600000002011A02232692
:03002B00022A485E
:0300530002239CE9
:03006B00022A1650
:10008300022183E5C754F84401F5C7790122000032
:100093000080FB120086B90003020104E479217891
:1000A30008B800028004F709D8FCE479297802B87B
:1000B30000028004F709D8FCE490028178C6791322
:1000C3008002F0A3D8FCD9FA781A90014A7A01BACF
:1000D30000028007E493A3F608DAF97A467B1590C9
:1000E300014B784179048015E493A3AD82AE838AF2
:1000F300828B83F0A3AA82AB838D828E83D8E9D9C6
:10010300E77582D77583B0740312012C75829175DC
:100113008300740012012C75D00075813F7518811E
:10012300751902759F00020096C09FF59FE473D076
:100133009F22D083D082C09FE493C0E0740193C018
:10014300E0740293F59F2201FF0000B40000280031
:100153002800283075A000A000A000A0000008001F
:1001630008E001F000100010001000100010001053
:100173000050005000500010001000D00700000095
:100183000000000F0001000500307507001000019A
:100193000081FF00000000FFFFFFA706C506AD06B4
:1001A300E906FF02020208025000A0000000E80373
:1001B300024A820100000882021E82010000A1158A
:1001C300020E82010000BF02021E82010000A2157E
:1001D300021082010000D502021E82010000A31555
:1001E300021282010000D702021E82010000A41540
:1001F300021482080000D802021E82010000A51525
:10020300021682010000A615FF0100FF20024A82A8
:100213000100000582021E820100000A16022C82E0
:1002230000000000000218820300000603170049C3
:100233000D490D490D490D490D490D490D490D490B
:100243000D490D490D490D490D07101910011002F3
:100253000202020202020202010D0000001001026A
:100263004A820100000282021E820100004D160232
:1002730034820100004607021E820100004E16026E
:1002830032820100002381021E820100004F160208
:1002930030820100000781021E8201000050160215
:1002A3002E82010000B780021E8201000051160257
:1002B3002A820100008180021E8201000052160280
:1002C30028820100009380021E820100005316025F
:1002D3002682010000A580021E820100005416023E
:1002E3002482010000F980021E82010000551602DB
:1002F3002282010000561601E8030577100AFFFF6A
:10030300FF00013075030201060000000000000039
:1003130000000000000000000000000000000000DA
:100323000000000000FFFF0600800CE803140953DF
:10033300696D706C65424C45506572697068657291
:10034300616C051250002003020A0002010503023A
:10035300F0FF53696D706C6520424C452050657207
:100363006970686572616C691400006F140A4368F0
:100373006172616374657269737469632031000229
:10038300436861726163746572697374696320326F
:1003930000084368617261637465726973746963A9
:1003A300203300104368617261637465726973740A
:1003B3006963203400024368617261637465726922
:1003C30073746963203500024A82010000FF8102D1
:1003D3001E820100006B17023882030000381502E9
:1003E3001C820100006C17021E820100007D1702AF
:1003F3003A820100003915021C820100007E1702B7
:100403001E820100008F17023C820200003A15028F
:100413001C820100009017021E82010000A1170236
:100423003E820000003B150218820300003C1502C7
:100433001C82010000A217021E82010000B31702F2
:1004430040820400003E15021C82010000B4171014
:100453004B65792050726573732053746174650022
:10046300024A820100000B82021E820100004D1825
:10047300024882000000431502188203000044155D
:10048300021C820100004E18120135D99203120199
:1004930035EC92031201351B930312013553930379
:1004A3001201359C9303120135DF930312013525A5
:1004B30094031201355894031201357F94031201FA
:1004C30035AE9403120135E59403120135FE94030E
:1004D3001201354D9503120135669503120135AEB0
:1004E3009503120135E295031201351D77001201C0
:1004F300351B7800120135817800120135A478008C
:10050300120135A67800120135E478001201355541
:100513007900120135157A00120135377A0012017C
:1005230035D37A001201350A7B001201354F7B0067
:100533001201355C7B00120135CC7B0012013516AC
:100543007C00120135197C001201355F7C00120119
:1005530035627C001201356C7C00120135DF7C00B2
:10056300120135077D001201353A7D001201355E17
:100573007D001201355B7E00120135FF7E00120102
:10058300356B7F00120135A77F00120135FE83030F
:100593001201352684031201355384031201358B6E
:1005A3008403120135F184031201353B85031201E3
:1005B300359F8503120135E7850312013524860330
:1005C300120135528603120135E78603120135F114
:1005D3008603120135FE86031201353187031201AA
:1005E300353D87031201355587031201355F8703B4
:1005F30012013528FF0212013536FF021201354E72
:10060300FF0212013565FF021201350BA801120129
:1006130035AEA801120135C7A9011201353FAA0160
:1006230012013566AB011201359FAB01120135375B
:10063300AC0112013524AD01120135CDAD0112011A
:100643003555AF011201353DB00112013534B10109
:100653001201356AB1011201350CB20112013532B2
:10066300B201120135FEB30112013544B401120186
:100673003566B401120135D2B4011201359DB501BD
:1006830012013557B60112013563B8011201354322
:10069300C5021201351FC602120135C9C602120175
:1006A300350AC70212013591C7021201350CC8027F
:1006B300120135DFC80212013508C902120135FCE7
:1006C300C90212013539CA0212013521CB021201C6
:1006D3003552CB0212013578CB02120135D39F0379
:1006E30012013552A0031201357DA0031201358D8D
:1006F300A103120135ED87031201350388031201AB
:10070300352188031201353189031201353B8903F1
:10071300120135658A03120135528B03120135BE6E
:100723008B03120135E8CB0212013515CD021201FC
:10073300354CCD02120135A3CD021201359BCF02F8
:100743001201355A9501120135E195011201353532
:100753009701120135419701120135B99701120131
:10076300359298011201359299011201358E9A0141
:100773001201355A9B01120135B49C01120135CA8D
:100783009C01120135EB9C011201357D9D01120183
:1007930035F39D01120135199E01120135C6A001E1
:1007A300120135CBA001120135EFA201120135363A
:1007B300A3011201359CA301120135E2A301120129
:1007C30035B2A40112013567A501120135C3A50194
:1007D300120135C6A50112013512A6011201354ECB
:1007E300A6011201358DA601120135AFA601120132
:1007F30035E3A60112013551A701120135D2D60204
:10080300120135E0D60212013530D7021201354FFD
:10081300D70212013599D702120135DCD802120131
:100823003574D902120135B8D902120135E2D90261
:100833001201354DDA0212013591DA021201351433
:10084300DB02120135C3DB02120135742A001201E7
:1008530035842A001201351E2B001201357A2B0034
:10086300120135382C001201355B2D001201358B36
:100873002D00120135BA2D00120135702F0012011F
:1008830035C331001201352234001201350B350016
:10089300120135FB3500120135CE3700120135C682
:1008A3003A00120135E33B00120135DD3D00120130
:1008B30035EC3E001201357B4000120135674100E3
:1008C300120135B6410012013526420012013542AC
:1008D30042001201359342001201353347001201E1
:1008E300353A48001201359C4800120135C74800CB
:1008F3001201357F4900120135A9F602120135B301
:10090300F602120135FBF6021201350FF70212014E
:1009130035A0F702120135D7F70212013512F8029A
:100923001201353BF8021201358FF802120135A48A
:10093300F802120135C6F802120135DBF802120182
:1009430035EFF80212013504F9021201353EF902BE
:100953001201356AF902120135B3F9021201352980
:10096300FA021201356CFA0212013596FA021201EB
:1009730035C1FA0212013553AA03120135F2970267
:10098300120135CB98021201353A990212013575DD
:100993009902120135B09A02120135629B021201CB
:1009A300350F9E02120135BA9E021201359B9F023A
:1009B30012013511A10212013579A1021201357E0E
:1009C300E002120135C1E0021201352CE2021201EC
:1009D300356AE402120135DA9B03120135879C0361
:1009E300120135809D03120135BD9D031201359619
:1009F300A303120135F5A30312013592A4031201D7
:100A030035C5A403120135F3A4031201352EA50342
:100A13001201354EA503120135D5DB021201355EF5
:100A2300DC021201351DDD021201352BDE0212013B
:100A3300354BE0021201352EF30112013543F30168
:100A43001201350EF401120135DBF40112013548B0
:100A5300F50112013583F50112013524F601120166
:100A6300352DF70112013505F80112013588F8011A
:100A730012013511F9011201357AF9011201350418
:100A8300FA0112013551FA01120135BFFA011201BF
:100A93003561FB011201350FFC011201352FFC01F9
:100AA30012013573FC01120135BBFC01120135D76C
:100AB300FC01120135F6FC0112013570FD01120132
:100AC300357EFD0112013511FE011201357BFE0158
:100AD30012013507E50212013583E502120135C122
:100AE300E502120135A5E60212013514E7021201EF
:100AF3003558E7021201359BE702120135C8E702B8
:100B0300120135E6E7021201351EE8021201355BD8
:100B1300E8021201357CE802120135F2E802120103
:100B2300353CE90212013570B80112013504BA01EE
:100B330012013542BC011201358ABC01120135B5DF
:100B4300BC01120135ABBD01120135DBBD01120140
:100B53003532BE0112013545BE0112013586BE0193
:100B6300120135B3BE01120135FCBE011201353845
:100B7300BF011201357DBF01120135CABF01120148
:100B83003532C00112013564C2011201352BC40193
:100B930012013566C401120135E4C501120135287D
:100BA300C6011201359BC601120135FCC6011201B3
:100BB3003584C701120135A3C801120135B4C80138
:100BC3001201351EA2021201358FA20212013558FD
:100BD300A80212013552A90212013514AB02120107
:100BE3003592AB02120135E849001201356F4A0014
:100BF3001201359C4A00120135DE4A00120135DA32
:100C03004B001201351F4C001201359B4D001201A0
:100C130035184E001201353D4E00120135B04E001D
:100C23001201356D4F00120135295000120135A90B
:100C330050001201357751001201359D5100120108
:100C4300350F5200120135B35200120135D852004C
:100C5300120135445300120135AA5300120135E045
:100C630053001201358454001201351D5500120141
:100C730035A055001201350C5600120135585600A7
:100C8300120135BE5600120135EF5600120135A38D
:100C93005700120135B958001201350259001201EB
:100CA300351F5900120135FF5E00120135475F0001
:100CB3001201353460001201355960001201356E9E
:100CC3006000120135D66000120135166100120171
:100CD30035296200120135D66200120135BBAB0221
:100CE30012013506AC0212013512AC02120135DDD8
:100CF300AC02120135F3AC021201352FAD02120121
:100D03003568AD02120135A0AD02120135F6AD0210
:100D13001201350CAE0212013548AE021201355BE9
:100D2300AE0212013582AE02120135B6AE021201D5
:100D3300358AAF0212013519B10212013515B2021B
:100D43001201351EB302120135EB7F001201355338
:100D5300D7011201358ED70112013592DA01120142
:100D630035E4DB01120135A9DC01120135A3DF01F2
:100D73001201358DE001120135D8E001120135F27F
:100D8300E0011201352FE1011201353AE1011201AF
:100D93003579E10112013582E10112013543E201A6
:100DA30012013500E30112013563E301120135C776
:100DB300E30112013548E4011201354D82011201AC
:100DC30035A98501120135AF8501120135F08C017A
:100DD300120135C89101120135C88B031201355E2A
:100DE3008C03120135748C03120135BA8C03120182
:100DF30035FE8C03120135388D03120135CA8D037C
:100E0300120135398E03120135428E031201354E1C
:100E13008E03120135628E03120135868E03120191
:100E2300359B8E03120135FD8E03120135248F038A
:100E3300120135E9FA02120135F6FA0212013510F0
:100E4300FB0212013543FB0212013580FB02120142
:100E530035E6FB02120135FBFB0212013506FC02EB
:100E630012013513FC021201352AFC021201353836
:100E7300FC0212013543FC021201354FFC02120140
:100E8300355EFC0212013569FC021201358FFC024A
:100E930012013533FD0212013543FD021201355DA6
:100EA300FD021201357AFD0212013595FD02120190
:100EB30035BCFD02120135C7FD02120135DCFD020E
:100EC300120135F0FD0212013551FE0212013557B0
:100ED300FE021201355DFE0212013563FE021201AC
:100EE300357BFE02120135AEFE021201350580028A
:100EF3001201359380021201352881021201350453
:100F030082021201353882021201354B820212012C
:100F130035C582021201354D8402120135748402F3
:100F2300120135FB84021201353A85021201354B59
:100F33008502120135C08502120135DF85021201D7
:100F430035F785021201353B8702120135458902C7
:100F5300120135778B021201357D8C02120135C0E7
:100F63008C02120135B9C801120135CCC901120135
:100F730035B4CA01120135BECA01120135E0CA01F6
:100F8300120135ECCA0112013539CC011201356663
:100F9300CC0112013587CD01120135C9CD011201F2
:100FA30035FECE01120135CECF011201351DD00120
:100FB3001201357ED001120135B3D001120135EC97
:100FC300D00112013597D401120135AED4011201BB
:100FD300352CD5011201353AD50112013583D501DE
:100FE30012013591D50112013512D6011201358155
:100FF300D601120135CDD6011201350D8D02120134
:10100300352F8D021201350B8F02120135839202A7
:10101300120135CD9302120135AF94021201355CF2
:10102300A50312013581A503120135F2A5031201AF
:1010330035C0BD02120135C9BD02120135D2BD0250
:10104300120135F6BE02120135E7C0021201351551
:10105300C10212013540C1021201356EC1021201F3
:101063003599C102120135D7C10212013503C202FB
:1010730012013540C2021201356BC202120135B7AB
:10108300C2021201350EC3021201354EC302120110
:10109300359DC302120135C8C3021201350EC402C5
:1010A3001201353CC40212013567C40212013594A2
:1010B300C402120135B7C4021201352BAF0312016A
:1010C3003557AF03120135B0AF03120135BAAF0381
:1010D300120135CAAF031201354A96031201357165
:1010E30096031201359C96031201352FB1031201A9
:1010F300350863001201355F65001201350F670083
:101103001201356C67001201356C6800120135E974
:1011130068001201357169001201359669001201E8
:1011230035716C00120135E56C00120135D46D0088
:101133001201350A6E001201354D6E00120135CED3
:101143006F00120135107000120135597000120141
:1011530035C27000120135E47000120135FE7000D3
:101163001201351C72001201352C7200120135AFC9
:101173007300120135CF730012013505740012019B
:1011830035817500120135BE7500120135F8760000
:10119300120135F2ED0212013542EE021201357CE5
:1011A300EF02120135EBEF021201358FF00212014B
:1011B30035AEF002120135FCF0021201353EF102A8
:1011C3001201351BB20312013579B103120135B88F
:1011D300B10312013508B2031201354CAE031201FB
:1011E300355CAE0312013571AE0312013525AF0331
:1011F30012013567AB03120135EAAB031201355017
:10120300AC031201359EFE01120135C5FE01120128
:10121300351BFF011201352EFF011201357FFF013E
:10122300120135BEFF01120135C1FF011201350064
:1012330080031201351480031201358D80031201DE
:10124300356181031201353383031201359883031A
:10125300120135EB8303120135F87F00120135BC0F
:10126300A10312013532A30312013593A303120123
:10127300355FAD0312013582AD03120135ABAD030A
:10128300120135C1AD0312013503AE0312013588D6
:10129300D10212013592D102120135D2D1021201CB
:1012A300351BD20212013553D202120135A9D202E3
:1012B300120135C6D202120135CFD2021201351402
:1012C300D3021201353DD30212013552D30212016A
:1012D30035C2D3021201354FD402120135A3D40211
:1012E300120135C6D40212013545D50212013580EB
:1012F300D502120135B5D502120135C7D502120147
:1013030035E6D502120135EFD502120135A6D60214
:10131300120135B1A80312013502A9031201358B5D
:10132300A903120135F5A9031201351F990312010F
:10133300354799031201353C9A03120135619A032B
:10134300120135F09A0312013569AC03120135D746
:101353009D031201350D9E03120135409E031201B8
:1013630035999F03120135D4AF03120135EAAF0358
:10137300120135F4AF0312013548B003120135737E
:10138300B0031201354BB50212013505B602120145
:101393003540B60212013571B602120135E1B602CB
:1013A30012013537B7021201358BB70212013578B6
:1013B300B80212013571B902120135F2BA021201F3
:1013C30035A6BB021201350FBC0212013522BC0245
:1013D30012013507BD0212013560BD0212013583CA
:1013E300E90212013599E9021201353AEA021201C2
:1013F3003579EA0212013596EA02120135C7EA028B
:1014030012013514EB0212013547EB02120135824A
:10141300EB021201357DED02120135E5ED021201F9
:101423003592E5011201351AE901120135A9EA01E4
:1014330012013500EB011201351FEB011201359D3D
:10144300EB0112013523ED01120135F6ED01120115
:1014530035B0F10112013598F2011201354FF20254
:1014630012013593F402120135C0F50212013580E1
:10147300F602120135538F03120135B68F031201A1
:1014830035D38F03120135999003120135EC900384
:10149300120135CF91031201350DA70312013570E7
:1014A300A703120135D2A70312013551A803120174
:1014B30035C2B103120135CAFF01120135CD7F00D8
:1014C300E066701008A3E066700A08A3E066700483
:1014D30008A3E06622C3E7960809E7960809E7969A
:1014E3000809E79622C3E09608A3E09608A3E096CE
:1014F30008A3E09622C008C3E096F50808A3E09687
:10150300420808A3E096420808A3E0964508700144
:10151300D3D00822080808EAC0E0EBC0E086F0E771
:10152300A4FA180986F0E7A42AFA180986F0E7A4B2
:101533002AFA180986F0E7A42AFA1986F0E7A4FB29
:10154300E5F02AFA190886F0E7A42BFBE5F03AFA4E
:10155300190886F0E7A42BFBE5F03AFA1818098678
:10156300F0E7A4C5F02BFBE43AFA1908E7C5F0C687
:10157300A426F6E5F03BFBE43AFA1886F0E7A4F676
:10158300E5F00826F6E43B08F6E43A08F6D0E0FB7B
:10159300D0E0FA22E4CFC0E0E4CEC0E0E4CDC0E086
:1015A300E4CCC0E075F020E626F608E633F608E65C
:1015B30033F608E633F6181818EC33FCED33FDEE7A
:1015C30033FEEF33FFC3EC9709ED9709EE9709EF6D
:1015D30097191919400FFFEC97FC09ED97FD09EED8
:1015E30097FE191906D5F0BFECF709EDF709EEF7E9
:1015F30009EFF7191919D0E0FCD0E0FDD0E0FED0D7
:10160300E0FF226016080808C6C313C618C613C62F
:1016130018C613C618C613C6D5E0EA22700908080F
:1016230008226016181818C6C333C608C633C6087E
:10163300C633C608C633C6D5E0EA22E627F608094C
:10164300E637F60809E637F60809E637F622E02614
:10165300F608A3E036F608A3E036F608A3E036F66C
:1016630022E026F008A3E036F008A3E036F008A352
:10167300E036F022C3E697F60809E697F60809E68E
:1016830097F60809E697F622C3E0C696F608A3E0A4
:10169300C696F608A3E0C696F608A3E0C696F62219
:1016A300C3E096F008A3E096F008A3E096F008A341
:1016B300E096F022E056F608A3E056F608A3E056BB
:1016C300F608A3E056F622E056F008A3E056F00829
:1016D300A3E056F008A3E056F022E0F608A3E0F6F4
:1016E30008A3E0F608A3E0F622E6F008A3E6F00874
:1016F300A3E6F008A3E6F022E0FAA3E0FBA3E0FCF4
:10170300A3E0FD22E0FCA3E0FDA3E0FEA3E0FF22B3
:10171300ECF0A3EDF0A3EEF0A3EFF022E0F8A3E0EA
:10172300F9A3E0FAA3E0FB22E8F0A3E9F0A3EAF0CF
:10173300A3EBF022CAC0E0E6F0A308DAFAD0E0FA9D
:1017430022CAC0E0E0A3C582CCC582C583CDC583D0
:10175300F0A3C582CCC582C583CDC583DAE6D0E0CC
:10176300CA22C3E498F8E499F91217A68026C3E4C1
:101773009AFAE49BFBE920E7E91217A6E498F8E458
:1017830099F922C3E498F8E499F91217A6E498F8B2
:10179300E499F9C3E49AFAE49BFB22EB20E7CFE94F
:1017A30020E7E0B90010BB0008E88AF084F8AAF04B
:1017B30022E4FBC8FA22EB70227B10C833C8C9337A
:1017C300C9335007C39AC3DBF280069A50012ADB60
:1017D300EAC833F4C8C933F4C9FA2275F008E4C877
:1017E30033C8C933C933C99AC99B5004C92AC93BF1
:1017F300D5F0ECFBC833F4C8E4C9FA22600D08C67F
:10180300A2E713C618C613C6D5E0F322600C08C6B8
:10181300C313C618C613C6D5E0F422700422600DA4
:1018230018C6C333C608C633C6D5E0F41822251834
:1018330010AF08F518400C15198008F5184002156B
:1018430019D2AF2200C0D0251810AF08F518500CDC
:1018530005198008F51850020519D2AFD0D02225FA
:1018630018F58210AF08F518400C15198008F51803
:1018730040021519D2AF851983222518F582E43564
:1018830019F583222518F8E43519F9222518FAE405
:101893003519FB222518FCE43519FD22E4732518BC
:1018A300C582C0E0E51934FFC583C0E0E518C395E0
:1018B3008224F810AF0885831985821880088583F0
:1018C30019858218D2AFCEF0A3E520F0A37808E6FD
:1018D30008F0A3DEFAEFF0A3E58124FAF8E608F0B6
:1018E300A3E608F0A3E608F0A30808E608F0A3E6D9
:1018F30008F0A315811581D0E0FED0E0F81581151D
:10190300811581E8C0E0EEC0E0222518C582C0E061
:10191300E51934FFC583C0E0E518C3958224F910A7
:10192300AF088583198582188008858319858218F5
:10193300D2AFCEF0A3E520F0A37808E608F0A3DE4B
:10194300FAEFF0A3E58124FBF8E608F0A3E608F03C
:10195300A30808E608F0A3E608F0A315811581D0D3
:10196300E0FED0E0F815811581E8C0E0EEC0E0228A
:10197300851983851882E0A3FEE0A3F5207808E0AB
:10198300A3F608DFFAE0A3FFE0A3C0E0E0A3C0E012
:10199300E0A3C0E0E0A3C0E0E0A3C0E010AF08858F
:1019A30082188583198008858218858319D2AFD060
:1019B30083D082020132851983851882E0A3FEE079
:1019C300A3F5207808E0A3F608DFFAE0A3FFE0A37D
:1019D300C0E0E0A3C0E0E0A3C0E0E0A3C0E010AF3C
:1019E300088582188583198008858218858319D212
:1019F300AFD083D08222C0D02518C582C0E0E519BC
:101A030034FFC583C0E0E518C3958224F310AF0803
:101A13008583198582188008858319858218D2AF3A
:101A2300C8F0A3E9F0A3EAF0A3EBF0A37908E70970
:101A3300F0A3D8FAECF0A3EDF0A3EEF0A3EFF0A33C
:101A4300D0E0F0A3D0E0F0A3D0E0F0A3E520F0A332
:101A5300E5F0F0A322851983851882E0C0E0A3E0B6
:101A6300F9A3E0FAA3E0FBA37808E0F608A3DFFA02
:101A7300E0FCA3E0FDA3E0FEA3E0FFA3E0C0E0A33E
:101A8300E0C0E0A3E0F5D0A3E0F520A3E0A3F5F0E8
:101A930010AF08858319858218800885831985828C
:101AA30018D2AFD082D083D0E0F8D0E03274048073
:101AB30006740280027401C0E0F404121862D0E0DC
:101AC300121737227404800474028000CCC0E0ED46
:101AD300C0E0E518C39CCCAD1950011D10AF068CB6
:101AE300188D1980068C188D19D2AF121744D0E0C7
:101AF300FDD0E0FC22D083D082E9C0E0E493A3C30D
:101B030086F0C5F095F0F908E493A386F0C5F09547
:101B1300F0700BE493A3C3994005E9048002A3E4A6
:101B230075F002A42582F582E5F03583F583D0E0D4
:101B3300F9E493A3C0E0E493C0E022D083D082EC25
:101B4300C0E0EDC0E0E493A3FCE493A3FDED4C609F
:101B53000D121B8AEC24FFFCED34FFFD80EFE493B0
:101B6300A3FCE493A3FDED4C600D121BC9EC24FF11
:101B7300FCED34FFFD80EFD0E0FDD0E0FCE493A367
:101B8300C0E0E493C0E022C0E0C3E493960874018C
:101B9300939618400FE493667008087401936618CF
:101BA30070007019A3A3C3E4939608740193961865
:101BB300A3A3400DD0E0D0E0D0E0021B7AA3A3A3FF
:101BC300A3A3A3D0E022C0E0C0F088F0E493667042
:101BD300080874019366187000A8F0A3A3700BD0D3
:101BE300F0D0E0D0E0D0E0021B7AA3A3D0F0D0E0A5
:101BF3002274F612190DEAFEEBFF8C088D09EA2414
:101C030034F8E43FF9E8FCE9FDEA2435121F9BFAB6
:101C1300EE2437121F9BF88508F0A4C885F00A85C7
:101C230009F0A4250AF9EA28F8E439F97A257B00B2
:101C33001217A6EA8C828D83F0FA131313541F1222
:101C43001F8F245DF582E439F583E0C0E074075A01
:101C5300F8D0E0B800028004C313D8FCA2E0EE5031
:101C6300082434F582E43F80142436121F9BF5F0D8
:101C7300EA84A8F0121F902438F582E439F583E052
:101C8300F97F030219B974F712190DEAFEEBFFEAA3
:101C93002434121F9BC0E0EA2435F582E43FF58328
:101CA300D0E0F08A828B83A3A3A3A3A3A3A3C082C0
:101CB300C0838A828B83A3A3A3A3A3E0F8A3E0F941
:101CC300D083D082E0C398F508A3E099F509EA240C
:101CD30080121F9B6401703EEA2481F582E43FF584
:101CE30083C082C0838A828B83A3A3A3A3A3E0249C
:101CF3000108A3E03400F9D083D082E0687003A325
:101D0300E06970127CB67D04120C89EE2480F582A2
:101D1300E43FF583E4F0AC08AD09EEFAEFFB121BE8
:101D2300F4E9F9122A087F020219B9C082C0838537
:101D33001882851983E0F8A3E0F9C3EA9CEB9D5070
:101D430010C3EC98ED99401BC3EA98EB99501480AB
:101D53000EC3EA98EB994007C3EC98ED99400479D8
:101D63000180027900D083D08222EAC39CFAEB9DE2
:101D7300FB2274EF12190D900376E064086005E00E
:101D83006407702A9061C8E060249003A4E0F460C3
:101D93001DE0F875F010A4C8AAF02AF974A628FE6D
:101DA300740339FF8E82F583A3A3A3E07003021E9D
:101DB3008E906060E0C0E0EE2468F582E43FF58336
:101DC300D0E0F0750C27750D05750800750900E561
:101DD300D914F50AE5D95403F50E602F7403650E83
:101DE300601DE50A6008EE2467121F9B601D9005C5
:101DF30022E06401602C121F986012780480101294
:101E03001F98602CE50AC39405502580637800E58C
:101E13000AC398FA95E0FB120B398A088B09EA4B3F
:101E23007005120ECF8064121F9870048A0C8B0DFC
:101E3300E50A6012850C82850D83F50BE5D9F0A3C5
:101E4300150BE50B70F6121F98604574FC250AF517
:101E53000A780C121AB4AC0AA90EEEFAEFFB120DB3
:101E6300437402121847E97027AA08AB0912131921
:101E7300793D8E828F83A3A3A3A3E0FA7B0012098B
:101E8300A1EEFAEFFB120CAD120D557900021F8A79
:101E93007403650E6053E50AF5107511007810128E
:101EA3001AB4AC0CAD0DAA08AB09120D07740212DB
:101EB3001847EE2468121F9B64807004747F8001AE
:101EC300E0F50C780C121AB8E50EF50C780C121A22
:101ED300B8A90AAC08AD099003A4E0FA7B00120983
:101EE300777402121847021F85850C82850D83E0E3
:101EF300C3940E5011E0F8741528F582E43481F58B
:101F030083E0650A6069850C82850D83E0C0E0EE9D
:101F130024F7F582E43FF583D0E0F0A2AFE433FC8D
:101F2300C2AF7A0080010AEE246E121F9BF8EAC347
:101F3300985013EA121F8F246AF582E439F583E07F
:101F4300640770E28022EE246EF8E43FF9E0FAEED3
:101F53002AFAE43FFBEA246AF582E43BF58374073B
:101F6300F088828983E004F0ECA2E092AF801390C2
:101F73000376E06408600BAC0CAD0DEEFAEFFB12D8
:101F83000DCD120EDB79017F0A0219B9F8EE28F89C
:101F9300E43FF9E822EE2484F582E43FF583E0226E
:101FA30074F112190D74FC121831EAFEEBFF890962
:101FB300750D00A2AFE433F508C2AF9004BEE0FA9A
:101FC3009061D0E0F8748098F895E0F9C3EA98E45A
:101FD30099A2D265D033400302208D750D010220F2
:101FE3008DE0601B780A121AB4AC0EA90FEEFAEF5B
:101FF300FB120D3D74021218477404250EF50E747E
:1020030001250EF5D9850FD9E50E6012850A828563
:102013000B83F50CE0F5D9A3150CE50C70F675E10F
:1020230095EE2463F8E43FF97A007B00A2AFE43332
:10203300F50AC2AF88828983E0FCA3E0FDEC4D6022
:102043003A88828983E0FAA3E0FB8C82F583E0FC83
:10205300A3E0FD88828983ECF0A3EDF08A828B8371
:10206300E4F0A3F088828983E0FCA3E0FDEC4D70EB
:102073000A88828983A3A3E4F0A3F0E50AA2E0928D
:10208300AF1213199004BDE004F0EE2463121F9BFA
:10209300F8A3E0F9E8496063EE2463121F9B24026E
:1020A300F8A3E034008882F583E5822402F50AE48C
:1020B3003583F50BE0F50EA3E0F50FEE2462121F56
:1020C3009B640170369061D0E0F8121F9860047C25
:1020D3000480027C007480C398FA95E0FBE50E2C23
:1020E300F8E43400F9E82402F8500109C3EA98EB54
:1020F30099A2D265D0334003021FE49061D0E0F887
:102103007480C3989004BEF0E50D60539004BDE065
:10211300604D9004BFE0F89004BDE0C398500C7488
:10212300026509703A9004C0E060348E828F83A305
:10213300A3A3A3E085188285198312217274021266
:10214300187DE81221729004BCE028F07402121882
:1021530097AA18AB1979011209CB9004BDE4F0E5F5
:1021630008A2E092AF74041218477F080219B9F06D
:10217300A3E4F09004BDE0F8228521878522C622DE
:10218300C0E074EB1219F9A2AFE433F508C2AF75DE
:102193009B00906182E0A2E0502DE591A2E05027E0
:1021A3007591FE74016521701E1222FA1223111219
:1021B3001AC71227B77404121847E9640170057926
:1021C30001120E63121D75906182E0A2E5505AE57B
:1021D30091A2E550547591DF900376E064076005A2
:1021E300E06408702C1222FA74016521703B1223FB
:1021F30011121AC71227B77404121847E964017041
:10220300057901120E637901EEFAEFFB121FA38029
:1022130018E0640D7013900398E004F064287002D2
:10222300E4F07A00E0F9120EE1906182E0A2E64068
:10223300030222CFE591A2E640030222CF7591BFAC
:10224300900376E064057008120E03120E0F8003EC
:10225300120E09752100120E6FE9900377F07900D1
:10226300120E63120BF97A017B00900375E0F912E9
:1022730012E9907803E064427052900526E014F06E
:10228300704AC2AF12228A00782AD0E0F618D0E052
:10229300F6E59F540770047BFF80027B7FC4C0E098
:1022A3007829E6F50A08E65BF50B740B780A121831
:1022B3000FD0E0250AF8906270E0A2E740F8E8C387
:1022C30033906272F0906270E0D2E0F0906181E04E
:1022D300A2E35009E5E9A2E3500375E9F7A3E0A2FD
:1022E300E75009E591A2E7500375917FE508A2E065
:1022F30092AF7F08021A589003A4E0F875F010A477
:10230300C8AAF02AF974A628FE740339FF22120E14
:102313001B8E828F83E0F8A3E0C82416F582E4388D
:10232300F58322C0E0C0D0C082C083906183E0A265
:10233300E05009E5BFA2E0500375BFFEE0A2E15003
:1023430009E5BFA2E1500375BFFDE0A2E25009E534
:10235300BFA2E2500375BFFBE0A2E35009E5BFA2B1
:10236300E3500375BFF7E0A2E45009E5BFA2E450D0
:102373000375BFEFE0A2E55009E5BFA2E550037581
:10238300BFDFE0A2E65009E5BFA2E6500375BFBF79
:10239300D083D082D0D0D0E032C0E074F21219F9E9
:1023A300E5A7A2E6500FE5A1A2E6500953A7BF7522
:1023B300A1BF1223F0E5A7A2E5500CE5A1A2E550C9
:1023C3000653A7DF75A1DFE5A7A2E15009E5A1A2A6
:1023D300E1500375A1FDE5A7A2E2500CE5A1A2E23D
:1023E300500653A7FB75A1FB7F01021A5874F7121D
:1023F300190D752101900376E064067015120D79AD
:102403008A828B83A3A3A3A3A3A3E0FAA3E0FB1273
:102413000DF1A2AFE433FED2AF90037CE064017010
:10242300187A207B00900375E0F91214037A207B5D
:1024330000900375E0F91212EF906182E0D2E6F0AA
:10244300900523E0602185C622801690037BE0641B
:10245300017008E5C654F84405F5C653BEFC1221C5
:102463007C7401652160E4EEA2E092AF7F02021961
:10247300B98E238F24858228858327851882851921
:1024830083E0CEA3E0CF852882852783EBC9EAC802
:10249300EDCBECCA75F010C3E833C8E933C9EA33AE
:1024A300CAEB33CBC3EA9EF526EB9FF525B3500465
:1024B300AB25AA26EC33CCED33CDD5F0DAAE23AF82
:1024C300242274E912190D74FA121831EAFEEBFF93
:1024D3008C0A8D0B120E27EAF8EBF9ECFAEDFB8E62
:1024E300828F8312172B900376E024F7C394055051
:1024F3000675140102262B120D798A088B09EA4B03
:102503007003022628EEFCEFFDAA18AB19120E2168
:10251300850882850983A3A3780C1216DD90819325
:10252300780C1216B785188285198378101216DD78
:1025330090819378101216B7780C79101214D85032
:102543001F780C7910121677908183780C1214F887
:10255300405D850C14850D15850E16850F17803784
:1025630090818385101485111585121685131778AC
:1025730014790C12167778141214F850327514006B
:1025830075150075160075170178147910121677F2
:102593007814790C12163E7409781412161F908160
:1025A300D7780C1216DD7814790C121597800C75F8
:1025B30014147515007516007517008508828509B2
:1025C30083A3A3A3A3A3A31226491217A6880C8946
:1025D3000DE4F50EF50F7814790C12163E740412FF
:1025E300187D1226491217A6E8FAF50CE4F50D78C2
:1025F30014790C1214D850077814790C12167790AA
:102603000376E06408600AE064066005E064057030
:102613002090818778141214F8501690818B7814C7
:10262300121651800C751400751500751600751778
:1026330000850A82850B8378141216EC740612182F
:10264300477F100219B9E0F8A3E0F97AD07B03229F
:1026530074F712190D120E39900521E06401701000
:10266300906245E4F0A3F053F4F343FE0C5390F36C
:10267300120DDFE5C654B84441F5C6E59E544764E0
:102683004170F8906185740FF090051FE0F47002BB
:10269300A3E0604E900520E0600814601B14602ED8
:1026A300804075080175090090051FE0780812182D
:1026B3001EE508F45280802A75080175090090050B
:1026C3001FE0780812181EE508F45290801475086C
:1026D3000175090090051FE0780812181EE508F43B
:1026E30052A079007F020219B974F712190DE9FE9D
:1026F300EAFF120E3974016E700C7A807B0090032E
:1027030075E0F91212E9902A6CE493F46008E493FB
:10271300F9120BED800953C6B8E59E544770FA12BF
:102723000DE5900521E064017003120C0B90051F69
:10273300E0F47002A3E0604B900520E060081460B1
:102743001A14602C803D75080175090090051FE07F
:10275300780812181EE5084280802875080175095B
:102763000090051FE0780812181EE50842908013B8
:1027730075080175090090051FE0780812181EE519
:102783000842A0120D798B09A909EA496014E5E111
:1027930070FCEA2414F582E439F583E0F46003E085
:1027A300F5E174016F700A7A01900375E0F9121371
:1027B300730226E774F112190D8A088B098C0A8DAE
:1027C3000B90819378081216B7740F12187D780C4A
:1027D3001216DD908193780C1216B77808790C12D3
:1027E30014D890818350107808790C1216777808E2
:1027F3001214F84014800E780C7908121677780CAE
:102803001214F850047901800279007F080219B983
:1028130074ED12190D8A088B098C0A8D0B90819324
:1028230078081216B7741312187D780C1216DD90FF
:102833008193780C1216B7780C79081214D84011CA
:102843007808790C121677AA08AB09AC0AAD0B808D
:102853002275100075110075120075130178107937
:102863000C1216777810790812163EAA10AB11AC29
:1028730012AD137F0C0219B990819378081216DDFB
:102883008A828B8378081216CA7F040219B974F5F9
:1028930012190D8C828D8378081216DD8A828B8340
:1028A30078081216A31228E9C3E09CF0A3E09D1256
:1028B30028DB40229081AF78081216DD8A828B8351
:1028C30078081216648A828B83A3A3A3A3E024202F
:1028D300F0A3E0344EF080A0F088828983C3E094B3
:1028E30020A3E0944E22EA2404F8E43BF98C828D81
:1028F30083A3A3A3A3E0FCA3E0FD888289832274BE
:10290300F512190D9004D9E0FAA3E0FBE929F8E4E4
:1029130033F974E928F582748039F583E02AF508E0
:10292300A3E03BF5097808121AB49081F31216FB61
:1029330012247474021218478A088B098C0A8D0BAF
:1029430074107808121606AA08AB097F040219B995
:1029530074F112190D8A0C8B0D8C0E8D0F741112DC
:10296300187D121ACB741112187DE02401F508A307
:10297300E03400F509E4F50AF50B780C7908121533
:102983001790819778081216DD780C7908121517BD
:10299300AA0CAB0DAC0EAD0F1224747402121847BF
:1029A300EA4B60047A0180027A00EC2AFCE43DFDE4
:1029B300741312187DE0F8A3E0F9E8FEE9FFECF8E0
:1029C300EDF97A717B021217A688088909E4F50AE2
:1029D300F50B8E828F8378081216ECECF8EDF97AFA
:1029E300717B021217A68A088B09740578081218DE
:1029F3001E8E828F83A3A3A3A3E508F0A3E509F0AA
:102A03007F080219B9C082C083E9906000F0D083C7
:102A1300D08222C0E074F21219F9A2AFE433FED2DD
:102A2300AFE589A2E04006E589A2E1500312121D39
:102A3300758900758900C2C5751A00EEA2E092AFD0
:102A43007F01021A58C0E0C0D0E8C0E0A8A8D2AF06
:102A5300C2C7751A00E8A2E792AFD0E0F8D0D0D091
:082A6300E032C2AF02000022C4
:102A6C00FFFFFFFFFFFFFFFFC082C083E990160945
:102A7C00F0D083D08202013274F61218A1E99002D0
:102A8C00E8F0900348E0F508750900740278081224
:102A9C00181EAA08AB0912135B9002E9122F58609A
:102AAC006E900348E075F003A4FAABF012135B9040
:102ABC000306122F58700B9002E912379C12136107
:102ACC00804D9003061247057AFF7BFF1211937A13
:102ADC0000801EEAF5087509007402780812181EA9
:102AEC001241A174FFF0A3124719A3A3E4F0A3F0C1
:102AFC000A900348E0F8EAC39840D87905120863B5
:102B0C009002E8E0F912074F7AED7B08120AD9021D
:102B1C00423D74F41218A18A088B09EB548060476B
:102B2C009002E8E0F91212D18A0A8B0BAE0AAF0BB5
:102B3C00EA4F602A8A828B83E064B0701A1208759F
:102B4C00E960148E828F83A3A3A3A3E0F9EE24057E
:102B5C00FAE43FFB120845EEFAEFFB1212BFAA088B
:102B6C00E5096480FB80047A007B00022D8674F2F8
:102B7C001218A174FB121831EAFEEBFFEA4F604306
:102B8C00740312187D123405851882851983ECF0B4
:102B9C00A3EDF0740212187DE9F0AA18AB19120714
:102BAC0049E9F5087077741312187DE0F50AA3E073
:102BBC00F50BE50A450B60658E828F83123199EE19
:102BCC004F700575080280557A067B0012135B8ADC
:102BDC000C8B0DA80CA90DEA497005750813803DE6
:102BEC008A828B83E4F0122C30A3EEF0A3EF12490F
:102BFC00DEE50AF0A3E50BF09002EC122D4A9002F0
:102C0C00EC6017E0FCA3E08003EAFCEBFD8C828D0A
:102C1C0083122D4A70F38C828D83123DC1A90874E6
:102C2C0005024977A3F08A828B83A32274F21218CF
:102C3C00A18908E9F50C750D007403780C12181EA7
:102C4C00850C0A850D0B9002EBF09002E91246EA16
:102C5C00122D48602F1213617900801EE9F50C7556
:102C6C000D007402780C12181E9002E912405A885A
:102C7C0082F583A3A3E4F0A3F009900348E0F8E9FC
:102C8C00C39840D8900348E0FA850AF0A4CAA8F08B
:102C9C00850BF0A428FB12135B8A0C8B0DAE0CAFCA
:102CAC000DEA4F7003022D3E900348E0FC850AF0BC
:102CBC00A4CCA8F0850BF0A428FD79001212AD7CF1
:102CCC00008032EDF50C750D007403780C12181E93
:102CDC008A828B83122D438882F583E4F0122D5067
:102CEC00A3A3F0A3F00DEDC3950840D7EE250AFE83
:102CFC00EF350BFF0C900348E0F8ECC3985029EC2F
:102D0C00F50C750D007402780C12181E9002E91265
:102D1C002D43E82402500109FAE9FB8A82F583EE7F
:102D2C00F0A3EFF07D0080BEE5089002EBF0790097
:102D3C008002791302497A12405EF922A3A312345D
:102D4C001DEA4B22A3F088828983A3A3A3A3227438
:102D5C00F41218A17900EAA2E0501F750852750907
:102D6C00817808121AB479107C047D007A0B7B16DA
:102D7C0012085D7402121847E9F97F04021973C036
:102D8C0082C0839002EC124160601C88828983A30C
:102D9C00A3E06A7003A3E06B8882898370E8A3A325
:102DAC00A3A312379C80047A007B00022A7D74F264
:102DBC001218A174FD121831EAFEEBFF85188285FA
:102DCC001983E4F0A3F0740212187D7401F09002E0
:102DDC00EF1241607011120A1312135B9002EF1282
:102DEC002F587003022F4C1234F2EE2404F50AE42F
:102DFC003FF50B850A82F583E024FE603C24FC60E1
:102E0C007424FE607E24FE7003022E9C24FE70034C
:102E1C00022EA924FE7003022EB624FE7003022E8D
:102E2C00C324FE7003022ED024FC7003022EF12466
:102E3C00FE7003022F09022F45120A139002F1EAC9
:102E4C00F0A3EB122F61120497E96003022F459057
:102E5C0002F1121ACB8E828F83A3A3A3A3A31247D2
:102E6C000585088285098312379C12082D7402127D
:102E7C001847022F45AC18AD19EEFAEFFB12087B80
:102E8C00022F14AC18AD19EEFAEFFB120881807802
:102E9C00AC18AD19EEFAEFFB120887806BAC18ADCD
:102EAC0019EEFAEFFB12088D805EAC18AD19EEFA34
:102EBC00EFFB1208938051AC18AD19EEFAEFFB1230
:102ECC00089980447402121887880C890D780C12AA
:102EDC001AB47402121897EEFAEFFB12089F7402E0
:102EEC001218478023AC18AD19EEFAEFFB1208A5A7
:102EFC00E9F87016740212187DE4F0803CAC18AD41
:102F0C0019EEFAEFFB1208ABE9F8E8602C8E828F11
:102F1C0083A3E064146022850A82850B83E090020F
:102F2C00F1F085188285198312379C9002F21234C5
:102F3C0005E8A3122F61120491EEFAEFFB120803BD
:102F4C00740212187DE0F97403024977EAF0A3EBDE
:102F5C00F0F9EA4922F07CF17D028508828509832B
:102F6C0012341D2274E81218A174FA121831740468
:102F7C0012187DECF0A3EDF08A128B13EA2405F500
:102F8C000EE43513F50FEA2402F510E43513F511B0
:102F9C00851082123A437508007C037D0079007A13
:102FAC00F17B021212ADE50E2402F516E4350FF595
:102FBC00177402121887880C890D780C121AB485B4
:102FCC000E82850F83A3A3A3A3E0F50C750D0078E7
:102FDC000C121AB4E50E2405F50CE4350FF50D783A
:102FEC000C121AB4851682851783123A8B12184765
:102FFC008A0C8B0DE50C450D700302316880208521
:10300C001882851983E088828983F00508851882E7
:10301C00851983A3E0C0E01231A3D0E0F00508E5E8
:10302C000A24FBF8E50B34FFF9C3E50898E4994052
:10303C00030231687E007F00851282851383A3A36F
:10304C00A3A3E0F5097809121AB8E4F514F515787C
:10305C0014121AB47514EE7515027814121AB49071
:10306C0002EF121ACB740912187D121ACBE50A243E
:10307C00F9F9AC0CAD0D123A9D121847E960030238
:10308C00310F850E82850F83A3A3A3A3A3A3A3E073
:10309C00F89002EEE068706BE0F5148E157814125F
:1030AC001AB4124702850E82850F83A3A3A3A3A390
:1030BC00A3A3A312379C1212A77402121847E9603B
:1030CC004212415D7034E4F5147814121AB47CFF8A
:1030DC007DFF7907123AAC1218478B15A9151231DE
:1030EC00B87017850E82850F8312489174041218DC
:1030FC007D12414A123ABE023196850C82850D83AF
:10310C00123199A818A919881489157814121AB4AF
:10311C00740412187D121ACB851682851783123A05
:10312C006D1218478A0C8B0DEE4F70030230001293
:10313C0031A3EE1231AE123A54EF1231AEF8A3E0D5
:10314C003400F9E50C4B600302300B8882898374E0
:10315C00FFF005081231A374FFF00508E5086014B0
:10316C001313543F12340B1204A3E9600312407181
:10317C0079008016850E82850F8312489174041293
:10318C00187D12414A123DC1790A023A24A3A3A325
:10319C00A3E0FEA3E0FF22A8089002F2E028123A76
:1031AC005422F00508089002F2E028229002F2EA7C
:1031BC00F0A3EBF0EA492274E81218A174FA121881
:1031CC0031740212187D123405740412187DECF05F
:1031DC00A3EDF0740212187DE02405123A2EF5834B
:1031EC00E0F50CA3E0F50D740212187DE02402F555
:1031FC0010A3E03400F5118510821237A075080079
:10320C00750900EA24FCFEEB34FFFF8008050CE591
:10321C000C7002050DA808C3EE98EF940050030241
:10322C0033B6A818A919880E890F780E121AB4850E
:10323C001482851583A3A3A3A31246E1121AB4E545
:10324C00142405F50EE43515F50F780E121AB48515
:10325C001482851583A3A3124705AA0CAB0D120784
:10326C006774061218478A0E8B0FEA4B70030233F1
:10327C00B6EA2404F516E4350FF517851682F583A6
:10328C00E0F50CA3E0F50D851882851983121ACB95
:10329C00AC0EAD0F851082851183123A3A12184785
:1032AC00E9F50960030233B6740212187D123A6410
:1032BC00F5097809121AB8E4F512F5137812121AF6
:1032CC00B47512EE7513027812121AB49002EF1242
:1032DC001ACB740712187D121ACBEEF9AC0EAD0F87
:1032EC00123A9D121847E9F50960030233B6E50856
:1032FC00703BE4F50EF50F780E121AB47CFF7DFFCF
:10330C007909123AAC1218478B0FA90F9002F312DD
:10331C0031BB700D740412187D1233F8791102331D
:10332C00E79002EEE024029002F2F080149002F298
:10333C00E0FA9002EEE0790024025001096A49702B
:10334C006DA8089002EEE0FAE82AFAE43400FBEEED
:10335C009AEF9B4055851682851783E0C0E090025A
:10336C00F31231A8D0E0F00508851682851783A3E7
:10337C00E0C0E0089002F31231A8D0E0F00508900C
:10338C0002EE1246E1121AB4124702A8081233EAEE
:10339C001218479002EEE02508F50874FF650C70D2
:1033AC000474FF650D6003023219E508601C90027D
:1033BC00F2E0F5F0E5088412340B1204A9E960067A
:1033CC009002F312407479008011E50970037509BD
:1033DC000A740412187D1233F8A909023A249002D7
:1033EC00F3E028FAA3E034001246BF221246EEE5C1
:1033FC000CF0A3E50DF022A3A3EAF0A3EBF02290CE
:10340C0002F1F07CF17D0285108285118312341D4E
:10341C0022123DB1FB2274EC1218A174FC1218316B
:10342C00123ED17402121897850A82850B831235CD
:10343C00F170030234E21234F2A818A91988108929
:10344C00117810121AB47CFF7DFF790B85088285E8
:10345C000983123AB21218471234FC700B850A8297
:10346C00850B83123ABB807B8E828F83A3A3A3A38D
:10347C00E0F5127812121AB8E4F512F5137812125C
:10348C001AB47512F17513027812121AB47810125C
:10349C001AB4740912187D121ACB740912187D1201
:1034AC0035EA850882850983123AA3121847E9FE8A
:1034BC0070157CF17D0285088285098312379C1278
:1034CC0004AFE97009801A74166E70027E00124007
:1034DC0071EE7004800B7E01850A82850B83123D90
:1034EC00BEEEF9023DD3EE2402F508E43FF50922C5
:1034FC008A108B119002F2EAF0A3EBF0EA4B2274E3
:10350C00EC1218A174FC121831EAFEEBFF8C0E8D34
:10351C000FEA2405F508E43FF509740212189785A3
:10352C0008828509831235F170030235DAEE240224
:10353C00F50AE43FF50BA818A91988108911781021
:10354C00121AB47CFF7DFF790D850A82850B8312DC
:10355C003AB21218471234FC700B85088285098325
:10356C00123ABB80768E828F83A3A3A3A3E0F512BD
:10357C007812121AB8850882850983A3A3121ACB74
:10358C007512F17513027812121AB47810121AB45B
:10359C00740912187D121ACB740912187D1235EAAF
:1035AC00850A82850B83123AA3121847E9FE700F25
:1035BC007CF17D021237961204B5E97009801A74F9
:1035CC00166E70027E00124071EE7004800B7E014C
:1035DC00850882850983123DBEEEF9023DD3E0F9E0
:1035EC00AC0CAD0D22123DA98A0C8B0DEA4B22744A
:1035FC00E81218A174FE1218318A168B178C148DD0
:10360C0015EA2405F50CE43517F50DEA2402F50E40
:10361C00E43517F50F850E821237A08A088B0975D1
:10362C000B007C037D0079007AF17B021212AD75E0
:10363C000A00E50814F5100424FFF508E50934FF29
:10364C00F509804C9002F1E0FA9002EEE0F8EA28DD
:10365C00F8E43400F9E50898E50999500D9002F169
:10366C00E0F8E510C3989002EEF0E0F51275130047
:10367C007812121AB41247029002F2E02A1233EFB7
:10368C001218479002EEE0F89002F1E028F0050ADB
:10369C00850C82850D83A3A312406A400302377BFD
:1036AC009002F1E0C39508E49509400302377BAE24
:1036BC000AEE2EFEE433FF1237BDAC18AD191247DB
:1036CC000FE439FB12076D8A128B13AC12AD13EA9F
:1036DC004D701B750B011237AE123DC29002F212E7
:1036EC002D4A6003121319A90B7402023A2685168F
:1036FC0082851783A3A3A3A3E0F50B780B121AB84A
:10370C00E4F512F5137812121AB47512EE75130251
:10371C007812121AB49002EF121ACB740712187D99
:10372C00121ACBA910850E82850F83123AA3121898
:10373C0047E9F50B70A012415D6003023650E4F5C9
:10374C0012F5137812121AB47CFF7DFF790F850ED7
:10375C0082850F83123AB21218478B13A9131231B8
:10376C00B860030236501237AE123ABF0236F57CFF
:10377C00F17D02850E82850F8312379C1204BBE902
:10378C0060030236E879000236F5850A82850B83E0
:10379C0012341D221237A422F583123DB1FB1205FF
:1037AC0087221237BD123DB1F9EA85148285158343
:1037BC0022850C82850D83E02EF8A3E03F8882F5EC
:1037CC00832274E81218A174FA12183174041218B6
:1037DC007D1234058C168D17740412187DE02405A7
:1037EC00F50EA3E03400F50F740412187DE02402EA
:1037FC00123A2E123A437F007E00A818A9198808A5
:10380C0089097808121AB4850E82850F83A3A3A3A5
:10381C00A3E0F5088F097808121AB4E50E2405F513
:10382C0008E4350FF5097808121AB4850E82850F55
:10383C0083A3A3123A8B1218478A0C8B0D80241287
:10384C003A5EF00F123A5EF00F9002EE123D9412B7
:10385C001AB4124702EFF81233EA1218479002EE2C
:10386C00E02FFFE50C450D607A85188285198312CF
:10387C001ACBAC0CAD0D851482851583123A3A1215
:10388C001847E9FEE50C2404F510E4350DF511E9B3
:10389C00704B740412187D123A64F5087808121AE9
:1038AC00B8E4F508F5097808121AB47508EE75092C
:1038BC00027808121AB49002EF121ACB740712187D
:1038CC007D121ACBE50A24FAF9AC0CAD0D851482E5
:1038DC00851583123AA3121847E9FE6036123A7A1C
:1038EC00123DC1EF7003023A119002F2E0F5F0EFD5
:1038FC00849002F1F07CF17D02851482851583128F
:10390C00379C1204C1E960069002F31240747900EE
:10391C00023A24EFF508703DE4F512F51378121213
:10392C001AB47CFF7DFF7911851482851583123AB8
:10393C00B21218478B13A9139002F31231BB700902
:10394C00123A7A123ABE023A249002EEE024049023
:10395C0002F2F080359002EEE0F89002F2E0FCE822
:10396C002404FAE43400FBEA6C4B60030238F5E5FE
:10397C000A24FAFAE50B34FFFBE50828F8E43400D6
:10398C00F9EA98EB9950030238F58510828511837A
:10399C00E0C0E09002F3E02FF8A3E034008882F559
:1039AC0083D0E0F00F851082851183A3E0C0E01274
:1039BC003A4BD0E0F00F7402121887880889097806
:1039CC0008121AB4740212187D121ACB850E828555
:1039DC000F83A3A3123A6D1218478A0C8B0DEA4B76
:1039EC00700302384B740212187DE0C0E0123A4B9F
:1039FC00D0E0F00F740212187DA3E0C0E0123A4B35
:103A0C00D0E0023853EE70027E0A850E82850F8359
:103A1C00123A80123DC1EEF974061218477F10025B
:103A2C001973F514A3E03400F515851482221234B1
:103A3C001D1207557402221237A48A0A8B0B22120C
:103A4C003A4F229002F3E02FFAA3E034008A82F579
:103A5C008322123A4F74FF221246EEA3A3A3A3E0D3
:103A6C0022124709AA0CAB0D12077374042285109D
:103A7C0082851183124897F9851682851783221245
:103A8C004709850E82850F8312341D120767740651
:103A9C002285108285118312341D1208D5740922D7
:103AAC0085108285118312341D12083F7402221274
:103ABC003DC7E8F0A3E9F079112274EA1218A17459
:103ACC00FE1218318A088B098C128D13EA2405FE1C
:103ADC00E43509FF123D9D8A0C8B0DEE2406F50E84
:103AEC00E43FF50FEA4B7003023BACE5082402F50A
:103AFC000AE43509F50B8A828B83A3A3A3E0A2E524
:103B0C005022123BD68A108B11EA4B60247912ACEE
:103B1C000CAD0D12379685108285118312189FE912
:103B2C00F50C707F850E82850F83E06009795280D9
:103B3C0011750C0E806D850882850983A3A3A3A340
:103B4C00E0F9E4F508F5097808121AB48E828F832F
:103B5C00A3A3E0F5087808121AB48E828F83A3A36E
:103B6C00A3121ACB8E828F83124705850A82850B8E
:103B7C0083123EE3121847E9F50C7011850E82850D
:103B8C000F83E0702C1237961204C78024741669C8
:103B9C007011750C00741812187D1246EAE480102E
:103BAC00750C0112488D851282851383E8F0A3E908
:103BBC00F0850E82850F83E0600479008002A90CE9
:103BCC0074021218477F0E021973851882851983A7
:103BDC0012341D1208C92274EC1218A174F71218B1
:103BEC00318A0A8B0B8C108D11EA2405FEE4350BFF
:103BFC00FF750C00123D9D8A088B09EA4B7003027D
:103C0C003D7FE50A2402F50A5002050B8A828B835C
:103C1C00A3A3A3E0A2E55025123BD68A0C8B0DEA98
:103C2C004B604F7912AC08AD09123796850C828522
:103C3C000D8312189FE9F50C6003023D82850A8200
:103C4C00850B83E0F508A3E0F509AA08FB1208BD73
:103C5C00EA4B70197AFF7BFF1208BDEA4B70030226
:103C6C003D758A828B83E508F0A3E509F0750800A1
:103C7C008008750C0E023D8205089002EBE0F8E519
:103C8C0008C3984003023D75E508F50E750F0074E6
:103C9C0003780E12181E8A828B83A3A3E0250EF8DC
:103CAC00A3E0350F12415270CF8E828F83123DB636
:103CBC001234058E828F83A3A3123DB6123403EE09
:103CCC002404F508E43FF509850882F583E0888231
:103CDC008983A3A3A3A3F0A3E4F0EE2405F50EE4DB
:103CEC003FF50F850E82F583123DB6A3A3A3A31255
:103CFC0034037512077513007812121AB4EEFCEF28
:103D0C00FD740412188F1246C0121847E4F512788D
:103D1C0012121AB4850882850983E0FC7D0079179C
:103D2C00850A82850B83123AB2121847740712184F
:103D3C007D1235036038850882850983123D941203
:103D4C001AB4850E82850F831247051246C01218CD
:103D5C004774021218971237961204CDE960237437
:103D6C000712187D1240748019750C098008750CA7
:103D7C00118003750C0112488D85108285118312F8
:103D8C003DC1A90C74098041E0F50875090078085B
:103D9C0022AC18AD198E82F583123DA922123DB1C9
:103DAC00FB12076D22E0FAA3E02212341D888289EF
:103DBC008322123DC7E8F0A3E9F022E0F8A3E0F972
:103DCC00850E82850F832274041218477F0C02190A
:103DDC007374EC1218A1123ED1751000EA2402F58E
:103DEC000CE43FF50D850C82F58312379C1208BD4F
:103DFC008A088B09EA4B7003023EB5850A82850B53
:103E0C0083E064016003023EAAAC08AD09AA0AABC8
:103E1C000B1208B1E9606F85088285098312319B0A
:103E2C00EE2406F50AE43FF50B8E828F83A3A312D2
:103E3C001ACB8E828F83A3A3A3A3121ACB850A82DB
:103E4C00850B83121ACB79188E828F8312470585C6
:103E5C000C82850D83123EE3121847E9F87416683C
:103E6C00700B850A82850B83E4F0A38014E9601241
:103E7C008E828F8312379C850E82850F83EAF0A386
:103E8C00EBF089108018780E121AB4AC08AD09EE5C
:103E9C00FAEFFB1208B77402121847E9F510AA08DA
:103EAC00AB091208C3E510700E850C82850D8312C8
:103EBC00379C1204D38009741665107003751000BA
:103ECC00A910023DD8EAFEEBFF8C0E8D0FEA2405FB
:103EDC00F50AE43FF50B2212341D1208DB7406229E
:103EEC0074EA1218A17508007509007E007F007530
:103EFC000A00EC2402F510E43DF5118035EC650860
:103F0C007003ED65096003023FA188828983A3A336
:103F1C00E06A7003A3E06B707C88828983A3A3A3FF
:103F2C00A3124891EE28FEEF39FFEA28FAEB39FB91
:103F3C00050A124067503BE50AF50C750D00740339
:103F4C00780C12181E85108285118312405A12416A
:103F5C0052601FE508450970A48C088D0988828978
:103F6C008312319988828983A3A3E02EFAA3E03FC0
:103F7C0080BDE50AC39402500302405575080075D4
:103F8C000900EE4F600FEEFAEFFB1213138A0E8B43
:103F9C000FEA4B70057900024057750B00807FE5E6
:103FAC000BF50C750D007403780C12181E8510821D
:103FBC00851183E0250CF50CA3E0350DF50DE50C12
:103FCC002406F514E4350DF515851482124155605F
:103FDC003AE50C2404F512E4350DF513851282F53F
:103FEC0083121ACBE50E2508FAE50F1246B9121802
:103FFC0047851282851383E02508F508A3E035096F
:10400C00F509851482851583124074E50B600D7CCF
:10401C00087D007900AA0CAB0D1212AD050BE50B57
:10402C00C3950A5003023FAB851082851183124859
:10403C00918882F583A3A3A3A3A3A3E50EF0A3E524
:10404C000F122D51EEF0A3EFF07901023BD112408B
:10405C005E22E0250CF8A3E0350D229002EBE0F88F
:10406C00E50AC398229002F212341D12131922741D
:10407C00F01218A18A0E8B0F8C0A8D0B750D007522
:10408C000C00804A7916EE2406F508E43FF5098EFB
:10409C00828F83A3A3121ACB8E828F83A3A3A3A395
:1040AC00121ACB850882850983121ACB850E82855C
:1040BC000F83A3A3123EE3121847E9F50D7416699A
:1040CC007064850882850983E4F0A3F0050C9002E6
:1040DC00EBE0F8E50CC398505EAA0C7B008A088BC9
:1040EC00097403780812181E850A82850B83A3A312
:1040FC001241ACE8FEE9FF124153603BEA24010A8D
:10410C0050010B9002EBE06A7001EB60148882891D
:10411C0083A3A3A3A3A3A3A3A312416060030240A0
:10412C00907918024092E960A312488D741012180D
:10413C007D12414A123DC1A90D7F08021973123D2F
:10414C00B1F5838A8222F98882F583124709EC4DF6
:10415C00229002F2124897F9E8492274F61218A13B
:10416C007C0080010C900348E0F8ECC398501FECE5
:10417C00F5087509007402780812181E1241A1E0A6
:10418C006A7003A3E06B70DCE8FAE9FB80047A0048
:10419C007B0002423D9002E91241AC8882F58322F9
:1041AC00E02508F8A3E03509F92274F21218A18A67
:1041BC00088B09750A0080278E828F83A3A3A3A383
:1041CC00122D4860031213197C087D007900EEFA59
:1041DC00EFFB1212AD8E828F83E4F0A3F0050A126E
:1041EC0040675028E50AF50C750D007403780C1225
:1041FC00181E850882850983A3A3E0250CFEA3E085
:10420C00350DFF8E82F58312416070AC8508828576
:10421C00098374FFF0A3F002497A74F61218A11204
:10422C00482E70067A007B008007A3A3A3A3123745
:10423C009C7F0202197374F61218A1E9FE8C828D10
:10424C0083E06402703D12481EF508A3E0F9A8084B
:10425C007402687003742969702975080275090065
:10426C007808121AB4740E12187D121ACB740E122E
:10427C00187D121ACBEEF91211A57406121847E923
:10428C00F98002790180AA74E81218A174FB121843
:10429C0031E9851882851983F08A168B17ECFEEDAF
:1042AC00FF7510008C82F583A3A3A3E0A2E4502A2F
:1042BC00741D12187D123BDC8A828B83E582458348
:1042CC0070030246AF790AEEFCEFFDAA16AB17128B
:1042DC00189FE9F51060030246B2741F12187DE0B6
:1042EC00F508A3E0F509742112187DE0F50AA3E0A6
:1042FC00F50B742312187DE0F50EA3E0F50F8E82FA
:10430C008F83E06402600302465BA3124891850828
:10431C0082850983A3858212858313EE2406F50C0E
:10432C00E43FF50D8882898312470FF514E439F5C3
:10433C00157814121B3E0100002801286A4307005F
:10434C000228364403289F430029574501298245FA
:10435C0002292045032957450429F8455B46E50EFB
:10436C00450F6003024656850C82850D83124891D9
:10437C00E8FAE98882F583E0850A82850B83124787
:10438C00191246C6121AB48A828983A3E0FCA3E0F0
:10439C000245E4E50E450F6003024656850A828508
:1043AC000B837401F01246F7850882850983F07C33
:1043BC00007D008E828F83A3A3A3A3E02401FAA324
:1043CC00E03400FB12076DEA4B60458A828B83E078
:1043DC002402F8850A82850B83E028F0EA2404F88D
:1043EC00E43BF98882F583E08512828513831247BA
:1043FC001FF08A828B831246C6121AB48A828B8370
:10440C00A3124705E5082403FAE43509FB0245E944
:10441C00850A82850B83E02404F07C047D007900FE
:10442C00AA12AB131212AD0246B2E50E450F600391
:10443C000246561246F7FEA3E0FF850A82850B83DF
:10444C007404F0EE850882850983F0EF851282856D
:10445C001383F0740312189712481070030245016D
:10446C008A828B83A3A31231997401121887880E48
:10447C00890F780E121AB4740512187D121ACB7C9F
:10448C00FF7DFF1207737404121847EA4B703385D3
:10449C000C82850D831246E1121AB4850C82850DAF
:1044AC0083A3121ACB7C027D007A207B82120575C5
:1044BC007404121847E9700A740112187D74FFF025
:1044CC00A3F08E828F83E064027034750C02750D3C
:1044DC0000780C121AB48E828F83A3124705E5085C
:1044EC002404FAE41246B9121847850A82850B8314
:1044FC00E024028009740112187DEEF0A3EFF07431
:10450C000112187D1246D7F0740112187DA31246C1
:10451C00CF024650E50E450F6003024656850C82CD
:10452C00850D831246EA124705AA16AB171211AB7A
:10453C00850A82850B837402F0850882850983EADB
:10454C00F0851282851383EB024653E50E450F600E
:10455C00030246561246F7F8A3E0F9850A82850B4A
:10456C00837402F0E8850882850983F0E98512825C
:10457C00851383024653850C82850D8312379C125A
:10458C00128FEAF8C3950EE4950F405AEA650E4572
:10459C000F700478008021851882851983E0FCE572
:1045AC000E2CFCE4350FFDC3EC9AED94005003E0A7
:1045BC008005E50EC8C398F8E8850A82850B83F060
:1045CC00F50A750B00780A121AB4850C82850D83D6
:1045DC00E0250EFCA3E0350FFDAA08AB091246C07E
:1045EC001218470246B27510070246B2E50E450F87
:1045FC007058850C82850D83124891850A82850B33
:10460C008374071247191246CF124719A3E085127B
:10461C0082851383F0E82402FAE439FB8A82F5835D
:10462C001246CFA3122C301246D7122D501246DB55
:10463C00F0E82405F8500109F58289831246DBA3C2
:10464C0012471FA3A3A3A3F0805C75100B805774B3
:10465C001D12187D124827604A124897880CF50DD8
:10466C00E8450D603E742512187DE0F510781012A7
:10467C001AB8780E121AB4780A121AB47808121AE8
:10468C00B4740712187DE0F9EEFCEFFDAA16AB1717
:10469C00850C82850D8312189F7407121847E9F553
:1046AC0010800375100EA9107405023A26350912F4
:1046BC0046BF22FB121295740222E0F50A750B001C
:1046CC00780A22E085088285098322124729221262
:1046DC004729A3A322E0F50E750F00780E2212468F
:1046EC00EE22E0F8A3E0F583888222850C82850D0A
:1046FC00831246EEE0229002EF12470922E0FCA35F
:10470C00E0FD22123DB1F8E4C8F9EA2822F08882D3
:10471C00898322F088828983A312472922E08508A5
:10472C0082850983A3A32274EE1218A174FE1218B9
:10473C00318A088B09ECFEEDFF890AAC18AD191211
:10474C004810700302480185188285198312482786
:10475C0070030247FCA3124896880EF50FE8450F2C
:10476C0070030247FC741412187DE0F510A3E0F5F9
:10477C0011E50AF50B780B121AB8741912187D1280
:10478C001ACB7810121AB4741B12187D1235EAAABF
:10479C0008AB09850E82850F8312189F74051218B9
:1047AC0047E9F50B705274FE650A604C850C8285E6
:1047BC000D83E06402704112481EFAA3E0F9EAF896
:1047CC007402687003742969702E851082851183B8
:1047DC0012470FF50CE439F50D780C121AB4EEFCF7
:1047EC00EFFDAA08AB091208F374021218478008EF
:1047FC00750B0E8003750B01A90B74021218477F01
:10480C000A021973EEFAEFFB12076D8A0C8B0DEA94
:10481C004B221248968882F583E02212341D1248EE
:10482C002E2212086F8A828B83E58245832274F6CE
:10483C001218A174FE121831740C12187D124891C2
:10484C00E8851882851983F0740112187DE9F0E46B
:10485C00F508F5097808121AB47508027808121AC6
:10486C00B47404121887880889097808121AB47964
:10487C00FE1208DB74061218477402121847024223
:10488C003D8E828F83124897F922A3E0F8A3E02291
:10489C0074F71218A1EAFEEBFF8908900306124781
:1048AC00051211ABEA5402600BA908EEFAEFFB12E9
:1048BC000761800279017F0102197374F21218A149
:1048CC0074FE121831EAFEEBFF7401696013740276
:1048DC006960030249757901120AF7E9600302491C
:1048EC0075EEFAEFFB1208BDEA4B60031208C3A881
:1048FC0018A919880889097808121AB4750802755C
:10490C0009007808121AB47508187509827808120B
:10491C001AB47CFF7DFF7A017B00120767740612C4
:10492C001847803B850882850983A3A3A3A3A3A36F
:10493C001246EA124705EEFAEFFB121193E4F50C5E
:10494C00F50D780C121AB4740212187D121ACB7C65
:10495C00FF7DFFAA08AB0912077374041218478A6B
:10496C00088B09E508450970BB74021218477F06CD
:10497C0002197374F41218A18A088B09ECFEEDFF6E
:10498C00901609E0F460487A097B001212B9EA4BE0
:10499C00603D8A828B8374B1F0A3E41249DE122C41
:1049AC0031A3E508F0A3E5091249DEA3EEF0A3EF6D
:1049BC00F0740C12187D1248918A828B83A3A3A3E6
:1049CC00A3A3A3A3123DC1901609E0F91212C502CC
:1049DC002D86F08A828B83A3A3A3A322C082C083DB
:1049EC009061907404F0A37448F0A37402F0906189
:1049FC00807440F09061BC7403F09061877419F07E
:104A0C00906265741BF0906249E0C3941390619CB2
:104A1C0040107409F09060667401F090619F7428E6
:104A2C00800D740BF0906066E4F090619F742CF034
:104A3C00124BCD7009C29190037A74678005900374
:104A4C007A7461F0902A72E493906186F0902A6CEB
:104A5C00E493F46006E493F9120BED7905120EC39E
:104A6C00024E36C082C083E9540FF9906185E0692B
:104A7C006012E5C654B84441F5C6E59E54476441FE
:104A8C0070F8E9F053C6B8E59E544770FA024E36FA
:104A9C00C082C083A8A853A87E906181E41258AB51
:104AAC00C2BA539AFEC289759B00C2C275E90075E1
:104ABC00910075BF0075A91175B905906181F0A3BE
:104ACC0074C012602FD2BA439A0174805842A80263
:104ADC004E36C082C08374F812183190037812627B
:104AEC00C47003024BAE900378E054406017790811
:104AFC00AA18AB19120CE9AA18AB1912095F90038A
:104B0C0078E054BFF0E054806010790C7A477B0554
:104B1C00120CE9900378E0547FF0E0A2E0501912F7
:104B2C004BCD7009C29190037A7467800590037A1B
:104B3C007461124BB654FEF0E054026019124C1220
:104B4C007009D29190037A7471800590037A746A1B
:104B5C00124BB654FDF0E054046009902A70124BCD
:104B6C00BF54FBF0E054086009902A71124BBF54FB
:104B7C00F7F0E054106009902A72124BBF54EFF01A
:104B8C00E05420600A12096B900378E054DFF0A324
:104B9C00E05401600D120C0B120971900379E05472
:104BAC00FEF07408121847024E36F0120965900395
:104BBC0078E022E493906186F012096B900378E020
:104BCC002290619A124E0A900521E0640122C08263
:104BDC00C083E960051460178029124BCD7009C29F
:104BEC009190037A7467801A90037A74618013121F
:104BFC004C127009D29190037A7471800590037AEB
:104C0C00746AF0024E3690619A124DFC900521E0C8
:104C1C0064012274EA1218A174F41218319081EF15
:104C2C00AC18AD197404121744902A7093F46003F5
:104C3C00024D91907808E0C394025003024D759098
:104C4C00813874041218977408121744A818A919FB
:104C5C0088148915740412188788088909AE08AF5E
:104C6C00097510FF7511FF750EFF7C00750C4875EA
:104C7C000D78801274086C7003024D0A74096C6014
:104C8C007D740A6C6078850C82850D837808121609
:104C9C00DD8E828F83A909E50AC9F512741878088C
:104CAC00121606E5124508F8C3E098A3E099850CA6
:104CBC0082850D8378081216DD40188E828F8374DE
:104CCC00187808121606E5124508F8E0C398F8A300
:104CDC00E0801A74187808121606E5124508FAE9ED
:104CEC00FB8E828F83125F43EAC398F8EB99F9C36A
:104CFC00E89510E995115006881089118C0E0CE579
:104D0C000C2404F50C5002050DECC3941350030253
:104D1C004C8074FF6510700474FF65116025E50EFE
:104D2C00F5087402780812181E74482508F5827468
:104D3C00783509F58378081216DD8514828515837C
:104D4C00E508F0EE2402FE50010F851482851583D0
:104D5C00A3858214858315740C12187DE5826E7000
:104D6C0003E5836F6003024C6D75080175090078CB
:104D7C0008121AB474021218977A9C7B0A1211F951
:104D8C007402121847740C1218477F0E021973C064
:104D9C0082C0839061AE7468F0A3746AF09062452F
:104DAC0074FBF0A304F053F4FD43FE029005217450
:104DBC0001F09061A0E0643A90619A7019124E0A69
:104DCC00740164017009C29190037A7467801E901B
:104DDC00037A74618017124DFC740164017009D25E
:104DEC009190037A7471800590037A746A0250254D
:104DFC00743FF0A3745AF09061A0747FF022743366
:104E0C00F0A37455F09061A0743AF022C082C08374
:104E1C009004D3E06401700A9004D8E06004790C2B
:104E2C00800279008004A2E092AFD083D08202018C
:104E3C0032C082C08375E1F19004D6E060531460F7
:104E4C000914605714604F147056120C1D9004C551
:104E5C00E0F97AC67B04120E459081EB1216FB1218
:104E6C000E7B90818F1216FB120E519004D7E0F935
:104E7C00120E5D7901120EB79004C3125193241ACD
:104E8C00F582E438F5837435F0A3740CF079008066
:104E9C0099120C2380B7120C2980B2120C2F80AD02
:104EAC00791280EB74F41218A175D90D9004CCE032
:104EBC00A2E0E4331313F8125080484401F5D9757D
:104ECC0082C675830412508A7004E583640470F5FD
:104EDC007582CD7583041251ECE58264D37004E5C0
:104EEC0083640470F175E1959004CCE0F97ACD7B84
:104EFC0004120E4B90162D74C3F0A3740B124FD4E6
:104F0C0012501212500912515B9004D6E0640190B9
:104F1C0004C3700B124F651216DD9081D3800912F9
:104F2C004F651216DD90819F78081216519081936F
:104F3C0078081216B79004C3125E3FE438F58378F4
:104F4C00081216EC9004C31251931250007413F013
:104F5C009003767402F0025F3012624CA3A37808BF
:104F6C0022C082C083125070F5D97582C675830435
:104F7C0012508A7004E583640470F59004DCE060E0
:104F8C000A78C37904FA125124DAFB125113125025
:104F9C008A7004E583640470F59004FCE0600D787D
:104FAC00C37904FAE8243A125127DAF875E195909E
:104FBC00162D74CFF0A3740B124FD4124FDE741253
:104FCC00F09003767401805112514474C9F0A374AB
:104FDC000B2212501212500912515F9004C3125E30
:104FEC0043E438F58374FF1258999004C312519717
:104FFC00125000222414F582E438F58322F0A374B5
:10500C00E1F0A3740B221250162212501A22F0A3B4
:10501C007449F0A3740D22F0A3F0024E36C082C086
:10502C00831250704402F5D97582C67583041250F0
:10503C008A7004E583640470F59004DCE0600A78FF
:10504C00C37904FA125124DAFB75E19590162D12EE
:10505C005093F0A3125093124FE17414F090037616
:10506C00740480B59004DC12507722E02407F5D943
:10507C00125080229004C5E0C4333354C022E0F5B2
:10508C00D9A3E58264CC2274DB1250A01250A0F09C
:10509C00A3740B22F0A3740BF0A374DB22C082C0A8
:1050AC00831250704406F5D97582C675830412506C
:1050BC008A7004E583640470F59004DCE0600A787F
:1050CC00C37904FA125124DAFB12511312508A706C
:1050DC0004E583640470F59004FCE0600D78C379FA
:1050EC0004FAE8243A125127DAF875E19590162D56
:1050FC0074D5F0A3740B12513A124FDE7415F09064
:10510C00037674030250259004FC1250774404F586
:10511C00D97582C675830422E8241AF582E439F520
:10512C0083E0F5D988828983A3A882A983221251AE
:10513C00447449F0A3740D22125148221251557433
:10514C0049F0A3740D1251552212501AF0A32212D9
:10515C00515F22F090163B7449F0A3740D12514824
:10516C007449F0A3740D125016F022C082C08390C3
:10517C0004C31251932406F582E438F583E40250FB
:10518C002385188285198312519722E0F8A3E0C871
:10519C002274F71218A19003A4125F3574A628F894
:1051AC00740339F9E82405FAE439FB8A8212601594
:1051BC00A3A3A3A3A3A3A3A3A31262ABA3A3A3A37D
:1051CC00A3A3A3E024FFF8A3E034FFF98A828B8326
:1051DC0012627D0253D17C017903120D3D740222BF
:1051EC00E0F5D9A32212550C3BF583E022F0EA241A
:1051FC0084F582E43BF583E022EAF8EE28F8E43B00
:10520C00F9E82274F71218A1EAFEEBFF9061D0E0E6
:10521C00706875D90E75D90375D9047A00125205C8
:10522C00248D1252A040F67A001252052485125297
:10523C009A40F675E1957908EE248D1252932485E7
:10524C0012528B7C00ECF8C3E498FA95E0FBEE2A42
:10525C00FAEF3BFBEA248C126221C0E0EE28F8E462
:10526C003FF9E824ACF582E439F583D0E0F00CEC9E
:10527C00C3940840D0125393800279000253D1FAA0
:10528C00E43FFB120CDD2212528B7904EE221252F7
:10529C00A69404221252A6940822F582E439F583CE
:1052AC00E0F5D90AEAC322C082C08375D90275D948
:1052BC000375D90575E195EA12532B3B125F41EA50
:1052CC002471F582E43B1253A0024E3674F6121888
:1052DC00A1EAFEEBFF900527740612533A121AB49A
:1052EC001251E212184775D90675D90375822775C4
:1052FC0083051253317004E583640570F575E195EF
:10530C00900376E06408701112532A3F125F41EE4D
:10531C002471F582E43F12627B790102547FEE2402
:10532C006FF582E422E0F5D9A3E582642C22F075B6
:10533C00082775090578082274F61218A1EAFEEB05
:10534C00FF9061D0E070337801900527740BF090DA
:10535C000376E06407701375082775090578081241
:10536C001AB41251E212184778051255F71251EC83
:10537C00DAFB75E1951253938002790002547F7524
:10538C00E1957904120E81EE246F1262CAEE24713B
:10539C00F582E43FF583E8F0A3E9F079012274F794
:1053AC001218A1EAFEEBFF75D90375D90375D90D57
:1053BC00EA24DF12610EF5D912538B8008F0EEA2AD
:1053CC00E092AF79007F01021973E8C39A95E0C3AC
:1053DC0065D0332274F61218A112550060047A0FAE
:1053EC0080027A0B1253D640437C09900527EC12AD
:1053FC005451125460DDFB12610B6019750827754E
:10540C0009057808121AB47903EEFAEFFB1251E68B
:10541C001218477C0D12543C1254F770FB75E19531
:10542C007904120E81125580790180027900804333
:10543C001254428C082274012CF5D975D90375824B
:10544C002775830522F0EE24E4F8E43FF97A287BF3
:10545C00057D082288828983E08A828B831262B35D
:10546C00A3A882A9838A828B83A3AA82AB8322A25C
:10547C00E092AF7F0202197374F61218A112550054
:10548C0060047A0C80027A081253D6405A7806903F
:10549C000527740CF0900393E0900528F09003948A
:1054AC00E0900529F0900395E090052AF090039682
:1054BC00E090052BF0900397E090052C125594602A
:1054CC00197508277509057808121AB47C06790332
:1054DC00EEFA1251E6121847780A12558E1254F74A
:1054EC0070FB12538B800279008088E0F5D9A315EC
:1054FC0008E50822EAFEEBFF12550C3FF583E0228B
:10550C009061D0E0F87480C398F8EA2484F582E4C2
:10551C002274F61218A112550060047A0880027ADF
:10552C00041253D640497802900527E8F0EE24F691
:10553C0012610E900528125594601975082775098B
:10554C00057808121AB47C027903EEFA1251E612AD
:10555C001847780612558E1254F770FB75E19512A8
:10556C0055807904120E81EE240D12539680027927
:10557C000002547FEE241DF582E43FF583E4F0A392
:10558C00F0221255FD880822F0EE2484F582E43FC7
:10559C00F583E02274F61218A11251F160047C0814
:1055AC0080027C04E8C39C1253D9403A78029005DF
:1055BC00277407F0EA24F71262219005281251F99A
:1055CC0060157508277509057808121AB47C021243
:1055DC0051E412184778061255F71251ECDAFB75A4
:1055EC00E19579018002790002547F1255FDE8FAA9
:1055FC0022740128F5D975D9037582277583052284
:10560C0074F61218A1E9FEA2AFE433FDC2AF7C0020
:10561C0080010C12621EF8ECC3985014ECF8EA12DC
:10562C005208246AF582E439F583E06E70E4801840
:10563C00EA246EF8E43BF9E0F508EA2508FAE43BC5
:10564C00FB1256E5EE12579CED02547B74F61218C1
:10565C00A1EAFCEBFDA2AFE433F508C2AFEA246E7D
:10566C00F582E43DF583E014F0EA246AFAE43DFBAC
:10567C00EA2403F8E43BF9E8FEE9FF8A828B83A372
:10568C00A882A983E08A828B83F0E8FAE9FBEE6AB0
:10569C007002EF6B70E5EC246DF582E43DF58374DC
:1056AC00FFF0EC2469F582E43DF583E4F0E50802B3
:1056BC00547BC082C083A2AFE433F8C2AF1256E56C
:1056CC00E9F0EA2469F582E43BF583E4F012621E0A
:1056DC0070037401F0E8024E32EA246AF582E43B6E
:1056EC00F5832274F31218A1EAFEEBFFECFAEDFB42
:1056FC008C82F583A3A3A3A3E0541FF0EE2436F50C
:10570C0082E43FF583E4F0750800EE245DFCE43F91
:10571C00FD8A828B83E08C828D83F0750900E5080D
:10572C0033333354F8F50C8A828B83E0F50A750B0E
:10573C0000E509780A1217FFE50AA2E05027EE24CB
:10574C0036F8E43FF98882F583E0F50AEE250AF590
:10575C000AE43FF50BE50A2438F582E4350BF583B2
:10576C00E50C12579C0509050CE509C3940840B7D4
:10577C0005088A828B83A3AA82AB838C828D83A338
:10578C00AC82AD83E508C3940540867F050219738E
:10579C001262B3E004F022C082C0839003A2E064E2
:1057AC000170030258917C009003A8E0600302583A
:1057BC009112602DA3F090040804F090040DF09069
:1057CC0003AB1258989003B504F09003DBE4F0900F
:1057DC0003BE12589FA3F0900426F090041AF09088
:1057EC000429F090040E748012602F900414F09031
:1057FC0004921258B190049BF090042AF090047A11
:10580C001258B1A3F0A3F0900486F0900488F090A5
:10581C000484F090049E1258B19004B1F09004AB43
:10582C0012589F74FF9004107804F0A3D8FC7A03EC
:10583C007B0478B67904125460E864BB7003E964A5
:10584C000470F3788A790388828983E0C0E0ECFAEB
:10585C00748A2AF582E43404F583D0E0F00C888253
:10586C008983A3A882A983ECC3940840DA9003A28D
:10587C00E004F0640170089003AAE09003A4F07AAD
:10588C00A67B0380047A007B00024E36E41258ABF0
:10589C00A3F0221258A3221258ABA31258AB22F039
:1058AC00A3F0A3F0221258A3A3F0A3F022C082C04D
:1058BC00838A828B83A3A3A3E0600F8A828B83A34A
:1058CC00A3A3E4F09003A3E014F09003A2E014F07F
:1058DC0070069003A474FFF08A828B83A3A3E4F078
:1058EC009004BBE0700D9003A3E064017005790097
:1058FC00120E63024E36C082C0839003A9E4F0906E
:10590C0003A8F09003A2F0A3F0A374FFF075E1F1EB
:10591C00024E3674E81218A174F4121831851882EC
:10592C00851983EAF0A3EB125EC1125E6B121707A6
:10593C00740212187D12171388828983A3A3A3A360
:10594C00A3A3125F43740612187D12627D74241295
:10595C00187D121AC7740612187D1216FB1227B77F
:10596C007404121847E96003025DCC125E95121A9A
:10597C00C7742812187D1216FB12281374041218FF
:10598C00478A088B098C0A8D0B125EAA7003025C85
:10599C006E12518D2475F582E438F583C082C08374
:1059AC00851882851983125E5FA3125F43D083D062
:1059BC0082E0C398F50CA3E099F50D125EAA64027F
:1059CC008518828519837008125E3FE834018003C4
:1059DC00125E55F583E0F510A3E0F511850C1485E6
:1059EC000D15751600751700E4F512F5137814797A
:1059FC0010121517740812187D78141216EC125E1A
:105A0C009578101216DD740812187D781012165144
:105A1C007810121AB0742812187D1216FB1227B7C0
:105A2C007404121847E97003025C6E85188285199C
:105A3C0083E0125E35F583E0F510A3E0F511E4F593
:105A4C0012F513740812187D780812168B780879E1
:105A5C001012163E9081AF780812165185101485DD
:105A6C001115851216851317780879141215978558
:105A7C000814850915850A16850B177814791012E8
:105A8C001517E50C2508FEE50D3509FF1262597452
:105A9C000812187DC082C08312518D2478F582E4DF
:105AAC0038F583125E4DE4F50AF50BD083D082787D
:105ABC00081216517808791412163E125EAA640167
:105ACC006003025CC1851882851983E02477FCA3EE
:105ADC00E03400FD851882851983E0FAA3E0FB12FF
:105AEC000CBF12518D125E7C2420125EED241CF52D
:105AFC0082E438F583E4125EF7241DF582E438F570
:105B0C0083E4F0A3125EF72407125E7E125E2CE093
:105B1C0028F8A3E039125E88240B125EED247A1269
:105B2C005E7E242EF582E43AF583E0687003A3E0F0
