:020000040000FA
:0600000002011A0226C2F3
:03002B00022EBAE8
:0300530002273849
:03006B00022E2042
:03007B00022DB2A1
:1000830002251FE5C754F84401F5C7790122000092
:100093000080FB120086B90003020104E479217891
:1000A30008B800028004F709D8FCE479297802B87B
:1000B30000028004F709D8FCE49003C178AA7911FF
:1000C3008002F0A3D8FCD9FA781A90014A7A01BACF
:1000D30000028007E493A3F608DAF97A6A7B1490A6
:1000E300014B78C379058015E493A3AD82AE838A6F
:1000F300828B83F0A3AA82AB838D828E83D8E9D9C6
:10010300E775826A758385740412012C7582917573
:100113008300740012012C75D00075813F7518C1DE
:10012300751903759F00020096C09FF59FE473D075
:100133009F22D083D082C09FE493C0E0740193C018
:10014300E0740293F59F22011F0000000F000000DE
:1001530040000000AFFFFFFFA30000000400000009
:10016300000100000300000080000000A600000062
:1001730034100000050000000C0000001600000011
:100183000800000000000000360000000D01000020
:100193000A000000EC000000910C0000E0E6FFFF05
:1001A30071F3FFFF20190000BD02000056FFFFFF9F
:1001B30000020000260400003AFEFFFFA90500002C
:1001C300480600008F0C000047060000900C00005A
:1001D300B7F9FFFF020000003F00000068000000C5
:1001E3001000000029000000001000001101990117
:1001F3000F12640400AD270111310401024E830183
:1002030000003B8302548301000013150292830113
:100213000000141502568303000099040268830149
:1002230000001C150258830100001515FF0000B4DF
:10023300000028002800283075A000A000A000A01E
:100243000000080008E001F000100010001000108A
:10025300001000100050005000500010001000D09B
:10026300070000000000000F0001000500307507C3
:10027300001000010081FF00000000FFFFFFBF0826
:10028300DD08C5080109FF02020208025000A000B0
:100293000000E803024E83010000478302548301F8
:1002A3000000A915025A83010000D90402548301F6
:1002B3000000AA15025C83010000EF0402548301CD
:1002C3000000AB15025E83010000F10402548301B8
:1002D3000000AC15026083080000F204025483019D
:1002E3000000AD15026283010000AE15FF0100FF9F
:1002F30020024E8301000044830254830100001254
:1003030016026483000000000002568303000020ED
:100313000517006D0F6D0F6D0F6D0F6D0F6D0F6D69
:100323000F6D0F6D0F6D0F6D0F6D0F6D0F2B123D59
:10033300122512020202020202020202010D000051
:10034300001001024E830100004183025483010027
:10035300005516028E8301000060090254830100D8
:10036300005616028C830100006B82025483010045
:10037300005716028A830100004182025483010060
:10038300005816027683010000ED810254830100B8
:10039300005916027283010000DB810254830100BD
:1003A300005A16027083010000FF8102548301008A
:1003B300005B16026E83010000C9810254830100B1
:1003C300005C16026A830100004F8202548301001D
:1003D300005D160250830100005E1601E8030577F5
:1003E300100A0A75131B001C001D001E101F00209D
:1003F3000021041B801B001D021E301FE020002172
:100403000429195A081B821B00140F180615041619
:10041300190F0F0000000000000890019001000276
:1004230020280101400006010E0948494420416487
:100433007652656D6F74650201050319C0030502E9
:1004430012180F184849442041647652656D6F7441
:10045300650000C00360EA0000013D15431549151E
:10046300FFFF0191150000E60202192A040601129A
:1004730001011202011203010E0002120E120A0000
:1004830003024E8301000038830252830100007D82
:100493000B0254830100008A170280834000000C82
:1004A300830254830100008E170284838000007F3F
:1004B3000B0254830100008F17028883C000009051
:1004C300170254830100008B17028283400000004F
:1004D300800266830100008C17025483010000919F
:1004E30017028683400000800B025683810000813F
:1004F3000B026883010000921702548301000094E9
:1005030017028683400000830B0256838100008418
:100513000B026883010000951702548301000097C2
:1005230017028683400000860B02568381000087F2
:100533000B02688301000098170254830100009A9C
:1005430017028683C00000890B0268830100009BA9
:10055300170254830100009D17027A834000008A2A
:100563000B0256838100008B0B0254830100009E13
:1005730017027E83C000008D0B0254830100009F8D
:1005830017027C834000008E0B0256838100008F8C
:100593000B025483010000A017028683C000009160
:1005A3000B026883010000A117FFFFFF00013075F4
:1005B300030201060000000000000000000000002C
:1005C3000000000000000000000000000000000028
:1005D300FFFF0600800CE8030410024E83010000B5
:1005E3003E83025483010000FA18029883800000BE
:1005F3006314025483010000FB18029A8300000075
:10060300671402568381000068141201352BE3013D
:1006130012013576E401120135C2E501120135B844
:10062300E60112013514E8011201357CE8011201DB
:1006330035CDE90112013524ED011201353FC20226
:10064300120135E5C20212013586C302120135C11A
:10065300C302120135A1C40212013540C5021201C1
:1006630035D8C70212013541BC0312013596BC03CC
:10067300120135A9BC03120135DBBC031201355E3F
:10068300BD031201357FBD03120135CDBD03120138
:10069300358BBE0312013518BF03120135E0BF03CA
:1006A300120135B3DC03120135C6DC03120135F543
:1006B300DC031201352DDD0312013576DD03120152
:1006C30035B9DD03120135FFDD0312013532DE03D7
:1006D30012013559DE0312013588DE03120135BFDD
:1006E300DE03120135D8DE0312013527DF031201C1
:1006F3003540DF0312013588DF03120135BCDF0308
:10070300120135008003120135FE800312013564A6
:100713008103120135878103120135898103120197
:1007230035C78103120135388203120135F882037C
:100733001201351A8303120135B68303120135ED15
:1007430083031201353284031201353F84031201FE
:1007530035AF8403120135F98403120135FC840398
:100763001201354285031201354585031201354FC8
:100773008503120135C28503120135EA850312018F
:10078300351D86031201354186031201353E870369
:10079300120135E287031201354E88031201358AAF
:1007A3008803120135BBCD03120135E3CD031201DA
:1007B3003510CE0312013548CE03120135AECE03F8
:1007C300120135F8CE031201355CCF03120135A4B3
:1007D300CF03120135E1CF031201350FD00312010C
:1007E30035A4D003120135AED003120135BBD003BB
:1007F300120135EED003120135FAD003120135127E
:10080300D1031201351CD103120135F0800412010A
:1008130035FE80041201351681041201352D810441
:100823001201357DC20112013520C3011201353990
:10083300C401120135B1C401120135D8C501120139
:100843003511C601120135A9C60112013596C7013A
:100853001201353FC801120135C7C901120135AF75
:10086300CA01120135A6CB01120135DCCB011201FD
:10087300357ECC01120135A4CC0112013570CE01B5
:10088300120135B6CE01120135D8CE01120135441D
:10089300CF011201350FD001120135C9D001120168
:1008A30035D5D2011201353390031201350F91036F
:1008B300120135B99103120135FA91031201358101
:1008C3009203120135FC9203120135CF93031201F7
:1008D30035F89303120135EC94031201352995037E
:1008E3001201351196031201354296031201356840
:1008F30096031201356BF103120135EAF10312017C
:100903003515F20312013525F303120135AAD1037C
:10091300120135C0D103120135DED103120135EEC8
:10092300D203120135F8D20312013522D403120186
:10093300350FD5031201357BD5031201357B9D039A
:10094300120135A89E03120135209F031201355071
:100953009F03120135639F03120135BA9F031201EE
:1009630035B2A103120135CCAF0112013553B001E9
:10097300120135A7B101120135B3B1011201352BB3
:10098300B20112013504B30112013504B40112019D
:100993003500B501120135CCB50112013526B70179
:1009A3001201353CB7011201355DB701120135EF74
:1009B300B70112013565B8011201358BB801120177
:1009C3003538BB011201353DBB0112013561BD0153
:1009D300120135A8BD011201350EBE0112013554B5
:1009E300BE0112013524BF01120135D9BF01120125
:1009F3003535C00112013538C00112013584C001FB
:100A0300120135C0C001120135FFC00112013521A9
:100A1300C10112013555C101120135C3C1011201D2
:100A23003536A90312013544A90312013594A903EC
:100A3300120135B3A903120135FDA9031201354093
:100A4300AB03120135D8AB031201351CAC03120101
:100A53003546AC03120135B1AC03120135F5AC03D5
:100A630012013578AD0312013527AE03120135E8C3
:100A73002E00120135F82E00120135922F001201BB
:100A830035EE2F00120135AC3000120135CF3100A5
:100A9300120135FF31001201352E3200120135E407
:100AA3003300120135373600120135963800120132
:100AB300357F39001201356F3A00120135423C008F
:100AC3001201353A3F0012013557400012013551EA
:100AD3004200120135604300120135EF4400120158
:100AE30035DB45001201352A46001201359A4600CE
:100AF300120135B64600120135074700120135A72A
:100B03004B00120135AE4C00120135104D0012019D
:100B1300353B4D00120135F34D001201353CC50341
:100B230012013546C5031201358EC503120135A2E4
:100B3300C50312013533C6031201356AC603120118
:100B430035A5C603120135CEC60312013522C703EC
:100B530012013537C70312013559C7031201356E28
:100B6300C70312013582C70312013597C703120168
:100B730035D1C703120135FDC70312013591C803EF
:100B8300120135BCC803120135FFC8031201352910
:100B9300C90312013554C903120135B9FC0312010B
:100BA300357AD80212013553D902120135C2D9025E
:100BB300120135FDD90212013538DB02120135EA83
:100BC300DB0212013597DE0212013542DF02120108
:100BD3003523E00212013599E10212013501E202E7
:100BE300120135B8B703120135FBB703120135669D
:100BF300B903120135A4BB031201356EEF031201D1
:100C0300351BF00312013514F10312013551F103C1
:100C130012013522F50312013581F5031201351E48
:100C2300F60312013551F6031201357FF603120163
:100C330035BAF603120135DAF6031201350FB303A1
:100C430012013598B30312013557B4031201356508
:100C5300B50312013585B703120135CFB602120170
:100C630035E4B602120135AFB7021201357CB80282
:100C7300120135E9B80212013524B902120135C552
:100C8300B902120135CEBA02120135A6BB02120116
:100C93003529BC02120135B2BC021201351BBD025B
:100CA300120135A5BD02120135F2BD0212013560F4
:100CB300BE0212013502BF02120135B0BF0212019A
:100CC30035D0BF0212013514C0021201355CC002D7
:100CD30012013578C00212013597C0021201351195
:100CE300C1021201351FC102120135B2C102120144
:100CF300351CC202120135C0C0031201353CC103C9
:100D03001201357AC1031201355EC203120135CDDA
:100D1300C20312013511C30312013554C303120177
:100D23003581C3031201359FC303120135D7C303B2
:100D330012013514C40312013535C403120135AB56
:100D4300C403120135F5C403120135E2D2011201C5
:100D53003576D401120135B4D601120135FCD60122
:100D630012013527D7011201351DD8011201354D66
:100D7300D801120135A4D801120135B7D8011201E7
:100D830035F8D80112013525D9011201356ED90183
:100D9300120135AAD901120135EFD9011201353CEF
:100DA300DA01120135A4DA01120135D6DC01120190
:100DB300359DDE01120135D8DE0112013556E00101
:100DC3001201359AE0011201350DE101120135CD11
:100DD300E101120135F6E10112013515E3011201BA
:100DE3003526E301120135BAEC021201352BED026F
:100DF300120135F4F202120135EEF302120135B09D
:100E0300F5021201352EF6021201359F83011201FC
:100E1300352684011201355384011201359584016D
:100E2300120135918501120135D685011201355222
:100E33008701120135CF8701120135F487011201B1
:100E430035678801120135248901120135E08901D2
:100E5300120135608A011201352E8B0112013554BE
:100E63008B01120135C68B011201356A8C01120107
:100E7300358F8C01120135FB8C01120135618D0117
:100E8300120135978D011201353B8E01120135D4C4
:100E93008E01120135578F01120135C38F011201E3
:100EA300350F9001120135759001120135A690019D
:100EB3001201355A9101120135709201120135B9AF
:100EC3009201120135D69201120135B69801120131
:100ED30035FE9801120135EB9901120135109A0183
:100EE300120135259A011201358D9A01120135CD72
:100EF3009A01120135E09B011201358D9C0112010B
:100F03003557F602120135A2F602120135AEF6028A
:100F130012013579F7021201358FF702120135CB31
:100F2300F70212013504F8021201353CF8021201EE
:100F33003592F802120135A8F802120135E4F802DD
:100F4300120135F7F8021201351EF902120135526A
:100F5300F90212013526FA02120135B5FB0212011C
:100F630035B1FC02120135BAFD02120135DD2E0046
:100F7300120135F09C021201352B9D021201352F0F
:100F8300A00212013581A10212013546A20212010B
:100F93003540A5021201352AA60212013575A602B3
:100FA3001201358FA602120135CCA602120135D7E4
:100FB300A60212013516A7021201351FA70212015C
:100FC30035E0A7021201359DA80212013500A902DE
:100FD30012013564A902120135E5A902120135BFD8
:100FE3009C011201351BA00112013521A001120140
:100FF3003562A7011201353AAC0112013528D90334
:10100300120135BED903120135D4D9031201351AA1
:10101300DA031201355EDA0312013598DA0312019D
:10102300352ADB0312013599DB03120135A2DB03F9
:10103300120135AEDB03120135C2DB03120135E6C3
:10104300DB03120135FBDB031201355DDC03120107
:101053003584DC031201357CC90312013589C903C8
:10106300120135A3C903120135D6C9031201351381
:10107300CA0312013579CA031201358ECA0312015C
:101083003599CA03120135A6CA03120135BDCA0335
:10109300120135CBCA03120135D6CA03120135E258
:1010A300CA03120135F1CA03120135FCCA03120146
:1010B3003522CB03120135C6CB03120135D6CB0340
:1010C300120135F0CB031201350DCC031201352883
:1010D300CC031201354FCC031201355ACC03120154
:1010E300356FCC0312013583CC03120135E4CC03F5
:1010F300120135EACC03120135F0CC03120135F6A7
:10110300CC031201350ECD0312013541CD0312017B
:1011130035E0F2011201356EF30112013503F401DA
:10112300120135DFF40112013513F50112013526E1
:10113300F501120135A0F50112013528F70112015D
:10114300354FF701120135D6F70112013515F801B4
:1011530012013526F8011201359BF801120135BA47
:10116300F801120135D2F80112013516FA01120104
:101173003520FC0112013552FE0112013558FF01E1
:101183001201359BFF011201350080021201351354
:101193008102120135FB810212013505820212011F
:1011A3003527820212013533820212013580830210
:1011B300120135AD8302120135CE840212013510BE
:1011C3008502120135458602120135158702120187
:1011D30035648702120135C58702120135FA870289
:1011E300120135338802120135DE8B02120135F507
:1011F3008B02120135738C02120135818C021201AC
:1012030035CA8C02120135D88C02120135598D0270
:10121300120135C88D02120135148E021201359563
:10122300CD02120135B7CD0212013593CF0212015F
:10123300350BD30212013555D40212013537D502CD
:10124300120135E8F6031201350DF7031201357E5D
:10125300F703120135B08803120135B9880312016F
:1012630035C28803120135E68903120135D78B0392
:10127300120135058C03120135308C031201355EE2
:101283008C03120135898C03120135C78C031201BB
:1012930035F38C03120135308D031201355B8D0359
:1012A300120135A78D03120135FE8D031201353E60
:1012B3008E031201358D8E03120135B88E03120190
:1012C30035FE8E031201352C8F03120135578F0320
:1012D300120135848F03120135A78F031201353FA5
:1012E30083041201356B8304120135C48304120194
:1012F30035CE8304120135DE830412013524E00365
:101303001201354BE003120135C285041201355C2D
:101313004E00120135C25100120135C752001201AD
:1013230035D155001201353D5600120135AD570038
:10133300120135635A001201358C5A00120135DD52
:101343005A00120135735F00120135D0600012019B
:10135300350E6100120135B7630012013596640042
:10136300120135E26500120135F9650012013530CD
:101373006B00120135AF6C0012013540ED03120111
:1013830035C7ED0312013528EF0312013500800440
:101393001201351F80041201353D80041201359579
:1013A3008004120135AC80041201358382041201DA
:1013B300359482041201353483041201358F860477
:1013C3001201358784041201359E8404120135E627
:1013D3008404120135E7FF02120135D1FE03120125
:1013E30035E3FE03120135FDFE0312013509FF0348
:1013F30012013515FF03120135BFFF03120135CD6D
:10140300FD0312013552FE03120135B8FE0312012A
:1014130035F9EA031201353BEB0312013587EB0380
:10142300120135F7EB031201352DEC03120135A33D
:10143300EC03120135F3EC0312013507ED0312013E
:101443003599F803120135B8F80312013558F90339
:10145300120135E7F903120135FDF90312013516BF
:101463007E00120135577E00120135BD7E00120148
:1014730035787F00120135ED7F00120135F07F00D2
:10148300120135E8FF01120135F8FF01120135FBA6
:10149300FF01120135D89603120135F796031201A5
:1014A30035289703120135A89703120135019803D4
:1014B3001201351D9803120135429803120135BEFE
:1014C3009803120135B69903120135F999031201F4
:1014D30035ED9C031201352F9D03120135F87F0072
:1014E300120135A0E803120135C5EA03120135A63E
:1014F300E202120135C5E4021201356CE502120164
:10150300358AE802120135D0E90212013514EA02E4
:1015130012013517EA021201357BEA021201358CFA
:10152300EA021201359DEA02120135C6EA021201EE
:1015330035D1EA02120135E2EA0212013538EC0232
:1015430012013595EC0212013598EC02120135B007
:10155300EC02120135B5EC021201359A8E0212012A
:1015630035018F021201356B90021201358690020C
:101573001201359890021201357391021201355709
:101583009202120135799202120135CB94021201B3
:1015930035C39702120135409902120135A1990210
:1015A300120135099A02120135559A021201355872
:1015B3009A02120135849B021201352A9C02120100
:1015C3003585D50312013558D803120135C0D80328
:1015D300120135BD8104120135E68104120135146F
:1015E30082041201359FA303120135A9A30312013B
:1015F30035EFA30312013539A40312013590A40377
:10160300120135E8A40312013505A5031201350FB4
:10161300A5031201355CA5031201358AA503120146
:101623003576A6031201359FA703120135DAA70306
:101633001201351BA8031201352DA8031201354CE5
:10164300A80312013555A8031201350CA903120191
:101653003513FA0312013569FA03120135F6FA0359
:1016630012013517E6031201353FE6031201353146
:10167300E70312013515E8031201357BFB03120161
:10168300350685041201352FE30312013565E303A3
:1016930012013584E403120135DDE503120135E857
:1016A3008304120135FE83041201350884041201F8
:1016B300355C84041201352FAB02120135AFAD0244
:1016C3001201351BAE021201351AAF021201353970
:1016D300B10212013591B30212013542B402120173
:1016E3003559B402120135CBB50212013516B602D3
:1016F30012013539AE031201354BAE0312013539F0
:10170300AF031201356AAF03120135B7AF031201FC
:101713003517B00312013583B003120135A0B203AC
:10172300120135616D001201356E7200120135032D
:1017330074001201355A74001201357E74001201CF
:1017430035FC7400120135EB7800120135EF790096
:1017530012013554F303120135A9F303120135BC09
:10176300F30312013552F40312013557F403120146
:10177300350C8604120135C2FF031201359286042B
:10178300E066701008A3E066700A08A3E0667004C0
:1017930008A3E06622C3E09608A3E09608A3E096B8
:1017A30008A3E096A2D265D03322C008C3E096F521
:1017B3000808A3E096420808A3E096420808A3E0BD
:1017C300964208A2D265D033E5087001D3D008222F
:1017D300C3E7960809E7960809E7960809E79622FA
:1017E300C3E09608A3E09608A3E09608A3E0962238
:1017F300C008C3E096F50808A3E096420808A3E0F2
:1018030096420808A3E09645087001D3D008220841
:101813000808EAC0E0EBC0E086F0E7A4FA180986FE
:10182300F0E7A42AFA180986F0E7A42AFA18098629
:10183300F0E7A42AFA1986F0E7A4FBE5F02AFA19DF
:101843000886F0E7A42BFBE5F03AFA190886F0E7DF
:10185300A42BFBE5F03AFA18180986F0E7A4C5F0C3
:101863002BFBE43AFA1908E7C5F0C6A426F6E5F01F
:101873003BFBE43AFA1886F0E7A4F6E5F00826F60F
:10188300E43B08F6E43A08F6D0E0FBD0E0FA22E4C1
:10189300CFC0E0E4CEC0E0E4CDC0E0E4CCC0E0756E
:1018A300F020E626F608E633F608E633F608E633D4
:1018B300F6181818EC33FCED33FDEE33FEEF33FF6F
:1018C300C3EC9709ED9709EE9709EF97191919409A
:1018D3000FFFEC97FC09ED97FD09EE97FE1919062A
:1018E300D5F0BFECF709EDF709EEF709EFF7191992
:1018F30019D0E0FCD0E0FDD0E0FED0E0FF221219C9
:10190300691818181218921219581919192212194C
:1019130058191919080808E618181820E7E01218CA
:101923009212196918181822090909E719191920B7
:10193300E7DC080808E618181820E70302189212D3
:101943001969181818121892121969181818121907
:101953005819191922E4C397F709E497F709E4978B
:10196300F709E497F722E4C396F608E496F608E449
:1019730096F608E496F6226017080808C6A2E7134D
:10198300C618C613C618C613C618C613C6D5E0E9CB
:10199300226016080808C6C313C618C613C618C69D
:1019A30013C618C613C6D5E0EA2270090808082230
:1019B3006016181818C6C333C608C633C608C6331C
:1019C300C608C633C6D5E0EA22E627F60809E63795
:1019D300F60809E637F60809E637F622E026F608A0
:1019E300A3E036F608A3E036F608A3E036F622E0D5
:1019F30026F008A3E036F008A3E036F008A3E036AB
:101A0300F022C3E697F60809E697F60809E697F683
:101A13000809E697F622C3E0C696F608A3E0C69641
:101A2300F608A3E0C696F608A3E0C696F622C3E03E
:101A330096F008A3E096F008A3E096F008A3E096DA
:101A4300F022E056F608A3E056F608A3E056F6089F
:101A5300A3E056F622E056F008A3E056F008A3E010
:101A630056F008A3E056F022E0F608A3E0F608A338
:101A7300E0F608A3E0F622E6F008A3E6F008A3E602
:101A8300F008A3E6F022E0FAA3E0FBA3E0FCA3E066
:101A9300FD22EAF0A3EBF0A3ECF0A3EDF022E0FCCF
:101AA300A3E0FDA3E0FEA3E0FF22ECF0A3EDF0A38F
:101AB300EEF0A3EFF022E0F8A3E0F9A3E0FAA3E04D
:101AC300FB22E8F0A3E9F0A3EAF0A3EBF022CAC0FB
:101AD300E0E6F0A308DAFAD0E0FA22CAC0E0E0A315
:101AE300C582CCC582C583CDC583F0A3C582CCC5D1
:101AF30082C583CDC583DAE6D0E0CA22C3E498F871
:101B0300E499F9121B408026C3E49AFAE49BFBE9AB
:101B130020E7E9121B40E498F8E499F922C3E4981A
:101B2300F8E499F9121B40E498F8E499F9C3E49AAC
:101B3300FAE49BFB22EB20E7CFE920E7E0B90010B2
:101B4300BB0008E88AF084F8AAF022E4FBC8FA2272
:101B5300EB70227B10C833C8C933C9335007C39A0B
:101B6300C3DBF280069A50012ADBEAC833F4C8C902
:101B730033F4C9FA2275F008E4C833C8C933C9334A
:101B8300C99AC99B5004C92AC93BD5F0ECFBC83399
:101B9300F4C8E4C9FA22600D08C6A2E713C618C642
:101BA30013C6D5E0F322600C08C6C313C618C613C8
:101BB300C6D5E0F422700422600D18C6C333C608EC
:101BC300C633C6D5E0F41822251810AF08F518401F
:101BD3000C15198008F51840021519D2AF2200C060
:101BE300D0251810AF08F518500C05198008F51802
:101BF30050020519D2AFD0D0222518F58210AF08B4
:101C0300F518400C15198008F51840021519D2AFC4
:101C1300851983222518F582E43519F583222518C1
:101C2300F8E43519F9222518FAE43519FB222518A9
:101C3300FCE43519FD22E4732518C582C0E0E519DB
:101C430034FFC583C0E0E518C3958224F810AF08BC
:101C53008583198582188008858319858218D2AFF8
:101C6300CEF0A3E520F0A37808E608F0A3DEFAEFB0
:101C7300F0A3E58124FAF8E608F0A3E608F0A3E66A
:101C830008F0A30808E608F0A3E608F0A3158115F9
:101C930081D0E0FED0E0F8158115811581E8C0E020
:101CA300EEC0E0222518C582C0E0E51934FFC583E4
:101CB300C0E0E518C3958224F910AF088583198520
:101CC30082188008858319858218D2AFCEF0A3E5E8
:101CD30020F0A37808E608F0A3DEFAEFF0A3E5818D
:101CE30024FBF8E608F0A3E608F0A30808E608F0EA
:101CF300A3E608F0A315811581D0E0FED0E0F81526
:101D0300811581E8C0E0EEC0E02285198385188241
:101D1300E0A3FEE0A3F5207808E0A3F608DFFAE0ED
:101D2300A3FFE0A3C0E0E0A3C0E0E0A3C0E0E0A322
:101D3300C0E0E0A3C0E010AF088582188583198056
:101D430008858218858319D2AFD083D082020132ED
:101D5300851983851882E0A3FEE0A3F5207808E0C7
:101D6300A3F608DFFAE0A3FFE0A3C0E0E0A3C0E02E
:101D7300E0A3C0E0E0A3C0E010AF0885821885832C
:101D8300198008858218858319D2AFD083D0822227
:101D9300C0D02518C582C0E0E51934FFC583C0E073
:101DA300E518C3958224F310AF088583198582183B
:101DB3008008858319858218D2AFC8F0A3E9F0A300
:101DC300EAF0A3EBF0A37908E709F0A3D8FAECF063
:101DD300A3EDF0A3EEF0A3EFF0A3D0E0F0A3D0E0E7
:101DE300F0A3D0E0F0A3E520F0A3E5F0F0A3228573
:101DF3001983851882E0C0E0A3E0F9A3E0FAA3E029
:101E0300FBA37808E0F608A3DFFAE0FCA3E0FDA358
:101E1300E0FEA3E0FFA3E0C0E0A3E0C0E0A3E0F5A1
:101E2300D0A3E0F520A3E0A3F5F010AF0885831954
:101E33008582188008858319858218D2AFD082D015
:101E430083D0E0F8D0E03274048006740280027418
:101E530001C0E0F404121BFCD0E0121AD122740476
:101E6300800474028000CCC0E0EDC0E0E518C39CA0
:101E7300CCAD1950011D10AF068C188D1980068C3E
:101E8300188D19D2AF121ADED0E0FDD0E0FC22D0BB
:101E930083D082E9C0E0E493A3C386F0C5F095F054
:101EA300F908E493A386F0C5F095F0700BE493A3CF
:101EB300C3994005E9048002A3E475F002A42582D6
:101EC300F582E5F03583F583D0E0F9E493A3C0E030
:101ED300E493C0E022D083D082ECC0E0EDC0E0E424
:101EE30093A3FCE493A3FDED4C600D121F24EC249B
:101EF300FFFCED34FFFD80EFE493A3FCE493A3FD2B
:101F0300ED4C600D121F63EC24FFFCED34FFFD80EC
:101F1300EFD0E0FDD0E0FCE493A3C0E0E493C0E0A5
:101F230022C0E0C3E49396087401939618400FE42B
:101F33009366700808740193661870007019A3A360
:101F4300C3E49396087401939618A3A3400DD0E0BD
:101F5300D0E0D0E0021F14A3A3A3A3A3A3D0E02245
:101F6300C0E0C0F088F0E4936670080874019366DB
:101F7300187000A8F0A3A3700BD0F0D0E0D0E0D08D
:0B1F8300E0021F14A3A3D0F0D0E02266
:101F900074F6121CA7EAFEEBFF8C088D09EA2434C4
:101FA000F8E43FF9E8FCE9FDEA2435122337FAEEBC
:101FB0002437122337F88508F0A4C885F00A85096C
:101FC000F0A4250AF9EA28F8E439F97A257B001209
:101FD0001B40EA8C828D83F0FA131313541F1223D3
:101FE0002B245DF582E439F583E0C0E074075AF8EC
:101FF000D0E0B800028004C313D8FCA2E0EE500881
:102000002434F582E43F80142436122337F5F0EAB5
:1020100084A8F012232C2438F582E439F583E0F902
:102020007F03021D5374F7121CA7EAFEEBFFEA249C
:1020300034122337C0E0EA2435F582E43FF583D03B
:10204000E0F08A828B83A3A3A3A3A3A3A3C082C02F
:10205000838A828B83A3A3A3A3A3E0F8A3E0F9D090
:1020600083D082E0C398F508A3E099F509EA2480BB
:102070001223376401703EEA2481F582E43FF58340
:10208000C082C0838A828B83A3A3A3A3A3E024017D
:1020900008A3E03400F9D083D082E0687003A3E0A5
:1020A0006970127CD07D06120EADEE2480F582E4BC
:1020B0003FF583E4F0AC08AD09EEFAEFFB121F9098
:1020C000E9F9122DA47F02021D53C082C083851836
:1020D00082851983E0F8A3E0F9C3EA9CEB9D5010D8
:1020E000C3EC98ED99401BC3EA98EB995014800E0D
:1020F000C3EA98EB994007C3EC98ED994004790145
:1021000080027900D083D08222EAC39CFAEB9DFB47
:102110002274EF121CA7900590E064086005E0644B
:1021200007702A9061C8E060249005BEE0F4601D4D
:10213000E0F875F010A4C8AAF02AF974C028FE745B
:102140000539FF8E82F583A3A3A3E0700302222A40
:10215000906060E0C0E0EE2468F582E43FF583D053
:10216000E0F0750C41750D07750800750900E5D99B
:1021700014F50AE5D95403F50E602F7403650E605B
:102180001DE50A6008EE2467122337601D90073CA6
:10219000E06401602C122334601278048010122352
:1021A00034602CE50AC39405502580637800E50A65
:1021B000C398FA95E0FB120D5D8A088B09EA4B7013
:1021C000051210F3806412233470048A0C8B0DE521
:1021D0000A6012850C82850D83F50BE5D9F0A315F5
:1021E0000BE50B70F6122334604574FC250AF50AE2
:1021F000780C121E4EAC0AA90EEEFAEFFB120F6716
:102200007402121BE1E97027AA08AB09121657796C
:102210003D8E828F83A3A3A3A3E0FA7B00120BC59C
:10222000EEFAEFFB120ED1120F7979000223267419
:1022300003650E6053E50AF5107511007810121E43
:102240004EAC0CAD0DAA08AB09120F2B7402121B79
:10225000E1EE246812233764807004747F8001E00B
:10226000F50C780C121E52E50EF50C780C121E526D
:10227000A90AAC08AD099005BEE0FA7B00120B9BE1
:102280007402121BE1022321850C82850D83E0C3B9
:10229000940E5011E0F8745D28F582E43482F583E1
:1022A000E0650A6069850C82850D83E0C0E0EE245C
:1022B000F7F582E43FF583D0E0F0A2AFE433FCC24F
:1022C000AF7A0080010AEE246E122337F8EAC39831
:1022D0005013EA12232B246AF582E439F583E06473
:1022E0000770E28022EE246EF8E43FF9E0FAEE2A6D
:1022F000FAE43FFBEA246AF582E43BF5837407F0D5
:1023000088828983E004F0ECA2E092AF801390050C
:1023100090E06408600BAC0CAD0DEEFAEFFB120F11
:10232000F11210FF79017F0A021D53F8EE28F8E43C
:102330003FF9E822EE2484F582E43FF583E022743D
:10234000F1121CA774FC121BCBEAFEEBFF89097586
:102350000D00A2AFE433F508C2AF9006D8E0FA90C2
:1023600061D0E0F8748098F895E0F9C3EA98E499B0
:10237000A2D265D0334003022429750D010224291D
:10238000E0601B780A121E4EAC0EA90FEEFAEFFBAE
:10239000120F617402121BE17404250EF50E740114
:1023A000250EF5D9850FD9E50E6012850A82850BB9
:1023B00083F50CE0F5D9A3150CE50C70F675E195E5
:1023C000EE2463F8E43FF97A007B00A2AFE433F532
:1023D0000AC2AF88828983E0FCA3E0FDEC4D603A3D
:1023E00088828983E0FAA3E0FB8C82F583E0FCA37A
:1023F000E0FD88828983ECF0A3EDF08A828B83E490
:10240000F0A3F088828983E0FCA3E0FDEC4D700A24
:1024100088828983A3A3E4F0A3F0E50AA2E092AF47
:102420001216579006D7E004F0EE2463122337F813
:10243000A3E0F9E8496063EE24631223372402F82D
:10244000A3E034008882F583E5822402F50AE435AE
:1024500083F50BE0F50EA3E0F50FEE2462122337AF
:10246000640170369061D0E0F812233460047C047B
:1024700080027C007480C398FA95E0FBE50E2CF88E
:10248000E43400F9E82402F8500109C3EA98EB9912
:10249000A2D265D03340030223809061D0E0F8746B
:1024A00080C3989006D8F0E50D60539006D7E060A1
:1024B0004D9006D9E0F89006D7E0C398500C74020E
:1024C0006509703A9006DAE060348E828F83A3A3A8
:1024D000A3A3E085188285198312250E7402121CAD
:1024E00017E812250E9006D6E028F07402121C316F
:1024F000AA18AB197901120BEF9006D7E4F0E508A2
:10250000A2E092AF7404121BE17F08021D53F0A3F6
:10251000E4F09006D7E0F8228521878522C622C004
:10252000E074EB121D93A2AFE433F508C2AF759BC4
:1025300000906182E0A2E0502DE591A2E050277565
:1025400091FE74016521701E1226961226AD121E90
:1025500061122B537404121BE1E9640170057901C7
:10256000121087122111906182E0A2E5505AE59184
:10257000A2E550547591DF900590E064076005E096
:102580006408702C12269674016521703B1226ADEA
:10259000121E61122B537404121BE1E964017005D1
:1025A00079011210877901EEFAEFFB12233F8018B0
:1025B000E0640D70139005B2E004F064287002E44A
:1025C000F07A00E0F9121105906182E0A2E6400382
:1025D00002266BE591A2E6400302266B7591BF903F
:1025E0000590E06405700812102712103380031262
:1025F000102D752100121093E9900591F0790012C9
:102600001087120E1D7A017B0090058FE0F91216DB
:1026100027907803E064427052900740E014F07015
:102620004AC2AF12262600782AD0E0F618D0E0F68B
:10263000E59F540770047BFF80027B7FC4C0E07875
:1026400029E6F50A08E65BF50B740B780A121BA95C
:10265000D0E0250AF8906270E0A2E740F8E8C333C2
:10266000906272F0906270E0D2E0F0906181E0A23E
:10267000E35009E5E9A2E3500375E9F7A3E0A2E717
:102680005009E591A2E7500375917FE508A2E09219
:10269000AF7F08021DF29005BEE0F875F010A4C8E7
:1026A000AAF02AF974C028FE740539FF2212103FDF
:1026B0008E828F83E0F8A3E0C82416F582E438F513
:1026C0008322C0E0C0D0C082C083906183E0A2E0DA
:1026D0005009E5BFA2E0500375BFFEE0A2E150093A
:1026E000E5BFA2E1500375BFFDE0A2E25009E5BFDE
:1026F000A2E2500375BFFBE0A2E35009E5BFA2E3ED
:10270000500375BFF7E0A2E45009E5BFA2E450030F
:1027100075BFEFE0A2E55009E5BFA2E5500375BF24
:10272000DFE0A2E65009E5BFA2E6500375BFBFD0C7
:1027300083D082D0D0D0E032C0E074F2121D93E595
:10274000A7A2E6500FE5A1A2E6500953A7BF75A1C5
:10275000BF12278CE5A7A2E5500CE5A1A2E5500623
:1027600053A7DF75A1DFE5A7A2E15009E5A1A2E12A
:10277000500375A1FDE5A7A2E2500CE5A1A2E2502D
:102780000653A7FB75A1FB7F01021DF274F7121C13
:10279000A7752101900590E064067015120F9D8ABF
:1027A000828B83A3A3A3A3A3A3E0FAA3E0FB12104D
:1027B00015A2AFE433FED2AF900596E06401701825
:1027C0007A207B0090058FE0F912170B7A207B00AE
:1027D00090058FE0F912162D906182E0D2E6F0901C
:1027E000073DE0602185C6228016900595E06401D2
:1027F0007008E5C654F84405F5C653BEFC1225180A
:102800007401652160E4EEA2E092AF7F02021D53E5
:102810008E238F24858228858327851882851983B6
:10282000E0CEA3E0CF852882852783EBC9EAC8EDF7
:10283000CBECCA75F010C3E833C8E933C9EA33CA30
:10284000EB33CBC3EA9EF526EB9FF525B35004ABE3
:1028500025AA26EC33CCED33CDD5F0DAAE23AF2468
:102860002274E9121CA774FA121BCBEAFEEBFF8C50
:102870000A8D0B12104BEAF8EBF9ECFAEDFB8E82A5
:102880008F83121AC5900590E024F7C39405500673
:102890007514010229C7120F9D8A088B09EA4B7033
:1028A000030229C4EEFCEFFDAA18AB1912104585EE
:1028B0000882850983A3A3780C121A6B9083007891
:1028C0000C121A458518828519837810121A6B909C
:1028D00083007810121A45780C79101217D3501F04
:1028E000780C7910121A059082DC780C1217F340DC
:1028F0005D850C14850D15850E16850F1780379094
:1029000082DC85101485111585121685131778142D
:10291000790C121A0578141217F3503275140075D9
:10292000150075160075170178147910121A0578BC
:1029300014790C1219CC740978141219AD9082E034
:10294000780C121A6B7814790C121892800C75148A
:1029500014751500751600751700850882850983A2
:10296000A3A3A3A3A3A31229E5121B40880C890DDE
:10297000E4F50EF50F7814790C1219CC7404121CBE
:10298000171229E5121B40E8FAF50CE4F50D78144E
:10299000790C1217D350077814790C121A05900588
:1029A00090E06408600AE064066005E06405702059
:1029B0009082E478141217F350169082E87814127B
:1029C00019DF800C75140075150075160075170059
:1029D000850A82850B837814121A7A7406121BE119
:1029E0007F10021D53E0F8A3E0F97AD07B03227434
:1029F000F7121CA712105D90073BE0640170109065
:102A00006245E4F0A3F053F4F343FE0C5390F31249
:102A10001003E5C654B84441F5C6E59E54476441E9
:102A200070F8906185740FF0900739E0F47002A39C
:102A3000E0604E90073AE0600814601B14602E803E
:102A400040750801750900900739E07808121BB835
:102A5000E508F45280802A7508017509009007394D
:102A6000E07808121BB8E508F4529080147508014C
:102A7000750900900739E07808121BB8E508F45290
:102A8000A079007F02021D5374F7121CA7E9FEEA29
:102A9000FF12105D74016E700C7A807B0090058FC0
:102AA000E0F9121627902EE0E493F46008E493F91D
:102AB000120E11800953C6B8E59E544770FA1210E1
:102AC0000990073BE064017003120E2F900739E074
:102AD000F47002A3E0604B90073AE0600814601ABB
:102AE00014602C803D750801750900900739E07865
:102AF00008121BB8E5084280802875080175090096
:102B0000900739E07808121BB8E5084290801375E9
:102B10000801750900900739E07808121BB8E5082C
:102B200042A0120F9D8B09A909EA496014E5E170E2
:102B3000FCEA2414F582E439F583E0F46003E0F55F
:102B4000E174016F700A7A0190058FE0F91216ABFB
:102B5000022A8374F1121CA78A088B098C0A8D0B38
:102B60009083007808121A45740F121C17780C1203
:102B70001A6B908300780C121A457808790C12179A
:102B8000D39082DC50107808790C121A057808125C
:102B900017F34014800E780C7908121A05780C127D
:102BA00017F350047901800279007F08021D5374E5
:102BB000ED121CA78A088B098C0A8D0B9083007874
:102BC00008121A457413121C17780C121A6B908392
:102BD00000780C121A45780C79081217D340117836
:102BE00008790C121A05AA08AB09AC0AAD0B8022B1
:102BF0007510007511007512007513017810790CAD
:102C0000121A05781079081219CCAA10AB11AC125F
:102C1000AD137F0C021D539083007808121A6B8A43
:102C2000828B837808121A587F04021D5374F512A0
:102C30001CA78C828D837808121A6B8A828B83780A
:102C400008121A31122C85C3E09CF0A3E09D122CCF
:102C50007740229083287808121A6B8A828B8378B7
:102C6000081219F28A828B83A3A3A3A3E02420F085
:102C7000A3E0344EF080A0F088828983C3E09420E2
:102C8000A3E0944E22EA2404F8E43BF98C828D837D
:102C9000A3A3A3A3E0FCA3E0FD888289832274F5AB
:102CA000121CA79006F3E0FAA3E0FBE929F8E4334D
:102CB000F9742128F582748239F583E02AF508A396
:102CC000E03BF5097808121E4E908318121A8912FB
:102CD00028107402121BE18A088B098C0A8D0B7470
:102CE000107808121994AA08AB097F04021D5374C6
:102CF000F1121CA78A0C8B0D8C0E8D0F7411121CF7
:102D000017121E657411121C17E02401F508A3E0C8
:102D10003400F509E4F50AF50B780C79081218125D
:102D20009082F47808121A6B780C7908121812AA9B
:102D30000CAB0DAC0EAD0F1228107402121BE1EAA1
:102D40004B60047A0180027A00EC2AFCE43DFD74B9
:102D500013121C17E0F8A3E0F9E8FEE9FFECF8ED28
:102D6000F97A717B02121B4088088909E4F50AF59B
:102D70000B8E828F837808121A7AECF8EDF97A714B
:102D80007B02121B408A088B0974057808121BB855
:102D90008E828F83A3A3A3A3E508F0A3E509F07FA8
:102DA00008021D53C082C083E9906000F0D083D038
:102DB0008222C0E0C0D0E8C0E0E9C0E0EAC0E0EBB9
:102DC000C0E0ECC0E0EDC0E0EEC0E0C082C083C077
:102DD000F0A2AFE433FED2AFE58AA2E25018E58D4F
:102DE000A2E25012538DFB539AEF7A007B01900AB6
:102DF0004FE0F9121627758A00C2EBEEA2E092AFFF
:102E0000D0F0D083D082D0E0FED0E0FDD0E0FCD086
:102E1000E0FBD0E0FAD0E0F9D0E0F8D0D0D0E0325A
:102E2000C0E0C0D0E8C0E0E9C0E0EAC0E0EBC0E04C
:102E3000ECC0E0EDC0E0EEC0E0C008C009C00AC0D0
:102E40000BC082C083C0F0AEA8D2AFE58954076042
:102E50003753ABF87589F8900A59E070287401F07F
:102E600012167B750819750900750A00750B007834
:102E700008121E4A7A017B00900A4FE0F91216FFF1
:102E80007404121BE143AB077589F8C2C5EEA2E7D3
:102E900092AFD0F0D083D082D00BD00AD009D00826
:102EA000D0E0FED0E0FDD0E0FCD0E0FBD0E0FAD0F6
:102EB000E0F9D0E0F8D0D0D0E032C0E0C0D0E8C037
:102EC000E0A8A8D2AFC2C7751A00E8A2E792AFD0B7
:102ED000E0F8D0D0D0E032C2AF02000022020132CE
:102EE000FFFFFFFFFFFFFFFFC082C083E9901611C5
:102EF000F0D083D08202013274F6121C3BE99005B7
:102F000002F0900562E0F508750900740278081275
:102F10001BB8AA08AB091216939005031233CC60B4
:102F20006E900562E075F003A4FAABF01216939070
:102F300005201233CC700B900503123C1012169929
:102F4000804D900520124B797AFF7BFF12137B7A1C
:102F500000801EEAF50875090074027808121BB893
:102F600012461574FFF0A3124B8DA3A3E4F0A3F057
:102F70000A900562E0F8EAC39840D87905120A87FA
:102F8000900502E0F91209737A117B0B120CFD0215
:102F900046B174F4121C3B8A088B09EB54806047DD
:102FA000900502E0F91216218A0A8B0BAE0AAF0BCC
:102FB000EA4F602A8A828B83E064B0701A120A9901
:102FC000E960148E828F83A3A3A3A3E0F9EE240506
:102FD000FAE43FFB120A69EEFAEFFB121615AA0893
:102FE000E5096480FB80047A007B000231FA74F208
:102FF000121C3B74FB121BCBEAFEEBFFEA4F604353
:103000007403121C17123879851882851983ECF025
:10301000A3EDF07402121C17E9F0AA18AB191209FB
:103020006DE9F50870777413121C17E0F50AA3E038
:10303000F50BE50A450B60658E828F8312360DEE27
:103040004F700575080280557A067B001216938A28
:103050000C8B0DA80CA90DEA497005750813803D6D
:103060008A828B83E4F01230A4A3EEF0A3EF124E19
:1030700052E50AF0A3E50BF09005061231BE90056B
:10308000066017E0FCA3E08003EAFCEBFD8C828D78
:10309000831231BE70F38C828D83124235A908747D
:1030A00005024DEBA3F08A828B83A32274F2121CDB
:1030B0003B8908E9F50C750D007403780C121BB8F8
:1030C000850C0A850D0B900505F0900503124B5EEB
:1030D0001231BC602F1216997900801EE9F50C752B
:1030E0000D007402780C121BB89005031244CE88B0
:1030F00082F583A3A3E4F0A3F009900562E0F8E968
:10310000C39840D8900562E0FA850AF0A4CAA8F0F6
:10311000850BF0A428FB1216938A0C8B0DAE0CAF16
:103120000DEA4F70030231B2900562E0FC850AF0AF
:10313000A4CCA8F0850BF0A428FD79001216037C1E
:10314000008032EDF50C750D007403780C121BB87D
:103150008A828B831231B78882F583E4F01231C4FE
:10316000A3A3F0A3F00DEDC3950840D7EE250AFE0A
:10317000EF350BFF0C900562E0F8ECC3985029EC9A
:10318000F50C750D007402780C121BB89005031233
:1031900031B7E82402500109FAE9FB8A82F583EE8F
:1031A000F0A3EFF07D0080BEE508900505F0790002
:1031B00080027913024DEE1244D2F922A3A31238F1
:1031C00091EA4B22A3F088828983A3A3A3A322744C
:1031D000F4121C3B7900EAA2E0501F7508C875097B
:1031E000827808121E4E79107C047D007A137B16BB
:1031F000120A817402121BE1E9F97F04021D0DC05D
:1032000082C0839005061245D4601C88828983A3FE
:10321000A3E06A7003A3E06B8882898370E8A3A3AC
:10322000A3A3123C1080047A007B00022EF174F2FA
:10323000121C3B74FD121BCBEAFEEBFF8518828546
:103240001983E4F0A3F07402121C177401F09005C6
:10325000091245D47011120C3712169390050912F9
:1032600033CC70030233C0123966EE2404F50AE44D
:103270003FF50B850A82F583E024FE603C24FC6068
:103280007424FE607E24FE700302331024FE70035B
:1032900002331D24FE700302332A24FE700302331E
:1032A0003724FE700302334424FC70030233652488
:1032B000FE700302337D0233B9120C3790050BEA1E
:1032C000F0A3EB1233D51206AFE960030233B990D5
:1032D000050B121E658E828F83A3A3A3A3A3124B9B
:1032E00079850882850983123C10120A51740212F2
:1032F0001BE10233B9AC18AD19EEFAEFFB120A9FCD
:10330000023388AC18AD19EEFAEFFB120AA58078EB
:10331000AC18AD19EEFAEFFB120AAB806BAC18AD2E
:1033200019EEFAEFFB120AB1805EAC18AD19EEFA95
:10333000EFFB120AB78051AC18AD19EEFAEFFB1291
:103340000ABD80447402121C21880C890D780C126D
:103350001E4E7402121C31EEFAEFFB120AC3740205
:10336000121BE18023AC18AD19EEFAEFFB120AC96B
:10337000E9F870167402121C17E4F0803CAC18AD2A
:1033800019EEFAEFFB120ACFE9F8E8602C8E828F73
:1033900083A3E064146022850A82850B83E0900594
:1033A0000BF0851882851983123C1090050C123899
:1033B00079E8A31233D51206A9EEFAEFFB120A2719
:1033C0007402121C17E0F97403024DEBEAF0A3EB50
:1033D000F0F9EA4922F07C0B7D0585088285098396
:1033E0001238912274E8121C3B74FA121BCB74043D
:1033F000121C17ECF0A3EDF08A128B13EA2405F5EA
:103400000EE43513F50FEA2402F510E43513F51137
:10341000851082123EB77508007C037D0079007A22
:103420000B7B05121603E50E2402F516E4350FF5A5
:10343000177402121C21880C890D780C121E4E85FF
:103440000E82850F83A3A3A3A3E0F50C750D00786E
:103450000C121E4EE50E2405F50CE4350FF50D7823
:103460000C121E4E851682851783123EFF121BE139
:103470008A0C8B0DE50C450D70030235DC80208530
:103480001882851983E088828983F005088518826F
:10349000851983A3E0C0E0123617D0E0F00508E5F7
:1034A0000A24FBF8E50B34FFF9C3E50898E49940DA
:1034B000030235DC7E007F00851282851383A3A37F
:1034C000A3A3E0F5097809121E52E4F514F5157866
:1034D00014121E4E7514087515057814121E4E90A0
:1034E0000509121E657409121C17121E65E50A24CF
:1034F000F9F9AC0CAD0D123F11121BE1E9600302AA
:103500003583850E82850F83A3A3A3A3A3A3A3E082
:10351000F8900508E068706BE0F5148E15781412C9
:103520001E4E124B76850E82850F83A3A3A3A3A301
:10353000A3A3A3123C101215FD7402121BE1E96053
:10354000421245D17034E4F5147814121E4E7CFFFB
:103550007DFF7907123F20121BE18B15A91512364A
:103560002C7017850E82850F83124D057404121C72
:10357000171245BE123F3202360A850C82850D8332
:1035800012360DA818A919881489157814121E4E20
:103590007404121C17121E65851682851783123E4D
:1035A000E1121BE18A0C8B0DEE4F70030234741292
:1035B0003617EE123622123EC8EF123622F8A3E07A
:1035C0003400F9E50C4B600302347F8882898374F0
:1035D000FFF0050812361774FFF00508E5086014BF
:1035E0001313543F12387F1206BBE960031244E5FF
:1035F00079008016850E82850F83124D05740412A2
:103600001C171245BE124235790A023E98A3A3A3A5
:10361000A3E0FEA3E0FF22A80890050CE028123EDC
:10362000C822F005080890050CE0282290050CEA55
:10363000F0A3EBF0EA492274E8121C3B74FA121B67
:10364000CB7402121C171238797404121C17ECF098
:10365000A3EDF07402121C17E02405123EA2F583BC
:10366000E0F50CA3E0F50D7402121C17E02402F53E
:1036700010A3E03400F511851082123C1475080087
:10368000750900EA24FCFEEB34FFFF8008050CE519
:103690000C7002050DA808C3EE98EF9400500302C9
:1036A000382AA818A919880E890F780E121E4E857F
:1036B0001482851583A3A3A3A3124B55121E4EE5B6
:1036C000142405F50EE43515F50F780E121E4E85FF
:1036D0001482851583A3A3124B79AA0CAB0D120992
:1036E0008B7406121BE18A0E8B0FEA4B70030238B3
:1036F0002AEA2404F516E4350FF517851682F583BA
:10370000E0F50CA3E0F50D851882851983121E657E
:10371000AC0EAD0F851082851183123EAE121BE1F7
:10372000E9F509600302382A7402121C17123ED808
:10373000F5097809121E52E4F512F5137812121EDB
:103740004E7512087513057812121E4E9005091257
:103750001E657407121C17121E65EEF9AC0EAD0F34
:10376000123F11121BE1E9F509600302382AE5084E
:10377000703BE4F50EF50F780E121E4E7CFF7DFFB8
:103780007909123F20121BE18B0FA90F90050D1232
:10379000362F700D7404121C1712386C7911023810
:1037A0005B900508E0240290050CF0801490050C55
:1037B000E0FA900508E0790024025001096A497096
:1037C0006DA808900508E0FAE82AFAE43400FBEE58
:1037D0009AEF9B4055851682851783E0C0E09005DF
:1037E0000D12361CD0E0F00508851682851783A3DC
:1037F000E0C0E00890050D12361CD0E0F0050890FE
:103800000508124B55121E4E124B76A80812385E50
:10381000121BE1900508E02508F50874FF650C709F
:103820000474FF650D600302368DE508601C900589
:103830000CE0F5F0E5088412387F1206C1E9600655
:1038400090050D1244E879008011E50970037509AF
:103850000A7404121C1712386CA909023E989005CC
:103860000DE028FAA3E03400124B3322124B62E53C
:103870000CF0A3E50DF022A3A3EAF0A3EBF0229055
:10388000050BF07C0B7D0585108285118312389124
:1038900022124225FB2274EC121C3B74FC121BCB3F
:1038A0001243457402121C31850A82850B83123A39
:1038B000657003023956123966A818A9198810894B
:1038C000117810121E4E7CFF7DFF790B85088285D2
:1038D0000983123F26121BE1123970700B850A8290
:1038E000850B83123F2F807B8E828F83A3A3A3A39C
:1038F000E0F5127812121E52E4F512F51378121246
:103900001E4E75120B7513057812121E4E7810128A
:103910001E4E7409121C17121E657409121C171210
:103920003A5E850882850983123F17121BE1E9FE82
:1039300070157C0B7D05850882850983123C101269
:1039400006C7E97009801A74166E70027E00124470
:10395000E5EE7004800B7E01850A82850B8312429E
:1039600032EEF9024247EE2402F508E43FF509225F
:103970008A108B1190050CEAF0A3EBF0EA4B22744D
:10398000EC121C3B74FC121BCBEAFEEBFF8C0E8D81
:103990000FEA2405F508E43FF5097402121C31858D
:1039A0000882850983123A657003023A4EEE2402BA
:1039B000F50AE43FF50BA818A919881089117810A9
:1039C000121E4E7CFF7DFF790D850A82850B8312C6
:1039D0003F26121BE1123970700B8508828509831E
:1039E000123F2F80768E828F83A3A3A3A3E0F512CC
:1039F0007812121E52850882850983A3A3121E65C0
:103A000075120B7513057812121E4E7810121E4E89
:103A10007409121C17121E657409121C17123A5EE3
:103A2000850A82850B83123F17121BE1E9FE700F96
:103A30007C0B7D05123C0A1206CDE97009801A74D0
:103A4000166E70027E001244E5EE7004800B7E015B
:103A5000850882850983124232EEF9024247E0F975
:103A6000AC0CAD0D2212421D8A0C8B0DEA4B227458
:103A7000E8121C3B74FE121BCB8A168B178C148D1C
:103A800015EA2405F50CE43517F50DEA2402F50EC8
:103A9000E43517F50F850E82123C148A088B0975E0
:103AA0000B007C037D0079007A0B7B0512160375F1
:103AB0000A00E50814F5100424FFF508E50934FFB1
:103AC000F509804C90050BE0FA900508E0F8EA282B
:103AD000F8E43400F9E50898E50999500D90050BD4
:103AE000E0F8E510C398900508F0E0F512751300B2
:103AF0007812121E4E124B7690050CE02A12386393
:103B0000121BE1900508E0F890050BE028F0050A8B
:103B1000850C82850D83A3A31244DE4003023BEF94
:103B200090050BE0C39508E495094003023BEFAE16
:103B30000AEE2EFEE433FF123C31AC18AD19124BE5
:103B400083E439FB1209918A128B13AC12AD13EA8C
:103B50004D701B750B01123C2212423690050C125F
:103B600031BE6003121657A90B7402023E9A8516E5
:103B700082851783A3A3A3A3E0F50B780B121E5233
:103B8000E4F512F5137812121E4E7512087513051E
:103B90007812121E4E900509121E657407121C172A
:103BA000121E65A910850E82850F83123F17121B06
:103BB000E1E9F50B70A01245D16003023AC4E4F5C7
:103BC00012F5137812121E4E7CFF7DFF790F850EC1
:103BD00082850F83123F26121BE18B13A913123625
:103BE0002C6003023AC4123C22123F33023B697C30
:103BF0000B7D05850E82850F83123C101206D3E9DA
:103C00006003023B5C7900023B69850A82850B8375
:103C100012389122123C1822F583124225FB12071A
:103C20009F22123C31124225F9EA851482851583C0
:103C300022850C82850D83E02EF8A3E03F8882F573
:103C4000832274E8121C3B74FA121BCB7404121CFE
:103C5000171238798C168D177404121C17E024057E
:103C6000F50EA3E03400F50F7404121C17E02402D3
:103C7000123EA2123EB77F007E00A818A91988083C
:103C800089097808121E4E850E82850F83A3A3A38F
:103C9000A3E0F5088F097808121E4EE50E2405F5FD
:103CA00008E4350FF5097808121E4E850E82850F3F
:103CB00083A3A3123EFF121BE18A0C8B0D802412FA
:103CC0003ED2F00F123ED2F00F90050812420812B9
:103CD0001E4E124B76EFF812385E121BE19005086B
:103CE000E02FFFE50C450D607A8518828519831257
:103CF0001E65AC0CAD0D851482851583123EAE1287
:103D00001BE1E9FEE50C2404F510E4350DF511E99D
:103D1000704B7404121C17123ED8F5087808121E56
:103D200052E4F508F5097808121E4E750808750961
:103D3000057808121E4E900509121E657407121CA4
:103D400017121E65E50A24FAF9AC0CAD0D85148234
:103D5000851583123F17121BE1E9FE6036123EEE15
:103D6000124235EF7003023E8590050CE0F5F0EF4E
:103D70008490050BF07C0B7D0585148285158312DC
:103D80003C101206D9E9600690050D1244E879004E
:103D9000023E98EFF508703DE4F512F51378121223
:103DA0001E4E7CFF7DFF7911851482851583123F9D
:103DB00026121BE18B13A91390050D12362F7009E3
:103DC000123EEE123F32023E98900508E024049025
:103DD000050CF08035900508E0F890050CE0FCE853
:103DE0002404FAE43400FBEA6C4B6003023D69E50D
:103DF0000A24FAFAE50B34FFFBE50828F8E434005E
:103E0000F9EA98EB995003023D6985108285118388
:103E1000E0C0E090050DE02FF8A3E034008882F5C3
:103E200083D0E0F00F851082851183A3E0C0E012FB
:103E30003EBFD0E0F00F7402121C21880889097877
:103E400008121E4E7402121C17121E65850E828502
:103E50000F83A3A3123EE1121BE18A0C8B0DEA4BE8
:103E60007003023CBF7402121C17E0C0E0123EBF98
:103E7000D0E0F00F7402121C17A3E0C0E0123EBFA6
:103E8000D0E0023CC7EE70027E0A850E82850F8369
:103E9000123EF4124235EEF97406121BE17F100255
:103EA0001D0DF514A3E03400F51585148222123897
:103EB00091120979740222123C188A0A8B0B221281
:103EC0003EC32290050DE02FFAA3E034008A82F56C
:103ED0008322123EC374FF22124B62A3A3A3A3E06A
:103EE00022124B7DAA0CAB0D120997740422851087
:103EF00082851183124D0BF9851682851783221254
:103F00004B7D850E82850F8312389112098B7406C2
:103F100022851082851183123891120AF9740922C0
:103F2000851082851183123891120A63740222125D
:103F3000423BE8F0A3E9F079112274EA121C3B74C9
:103F4000FE121BCB8A088B098C128D13EA2405FE06
:103F5000E43509FF1242118A0C8B0DEE2406F50E92
:103F6000E43FF50FEA4B7003024020E5082402F518
:103F70000AE43509F50B8A828B83A3A3A3E0A2E5AB
:103F8000502212404A8A108B11EA4B60247912ACFD
:103F90000CAD0D123C0A851082851183121C39E983
:103FA000F50C707F850E82850F83E0600979528061
:103FB00011750C0E806D850882850983A3A3A3A3C8
:103FC000E0F9E4F508F5097808121E4E8E828F8319
:103FD000A3A3E0F5087808121E4E8E828F83A3A358
:103FE000A3121E658E828F83124B79850A82850B00
:103FF00083124357121BE1E9F50C7011850E82857F
:104000000F83E0702C123C0A1206DF8024741669BC
:104010007011750C007418121C17124B5EE480109E
:10402000750C01124D01851282851383E8F0A3E916
:10403000F0850E82850F83E0600479008002A90C70
:104040007402121BE17F0E021D0D851882851983F3
:10405000123891120AED2274EC121C3B74F7121BF9
:10406000CB8A0A8B0B8C108D11EA2405FEE4350BEC
:10407000FF750C001242118A088B09EA4B7003028B
:1040800041F3E50A2402F50A5002050B8A828B836C
:10409000A3A3A3E0A2E5502512404A8A0C8B0DEAA7
:1040A0004B604F7912AC08AD09123C0A850C828531
:1040B0000D83121C39E9F50C60030241F6850A8272
:1040C000850B83E0F508A3E0F509AA08FB120AE1D5
:1040D000EA4B70197AFF7BFF120AE1EA4B70030288
:1040E00041E98A828B83E508F0A3E509F0750800B1
:1040F0008008750C0E0241F60508900505E0F8E50C
:1041000008C39840030241E9E508F50E750F0074F5
:1041100003780E121BB88A828B83A3A3E0250EF8C6
:10412000A3E0350F1245C670CF8E828F8312422ACC
:104130001238798E828F83A3A312422A123877EE27
:104140002404F508E43FF509850882F583E08882B8
:104150008983A3A3A3A3F0A3E4F0EE2405F50EE462
:104160003FF50F850E82F58312422AA3A3A3A31263
:1041700038777512077513007812121E4EEEFCEF99
:10418000FD7404121C29124B34121BE1E4F5127861
:1041900012121E4E850882850983E0FC7D00791786
:1041A000850A82850B83123F26121BE17407121CBD
:1041B0001712397760388508828509831242081200
:1041C0001E4E850E82850F83124B79124B34121BC3
:1041D000E17402121C31123C0A1206E5E9602374F4
:1041E00007121C171244E88019750C098008750C19
:1041F000118003750C01124D018510828511831207
:104200004235A90C74098041E0F508750900780869
:1042100022AC18AD198E82F58312421D221242255E
:10422000FB12099122E0FAA3E022123891888289D8
:10423000832212423BE8F0A3E9F022E0F8A3E0F980
:10424000850E82850F83227404121BE17F0C021DF0
:104250000D74EC121C3B124345751000EA2402F564
:104260000CE43FF50D850C82F583123C10120AE137
:104270008A088B09EA4B7003024329850A82850B61
:1042800083E06401600302431EAC08AD09AA0AABD7
:104290000B120AD5E9606F85088285098312360FF3
:1042A000EE2406F50AE43FF50B8E828F83A3A3125A
:1042B0001E658E828F83A3A3A3A3121E65850A8227
:1042C000850B83121E6579188E828F83124B798538
:1042D0000C82850D83124357121BE1E9F8741668AE
:1042E000700B850A82850B83E4F0A38014E96012C9
:1042F0008E828F83123C10850E82850F83EAF0A395
:10430000EBF089108018780E121E4EAC08AD09EE45
:10431000FAEFFB120ADB7402121BE1E9F510AA089E
:10432000AB09120AE7E510700E850C82850D831229
:104330003C101206EB8009741665107003751000AE
:10434000A91002424CEAFEEBFF8C0E8D0FEA240509
:10435000F50AE43FF50B22123891120AFF74062287
:1043600074EA121C3B7508007509007E007F007519
:104370000A00EC2402F510E43DF5118035EC6508E7
:104380007003ED6509600302441588828983A3A345
:10439000E06A7003A3E06B707C88828983A3A3A387
:1043A000A3124D05EE28FEEF39FFEA28FAEB39FBA0
:1043B000050A1244DB503BE50AF50C750D00740349
:1043C000780C121BB88510828511831244CE1245D9
:1043D000C6601FE508450970A48C088D098882898C
:1043E0008312360D88828983A3A3E02EFAA3E03FCF
:1043F00080BDE50AC3940250030244C975080075E4
:104400000900EE4F600FEEFAEFFB1216518A0E8B89
:104410000FEA4B700579000244CB750B00807FE5F5
:104420000BF50C750D007403780C121BB885108207
:10443000851183E0250CF50CA3E0350DF50DE50C99
:104440002406F514E4350DF5158514821245C9606E
:104450003AE50C2404F512E4350DF513851282F5C6
:1044600083121E65E50E2508FAE50F124B2D121B6F
:10447000E1851282851383E02508F508A3E035095C
:10448000F5098514828515831244E8E50B600D7CDF
:10449000087D007900AA0CAB0D121603050BE50B85
:1044A000C3950A500302441F851082851183124D63
:1044B000058882F583A3A3A3A3A3A3E50EF0A3E538
:1044C0000F1231C5EEF0A3EFF0790102404512441E
:1044D000D222E0250CF8A3E0350D22900505E0F886
:1044E000E50AC3982290050C1238911216572274CF
:1044F000F0121C3B8A0E8B0F8C0A8D0B750D00750C
:104500000C00804A7916EE2406F508E43FF5098E82
:10451000828F83A3A3121E658E828F83A3A3A3A37E
:10452000121E65850882850983121E65850E8285A7
:104530000F83A3A3124357121BE1E9F50D7416690B
:104540007064850882850983E4F0A3F0050C90056A
:1045500005E0F8E50CC398505EAA0C7B008A088B36
:104560000974037808121BB8850A82850B83A3A3FC
:10457000124620E8FEE9FF1245C7603BEA24010A23
:1045800050010B900505E06A7001EB601488828988
:1045900083A3A3A3A3A3A3A3A31245D460030245AB
:1045A000047918024506E960A3124D017410121C2B
:1045B000171245BE124235A90D7F08021D0D124289
:1045C00025F5838A8222F98882F583124B7DEC4D92
:1045D0002290050C124D0BF9E8492274F6121C3B8F
:1045E0007C0080010C900562E0F8ECC398501FEC51
:1045F000F50875090074027808121BB8124615E018
:104600006A7003A3E06B70DCE8FAE9FB80047A00CF
:104610007B000246B19005031246208882F5832272
:10462000E02508F8A3E03509F92274F2121C3B8A50
:10463000088B09750A0080278E828F83A3A3A3A30A
:104640001231BC60031216577C087D007900EEFA27
:10465000EFFB1216038E828F83E4F0A3F0050A129B
:1046600044DB5028E50AF50C750D007403780C1234
:104670001BB8850882850983A3A3E0250CFEA3E06F
:10468000350DFF8E82F5831245D470AC8508828586
:10469000098374FFF0A3F0024DEE74F6121C3B1276
:1046A0004CA270067A007B008007A3A3A3A3123C50
:1046B000107F02021D0D74F6121C3BE9FE8C828DE8
:1046C00083E06402703D124C92F508A3E0F9A8085B
:1046D00074026870037429697029750802750900ED
:1046E0007808121E4E740E121C17121E65740E12DC
:1046F0001C17121E65EEF91213817406121BE1E9F4
:10470000F98002790180AA74E8121C3B74FB121B29
:10471000CBE9851882851983F08A168B17ECFEED9C
:10472000FF7510008C82F583A3A3A3E0A2E4502AB6
:10473000741D121C171240508A828B83E5824583B8
:104740007003024B23790AEEFCEFFDAA16AB171299
:104750001C39E9F5106003024B26741F121C17E088
:10476000F508A3E0F5097421121C17E0F50AA3E08F
:10477000F50B7423121C17E0F50EA3E0F50F8E82E3
:104780008F83E064026003024ACFA3124D058508BF
:1047900082850983A3858212858313EE2406F50C96
:1047A000E43FF50D88828983124B83F514E439F5D3
:1047B000157814121ED8010000280128DE470700D2
:1047C0000228AA48032813480029CB490129F649A1
:1047D000022994490329CB4904296C4ACF4AE50EA2
:1047E000450F6003024ACA850C82850D83124D0570
:1047F000E8FAE98882F583E0850A82850B83124B0B
:104800008D124B3A121E4E8A828983A3E0FCA3E0EC
:10481000024A58E50E450F6003024ACA850A82859E
:104820000B837401F0124B6B850882850983F07C41
:10483000007D008E828F83A3A3A3A3E02401FAA3AB
:10484000E03400FB120991EA4B60458A828B83E0D9
:104850002402F8850A82850B83E028F0EA2404F814
:10486000E43BF98882F583E0851282851383124B3D
:1048700093F08A828B83124B3A121E4E8A828B836C
:10488000A3124B79E5082403FAE43509FB024A5DDB
:10489000850A82850B83E02404F07C047D00790086
:1048A000AA12AB13121603024B26E50E450F600346
:1048B000024ACA124B6BFEA3E0FF850A82850B8376
:1048C0007404F0EE850882850983F0EF85128285F5
:1048D0001383F07403121C31124C84700302497567
:1048E0008A828B83A3A312360D7401121C21880EB9
:1048F000890F780E121E4E7405121C17121E657C4D
:10490000FF7DFF1209977404121BE1EA4B70338597
:104910000C82850D83124B55121E4E850C82850D1F
:1049200083A3121E657C027D007A947B8312078D1F
:104930007404121BE1E9700A7401121C1774FFF071
:10494000A3F08E828F83E064027034750C02750DC3
:1049500000780C121E4E8E828F83A3124B79E508CD
:104960002404FAE4124B2D121BE1850A82850B8385
:10497000E0240280097401121C17EEF0A3EFF0741A
:1049800001121C17124B4BF07401121C17A3124B8F
:1049900043024AC4E50E450F6003024ACA850C82F1
:1049A000850D83124B5E124B79AA16AB1712138733
:1049B000850A82850B837402F0850882850983EA63
:1049C000F0851282851383EB024AC7E50E450F601E
:1049D00003024ACA124B6BF8A3E0F9850A82850BE1
:1049E000837402F0E8850882850983F0E9851282E4
:1049F000851383024AC7850C82850D83123C1012F1
:104A000015E5EAF8C3950EE4950F405AEA650E45A0
:104A10000F700478008021851882851983E0FCE5F9
:104A20000E2CFCE4350FFDC3EC9AED94005003E02E
:104A30008005E50EC8C398F8E8850A82850B83F0E7
:104A4000F50A750B00780A121E4E850C82850D83BF
:104A5000E0250EFCA3E0350FFDAA08AB09124B348C
:104A6000121BE1024B26751007024B26E50E450F7F
:104A70007058850C82850D83124D05850A82850B41
:104A8000837407124B8D124B43124B8DA3E085129A
:104A900082851383F0E82402FAE439FB8A82F583E5
:104AA000124B43A31230A4124B4B1231C4124B4F82
:104AB000F0E82405F8500109F5828983124B4FA3D1
:104AC000124B93A3A3A3A3F0805C75100B805774C3
:104AD0001D121C17124C9B604A124D0B880CF50DD1
:104AE000E8450D603E7425121C17E0F51078101291
:104AF0001E52780E121E4E780A121E4E7808121E92
:104B00004E7407121C17E0F9EEFCEFFDAA16AB1766
:104B1000850C82850D83121C397407121BE1E9F59F
:104B200010800375100EA9107405023E9A35091203
:104B30004B3322FB1215EB740222E0F50A750B00D1
:104B4000780A22E085088285098322124B9D221271
:104B50004B9DA3A322E0F50E750F00780E22124B99
:104B60006222E0F8A3E0F583888222850C82850D1D
:104B700083124B62E022900509124B7D22E0FCA3D8
:104B8000E0FD22124225F8E4C8F9EA2822F08882E2
:104B9000898322F088828983A3124B9D22E08508B5
:104BA00082850983A3A32274EE121C3B74FE121BA0
:104BB000CB8A088B09ECFEEDFF890AAC18AD1912FF
:104BC0004C847003024C75851882851983124C9BA6
:104BD0007003024C70A3124D0A880EF50FE8450FC2
:104BE0007003024C707414121C17E0F510A3E0F56A
:104BF00011E50AF50B780B121E527419121C1712CC
:104C00001E657810121E4E741B121C17123A5EAAF3
:104C100008AB09850E82850F83121C397405121B9F
:104C2000E1E9F50B705274FE650A604C850C8285D3
:104C30000D83E064027041124C92FAA3E0F9EAF8A5
:104C40007402687003742969702E8510828511833F
:104C5000124B83F50CE439F50D780C121E4EEEFC68
:104C6000EFFDAA08AB09120B177402121BE18008B2
:104C7000750B0E8003750B01A90B7402121BE17FEB
:104C80000A021D0DEEFAEFFB1209918A0C8B0DEA58
:104C90004B22124D0A8882F583E022123891124C81
:104CA000A222120A938A828B83E58245832274F6BC
:104CB000121C3B74FE121BCB740C121C17124D05F8
:104CC000E8851882851983F07401121C17E9F0E455
:104CD000F508F5097808121E4E7508027808121EAC
:104CE0004E7404121C21880889097808121E4E7916
:104CF000FE120AFF7406121BE17402121BE1024647
:104D0000B18E828F83124D0BF922A3E0F8A3E0222B
:104D100074F7121C3BEAFEEBFF8908900520124B4A
:104D200079121387EA5402600BA908EEFAEFFB121E
:104D30000985800279017F01021D0D74F2121C3B6E
:104D400074FE121BCBEAFEEBFF7401696013740260
:104D5000696003024DE97901120D1BE96003024D00
:104D6000E9EEFAEFFB120AE1EA4B6003120AE7A848
:104D700018A919880889097808121E4E7508027545
:104D800009007808121E4E750856750983780812B6
:104D90001E4E7CFF7DFF7A017B0012098B74061288
:104DA0001BE1803B850882850983A3A3A3A3A3A35A
:104DB000124B5E124B79EEFAEFFB12137BE4F50C0B
:104DC000F50D780C121E4E7402121C17121E657C13
:104DD000FF7DFFAA08AB091209977404121BE18A30
:104DE000088B09E508450970BB7402121BE17F06B8
:104DF000021D0D74F4121C3B8A088B09ECFEEDFFBA
:104E0000901611E0F460487A097B0012160FEA4B05
:104E1000603D8A828B8374B1F0A3E4124E5212304B
:104E2000A5A3E508F0A3E509124E52A3EEF0A3EF07
:104E3000F0740C121C17124D058A828B83A3A3A356
:104E4000A3A3A3A3124235901611E0F912161B0278
:104E500031FAF08A828B83A3A3A3A32274EC121CE1
:104E60003B74EA121BCBECFEEDFF7508008A0A8B3F
:104E70000B780A121E920004109C519D4EBA4ED51A
:104E80004EF24E0F4F2C4F4E4F6A4F7C4FB04F2A71
:104E9000514151585172519C519C51E34F740169D9
:104EA00060030251968C828D83E0F8C39403400323
:104EB000025196E89016FD024FDF7402696003020A
:104EC00051968C828D83E0F8A3E0F99016FEE8F00D
:104ED000A3E9024FDF74016960030251968C828D51
:104EE00083E0F8C394024003025196E890096902F6
:104EF0004FDF74016960030251968C828D83E0F864
:104F0000C394054003025196E890096A024FDF748A
:104F1000016960030251968C828D83E0F8C394028C
:104F20004003025196E890096B024FDF74106960EC
:104F300003025196750A10750B00780A121E4E7AFC
:104F40006C7B091215EB7402121BE102508574018F
:104F50006960030251968C828D83E0F8C39402400D
:104F600003025196E890097C807574016960030220
:104F700051968C828D83E090170180637404696080
:104F8000030251968C828D83780C121A6B75104037
:104F900075114275120F7513007810790C1217D322
:104FA000400302519690097E780C121A7A025085BD
:104FB000E9600302519612091FE9701E7E00EEF9A6
:104FC00012135DE9F80EEEC3940A5003E960EF791D
:104FD000501216ED121357025085900A117401F009
:104FE0000250857407696003025196750A06750BB5
:104FF00000780A121E4E8C828D83A3AC82AD83741E
:1050000002121C291215F17402121BE1750A0A8E94
:10501000828F83E070030250C81470030250C814DA
:10502000606E1460030251037F007E23750A84754D
:105030000B097C0679FFAA0AAB0B12164BE9702DFF
:105040007406121C317A10EEF91216E7E9701E7C14
:105050001079FF7406121C2912164BE9700FAC1858
:10506000AD197406121C2912080BE9601F0FE50A1E
:10507000240EF50A5002050B74062EFEEFC3940AA7
:1050800040B0750802A9087416026B288F0A807355
:10509000750B007E8A7F09750C06750D00780C1261
:1050A0001E4E7402121C31EEFAEFFB1215FD740253
:1050B000121BE1E9704A050BEE240EFE50010FE5CC
:1050C0000BC3940A50BC80CF750B007E847F09759A
:1050D0000C06750D00780C121E4E7402121C31EE77
:1050E000FAEFFB1215FD7402121BE1E97012050BB9
:1050F000EE240EFE50010FE50BC3940A508480CFBE
:10510000850B0AE50AC3940A400302508212091F64
:10511000E97008A90A12135D024FCFA80A74122879
:10512000F582E4340AF583024FDD74016970678CFF
:10513000828D83E0F8C39402505CE890097D024FB1
:10514000DF74016970508C828D83E0F8C3940A503B
:1051500045E8901700024FDF74016970398C828D29
:1051600083E0F874F928C3940A502BE890170202E0
:105170004FDF740169701F900A10E0F88C828D83F4
:10518000E0900A10F0E86003025085E064016003DB
:10519000025085024FD4750818025085C3EA94273F
:1051A000EB94004003025082740269600302508253
:1051B0008C828D83E0FCA3E0FD1207A5E9F50802CF
:1051C000508574F4121C3BECFEEDFF7508008A0A52
:1051D0008B0B780A121E9200040EA652FA51FF5150
:1051E000125217521C5221523F5244524952A65257
:1051F00058525D526252675271529016FD806B9008
:1052000016FEE0F8A3E0F98C828D83E8F0A3E902B2
:1052100052BA900969805390096A804E90096B8058
:1052200049750A10750B00780A121E4E7C6C7D09B8
:10523000EEFAEFFB1215EB7402121BE10252C09062
:10524000097C8026901701802190097E121AB98C62
:10525000828D83121AC5806890097D800D90170099
:1052600080089017028003900A10E08C828D838062
:1052700049750900750A84750B097C0679FFAA0A2D
:10528000AB0B12164BE970020509E50A240EF50A6C
:105290005002050B64107004E50B640A70DC8E820A
:1052A0008F83E5098014C3EA9427EB9400500E1213
:1052B00007AB8E828F83EAF0A3EBF08003750802C0
:1052C000A9087F04021D0D74EE121C3B7495121B7D
:1052D000CB8A0A8B0B8C0E8D0F9082CE740E121C13
:1052E000317406121ADE7E0A747D121C17E0F50C6A
:1052F000E970030253D61470030253D614606B1482
:1053000060030254377509007508237E847F097C89
:105310000679FFEEFAEFFB12164BE9702D74281296
:105320001C317A10A9081216E7E9701E7C1079FF6B
:105330007428121C2912164BE9700FAC0AAD0B74BD
:1053400028121C2912080BE9601B0509EE240EFE29
:1053500050010F74062508F508E509C3940A4003B7
:1053600002559C80AAAE09EE803E7F0075088A75C2
:1053700009097510067511007810121E4EAC0AADA1
:105380000BAA08AB091215FD7402121BE1E9701695
:105390000FE508240EF50850020509EFC3940A40F2
:1053A0000302559C80CCEFFEC3940A40030254379D
:1053B000AC18AD197A0E75F006EEA42420F9121679
:1053C000E7E9707C7508067509007808121E4E74AE
:1053D00002121C3180527F0075088475090975100E
:1053E000067511007810121E4EAC0AAD0BAA08AB60
:1053F000091215FD7402121BE1E970160FE508246D
:105400000EF50850020509EFC3940A400302559CAB
:1054100080CCEFFEC3940A501E750806750900780B
:1054200008121E4EAC0AAD0B7410121C291215EB9B
:105430007402121BE18009EEC3940A400302559CDA
:1054400075F006EEA4F508AC18AD197A0E74202597
:1054500008F91216E7E97009740C121C17E0FF80B6
:10546000027F009016FDE064027005750A0180035A
:10547000750A007408650C7004742280027421257A
:1054800008F5097C1B7D0079007438121C2912165E
:10549000037438121C317A1BA9091216E7E9702D22
:1054A0007452121C17E024F9C3940A5020E50AF53F
:1054B000097809121E527439121C31EFA2E0E4334C
:1054C000F9AA0EAB0F1208477401121BE17C147D80
:1054D000007900EC121C291216037414121C317A84
:1054E0001074242508F91216E7E970347C1079FF4E
:1054F0007414121C2912164BE970257424121C17FF
:10550000AC82AD837A0474252508F91216E7741469
:10551000121C31EFA2E0E433F9AA0EAB0F12082FF0
:105520007453121C317A1874702EF91216E7E97050
:105530005A7453121C2912134B7453121C218808DD
:105540008909850882850983E0FCA3E0FDEC4D60B4
:105550001F850882850983A3A3E0F50A750B0078EF
:105560000A121E4EAA0EAB0F120B057402121BE19B
:10557000E5082403F50850020509746B121C17E5B1
:105580008265087004E583650970B7EFA2E1500CED
:10559000900968E0F9AA0EAB0F120B0B7404650CAE
:1055A00070289016FDE0640270207A0090097CE07B
:1055B00060027A01900969E0600478048002780052
:1055C000E84AF9AA0EAB0F1208F57900746B02577E
:1055D000A574F7121C3B12091FE9705E900A11E0D6
:1055E000640170257E00EEF912135DE9F80EEEC33A
:1055F000940A5003E960EF900A11E4F07C0AFDF987
:105600007A127B0A12160380297508007E127F0A1F
:105610008E828F83E06401700BA90812135D8E8265
:105620008F83E4F00508A3AE82AF83E508C3940A34
:1056300040DE79501216ED12135702649174EE1287
:105640001C3B74E2121BCB8A0E8B0F8C0A8D0B7FD6
:105650000AE9600F14600C14606A147003025704A6
:105660000257A17E00750C84750D09751006751121
:10567000007810121E4EAC0EAD0FAA0CAB0D121519
:10568000FD7402121BE1E970160EE50C240EF50CF8
:105690005002050DEEC3940A40030257A180CCEEE0
:1056A000FFC3940A40030257A1E50A450B700302A9
:1056B00057A1750C06750D00780C121E4EAC0EAD80
:1056C0000F0257957E00750C8A750D0975100675C9
:1056D00011007810121E4EAC0EAD0FAA0CAB0D12BD
:1056E00015FD7402121BE1E970160EE50C240EF58F
:1056F0000C5002050DEEC3940A40030257A180CC62
:10570000EEFF80627508007E23750C84750D097CA0
:105710000679FFAA0CAB0D12164BE9702D740E1210
:105720001C317A10EEF91216E7E9701E7C1079FF31
:10573000740E121C2912164BE9700FAC0EAD0F74CB
:105740000E121C2912080BE960190508E50C240E3D
:10575000F50C5002050D74062EFEE508C3940A50A0
:105760004080ACAF08EFC3940A5036E50A450B60A1
:1057700030AC18AD197A0E75F006EFA42420F9129A
:1057800016E7E9701C750C06750D00780C121E4E9C
:105790007402121C31AA0AAB0B1215EB7402121B15
:1057A000E1EFF9741E121BE17F0A021D0D74EC1269
:1057B0001C3B74CA121BCB8C108D11750815744AD2
:1057C000121C17E0FEA3E0FF74FF6A700374FF6B06
:1057D0006003025927750900750A207428121C31CC
:1057E0007A0EA90A1216E7E960030258E07C0679EE
:1057F000FF7428121C2912164BE960030258E0744A
:10580000702509F50BAC18AD197A18F91216E7E9ED
:1058100060030258DDAA18AB1912134BE5104511AD
:1058200070217C187900AA18AB1912164BE9600395
:105830000258DD7C187D007900AA18AB19121603F6
:105840000258CB7A00A818A91988828983E06510CC
:105850007004A3E0651170030258F50AE82403F808
:10586000500109EAC3940840E078007900E84970E3
:105870003BEE4F606B7C00A818A91988828983E0F1
:10588000FAA3E0FBEA4B700302590E0CE82403F87C
:10589000500109ECC3940840E278007900E84960BF
:1058A0003F88828983E510F0A3E511F0E82402F532
:1058B00082E439F583E0FAEE6A7001EF601FEEF0E2
:1058C0004F700888828983E4F0A3F0AA18AB1912FC
:1058D000134BAC18AD197A18A90B1216E175080014
:1058E00005097406250AF50AE509C3940A4003026E
:1058F0005A5C0257DBEA75F003A4F8A9F085188218
:10590000851983E58228F8E58339F902586DEC752D
:10591000F003A4F8A9F0851882851983E58228F898
:10592000E58339F902589D120D0F8A828B83E58237
:1059300045837003025A59E5822405F50EE4358348
:10594000F50F750C0AA3A3A3A3E07003025A011478
:105950007003025A0114606D146003025A40750905
:1059600000750A23750C84750D097C0679FFAA0C55
:10597000AB0D12164BE9702D7418121C317A10A958
:105980000A1216E7E9701E7C1079FF7418121C29A0
:1059900012164BE9700FAC0EAD0F7418121C2912C1
:1059A000080BE9601E0509E50C240EF50C500205F4
:1059B0000D7406250AF50AE509C3940A4003025A44
:1059C0005C80A78078750900750A8A750B097512C5
:1059D000067513007812121E4EAC0EAD0FAA0AAB5C
:1059E0000B1215FD7402121BE1E970510509E50A5D
:1059F000240EF50A5002050BE509C3940A505D8098
:105A0000CD750900750A84750B09751206751300AA
:105A10007812121E4EAC0EAD0FAA0AAB0B1215FD7A
:105A20007402121BE1E970150509E50A240EF50A56
:105A30005002050BE509C3940A502180CD85090C5D
:105A4000E50CC3940A5015EEFCEFFDAA10AB11A9AA
:105A50000C1213457508008003750814A9087436E4
:105A6000026B28C082C083900982EAF0A3EBF09019
:105A70000968E0FC7D007A267B001207A590096882
:105A8000E0F9120A6FD083D08202013274EC121C4A
:105A90003B8A088B09E97E00703B7808121E4E7421
:105AA00016121C17780C121A6B751040751142757E
:105AB000120F8E13780C7910121892AA10AB11AC39
:105AC00012AD131208417402121BE1E9FE6009795C
:105AD00001AA08AB0912083BEEF9026B2B74F01215
:105AE0001C3B74DC121BCBEAFEEBFF8A82F583A31E
:105AF000A3E024FA7003025F5D24FD7003025D41A0
:105B0000147003025BAC14601024FD7003025D008E
:105B1000147003025E77025F6C900982E0F8A3E0E4
:105B2000F9E8496058E0F5838882E0F8A3E0880846
:105B3000F509E845096046EA240CF582E43FF5835F
