:020000040000FA
:1000000002075BC2AFF5088112FFFFC2AFF508819E
:1000100024FFFFC2AFF5088136FFFFC2AFF50881AC
:1000200048FFFFC2AFF508815AFFFFC2AFF5088154
:100030006CFFFFC2AFF508817EFFFFC2AFF50881FC
:1000400090FFFFC2AFF50881A2FFFFC2AFF50881A4
:10005000B4FFFFC2AFF50881C6FFFFC2AFF508814C
:10006000D8FFFFC2AFF50881EAFFFFC2AFF50881F4
:10007000FCFFFFC2AFF508A10EFFFFC2AFF508A15C
:1000800020FFFFC2AFF508A132FFFFC2AFF508A104
:1000900044FFFFFF758701002274FC120721750AD7
:1000A00004750B00780A12074A74021207907A004E
:1000B0007B00790812055A7402120706850E8285A4
:1000C0000F83E0F47003A3E0F470030201FF850ED8
:1000D00082850F83E0F8A3E0F9E84970030201FF8D
:1000E0007402120786E0687003A3E0697010750956
:1000F00001024030C2AF75C9AB75C95B80FE53BE0B
:10010000FBE59DA2E650FAE5C654804449F5C6E5F4
:100110009E547F644970F853C67FE59EA2E740FA7B
:1001200053C680E59E547F70FA43BE04906270749B
:1001300008F0750A00F50B780A12074A7C807D01E9
:100140007A007B00790812055A74021207069001A2
:1001500086E0F50AA3E0F50B7409780A12076AE550
:100160000A2408FF53B4F375BC0075BC007CFC7D09
:10017000077A047B0079081203857E09EFC3940A8D
:10018000401C800774086E70027E467C007D087AF1
:10019000007B00EEF91203850EEEC39F40E6A8BD7A
:1001A000850E82850F83E8F9E5BCF8E0687003A34B
:1001B000E069704B850E82850F83E0F8A3E0F97447
:1001C00002120786E8F0A3E9F0850E82850F83749A
:1001D000FFF0A3F07409F5D57480F5D4750A0178A1
:1001E0000A12074A74021207907A007B101205DF88
:1001F0007402120706C2AF75C9AB75C95B80FE7584
:100200000A04780A12074A74021207907A007B00E7
:10021000790112055A7402120706850E82850F8332
:10022000E0F47003A3E0F47003020375850E828589
:100230000F83E0F8A3E0F9E8497003020375740244
:10024000120786E0F8A3E0F9850E82850F83E06847
:100250007003A3E0697010750900020830C2AF7521
:10026000C9AB75C95B80FE74FF68700374FF696079
:100270000302037553BEFBE59DA2E650FAE5C654A2
:10028000804449F5C6E59E547F644970F853C67FA3
:10029000E59EA2E740FA53C680E59E547F70FA437C
:1002A000BE049062707408F0750A00F50B780A12AB
:1002B000074A7C807D017A007B00790112055A741F
:1002C00002120706900186E0F50AA3E0F50B740917
:1002D000780A12076AE50A243FFF53B4F375BC009D
:1002E00075BC007CFC7D077A047B007901120385D4
:1002F0007E02EFC39403401C800774086E70027E78
:10030000467C007D087A007B00EEF91203850EEE34
:10031000C39F40E6A8BD850E82850F83E8F9E5BC42
:10032000F8E0687003A3E069704B850E82850F8347
:10033000E0F8A3E0F97402120786E8F0A3E9F0857B
:100340000E82850F8374FFF0A3F07409F5D57480D5
:10035000F5D4750A01780A12074A74021207907AD6
:10036000007B021205DF7402120706C2AF75C9AB2B
:1003700075C95B80FE43BE03120094C2AF75C9AB62
:1003800075C95B80FE74F7120645E9FEAFC7740FAE
:100390005EF50A750B00740B780A120737EA240021
:1003A000F8EB350BF9EA2400E93480F9A2AFE43325
:1003B000F50AC2AFEEC4540FFAE5C754F84AF5C7C0
:1003C000E9900980F0E8A3F0A37470F0A374BDF085
:1003D000EC900985F0ED541F900984F09009867423
:1003E00020F0A37442F07409F5D57480F5D475D665
:1003F00001000000000000000000000075D701E5CA
:10040000D7A2E040FA8FC7E50AA2E092AF7F0202CE
:1004100006ABE5096007E508D2AF024033E508D234
:10042000AF020833E5096007E508D2AF02403BE5BB
:1004300008D2AF02083BE5096007E508D2AF0240E9
:1004400043E508D2AF020843E5096007E508D2AFEB
:1004500002404BE508D2AF02084BE5096007E5080A
:10046000D2AF024053E508D2AF020853E509600756
:10047000E508D2AF02405BE508D2AF02085BE509B0
:100480006007E508D2AF024063E508D2AF02086317
:10049000E5096007E508D2AF02406BE508D2AF027C
:1004A000086BE5096007E508D2AF024073E508D2A2
:1004B000AF020873E5096007E508D2AF02407BE5AB
:1004C00008D2AF02087BE5096007E508D2AF024019
:1004D00083E508D2AF020883E5096007E508D2AFDB
:1004E00002408BE508D2AF02088BE5096007E508FA
:1004F000D2AF024093E508D2AF020893E509600746
:10050000E508D2AF02409BE508D2AF02089BE5099F
:100510006007E508D2AF0240A3E508D2AF0208A306
:10052000E5096007E508D2AF0240ABE508D2AF02AB
:1005300008ABE5096007E508D2AF0240B3E508D291
:10054000AF0208B3E5096007E508D2AF0240BBE59A
:1005500008D2AF0208BB0002055674F512064589A1
:100560000A740F59F50C750D00740B780C120737CF
:10057000EA2400F8EB3480F9EA2400E9350DF98526
:10058000C70CA2AFE433F50BC2AFE50AC4540FFAAF
:10059000E5C754F84AF5C7740B120786E0FEA3E0DE
:1005A000FFEE4F602CEEFAEFFB88828983E08C82AD
:1005B0008D83F088828983A3A882A9838C828D830E
:1005C000A3AC82AD83EA24FF1AEB34FFFBEA4B7045
:1005D000D8850CC7E50BA2E092AF7F040206AB748E
:1005E000F7120645ED900980F0ECA3F0A37462F0D9
:1005F000A37473F0A3E0541FF07409120786E0F5AA
:100600000AA3E0F50BE50A333354FC900985F07436
:1006100006780A12076AE50A900984F09009867440
:1006200012F0A37442F075D11E75D601EA90627182
:10063000F0EBA3F0906270E0D2E1F0E0A2E740FBC3
:100640007F020206AB250EC582C0E0E50F34FFC570
:1006500083C0E0E50EC3958224F910AF0885830FAF
:1006600085820E800885830F85820ED2AFCEF0A3DF
:10067000E520F0A3780AE608F0A3DEFAEFF0A3E5A0
:100680008124FBF8E608F0A3E608F0A30808E608D2
:10069000F0A3E608F0A315811581D0E0FED0E0F8C4
:1006A00015811581E8C0E0EEC0E022850F83850E3C
:1006B00082E0A3FEE0A3F520780AE0A3F608DFFAC3
:1006C000E0A3FFE0A3C0E0E0A3C0E0E0A3C0E0E05F
:1006D000A3C0E010AF0885820E85830F8008858255
:1006E0000E85830FD2AFD083D08222250EF58210E3
:1006F000AF08F50E400C150F8008F50E4002150FDF
:10070000D2AF850F832200C0D0250E10AF08F50EA2
:10071000500C050F8008F50E5002050FD2AFD0D057
:1007200022250E10AF08F50E400C150F8008F50EAF
:100730004002150FD2AF22700422600D18C6C333D9
:10074000C608C633C6D5E0F4182274028000C0E0A3
:10075000F4041206EBD0E01207792275D0007581FF
:100760003F750E80750F01020798600C08C6C31311
:10077000C618C613C6D5E0F422CAC0E0E6F0A30846
:10078000DAFAD0E0FA22250EF582E4350FF583225D
:10079000250EFCE4350FFD2212009912079E000081
:1007A0000080FBFFFFFFFFFFFFFFFFFFFFFFFFFFDB
:1007B000FFFFFFFFFFFFFFFFFFFFFFFFFFFFFFFF49
:1007C000FFFFFFFFFFFFFFFFFFFFFFFFFFFFFFFF39
:1007D000FFFFFFFFFFFFFFFFFFFFFFFFFFFFFFFF29
:1007E000FFFFFFFFFFFFFFFFFFFFFFFFFFFFFFFF19
:1007F000FFFFFFFFFFFFFFFFFFFFFFFFFFFFFFFF09
:10080000856DFFFF0E00007C41414141FFFFFFFF6E
:10081000FFFFFFFFFFFFFFFFFFFFFFFFFFFFFFFFE8
:10082000000102030405060708090A0BFFFFFFFF8A
:10083000020DFA021C9AFFFFFFFFFFFFFFFFFFFF01
:10084000FFFFFFFFFFFFFFFFFFFFFFFFFFFFFFFFB8
:10085000FFFFFFFFFFFFFFFFFFFFFF0223F4FFFF8C
:10086000FFFFFF0223D7FFFFFFFFFFFFFFFFFFFF99
:10087000FFFFFFFFFFFFFFFFFFFFFFFFFFFFFFFF88
:10088000FFFFFF021D10FFFFFFFFFFFFFFFFFFFF46
:10089000FFFFFFFFFFFFFFFFFFFFFF02238AFFFFB6
:1008A000FFFFFFFFFFFFFFFFFFFFFF0223B0FFFF80
:1008B000FFFFFF021AF701120A0A0A02548401001C
:1008C000003284025084010000DB15108682010092
:1008D000008202025A840300008502025084010053
:1008E00000DC1510468203000087020250840100DC
:1008F00000DD15109681030000DE15120A020A0AB7
:1009000002548401000038840250840100001F1644
:100910001056820100008A02025A840300008E02EF
:10092000025084010000201610D6800300009002BF
:10093000025084010000221610F6800300002316E6
:10094000025084010000211610E68001000091028F
:10095000025A84030000A102FF0000B40000280036
:100960002800283075A000A000A000A0000008000A
:1009700008E001F00010001000100010001000103E
:100980000050005000500010001000D00700000080
:100990000000000F00010005003075070010000185
:1009A0000081FF00000000FFFFFF7B2699268126C3
:1009B000BD26FF02020208025000A0000000E8036A
:1009C0000254840100004784025084010000D716BD
:1009D000025C84010000E102025084010000D8168C
:1009E000025E84010000F702025084010000D91663
:1009F000026284010000F902025084010000DA164C
:100A0000026C84080000FA02025084010000DB1628
:100A1000027A84010000DC16FF0100FF20025484EA
:100A200001000041840250840100004017026E84DE
:100A30000000000000025A84030000280317001D74
:100A40002D1D2D1D2D1D2D1D2D1D2D1D2D1D2D1D56
:100A50002D1D2D1D2D1D2D1D2DDB2FED2FD52F1205
:100A600008080254840100002F8402508401000011
:100A700083171096820100006A07025A840300005F
:100A80007007025084010000841710768202000073
:100A90007207025084010000851710668202000070
:100AA0007A07020202020202020202010D000000A5
:100AB00010010254840100003E84025084010000B1
:100AC000C6170276840100007B07025084010000F3
:100AD000C717027484010000C58002508401000021
:100AE000C81702728401000085830250840100004F
:100AF000C917027084010000A18002508401000027
:100B0000CA17026A840100008A830250840100002F
:100B1000CB1702688401000080830250840100002A
:100B2000CC17026684010000B380025084010000EB
:100B3000CD17026484010000F48202508401000099
:100B4000CE17026084010000CF1701E8030577107B
:100B50000A120A0A0A0254840100004D84025084D9
:100B600001000075181016820100003F08025A8427
:100B70000300004508025084010000761810068228
:100B80000300004708025084010000771810F68126
:100B90000300007818038000008070006180120A52
:100BA0000A0A0254840100003B84025084010000C0
:100BB000C21810D681010000D208025A8403000036
:100BC000D608025084010000C31810C6810300003B
:100BD000D808025084010000C41810B68103000038
:100BE000C518120A0A1E0254840100004A840250E9
:100BF00084010000061910B682010000DB08025AC9
:100C000084030000DF0802508401000007191076F9
:100C100081030000E10802508401000008191066F9
:100C2000810300000919120A0A0A02548401000013
:100C300044840250840100004A19104681010000DA
:100C4000E408025A84030000EA080250840100000C
:100C50004B19103681030000EC080250840100009B
:100C60004C191016810300004D191C025484010018
:100C70000035840250840100008E1910308002007B
:100C800000ED08025A84030000EF0802808401008E
:100C90000002830250840100008E1910408002007F
:100CA00000EE08025A84030000F10802808401006B
:100CB000000F83FFFFFFFFFF0001307503020106F5
:100CC0000000000000000000000000000000000024
:100CD000000000000000000000000000FFFF060010
:100CE000800CE8030A0953656E736F7254616705DF
:100CF0001250002003020A00020105544920424C10
:100D0000452053656E736F722054616700D007E809
:100D100003E803E803E803E8034136000047364DE3
:100D20003653365F36593665366B367136104B653D
:100D30007920507265737320537461746500025496
:100D4000840100001983025084010000511A027EC0
:100D500084000000D815025A84030000D9150280CF
:100D600084010000521AE5C754F84405F5C779011B
:100D70002200000080FB120D66B90003020DE4E4BE
:100D800079217808B800028004F709D8FCE47929B1
:100D90007802B800028004F709D8FCE49002807859
:100DA0005C79148002F0A3D8FCD9FA781C9008B6BC
:100DB0007A01BA00028007E493A3F608DAF97ADB35
:100DC0007B159008B778B079058015E493A3AD82C0
:100DD000AE838A828B83F0A3AA82AB838D828E83BB
:100DE000D8E9D9E775827475833F7400120E0C75CB
:100DF000827175830D7400120E0C75D00075813FE1
:100E0000751A80751B02759F00020D76C09FF59FB5
:100E1000E473D09F22D083D082C09FE493C0E0745B
:100E20000193C0E0740293F59F22E066701008A35E
:100E3000E066700A08A3E066700408A3E06622C3B7
:100E4000E7960809E7960809E7960809E79622C396
:100E5000E09608A3E09608A3E09608A3E09622C0D7
:100E60000AC3E096F50A08A3E096420A08A3E096B2
:100E7000420A08A3E096450A7001D3D00A22080866
:100E800008EAC0E0EBC0E086F0E7A4FA180986F0B3
:100E9000E7A42AFA180986F0E7A42AFA180986F0C6
:100EA000E7A42AFA1986F0E7A4FBE5F02AFA190864
:100EB00086F0E7A42BFBE5F03AFA190886F0E7A4E0
:100EC0002BFBE5F03AFA18180986F0E7A4C5F02BD9
:100ED000FBE43AFA1908E7C5F0C6A426F6E5F03BAC
:100EE000FBE43AFA1886F0E7A4F6E5F00826F6E403
:100EF0003B08F6E43A08F6D0E0FBD0E0FA22E4CF73
:100F0000C0E0E4CEC0E0E4CDC0E0E4CCC0E075F0E9
:100F100020E626F608E633F608E633F608E633F66A
:100F2000181818EC33FCED33FDEE33FEEF33FFC33E
:100F3000EC9709ED9709EE9709EF97191919400FEA
:100F4000FFEC97FC09ED97FD09EE97FE191906D500
:100F5000F0BFECF709EDF709EEF709EFF7191919EA
:100F6000D0E0FCD0E0FDD0E0FED0E0FF226016082B
:100F70000808C6C313C618C613C618C613C618C6B3
:100F800013C6D5E0EA22700908080822601618186E
:100F900018C6C333C608C633C608C633C608C63328
:100FA000C6D5E0EA22E627F60809E637F60809E69C
:100FB00037F60809E637F622E026F608A3E036F60B
:100FC00008A3E036F608A3E036F622E026F008A3F0
:100FD000E036F008A3E036F008A3E036F022C3E6DE
:100FE00097F60809E697F60809E697F60809E697DE
:100FF000F622C3E0C696F608A3E0C696F608A3E07C
:10100000C696F608A3E0C696F622C3E096F008A3BB
:10101000E096F008A3E096F008A3E096F022E056F0
:10102000F608A3E056F608A3E056F608A3E056F645
:1010300022E056F008A3E056F008A3E056F008A31B
:10104000E056F022E0F608A3E0F608A3E0F608A3D5
:10105000E0F622E6F008A3E6F008A3E6F008A3E62F
:10106000F022E0FAA3E0FBA3E0FCA3E0FD22EAF01B
:10107000A3EBF0A3ECF0A3EDF022E0FCA3E0FDA3D2
:10108000E0FEA3E0FF22ECF0A3EDF0A3EEF0A3EF6F
:10109000F022E0F8A3E0F9A3E0FAA3E0FB22E8F0F5
:1010A000A3E9F0A3EAF0A3EBF022CAC0E0E6F0A3C4
:1010B00008DAFAD0E0FA22CAC0E0E0A3C582CCC5C3
:1010C00082C583CDC583F0A3C582CCC582C583CD3F
:1010D000C583DAE6D0E0CA22C3E498F8E499F912AD
:1010E00011198026C3E49AFAE49BFBE920E7E91290
:1010F0001119E498F8E499F922C3E498F8E499F90D
:10110000121119E498F8E499F9C3E49AFAE49BFB04
:1011100022EB20E7CFE920E7E0B90010BB0008E8A8
:101120008AF084F8AAF022E4FBC8FA22EB70227B52
:1011300010C833C8C933C9335007C39AC3DBF28020
:10114000069A50012ADBEAC833F4C8C933F4C9FA55
:101150002275F008E4C833C8C933C933C99AC99B9A
:101160005004C92AC93BD5F0ECFBC833F4C8E4C924
:10117000FA22600D08C6A2E713C618C613C6D5E04A
:10118000F322600C08C6C313C618C613C6D5E0F414
:1011900022700422600D18C6C333C608C633C6D5F4
:1011A000E0F41822251A10AF08F51A400C151B8020
:1011B00008F51A4002151BD2AF2200C0D0251A1024
:1011C000AF08F51A500C051B8008F51A5002051BD4
:1011D000D2AFD0D022251AF58210AF08F51A400CF4
:1011E000151B8008F51A4002151BD2AF851B832200
:1011F000251AF582E4351BF58322251AF8E4351B00
:10120000F922251AFAE4351BFB22251AFCE4351BCA
:10121000FD22E473251AC582C0E0E51B34FFC583B7
:10122000C0E0E51AC3958224F810AF0885831B85BA
:10123000821A800885831B85821AD2AFCEF0A3E57F
:1012400020F0A3780AE608F0A3DEFAEFF0A3E58128
:1012500024FAF8E608F0A3E608F0A3E608F0A308ED
:1012600008E608F0A3E608F0A315811581D0E0FE9A
:10127000D0E0F8158115811581E8C0E0EEC0E022CC
:10128000251AC582C0E0E51B34FFC583C0E0E51A1E
:10129000C3958224F910AF0885831B85821A8008C4
:1012A00085831B85821AD2AFCEF0A3E520F0A37808
:1012B0000AE608F0A3DEFAEFF0A3E58124FBF8E6E6
:1012C00008F0A3E608F0A30808E608F0A3E608F093
:1012D000A315811581D0E0FED0E0F815811581E8D5
:1012E000C0E0EEC0E022851B83851A82E0A3FEE009
:1012F000A3F520780AE0A3F608DFFAE0A3FFE0A355
:10130000C0E0E0A3C0E0E0A3C0E0E0A3C0E0E0A351
:10131000C0E010AF0885821A85831B800885821A79
:1013200085831BD2AFD083D082020E12851B8385AA
:101330001A82E0A3FEE0A3F520780AE0A3F608DF16
:10134000FAE0A3FFE0A3C0E0E0A3C0E0E0A3C0E0B8
:10135000E0A3C0E010AF0885821A85831B80088552
:10136000821A85831BD2AFD083D08222C0D0251AA7
:10137000C582C0E0E51B34FFC583C0E0E51AC39514
:101380008224F310AF0885831B85821A8008858329
:101390001B85821AD2AFC8F0A3E9F0A3EAF0A3EB51
:1013A000F0A3790AE709F0A3D8FAECF0A3EDF0A3D3
:1013B000EEF0A3EFF0A3D0E0F0A3D0E0F0A3D0E0F4
:1013C000F0A3E520F0A3E5F0F0A322851B83851AA6
:1013D00082E0C0E0A3E0F9A3E0FAA3E0FBA3780A6F
:1013E000E0F608A3DFFAE0FCA3E0FDA3E0FEA3E043
:1013F000FFA3E0C0E0A3E0C0E0A3E0F5D0A3E0F5E8
:1014000020A3E0A3F5F010AF0885831B85821A8026
:101410000885831B85821AD2AFD082D083D0E0F8B2
:10142000D0E03274048006740280027401C0E0F4DB
:10143000041211D5D0E01210AA22740480047402A0
:101440008000CCC0E0EDC0E0E51AC39CCCAD1B50E1
:10145000011D10AF068C1A8D1B80068C1A8D1BD2B5
:10146000AF1210B7D0E0FDD0E0FC22D083D082E9EB
:10147000C0E0E493A3C386F0C5F095F0F908E493C7
:10148000A386F0C5F095F0700BE493A3C3994005D3
:10149000E9048002A3E475F002A42582F582E5F058
:1014A0003583F583D0E0F9E493A3C0E0E493C0E092
:1014B00022D083D082ECC0E0EDC0E0E493A3FCE452
:1014C00093A3FDED4C600D1214FDEC24FFFCED34F4
:1014D000FFFD80EFE493A3FCE493A3FDED4C600DCE
:1014E00012153CEC24FFFCED34FFFD80EFD0E0FD55
:1014F000D0E0FCE493A3C0E0E493C0E022C0E0C3EA
:10150000E49396087401939618400FE4936670086C
:1015100008740193661870007019A3A3C3E493962E
:10152000087401939618A3A3400DD0E0D0E0D0E05A
:101530000214EDA3A3A3A3A3A3D0E022C0E0C0F0B4
:1015400088F0E4936670080874019366187000A828
:10155000F0A3A3700BD0F0D0E0D0E0D0E00214ED07
:10156000A3A3D0F0D0E022FF74F6121280EAFEEBC3
:10157000FF8C0A8D0BEA2434F8E43FF9E8FCE9FD1E
:10158000EA243512190FFAEE243712190FF8850ADA
:10159000F0A4C885F00C850BF0A4250CF9EA28F816
:1015A000E439F97A257B00121119EA8C828D83F0D7
:1015B000FA131313541F121903245DF582E439F54D
:1015C00083E0C0E074075AF8D0E0B800028004C39A
:1015D00013D8FCA2E0EE50082434F582E43F8014D6
:1015E000243612190FF5F0EA84A8F01219042438F1
:1015F000F582E439F583E0F97F0302132C74F712C6
:101600001280EAFEEBFFEA243412190FC0E0EA244C
:1016100035F582E43FF583D0E0F08A828B83A3A383
:10162000A3A3A3A3A3C082C0838A828B83A3A3A303
:10163000A3A3E0F8A3E0F9D083D082E0C398F50A31
:10164000A3E099F50BEA248012190F6401703EEAB9
:101650002481F582E43FF583C082C0838A828B8334
:10166000A3A3A3A3A3E0240108A3E03400F9D0833B
:10167000D082E0687003A3E06970127CD87D041208
:101680002C5DEE2480F582E43FF583E4F0AC0AADF6
:101690000BEEFAEFFB121568E9F912237C7F0202C8
:1016A000132CC082C083851A82851B83E0F8A3E0D7
:1016B000F9C3EA9CEB9D5010C3EC98ED99401BC315
:1016C000EA98EB995014800EC3EA98EB994007C34F
:1016D000EC98ED994004790180027900D083D082A2
:1016E00022EAC39CFAEB9DFB2274EF121280900356
:1016F00098E064086005E06407702A9061C8E060C3
:10170000249003C6E0F4601DE0F875F010A4C8AAA8
:10171000F02AF974C828FE740339FF8E82F583A37A
:10172000A3A3E07003021802906060E0C0E0EE2422
:1017300068F582E43FF583D0E0F0750E49750F053A
:10174000750A00750B00E5D914F50CE5D95403F5BD
:1017500010602F74036510601DE50C6008EE2467AF
:1017600012190F601D900544E06401602C12190CE1
:1017700060127804801012190C602CE50CC39405DB
:10178000502580637800E50CC398FA95E0FB122B96
:101790000D8A0A8B0BEA4B7005122EA38064121976
:1017A0000C70048A0E8B0FE50C6012850E82850F7B
:1017B00083F50DE5D9F0A3150DE50D70F612190CA2
:1017C000604574FC250CF50C780E121427AC0CA99E
:1017D00010EEFAEFFB122D1774021211BAE97027FE
:1017E000AA0AAB0B1234DF793D8E828F83A3A3A3A9
:1017F000A3E0FA7B00122975EEFAEFFB122C81129E
:101800002D2979000218FE740365106053E50CF56C
:10181000127513007812121427AC0EAD0FAA0AAB82
:101820000B122CDB74021211BAEE246812190F6429
:10183000807004747F8001E0F50E780E12142BE5A1
:1018400010F50E780E12142BA90CAC0AAD0B9003F8
:10185000C6E0FA7B0012294B74021211BA0218F981
:10186000850E82850F83E0C3940E5011E0F874E674
:1018700028F582E43482F583E0650C6069850E8288
:10188000850F83E0C0E0EE24F7F582E43FF583D0D6
:10189000E0F0A2AFE433FCC2AF7A0080010AEE248C
:1018A0006E12190FF8EAC3985013EA121903246A4A
:1018B000F582E439F583E0640770E28022EE246E5D
:1018C000F8E43FF9E0FAEE2AFAE43FFBEA246AF58D
:1018D00082E43BF5837407F088828983E004F0ECAE
:1018E000A2E092AF8013900398E06408600BAC0E06
:1018F000AD0FEEFAEFFB122DA1122EAF79017F0A88
:1019000002132CF8EE28F8E43FF9E822EE2484F5DF
:1019100082E43FF583E02274F112128074FC12110C
:10192000A4EAFEEBFF890B750F00A2AFE433F50AC2
:10193000C2AF9004E0E0FA9061D0E0F8748098F8CB
:1019400095E0F9C3EA98E499A2D265D03340030246
:101950001A01750F01021A01E0601B780C1214279E
:10196000AC10A911EEFAEFFB122D1174021211BA8C
:1019700074042510F51074012510F5D98511D9E5E9
:10198000106012850C82850D83F50EE0F5D9A31544
:101990000EE50E70F675E195EE2463F8E43FF97AF2
:1019A000007B00A2AFE433F50CC2AF88828983E0EC
:1019B000FCA3E0FDEC4D603A88828983E0FAA3E065
:1019C000FB8C82F583E0FCA3E0FD88828983ECF048
:1019D000A3EDF08A828B83E4F0A3F088828983E010
:1019E000FCA3E0FDEC4D700A88828983A3A3E4F098
:1019F000A3F0E50CA2E092AF1234DF9004DFE00424
:101A0000F0EE246312190FF8A3E0F9E8496063EEE1
:101A1000246312190F2402F8A3E034008882F583AE
:101A2000E5822402F50CE43583F50DE0F510A3E022
:101A3000F511EE246212190F640170369061D0E046
:101A4000F812190C60047C0480027C007480C39836
:101A5000FA95E0FBE5102CF8E43400F9E82402F8EC
:101A6000500109C3EA98EB99A2D265D03340030232
:101A700019589061D0E0F87480C3989004E0F0E5C4
:101A80000F60539004DFE0604D9004E1E0F89004B3
:101A9000DFE0C398500C7402650B703A9004E2E0EA
:101AA00060348E828F83A3A3A3A3E0851A82851B53
:101AB00083121AE674021211F0E8121AE69004DE9C
:101AC000E028F0740212120AAA1AAB1B790112293B
:101AD0009F9004DFE4F0E50AA2E092AF74041211D3
:101AE000BA7F0802132CF0A3E4F09004DFE0F822A0
:101AF0008521878522C622C0E074EB12136CA2AF49
:101B0000E433F50AC2AF759B00906182E0A2E05019
:101B10002DE591A2E050277591FE74016521701E9C
:101B2000121C6E121C8512143A12212B740412110D
:101B3000BAE9640170057901122E371216E9906135
:101B400082E0A2E5505AE591A2E550547591DF90EC
:101B50000398E064076005E06408702C121C6E7442
:101B6000016521703B121C8512143A12212B74045A
:101B70001211BAE9640170057901122E377901EE6C
:101B8000FAEFFB1219178018E0640D70139003BA76
:101B9000E004F064287002E4F07A00E0F9122EB557
:101BA000906182E0A2E64003021C43E591A2E64078
:101BB00003021C437591BF900398E06405700812FE
:101BC0002DD7122DE38003122DDD752100122E4337
:101BD000E9900399F07900122E37122BCD7A017B10
:101BE00000900397E0F91234AF907803E0644270FC
:101BF00052900548E014F0704AC2AF121BFE007804
:101C00002AD0E0F618D0E0F6E59F540770047BFF79
:101C100080027B7FC4C0E07829E6F50C08E65BF51E
:101C20000D740B780C121182D0E0250CF8906270C4
:101C3000E0A2E740F8E8C333906272F0906270E08F
:101C4000D2E0F0906181E0A2E35009E5E9A2E3501F
:101C50000375E9F7A3E0A2E75009E591A2E7500375
:101C600075917FE50AA2E092AF7F080213CB900343
:101C7000C6E0F875F010A4C8AAF02AF974C828FEC6
:101C8000740339FF22122DEF8E828F83E0F8A3E0D8
:101C9000C82416F582E438F58322C0E0C0D0C082A3
:101CA000C083906183E0A2E05009E5BFA2E0500349
:101CB00075BFFEE0A2E15009E5BFA2E1500375BF88
:101CC000FDE0A2E25009E5BFA2E2500375BFFBE0D0
:101CD000A2E35009E5BFA2E3500375BFF7E0A2E419
:101CE0005009E5BFA2E4500375BFEFE0A2E550093B
:101CF000E5BFA2E5500375BFDFE0A2E65009E5BFEE
:101D0000A2E6500375BFBFD083D082D0D0D0E032DE
:101D1000C0E074F212136CE5A7A2E6500FE5A1A291
:101D2000E6500953A7BF75A1BF121D64E5A7A2E540
:101D3000500CE5A1A2E5500653A7DF75A1DFE5A78A
:101D4000A2E15009E5A1A2E1500375A1FDE5A7A21A
:101D5000E2500CE5A1A2E2500653A7FB75A1FB7F60
:101D6000010213CB74F7121280752101900398E0E1
:101D700064067015122D4D8A828B83A3A3A3A3A39F
:101D8000A3E0FAA3E0FB122DC5A2AFE433FED2AF6D
:101D900090039EE0640170187A207B00900397E026
:101DA000F91235C97A207B00900397E0F91234B517
:101DB000906182E0D2E6F0900545E0602185C62280
:101DC000801690039DE064017008E5C654F8440550
:101DD000F5C653BEFC121AF07401652160E4EEA250
:101DE000E092AF7F0202132C8E238F2485822885F8
:101DF0008327851A82851B83E0CEA3E0CF852882C6
:101E0000852783EBC9EAC8EDCBECCA75F010C3E8AF
:101E100033C8E933C9EA33CAEB33CBC3EA9EF526AC
:101E2000EB9FF525B35004AB25AA26EC33CCED335C
:101E3000CDD5F0DAAE23AF242274E912128074FA01
:101E40001211A4EAFEEBFF8C0C8D0D122DFBEAF8AB
:101E5000EBF9ECFAEDFB8E828F8312109E900398C3
:101E6000E024F7C394055006751601021F9F122D3A
:101E70004D8A0A8B0BEA4B7003021F9CEEFCEFFDB0
:101E8000AA1AAB1B122DF5850A82850B83A3A378B2
:101E90000E1210449083EB780E12101E851A828564
:101EA0001B8378121210449083EB781212101E7864
:101EB0000E7912120E3F501F780E7912120FDE901B
:101EC000842B780E120E5F405D850E16850F1785E8
:101ED0001018851119803790842B851216851317D9
:101EE0008514188515197816790E120FDE781612DA
:101EF0000E5F5032751600751700751800751901C0
:101F000078167912120FDE7816790E120FA5740961
:101F10007816120F86908417780E1210447816796E
:101F20000E120EFE800C75161475170075180075CC
:101F30001900850A82850B83A3A3A3A3A3A3121F61
:101F4000BD121119880E890FE4F510F51178167974
:101F50000E120FA574041211F0121FBD121119E810
:101F6000FAF50EE4F50F7816790E120E3F50077849
:101F700016790E120FDE900398E06408600AE064A0
:101F8000066005E0640570209083F77816120E5FF6
:101F900050169083E37816120FB8800C75160075F2
:101FA0001700751800751900850C82850D83781649
:101FB00012105374061211BA7F1002132CE0F8A30A
:101FC000E0F97AD07B032274F7121280122E0D9062
:101FD0000543E064017010906245E4F0A3F053F40F
:101FE000F343FE0C5390F3122DB3E5C654B84441AD
:101FF000F5C6E59E5447644170F8906185740FF012
:10200000900541E0F47002A3E0604E900542E0606C
:102010000814601B14602E8040750A01750B009037
:102020000541E0780A121191E50AF45280802A7580
:102030000A01750B00900541E0780A121191E50A3A
:10204000F452908014750A01750B00900541E078F8
:102050000A121191E50AF452A079007F0202132CB2
:1020600074F7121280E9FEEAFF122E0D74016E70F1
:102070000C7A807B00900397E0F91234AF9036C061
:10208000E493F46008E493F9122BC1800953C6B8B5
:10209000E59E544770FA122DB9900543E064017033
:1020A00003122BDF900541E0F47002A3E0604B9037
:1020B0000542E0600814601A14602C803D750A0126
:1020C000750B00900541E0780A121191E50A4280F3
:1020D0008028750A01750B00900541E0780A1211FD
:1020E00091E50A42908013750A01750B0090054135
:1020F000E0780A121191E50A42A0122D4D8B0BA92E
:102100000BEA496014E5E170FCEA2414F582E43935
:10211000F583E0F46003E0F5E174016F700A7A0181
:10212000900397E0F912353902205B74F1121280A6
:102130008A0A8B0B8C0C8D0D9083EB780A12101E83
:10214000740F1211F0780E1210449083EB780E1277
:10215000101E780A790E120E3F90842B5010780AC8
:10216000790E120FDE780A120E5F4014800E780E80
:10217000790A120FDE780E120E5F50047901800288
:1021800079007F0802132C74ED1212808A0A8B0BDF
:102190008C0C8D0D9083EB780A12101E74131211A3
:1021A000F0780E1210449083EB780E12101E780E09
:1021B000790A120E3F4011780A790E120FDEAA0A30
:1021C000AB0BAC0CAD0D80227512007513007514AD
:1021D000007515017812790E120FDE7812790A1245
:1021E0000FA5AA12AB13AC14AD157F0C02132C90E3
:1021F00083EB780A1210448A828B83780A1210319A
:102200007F0402132C74F51212808C828D83780A5D
:102210001210448A828B83780A12100A12225DC33C
:10222000E09CF0A3E09D12224F402290838F780A19
:102230001210448A828B83780A120FCB8A828B8396
:10224000A3A3A3A3E02420F0A3E0344EF080A0F0E9
:1022500088828983C3E09420A3E0944E22EA240478
:10226000F8E43BF98C828D83A3A3A3A3E0FCA3E055
:10227000FD888289832274F51212809004FBE0FAB3
:10228000A3E0FBE929F8E433F974D628F5827482D7
:1022900039F583E02AF50AA3E03BF50B780A12141E
:1022A000279083BB121062121DE874021211BA8AC1
:1022B0000A8B0B8C0C8D0D7410780A120F6DAA0A04
:1022C000AB0B7F0402132C74F11212808A0E8B0F59
:1022D0008C108D1174111211F012143E7411121120
:1022E000F0E02401F50AA3E03400F50BE4F50CF569
:1022F0000D780E790A120E7E9083DB780A12104454
:10230000780E790A120E7EAA0EAB0FAC10AD111228
:102310001DE874021211BAEA4B60047A0180027A55
:1023200000EC2AFCE43DFD74131211F0E0F8A3E088
:10233000F9E8FEE9FFECF8EDF97A717B0212111968
:10234000880A890BE4F50CF50D8E828F83780A12CA
:102350001053ECF8EDF97A717B021211198A0A8B8D
:102360000B7405780A1211918E828F83A3A3A3A305
:10237000E50AF0A3E50BF07F0802132CC082C083AE
:10238000E9906000F0D083D08222C0E074F2121392
:102390006CA2AFE433FED2AFE589A2E05003123263
:1023A000FF758900C2C5EEA2E092AF7F010213CB98
:1023B000C0E074F212136CA2AFE433FED2AFE58A30
:1023C000A2E64006E58AA2E750031232FF758A00B2
:1023D000758A00C2EB80CFC0E0C0D0E8C0E0A8A8FA
:1023E000D2AF758B00C2E8E8A2E792AFD0E0F8D098
:1023F000D0D0E032C0E0C0D0E8C0E0A8A8D2AFC2E0
:10240000C7751C00E8A2E792AFD0E0F8D0D0D0E0CA
:1024100032C2AF02000022120E1523A407120E15BD
:1024200055A407120E157EA407120E1517A5071244
:102430000E1558A507120E1538A607120E154B914A
:1024400007120E157D9107120E15A69107120E1593
:10245000939207120E15EB9207120E15D6930712E0
:102460000E157BB507120E158EB507120E15BDB5EC
:1024700007120E15F5B507120E153EB607120E150A
:1024800081B607120E15C7B607120E15FAB6071257
:102490000E1521B707120E1550B707120E1587B784
:1024A00007120E15A0B707120E15EFB707120E157B
:1024B00008B807120E1550B807120E1584B8071287
:1024C0000E15C43600120E15C23700120E1528382C
:1024D00000120E154B3800120E154D3800120E1555
:1024E0008B3800120E15FC3800120E15BC39001284
:1024F0000E15DE3900120E157A3A00120E15B13A99
:1025000000120E15F63A00120E15033B00120E15BE
:10251000733B00120E15BD3B00120E15C03B00129E
:102520000E15063C00120E15093C00120E15133C48
:1025300000120E15863C00120E15AE3C00120E1550
:10254000E13C00120E15053D00120E15023E001270
:102550000E15A63E00120E15123F00120E154E3F2C
:1025600000120E153D9507120E15659507120E15F2
:10257000929507120E15CA9507120E15309607127E
:102580000E157A9607120E15DE9607120E1526976F
:1025900007120E15639707120E15919707120E1565
:1025A000269807120E15309807120E153D9807123F
:1025B0000E15709807120E157C9807120E15949838
:1025C00007120E159E9807120E1549DE07120E15FA
:1025D00057DE07120E156FDE07120E1586DE071284
:1025E0000E1541AA05120E15E4AA05120E15FDAB33
:1025F00005120E1575AC05120E159CAD05120E15C3
:10260000D5AD05120E156DAE05120E155AAF051299
:102610000E1503B005120E158BB105120E1573B20F
:1026200005120E156AB305120E15A0B305120E158C
:1026300042B405120E1568B405120E1534B6051213
:102640000E157AB605120E159CB605120E1508B7B2
:1026500005120E15D3B705120E158DB805120E15FD
:1026600099BA05120E156ADA06120E1546DB061225
:102670000E15F0DB06120E1531DC06120E15B8DC55
:1026800006120E1533DD06120E1506DE06120E15A5
:102690002FDE06120E1523DF06120E1560DF06125E
:1026A0000E1548E006120E1579E006120E159FE091
:1026B00006120E15B6C607120E1535C707120E15EF
:1026C00060C707120E1570C807120E152C99071255
:1026D0000E15429907120E15609907120E15709A81
:1026E00007120E157A9A07120E15A49B07120E15E3
:1026F000919C07120E15FD9C07120E150FE1061294
:102700000E153CE206120E1573E206120E15CAE211
:1027100006120E15C2E406120E15909705120E153C
:10272000179805120E156B9905120E15779905125B
:102730000E15EF9905120E15C89A05120E15C89BB5
:1027400005120E15C49C05120E15909D05120E154E
:10275000EA9E05120E15009F05120E15219F051207
:102760000E15B39F05120E1529A005120E154FA0C8
:1027700005120E15FCA205120E1501A305120E1569
:1027800025A505120E156CA505120E15D2A505126C
:102790000E1518A605120E15E8A605120E159DA712
:1027A00005120E15F9A705120E15FCA705120E1538
:1027B00048A805120E1584A805120E15C3A8051207
:1027C0000E15E5A805120E1519A905120E1587A9F3
:1027D00005120E15F9EB06120E1507EC06120E1572
:1027E00057EC06120E1576EC06120E15C0EC06120A
:1027F0000E1503EE06120E159BEE06120E15DFEEF9
:1028000006120E1509EF06120E1574EF06120E15BC
:10281000B8EF06120E153BF006120E15EAF006127E
:102820000E1500B004120E1510B004120E15AAB049
:1028300004120E1506B104120E15C4B104120E15C1
:10284000E7B204120E1517B304120E1546B30412A4
:102850000E15FCB404120E154FB704120E15AEB9C6
:1028600004120E1597BA04120E1587BB04120E152A
:102870005ABD04120E1552C004120E156FC1041277
:102880000E1569C304120E1578C404120E1507C67E
:1028900004120E15F3C604120E1542C704120E15CB
:1028A000B2C704120E15CEC704120E151FC80412AB
:1028B0000E15BFCC04120E15C6CD04120E1528CE6F
:1028C00004120E1553CE04120E150BCF04120E1562
:1028D000CC8807120E15D68807120E151E8907120E
:1028E0000E15328907120E15C38907120E15FA89C3
:1028F00007120E15358A07120E155E8A07120E157D
:10290000B28A07120E15C78A07120E15E98A071236
:102910000E15FE8A07120E15128B07120E15278B45
:1029200007120E15618B07120E158D8B07120E15EF
:10293000D68B07120E154C8C07120E158F8C0712B2
:102940000E15B98C07120E15E48C07120E1577D9E7
:1029500007120E1574F505120E154DF605120E151B
:10296000BCF605120E15F7F605120E1532F8051213
:102970000E15E4F805120E1591FB05120E153CFC20
:1029800005120E151DFD05120E1593FE05120E15EE
:10299000FBFE05120E15A5F506120E15E8F506123A
:1029A0000E1553F706120E1591F906120E15D3C027
:1029B00007120E1580C107120E1579C207120E15E7
:1029C000B6C207120E156CCA07120E15CBCA071233
:1029D0000E1568CB07120E159BCB07120E15C9CB2F
:1029E00007120E1504CC07120E1524CC07120E1573
:1029F000FCF006120E1585F106120E1544F20612B1
:102A00000E1552F306120E1572F506120E15BD992B
:102A100006120E15D29906120E159D9A06120E1563
:102A20006A9B06120E15D79B06120E15129C0612F3
:102A30000E15B39C06120E15BC9D06120E15949E23
:102A400006120E15179F06120E15A09F06120E15E0
:102A500009A006120E1593A006120E15E0A006128C
:102A60000E154EA106120E15F0A106120E159EA20D
:102A700006120E15BEA206120E1502A306120E15A0
:102A80004AA306120E1566A306120E1585A306129A
:102A90000E15FFA306120E150DA406120E15A0A406
:102AA00006120E150AA506120E152EFA06120E159E
:102AB000AAFA06120E15E8FA06120E15CCFB06123B
:102AC0000E153BFC06120E157FFC06120E15C2FCFD
:102AD00006120E15EFFC06120E150DFD06120E1550
:102AE00045FD06120E1582FD06120E15A3FD0612F7
:102AF0000E1519FE06120E1563FE06120E15A6BA65
:102B000005120E153ABC05120E1578BE05120E15EB
:102B1000C0BE05120E15EBBE05120E15E1BF051263
:102B20000E1511C005120E1568C005120E157BC0DA
:102B300005120E15BCC005120E15E9C005120E15C2
:102B400032C105120E156EC105120E15B3C1051264
:102B50000E1500C205120E1568C205120E159AC494
:102B600005120E1561C605120E159CC605120E152E
:102B70001AC805120E155EC805120E15D1C8051229
:102B80000E1532C905120E15BAC905120E15D9CA8D
:102B900005120E15EACA05120E1512B006120E1510
:102BA00083B006120E154CB606120E1546B7061265
:102BB0000E1508B906120E1586B906120E1574CF39
:102BC00004120E15FBCF04120E1528D004120E1598
:102BD0006AD004120E1566D104120E15ABD1041280
:102BE0000E1527D304120E15A4D304120E15C9D343
:102BF00004120E153CD404120E15F9D404120E154D
:102C0000B5D504120E1535D604120E1503D70412CD
:102C10000E1529D704120E159BD704120E153FD896
:102C200004120E1564D804120E15D0D804120E1515
:102C300036D904120E156CD904120E1510DA0412CE
:102C40000E15A9DA04120E152CDB04120E1598DBF2
:102C500004120E15E4DB04120E154ADC04120E15E4
:102C60007BDC04120E152FDD04120E1545DE041256
:102C70000E158EDE04120E15ABDE04120E158BE45B
:102C800004120E15D3E404120E15C0E504120E153D
:102C9000E5E504120E15FAE504120E1562E60412BB
:102CA0000E15A2E604120E15B5E704120E1562E821
:102CB00004120E15AFB906120E15FAB906120E154A
:102CC00006BA06120E15D1BA06120E15E7BA06128A
:102CD0000E1523BB06120E155CBB06120E1594BB17
:102CE00006120E15EABB06120E1500BC06120E15D2
:102CF0003CBC06120E154FBC06120E1576BC061211
:102D00000E15AABC06120E157EBD06120E150DBFBD
:102D100006120E1509C006120E1512C106120E1566
:102D2000E93F00120E1589D905120E15C4D90512F6
:102D30000E15C8DC05120E151ADE05120E15DFDEA3
:102D400005120E15D9E105120E15C3E205120E1576
:102D50000EE305120E1528E305120E1565E30512A4
:102D60000E1570E305120E15AFE305120E15B8E34C
:102D700005120E1579E405120E1536E505120E152D
:102D800099E505120E15FDE505120E157EE60512F4
:102D90000E15838405120E15DF8705120E15E587C3
:102DA00005120E15268F05120E15FE9305120E152F
:102DB00098A007120E152EA107120E1544A1071296
:102DC0000E158AA107120E15CEA107120E1508A224
:102DD00007120E159AA207120E1509A307120E1557
:102DE00012A307120E151EA307120E1532A3071207
:102DF0000E1556A307120E156BA307120E15CDA3C1
:102E000007120E15F4A307120E150C8D07120E15DE
:102E1000198D07120E15338D07120E15668D0712C8
:102E20000E15A38D07120E15098E07120E151E8E94
:102E300007120E15298E07120E15368E07120E1563
:102E40004D8E07120E155B8E07120E15668E071239
:102E50000E15728E07120E15818E07120E158C8EAE
:102E600007120E15B28E07120E15568F07120E1589
:102E7000668F07120E15808F07120E159D8F071291
:102E80000E15B88F07120E15DF8F07120E15EA8F79
:102E900007120E15FF8F07120E15139007120E154D
:102EA000749007120E157A9007120E158090071273
:102EB0000E15869007120E159E9007120E15D190D2
:102EC00007120E15058006120E15938006120E15B8
:102ED000288106120E15048206120E15388206127B
:102EE0000E154B8206120E15C58206120E154D8464
:102EF00006120E15748406120E15FB8406120E15AA
:102F00003A8506120E154B8506120E15C08506125F
:102F10000E15DF8506120E15F78506120E153B8776
:102F200006120E15458906120E15778B06120E1520
:102F30007D8C06120E15C08C06120E15EFCA0512F6
:102F40000E1502CC05120E15EACC05120E15F4CCA6
:102F500005120E1516CD05120E1522CD05120E15F1
:102F60006FCE05120E159CCE05120E15BDCF0512A3
:102F70000E15FFCF05120E1534D105120E1504D211
:102F800005120E1553D205120E15B4D205120E15E8
:102F9000E9D205120E1522D305120E15CDD6051253
:102FA0000E15E4D605120E1562D705120E1570D750
:102FB00005120E15B9D705120E15C7D705120E1535
:102FC00048D805120E15B7D805120E1503D90512EB
:102FD0000E152DA506120E154FA506120E152BA7C0
:102FE00006120E15A3AA06120E15EDAB06120E154B
:102FF000CFAC06120E1532CC07120E1557CC0712A5
:103000000E15C8CC07120E15B4CB06120E15BDCB8B
:1030100006120E15C6CB06120E15EACC06120E15B8
:10302000DBCE06120E1509CF06120E1534CF06128E
:103030000E1562CF06120E158DCF06120E15CBCFD0
:1030400006120E15F7CF06120E1534D006120E1505
:103050005FD006120E15ABD006120E1502D1061265
:103060000E1542D106120E1591D106120E15BCD1C5
:1030700006120E1502D206120E1530D206120E15C9
:103080005BD206120E1588D206120E15ABD20612AE
:103090000E1516DF07120E1542DF07120E159BDF05
:1030A00007120E15A5DF07120E15B5DF07120E1554
:1030B000A9FC04120E15DBFC04120E15F8FC041218
:1030C0000E1598FD04120E15E2FD04120E159FFE5A
:1030D00004120E15ECB807120E1513B907120E15CF
:1030E0003EB907120E15A0FF05120E1594E8041242
:1030F0000E15EBEA04120E159BEC04120E15F8ECFB
:1031000004120E15F8ED04120E1575EE04120E15CC
:10311000FDEE04120E1522EF04120E15FDF104123D
:103120000E1571F204120E1560F304120E1596F3CB
:1031300004120E15D9F304120E155AF504120E15C9
:103140009CF504120E15E5F504120E154EF6041248
:103150000E1570F604120E158AF604120E15A8F755
:1031600004120E15B8F704120E153BF904120E15D1
:103170005BF904120E1591F904120E150DFB0412E1
:103180000E154AFB04120E1584FC04120E156F84F2
:1031900007120E15BF8407120E15F98507120E15BA
:1031A000688607120E150C8707120E152B8707125B
:1031B0000E15798707120E15BB8707120E159BA7F0
:1031C00007120E15CDA707120E15F6A707120E153A
:1031D0008FA807120E15D0A807120E15B0A9071256
:1031E0000E15D1D207120E15E1D207120E151AD301
:1031F00007120E15DBD307120E1501D707120E1595
:103200002CD707120E1549D707120E15C2D7071271
:103210000E15DFD707120E15C2E107120E15CDE10C
:1032200007120E15EAFF05120E1570DD07120E15B6
:1032300080DD07120E158FDD07120E1543DE071213
:103240000E158BDA07120E150EDB07120E1574DB46
:1032500007120E159FC807120E15B3C807120E15D8
:10326000EAC807120E153BC907120E15D6C9071278
:103270000E15F9C907120E1505CA07120E1536CA22
:1032800007120E15B3D507120E15EED507120E153F
:1032900058D607120E158CD607120E15C2D6071275
:1032A0000E15EAD607120E15AAFE06120E15DEFE40
:1032B00006120E1507FF06120E157EFF06120E15DA
:1032C000EDFF06120E15CCC407120E15E6C4071248
:1032D0000E150BC507120E1536C507120E15BEC505
:1032E00007120E15F1C507120E154FD407120E1551
:1032F00077D407120E15E9D407120E1504D507125C
:103300000E155DD507120E15A7D507120E15AAD5F5
:1033100007120E15079D07120E15159D07120E15A3
:103320008E9D07120E155A9E07120E1513A0071236
:103330000E1558A007120E1585A007120E15E3CD25
:1033400007120E15E9CD07120E1525CE07120E1520
:1033500059CE07120E1571CE07120E15F3CE0712B5
:103360000E1549D807120E1594D807120E15EAD873
:1033700007120E154ED907120E15F83F00120E1542
:10338000A1BE07120E1529C007120E158AC007121A
:103390000E15D0C007120E1513AB07120E1545AB54
:1033A00007120E156EAB07120E1507AC07120E159D
:1033B00048AC07120E1528AD07120E1503B20712FE
:1033C0000E1535B207120E155EB207120E15F7B2C2
:1033D00007120E1538B307120E1518B407120E1582
:1033E0008BAE07120E15BDAE07120E15E6AE071214
:1033F0000E157FAF07120E15C0AF07120E15A0B045
:1034000007120E1537D306120E15B6D306120E1577
:10341000CDD306120E1595D406120E156FD50612D1
:103420000E15BCD606120E157CD706120E15E0D866
:1034300006120E1566D906120E1583DC07120E153C
:10344000A6DC07120E15CFDC07120E15E5DC0712FD
:103450000E1527DD07120E15AFE606120E15B9E69A
:1034600006120E15F9E606120E1542E706120E15A3
:103470007AE706120E15D0E706120E15EDE70612D2
:103480000E15F6E706120E153BE806120E1564E857
:1034900006120E1579E806120E15E9E806120E1549
:1034A00076E906120E15CAE906120E15EDE90612A6
:1034B0000E156CEA06120E15A7EA06120E15DCEAC6
:1034C00006120E15EEEA06120E150DEB06120E157B
:1034D00016EB06120E15CDEB06120E152FD10712A4
:1034E0000E1580D107120E1509D207120E1573D2D0
:1034F00007120E15E6BB07120E150EBC07120E15AD
:1035000003BD07120E1528BD07120E15B7BD071211
:103510000E158DDB07120E15D0C207120E1506C34D
:1035200007120E1539C307120E1592C407120E1595
:10353000BFDF07120E15D5DF07120E15DFDF0712EA
:103540000E1533E007120E15FAE007120E153FC3F1
:1035500006120E15F9C306120E1534C406120E1506
:1035600065C406120E15D5C406120E152BC506121B
:103570000E157FC506120E156CC606120E1565C710
:1035800006120E15E6C806120E159AC906120E1579
:1035900003CA06120E1516CA06120E15FBCA06122B
:1035A0000E1554CB06120E15008007120E1516804C
:1035B00007120E15B78007120E15F68007120E15AA
:1035C000138107120E15448107120E1591810712FF
:1035D0000E15C48107120E15FF8107120E15FA830E
:1035E00007120E15628407120E15C8E705120E1594
:1035F00050EB05120E15DFEC05120E152FED05121E
:103600000E1546ED05120E1565ED05120E15E3EDCE
:1036100005120E1569EF05120E153CF005120E1578
:10362000F6F305120E15DEF405120E150D8D0612B9
:103630000E151D8F06120E15159206120E153A92D2
:1036400006120E15159306120E15D19406120E15BC
:103650005E9506120E15BB9506120E151E960612E5
:103660000E15989606120E15049706120E157197F0
:1036700006120E15F99706120E154E9806120E1523
:10368000F49806120E158BCF07120E15EECF071207
:103690000E1550D007120E15CFD007120E155EE092
:1036A00007120E15BCE007120E155EE107120E158B
:1036B000CDFF04120E15A4E107FFFFFFFFFFFFFF80
:1036C000FFFFFFFF74F2121214ECFEEDFF8A828BF3
:1036D00083A3A3A3A3A3A3A3A3E0F50C70030237C2
:1036E000BBEA2406F8E43B880AF50B8882F583E000
:1036F000FCA3E0FD8C82F583E0F50DA2E75049E5DF
:103700000CC3940D50030237BB74F4250CF50CF870
:10371000EC28F50EE43DF50F780E121427E50CF5B4
:103720000E780E12142B79018A828B83A3A3123C8C
:1037300060122F1B74031211BAE98E828F837004FA
:1037400074018009740280058E828F83E4F0E50D98
:10375000A2E65004D2F08002C2F0A2F0E433A3F05B
:10376000743F550D8E828F83A3A3F0EE2403F8E4FB
:103770003FF9E50C24FFFAE434FFFB88828983EAF1
:10378000F0A3EBF0EE2405FAE43FFB888289831274
:103790003BFCE8496019850A82850B83E02401F827
:1037A000A3E03400F98A828B83E8F0A3E980078ADA
:1037B000828B83E4F0A3F07900800279017F060216
:1037C00012E674F71212141237F48C828D83A3A8B8
:1037D00082A98312381C1237EDA31238E78C828D30
:1037E00083A3A31238F17A047B00023886A3F08801
:1037F000828983228C828D8312381CF022C082C081
:10380000831238097A020238C18C828D83123811F2
:103810002212381C123A74123822F022E08A828B6B
:103820008322A312381CA322C082C083851A8285FA
:103830001B83E064027002A3E0700B123AD41211F1
:10384000F0123AE2800279040238C380B074F712B1
:10385000121474091211F0E064047002A3E0700AFB
:10386000740B1211F0123B9580027904801874F7E2
:103870001212141238CA8C828D83A3A3A3A3E0244E
:1038800004FAE43400FB7F010212E674F61212140B
:103890008C828D83A3A882A9831237F888828983BA
:1038A000E0640170047804800278128C828D83E0D9
:1038B000F50AE8850AF0A4A9F02401FAE4390239EE
:1038C000D87B00D083D082020E128C828D83123876
:1038D00011EC2402F8E43DF98882F5831238EB8874
:1038E0008289831238F5221238EB22123823A3F092
:1038F000221238F522123822A3A3F02274F21212F7
:1039000014ECFEEDFF740E1211F0E0F50CA3E0F5DF
:103910000DC3E50C9406E50D940050030239B7740D
:10392000101211F0E0F50AA3E0F50B8C828D83E014
:10393000FAA3E0F9EA850A82850B83F0A3E9123A3B
:1039400069FA8C828D83A3A3A3E0F8E4C8F9EA8521
:103950000A82850B83A3A3F0A3E9123F02A3A3A3CA
:103960007402F0F50E880F780E121427EC2404FC74
:10397000E43FFDE50A2405FAE4350B123F0B121172
:10398000BAE50C24FAF8850A82850B83A3A3A3A3C6
:10399000A3A3A3F0E50A2408F582E4350BF583E838
:1039A000600DEE2406F8E43FF9E8F0A3E98003E4B3
:1039B000F0A3F07900800279040237BD74F6121288
:1039C000148C828D83E0F50A750B007402780A125C
:1039D0001191AA0AAB0B8001FB7F020212E674F67A
:1039E000121214740C1211F0123C60EA2404F8E470
:1039F0003BF9740A1211F0E0FEA3E0FF74066E4F6B
:103A00007055888289837402123A74123C758A82D6
:103A10008B83F0A3EF123A69F50A8C828D83A3A3FE
:103A2000A3E0FEE4CEFFE50A8A828B83A3A3F0A382
:103A3000EF1237EEE0F50A8E0B780A121427EC2409
:103A400004FC50010DEA2405FA50010B123F0C1240
:103A500011BA79000239D974146E4F7008888289BE
:103A600083741080A3790480EB123A6D22123A74A9
:103A7000A3A3E022F08C828D8322C082C0838C823B
:103A80008D83A3E0F8F5F08C828D83E0A4F9E88AB9
:103A9000828B83F0E924018010C082C08312380930
:103AA0008C828D83A3A3E02402FAE43400FB023865
:103AB000C3C082C083851A82851B83E064027002C2
:103AC000A3E0700B123AD41211F0123AE28002799C
:103AD000040238C38C828D83E0FAA3E0F9EAF8741B
:103AE0000222123AEDE8F0A3E9F0790022E0FAA30D
:103AF000E0F5838A8222C082C0838C828D83E0FAC3
:103B00000238C174F4121214890B8A0A740C12114F
:103B1000F0123CFA4043740E1211F0123BFC888202
:103B2000F583A3A3A3A3A3E50B1237EEA3A3A3A33B
:103B3000A3A3E50A123A74E0F50CA3E0FFE50C88B4
:103B4000828983F0A3EFF0123CE46005123B5D80B4
:103B500003E4F0A3F07900800279048011EC2402E0
:103B6000F8E43DF9E8F0A3E92274101211BA7F04D9
:103B70000212E674F712121474091211F0E06404D0
:103B80007002A3E0700A740B1211F0123B958002D0
:103B90007904023886123C7EE0FEA3E0FBEE8882C8
:103BA0008983F0A3EB123A6DFE8C828D83A3A3A3CD
:103BB000E0FBEE88828983A3A3123C0C22023AF632
:103BC000C082C083123BF6E8A2E04025E9C313E8B7
:103BD00013FAC39402401A74021211F0123BFCEA69
:103BE00088828983A31237EDECF0A3EDF079008091
:103BF0000279040238C3851A82851B83123C002295
:103C0000E0F8A3E0F922023AF6023A7AF0A3EBF0E8
:103C100079002274F6121214740A1211F0123C6028
:103C2000C3EA9404EB94004032740C1211F0123C7D
:103C3000668C828D83A3A3E0F50A8C828D83123C6F
:103C40009CEA24FCFA123C89EA6008EC2404123B4A
:103C5000608003E4F0A3F07900800279040239D98E
:103C6000E0FAA3E0FB22123C7E123C758882898335
:103C7000F0A3EFF022E0F50AA3E0FFE50A22123CF0
:103C8000008C828D832202386E88828983A3A3A34D
:103C9000A3F0E82405F582E439F58322A3A3A3E089
:103CA000FFE50A88828983A3A3F0A3EFF022C082F4
:103CB000C083851A82851B83E064017002A3E070D3
:103CC0001B8C828D83E0C0E074021211F0E0F8A337
:103CD000E0F5838882D0E0F0790080027904023830
:103CE000C3023A99EA24FEFA88828983A3A3F0E802
:103CF0002403F582E439F583EA22123C60C3EA9496
:103D000002EB94002274F012121474FA1211A48AB5
:103D1000108B118C0C8D0D890E74181211F0E0FEB1
:103D2000A3E0FFEE4F6004C2008018D2007A177B38
:103D300000122AA18A0A8B0BAE0AAF0BEA4F70035E
:103D4000023DF3EEFAEF750A01750B008A82F583E6
:103D5000E50EF0A3AA82AB83E50C450D601E741638
:103D60001211F0E0FCA3E0FD850C82850D83121298
:103D7000128B0BEA2401F50A5002050BE50EA2E7AF
:103D8000502D7910AA10AB11122ACBE97060EE25E4
:103D90000AFCEF350BFDA90AEEFAEFFB122F15E92D
:103DA000F50C703DE50A240CF50AE4350BF50B859E
:103DB0001A82851B837404F0A3E4F074021211F0DC
:103DC000EEF0A3EFF074041211F0E50AF0A3E50B96
:103DD000F0AC1AAD1BAA10AB111229C9E9F50C60A1
:103DE00015A2005011EEFAEFFB1234DF8008750CBB
:103DF0001980EE750C13A90C74061211BA7F080213
:103E000012E674F412121474F01211A4EAFEEBFF1D
:103E100074026C7001ED600674106C4D7018741EA5
:103E20001211F0123BFC7402687001E9600C74100E
:103E3000687001E9600479008069741C1211F0E077
:103E4000F50AA3E0F50BE86C7002E96D700F8C0CBD
:103E50008D0D780C121427AC0AAD0B803E74106CDB
:103E60004DAC1AAD1B701DAA0AAB0B12254F750A7B
:103E700010750B00780A121427740212120AEEFA57
:103E8000EFFB801712254F750C10750D00780C1282
:103E90001427740212120AAA0AAB0B12346D7402B0
:103EA0001211BA023B6974F41212148A0A8B0BECD9
:103EB000FEEDFFEA4B6046EC4F6042750C10750D4D
:103EC00000780C1214277C267D81EEFAEF123F0B4E
:103ED0001211BA850A82850B83E0C0E0EE240CF54E
:103EE00082E43FF583D0E0123F02E0C0E0EE240D13
:103EF000F582E43FF583D0E0F07901800279000299
:103F00003B6EF0850A82850B83A322FB12345B741F
:103F1000022274F41212148A0A8B0BECFEEDFF7469
:103F2000FE6A700374FF6B6020C3EC9417ED94007D
:103F300040171229E7C3EA9EEB9F400DEEFCEFFD10
:103F4000AA0AAB0B122ADD80027901023B6E74F6DD
:103F500012121474FE6A700374FF6B6011122AE36C
:103F60008B0BA90BEA4970097A177B008003122991
:103F7000E70239D953BEFBE59DA2E650FAE5C654E7
:103F8000804449F5C6E59E547F644970F853C67F66
:103F9000E59EA2E740FA53C680E59E547F70FA433F
:103FA000BE049062707408F043FE0143FD1043FEAE
:103FB0000243FD80D29143FD2043FF0143FE3C7547
:103FC0008F4E790012343712322D12358D1234C1D2
:103FD000D2AF7902123437790112353312363512E5
:103FE00034C77A007B00020E12020E12FFFFFFFFA1
:103FF000FFFFFFFFFFFFFFFF851C87C2AF020E120E
:020000040002F8
:10300000C082C083E990173FF0D083D082020E12B5
:1030100074F6121214E990030AF090036AE0F50ABC
:10302000750B007402780A121191AA0AAB0B1235C3
:103030002190030B12B4E4606E90036AE075F00314
:10304000A4FAABF012352190032812B4E4700B906F
:10305000030B12BD28123527804D90032812CC9106
:103060007AFF7BFF12318B7A00801EEAF50A750B1E
:10307000007402780A12119112C72D74FFF0A31286
:10308000CCA5A3A3E4F0A3F00A90036AE0F8EAC396
:103090009840D8790512283790030AE0F9122723BF
:1030A0007AC17B28122AAD02C7C974F41212148A9D
:1030B0000A8B0BEB5480604790030AE0F9123497B7
:1030C0008A0C8B0DAE0CAF0DEA4F602A8A828B837F
:1030D000E064B0701A122849E960148E828F83A3CD
:1030E000A3A3A3E0F9EE2405FAE43FFB122819EEAE
:1030F000FAEFFB123485AA0AE50B6480FB80047AA0
:10310000007B0002B31274F212121474FB1211A4A9
:10311000EAFEEBFFEA4F604374031211F012B9911B
:10312000851A82851B83ECF0A3EDF074021211F076
:10313000E9F0AA1AAB1B12271DE9F50A7077741380
:103140001211F0E0F50CA3E0F50DE50C450D6065FE
:103150008E828F8312B725EE4F7005750A02805557
:103160007A067B001235218A0E8B0FA80EA90FEA72
:10317000497005750A13803D8A828B83E4F012B191
:10318000BCA3EEF0A3EF12CF6AE50CF0A3E50DF0BF
:1031900090030E12B2D690030E6017E0FCA3E080FD
:1031A00003EAFCEBFD8C828D8312B2D670F38C8225
:1031B0008D8312C34DA90A740502CF03A3F08A823E
:1031C0008B83A32274F2121214890AE9F50E750F8B
:1031D000007403780E121191850E0C850F0D90036B
:1031E0000DF090030B12CC7612B2D4602F1235275B
:1031F0007900801EE9F50E750F007402780E121129
:103200009190030B12C5E68882F583A3A3E4F0A393
:10321000F00990036AE0F8E9C39840D890036AE0A7
:10322000FA850CF0A4CAA8F0850DF0A428FB12358D
:10323000218A0E8B0FAE0EAF0FEA4F700302B2CA97
:1032400090036AE0FC850CF0A4CCA8F0850DF0A4F6
:1032500028FD79001234737C008032EDF50E750F75
:10326000007403780E1211918A828B8312B2CF8878
:1032700082F583E4F012B2DCA3A3F0A3F00DEDC35A
:10328000950A40D7EE250CFEEF350DFF0C90036A32
:10329000E0F8ECC3985029ECF50E750F0074027835
:1032A0000E12119190030B12B2CFE82402500109C3
:1032B000FAE9FB8A82F583EEF0A3EFF07D0080BE91
:1032C000E50A90030DF079008002791302CF06120F
:1032D000C5EAF922A3A312B9A9EA4B22A3F0888276
:1032E0008983A3A3A3A32274F41212147900EAA27F
:1032F000E0501F750A3E750B83780A121427791067
:103300007C047D007A417B1712283174021211BAB5
:10331000E9F97F040212E6C082C08390030E12C650
:10332000EC601C88828983A3A3E06A7003A3E06B2E
:103330008882898370E8A3A3A3A312BD2880047A9E
:10334000007B0002B00974F212121474FD1211A471
:10335000EAFEEBFF851A82851B83E4F0A3F074027A
:103360001211F07401F090031112C6EC70111229C1
:10337000E712352190031112B4E4700302B4D8129D
:10338000BA7EEE2404F50CE43FF50D850C82F5833E
:10339000E024FE603C24FC607424FE607E24FE7009
:1033A0000302B42824FE700302B43524FE70030225
:1033B000B44224FE700302B44F24FE700302B45CD6
:1033C00024FC700302B47D24FE700302B49502B4A1
:1033D000D11229E7900313EAF0A3EB12B4ED122403
:1033E0006BE9600302B4D190031312143E8E828FF6
:1033F00083A3A3A3A3A312CC91850A82850B831276
:10340000BD2812280174021211BA02B4D1AC1AAD4F
:103410001BEEFAEFFB12284F02B4A0AC1AAD1BEE64
:10342000FAEFFB1228558078AC1AAD1BEEFAEFFBD1
:1034300012285B806BAC1AAD1BEEFAEFFB12286111
:10344000805EAC1AAD1BEEFAEFFB1228678051AC20
:103450001AAD1BEEFAEFFB12286D804474021211B4
:10346000FA880E890F780E121427740212120AEECF
:10347000FAEFFB12287374021211BA8023AC1AAD52
:103480001BEEFAEFFB122879E9F87016740212119C
:10349000F0E4F0803CAC1AAD1BEEFAEFFB12287F93
:1034A000E9F8E8602C8E828F83A3E06414602285A3
:1034B0000C82850D83E0900313F0851A82851B83AF
:1034C00012BD2890031412B991E8A312B4ED12248E
:1034D00065EEFAEFFB1227D774021211F0E0F974CF
:1034E0000302CF03EAF0A3EBF0F9EA4922F07C13E0
:1034F0007D03850A82850B8312B9A92274E8121212
:103500001474FA1211A474041211F0ECF0A3EDF08B
:103510008A148B15EA2405F510E43515F511EA2413
:1035200002F512E43515F51385128212BFCF750A24
:10353000007C037D0079007A137B03123473E5105D
:103540002402F518E43511F51974021211FA880EE7
:10355000890F780E121427851082851183A3A3A3E7
:10356000A3E0F50E750F00780E121427E510240560
:10357000F50EE43511F50F780E12142785188285A3
:10358000198312C0171211BA8A0E8B0FE50E450F60
:10359000700302B6F48020851A82851B83E088823E
:1035A0008983F0050A851A82851B83A3E0C0E01297
:1035B000B72FD0E0F0050AE50C24FBF8E50D34FF49
:1035C000F9C3E50A98E499400302B6F47E007F004F
:1035D000851482851583A3A3A3A3E0F50B780B12B2
:1035E000142BE4F516F517781612142775161075B6
:1035F0001703781612142790031112143E7409123F
:1036000011F012143EE50C24F9F9AC0EAD0F12C006
:10361000291211BAE9600302B69B851082851183D5
:10362000A3A3A3A3A3A3A3E0F8900310E068706B87
:10363000E0F5168E17781612142712CC8E8510829C
:10364000851183A3A3A3A3A3A3A3A312BD2812340C
:103650006D74021211BAE9604212C6E97034E4F5E1
:103660001678161214277CFF7DFF790712C03812D6
:1036700011BA8B17A91712B74470178510828511DC
:103680008312CE1D74041211F012C6D612C04A0263
:10369000B722850E82850F8312B725A81AA91B8829
:1036A000168917781612142774041211F012143E9A
:1036B00085188285198312BFF91211BA8A0E8B0FF1
:1036C000EE4F700302B58C12B72FEE12B73A12BF4D
:1036D000E0EF12B73AF8A3E03400F9E50E4B6003CF
:1036E00002B5978882898374FFF0050A12B72F7498
:1036F000FFF0050AE50A60141313543F12B997123C
:103700002477E9600312C5FD790080168510828553
:10371000118312CE1D74041211F012C6D612C34DBD
:10372000790A02BFB0A3A3A3A3E0FEA3E0FF22A8EF
:103730000A900314E02812BFE022F0050A08900363
:1037400014E02822900314EAF0A3EBF0EA49227473
:10375000E812121474FA1211A474021211F012B9C0
:103760009174041211F0ECF0A3EDF074021211F058
:10377000E0240512BFBAF583E0F50EA3E0F50F745F
:10378000021211F0E02402F512A3E03400F51385D3
:10379000128212BD2C750A00750B00EA24FCFEEBA8
:1037A00034FFFF8008050EE50E7002050FA80AC35E
:1037B000EE98EF9400500302B942A81AA91B881092
:1037C00089117810121427851682851783A3A3A365
:1037D000A312CC6D121427E5162405F510E4351755
:1037E000F5117810121427851682851783A3A3126A
:1037F000CC91AA0EAB0F12273B74061211BA8A1095
:103800008B11EA4B700302B942EA2404F518E4353F
:1038100011F519851882F583E0F50EA3E0F50F8503
:103820001A82851B8312143EAC10AD11851282855D
:10383000138312BFC61211BAE9F50B600302B94235
:1038400074021211F012BFF0F50B780B12142BE476
:10385000F514F515781412142775141075150378DE
:103860001412142790031112143E74071211F0124F
:10387000143EEEF9AC10AD1112C0291211BAE9F5DF
:103880000B600302B942E50A703BE4F510F51178CC
:10389000101214277CFF7DFF790912C0381211BA6B
:1038A0008B11A91190031512B747700D74041211F2
:1038B000F012B984791102B973900310E0240290D8
:1038C0000314F08014900314E0FA900310E07900E0
:1038D00024025001096A49706DA80A900310E0FAA9
:1038E000E82AFAE43400FBEE9AEF9B4055851882F3
:1038F000851983E0C0E090031512B734D0E0F005DD
:103900000A851882851983A3E0C0E0089003151288
:10391000B734D0E0F0050A90031012CC6D121427D2
:1039200012CC8EA80A12B9761211BA900310E025B3
:103930000AF50A74FF650E700474FF650F600302D8
:10394000B7A5E50A601C900314E0F5F0E50A8412BF
:10395000B99712247DE9600690031512C60079001C
:103960008011E50B7003750B0A74041211F012B983
:1039700084A90B02BFB0900315E028FAA3E034003D
:1039800012CC4B2212CC7AE50EF0A3E50FF022A365
:10399000A3EAF0A3EBF022900313F07C137D0385E0
:1039A000128285138312B9A92212C33DFB2274EC43
:1039B00012121474FC1211A412C45D740212120AC1
:1039C000850C82850D8312BB7D700302BA6E12BA1C
:1039D0007EA81AA91B8812891378121214277CFF5B
:1039E0007DFF790B850A82850B8312C03E1211BAC6
:1039F00012BA88700B850C82850D8312C047807BBC
:103A00008E828F83A3A3A3A3E0F514781412142B42
:103A1000E4F514F5157814121427751413751503AD
:103A20007814121427781212142774091211F01244
:103A3000143E74091211F012BB76850A82850B833D
:103A400012C02F1211BAE9FE70157C137D03850A8E
:103A500082850B8312BD28122483E97009801A74B1
:103A6000166E70027E0012C5FDEE7004800B7E01A2
:103A7000850C82850D8312C34AEEF902C35FEE24E2
:103A800002F50AE43FF50B228A128B13900314EA25
:103A9000F0A3EBF0EA4B2274EC12121474FC121136
:103AA000A4EAFEEBFF8C108D11EA2405F50AE43F31
:103AB000F50B740212120A850A82850B8312BB7DF4
:103AC000700302BB66EE2402F50CE43FF50DA81A64
:103AD000A91B8812891378121214277CFF7DFF79A5
:103AE0000D850C82850D8312C03E1211BA12BA8860
:103AF000700B850A82850B8312C04780768E828F79
:103B000083A3A3A3A3E0F514781412142B850A82CF
:103B1000850B83A3A312143E751413751503781433
:103B2000121427781212142774091211F012143E7D
:103B300074091211F012BB76850C82850D8312C0B8
:103B40002F1211BAE9FE700F7C137D0312BD2212F1
:103B50002489E97009801A74166E70027E0012C5FD
:103B6000FDEE7004800B7E01850A82850B8312C3F3
:103B70004AEEF902C35FE0F9AC0EAD0F2212C33575
:103B80008A0E8B0FEA4B2274E812121474FE121183
:103B9000A48A188B198C168D17EA2405F50EE435C6
:103BA00019F50FEA2402F510E43519F51185108294
:103BB00012BD2C8A0A8B0B750D007C037D007900E9
:103BC0007A137B03123473750C00E50A14F51204A2
:103BD00024FFF50AE50B34FFF50B804C900313E04E
:103BE000FA900310E0F8EA28F8E43400F9E50A98BE
:103BF000E50B99500D900313E0F8E512C39890037C
:103C000010F0E0F514751500781412142712CC8EFC
:103C1000900314E02A12B97B1211BA900310E0F855
:103C2000900313E028F0050C850E82850F83A3A373
:103C300012C5F6400302BD07900313E0C3950AE4E2
:103C4000950B400302BD07AE0CEE2EFEE433FF12CF
:103C5000BD49AC1AAD1B12CC9BE439FB1227418A3B
:103C6000148B15AC14AD15EA4D701B750D0112BD0A
:103C70003A12C34E90031412B2D660031234DFA975
:103C80000D740202BFB2851882851983A3A3A3A372
:103C9000E0F50D780D12142BE4F514F515781412D7
:103CA0001427751410751503781412142790031136
:103CB00012143E74071211F012143EA912851082DC
:103CC00085118312C02F1211BAE9F50D70A012C62A
:103CD000E9600302BBDCE4F514F51578141214272F
:103CE0007CFF7DFF790F85108285118312C03E1203
:103CF00011BA8B15A91512B744600302BBDC12BDC3
:103D00003A12C04B02BC817C137D03851082851161
:103D10008312BD2812248FE9600302BC747900026B
:103D2000BC81850C82850D8312B9A92212BD302277
:103D3000F58312C33DFB12255B2212BD4912C33D20
:103D4000F9EA85168285178322850E82850F83E026
:103D50002EF8A3E03F8882F5832274E812121474CF
:103D6000FA1211A474041211F012B9918C188D1961
:103D700074041211F0E02405F510A3E03400F511ED
:103D800074041211F0E0240212BFBA12BFCF7F00F8
:103D90007E00A81AA91B880A890B780A12142785A5
:103DA0001082851183A3A3A3A3E0F50A8F0B780AE1
:103DB000121427E5102405F50AE43511F50B780AED
:103DC000121427851082851183A3A312C017121124
:103DD000BA8A0E8B0F802412BFEAF00F12BFEAF0EE
:103DE0000F90031012C32012142712CC8EEFF8127A
:103DF000B9761211BA900310E02FFFE50E450F605F
:103E00007A851A82851B8312143EAC0EAD0F85167F
:103E10008285178312BFC61211BAE9FEE50E24048B
:103E2000F512E4350FF513E9704B74041211F0121A
:103E3000BFF0F50A780A12142BE4F50AF50B780A9C
:103E4000121427750A10750B03780A1214279003B1
:103E50001112143E74071211F012143EE50C24FAEC
:103E6000F9AC0EAD0F85168285178312C02F121183
:103E7000BAE9FE603612C00612C34DEF700302BFEE
:103E80009D900314E0F5F0EF84900313F07C137D14
:103E90000385168285178312BD28122495E96006D2
:103EA00090031512C600790002BFB0EFF50A703D0D
:103EB000E4F514F51578141214277CFF7DFF7911B1
:103EC00085168285178312C03E1211BA8B15A9156B
:103ED00090031512B747700912C00612C04A02BFFC
:103EE000B0900310E02404900314F0803590031088
:103EF000E0F8900314E0FCE82404FAE43400FBEA60
:103F00006C4B600302BE81E50C24FAFAE50D34FF28
:103F1000FBE50A28F8E43400F9EA98EB995003022B
:103F2000BE81851282851383E0C0E0900315E02FE7
:103F3000F8A3E034008882F583D0E0F00F85128288
:103F4000851383A3E0C0E012BFD7D0E0F00F740266
:103F50001211FA880A890B780A12142774021211B6
:103F6000F012143E851082851183A3A312BFF912AB
:103F700011BA8A0E8B0FEA4B700302BDD77402127E
:103F800011F0E0C0E012BFD7D0E0F00F74021211C0
:103F9000F0A3E0C0E012BFD7D0E002BDDFEE7002B8
:103FA0007E0A85108285118312C00C12C34DEEF972
:103FB00074061211BA7F100212E6F516A3E034005F
:103FC000F5178516822212B9A91227297402221226
:103FD000BD308A0C8B0D2212BFDB22900315E02F1F
:103FE000FAA3E034008A82F5832212BFDB74FF2239
:103FF00012CC7AA3A3A3A3E02212CC95AA0EAB0FF6
:1040000012274774042285128285138312CE23F966
:104010008518828519832212CC958510828511839B
:1040200012B9A912273B74062285128285138312C6
:10403000B9A91228A974092285128285138312B99D
:10404000A912281374022212C353E8F0A3E9F079ED
:10405000112274EA12121474FE1211A48A0A8B0B34
:104060008C148D15EA2405FEE4350BFF12C3298A52
:104070000E8B0FEE2406F510E43FF511EA4B7003AA
:1040800002C138E50A2402F50CE4350BF50D8A82ED
:104090008B83A3A3A3E0A2E5502212C1628A128BF4
:1040A00013EA4B60247912AC0EAD0F12BD228512BB
:1040B00082851383121212E9F50E707F85108285B6
:1040C0001183E0600979528011750E0E806D850AAA
:1040D00082850B83A3A3A3A3E0F9E4F50AF50B788B
:1040E0000A1214278E828F83A3A3E0F50A780A129E
:1040F00014278E828F83A3A3A312143E8E828F83F4
:1041000012CC91850C82850D8312C46F1211BAE90D
:10411000F50E7011851082851183E0702C12BD227E
:1041200012249B80247416697011750E0074181285
:1041300011F012CC76E48010750E0112CE198514A0
:1041400082851583E8F0A3E9F0851082851183E06C
:10415000600479008002A90E74021211BA7F0E0267
:1041600012E6851A82851B8312B9A912289D227432
:10417000EC12121474F71211A48A0C8B0D8C128D90
:1041800013EA2405FEE4350DFF750E0012C3298ADB
:104190000A8B0BEA4B700302C30BE50C2402F50CEF
:1041A0005002050D8A828B83A3A3A3E0A2E55025CC
:1041B00012C1628A0E8B0FEA4B604F7912AC0AADC6
:1041C0000B12BD22850E82850F83121212E9F50EA5
:1041D000600302C30E850C82850D83E0F50AA3E01F
:1041E000F50BAA0AFB122891EA4B70197AFF7BFFA4
:1041F000122891EA4B700302C3018A828B83E50A7D
:10420000F0A3E50BF0750A008008750E0E02C30ED0
:10421000050A90030DE0F8E50AC398400302C301C4
:10422000E50AF510751100740378101211918A8255
:104230008B83A3A3E02510F8A3E0351112C6DE702E
:10424000CF8E828F8312C34212B9918E828F83A345
:10425000A312C34212B98FEE2404F50AE43FF50B12
:10426000850A82F583E088828983A3A3A3A3F0A3B0
:10427000E4F0EE2405F510E43FF511851082F58396
:1042800012C342A3A3A3A312B98F75140775150017
:104290007814121427EEFCEFFD740412120212CCF3
:1042A0004C1211BAE4F5147814121427850A828589
:1042B0000B83E0FC7D007917850C82850D8312C08D
:1042C0003E1211BA74071211F012BA8F6038850AC3
:1042D00082850B8312C320121427851082851183D7
:1042E00012CC9112CC4C1211BA740212120A12BDE5
:1042F000221224A1E9602374071211F012C6008073
:1043000019750E098008750E118003750E0112CE05
:104310001985128285138312C34DA90E7409804139
:10432000E0F50A750B00780A22AC1AAD1B8E82F5F7
:104330008312C3352212C33DFB12274122E0FAA3A8
:10434000E02212B9A9888289832212C353E8F0A31C
:10435000E9F022E0F8A3E0F9851082851183227448
:10436000041211BA7F0C0212E674EC12121412C479
:104370005D751200EA2402F50EE43FF50F850E820A
:10438000F58312BD281228918A0A8B0BEA4B700321
:1043900002C441850C82850D83E06401600302C480
:1043A00036AC0AAD0BAA0CAB0D122885E9606F85FF
:1043B0000A82850B8312B727EE2406F50CE43FF53D
:1043C0000D8E828F83A3A312143E8E828F83A3A3AC
:1043D000A3A312143E850C82850D8312143E791816
:1043E0008E828F8312CC91850E82850F8312C46FCB
:1043F0001211BAE9F8741668700B850C82850D836A
:10440000E4F0A38014E960128E828F8312BD2885A8
:104410001082851183EAF0A3EBF0891280187810DE
:10442000121427AC0AAD0BEEFAEFFB12288B7402C4
:104430001211BAE9F512AA0AAB0B122897E512700D
:104440000E850E82850F8312BD281224A780097461
:104450001665127003751200A91202C364EAFEEB1E
:10446000FF8C108D11EA2405F50CE43FF50D2212A6
:10447000B9A91228AF74062274EA121214750A0040
:10448000750B007E007F00750C00EC2402F512E431
:104490003DF5138035EC650A7003ED650B60030292
:1044A000C52D88828983A3A3E06A7003A3E06B70A3
:1044B0007C88828983A3A3A3A312CE1DEE28FEEFDE
:1044C00039FFEA28FAEB39FB050C12C5F3503BE53E
:1044D0000CF50E750F007403780E1211918512827F
:1044E00085138312C5E612C6DE601FE50A450B7010
:1044F000A48C0A8D0B8882898312B72588828983D0
:10450000A3A3E02EFAA3E03F80BDE50CC3940250C4
:104510000302C5E1750A00750B00EE4F600FEEFA5D
:10452000EFFB1234D98A108B11EA4B700579000227
:10453000C5E3750D00807FE50DF50E750F00740362
:10454000780E121191851282851383E0250EF50EE7
:10455000A3E0350FF50FE50E2406F516E4350FF54B
:104560001785168212C6E1603AE50E2404F514E4BC
:10457000350FF515851482F58312143EE510250AD2
:10458000FAE51112CC451211BA851482851583E023
:10459000250AF50AA3E0350BF50B851682851783EE
:1045A00012C600E50D600D7C087D007900AA0EABF7
:1045B0000F123473050DE50DC3950C500302C5377A
:1045C00085128285138312CE1D8882F583A3A3A34F
:1045D000A3A3A3E510F0A3E51112B2DDEEF0A3EF63
:1045E000F0790102C15D12C5EA22E0250EF8A3E0D0
:1045F000350F2290030DE0F8E50CC39822900314C8
:1046000012B9A91234DF2274F01212148A108B111D
:104610008C0C8D0D750F00750E00804A7916EE24F6
:1046200006F50AE43FF50B8E828F83A3A312143E96
:104630008E828F83A3A3A3A312143E850A82850BC7
:104640008312143E851082851183A3A312C46F12B6
:1046500011BAE9F50F7416697064850A82850B83B7
:10466000E4F0A3F0050E90030DE0F8E50EC39850BA
:104670005EAA0E7B008A0A8B0B7403780A121191D2
:10468000850C82850D83A3A312C738E8FEE9FF12CB
:10469000C6DF603BEA24010A50010B90030DE06A7B
:1046A0007001EB601488828983A3A3A3A3A3A3A3AF
:1046B000A312C6EC600302C61C791802C61EE9608C
:1046C000A312CE1974101211F012C6D612C34DA93E
:1046D0000F7F080212E612C33DF5838A8222F98811
:1046E00082F58312CC95EC4D2290031412CE23F95F
:1046F000E8492274F61212147C0080010C90036ABF
:10470000E0F8ECC398501FECF50A750B00740278C2
:104710000A12119112C72DE06A7003A3E06B70DCDE
:10472000E8FAE9FB80047A007B0002C7C990030B1A
:1047300012C7388882F58322E0250AF8A3E0350BFA
:10474000F92274F21212148A0A8B0B750C0080275E
:104750008E828F83A3A3A3A312B2D460031234DF8B
:104760007C087D007900EEFAEFFB1234738E828FA5
:1047700083E4F0A3F0050C12C5F35028E50CF50E08
:10478000750F007403780E121191850A82850B83D0
:10479000A3A3E0250EFEA3E0350FFF8E82F5831262
:1047A000C6EC70AC850A82850B8374FFF0A3F0021F
:1047B000CF0674F612121412CDBA70067A007B007E
:1047C0008007A3A3A3A312BD287F020212E674F6FA
:1047D000121214E9FE8C828D83E06402703D12CDCA
:1047E000AAF50AA3E0F9A80A74026870037429699B
:1047F0007029750A02750B00780A121427740E12BC
:1048000011F012143E740E1211F012143EEEF91251
:10481000319D74061211BAE9F98002790180AA74F7
:10482000E812121474FB1211A4E9851A82851B8305
:10483000F08A188B19ECFEEDFF7512008C82F5835F
:10484000A3A3A3E0A2E4502A741D1211F012C168C0
:104850008A828B83E5824583700302CC3B790AEE22
:10486000FCEFFDAA18AB19121212E9F5126003024F
:10487000CC3E741F1211F0E0F50AA3E0F50B742191
:104880001211F0E0F50CA3E0F50D74231211F0E025
:10489000F510A3E0F5118E828F83E06402600302BD
:1048A000CBE7A312CE1D850A82850B83A3858214D4
:1048B000858315EE2406F50EE43FF50F8882898383
:1048C00012CC9BF516E439F51778161214B10100D5
:1048D00000280128F6C807000228C2C903282BC9EE
:1048E0000029E3CA01290ECB0229ACCA0329E3CA75
:1048F000042984CBE7CBE5104511600302CBE285A8
:104900000E82850F8312CE1DE8FAE98882F583E0D6
:10491000850C82850D8312CCA512CC521214278AE5
:10492000828983A3E0FCA3E002CB70E5104511600F
:104930000302CBE2850C82850D837401F012CC83D7
:10494000850A82850B83F07C007D008E828F83A395
:10495000A3A3A3E02401FAA3E03400FB122741EA59
:104960004B60458A828B83E02402F8850C82850D9A
:1049700083E028F0EA2404F8E43BF98882F583E038
:1049800085148285158312CCABF08A828B8312CC7E
:10499000521214278A828B83A312CC91E50A240336
:1049A000FAE4350BFB02CB75850C82850D83E02480
:1049B00004F07C047D007900AA14AB151234730254
:1049C000CC3EE5104511600302CBE212CC83FEA37E
:1049D000E0FF850C82850D837404F0EE850A8285E4
:1049E0000B83F0EF851482851583F0740312120A8D
:1049F00012CD9C700302CA8D8A828B83A3A312B747
:104A00002574011211FA8810891178101214277474
:104A1000051211F012143E7CFF7DFF12274774042B
:104A20001211BAEA4B7033850E82850F8312CC6D5A
:104A3000121427850E82850F83A312143E7C027DFB
:104A4000007A527B8412254974041211BAE9700A63
:104A500074011211F074FFF0A3F08E828F83E06472
:104A6000027034750E02750F00780E1214278E82B4
:104A70008F83A312CC91E50A2404FAE412CC4512E8
:104A800011BA850C82850D83E0240280097401121D
:104A900011F0EEF0A3EFF074011211F012CC63F0FC
:104AA00074011211F0A312CC5B02CBDCE5104511AE
:104AB000600302CBE2850E82850F8312CC7612CC86
:104AC00091AA18AB191231A3850C82850D8374024B
