:020000040000FA
:0600000002011A0221D2E8
:03002B000226A00A
:0300330002268220
:030053000222483E
:03006B0002265911
:1000830002202FE5C754F84401F5C7790122000087
:100093000080FB120086B90003020104E4791B7897
:1000A30002B800028004F709D8FCE4791D7802B88D
:1000B30000028004F709D8FCE490028178347919AE
:1000C3008002F0A3D8FCD9FA781A90014A7A01BACF
:1000D30000028007E493A3F608DAF97AB47B1A9056
:1000E300014B78DB79018015E493A3AD82AE838A5B
:1000F300828B83F0A3AA82AB838D828E83D8E9D9C6
:10010300E775821E7583E0740312012C7582917565
:100113008300740012012C75D00075813F7518811E
:10012300751902759F00020096C09FF59FE473D076
:100133009F22D083D082C09FE493C0E0740193C018
:10014300E0740293F59F2201C903D5030B04050450
:10015300FF0000B4000028002800283075A000A08C
:1001630000A000A00000080008E001F0001000104B
:10017300001000100010001000500050005000103C
:10018300001000D0070000000000000F0001000570
:1001930000307507001000010081FF00000000FF20
:1001A300FFFF02020214910100000091020E91016F
:1001B30000000E1B020A91010000B802020E910119
:1001C30000000F1B020891010000CE02FFFF010097
:1001D300FF200214910100000391020E910100001F
:1001E3003D1B0212910000000000020C910300006D
:1001F300FA021700510C510C510C510C510C510CBB
:10020300510C510C510C510C510C510C510C790ED9
:10021300970E730E01E803057710020AFFFFFF0034
:10022300FEFF12013595FD02120135B2FD021201E6
:1002330035D3FD0212013532FE0212013571FE0281
:1002430012013592FE02120135BDFE02120135FC88
:10025300FE021201358EFF02120135CAFF0212019E
:10026300354EC10312013561C10312013590C1033B
:10027300120135C8C10312013511C20312013554ED
:10028300C2031201359AC203120135CDC203120112
:1002930035F4C20312013523C3031201355AC303D4
:1002A30012013573C303120135C2C303120135F0C2
:1002B300C30312013524C403120135F39902120159
:1002C30035F19A021201352C9B021201359C9B02D7
:1002D300120135BF9B02120135C19B02120135C4C5
:1002E3009B02120135029C021201356E9C0212011F
:1002F30035D89C02120135989D02120135B49D0236
:10030300120135E99D02120135249E02120135C006
:100313009E02120135F79E02120135289F02120137
:10032300352B9F02120135709F021201357D9F020A
:10033300120135959F0212013505A00212013508FD
:10034300A00212013515A00212013518A0021201F4
:100353003562A0021201357CA002120135C2A0024F
:10036300120135C5A002120135F9A002120135FCB4
:10037300A0021201356FA1021201359FA1021201E1
:1003830035ABA102120135DEA102120135EBA10248
:10039300120135EEA1021201353DA2021201353AD6
:1003A300A302120135DEA3021201354AA40212018F
:1003B3003586A402120135CACD02120135A2CE023E
:1003C300120135D0CE0212013566CF02120135A7D4
:1003D300CF021201350FD0021201359DD002120156
:1003E3003552D10212013551D402120135BCD50266
:1003F300120135DCD5021201355EA603120135FA6E
:10040300A7031201351AA8031201353AA9031201F1
:100413003583A90312013585B203120135ADB20349
:10042300120135DAB20312013512B3031201357822
:10043300B303120135C2B30312013526B40312010B
:10044300356EB403120135ABB403120135D9B403CD
:100453001201356EB50312013578B50312013585E6
:10046300B503120135B8B503120135C4B503120142
:1004730035DCB503120135E6B50312013597DB030D
:10048300120135A5DB03120135BDDB03120135D59E
:10049300DB03120135ECDB0312013590E00112019D
:1004A3003533E101120135ABE101120135D2E2012D
:1004B3001201350BE301120135A3E301120135905B
:1004C300E40112013539E501120135A1E5011201FB
:1004D3003529E70112013511E80112013508E90157
:1004E3001201353EE901120135E0E9011201350639
:1004F300EA01120135D2EB0112013518EC011201A8
:10050300353AEC01120135D9EC0112013593ED01B5
:100513001201359FEF0112013574B6031201358ABA
:10052300B603120135A8B603120135B8B703120199
:1005330035C2B703120135ECB803120135D9B9033B
:1005430012013545BA03120135578A03120135F7F3
:100553008A031201352E8B03120135858B03120199
:1005630035848D03120135209101120135CD91019E
:10057300120135E991011201359F9201120135A94A
:100583009201120135C39201120135D79201120172
:1005930035A39301120135649401120135C094010E
:1005A300120135479501120135FF950112013500FE
:1005B3009901120135BF9A01120135619B011201A4
:1005C300352D9C01120135529F0112013500A00106
:1005D30012013539A101120135F6A2011201358A42
:1005E300A301120135CDA3011201350CA40112019F
:1005F30035F5A40112013529A501120135B1A50173
:10060300120135D8BB011201355FBC01120135B3AC
:10061300BD01120135BFBD0112013537BE01120103
:100623003510BF0112013510C0011201350CC10193
:10063300120135D8C10112013532C3011201354807
:10064300C30112013569C3011201352DC401120121
:100653003553C40112013500C70112013505C70125
:1006630012013529C90112013570C901120135D6AC
:10067300C9011201351CCA01120135ECCA0112016C
:1006830035A1CB01120135FDCB0112013500CC019F
:100693001201354CCC0112013588CC01120135C74A
:1006A300CC01120135E9CC011201351DCD01120136
:1006B300358BCD011201354B85031201355485036A
:1006C300120135628503120135B28503120135D15A
:1006D30085031201351B86031201355E8703120160
:1006E30035F687031201353A88031201356488030E
:1006F300120135CF88031201351389031201359690
:100703008903120135458A03120135CC26001201F3
:1007130035DC2600120135762700120135D2270079
:10072300120135902800120135B32900120135E377
:100733002900120135122A00120135C82B001201BB
:10074300351B2E001201357A30001201356331005A
:100753001201355332001201352634001201351EC1
:1007630037001201353B3800120135353A001201CA
:1007730035443B00120135D33C00120135BF3D0027
:100783001201350E3E001201357E3E001201359AEC
:100793003E00120135EB3E001201358B430012017E
:1007A30035924400120135F444001201351F45000F
:1007B300120135D7450012013592AE031201359C63
:1007C300AE03120135E4AE03120135F8AE03120194
:1007D3003589AF03120135AFAF03120135EAAF0319
:1007E30012013513B00312013547B0031201355C12
:1007F300B003120135C7B003120135E8B00312018B
:1008030035FCB00312013511B1031201354BB103AD
:10081300120135B4B103120135F7B10312013521C9
:10082300B2031201355DB2031201358BD8031201F5
:10083300355BAF0212013534B002120135A3B002A9
:10084300120135DEB00212013519B20212013599D7
:10085300B2021201359FB4021201354CB7021201E4
:1008630035F7B702120135FAB80212013562B9023F
:100873001201350080031201354380031201359DB7
:100883008103120135708203120135AE8403120114
:10089300355BCA0312013509CB03120135FCCB03C7
:1008A3001201353ECC0312013510D2031201356F0C
:1008B300D2031201350CD30312013538D3031201CD
:1008C3003557D30312013592D303120135B2D30343
:1008D3001201353F9403120135C894031201358781
:1008E3009503120135959603120135B5980312014C
:1008F3003554C40212013569C40212013536C502EA
:10090300120135A3C502120135E9C5021201358A68
:10091300C60212013593C7021201356BC8021201D8
:1009230035EEC802120135A7C90212013531CA02D8
:1009330012013534CA021201357CCA02120135EAAA
:10094300CA02120135A2CB02120135C2CB02120137
:100953003506CC0212013522CC021201359CCC02A1
:10096300120135AACC021201353DCD02120135A781
:10097300CD02120135739D03120135EF9D03120160
:10098300352D9E03120135119F03120135809F03FC
:10099300120135C49F0312013507A0031201353438
:1009A300A00312013552A0031201358AA0031201DC
:1009B30035C7A003120135E8A0031201355EA10378
:1009C300120135A8A103120135086300120135CACB
:1009D3006400120135B26600120135FA6600120195
:1009E30035256700120135EE6700120135326800C4
:1009F3001201359E6800120135B16800120135F20B
:100A030068001201351F690012013568690012017F
:100A130035A46900120135C769001201351A6A004D
:100A2300120135896A001201355E6B0012013546E9
:100A33006C00120135276E001201353B7300120161
:100A430035917300120135CE7300120135D2750052
:100A5300120135E3770012013511790012013522B5
:100A63007900120135C2C70312013534C8031201DC
:100A7300358AC803120135CFC803120135EFC80305
:100A83001201353CC90312013584C903120135C96A
:100A9300C9031201351ACA03120135404600120177
:100AA30035894600120135B64600120135E8460085
:100AB300120135F5460012013501470012013513C5
:100AC3004700120135DA4700120135384800120198
:100AD300356D4800120135A84900120135F549006A
:100AE3001201354E4A00120135AA4A001201359708
:100AF3004B001201351C4D00120135E34D0012016C
:100B030035F34D00120135174E001201351A4E0010
:100B1300120135D84E00120135794F0012013514F8
:100B23005000120135655000120135C25000120108
:100B330035605100120135FD51001201357D52001F
:100B43001201351C5300120135945300120135F381
:100B530053001201354054001201355B5400120159
:100B630035FD54001201351B570012013563570040
:100B7300120135A65700120135005C001201359FA2
:100B83005C001201352D5D001201353C5E0012013F
:100B930035D35E00120135F85E00120135475F0060
:100BA3001201355C5F001201359B5F0012013506AF
:100BB30060001201354E60001201355561001201CB
:100BC30035096200120135696200120135BD620008
:100BD300120135D66200120135FBD60212013546E9
:100BE300D70212013552D70212013522D80212015F
:100BF300354BD8021201357ED802120135EAD802EC
:100C030012013528D90212013561D9021201357951
:100C1300D902120135D2D902120135EBD9021201E0
:100C23003530DA0212013543DA021201355DDA0298
:100C330012013573DA021201357ADB021201359B98
:100C4300DC0212013584DD0212013573DE0212016A
:100C530035F17F00120135558F03120135C692031A
:100C6300120135F493031201350D8D02120135FE85
:100C73008F02120135049002120135B4920212015F
:100C8300356D9502120135E8980312013576990303
:100C9300120135389A031201355D9A031201353575
:100CA3009C031201353A9D0312013545CE01120111
:100CB3003578CE01120135F3D6011201353AD80148
:100CC30012013555D90112013597DA011201359810
:100CD300DB01120135E6DB0112013500DC011201F3
:100CE3003546DC011201358FDC0112013598DC0138
:100CF30012013544DD011201351EDE011201356A90
:100D0300DE01120135CADE011201351CDF011201B9
:100D1300354ADF0112013588DF011201354FBA036D
:100D2300120135C5BA03120135DBBA031201355876
:100D3300BB031201358FBB03120135C9BB0312017B
:100D43003503BC0312013576BC03120135B1BC0374
:100D5300120135BABC03120135C6BC03120135DFDB
:100D6300BC0312013503BD0312013518BD03120183
:100D73003541BD03120135A3BD03120135CABD03BD
:100D83001201353F79001201355279001201356C99
:100D93007900120135997900120135DF79001201CA
:100DA30035127A001201354F7A00120135B57A00F7
:100DB300120135CA7A00120135E17A00120135EFCA
:100DC3007A00120135FE7A00120135137B001201FD
:100DD30035287B00120135337B001201353F7B0040
:100DE3001201354C7B001201355F7B001201356A1D
:100DF3007B00120135927B00120135367C00120113
:100E0300354B7C00120135607C001201357A7C0081
:100E13001201359B7C00120135B87C00120135C3E9
:100E23007C00120135767D001201355E7E001201D1
:100E330035857E00120135907E00120135A57E00B6
:100E4300120135B97E001201351A7F0012013520D7
:100E53007F00120135267F001201352C7F0012011D
:100E630035447F00120135777F0012013507BA023E
:100E730012013529BA02120135EEBA021201357D8B
:100E8300BD021201359CBE02120135B8BF02120128
:100E93003592C00212013549C102120135058002A3
:100EA30012013593800212013528810212013504A3
:100EB30082021201353882021201354B820212017D
:100EC30035C582021201354D840212013574840244
:100ED300120135FB84021201353A85021201354BAA
:100EE3008502120135C08502120135DF8502120128
:100EF30035F785021201353B870212013545890218
:100F0300120135778B021201357D8C02120135C037
:100F13008C02120135ACEF01120135BFF001120151
:100F230035A7F101120135B1F101120135D3F101F8
:100F3300120135DFF1011201352CF301120135598C
:100F4300F3011201357AF401120135BCF4011201E7
:100F530035F1F501120135C1F60112013510F70122
:100F630012013571F701120135A6F701120135DFC0
:100F7300F7011201358AFB01120135A1FB011201B0
:100F8300351FFC011201352DFC0112013576FC01E0
:100F930012013584FC0112013505FD01120135747E
:100FA300FD01120135C0FD011201355FD0031201AD
:100FB3003584D003120135F5D00312013566F002F2
:100FC3001201356FF00212013578F0021201359CDF
:100FD300F1021201358DF302120135BBF302120146
:100FE30035E6F30212013514F4021201353FF4021F
:100FF3001201357DF402120135A9F402120135E61E
:10100300F40212013511F5021201355DF5021201E8
:1010130035B4F502120135F4F50212013543F60237
:101023001201356EF602120135B4F602120135E2F1
:10103300F6021201350DF70212013530F7021201E3
:101043003512DE031201353EDE0312013597DE034E
:10105300120135A1DE03120135B1DE03120135BCE5
:10106300F702120135FAF70212013581F802120173
:101073003596F802120135E5F80212013519F90225
:1010830012013558F90212013567F9021201351AB6
:10109300FA0212013573FA02120135C2FA02120181
:1010A3003519FB021201352EFC0212013520FD0217
:1010B3001201355DFD02120135BEDF0312013598C1
:1010C300A6011201350AA9011201357AAA011201FA
:1010D30035D7AA0112013579AB0112013574AC0180
:1010E300120135F1AC0112013581AD01120135A6B2
:1010F300AD01120135F6AD011201358EB0011201B9
:101103003502B101120135EEB10112013524B201EC
:1011130012013567B201120135E8B301120135142A
:10112300B40112013556B4011201359FB401120105
:10113300350BB5011201352AB50112013544B5014C
:1011430012013562B60112013572B601120135F58D
:10115300B70112013513B80112013549B801120163
:1011630035C5B9011201353ABA0112013577BA0111
:10117300120135AABB0112013546FE01120135A247
:10118300FE0112013546FF0112013565FF0112010F
:1011930035B3FF011201355EDD031201356FDD0347
:1011A30012013576E003120135B5E003120135690A
:1011B300E1031201357CDC031201358CDC031201DF
:1011C30035A4DC0312013558DD031201359FD90321
:1011D30012013522DA0312013588DA03120135626E
:1011E300D5031201358BD503120135F1D503120155
:1011F3003510D60312013563D603120135BCD6036D
:10120300120135F7D603120135FAD6031201358CD4
:10121300C403120135A1C4031201359FC503120192
:101223003537C603120135ABC603120135C5C603F4
:10123300120135DCC603120135EAC6031201350279
:10124300C70312013517C7031201353CC703120147
:10125300358DC70312013591AA03120135A8AA03DC
:1012630012013521AB03120135F5AB03120135C76A
:10127300AD031201352CAE031201357FAE0312010B
:1012830035F87F0012013585CE03120135FBCF03FC
:101293001201355CD00312013504D703120135273F
:1012A300D70312013550D703120135EAD7031201D0
:1012B3003500D80312013542D8031201359DE802E7
:1012C300120135A7E802120135E7E80212013530B1
:1012D300E90212013568E902120135BEE902120181
:1012E30035DBE9021201355AEC0212013563EC02D7
:1012F300120135A8EC02120135D1EC02120135E6D8
:10130300EC0212013556ED02120135E3ED02120132
:101313003537EE021201355AEE02120135D9EE02CB
:1013230012013514EF0212013549EF021201355B48
:10133300EF021201357AEF0212013583EF02120137
:10134300353AF002120135C0D30312013511D4032B
:101353001201359AD40312013504D503120135F96C
:10136300BD0312013521BE0312013516BF0312015D
:10137300353BBF03120135D5BF0312013564C003EA
:10138300120135A1DA0312013589CC03120135BFED
:10139300CC03120135F2CC031201354BCE031201FB
:1013A30035BBDE03120135D1DE03120135DBDE036B
:1013B3001201352FDF031201355ADF0312013528DD
:1013C300E002120135E2E0021201351DE1021201D1
:1013D300354EE102120135BEE10212013514E2027B
:1013E30012013568E20212013555E3021201354E4E
:1013F300E402120135CFE50212013583E602120140
:1014030035ECE602120135FFE602120135E4E7028C
:101413001201353DE802120135EFA1031201350532
:10142300A203120135A6A203120135E5A20312019C
:101433003502A30312013533A30312013580A3033D
:10144300120135B3A303120135EEA303120135E9EB
:10145300A50312013551A603120135ACA4021201F2
:10146300359AA50212013561A602120135E5A802DB
:10147300120135D1A902120135F8A9021201352A48
:10148300AC0212013577AC021201350AAD0212012A
:101493003545AE02120135DFAE02120135F6E00327
:1014A300120135BFE00312013522E1031201354B6E
:1014B300E103E066701008A3E066700A08A3E06623
:1014C300700408A3E06622C3E7960809E7960809B3
:1014D300E7960809E79622C3E09608A3E09608A3D7
:1014E300E09608A3E09622C008C3E096F50808A397
:1014F300E096420808A3E096420808A3E096450850
:101503007001D3D00822080808EAC0E0EBC0E086E7
:10151300F0E7A4FA180986F0E7A42AFA180986F076
:10152300E7A42AFA180986F0E7A42AFA1986F0E74D
:10153300A4FBE5F02AFA190886F0E7A42BFBE5F0F3
:101543003AFA190886F0E7A42BFBE5F03AFA1818E3
:101553000986F0E7A4C5F02BFBE43AFA1908E7C5BE
:10156300F0C6A426F6E5F03BFBE43AFA1886F0E76A
:10157300A4F6E5F00826F6E43B08F6E43A08F6D0CC
:10158300E0FBD0E0FA22E4CFC0E0E4CEC0E0E4CD5B
:10159300C0E0E4CCC0E075F020E626F608E633F6BA
:1015A30008E633F608E633F6181818EC33FCED3387
:1015B300FDEE33FEEF33FFC3EC9709ED9709EE978A
:1015C30009EF97191919400FFFEC97FC09ED97FDE7
:1015D30009EE97FE191906D5F0BFECF709EDF709E7
:1015E300EEF709EFF7191919D0E0FCD0E0FDD0E0D0
:1015F300FED0E0FF226016080808C6C313C618C64B
:1016030013C618C613C618C613C6D5E0EA22700956
:10161300080808226016181818C6C333C608C6334C
:10162300C608C633C608C633C6D5E0EA22E627F69F
:101633000809E637F60809E637F60809E637F62219
:10164300E026F608A3E036F608A3E036F608A3E0A2
:1016530036F622E026F008A3E036F008A3E036F0E1
:1016630008A3E036F022C3E697F60809E697F608E2
:1016730009E697F60809E697F622C3E0C696F60848
:10168300A3E0C696F608A3E0C696F608A3E0C696BE
:10169300F622C3E096F008A3E096F008A3E096F0E4
:1016A30008A3E096F022E657F60809E657F608097C
:1016B300E657F60809E657F622E056F608A3E05681
:1016C300F608A3E056F608A3E056F622E056F00823
:1016D300A3E056F008A3E056F008A3E056F022E09A
:1016E30066F608A3E066F608A3E066F608A3E066DC
:1016F300F622E0F608A3E0F608A3E0F608A3E0F676
:1017030022E6F008A3E6F008A3E6F008A3E6F02239
:10171300E0FAA3E0FBA3E0FCA3E0FD22EAF0A3EBE5
:10172300F0A3ECF0A3EDF022E0F8A3E0F9A3E0FAD4
:10173300A3E0FB22E8F0A3E9F0A3EAF0A3EBF02295
:10174300CAC0E0E6F0A308DAFAD0E0FA22CAC0E0A1
:10175300E0A3C582CCC582C583CDC583F0A3C58272
:10176300CCC582C583CDC583DAE6D0E0CA22C3E403
:1017730098F8E499F91217B28026C3E49AFAE49B25
:10178300FBE920E7E91217B2E498F8E499F922C3D8
:10179300E498F8E499F91217B2E498F8E499F9C3D4
:1017A300E49AFAE49BFB22EB20E7CFE920E7E0B9D8
:1017B3000010BB0008E88AF084F8AAF022E4FBC812
:1017C300FA22EB70227B10C833C8C933C9335007E0
:1017D300C39AC3DBF280069A50012ADBEAC833F4CA
:1017E300C8C933F4C9FA2275F008E4C833C8C93349
:1017F300C933C99AC99B5004C92AC93BD5F0ECFB2C
:10180300C833F4C8E4C9FA22600D08C6A2E713C6B8
:1018130018C613C6D5E0F322600C08C6C313C61856
:10182300C613C6D5E0F422700422600D18C6C33374
:10183300C608C633C6D5E0F41822251810AF08F53C
:1018430018400C15198008F51840021519D2AF225B
:1018530000C0D0251810AF08F518500C05198008E2
:10186300F51850020519D2AFD0D0222518F58210F1
:10187300AF08F518400C15198008F5184002151922
:10188300D2AF851983222518F582E43519F5832211
:101893002518F8E43519F9222518FAE43519FB223D
:1018A3002518FCE43519FD22E4732518C582C0E030
:1018B300E51934FFC583C0E0E518C3958224F81009
:1018C300AF08858319858218800885831985821856
:1018D300D2AFCEF0A3E520F0A37808E608F0A3DEAC
:1018E300FAEFF0A3E58124FAF8E608F0A3E608F09E
:1018F300A3E608F0A30808E608F0A3E608F0A3159A
:10190300811581D0E0FED0E0F8158115811581E8BD
:10191300C0E0EEC0E0222518C582C0E0E51934FF1F
:10192300C583C0E0E518C3958224F910AF08858309
:10193300198582188008858319858218D2AFCEF065
:10194300A3E520F0A37808E608F0A3DEFAEFF0A3FE
:10195300E58124FBF8E608F0A3E608F0A30808E60F
:1019630008F0A3E608F0A315811581D0E0FED0E0CE
:10197300F815811581E8C0E0EEC0E0228519838562
:101983001882E0A3FEE0A3F5207808E0A3F608DFC1
:10199300FAE0A3FFE0A3C0E0E0A3C0E0E0A3C0E05F
:1019A300E0A3C0E0E0A3C0E010AF08858218858300
:1019B300198008858218858319D2AFD083D082021B
:1019C3000132851983851882E0A3FEE0A3F5207810
:1019D30008E0A3F608DFFAE0A3FFE0A3C0E0E0A37A
:1019E300C0E0E0A3C0E0E0A3C0E010AF0885821828
:1019F3008583198008858218858319D2AFD083D057
:101A03008222C0D02518C582C0E0E51934FFC58302
:101A1300C0E0E518C3958224F310AF0885831985C8
:101A230082188008858319858218D2AFC8F0A3E98C
:101A3300F0A3EAF0A3EBF0A37908E709F0A3D8FA3F
:101A4300ECF0A3EDF0A3EEF0A3EFF0A3D0E0F0A34E
:101A5300D0E0F0A3D0E0F0A3E520F0A3E5F0F0A3FD
:101A630022851983851882E0C0E0A3E0F9A3E0FA98
:101A7300A3E0FBA37808E0F608A3DFFAE0FCA3E009
:101A8300FDA3E0FEA3E0FFA3E0C0E0A3E0C0E0A36A
:101A9300E0F5D0A3E0F520A3E0A3F5F010AF0885AF
:101AA30083198582188008858319858218D2AFD05F
:101AB30082D083D0E0F8D0E03274048006740280D0
:101AC300027401C0E0F40412186ED0E0121743222E
:101AD3007404800474028000CCC0E0EDC0E0E5181B
:101AE300C39CCCAD1950011D10AF068C188D198005
:101AF300068C188D19D2AF121750D0E0FDD0E0FC40
:101B030022D083D082E9C0E0E493A3C386F0C5F07A
:101B130095F0F908E493A386F0C5F095F0700BE413
:101B230093A3C3994005E9048002A3E475F002A4DA
:101B33002582F582E5F03583F583D0E0F9E493A3BC
:101B4300C0E0E493C0E022D083D082ECC0E0EDC0DB
:101B5300E0E493A3FCE493A3FDED4C600D121B960C
:101B6300EC24FFFCED34FFFD80EFE493A3FCE4934E
:101B7300A3FDED4C600D121BD5EC24FFFCED34FFEF
:101B8300FD80EFD0E0FDD0E0FCE493A3C0E0E4935C
:101B9300C0E022C0E0C3E493960874019396184012
:101BA3000FE4936670080874019366187000701947
:101BB300A3A3C3E49396087401939618A3A3400DBB
:101BC300D0E0D0E0D0E0021B86A3A3A3A3A3A3D0BD
:101BD300E022C0E0C0F088F0E49366700808740166
:101BE3009366187000A8F0A3A3700BD0F0D0E0D0D8
:101BF300E0D0E0021B86A3A3D0F0D0E02274F6125B
:101C03001919EAFEEBFF8C088D09EA2434F8E43F46
:101C1300F9E8FCE9FD121D2EE0FAEE2437F582E423
:101C23003FF583E0F88508F0A4C885F00A8509F03C
:101C3300A4250AF9EA28F8E439F97A257B00121772
:101C4300B2EA8C828D83F0F9131313541FFAEE2A30
:101C5300FAE43FFBEA245DF582E43BF583E0C0E070
:101C6300740759F8D0E0B800028004C313D8FCA26B
:101C7300E04021EE2436F582E43FF583E0F5F0E918
:101C830084A8F0EE28F8E43FF9E82438F582E43933
:101C9300F583E0F97F030219C574F5121919EAFEF9
:101CA300EBFFEA2434F582E43FF583E0C0E0121D44
:101CB3002ED0E0F08A828B83A3A3A3A3A3E0FAA38D
:101CC300E0FB8E828F83A3A3A3A3A3A3A3E0C39A62
:101CD300F508A3E09BF509EE2480F8E43F880AF5B4
:101CE3000B8882F583E06401702CEE2481F582E495
:101CF3003FF583EA2401F8E43BF9E0687003A3E0CD
:101D03006970137CCF7D06EEFAEFFB120B5B850A3D
:101D130082850B83E4F0AC08AD09EEFAEFFB121CED
:101D230000E9F912264B7F040219C5EA2435F5822E
:101D3300E43FF5832274ED121919900369E06408F6
:101D43006005E06407702C9061C8E06026900397FB
:101D5300E0F874FF68601CE875F012A4C8AAF02AC2
:101D6300F9749928FE740339FF8E82F583A3A3A324
:101D7300E070057900021F14EE2468F50EE43FF5C8
:101D83000F906060E0850E82850F83F075100C75EF
:101D93001107750800750900E5D914F50AE5D9544A
:101DA30003F50B6044EE2484F50CE43FF50D740356
:101DB300650B6025E50A600CEE2467F582E43FF5C8
:101DC30083E06025900707E06401603E850C82850F
:101DD3000D83E060207804801E850C82850D83E0EE
:101DE300603BE50AC394055034793DEEFAEFFB12EC
:101DF3000B91021D767800E50AC398FA95E0FB1271
:101E030009DB8A088B09EA4B7006120E4F021D7616
:101E1300850C82850D83E070048A108B1178008015
:101E230014E5D9C0E0E8FAE5102AF582E43511F5A6
:101E330083D0E0F008E8C3950A40E6850C82850D5F
:101E430083E0602874FC250AF50A7810121AC0ACE6
:101E53000AA90BEEFAEFFB120C4B7402121853E9AA
:101E6300700AAA08AB0912134D021DEC7403650B2B
:101E73006055E50AF50C750D00780C121AC0AC100C
:101E8300AD11AA08AB09120C0F7402121853850E78
:101E930082850F83E0F87480687005750C7F80027B
:101EA300880CE50CF50D780D121AC4780B121AC4C0
:101EB300A90AAC08AD09900397E0FA7B0012082B3E
:101EC30074021218538045851082851183E0F8C38C
:101ED300940E500F745328F582E4348FF583E06534
:101EE3000A6016EE24F9F582E43FF583E8F07907FA
:101EF300EEFAEFFB120B498013900369E06408705C
:101F03000BAC10AD11EEFAEFFB120C7B120E5B79EA
:101F1300017F0C0219C574F112191974FC12183DD2
:101F2300EAFEEBFF8909750C00A2AFE433F508C2A2
:101F3300AF9006D7E0FA9061D0E0F8748098F895F6
:101F4300E0F9C3EA98E499A2D265D0335015750C31
:101F5300018010AA0AAB0B120BC712134D9006D6C1
:101F6300E004F0EE2463F50AE43FF50B850A82F5FD
:101F730083E0F8A3E0F9E849602DE82402FAE439A4
:101F8300FBEA2402F50EE43BF50F780E121AC08A21
:101F9300828B83E0FCA3E0F9EEFAEFFB120BBB7438
:101FA30002121853E960AC9061D0E0F87480C398D2
:101FB3009006D7F0E50C60539006D6E0604D90068E
:101FC300D8E0F89006D6E0C398500C740265097007
:101FD3003A9006D9E060348E828F83A3A3A3A3E053
:101FE30085188285198312201E7402121889E8123B
:101FF300201E9006D5E028F074021218A3AA18AB8D
:102003001979011208859006D6E4F0E508A2E0925A
:10201300AF74041218537F080219C5F0A3E4F090BB
:1020230006D6E0F822851B87851CC622C0E074EB28
:10203300121A05A2AFE433F508C2AF759B00906195
:1020430082E0A2E0502DE591A2E050277591FE7445
:1020530001651B701E1221A61221BD121AD312256F
:10206300877404121853E9640170057901120DB3E2
:10207300121D38906182E0A2E5505AE591A2E55025
:10208300547591DF900369E064076005E0640870AC
:102093002C1221A67401651B703B1221BD121AD3A9
:1020A3001225877404121853E9640170057901122B
:1020B3000DB37901EEFAEFFB121F198018E0640DDE
:1020C300701390038BE004F064287002E4F07A004C
:1020D300E0F9120E61906182E0A2E6400302217BE7
:1020E300E591A2E6400302217B7591BF900369E06D
:1020F30064057008120D4D120D598003120D5375AE
:102103001B00120DD1E990036AF07900120DB3128E
:102113000ABF7A017B00900368E0F912131D9078DF
:1021230003E06442705290070BE014F0704AC2AFB0
:1021330012213600781ED0E0F618D0E0F6E59F5461
:102143000770047BFF80027B7FC4C0E0781DE6F547
:102153000A08E65BF50B740B780A12181BD0E0250E
:102163000AF8906270E0A2E740F8E8C33390627225
:10217300F0906270E0D2E0F0906181E0A2E3500958
:10218300E5E9A2E3500375E9F7A3E0A2E75009E507
:1021930091A2E7500375917FE508A2E092AF7F0813
:1021A300021A64900397E0F875F012A4C8AAF02A03
:1021B300F9749928FE740339FF22120D658E828FFC
:1021C30083E0F8A3E0C82416F582E438F58322C03F
:1021D300E0C0D0C082C083906183E0A2E05009E5F3
:1021E300BFA2E0500375BFFEE0A2E15009E5BFA224
:1021F300E1500375BFFDE0A2E25009E5BFA2E25042
:102203000375BFFBE0A2E35009E5BFA2E3500375EA
:10221300BFF7E0A2E45009E5BFA2E4500375BFEFA6
:10222300E0A2E55009E5BFA2E5500375BFDFE0A2D8
:10223300E65009E5BFA2E6500375BFBFD083D08245
:10224300D0D0D0E032C0E074F2121A05E5A7A2E4C0
:10225300500FE5A1A2E4500953A7EF75A1EF122295
:102263009CE5A7A2E5500CE5A1A2E5500653A7DF24
:1022730075A1DFE5A7A2E15009E5A1A2E15003752D
:10228300A1FDE5A7A2E2500CE5A1A2E2500653A7E7
:10229300FB75A1FB7F01021A6474F8121919751BEF
:1022A30001900369E0640670077A007B00120D3524
:1022B300A2AFE433FED2AF90036FE0640170187AEB
:1022C300207B00900368E0F912143D7A207B009094
:1022D3000368E0F9121323906182E0D2E6F09007DD
:1022E30008E0602185C61C801690036EE0640170CF
:1022F30008E5C654F84405F5C653BEFC12202874FD
:1023030001651B60E4EEA2E092AF7F010219C57480
:10231300E912191974FA12183DEAFEEBFF8C088DC5
:1023230009120D77EAF8EBF9ECFAEDFB8E828F8355
:10233300121737900369E024F7C39405500675100C
:1023430001022448120CD58A0A8B0BEA4B70030254
:102353002445120D6B8A0C8B0D120D6BEA650C7004
:1023630003EB650D60ECEEFCEFFDAA18AB19120D43
:1023730071850A82850B83A3A3780C1216F59090BE
:10238300B8780C1216BC8518828519837814121636
:10239300F59090B878141216BC780C79141214CAFC
:1023A300501F780C79141216699090A0780C1214AF
:1023B300EA405D850C10850D11850E12850F138083
:1023C300379090A085141085151185161285171363
:1023D3007810790C12166978101214EA50327510BD
:1023E3000075110075120075130178107914121617
:1023F300697810790C12163074097810121611903E
:10240300907C780C1216F57810790C121589800CD3
:10241300751014751100751200751300900369E0AF
:102423006408600AE064066005E06405702090902B
:102433009C78101214EA5016909084781012164368
:10244300800C751000751100751200751300850856
:1024530082850983781012170474061218537F10AB
:102463000219C574F7121919120D89900706E06451
:10247300017010906245E4F0A3F053F4F343FE0CB3
:102483005390F3120D23E5C654B84441F5C6E59EB7
:102493005447644170F8906185740FF0900704E02D
:1024A300F47002A3E0602C7508017509009007041D
:1024B300E0780812182AE508F4FAA3E0600814602B
:1024C3000A14600C800DEA52808008EA529080035F
:1024D300EA52A079007F020219C574F7121919E9AB
:1024E300FEEAFF74016E700C7A807B00900368E053
:1024F300F912131D9026C4E493F46008E493F912CF
:102503000AA1800953C6B8E59E544770FA120D29F3
:10251300900706E064017003120AD7900704E0F401
:102523007002A3E0602B750801750900900704E0B1
:10253300780812182AE508FAA3E0600814600A1460
:10254300600C800DEA42808008EA42908003EA42F0
:10255300A0120CD58B09A909EA496016E5E170FCC4
:10256300EA2414F582E439F583E0F874FF68600225
:1025730088E174016F700A7A01900368E0F912131D
:10258300AD0224D874F11219198A088B098C0A8DAB
:102593000B9090B878081216BC740F121889780C37
:1025A3001216F59090B8780C1216BC7808790C12B4
:1025B30014CA9090A050107808790C121669780804
:1025C3001214EA4014800E780C7908121669780CFC
:1025D3001214EA50047901800279007F080219C5B8
:1025E30074ED1219198A088B098C0A8D0B9090B817
:1025F30078081216BC7413121889780C1216F59009
:1026030090B8780C1216BC780C79081214CA4011D1
:102613007808790C121669AA08AB09AC0AAD0B80CD
:102623002275100075110075120075130178107969
:102633000C12166978107908121630AA10AB11AC77
:1026430012AD137F0C0219C5C082C083E9906000EC
:10265300F0D083D08222C0E074F2121A05A2AFE454
:1026630033FED2AFE589A2E150031211FD75890053
:10267300C2C5751A00EEA2E092AF7F01021A64C0D0
:10268300E074F2121A05A2AFE433FED2AFE58BA2D7
:10269300E050031211FD758B00C2E880D5C0E0C085
:1026A300D0E8C0E0A8A8D2AFC2C7751A00E8A2E775
:1026B30092AFD0E0F8D0D0D0E032C2AF0200002217
:1026C400FFFFFFFFFFFFFFFFC082C083E9901B3CB9
:1026D400F0D083D08202013274F61218ADE9900270
:1026E400DCF090033BE0F5087509007402780812E9
:1026F400182AAA08AB091213959002DD122BB060B8
:102704006E90033BE075F003A4FAABF012139590BE
:1027140002FA122BB0700B9002DD1233F412139BE9
:10272400804D9002FA12435D7AFF7BFF1211797A91
:1027340000801EEAF5087509007402780812182A48
:10274400123DF974FFF0A3124371A3A3E4F0A3F0C4
:102754000A90033BE0F8EAC39840D87905120723AE
:102764009002DCE0F912060F7AAD7B0712097B02B6
:102774003E9574F41218AD8A088B09EB54806047B7
:102784009002DCE0F91213058A0A8B0BAE0AAF0B38
:10279400EA4F602A8A828B83E064B0701A1207358C
:1027A400E960148E828F83A3A3A3A3E0F9EE24052A
:1027B400FAE43FFB120705EEFAEFFB1212F3AA0844
:1027C400E5096480FB80047A007B000229DE74F250
:1027D4001218AD74FB12183DEAFEEBFFEA4F60439A
:1027E400740312188912305D851882851983ECF000
:1027F400A3EDF07402121889E9F0AA18AB191206B5
:1028040009E9F50870777413121889E0F50AA3E052
:10281400F50BE50A450B60658E828F83122DF1EE70
:102824004F700575080280557A067B001213958A4D
:102834000C8B0DA80CA90DEA497005750813803D91
:102844008A828B83E4F0122888A3EEF0A3EF124669
:1028540036E50AF0A3E50BF09002E01229A29002FB
:10286400E06017E0FCA3E08003EAFCEBFD8C828DC2
:10287400831229A270F38C828D83123A19A90874E9
:10288400050245CFA3F08A828B83A32274F2121827
:10289400AD8908E9F50C750D007403780C12182A3B
:1028A400850C0A850D0B9002DFF09002DD12434285
:1028B4001229A0602F12139B7900801EE9F50C7574
:1028C4000D007402780C12182A9002DD123CB288B2
:1028D40082F583A3A3E4F0A3F00990033BE0F8E9B5
:1028E400C39840D890033BE0FA850AF0A4CAA8F044
:1028F400850BF0A428FB1213958A0C8B0DAE0CAF3C
:102904000DEA4F700302299690033BE0FC850AF020
:10291400A4CCA8F0850BF0A428FD79001212DB7C6E
:10292400008032EDF50C750D007403780C12182A32
:102934008A828B8312299B8882F583E4F01229A86A
:10294400A3A3F0A3F00DEDC3950840D7EE250AFE2E
:10295400EF350BFF0C90033BE0F8ECC3985029ECE7
:10296400F50C750D007402780C12182A9002DD1211
:10297400299BE82402500109FAE9FB8A82F583EED7
:10298400F0A3EFF07D0080BEE5089002DFF079004F
:10299400800279130245D2123CB6F922A3A3123065
:1029A40075EA4B22A3F088828983A3A3A3A322748C
:1029B400F41218AD7900EAA2E0501F7508487509B1
:1029C400907808121AC079107C047D007A3E7B1B33
:1029D40012071D7402121853E9F97F0402197FC00B
:1029E40082C0839002E0123DB8601C88828983A370
:1029F400A3E06A7003A3E06B8882898370E8A3A3D1
:102A0400A3A31233F480047A007B000226D574F267
:102A14001218AD74FD12183DEAFEEBFF851882858D
:102A24001983E4F0A3F074021218897401F090027F
:102A3400E3123DB870111208CD1213959002E312FF
:102A44002BB07003022BA412314AEE2404F50AE4DD
:102A54003FF50B850A82F583E024FE603C24FC608C
:102A64007424FE607E24FE7003022AF424FE7003A4
:102A7400022B0124FE7003022B0E24FE7003022B92
:102A84001B24FE7003022B2824FC7003022B492410
:102A9400FE7003022B61022B9D1208CD9002E5EA21
:102AA400F0A3EB122BB912026DE96003022B9D9087
:102AB40002E5121AD78E828F83A3A3A3A3A3124382
:102AC4005D8508828509831233F41206ED740212BF
:102AD4001853022B9DAC18AD19EEFAEFFB12073B0D
:102AE400022B6CAC18AD19EEFAEFFB12074180789B
:102AF400AC18AD19EEFAEFFB120747806BAC18ADBA
:102B040019EEFAEFFB12074D805EAC18AD19EEFA20
:102B1400EFFB1207538051AC18AD19EEFAEFFB121C
:102B2400075980447402121893880C890D780C128A
:102B34001AC074021218A3EEFAEFFB12075F7402B4
:102B44001218538023AC18AD19EEFAEFFB12076587
:102B5400E9F870167402121889E4F0803CAC18ADE0
:102B640019EEFAEFFB12076BE9F8E8602C8E828FFE
:102B740083A3E064146022850A82850B83E09002BB
:102B8400E5F08518828519831233F49002E6123039
:102B94005DE8A3122BB9120267EEFAEFFB1206C32B
:102BA4007402121889E0F974030245CFEAF0A3EB2A
:102BB400F0F9EA4922F07CE57D02850882850983E3
:102BC4001230752274E81218AD74FA12183D7404A8
:102BD400121889ECF0A3EDF08A128B13EA2405F5A0
:102BE4000EE43513F50FEA2402F510E43513F5115C
:102BF40085108212369B7508007C037D0079007A6B
:102C0400E57B021212DBE50E2402F516E4350FF51E
:102C1400177402121893880C890D780C121AC08547
:102C24000E82850F83A3A3A3A3E0F50C750D007892
:102C34000C121AC0E50E2405F50CE4350FF50D78D9
:102C44000C121AC08516828517831236E3121853A4
:102C54008A0C8B0DE50C450D7003022DC080208578
:102C64001882851983E088828983F0050885188293
:102C7400851983A3E0C0E0122DFBD0E0F00508E540
:102C84000A24FBF8E50B34FFF9C3E50898E49940FE
:102C940003022DC07E007F00851282851383A3A3C7
:102CA400A3A3E0F5097809121AC4E4F514F515781C
:102CB40014121AC07514E27515027814121AC09011
:102CC40002E3121AD77409121889121AD7E50A24D2
:102CD400F9F9AC0CAD0D1236F5121853E960030284
:102CE4002D67850E82850F83A3A3A3A3A3A3A3E0CB
:102CF400F89002E2E068706BE0F5148E1578141217
:102D04001AC012435A850E82850F83A3A3A3A3A3DB
:102D1400A3A3A31233F41212D57402121853E96058
:102D240042123DB57034E4F5147814121AC07CFFD5
:102D34007DFF79071237041218538B15A915122E2B
:102D4400107017850E82850F831244E974041218DB
:102D540089123DA2123716022DEE850C82850D8351
:102D6400122DF1A818A919881489157814121AC0FB
:102D74007404121889121AD785168285178312369D
:102D8400C51218538A0C8B0DEE4F7003022C581287
:102D94002DFBEE122E061236ACEF122E06F8A3E02F
:102DA4003400F9E50C4B6003022C63888289837438
:102DB400FFF00508122DFB74FFF00508E508601408
:102DC4001313543F123063120279E96003123CC9B1
:102DD40079008016850E82850F831244E9740412EB
:102DE4001889123DA2123A19790A02367CA3A3A3C8
:102DF400A3E0FEA3E0FF22A8089002E6E028123632
:102E0400AC22F00508089002E6E028229002E6EAE7
:102E1400F0A3EBF0EA492274E81218AD74FA121820
:102E24003D740212188912305D7404121889ECF092
:102E3400A3EDF07402121889E02405123686F58396
:102E4400E0F50CA3E0F50D7402121889E02402F5F4
:102E540010A3E03400F5118510821233F8750800D0
:102E6400750900EA24FCFEEB34FFFF8008050CE53D
:102E74000C7002050DA808C3EE98EF9400500302ED
:102E8400300EA818A919880E890F780E121AC08559
:102E94001482851583A3A3A3A3124339121AC0E590
:102EA400142405F50EE43515F50F780E121AC085B5
:102EB4001482851583A3A312435DAA0CAB0D1206DD
:102EC4002774061218538A0E8B0FEA4B70030230D4
:102ED4000EEA2404F516E4350FF517851682F583FA
:102EE400E0F50CA3E0F50D851882851983121AD735
:102EF400AC0EAD0F851082851183123692121853D1
:102F0400E9F509600302300E74021218891236BC06
:102F1400F5097809121AC4E4F512F5137812121A95
:102F2400C07512E27513027812121AC09002E312ED
:102F34001AD77407121889121AD7EEF9AC0EAD0F0E
:102F44001236F5121853E9F509600302300EE5084C
:102F5400703BE4F50EF50F780E121AC07CFF7DFF6E
:102F640079091237041218538B0FA90F9002E71234
:102F74002E13700D74041218891230507911023016
:102F84003F9002E2E024029002E6F080149002E610
:102F9400E0FA9002E2E0790024025001096A4970E3
:102FA4006DA8089002E2E0FAE82AFAE43400FBEEA5
:102FB4009AEF9B4055851682851783E0C0E0900206
:102FC400E7122E00D0E0F00508851682851783A34A
:102FD400E0C0E0089002E7122E00D0E0F00508906F
:102FE40002E2124339121AC012435AA8081230429C
:102FF4001218539002E2E02508F50874FF650C707E
:103004000474FF650D6003022E71E508601C9002D4
:10301400E6E0F5F0E5088412306312027FE9600609
:103024009002E7123CCC79008011E5097003750920
:103034000A7404121889123050A90902367C9002CD
:10304400E7E028FAA3E0340012431722124346E5CE
:103054000CF0A3E50DF022A3A3EAF0A3EBF0229079
:1030640002E5F07CE57D02851082851183123075BE
:1030740022123A09FB2274EC1218AD74FC12183DAA
:10308400123B2974021218A3850A82850B8312321B
:1030940049700302313A12314AA818A919881089D3
:1030A400117810121AC07CFF7DFF790B8508828588
:1030B400098312370A121853123154700B850A828D
:1030C400850B83123713807B8E828F83A3A3A3A3E4
:1030D400E0F5127812121AC4E4F512F513781212FC
:1030E4001AC07512E57513027812121AC0781012FC
:1030F4001AC07409121889121AD77409121889127D
:1031040032428508828509831236FB121853E9FE80
:1031140070157CE57D028508828509831233F412DB
:103124000285E97009801A74166E70027E00123CE2
:10313400C9EE7004800B7E01850A82850B83123AE6
:1031440016EEF9023A2BEE2402F508E43FF50922C3
:103154008A108B119002E6EAF0A3EBF0EA4B22749A
:10316400EC1218AD74FC12183DEAFEEBFF8C0E8DC8
:103174000FEA2405F508E43FF50974021218A38543
:1031840008828509831232497003023232EE240226
:10319400F50AE43FF50BA818A919881089117810CD
:1031A400121AC07CFF7DFF790D850A82850B83127C
:1031B400370A121853123154700B8508828509831B
:1031C40012371380768E828F83A3A3A3A3E0F51214
:1031D4007812121AC4850882850983A3A3121AD708
:1031E4007512E57513027812121AC07810121AC0FB
:1031F4007409121889121AD77409121889123242E2
:10320400850A82850B831236FB121853E9FE700F70
:103214007CE57D021233EE12028BE97009801A7488
:10322400166E70027E00123CC9EE7004800B7E01A3
:10323400850882850983123A16EEF9023A2BE0F9E1
:10324400AC0CAD0D22123A018A0C8B0DEA4B2274A0
:10325400E81218AD74FE12183D8A168B178C148D63
:1032640015EA2405F50CE43517F50DEA2402F50EEC
:10327400E43517F50F850E821233F88A088B097529
:103284000B007C037D0079007AE57B021212DB756A
:103294000A00E50814F5100424FFF508E50934FFD5
:1032A400F509804C9002E5E0FA9002E2E0F8EA28A1
:1032B400F8E43400F9E50898E50999500D9002E521
:1032C400E0F8E510C3989002E2F0E0F512751300FF
:1032D4007812121AC012435A9002E6E02A123047BA
:1032E4001218539002E2E0F89002E5E028F0050A93
:1032F400850C82850D83A3A3123CC240030233D301
:103304009002E5E0C39508E4950940030233D3AE87
:103314000AEE2EFEE433FF123415AC18AD19124335
:1033240067E439FB12062D8A128B13AC12AD13EA33
:103334004D701B750B01123406123A1A9002E612F4
:1033440029A2600312134DA90B740202367E85165E
:1033540082851783A3A3A3A3E0F50B780B121AC4E9
:10336400E4F512F5137812121AC07512E2751302FD
:103374007812121AC09002E3121AD774071218892D
:10338400121AD7A910850E82850F831236FB1218E4
:1033940053E9F50B70A0123DB560030232A8E4F5C1
:1033A40012F5137812121AC07CFF7DFF790F850E77
:1033B40082850F8312370A1218538B13A913122E06
:1033C4001060030232A812340612371702334D7C00
:1033D400E57D02850E82850F831233F4120291E992
:1033E4006003023340790002334D850A82850B83E2
:1033F400123075221233FC22F583123A09FB1203B0
:10340400B122123415123A09F9EA8514828515831A
:1034140022850C82850D83E02EF8A3E03F8882F597
:10342400832274E81218AD74FA12183D7404121849
:103434008912305D8C168D177404121889E02405E6
:10344400F50EA3E03400F50F7404121889E0240289
:1034540012368612369B7F007E00A818A9198808A8
:1034640089097808121AC0850E82850F83A3A3A345
:10347400A3E0F5088F097808121AC0E50E2405F5B3
:1034840008E4350FF5097808121AC0850E82850FF5
:1034940083A3A31236E31218538A0C8B0D802412D3
:1034A40036B6F00F1236B6F00F9002E21239EC1273
:1034B4001AC012435AEFF81230421218539002E223
:1034C400E02FFFE50C450D607A851882851983127B
:1034D4001AD7AC0CAD0D8514828515831236921261
:1034E4001853E9FEE50C2404F510E4350DF511E953
:1034F400704B74041218891236BCF5087808121A35
:10350400C4E4F508F5097808121AC07508E27509CB
:10351400027808121AC09002E3121AD7740712181C
:1035240089121AD7E50A24FAF9AC0CAD0D85148278
:103534008515831236FB121853E9FE60361236D213
:10354400123A19EF70030236699002E6E0F5F0EFE3
:10355400849002E5F07CE57D028514828515831252
:1035640033F4120297E960069002E7123CCC79002A
:1035740002367CEFF508703DE4F512F5137812126B
:103584001AC07CFF7DFF791185148285158312375B
:103594000A1218538B13A9139002E7122E13700901
:1035A4001236D212371602367C9002E2E0240490DE
:1035B40002E6F080359002E2E0F89002E6E0FCE8F2
:1035C4002404FAE43400FBEA6C4B600302354DE555
:1035D4000A24FAFAE50B34FFFBE50828F8E4340082
:1035E400F9EA98EB99500302354D851082851183D1
:1035F400E0C0E09002E7E02FF8A3E034008882F511
:1036040083D0E0F00F851082851183A3E0C0E0121F
:1036140036A3D0E0F00F7402121893880889097851
:1036240008121AC07402121889121AD7850E8285DC
:103634000F83A3A31236C51218538A0C8B0DEA4BC1
:1036440070030234A37402121889E0C0E01236A396
:10365400D0E0F00F7402121889A3E0C0E01236A380
:10366400D0E00234ABEE70027E0A850E82850F83B1
:103674001236D8123A19EEF974061218537F100252
:10368400197FF514A3E03400F51585148222123055
:10369400751206157402221233FC8A0A8B0B22124D
:1036A40036A7229002E7E02FFAA3E034008A82F5DD
:1036B40083221236A774FF22124346A3A3A3A3E0D6
:1036C40022124361AA0CAB0D120633740422851036
:1036D400828511831244EFF985168285178322129D
:1036E4004361850E82850F83123075120627740696
:1036F4002285108285118312307512079574092270
:103704008510828511831230751206FF740222120D
:103714003A1FE8F0A3E9F079112274EA1218AD74A3
:10372400FE12183D8A088B098C128D13EA2405FEBB
:10373400E43509FF1239F58A0C8B0DEE2406F50EDB
:10374400E43FF50FEA4B7003023804E5082402F560
:103754000AE43509F50B8A828B83A3A3A3E0A2E5CF
:10376400502212382E8A108B11EA4B60247912AC45
:103774000CAD0D1233EE8510828511831218ABE95E
:10378400F50C707F850E82850F83E0600979528085
:1037940011750C0E806D850882850983A3A3A3A3EC
:1037A400E0F9E4F508F5097808121AC08E828F83CF
:1037B400A3A3E0F5087808121AC08E828F83A3A30E
:1037C400A3121AD78E828F8312435D850A82850BDA
:1037D40083123B3B121853E9F50C7011850E828558
:1037E4000F83E0702C1233EE12029D80247416694C
:1037F4007011750C007418121889124342E4801079
:10380400750C011244E5851282851383E8F0A3E95F
:10381400F0850E82850F83E0600479008002A90C94
:1038240074021218537F0E02197F8518828519833A
:103834001230751207892274EC1218AD74F712183D
:103844003D8A0A8B0B8C108D11EA2405FEE4350B9E
:10385400FF750C001239F58A088B09EA4B700302D4
:1038640039D7E50A2402F50A5002050B8A828B83B4
:10387400A3A3A3E0A2E5502512382E8A0C8B0DEAEF
:103884004B604F7912AC08AD091233EE850C82857A
:103894000D831218ABE9F50C60030239DA850A824C
:1038A400850B83E0F508A3E0F509AA08FB12077D60
:1038B400EA4B70197AFF7BFF12077DEA4B70030213
:1038C40039CD8A828B83E508F0A3E509F0750800F9
:1038D4008008750C0E0239DA05089002DFE0F8E57D
:1038E40008C39840030239CDE508F50E750F00743E
:1038F40003780E12182A8A828B83A3A3E0250EF87C
:10390400A3E0350F123DAA70CF8E828F83123A0E38
:1039140012305D8E828F83A3A3123A0E12305BEEB7
:103924002404F508E43FF509850882F583E08882DC
:103934008983A3A3A3A3F0A3E4F0EE2405F50EE486
:103944003FF50F850E82F583123A0EA3A3A3A312AB
:10395400305B7512077513007812121AC0EEFCEF73
:10396400FD740412189B124318121853E4F51278CC
:1039740012121AC0850882850983E0FC7D0079173C
:10398400850A82850B8312370A121853740712189A
:103994008912315B60388508828509831239EC12FB
:1039A4001AC0850E82850F8312435D1243181218C4
:1039B4005374021218A31233EE1202A3E9602374A3
:1039C40007121889123CCC8019750C098008750CF3
:1039D400118003750C011244E58510828511831250
:1039E4003A19A90C74098041E0F5087509007808B2
:1039F40022AC18AD198E82F583123A0122123A09CB
:103A0400FB12062D22E0FAA3E02212307588828987
:103A14008322123A1FE8F0A3E9F022E0F8A3E0F9C8
:103A2400850E82850F832274041218537F0C0219A9
:103A34007F74EC1218AD123B29751000EA2402F5CC
:103A44000CE43FF50D850C82F5831233F412077DE7
:103A54008A088B09EA4B7003023B0D850A82850BA9
:103A640083E064016003023B02AC08AD09AA0AAB1F
:103A74000B120771E9606F850882850983122DF3A3
:103A8400EE2406F50AE43FF50B8E828F83A3A3127E
:103A94001AD78E828F83A3A3A3A3121AD7850A826F
:103AA400850B83121AD779188E828F8312435D8512
:103AB4000C82850D83123B3B121853E9F874166887
:103AC400700B850A82850B83E4F0A38014E96012ED
:103AD4008E828F831233F4850E82850F83EAF0A3DE
:103AE400EBF089108018780E121AC0AC08AD09EEFC
:103AF400FAEFFB1207777402121853E9F510AA08BB
:103B0400AB09120783E510700E850C82850D8312B4
:103B140033F41202A980097416651070037510003D
:103B2400A910023A30EAFEEBFF8C0E8D0FEA240551
:103B3400F50AE43FF50B2212307512079B74062236
:103B440074EA1218AD7508007509007E007F0075CF
:103B54000A00EC2402F510E43DF5118035EC65080B
:103B64007003ED65096003023BF988828983A3A38E
:103B7400E06A7003A3E06B707C88828983A3A3A3AB
:103B8400A31244E9EE28FEEF39FFEA28FAEB39FBE9
:103B9400050A123CBF503BE50AF50C750D00740391
:103BA400780C12182A851082851183123CB2123DBA
:103BB400AA601FE508450970A48C088D09888289CC
:103BC40083122DF188828983A3A3E02EFAA3E03F18
:103BD40080BDE50AC394025003023CAD750800752C
:103BE4000900EE4F600FEEFAEFFB1213478A0E8BBB
:103BF4000FEA4B70057900023CAF750B00807FE53E
:103C04000BF50C750D007403780C12182A851082BC
:103C1400851183E0250CF50CA3E0350DF50DE50CBD
:103C24002406F514E4350DF515851482123DAD60B6
:103C34003AE50C2404F512E4350DF513851282F5EA
:103C440083121AD7E50E2508FAE50F12431112184C
:103C540053851282851383E02508F508A3E035090E
:103C6400F509851482851583123CCCE50B600D7C27
:103C7400087D007900AA0CAB0D1212DB050BE50BD5
:103C8400C3950A5003023C038510828511831244B4
:103C9400E98882F583A3A3A3A3A3A3E50EF0A3E578
:103CA4000F1229A9EEF0A3EFF07901023829123C92
:103CB400B622E0250CF8A3E0350D229002DFE0F8EF
:103CC400E50AC398229002E612307512134D22744D
:103CD400F01218AD8A0E8B0F8C0A8D0B750D0075C2
:103CE4000C00804A7916EE2406F508E43FF5098EA7
:103CF400828F83A3A3121AD78E828F83A3A3A3A335
:103D0400121AD7850882850983121AD7850E8285EF
:103D14000F83A3A3123B3B121853E9F50D741669E4
:103D24007064850882850983E4F0A3F0050C900291
:103D3400DFE0F8E50CC398505EAA0C7B008A088B80
:103D4400097403780812182A850A82850B83A3A3B1
:103D5400123E04E8FEE9FF123DAB603BEA24010A8F
:103D640050010B9002DFE06A7001EB6014888289D5
:103D740083A3A3A3A3A3A3A3A3123DB86003023CFC
:103D8400E87918023CEAE960A31244E574101218B9
:103D940089123DA2123A19A90D7F0802197F123A1D
:103DA40009F5838A8222F98882F583124361EC4DF6
:103DB400229002E61244EFF9E8492274F61218AD93
:103DC4007C0080010C90033BE0F8ECC398501FEC9E
:103DD400F5087509007402780812182A123DF9E0F2
:103DE4006A7003A3E06B70DCE8FAE9FB80047A00F4
:103DF4007B00023E959002DD123E048882F5832208
:103E0400E02508F8A3E03509F92274F21218AD8A06
:103E1400088B09750A0080278E828F83A3A3A3A32E
:103E24001229A0600312134D7C087D007900EEFA7C
:103E3400EFFB1212DB8E828F83E4F0A3F0050A12EB
:103E44003CBF5028E50AF50C750D007403780C127C
:103E5400182A850882850983A3A3E0250CFEA3E024
:103E6400350DFF8E82F583123DB870AC85088285CE
:103E7400098374FFF0A3F00245D274F61218AD1250
:103E8400448670067A007B008007A3A3A3A31233A1
:103E9400F47F0202197F74F61218ADE9FE8C828D4C
:103EA40083E06402703D124476F508A3E0F9A808A3
:103EB4007402687003742969702975080275090011
:103EC4007808121AC0740E121889121AD7740E12B6
:103ED4001889121AD7EEF912117F7406121853E9D1
:103EE400F98002790180AA74E81218AD74FB1218E3
:103EF4003DE9851882851983F08A168B17ECFEED4F
:103F0400FF7510008C82F583A3A3A3E0A2E4502ADA
:103F1400741D1218891238348A828B83E582458392
:103F24007003024307790AEEFCEFFDAA16AB1712E1
:103F340018ABE9F510600302430A741F121889E0F4
:103F4400F508A3E0F5097421121889E0F50AA3E045
:103F5400F50B7423121889E0F50EA3E0F50F8E8299
:103F64008F83E0640260030242B3A31244E985082C
:103F740082850983A3858212858313EE2406F50CBA
:103F8400E43FF50D88828983124367F514E439F51B
:103F9400157814121B4A010000280128C23F0700AB
:103FA40002288E400328F73F0029AF410129DA4156
:103FB400022978410329AF4104295042B342E50E56
:103FC400450F60030242AE850C82850D831244E9DD
:103FD400E8FAE98882F583E0850A82850B83124337
:103FE4007112431E121AC08A828983A3E0FCA3E0E3
:103FF40002423CE50E450F60030242AE850A82850B
:104004000B837401F012434F850882850983F07C89
:10401400007D008E828F83A3A3A3A3E02401FAA3CF
:10402400E03400FB12062DEA4B60458A828B83E064
:104034002402F8850A82850B83E028F0EA2404F838
:10404400E43BF98882F583E0851282851383124369
:1040540077F08A828B8312431E121AC08A828B8362
:10406400A312435DE5082403FAE43509FB02424147
:10407400850A82850B83E02404F07C047D007900AA
:10408400AA12AB131212DB02430AE50E450F6003BA
:104094000242AE12434FFEA3E0FF850A82850B83E2
:1040A4007404F0EE850882850983F0EF8512828519
:1040B4001383F074031218A3124468700302415965
:1040C4008A828B83A3A3122DF17401121893880E94
:1040D400890F780E121AC07405121889121AD77C27
:1040E400FF7DFF1206337404121853EA4B703385B4
:1040F4000C82850D83124339121AC0850C82850DFA
:1041040083A3121AD77C027D007A1C7B9112039F31
:104114007404121853E9700A740112188974FFF0B8
:10412400A3F08E828F83E064027034750C02750DE7
:1041340000780C121AC08E828F83A312435DE508A7
:104144002404FAE4124311121853850A82850B835E
:10415400E0240280097401121889EEF0A3EFF074D0
:104164000112188912432FF07401121889A3124303
:10417400270242A8E50E450F60030242AE850C8279
:10418400850D8312434212435DAA16AB17121185A3
:10419400850A82850B837402F0850882850983EA87
:1041A400F0851282851383EB0242ABE50E450F6066
:1041B400030242AE12434FF8A3E0F9850A82850B4D
:1041C400837402F0E8850882850983F0E985128208
:1041D4008513830242AB850C82850D831233F4125E
:1041E40012BDEAF8C3950EE4950F405AEA650E45F0
:1041F4000F700478008021851882851983E0FCE51E
:104204000E2CFCE4350FFDC3EC9AED94005003E052
:104214008005E50EC8C398F8E8850A82850B83F00B
:10422400F50A750B00780A121AC0850C82850D8375
:10423400E0250EFCA3E0350FFDAA08AB09124318D4
:1042440012185302430A75100702430AE50E450F7C
:104254007058850C82850D831244E9850A82850B8A
:10426400837407124371124327124371A3E085122A
:1042740082851383F0E82402FAE439FB8A82F58309
:10428400124327A312288812432F1229A81243335A
:10429400F0E82405F8500109F5828983124333A319
:1042A400124377A3A3A3A3F0805C75100B8057740B
:1042B4001D12188912447F604A1244EF880CF50DD0
:1042C400E8450D603E7425121889E0F51078101247
:1042D4001AC4780E121AC0780A121AC07808121A70
:1042E400C07407121889E0F9EEFCEFFDAA16AB17AB
:1042F400850C82850D831218AB7407121853E9F5E7
:1043040010800375100EA910740502367E3509124B
:10431400431722FB1212C3740222E0F50A750B0044
:10432400780A22E0850882850983221243812212B9
:104334004381A3A322E0F50E750F00780E221243E9
:104344004622E0F8A3E0F583888222850C82850D5D
:1043540083124346E0229002E312436122E0FCA36D
:10436400E0FD22123A09F8E4C8F9EA2822F088822A
:10437400898322F088828983A312438122E08508FD
:1043840082850983A3A32274EE1218AD74FE121859
:104394003D8A088B09ECFEEDFF890AAC18AD1912B1
:1043A4004468700302445985188285198312447F36
:1043B4007003024454A31244EE880EF50FE8450F2F
:1043C40070030244547414121889E0F510A3E0F544
:1043D40011E50AF50B780B121AC474191218891214
:1043E4001AD77810121AC0741B121889123242AAF2
:1043F40008AB09850E82850F831218AB7405121859
:1044040053E9F50B705274FE650A604C850C828585
:104414000D83E064027041124476FAA3E0F9EAF8ED
:104424007402687003742969702E85108285118363
:10443400124367F50CE439F50D780C121AC0EEFC42
:10444400EFFDAA08AB091207B374021218538008CF
:10445400750B0E8003750B01A90B74021218537FA0
:104464000A02197FEEFAEFFB12062D8A0C8B0DEA75
:104474004B221244EE8882F583E0221230751244F6
:10448400862212072F8A828B83E58245832274F663
:104494001218AD74FE12183D740C1218891244E9F6
:1044A400E8851882851983F07401121889E9F0E40B
:1044B400F508F5097808121AC07508027808121A66
:1044C400C07404121893880889097808121AC079EC
:1044D400FE12079B74061218537402121853023EFC
:1044E400958E828F831244EFF922A3E0F8A3E02291
:1044F40074F71218ADEAFEEBFF89089002FA124332
:104504005D121185EA5402600BA908EEFAEFFB1262
:104514000621800279017F0102197F74F21218AD1D
:1045240074FE12183DEAFEEBFF7401696013740215
:104534006960030245CD7901120999E960030245D6
:10454400CDEEFAEFFB12077DEA4B6003120783A856
:1045540018A919880889097808121AC075080275FB
:1045640009007808121AC075080C750991780812A8
:104574001AC07CFF7DFF7A017B00120627740612A5
:104584001853803B850882850983A3A3A3A3A3A30F
:1045940012434212435DEEFAEFFB121179E4F50C7B
:1045A400F50D780C121AC07402121889121AD77CED
:1045B400FF7DFFAA08AB0912063374041218538A4C
:1045C400088B09E508450970BB74021218537F066D
:1045D40002197F74F41218AD8A088B09ECFEEDFF02
:1045E400901B3CE0F460487A097B001212EDEA4B20
:1045F400603D8A828B8374B1F0A3E412463612289C
:1046040089A3E508F0A3E509124636A3EEF0A3EF6B
:10461400F0740C1218891244E98A828B83A3A3A331
:10462400A3A3A3A3123A19901B3CE0F91212F902B6
:1046340029DEF08A828B83A3A3A3A322C082C08332
:104644009061907404F0A37448F0A3E4F090618046
:104654007440F09061BC7407F09061877469F090C5
:1046640061B67416F07900120AC57902120ACB9069
:1046740026C4E493F46006E493F9120AA1790512BE
:104684000E43024AA3C082C083E9540FF9906185A6
:10469400E0696012E5C654B84441F5C6E59E544746
:1046A400644170F8E9F053C6B8E59E544770FA02C5
:1046B4004AA374F71218ADAEA853A87E120AADC26D
:1046C400BA539AFEC289759B00C2C2120AB375A975
:1046D4001175B905120AB9D2BA439A0174805E42BF
:1046E400A802515BC082C083906181E4F0A3024AB6
:1046F4002D75E90075910075BF00020132C082C0BA
:1047040083906181E4F0A374C0F0A3E4024A2FC053
:1047140082C08374F812183D90036B1262A8700370
:104724000247BC90036BE0544060177908AA18ABA9
:1047340019120BE5AA18AB1912081390036BE05475
:10474400BFF0E054806010790C7A2C7B07120BE5E3
:1047540090036BE0547FF0E0A2E050087900124728
:10476400C454FEF0E05402600879011247C454FDB9
:10477400F0E05404600879001247CF54FBF0E05491
:1047840008600879011247CF54F7F0E0541060082C
:1047940079021247CF54EFF0E054206008790312F5
:1047A40047CF54DFF0A3E05401600D120AD712087A
:1047B4002590036CE054FEF07408121853024AA3C7
:1047C400120AC512081990036BE022120ACB1208D0
:1047D4001F90036BE022C082C083E9600514602A45
:1047E400804F90619A7433F0A37455F09061A07473
:1047F4003AF0900706E064017009C29190036D7469
:1048040067802D90036D7461802690619A743FF0E7
:10481400A3745AF09061A0747FF0900706E06401DD
:104824007009D29190036D7471800590036D746A60
:10483400F0024AA3C082C083E9600B14600D1460C7
:104844001714600C80209026C880159026C980100B
:10485400900706E0640170059026CA80039026CB79
:10486400E493906186F0024AA374EC1218AD74F4D8
:1048740012183D9090F0AC18AD19740412175090B2
:1048840026C893F4600302498F907808E0C3940229
:10489400500302497390903374041218A3740812DD
:1048A40017507F00750CFF750DFF750EFF7E00EF2E
:1048B400FC25E0F8E433F97404121889E58228F53C
:1048C40082E58312543BF512A3E0F513800F7408BC
:1048D4006E605B74096E6056740A6E6051EEF50882
:1048E4007509007402780812182A1249991216F5EB
:1048F400A909E50AC9F510741878081215F8E51025
:104904004508F8C3E51298E51399400AE512C398DF
:10491400F8E513998008E8C39512F8E99513F9C3EB
:10492400E8950CE9950D5006880C890D8E0E0EEE57
:10493400C39413409974FF650C700474FF650D6093
:1049440024E50EF5087402780812182A12499912FF
:1049540016F5851882851983E5822CF582E4358362
:10496400F583E508F00FEFC3940450030248A875DB
:1049740008017509007808121AC074021218A37A83
:10498400B27B091211D37402121853740C12185307
:104994007F0C02197F74482508F58274783509F56F
:1049A40083780822C082C083906186E0F89026CB89
:1049B400E4936870099026CAE493906186F090614C
:1049C400AE7468F0A3746AF090624574FBF0A304BB
:1049D400F053F4FD43FE029007067401F09061A0C9
:1049E400E0643A7004790080027901120AC5024A2F
:1049F400A3C082C0839006E4E0640170139006EAC9
:104A0400E0F87401686019E87006A3E064016010BE
:104A14009006FBE06401700C900701E064017004EF
:104A2400790C80027900024AA3F0A3F0024AA3E0C1
:104A3400C4333354C022F583E0F5D908E8C394069F
:104A4400222414F582E438F58322C082C0839006C0
:104A5400EE7425F09006EC7401F0A3E4F07A01FB07
:104A6400120DBF124A99241AF582E438F58374FBB7
:104A7400F0A3740AF09006EBE0640170169006EA65
:104A8400E070107901120E1F120DEF120E19790049
:104A9400120E2B800A9006DA125BF122124B88D098
:104AA40083D082020132C082C08374FA12183D900E
:104AB40006E3E064017008120AE39006E3E4F0758B
:104AC400E1F1124A992415F582E438F5837401F072
:104AD4009006E5E064017046909042AC18AD1974FC
:104AE4000612175075D90D9006DC124A334403F5AB
:104AF400D97800E8FA74DD124CC73406124A3A40F9
:104B0400F27800E8FA851882851983E582124CC789
:104B14003583124A3A40EC75E195790180027900B7
:104B2400120DC5901B60124B8E748DF0A3740CF0A3
:104B3400A3124B8E124B8E124CEC7493F0A3740C94
:104B4400124D019006DCE0F97ADD7B06120DA1908E
:104B540006EE124B887901120DCB9090F4121713C4
:104B6400120DE39090E4121713120DAD7900120E9A
:104B740037124A99124A457416F09003697405F085
:104B8400040247BEE0F912264B227487F0A3740C8A
:104B9400F0A32274F71218AD8908A808E9125C7E04
:104BA4009006F3E0F97AF47B06120DA1900701E078
:104BB40070257900120E01EE2407FAEF3401FBEEA2
:104BC400240DF582EF3401F583E07004790080024E
:104BD4007901120DA780057901120E0175E1F175B5
:104BE400D9239006F3124A334405F5D97800E8FA3C
:104BF40074F4124CC73406124A3A40F275D900755F
:104C0400D90075D90075D90075D90075D9007A0015
:104C1400124CD92422124FF940F67A00124CD924AE
:104C240026124CCC940340F4EE242B124FEE242C89
:104C3400124FEE242D124FEE242E124FEE242F127B
:104C44004FEE2430124FEE2431124FEE2432124F25
:104C5400EE2433124FD8124CD9245D124CCC940557
:104C640040F4EE243712514D541FF8EE242A125109
:104C74004DC43354E048F5D975E195901B607457E1
:104C8400F0A3740CF0A3745DF0A3740C124CE374E1
:104C940063F0A3740C124D01900700124B8890909E
:104CA400F4121713120DE39090E4121713120DADC2
:104CB40090600DE4F07901120E379003697406F0E8
:104CC40002515B2AF582E422124CD022125438F5A8
:104CD400D90AEAC322EAF8EE28F8E43FF9E822F018
:104CE400A3124CEC124CEC22124CF0227451F0A39F
:104CF400740CF0A37451F0A3740CF0A322124D05AC
:104D040022F0901B6E124D11A3124D1122124CF081
:104D14007451F0A3740CF02274EC1218AD9006F1E7
:104D2400125C9478101216F5900702E0FAF875F008
:104D340012A4C8ACF02C125E2CEE2EFEEF33FF8EC4
:104D44000CF50D750E00750F008510088511098589
:104D5400120A85130B9090D478081216437808121F
:104D64001ABC85100885110985120A85130B780869
:104D7400790C1216307810790C121589E4F50EF5B9
:104D84000F7808790C1216698A0C750D0074037873
:104D94000C12182A7808790C1216309090B87808FA
:104DA4001216BCAA08AB09AC0AAD0B1225E37404B5
:104DB4001218538A088B09A808A909C3EE98EF9919
:104DC4005006EA2EF8EB3FF9E890600EF0E9A3F004
:104DD400EEA3F0EFA3F090600D74C1F0024994C00B
:104DE40082C0839006DA124E039006EE024AA0C0F7
:104DF40082C0839006F1124E03900700024AA0126B
:104E04005BF1124E0DF0A3F0222406F582E438F58E
:104E140083E42202013274F21218AD124ED0F8EA81
:104E24002484F50AE43FF50B850A82F583E06004E7
:104E34007A1280027A0E12538A407F75080C90070A
:104E44000CE4F0EE247712514D90070DF07902EE48
:104E54002478FCE43FFD7A0E7B07120BD37902EE33
:104E6400247A124EC5247C124EC5247EFCE43FFDF8
:104E7400120BD3EE2475124F58850A82850B83E0FA
:104E8400601675080C7509077808121AC07C0C1294
:104E940061F312185375081074012508F5D975D9F2
:104EA4000378008003124F47E8C3950840F775E183
:104EB400957904120DE97901800279007F060219BF
:104EC4007FFCE43FFD120BD37902EE22EAFEEBFFF6
:104ED4001251F32274F21218AD12526960047A0E60
:104EE40080027A0A12538A4055750A0890070C7496
:104EF40001F079057CCF7D067A0D7B07120BD3EE8A
:104F04002481124F58850882850983E0601675084C
:104F14000C7509077808121AC07C081261F312187C
:104F240053750A0C1251B58003124F47E8C3950A12
:104F340040F775E1957904120DE979018002790051
:104F4400024EC0E8FA740C2AF582E43407F583E0D3
:104F5400F5D90822FCE43FFD8E828F83A3A3A3A38B
:104F6400A31262B78C828D83E028F0A3E039F07934
:104F740002120BD32274F71218ADEAFEEBFF906114
:104F8400D0E0704B75D91875D90375D9037A00121E
:104F94004FE4249D12500E40F6EE24A5124FEE2449
:104FA400A6124FD8124FE4249512500E40F67A0000
:104FB400124FE42489124FF940F675E1957908EE11
:104FC40024951250072489124FFF12512880027928
:104FD4000002515BF582E43FF583E0F5D97A0022C3
:104FE400EAF8EE28F8E43BF9E822F582E43FF58399
:104FF400E0F5D9EE22124CD0940422FAE43FFB12DD
:105004000BD922124FFF7904EE22124CD0940822BD
:1050140074F61218ADEAFEEBFF90070C74061250FA
:10502400B8121AC07C0179031261F912185375D9A8
:105034000675D90378001250A340FB75E1959003DF
:1050440069E06408700BEE246F12505A24711260E8
:105054004279010252FCF582E43FF5831262B7EE15
:105064002274F61218ADEAFEEBFF9061D0E0702ACC
:1050740090070C740A1250B8121AC07C01790312FA
:1050840061F912185375D90675D90378001250A323
:1050940040FB75E19512512D800279000252FCE823
:1050A400FA740C2AF582E43407F583E0F5D908E8AC
:1050B400C3940522F075080C75090778082274F664
:1050C4001218ADEAFEEBFF9061D0E0704F780190CA
:1050D400070C740BF0900369E06407701775080CF3
:1050E4007509077808121AC07C0179031261F91254
:1050F40018537805740128F5D975D9037900800F00
:10510400E9FA740C124CC73407F583E0F5D909E9C0
:10511400C39840EC75E19512512D8002790002523A
:10512400FC75E1957904120DE9EE246FF582E43FF4
:10513400F5831262B7EE2471F582E43FF583E8F05B
:10514400A3E9F0790122EE242EF582E43FF583E011
:1051540022A2E092AF79007F0102197F74F5121840
:10516400AD1251DB6004780F8002780BEAC3981209
:10517400538D4036750A0990070C7408F0F91251E2
:10518400C1601475080C7509077808121AC01261F9
:10519400F1121853750A0D1251B58003124F47E8E6
:1051A400C3950A40F7125125800279007F03021942
:1051B4007F7401250AF5D975D903780022EE24E617
:1051C400FCE43FFD7A0D7B071251D022120BD385EC
:1051D4000882850983E0221251EFFAEE2484F8E470
:1051E4003F8808F5098882F583E022EAFEEBFF9008
:1051F40061D0E0F87480C3982274F21218AD125290
:105204006960047A0C80027A0812538A4052750A43
:105214000690070C740CF0900386E090070DF0796B
:10522400027C877D037A0E7B07120BD379027C897B
:105234007D031251D0601675080C750907780812A1
:105244001AC07C061261F3121853750A0A1251B57A
:105254008003124F47E8C3950A40F7125125800294
:105264007900024EC01251EFF8EA2484F508E43FB5
:10527400F509850882F583E02274F61218AD124E02
:10528400D0FAEE2484F8E43FF98882F583E06004E0
:105294007C0880027C04EAC39C12538D40587A0235
:1052A40090070CEAF0EE24F8F582E43F12530F6005
:1052B4001975080C7509077808121AC07C0279035D
:1052C400EEFA1261F91218537A0674012AF5D975A7
:1052D400D90378008008E8FC740C2C124F4CE8C306
:1052E4009A40F375E1951253017904120DE9EE2405
:1052F4000D125130800279007F0202197FEE241DC5
:10530400F582E43FF583E4F0A3F022F583E090070F
:105314000DF088828983E02274F61218AD124ED4FF
:10532400FCEA2484F8E43BF98882F583E060047E97
:105334000880027E04ECC39E12538D40447C02908C
:10534400070C7407F0EA24F9F582E43B12530F606A
:105354001575080C7509077808121AC079031261CB
:10536400F91218537C0674012CF5D975D903780009
:105374008003124F47E8C39C40F875E1957901809A
:105384000279000252FCE8C39A95E0C365D0332247
:1053940074F71218AD8908A2AFE433FFC2AF7E00E0
:1053A400EA246EF8E43BF980010E88828983E0FCEC
:1053B400EEC39C5018EEFCEA2CFCE43BFDEC246AA2
:1053C400F582E43DF583E0650870DE8010EA2CFA8E
:1053D400E43BFB1253E9E50812531504F0EFA2E095
:1053E40092AF02515BEA246AF582E43BF58322C062
:1053F40082C083A2AFE433FDC2AFEA246E12575BCE
:1054040014F07C00ECF8EA124FE7246B125438C015
:10541400E0125F33D0E0F00CECC3940340E6EA24DE
:105424006DF582E43BF58374FF12570AEDA2E09216
:10543400AF024AA3F582E439F583E022C082C08337
:10544400A2AFE433F8C2AF1253E9E91256FDE0709B
:10545400037401F0E880D674F01218AD8C828D8349
:10546400A3A3A3A3E0541FF0EA2436125FEF8882BB
:10547400F583E4F0750C00E50CF50AEC250AF8E474
:105484003D8808F5098882F583E0C0E0EA250AF83A
:10549400E43BF9E8245DF582E439F583D0E0F07566
:1054A4000A00850882850983E0F50E750F00E50A78
:1054B400780E12180BE50EA2E05027E50C333333B7
:1054C40054F8250AC0E08E828F83E0F8EA124FE791
:1054D4002438F582E439F583D0E0F08E828F83E0BE
:1054E40004F0050AE50AC3940840B7050CE50CC3AB
:1054F400940540837F0802197F74F71218AD900356
:1055040095E0640370030256C87C00ECF875F01251
:10551400A4C8AAF02AF9749528F8740339F9E82480
:105524000612543860030256BEE82404FAE439FB38
:105534007401126256A3A3A3E4F0EA2404F8E43B42
:10554400F9EC88828983F0EA2462F582E43BF583EE
:105554007401F0EA2467F582E43BF5837401125682
:10556400E6E4F0A31256E6A3A31256F8240FF5823C
:10557400E43BF5837401F0EA24351256D62418125C
:1055840056CF1256F8241C1256D6241D1256F12456
:10559400801256D624741256D624831256D6246802
:1055A400F582E43BF58374801256FDE4F0EA24EEC0
:1055B4001256D624EF1256D624F01256D624F112DF
:1055C40056D624F21256F124F41256F124F7125747
:1055D400121261FFE4F0EA24D41256D624D51256EE
:1055E400D624D61256CF1256F824DA1256CF1256B3
:1055F400F824E01256D624E21256D624DE1256D6E9
:1056040024E31256D624E41256D624FA1256F12470
:10561400FC1256F124FE1256F12400F582EB3401FB
:105624001256F5240D1256DB24071256DB240812F9
:1056340056DB24091256DB240A1256DB240B1256BD
:10564400DB240C1256DB1253EA74FF7C04F0A3DC57
:10565400FC7C00ECFE74CF2EF582E43406F583E086
:10566400C0E0EA2EFEE43BFFEE245DF582E43FF564
:1056740083D0E0F00CECC3940540D87C00ECFE74BD
:105684007D2EF582E43403F583E0C0E0EA2EFEE4E7
:105694003BFFEE24E6F582E43FF583D0E0F00CEC2A
:1056A400C3940840D8900395E004F064017019880D
:1056B400828983E0900397F0800E0CECC39403502E
:1056C4000302550F7A007B0002515B125712A3F0BC
:1056D400A322125712EA22F582EB3401F583E4F097
:1056E400EA22F08A828B83A3A3A3A3A322F582E4F4
:1056F4003BF583E4F0A3F0EA2212570AEA246EF59C
:1057040082E43BF58322F0EA246912571222F582DF
:10571400E43BF583E4F022C082C083EA24031257F9
:105724005B6008E4F0900396E014F0900395E014B5
:10573400F0700690039774FFF08A828B83A3A3E42E
:10574400F09006D4E0700D900396E0640170057942
:1057540000120DB3024AA3F582E43BF583E022C0B4
:1057640082C0837A00EAF875F012A4C8ABF02BF972
:10577400749528F87403125F3DA3A3A3A3E4F088EF
:10578400828983A3A3A3A3A3A3F00AEAC394034037
:10579400D4900395E4F0A3F0A374FFF075E1F10253
:1057A4004AA374E81218AD74FC12183DEAFEEBFF2C
:1057B400741C121889121AD38A828B83125C941275
:1057C4001713125C78121853E96003025B50125BE2
:1057D400E1121AD374201218891217131225E374D4
:1057E400041218538A108B118C128D138E828F839E
:1057F400A3A3A3A3A3E0FCA3E0FDEE247412514DE4
:10580400F87003025AA0EE247512514DC39CF5148E
:10581400A3E09DF515740268700AEE2410F582EF7A
:1058240034018007EE242EF582E43FF583E0F50889
:10583400A3E0F50985140C85150D750E00750F0090
:10584400E4F50AF50B780C79081215098518828598
:105854001983780C121704125BE178081216F58587
:10586400188285198378081216437808121ABC74B2
:1058740020121889121713125C78121853E9700356
:10588400025A59EE247A125BAFE4F50EF50F85182F
:1058940082851983781012167D7810790C121630CF
:1058A4009090C07810121643850C08850D09850E5A
:1058B4000A850F0B7810790812158985100885114F
:1058C4000985120A85130B7808790C1215098E8242
:1058D4008F83A3A3A3A3A3E02514F8A3E03515F9AC
:1058E400E82510F8E93511F98E828F83A3A3A3A3C9
:1058F400A3A3A3E8F0A3125BF7C082C083EE2478CD
:10590400125BAFD083D082780C121643780C7908DE
:10591400121630125BA26003025AFAEE2477F516CF
:10592400E43FF517AC16FDEEFAEFFB120BA9EE24DB
:105934007CF508E43FF50985088212505E242012A4
:105944006042EE241CF582E43FF583E4F012530137
:105954008E828F83A3A3A3A3A3A3A3125060125B7D
:10596400BDE028F8A3E039F9EE240B126042EE24DE
:105974007EF512E43FF513851282F583E0F514A356
:10598400E0F515EE247A12514DFCA3E0FDEE24302F
:10599400F510E43FF511EE2432F50AE43FF50B125D
:1059A400514A6C7003A3E06D701D850A82850B83D8
:1059B400E065147004A3E06515700C125BD1E06817
:1059C4007003A3E06960307404781412181B78140F
:1059D400121AC0850882850983121AD7EDC313FDF4
:1059E400EC13FC8E828F83A3A3A3A3E0FA7B0012A3
:1059F40008797404121853EE242E12505A2410F508
:105A040082EF3401126046851682851783E0C0E078
:105A1400EE242BF582E43FF583D0E0F0EE247A12F5
:105A2400505A242E126042125BD1126048851282B1
:105A3400851383125D29850A82850B83126048EEE3
:105A4400FAEFFB120BAFEE2474F582E43FF5837496
:105A540002F0025AFA12514AF508A3E0F509E4F5F6
:105A64000AF50B781079081216309090C07810124D
:105A7400164385080C85090D850A0E850B0F7810D1
:105A8400790C12158985100C85110D8E828F83A3D4
:105A9400A3A3A3A3E0250CF8A3E0803D12514AF888
:105AA400A3E08808F509750A00750B0078107908D9
:105AB4001216309090C0781012164385080C850990
:105AC4000D850A0E850B0F7810790C121589851037
:105AD4000C85110DEC250CF8ED350DF98E828F83B4
:105AE400A3A3A3A3A3A3A3126048E4F50EF50F7820
:105AF4000C7908121509125BC6FBE82408FCE43B88
:105B0400FD8C82F583780C1216438A828983A3A3C1
:105B14007406121750125BC68882F583A3A3780C0F
:105B24001217048A828983A3A3A3A3A3A3E4F0A3E3
:105B3400F0EE243512514DC0E0EE2434F582E43FFA
