:020000040000FA
:0600000002011A02225267
:03002B000227ABFE
:0300330002278D14
:030053000222C8BE
:03006B0002276405
:100083000220AFE5C754F84401F5C7790122000007
:100093000080FB120086B90003020104E4791B7897
:1000A30002B800028004F709D8FCE4791D7802B88D
:1000B30000028004F709D8FCE490028178347919AE
:1000C3008002F0A3D8FCD9FA781A90014A7A01BACF
:1000D30000028007E493A3F608DAF97AB47B1A9056
:1000E300014B78DB79018015E493A3AD82AE838A5B
:1000F300828B83F0A3AA82AB838D828E83D8E9D9C6
:10010300E77582407583D6740312012C758291754D
:100113008300740012012C75D00075813F7518811E
:10012300751902759F00020096C09FF59FE473D076
:100133009F22D083D082C09FE493C0E0740193C018
:10014300E0740293F59F2201C903D5030B04050450
:10015300FF0000B4000028002800283075A000A08C
:1001630000A000A00000080008E001F0001000104B
:10017300001000100010001000500050005000103C
:10018300001000D0070000000000000F0001000570
:1001930000307507001000010081FF00000000FF20
:1001A300FFFF0202021283010000FE82021A830192
:1001B30000000E1B020883010000B802021A83012B
:1001C30000000F1B020683010000CE02FFFF0100A7
:1001D300FF200212830100000183021A8301000041
:1001E3003D1B0204830000000000020A8303000099
:1001F300FA021700FD0BFD0BFD0BFD0BFD0BFD0BB9
:10020300FD0BFD0BFD0BFD0BFD0BFD0BFD0BF50DB1
:10021300130EEF0D01E803057710020AFFFFFF003D
:10022300FEFF12013510BD031201352DBD0312016E
:10023300354EBD03120135ADBD03120135ECBD03CF
:100243001201350DBE0312013538BE031201357795
:10025300BE0312013509BF0312013545BF03120165
:100263003536B40312013549B40312013578B403AA
:10027300120135B0B403120135F9B4031201353C50
:10028300B50312013582B503120135B5B503120169
:1002930035DCB5031201350BB60312013542B60343
:1002A3001201355BB603120135AAB603120135D824
:1002B300B6031201350CB7031201350D8D0212017D
:1002C300350B8E02120135468E02120135B68E02AF
:1002D300120135D98E02120135DB8E02120135DE91
:1002E3008E021201351C8F02120135888F02120112
:1002F30035F28F02120135B29002120135CE90020F
:100303001201350391021201353E9102120135DAD1
:100313009102120135119202120135429202120129
:10032300354592021201358A9202120135979202E3
:10033300120135AF92021201351F930212013522C9
:1003430093021201352F93021201353293021201E7
:10035300357C9302120135969302120135DC930228
:10036300120135DF9302120135139402120135167F
:100373009402120135899402120135B994021201D3
:1003830035C59402120135F8940212013505950220
:1003930012013508950212013557950212013554A1
:1003A3009602120135F89602120135649702120182
:1003B30035A0970212013574CA021201354CCB02E3
:1003C3001201357ACB0212013510CC0212013551DC
:1003D300CC02120135B9CC0212013547CD0212010C
:1003E30035FCCD02120135FBD00212013566D20273
:1003F30012013586D202120135BA9C031201355619
:100403009E03120135769E03120135969F03120156
:1004130035DF9F03120135E1A80312013509A90352
:1004230012013536A9031201356EA903120135D421
:10043300A9031201351EAA0312013582AA03120170
:1004430035CAAA0312013507AB0312013535AB03D5
:10045300120135CAAB03120135D4AB03120135E1E6
:10046300AB0312013514AC0312013520AC031201A6
:100473003538AC0312013542AC0312013562D203A5
:1004830012013570D20312013588D203120135A04F
:10049300D203120135B7D20312013540D50112013F
:1004A30035E3D5011201355BD60112013582D7013F
:1004B300120135BBD70112013553D8011201354062
:1004C300D901120135E9D90112013551DA011201BD
:1004D30035D9DB01120135C1DC01120135B8DD016B
:1004E300120135EEDD0112013590DE01120135B640
:1004F300DE0112013582E001120135C8E00112016B
:1005030035EAE00112013589E10112013543E201C7
:100513001201354FE401120135D0AC03120135E667
:10052300AC0312013504AD0312013514AE031201FD
:10053300351EAE0312013548AF0312013535B00342
:10054300120135A1B0031201350C8503120135AC3C
:100553008503120135E385031201353A860312013F
:10056300353988031201351E8301120135CB83010E
:10057300120135E783011201359D8401120135A76C
:100583008401120135C18401120135D584011201A0
:1005930035A18501120135628601120135BE86013E
:1005A300120135458701120135FD8701120135FE20
:1005B3008A01120135BD8C011201355F8D011201D3
:1005C300352B8E01120135509101120135FE910137
:1005D300120135379301120135F494011201358864
:1005E3009501120135CB95011201350A96011201CD
:1005F30035F39601120135279701120135AF9701A3
:10060300120135D3C2011201355AC301120135AEAD
:10061300C401120135BAC40112013532C5011201F8
:10062300350BC6011201350BC70112013507C8018D
:10063300120135D3C8011201352DCA011201354308
:10064300CA0112013564CA0112013528CB01120116
:10065300354ECB01120135FBCD0112013500CE0120
:1006630012013524D0011201356BD001120135D1AD
:10067300D00112013517D101120135E7D101120161
:10068300359CD201120135F8D201120135FBD2019A
:1006930012013547D30112013583D301120135C24B
:1006A300D301120135E4D30112013518D40112012B
:1006B3003586D40112013500800312013509800308
:1006C3001201351780031201356780031201358645
:1006D3008003120135D08003120135138203120106
:1006E30035AB8203120135EF8203120135198303FF
:1006F300120135848303120135C883031201354B7C
:100703008403120135FA8403120135D8270012013C
:1007130035E82700120135822800120135DE280052
:100723001201359C2900120135BF2A00120135EF51
:100733002A001201351E2B00120135D42C001201A0
:1007430035272F001201358631001201356F320033
:100753001201355F33001201353235001201352A9B
:100763003800120135473900120135413B001201AF
:1007730035503C00120135DF3D00120135CB3E0000
:100783001201351A3F001201358A3F00120135A6C6
:100793003F00120135F73F00120135974400120163
:1007A300359E45001201350046001201352B4600E7
:1007B300120135E34600120135EEA403120135F8A8
:1007C300A40312013540A50312013554A5031201F8
:1007D30035E5A5031201350BA60312013546A60321
:1007E3001201356FA603120135A3A603120135B812
:1007F300A60312013523A70312013544A7031201EF
:100803003558A7031201356DA703120135A7A703B6
:1008130012013510A80312013553A8031201357DC7
:10082300A803120135B9A80312013556CF031201EB
:100833003575A2021201354EA302120135BDA30282
:10084300120135F8A30212013533A502120135B3A3
:10085300A502120135B9A70212013566AA021201D7
:100863003511AB0212013514AC021201357CAC0216
:1008730012013547F7021201358AF702120135E4F6
:10088300F802120135B7F902120135F5FB02120124
:10089300356EBF031201351CC0031201350FC103AE
:1008A30012013551C103120135DBC8031201353A78
:1008B300C903120135D7C90312013503CA03120153
:1008C3003522CA031201355DCA031201357DCA03FD
:1008D300120135058F031201358E8F031201354D39
:1008E30090031201355B91031201357B93031201CF
:1008F30035FEC00212013513C102120135E0C102F7
:100903001201354DC20212013593C2021201353470
:10091300C3021201353DC40212013515C50212018D
:100923003598C50212013551C602120135DBC602E4
:10093300120135DEC60212013526C70212013594B3
:10094300C7021201354CC8021201356CC8021201EC
:1009530035B0C802120135CCC80212013546C902AE
:1009630012013554C902120135E7C902120135518A
:10097300CA02120135677B00120135E37B001201C5
:1009830035217C00120135057D00120135747D008F
:10099300120135B87D00120135FB7D0012013528A7
:1009A3007E00120135467E001201357E7E00120163
:1009B30035BB7E00120135DC7E00120135527F000B
:1009C3001201359C7F00120135D864001201359A5B
:1009D3006600120135866800120135CE68001201E7
:1009E30035F96800120135C16900120135F169005A
:1009F300120135486A001201355B6A001201359C09
:100A03006A00120135C86A00120135116B00120128
:100A130035486B00120135BE6B001201351D6C00A9
:100A2300120135966C00120135686D0012013555BF
:100A33006E00120135137000120135577500120153
:100A430035AD7500120135A077001201350A7A0021
:100A5300120135397B001201354A7B00120135AA98
:100A6300BA031201357BBB03120135BFBB0312016D
:100A7300350EBC031201355FBC03120135A2BC0362
:100A83001201354C4700120135D3470012013500DE
:100A93004800120135454800120135414900120151
:100AA30035864900120135FC4A00120135814B009D
:100AB300120135D04B001201351F4C0012013523B2
:100AC3004D00120135C64E001201359A4F00120136
:100AD30035AA4F00120135CE4F00120135D14F0018
:100AE300120135B650001201356A51001201350A60
:100AF3005200120135655200120135BC5200120139
:100B030035225300120135C75300120135615400D9
:100B1300120135E45400120135505500120135A578
:100B230055001201350B56001201352B56001201E8
:100B330035EC56001201351359001201355C59008A
:100B43001201359D5900120135B75E00120135536C
:100B53005F00120135C16000120135B4610012015A
:100B630035D961001201352F62001201354462004C
:100B73001201357F6200120135EF62001201352F39
:100B83006300120135406400120135A464001201B0
:100B9300356EB702120135B9B702120135C5B70276
:100BA30012013590B802120135A6B802120135E2DE
:100BB300B8021201351BB90212013553B9021201F1
:100BC30035A9B902120135BFB902120135FBB902C9
:100BD3001201350EBA0212013535BA021201356916
:100BE300BA021201353DBB02120135CCBC0212011F
:100BF30035C8BD02120135D1BE02120135F7FF011E
:100C03001201350A8A03120135A58D03120135BA83
:100C13008E03120135F6F201120135CBF5011201F3
:100C230035D1F50112013598F80112013524FB0184
:100C3300120135AE93031201353C9403120135FEC4
:100C430094031201352395031201354F97031201C3
:100C530035D6AD011201351AAE011201350FB701B8
:100C630012013579B80112013584B9011201352514
:100C7300BD0112013517BE0112013565BE01120116
:100C8300357FBE01120135C0BE01120135C9BE0157
:100C930012013580BF011201354AC001120135A18D
:100CA300C0011201350BC1011201358CC1011201C2
:100CB30035ABB00312013541B10312013557B1030E
:100CC3001201359DB103120135E1B1031201351B48
:100CD300B203120135ADB2031201351CB303120185
:100CE3003525B30312013531B30312013545B3037F
:100CF30012013569B3031201357EB303120135E0E6
:100D0300B30312013507B40312013539EB021201A3
:100D13003546EB0212013560EB0212013593EB020B
:100D2300120135D0EB0212013536EC021201354BBC
:100D3300EC0212013562EC0212013570EC02120171
:100D4300357FEC0212013594EC02120135A9EC0255
:100D5300120135B4EC02120135C0EC02120135CD9B
:100D6300EC02120135DCEC02120135E7EC02120150
:100D7300350FED02120135B3ED02120135C8ED0254
:100D8300120135DDED02120135F7ED0212013518BE
:100D9300EE0212013535EE0212013540EE02120168
:100DA30035F3EE02120135DBEF0212013502F002D8
:100DB3001201350DF00212013522F002120135360F
:100DC300F00212013597F0021201359DF002120173
:100DD30035A3F002120135A9F002120135C1F00268
:100DE300120135F4F00212013521AD02120135432F
:100DF300AD0212013508AE0212013597B00212019D
:100E030035B6B102120135D2B202120135ACB302CA
:100E130012013563B40212013505800212013593C4
:100E23008002120135288102120135048202120167
:100E3300353882021201354B8202120135C5820216
:100E43001201354D8402120135748402120135FBFF
:100E530084021201353A85021201354B85021201D3
:100E630035C08502120135DF8502120135F785028F
:100E73001201353B8702120135458902120135778C
:100E83008B021201357D8C02120135C08C021201D6
:100E9300355CE4011201356FE50112013557E601B6
:100EA30012013561E60112013583E6011201358F26
:100EB300E601120135DCE70112013509E8011201EF
:100EC300352AE9011201356CE901120135A1EA0164
:100ED30012013571EB01120135C0EB01120135210D
:100EE300EC0112013556EC011201358FEC011201B0
:100EF300353AF00112013551F001120135CFF001FD
:100F0300120135DDF00112013526F10112013534EC
:100F1300F101120135B5F10112013524F20112017B
:100F23003570F2011201352AC7031201354FC70389
:100F3300120135C0C703120135E3E302120135EC98
:100F4300E302120135F5E30212013519E50212013C
:100F5300350AE70212013538E70212013563E70269
:100F630012013591E702120135BCE702120135FA8D
:100F7300E70212013526E80212013563E802120185
:100F8300358EE802120135DAE80212013531E90241
:100F930012013571E902120135C0E902120135EB84
:100FA300E90212013531EA021201355FEA02120148
:100FB300358AEA02120135ADEA021201354EFF010C
:100FC3001201357AFF01120135D3FF01120135DD1C
:100FD300FF01120135EDFF011201356EF10212011D
:100FE30035ACF10212013533F20212013548F20237
:100FF30012013597F202120135CBF2021201350AC2
:10100300F30212013519F302120135CCF302120176
:101013003525F40212013574F402120135CBF402C2
:10102300120135E0F502120135D2F6021201350F35
:10103300F702120135E0D50312013596980112012A
:1010430035089B01120135789C01120135D59C01AD
:10105300120135779D01120135729E01120135EFA0
:101063009E011201357F9F01120135A49F011201D8
:1010730035F49F011201358CA20112013500A30141
:10108300120135ECA30112013522A40112013565C9
:10109300A401120135E6A50112013512A6011201C0
:1010A3003554A6011201359DA60112013509A70188
:1010B30012013528A70112013542A701120135603B
:1010C300A80112013570A801120135F3A90112011B
:1010D3003511AA0112013547AA01120135C3AB012B
:1010E30012013538AC0112013575AC01120135A876
:1010F300AD0112013572C503120135CEC5031201CC
:101103003572C60312013591C603120135DFC603DA
:1011130012013529D4031201353AD403120135984B
:10112300D603120135D7D603120135E37F0012012E
:101133003547D30312013557D3031201356FD30358
:1011430012013523D4031201356AD003120135EDA0
:10115300D00312013553D1031201352DCC031201F3
:101163003556CC03120135BCCC03120135DBCC035D
:101173001201352ECD0312013587CD03120135C27D
:10118300CD03120135C5CD0312013574B703120126
:101193003589B70312013587B8031201351FB90327
:1011A30012013593B903120135ADB903120135C4E8
:1011B300B903120135D2B903120135EAB903120199
:1011C30035FFB90312013524BA0312013575BA0389
:1011D300120135EDA00312013504A1031201357D7F
:1011E300A10312013551A20312013523A4031201F5
:1011F3003588A403120135DBA403120135F87F00FF
:1012030012013598C3031201350EC5031201356F60
:10121300C503120135CFCD03120135F2CD031201FF
:10122300351BCE03120135B5CE03120135CBCE03E8
:101233001201350DCF031201351ADC0212013524D8
:10124300DC0212013564DC02120135ADDC0212014D
:1012530035E5DC021201353BDD0212013558DD02B2
:10126300120135D7DF02120135E0DF021201352505
:10127300E0021201354EE00212013563E002120171
:1012830035D3E00212013560E102120135B4E10207
:10129300120135D7E10212013556E20212013591EE
:1012A300E202120135C6E202120135D8E20212014E
:1012B30035F7E20212013500E302120135B7E3020A
:1012C3001201358BCA03120135DCCA0312013565DD
:1012D300CB03120135CFCB0312013592FC0212016D
:1012E30035BAFC02120135AFFD02120135D4FD02FD
:1012F3001201356EFE02120135FDFE021201356C3C
:10130300D1031201359CC103120135D2C10312016D
:101313003505C2031201355EC303120135DDD40363
:10132300120135F3D403120135FDD40312013551F3
:10133300D5031201357CD503120135A5D302120161
:10134300355FD4021201359AD402120135CBD4028F
:101353001201353BD50212013591D502120135E553
:10136300D502120135D2D602120135CBD7021201B2
:10137300354CD90212013500DA0212013569DA025D
:101383001201357CDA0212013561DB02120135BA32
:10139300DB021201354B98031201356198031201E8
:1013A300350299031201354199031201355E990300
:1013B3001201358F9903120135DC99031201350FA0
:1013C3009A031201354A9A03120135459C0312010F
:1013D30035AD9C03120135C69702120135B498024C
:1013E3001201357B9902120135FF9B02120135EB85
:1013F3009C02120135129D02120135449F02120113
:1014030035919F0212013524A0021201355FA1021A
:10141300120135F9A10212013518D703120135E182
:10142300D60312013544D7031201356DD703E066A5
:10143300701008A3E066700A08A3E066700408A3AE
:10144300E06622C3E7960809E7960809E7960809C4
:10145300E79622C3E09608A3E09608A3E09608A3C4
:10146300E09622C008C3E096F50808A3E096420878
:1014730008A3E096420808A3E09645087001D3D07C
:101483000822080808EAC0E0EBC0E086F0E7A4FA07
:10149300180986F0E7A42AFA180986F0E7A42AFABD
:1014A300180986F0E7A42AFA1986F0E7A4FBE5F009
:1014B3002AFA190886F0E7A42BFBE5F03AFA190893
:1014C30086F0E7A42BFBE5F03AFA18180986F0E753
:1014D300A4C5F02BFBE43AFA1908E7C5F0C6A42625
:1014E300F6E5F03BFBE43AFA1886F0E7A4F6E5F0FC
:1014F3000826F6E43B08F6E43A08F6D0E0FBD0E031
:10150300FA22E4CFC0E0E4CEC0E0E4CDC0E0E4CC16
:10151300C0E075F020E626F608E633F608E633F673
:1015230008E633F6181818EC33FCED33FDEE33FE02
:10153300EF33FFC3EC9709ED9709EE9709EF97197E
:101543001919400FFFEC97FC09ED97FD09EE97FE83
:10155300191906D5F0BFECF709EDF709EEF709EF16
:10156300F7191919D0E0FCD0E0FDD0E0FED0E0FF80
:10157300226016080808C6C313C618C613C618C6C1
:1015830013C618C613C6D5E0EA2270090808082254
:101593006016181818C6C333C608C633C608C63340
:1015A300C608C633C6D5E0EA22E627F60809E637B9
:1015B300F60809E637F60809E637F622E026F608C4
:1015C300A3E036F608A3E036F608A3E036F622E0F9
:1015D30026F008A3E036F008A3E036F008A3E036CF
:1015E300F022C3E697F60809E697F60809E697F6A8
:1015F3000809E697F622C3E096F008A3E096F00800
:10160300A3E096F008A3E096F022E657F60809E671
:1016130057F60809E657F60809E657F622E056F6A4
:1016230008A3E056F608A3E056F608A3E056F62210
:10163300E056F008A3E056F008A3E056F008A3E054
:1016430056F022E066F608A3E066F608A3E066F625
:1016530008A3E066F622E0F608A3E0F608A3E0F6A6
:1016630008A3E0F622E6F008A3E6F008A3E6F008F4
:10167300A3E6F022E0FAA3E0FBA3E0FCA3E0FD2253
:10168300EAF0A3EBF0A3ECF0A3EDF022E0F8A3E083
:10169300F9A3E0FAA3E0FB22E8F0A3E9F0A3EAF060
:1016A300A3EBF022CAC0E0E6F0A308DAFAD0E0FA2E
:1016B30022CAC0E0E0A3C582CCC582C583CDC58361
:1016C300F0A3C582CCC582C583CDC583DAE6D0E05D
:1016D300CA22C3E498F8E499F91217168026C3E4E2
:1016E3009AFAE49BFBE920E7E9121716E498F8E479
:1016F30099F922C3E498F8E499F9121716E498F8D3
:10170300E499F9C3E49AFAE49BFB22EB20E7CFE9DF
:1017130020E7E0B90010BB0008E88AF084F8AAF0DB
:1017230022E4FBC8FA22EB70227B10C833C8C9330A
:10173300C9335007C39AC3DBF280069A50012ADBF0
:10174300EAC833F4C8C933F4C9FA2275F008E4C807
:1017530033C8C933C933C99AC99B5004C92AC93B81
:10176300D5F0ECFBC833F4C8E4C9FA22600D08C60F
:10177300A2E713C618C613C6D5E0F322600C08C649
:10178300C313C618C613C6D5E0F422700422600D35
:1017930018C6C333C608C633C6D5E0F418222518C5
:1017A30010AF08F518400C15198008F518400215FC
:1017B30019D2AF2200C0D0251810AF08F518500C6D
:1017C30005198008F51850020519D2AFD0D022258B
:1017D30018F58210AF08F518400C15198008F51894
:1017E30040021519D2AF851983222518F582E435F5
:1017F30019F583222518F8E43519F9222518FAE496
:101803003519FB222518FCE43519FD22E47325184C
:10181300C582C0E0E51934FFC583C0E0E518C39570
:101823008224F810AF088583198582188008858380
:1018330019858218D2AFCEF0A3E520F0A37808E68D
:1018430008F0A3DEFAEFF0A3E58124FAF8E608F046
:10185300A3E608F0A3E608F0A30808E608F0A3E669
:1018630008F0A315811581D0E0FED0E0F8158115AD
:10187300811581E8C0E0EEC0E0222518C582C0E0F2
:10188300E51934FFC583C0E0E518C3958224F91038
:10189300AF08858319858218800885831985821886
:1018A300D2AFCEF0A3E520F0A37808E608F0A3DEDC
:1018B300FAEFF0A3E58124FBF8E608F0A3E608F0CD
:1018C300A30808E608F0A3E608F0A315811581D064
:1018D300E0FED0E0F815811581E8C0E0EEC0E0221B
:1018E300851983851882E0A3FEE0A3F5207808E03C
:1018F300A3F608DFFAE0A3FFE0A3C0E0E0A3C0E0A3
:10190300E0A3C0E0E0A3C0E0E0A3C0E010AF08851F
:1019130082188583198008858218858319D2AFD0F0
:1019230083D082020132851983851882E0A3FEE009
:10193300A3F5207808E0A3F608DFFAE0A3FFE0A30D
:10194300C0E0E0A3C0E0E0A3C0E0E0A3C0E010AFCC
:10195300088582188583198008858218858319D2A2
:10196300AFD083D08222C0D02518C582C0E0E5194C
:1019730034FFC583C0E0E518C3958224F310AF0894
:101983008583198582188008858319858218D2AFCB
:10199300C8F0A3E9F0A3EAF0A3EBF0A37908E70901
:1019A300F0A3D8FAECF0A3EDF0A3EEF0A3EFF0A3CD
:1019B300D0E0F0A3D0E0F0A3D0E0F0A3E520F0A3C3
:1019C300E5F0F0A322851983851882E0C0E0A3E047
:1019D300F9A3E0FAA3E0FBA37808E0F608A3DFFA93
:1019E300E0FCA3E0FDA3E0FEA3E0FFA3E0C0E0A3CF
:1019F300E0C0E0A3E0F5D0A3E0F520A3E0A3F5F079
:101A030010AF08858319858218800885831985821C
:101A130018D2AFD082D083D0E0F8D0E03274048003
:101A230006740280027401C0E0F4041217D2D0E0FD
:101A33001216A7227404800474028000CCC0E0ED67
:101A4300C0E0E518C39CCCAD1950011D10AF068C46
:101A5300188D1980068C188D19D2AF1216B4D0E0E8
:101A6300FDD0E0FC22D083D082E9C0E0E493A3C39D
:101A730086F0C5F095F0F908E493A386F0C5F095D8
:101A8300F0700BE493A3C3994005E9048002A3E437
:101A930075F002A42582F582E5F03583F583D0E065
:101AA300F9E493A3C0E0E493C0E022D083D082ECB6
:101AB300C0E0EDC0E0E493A3FCE493A3FDED4C6030
:101AC3000D121AFAEC24FFFCED34FFFD80EFE493D2
:101AD300A3FCE493A3FDED4C600D121B39EC24FF32
:101AE300FCED34FFFD80EFD0E0FDD0E0FCE493A3F8
:101AF300C0E0E493C0E022C0E0C3E493960874011D
:101B0300939618400FE4936670080874019366185F
:101B130070007019A3A3C3E49396087401939618F5
:101B2300A3A3400DD0E0D0E0D0E0021AEAA3A3A320
:101B3300A3A3A3D0E022C0E0C0F088F0E4936670D2
:101B4300080874019366187000A8F0A3A3700BD063
:101B5300F0D0E0D0E0D0E0021AEAA3A3D0F0D0E0C6
:101B63002274F612187DEAFEEBFF8C088D09EA2435
:101B730034F8E43FF9E8FCE9FDEA2435121EC4FA1F
:101B8300EE2437121EC4F88508F0A4C885F00A8530
:101B930009F0A4250AF9EA28F8E439F97A257B0043
:101BA300121716EA8C828D83F0FA131313541F1243
:101BB3001EB8245DF582E439F583E0C0E074075A6A
:101BC300F8D0E0B800028004C313D8FCA2E0EE50C2
:101BD300082434F582E43F80142436121EC4F5F041
:101BE300EA84A8F0121EB92438F582E439F583E0BB
:101BF300F97F0302192974F712187DEAFEEBFFEA55
:101C03002434121EC4C0E0EA2435F582E43FF58390
:101C1300D0E0F08A828B83A3A3A3A3A3A3A3C08250
:101C2300C0838A828B83A3A3A3A3A3E0F8A3E0F9D1
:101C3300D083D082E0C398F508A3E099F509EA249C
:101C430080121EC46401703EEA2481F582E43FF5EC
:101C530083C082C0838A828B83A3A3A3A3A3E0242C
:101C63000108A3E03400F9D083D082E0687003A3B5
:101C7300E06970127CCF7D06120B2BEE2480F58277
:101C8300E43FF583E4F0AC08AD09EEFAEFFB121B79
:101C930064E9F91227567F0202192974EF12187D9D
:101CA300900369E064086005E06407702A9061C8E6
:101CB300E06024900397E0F4601DE0F875F012A44F
:101CC300C8AAF02AF9749928FE740339FF8E82F5A5
:101CD30083A3A3A3E07003021DB7906060E0C0E09C
:101CE300EE2468F582E43FF583D0E0F0750C0C75C3
:101CF3000D07750800750900E5D914F50AE5D954EF
:101D030003F50E602F7403650E601DE50A6008EE8F
:101D13002467121EC4601D900707E06401602C1243
:101D23001EC1601278048010121EC1602CE50AC324
:101D33009405502580637800E50AC398FA95E0FB83
:101D43001209DB8A088B09EA4B7005120DCB8064FC
:101D5300121EC170048A0C8B0DE50A6012850C8279
:101D6300850D83F50BE5D9F0A3150BE50B70F61282
:101D73001EC1604574FC250AF50A780C121A24ACBE
:101D83000AA90EEEFAEFFB120BF774021217B7E96A
:101D93007027AA08AB091212C9793D8E828F83A3DB
:101DA300A3A3A3E0FA7B0012085BEEFAEFFB120B8E
:101DB30055120C577900021EB37403650E6053E588
:101DC3000AF5107511007810121A24AC0CAD0DAA87
:101DD30008AB09120BBB74021217B7EE2468121E6C
:101DE300C464807004747F8001E0F50C780C121ACF
:101DF30028E50EF50C780C121A28A90AAC08AD09CF
:101E0300900397E0FA7B0012082B74021217B702B3
:101E13001EAE850C82850D83E0C3940E5011E0F84D
:101E2300744728F582E43481F583E0650A606985A7
:101E33000C82850D83E0C0E0EE24F9F582E43FF5E2
:101E430083D0E0F0A2AFE433FCC2AF7A0080010A92
:101E5300EE246E121EC4F8EAC3985013EA121EB899
:101E6300246AF582E439F583E0640770E28022EEA8
:101E7300246EF8E43FF9E0FAEE2AFAE43FFBEA24A1
:101E83006AF582E43BF5837407F088828983E00472
:101E9300F0ECA2E092AF8013900369E06408700B4A
:101EA300AC0CAD0DEEFAEFFB120C27120DD7790136
:101EB3007F0A021929F8EE28F8E43FF9E822EE2414
:101EC30084F582E43FF583E02274F112187D74FCFB
:101ED3001217A1EAFEEBFF8909750D00A2AFE433E7
:101EE300F508C2AF9006D7E0FA9061D0E0F87480AD
:101EF30098F895E0F9C3EA98E499A2D265D0334003
:101F030003021FB6750D01021FB6E0601B780A12AB
:101F13001A24AC0EA90FEEFAEFFB120BF1740212A6
:101F230017B77404250EF50E7401250EF5D9850F28
:101F3300D9E50E6012850A82850B83F50CE0F5D98D
:101F4300A3150CE50C70F675E195EE2463F8E43FF8
:101F5300F97A007B00A2AFE433F50AC2AF88828925
:101F630083E0FCA3E0FDEC4D603A88828983E0FACC
:101F7300A3E0FB8C82F583E0FCA3E0FD88828983E8
:101F8300ECF0A3EDF08A828B83E4F0A3F0888289DE
:101F930083E0FCA3E0FDEC4D700A88828983A3A350
:101FA300E4F0A3F0E50AA2E092AF1212C99006D6BC
:101FB300E004F0EE2463121EC4F8A3E0F9E84960DC
:101FC30063EE2463121EC42402F8A3E03400888263
:101FD300F583E5822402F50AE43583F50BE0F50E7B
:101FE300A3E0F50FEE2462121EC464017036906103
:101FF300D0E0F8121EC160047C0480027C0074806F
:10200300C398FA95E0FBE50E2CF8E43400F9E824D4
:1020130002F8500109C3EA98EB99A2D265D0334084
:1020230003021F0D9061D0E0F87480C3989006D727
:10203300F0E50D60539006D6E0604D9006D8E0F8C9
:102043009006D6E0C398500C74026509703A900666
:10205300D9E060348E828F83A3A3A3A3E085188283
:1020630085198312209B74021217EDE812209B90AE
:1020730006D5E028F07402121807AA18AB197901E3
:102083001208859006D6E4F0E508A2E092AF740446
:102093001217B77F08021929F0A3E4F09006D6E0DF
:1020A300F822000000851B87851CC622C0E074EB64
:1020B300121969A2AFE433F508C2AF759B009061B2
:1020C30082E0A2E0502DE591A2E050277591FE74C5
:1020D30001651B701E12222612223D121A37122688
:1020E3009274041217B7E9640170057901120D2F78
:1020F300121C9E906182E0A2E5505AE591A2E55040
:10210300547591DF900369E064076005E06408702B
:102113002C1222267401651B703B12223D121A37C2
:1021230012269274041217B7E9640170057901123B
:102133000D2F7901EEFAEFFB121ECC8018E0640D2F
:10214300701390038BE004F064287002E4F07A00CB
:10215300E0F9120DDD906182E0A2E640030221FB6B
:10216300E591A2E640030221FB7591BF900369E06C
:1021730064057008120CDB120CE78003120CE17586
:102183001B00120D4DE990036AF07900120D2F1216
:102193000A957A017B00900368E0F912129990780E
:1021A30003E06442705290070BE014F0704AC2AF30
:1021B3001221B600781ED0E0F618D0E0F6E59F5461
:1021C3000770047BFF80027B7FC4C0E0781DE6F5C7
:1021D3000A08E65BF50B740B780A12177FD0E0252B
:1021E3000AF8906270E0A2E740F8E8C333906272A5
:1021F300F0906270E0D2E0F0906181E0A2E35009D8
:10220300E5E9A2E3500375E9F7A3E0A2E75009E586
:1022130091A2E7500375917FE508A2E092AF7F0892
:102223000219C8900397E0F875F012A4C8AAF02A1F
:10223300F9749928FE740339FF22120CF38E828FEE
:1022430083E0F8A3E0C82416F582E438F58322C0BE
:10225300E0C0D0C082C083906183E0A2E05009E572
:10226300BFA2E0500375BFFEE0A2E15009E5BFA2A3
:10227300E1500375BFFDE0A2E25009E5BFA2E250C1
:102283000375BFFBE0A2E35009E5BFA2E35003756A
:10229300BFF7E0A2E45009E5BFA2E4500375BFEF26
:1022A300E0A2E55009E5BFA2E5500375BFDFE0A258
:1022B300E65009E5BFA2E6500375BFBFD083D082C5
:1022C300D0D0D0E032C0E074F2121969E5A7A2E6DB
:1022D300500FE5A1A2E6500953A7BF75A1BF122372
:1022E3001CE5A7A2E5500CE5A1A2E5500653A7DF24
:1022F30075A1DFE5A7A2E15009E5A1A2E1500375AD
:10230300A1FDE5A7A2E2500CE5A1A2E2500653A766
:10231300FB75A1FB7F010219C874F712187D751BA9
:1023230001900369E064067015120C7B8A828B832B
:10233300A3A3A3A3A3A3E0FAA3E0FB120CC9A2AF38
:10234300E433FED2AF90036FE0640170187A207B10
:1023530000900368E0F91213B97A207B00900368B8
:10236300E0F912129F906182E0D2E6F0900708E054
:10237300602185C61C801690036EE064017008E539
:10238300C654F84405F5C653BEFC1220A874016573
:102393001B60E4EEA2E092AF7F0202192974E912F6
:1023A300187D74FA1217A1EAFEEBFF8C0A8D0B124B
:1023B3000CFFEAF8EBF9ECFAEDFB8E828F83121631
:1023C3009B900369E024F7C394055006751401023A
:1023D3002506120C7B8A088B09EA4B70030225033E
:1023E300EEFCEFFDAA18AB19120CF98508828509DA
:1023F30083A3A3780C121659908266780C121620C8
:102403008518828519837810121659908266781080
:10241300121620780C7910121446501F780C79107C
:102423001215E590829A780C121466405D850C149F
:10243300850D15850E16850F17803790829A8510A6
:10244300148511158512168513177814790C121536
:10245300E57814121466503275140075150075165C
:1024630000751701781479101215E57814790C1298
:1024730015AC7409781412158D90827A780C1216A3
:10248300597814790C121505800C75141475150000
:10249300751600751700850882850983A3A3A3A376
:1024A300A3A3122524121716880C890DE4F50EF543
:1024B3000F7814790C1215AC74041217ED1225243D
:1024C300121716E8FAF50CE4F50D7814790C1214CA
:1024D3004650077814790C1215E5900369E06408F7
:1024E300600AE064066005E0640570209082C278AB
:1024F30014121466501690827278141215BF800C51
:10250300751400751500751600751700850A828508
:102513000B83781412166874061217B77F1002190A
:1025230029E0F8A3E0F97AD07B032274F712187D2F
:10253300120D11900706E064017010906245E4F0FB
:10254300A3F053F4F343FE0C5390F3120CB7E5C618
:1025530054B84441F5C6E59E5447644170F8906110
:1025630085740FF0900704E0F47002A3E0604E90CE
:102573000705E0600814601B14602E804075080195
:10258300750900900704E0780812178EE508F452E5
:1025930080802A750801750900900704E078081205
:1025A300178EE508F45290801475080175090090A0
:1025B3000704E0780812178EE508F452A079007F2B
:1025C3000202192974F712187DE9FEEAFF120D11B0
:1025D30074016E700C7A807B00900368E0F912122C
:1025E300999027D0E493F46008E493F9120A898060
:1025F3000953C6B8E59E544770FA120CBD900706FE
:10260300E064017003120AA7900704E0F47002A3C8
:10261300E0604B900705E0600814601A14602C809A
:102623003D750801750900900704E0780812178EBC
:10263300E50842808028750801750900900704E0C9
:10264300780812178EE50842908013750801750902
:1026530000900704E0780812178EE50842A0120CD8
:102663007B8B09A909EA496014E5E170FCEA2414AB
:10267300F582E439F583E0F46003E0F5E174016F7A
:10268300700A7A01900368E0F91213290225C274D3
:10269300F112187D8A088B098C0A8D0B908266785B
:1026A30008121620740F1217ED780C121659908227
:1026B30066780C1216207808790C12144690829AC8
:1026C30050107808790C1215E57808121466401436
:1026D300800E780C79081215E5780C1214665004F4
:1026E3007901800279007F0802192974ED12187D9F
:1026F3008A088B098C0A8D0B908266780812162043
:1027030074131217ED780C121659908266780C1216
:102713001620780C790812144640117808790C12A7
:1027230015E5AA08AB09AC0AAD0B8022751000753C
:1027330011007512007513017810790C1215E578E4
:102743001079081215ACAA10AB11AC12AD137F0CA3
:10275300021929C082C083E9906000F0D083D0823F
:1027630022C0E074F2121969A2AFE433FED2AFE5DE
:1027730089A2E15003121179758900C2C5751A0047
:10278300EEA2E092AF7F010219C8C0E074F2121901
:1027930069A2AFE433FED2AFE58BA2E0500312117E
:1027A30079758B00C2E880D5C0E0C0D0E8C0E0A84E
:1027B300A8D2AFC2C7751A00E8A2E792AFD0E0F87B
:0B27C300D0D0D0E032C2AF02000022F4
:1027D000FFFFFFFFFFFFFFFFC082C083E9901B3CAC
:1027E000F0D083D08202013274F6121811E99002FF
:1027F000DCF090033BE0F5087509007402780812DC
:10280000178EAA08AB091213119002DD122CBC60BE
:102810006E90033BE075F003A4FAABF01213119035
:1028200002FA122CBC700B9002DD12350012131745
:10283000804D9002FA1244697AFF7BFF1210F57AFC
:1028400000801EEAF5087509007402780812178ED8
:10285000123F0574FFF0A312447DA3A3E4F0A3F09C
:102860000A90033BE0F8EAC39840D87905120723A1
:102870009002DCE0F912060F7AAD7B0712097B02A9
:102880003FA174F41218118A088B09EB5480604739
:102890009002DCE0F91212818A0A8B0BAE0AAF0BB0
:1028A000EA4F602A8A828B83E064B0701A1207357F
:1028B000E960148E828F83A3A3A3A3E0F9EE24051D
:1028C000FAE43FFB120705EEFAEFFB12126FAA08BB
:1028D000E5096480FB80047A007B00022AEA74F236
:1028E00012181174FB1217A1EAFEEBFFEA4F6043C6
:1028F00074031217ED123169851882851983ECF083
:10290000A3EDF074021217EDE9F0AA18AB19120644
:1029100009E9F508707774131217EDE0F50AA3E0E2
:10292000F50BE50A450B60658E828F83122EFDEE56
:102930004F700575080280557A067B001213118AC4
:102940000C8B0DA80CA90DEA497005750813803D84
:102950008A828B83E4F0122994A3EEF0A3EF12474E
:1029600042E50AF0A3E50BF09002E0122AAE9002D5
:10297000E06017E0FCA3E08003EAFCEBFD8C828DB5
:1029800083122AAE70F38C828D83123B25A90874C2
:10299000050246DBA3F08A828B83A32274F212180D
:1029A000118908E9F50C750D007403780C12178E67
:1029B000850C0A850D0B9002DFF09002DD12444E6B
:1029C000122AAC602F1213177900801EE9F50C75DE
:1029D0000D007402780C12178E9002DD123DBE8835
:1029E00082F583A3A3E4F0A3F00990033BE0F8E9A8
:1029F000C39840D890033BE0FA850AF0A4CAA8F037
:102A0000850BF0A428FB1213118A0C8B0DAE0CAFB2
:102A10000DEA4F7003022AA290033BE0FC850AF006
:102A2000A4CCA8F0850BF0A428FD79001212577CE5
:102A3000008032EDF50C750D007403780C12178EC2
:102A40008A828B83122AA78882F583E4F0122AB443
:102A5000A3A3F0A3F00DEDC3950840D7EE250AFE21
:102A6000EF350BFF0C90033BE0F8ECC3985029ECDA
:102A7000F50C750D007402780C12178E9002DD12A1
:102A80002AA7E82402500109FAE9FB8A82F583EEBD
:102A9000F0A3EFF07D0080BEE5089002DFF0790042
:102AA000800279130246DE123DC2F922A3A312313D
:102AB00081EA4B22A3F088828983A3A3A3A3227473
:102AC000F41218117900EAA2E0501F75085C75092C
:102AD000827808121A2479107C047D007A3E7B1BD0
:102AE00012071D74021217B7E9F97F040218E3C038
:102AF00082C0839002E0123EC4601C88828983A356
:102B0000A3E06A7003A3E06B8882898370E8A3A3C3
:102B1000A3A312350080047A007B000227E174F23F
:102B200012181174FD1217A1EAFEEBFF85188285B9
:102B30001983E4F0A3F074021217ED7401F090020F
:102B4000E3123EC470111208CD1213119002E31269
:102B50002CBC7003022CB0123256EE2404F50AE4A9
:102B60003FF50B850A82F583E024FE603C24FC607F
:102B70007424FE607E24FE7003022C0024FE700389
:102B8000022C0D24FE7003022C1A24FE7003022C6A
:102B90002724FE7003022C3424FC7003022C5524DD
:102BA000FE7003022C6D022CA91208CD9002E5EAFA
:102BB000F0A3EB122CC512026DE96003022CA99060
:102BC00002E5121A3B8E828F83A3A3A3A3A3124410
:102BD000698508828509831235001206ED74021298
:102BE00017B7022CA9AC18AD19EEFAEFFB12073B90
:102BF000022C78AC18AD19EEFAEFFB120741807881
:102C0000AC18AD19EEFAEFFB120747806BAC18ADAC
:102C100019EEFAEFFB12074D805EAC18AD19EEFA13
:102C2000EFFB1207538051AC18AD19EEFAEFFB120F
:102C30000759804474021217F7880C890D780C121A
:102C40001A247402121807EEFAEFFB12075F7402DF
:102C50001217B78023AC18AD19EEFAEFFB12076517
:102C6000E9F8701674021217EDE4F0803CAC18AD70
:102C700019EEFAEFFB12076BE9F8E8602C8E828FF1
:102C800083A3E064146022850A82850B83E09002AE
:102C9000E5F08518828519831235009002E612311D
:102CA00069E8A3122CC5120267EEFAEFFB1206C305
:102CB00074021217EDE0F974030246DBEAF0A3EBAD
:102CC000F0F9EA4922F07CE57D02850882850983D6
:102CD0001231812274E812181174FA1217A17404C7
:102CE0001217EDECF0A3EDF08A128B13EA2405F530
:102CF0000EE43513F50FEA2402F510E43513F5114F
:102D00008510821237A77508007C037D0079007A50
:102D1000E57B02121257E50E2402F516E4350FF595
:102D20001774021217F7880C890D780C121A248573
:102D30000E82850F83A3A3A3A3E0F50C750D007885
:102D40000C121A24E50E2405F50CE4350FF50D7868
:102D50000C121A248516828517831237EF1217B7C3
:102D60008A0C8B0DE50C450D7003022ECC8020855E
:102D70001882851983E088828983F0050885188286
:102D8000851983A3E0C0E0122F07D0E0F00508E525
:102D90000A24FBF8E50B34FFF9C3E50898E49940F1
:102DA00003022ECC7E007F00851282851383A3A3AD
:102DB000A3A3E0F5097809121A28E4F514F51578AB
:102DC00014121A247514E27515027814121A24903C
:102DD00002E3121A3B74091217ED121A3BE50A249A
:102DE000F9F9AC0CAD0D1238011217B7E960030206
:102DF0002E73850E82850F83A3A3A3A3A3A3A3E0B1
:102E0000F89002E2E068706BE0F5148E1578141209
:102E10001A24124466850E82850F83A3A3A3A3A35D
:102E2000A3A3A312350012125174021217B7E9605E
:102E300042123EC17034E4F5147814121A247CFF57
:102E40007DFF79071238101217B78B15A915122FAD
:102E50001C7017850E82850F831245F574041217B6
:102E6000ED123EAE123822022EFA850C82850D83B9
:102E7000122EFDA818A919881489157814121A247D
:102E800074041217ED121A3B8516828517831237C8
:102E9000D11217B78A0C8B0DEE4F7003022D6412FE
:102EA0002F07EE122F121237B8EF122F12F8A3E0ED
:102EB0003400F9E50C4B6003022D6F88828983741E
:102EC000FFF00508122F0774FFF00508E5086014ED
:102ED0001313543F12316F120279E96003123DD58A
:102EE00079008016850E82850F831245F5740412D1
:102EF00017ED123EAE123B25790A023788A3A3A331
:102F0000A3E0FEA3E0FF22A8089002E6E028123723
:102F1000B822F00508089002E6E028229002E6EACE
:102F2000F0A3EBF0EA492274E812181174FA1217B0
:102F3000A174021217ED12316974041217EDECF04E
:102F4000A3EDF074021217EDE02405123792F58319
:102F5000E0F50CA3E0F50D74021217EDE02402F584
:102F600010A3E03400F511851082123504750800B5
:102F7000750900EA24FCFEEB34FFFF8008050CE530
:102F80000C7002050DA808C3EE98EF9400500302E0
:102F9000311AA818A919880E890F780E121A2485DB
:102FA0001482851583A3A3A3A3124445121A24E512
:102FB000142405F50EE43515F50F780E121A248544
:102FC0001482851583A3A3124469AA0CAB0D1206C3
:102FD0002774061217B78A0E8B0FEA4B7003023163
:102FE0001AEA2404F516E4350FF517851682F583E1
:102FF000E0F50CA3E0F50D851882851983121A3BC4
:10300000AC0EAD0F85108285118312379E1217B753
:10301000E9F509600302311A74021217ED1237C87C
:10302000F5097809121A28E4F512F5137812121A24
:10303000247512E27513027812121A249002E31218
:103040001A3B74071217ED121A3BEEF9AC0EAD0FD6
:103050001238011217B7E9F509600302311AE508C1
:10306000703BE4F50EF50F780E121A247CFF7DFFFD
:1030700079091238101217B78B0FA90F9002E712B7
:103080002F1F700D74041217ED12315C791102318B
:103090004B9002E2E024029002E6F080149002E6F7
:1030A000E0FA9002E2E0790024025001096A4970D6
:1030B0006DA8089002E2E0FAE82AFAE43400FBEE98
:1030C0009AEF9B4055851682851783E0C0E09002F9
:1030D000E7122F0CD0E0F00508851682851783A330
:1030E000E0C0E0089002E7122F0CD0E0F005089055
:1030F00002E2124445121A24124466A80812314E04
:103100001217B79002E2E02508F50874FF650C700D
:103110000474FF650D6003022F7DE508601C9002BA
:10312000E6E0F5F0E5088412316F12027FE96006EF
:103130009002E7123DD879008011E5097003750906
:103140000A74041217ED12315CA909023788900243
:10315000E7E028FAA3E0340012442322124452E5A7
:103160000CF0A3E50DF022A3A3EAF0A3EBF022906C
:1031700002E5F07CE57D02851082851183123181A4
:1031800022123B15FB2274EC12181174FC1217A1C9
:10319000123C357402121807850A82850B8312339C
:1031A000557003023246123256A818A919881089A0
:1031B000117810121A247CFF7DFF790B8508828517
:1031C00009831238161217B7123260700B850A8203
:1031D000850B8312381F807B8E828F83A3A3A3A3CA
:1031E000E0F5127812121A28E4F512F5137812128B
:1031F0001A247512E57513027812121A2478101227
:103200001A2474091217ED121A3B74091217ED12E1
:10321000334E8508828509831238071217B7E9FEF5
:1032200070157CE57D0285088285098312350012C0
:103230000285E97009801A74166E70027E00123DD4
:10324000D5EE7004800B7E01850A82850B83123BCC
:1032500022EEF9023B37EE2402F508E43FF509229D
:103260008A108B119002E6EAF0A3EBF0EA4B22748D
:10327000EC12181174FC1217A1EAFEEBFF8C0E8DF4
:103280000FEA2405F508E43FF509740212180785D2
:103290000882850983123355700302333EEE2402FF
:1032A000F50AE43FF50BA818A919881089117810C0
:1032B000121A247CFF7DFF790D850A82850B83120B
:1032C00038161217B7123260700B85088285098391
:1032D00012381F80768E828F83A3A3A3A3E0F512FA
:1032E0007812121A28850882850983A3A3121A3B33
:1032F0007512E57513027812121A247810121A2426
:1033000074091217ED121A3B74091217ED12334E9D
:10331000850A82850B831238071217B7E9FE700FF2
:103320007CE57D021234FA12028BE97009801A746E
:10333000166E70027E00123DD5EE7004800B7E0189
:10334000850882850983123B22EEF9023B37E0F9BA
:10335000AC0CAD0D22123B0D8A0C8B0DEA4B227486
:10336000E812181174FE1217A18A168B178C148D8F
:1033700015EA2405F50CE43517F50DEA2402F50EDF
:10338000E43517F50F850E821235048A088B09750E
:103390000B007C037D0079007AE57B0212125775E1
:1033A0000A00E50814F5100424FFF508E50934FFC8
:1033B000F509804C9002E5E0FA9002E2E0F8EA2894
:1033C000F8E43400F9E50898E50999500D9002E514
:1033D000E0F8E510C3989002E2F0E0F512751300F2
:1033E0007812121A241244669002E6E02A1231532F
:1033F0001217B79002E2E0F89002E5E028F0050A23
:10340000850C82850D83A3A3123DCE40030234DFD9
:103410009002E5E0C39508E4950940030234DFAE6D
:103420000AEE2EFEE433FF123521AC18AD1912441A
:1034300073E439FB12062D8A128B13AC12AD13EA1A
:103440004D701B750B01123512123B269002E612CD
:103450002AAE60031212C9A90B740202378A8516BC
:1034600082851783A3A3A3A3E0F50B780B121A2878
:10347000E4F512F5137812121A247512E27513028C
:103480007812121A249002E3121A3B74071217EDF5
:10349000121A3BA910850E82850F83123807121766
:1034A000B7E9F50B70A0123EC160030233B4E4F536
:1034B00012F5137812121A247CFF7DFF790F850E06
:1034C00082850F831238161217B78B13A913122F88
:1034D0001C60030233B41235121238230234597CB3
:1034E000E57D02850E82850F83123500120291E977
:1034F000600302344C7900023459850A82850B83BB
:103500001231812212350822F583123B15FB12037A
:10351000B122123521123B15F9EA851482851583F3
:1035200022850C82850D83E02EF8A3E03F8882F58A
:10353000832274E812181174FA1217A17404121776
:10354000ED1231698C168D1774041217EDE0240505
:10355000F50EA3E03400F50F74041217EDE0240219
:103560001237921237A77F007E00A818A919880881
:1035700089097808121A24850E82850F83A3A3A3D4
:10358000A3E0F5088F097808121A24E50E2405F542
:1035900008E4350FF5097808121A24850E82850F84
:1035A00083A3A31237EF1217B78A0C8B0D80241256
:1035B00037C2F00F1237C2F00F9002E2123AF8123F
:1035C0001A24124466EFF812314E1217B79002E235
:1035D000E02FFFE50C450D607A851882851983126E
:1035E0001A3BAC0CAD0D85148285158312379E12E3
:1035F00017B7E9FEE50C2404F510E4350DF511E9E3
:10360000704B74041217ED1237C8F5087808121AB7
:1036100028E4F508F5097808121A247508E27509F6
:10362000027808121A249002E3121A3B7407121748
:10363000ED121A3BE50A24FAF9AC0CAD0D851482A3
:103640008515831238071217B7E9FE60361237DE88
:10365000123B25EF70030237759002E6E0F5F0EFBC
:10366000849002E5F07CE57D028514828515831245
:103670003500120297E960069002E7123DD8790002
:10368000023788EFF508703DE4F512F51378121251
:103690001A247CFF7DFF79118514828515831238E9
:1036A000161217B78B13A9139002E7122F1F700978
:1036B0001237DE1238220237889002E2E0240490AA
:1036C00002E6F080359002E2E0F89002E6E0FCE8E5
:1036D0002404FAE43400FBEA6C4B6003023659E53B
:1036E0000A24FAFAE50B34FFFBE50828F8E4340075
:1036F000F9EA98EB995003023659851082851183B7
:10370000E0C0E09002E7E02FF8A3E034008882F503
:1037100083D0E0F00F851082851183A3E0C0E01212
:1037200037AFD0E0F00F74021217F78808890978D4
:1037300008121A2474021217ED121A3B850E8285A4
:103740000F83A3A31237D11217B78A0C8B0DEA4B44
:1037500070030235AF74021217EDE0C0E01237AF0C
:10376000D0E0F00F74021217EDA3E0C0E01237AF03
:10377000D0E00235B7EE70027E0A850E82850F8397
:103780001237E4123B25EEF974061217B77F1002C8
:1037900018E3F514A3E03400F515851482221231E4
:1037A000811206157402221235088A0A8B0B221226
:1037B00037B3229002E7E02FFAA3E034008A82F5C3
:1037C00083221237B374FF22124452A3A3A3A3E0AF
:1037D0002212446DAA0CAB0D12063374042285101C
:1037E000828511831245FBF9851682851783221283
:1037F000446D850E82850F8312318112062774066F
:103800002285108285118312318112079574092255
:103810008510828511831231811206FF74022212F3
:103820003B2BE8F0A3E9F079112274EA1218117425
:10383000FE1217A18A088B098C128D13EA2405FE4B
:10384000E43509FF123B018A0C8B0DEE2406F50EC0
:10385000E43FF50FEA4B7003023910E5082402F546
:103860000AE43509F50B8A828B83A3A3A3E0A2E5C2
:10387000502212393A8A108B11EA4B60247912AC2B
:103880000CAD0D1234FA85108285118312180FE9E0
:10389000F50C707F850E82850F83E0600979528078
:1038A00011750C0E806D850882850983A3A3A3A3DF
:1038B000E0F9E4F508F5097808121A248E828F835E
:1038C000A3A3E0F5087808121A248E828F83A3A39D
:1038D000A3121A3B8E828F83124469850A82850B5C
:1038E00083123C471217B7E9F50C7011850E8285DB
:1038F0000F83E0702C1234FA12029D802474166932
:103900007011750C0074181217ED12444EE48010FB
:10391000750C011245F1851282851383E8F0A3E945
:10392000F0850E82850F83E0600479008002A90C87
:1039300074021217B77F0E0218E385188285198367
:103940001231811207892274EC12181174F71217C0
:10395000A18A0A8B0B8C108D11EA2405FEE4350B2D
:10396000FF750C00123B018A088B09EA4B700302B9
:103970003AE3E50A2402F50A5002050B8A828B839A
:10398000A3A3A3E0A2E5502512393A8A0C8B0DEAD5
:103990004B604F7912AC08AD091234FA850C828560
:1039A0000D8312180FE9F50C6003023AE6850A82CE
:1039B000850B83E0F508A3E0F509AA08FB12077D53
:1039C000EA4B70197AFF7BFF12077DEA4B70030206
:1039D0003AD98A828B83E508F0A3E509F0750800DF
:1039E0008008750C0E023AE605089002DFE0F8E563
:1039F00008C3984003023AD9E508F50E750F007424
:103A000003780E12178E8A828B83A3A3E0250EF80B
:103A1000A3E0350F123EB670CF8E828F83123B1A11
:103A20001231698E828F83A3A3123B1A123167EE83
:103A30002404F508E43FF509850882F583E08882CF
:103A40008983A3A3A3A3F0A3E4F0EE2405F50EE479
:103A50003FF50F850E82F583123B1AA3A3A3A31291
:103A600031677512077513007812121A24EEFCEFF5
:103A7000FD74041217FF1244241217B7E4F51278EC
:103A800012121A24850882850983E0FC7D007917CB
:103A9000850A82850B831238161217B7740712171E
:103AA000ED1232676038850882850983123AF81270
:103AB0001A24850E82850F8312446912442412173A
:103AC000B774021218071234FA1202A3E9602374C1
:103AD000071217ED123DD88019750C098008750C76
:103AE000118003750C011245F18510828511831236
:103AF0003B25A90C74098041E0F508750900780898
:103B000022AC18AD198E82F583123B0D22123B15A3
:103B1000FB12062D22E0FAA3E0221231818882896D
:103B20008322123B2BE8F0A3E9F022E0F8A3E0F9AE
:103B3000850E82850F832274041217B77F0C02183A
:103B4000E374EC121811123C35751000EA2402F5EA
:103B50000CE43FF50D850C82F58312350012077DCC
:103B60008A088B09EA4B7003023C19850A82850B8F
:103B700083E064016003023C0EAC08AD09AA0AAB05
:103B80000B120771E9606F850882850983122EFF89
:103B9000EE2406F50AE43FF50B8E828F83A3A31271
:103BA0001A3B8E828F83A3A3A3A3121A3B850A829A
:103BB000850B83121A3B79188E828F831244698594
:103BC0000C82850D83123C471217B7E9F87416680A
:103BD000700B850A82850B83E4F0A38014E96012E0
:103BE0008E828F83123500850E82850F83EAF0A3C3
:103BF000EBF089108018780E121A24AC08AD09EE8B
:103C0000FAEFFB12077774021217B7E9F510AA084A
:103C1000AB09120783E510700E850C82850D8312A7
:103C200035001202A9800974166510700375100022
:103C3000A910023B3CEAFEEBFF8C0E8D0FEA240537
:103C4000F50AE43FF50B2212318112079B7406221C
:103C500074EA1218117508007509007E007F00755E
:103C60000A00EC2402F510E43DF5118035EC6508FE
:103C70007003ED65096003023D0588828983A3A373
:103C8000E06A7003A3E06B707C88828983A3A3A39E
:103C9000A31245F5EE28FEEF39FFEA28FAEB39FBCF
:103CA000050A123DCB503BE50AF50C750D00740377
:103CB000780C12178E851082851183123DBE123E3C
:103CC000B6601FE508450970A48C088D09888289B3
:103CD00083122EFD88828983A3A3E02EFAA3E03FFE
:103CE00080BDE50AC394025003023DB97508007512
:103CF0000900EE4F600FEEFAEFFB1212C38A0E8B33
:103D00000FEA4B70057900023DBB750B00807FE523
:103D10000BF50C750D007403780C12178E8510824C
:103D2000851183E0250CF50CA3E0350DF50DE50CB0
:103D30002406F514E4350DF515851482123EB9609C
:103D40003AE50C2404F512E4350DF513851282F5DD
:103D500083121A3BE50E2508FAE50F12441D1217CF
:103D6000B7851282851383E02508F508A3E035099D
:103D7000F509851482851583123DD8E50B600D7C0D
:103D8000087D007900AA0CAB0D121257050BE50B4C
:103D9000C3950A5003023D0F851082851183124599
:103DA000F58882F583A3A3A3A3A3A3E50EF0A3E55F
:103DB0000F122AB5EEF0A3EFF07901023935123D6A
:103DC000C222E0250CF8A3E0350D229002DFE0F8D6
:103DD000E50AC398229002E61231811212C92274B8
:103DE000F01218118A0E8B0F8C0A8D0B750D007551
:103DF0000C00804A7916EE2406F508E43FF5098E9A
:103E0000828F83A3A3121A3B8E828F83A3A3A3A3C3
:103E1000121A3B850882850983121A3B850E82851A
:103E20000F83A3A3123C471217B7E9F50D74166967
:103E30007064850882850983E4F0A3F0050C900284
:103E4000DFE0F8E50CC398505EAA0C7B008A088B73
:103E5000097403780812178E850A82850B83A3A341
:103E6000123F10E8FEE9FF123EB7603BEA24010A68
:103E700050010B9002DFE06A7001EB6014888289C8
:103E800083A3A3A3A3A3A3A3A3123EC46003023DE1
:103E9000F47918023DF6E960A31245F17410121787
:103EA000ED123EAE123B25A90D7F080218E3123B2E
:103EB00015F5838A8222F98882F58312446DEC4DD0
:103EC000229002E61245FBF9E8492274F612181115
:103ED0007C0080010C90033BE0F8ECC398501FEC91
:103EE000F5087509007402780812178E123F05E074
:103EF0006A7003A3E06B70DCE8FAE9FB80047A00E7
:103F00007B00023FA19002DD123F108882F58322E0
:103F1000E02508F8A3E03509F92274F21218118A95
:103F2000088B09750A0080278E828F83A3A3A3A321
:103F3000122AAC60031212C97C087D007900EEFAE7
:103F4000EFFB1212578E828F83E4F0A3F0050A1262
:103F50003DCB5028E50AF50C750D007403780C1262
:103F6000178E850882850983A3A3E0250CFEA3E0B4
:103F7000350DFF8E82F583123EC470AC85088285B4
:103F8000098374FFF0A3F00246DE74F612181112D2
:103F9000459270067A007B008007A3A3A3A3123585
:103FA000007F020218E374F6121811E9FE8C828D6C
:103FB00083E06402703D124582F508A3E0F9A80889
:103FC0007402687003742969702975080275090004
:103FD0007808121A24740E1217ED121A3B740E127E
:103FE00017ED121A3BEEF91210FB74061217B7E91F
:103FF000F98002790180AA74E812181174FB121773
:10400000A1E9851882851983F08A168B17ECFEEDDD
:10401000FF7510008C82F583A3A3A3E0A2E4502ACD
:10402000741D1217ED1239408A828B83E582458315
:104030007003024413790AEEFCEFFDAA16AB1712C7
:10404000180FE9F5106003024416741F1217EDE013
:10405000F508A3E0F50974211217EDE0F50AA3E0D5
:10406000F50B74231217EDE0F50EA3E0F50F8E8229
:104070008F83E0640260030243BFA31245F5850805
:1040800082850983A3858212858313EE2406F50CAD
:10409000E43FF50D88828983124473F514E439F501
:1040A000157814121AAE010000280128CE4007002E
:1040B00002289A41032803410029BB420129E64214
:1040C000022984420329BB4204295C43BF43E50E15
:1040D000450F60030243BA850C82850D831245F5B6
:1040E000E8FAE98882F583E0850A82850B83124429
:1040F0007D12442A121A248A828983A3E0FCA3E059
:10410000024348E50E450F60030243BA850A8285E3
:104110000B837401F012445B850882850983F07C6F
:10412000007D008E828F83A3A3A3A3E02401FAA3C2
:10413000E03400FB12062DEA4B60458A828B83E057
:104140002402F8850A82850B83E028F0EA2404F82B
:10415000E43BF98882F583E085128285138312445B
:1041600083F08A828B8312442A121A248A828B83D8
:10417000A3124469E5082403FAE43509FB02434D20
:10418000850A82850B83E02404F07C047D0079009D
:10419000AA12AB13121257024416E50E450F600324
:1041A0000243BA12445BFEA3E0FF850A82850B83BB
:1041B0007404F0EE850882850983F0EF851282850C
:1041C0001383F074031218071245747003024265DA
:1041D0008A828B83A3A3122EFD74011217F7880E17
:1041E000890F780E121A2474051217ED121A3B7CEF
:1041F000FF7DFF12063374041217B7EA4B70338544
:104200000C82850D83124445121A24850C82850D7B
:1042100083A3121A3B7C027D007A107B8312039FDA
:1042200074041217B7E9700A74011217ED74FFF0E5
:10423000A3F08E828F83E064027034750C02750DDA
:1042400000780C121A248E828F83A3124469E50829
:104250002404FAE412441D1217B7850A82850B83E1
:10426000E02402800974011217EDEEF0A3EFF07460
:10427000011217ED12443BF074011217EDA3124422
:10428000330243B4E50E450F60030243BA850C8246
:10429000850D8312444E124469AA16AB1712110100
:1042A000850A82850B837402F0850882850983EA7A
:1042B000F0851282851383EB0243B7E50E450F604C
:1042C000030243BA12445BF8A3E0F9850A82850B26
:1042D000837402F0E8850882850983F0E9851282FB
:1042E0008513830243B7850C82850D831235001236
:1042F0001239EAF8C3950EE4950F405AEA650E4567
:104300000F700478008021851882851983E0FCE510
:104310000E2CFCE4350FFDC3EC9AED94005003E045
:104320008005E50EC8C398F8E8850A82850B83F0FE
:10433000F50A750B00780A121A24850C82850D8304
:10434000E0250EFCA3E0350FFDAA08AB09124424BA
:104350001217B7024416751007024416E50E450FF2
:104360007058850C82850D831245F5850A82850B70
:1043700083740712447D12443312447DA3E08512F6
:1043800082851383F0E82402FAE439FB8A82F583FC
:10439000124433A312299412443B122AB412443F0C
:1043A000F0E82405F8500109F582898312443FA3FF
:1043B000124483A3A3A3A3F0805C75100B805774F1
:1043C0001D1217ED12458B604A1245FB880CF50D46
:1043D000E8450D603E74251217EDE0F510781012D7
:1043E0001A28780E121A24780A121A247808121A37
:1043F0002474071217EDE0F9EEFCEFFDAA16AB17D7
:10440000850C82850D8312180F74071217B7E9F512
:1044100010800375100EA910740502378A35091231
:10442000442322FB12123F740222E0F50A750B00AE
:10443000780A22E08508828509832212448D22129F
:10444000448DA3A322E0F50E750F00780E221244CE
:104450005222E0F8A3E0F583888222850C82850D44
:1044600083124452E0229002E312446D22E0FCA346
:10447000E0FD22123B15F8E4C8F9EA2822F0888210
:10448000898322F088828983A312448D22E08508E3
:1044900082850983A3A32274EE12181174FE1217E9
:1044A000A18A088B09ECFEEDFF890AAC18AD191240
:1044B0004574700302456585188285198312458B02
:1044C0007003024560A31245FA880EF50FE8450F08
:1044D000700302456074141217EDE0F510A3E0F5C7
:1044E00011E50AF50B780B121A2874191217ED1240
:1044F0001A3B7810121A24741B1217ED12334EAAAD
:1045000008AB09850E82850F8312180F74051217E8
:10451000B7E9F50B705274FE650A604C850C828514
:104520000D83E064027041124582FAA3E0F9EAF8D3
:104530007402687003742969702E85108285118356
:10454000124473F50CE439F50D780C121A24EEFCC4
:10455000EFFDAA08AB091207B374021217B780085F
:10456000750B0E8003750B01A90B74021217B77F30
:104570000A0218E3EEFAEFFB12062D8A0C8B0DEA05
:104580004B221245FA8882F583E0221231811245CE
:10459000922212072F8A828B83E58245832274F64A
:1045A00012181174FE1217A1740C1217ED1245F5B2
:1045B000E8851882851983F074011217EDE9F0E49B
:1045C000F508F5097808121A247508027808121AF5
:1045D0002474041217F7880889097808121A2479B4
:1045E000FE12079B74061217B774021217B7023F28
:1045F000A18E828F831245FBF922A3E0F8A3E0226B
:1046000074F7121811EAFEEBFF89089002FA1244BF
:1046100069121101EA5402600BA908EEFAEFFB12CD
:104620000621800279017F010218E374F212181149
:1046300074FE1217A1EAFEEBFF74016960137402A5
:104640006960030246D97901120999E960030246BB
:10465000D9EEFAEFFB12077DEA4B6003120783A83D
:1046600018A919880889097808121A24750802758A
:1046700009007808121A2475080A75098378081247
:104680001A247CFF7DFF7A017B0012062774061234
:1046900017B7803B850882850983A3A3A3A3A3A39F
:1046A00012444E124469EEFAEFFB1210F5E4F50CD9
:1046B000F50D780C121A2474021217ED121A3B7CB5
:1046C000FF7DFFAA08AB0912063374041217B78ADC
:1046D000088B09E508450970BB74021217B77F06FD
:1046E0000218E374F41218118A088B09ECFEEDFF2E
:1046F000901B3CE0F460487A097B00121269EA4B97
:10470000603D8A828B8374B1F0A3E4124742122980
:1047100095A3E508F0A3E509124742A3EEF0A3EF45
:10472000F0740C1217ED1245F58A828B83A3A3A3B4
:10473000A3A3A3A3123B25901B3CE0F91212750220
:104740002AEAF08A828B83A3A3A3A322C082C08318
:104750009061907404F0A37448F0A37402F0906127
:10476000807440F09061BC7403F09061877419F01C
:10477000906265741BF0906249E0C3941390619C51
:1047800040107409F09060667401F090619F742885
:10479000800D740BF0906066E4F090619F742CF0D3
:1047A0001249347009C29190036D746780059003BB
:1047B0006D7461F09027D6E493906186F09027D0D5
:1047C000E493F46006E493F9120A897905120DBFA7
:1047D000024BB9C082C083E9540FF9906185E0694A
:1047E0006012E5C654B84441F5C6E59E544764419D
:1047F00070F8E9F053C6B8E59E544770FA024BB919
:10480000C082C083A8A853A87E906181E4F0A3F081
:10481000A3F0C2BA539AFEC289759B00C2C275E961
:104820000075910075BF0075A91175B9059061817A
:10483000F0A374C0F0A3E4F0D2BA439A0174805894
:1048400042A8024BB9C082C08374F81217A190032A
:104850006B126492700302491590036BE054406040
:10486000177908AA18AB19120B9DAA18AB191208D0
:104870001390036BE054BFF0E054806010790C7A21
:104880002C7B07120B9D90036BE0547FF0E0A2E0BD
:1048900050191249347009C29190036D74678005F4
:1048A00090036D746112491D54FEF0E054026019CA
:1048B0001249797009D29190036D7471800590034B
:1048C0006D746A12491D54FDF0E05404600990278C
:1048D000D412492654FBF0E0540860099027D51201
:1048E000492654F7F0E0541060099027D612492663
:1048F00054EFF0E05420600A12081F90036BE0545C
:10490000DFF0A3E05401600D120AA71208259003FE
:104910006CE054FEF074081217B7024BB9F012089D
:104920001990036BE022E493906186F012081F90C7
:10493000036BE02290619A124B6A900706E06401D3
:1049400022C082C083E960051460178029124934AF
:104950007009C29190036D7467801A90036D746141
:1049600080131249797009D29190036D747180059A
:1049700090036D746AF0024BB990619A124B5C908F
:104980000706E064012274EA12181174F41217A1E8
:10499000908282AC18AD1974041216B49027D49387
:1049A000F46003024AF2907808E0C39402500302D4
:1049B0004AD690822D740412180774081216B4A8EF
:1049C00018A9198814891574041217F78808890919
:1049D000AE08AF097510FF7511FF750EFF7C0075ED
:1049E0000C48750D78800F74086C607F74096C60DA
:1049F0007A740A6C6075850C82850D8378081216AE
:104A0000598E828F83A909E50AC9F51274187808AE
:104A1000121574E5124508F8125DDD850C82850DCE
:104A200083780812165940188E828F83741878087C
:104A3000121574E5124508F8E0C398F8A3E0801A4F
:104A400074187808121574E5124508FAE9FB8E828D
:104A50008F83125261EAC398F8EB99F9C3E8951075
:104A6000E995115006881089118C0E0CE50C240470
:104A7000F50C5002050DECC3941350030249E77482
:104A8000FF6510700474FF65116025E50EF508746C
:104A900002780812178E74482508F5827478350953
:104AA000F5837808121659851482851583E508F078
:104AB000EE2402FE50010F851482851583A38582A2
:104AC00014858315740C1217EDE5826E7003E5836F
:104AD0006F60030249D47508017509007808121A3D
:104AE0002474021218077AF57B0912114F7402120E
:104AF00017B7740C1217B77F0E0218E3C082C08379
:104B00009061AE7468F0A3746AF090624574FBF033
:104B1000A304F053F4FD43FE029007067401F090E5
:104B200061A0E0643A90619A7019124B6A74016452
:104B3000017009C29190036D7467801E90036D74BB
:104B4000618017124B5C740164017009D29190036B
:104B50006D7471800590036D746A801C743FF0A3BE
:104B6000745AF09061A0747FF0227433F0A37455EE
:104B7000F09061A0743AF022F0024BB97F04021861
:104B8000E3C082C0839006E4E0640170119006EAFD
:104B9000E064016019E07006A3E064016010900613
:104BA000FBE06401700C900701E064017004790C73
:104BB000800279008003124D14D083D0820201322A
:104BC000E0C4333354C0222414F582E438F5832240
:104BD000C082C0839006EE7425F09006EC7401F05C
:104BE000A3E4F07A01FB120D3B9006DA124F9624F3
:104BF0001AF582E438F58374CBF0A3740AF09006BA
:104C0000EBE0640170169006EAE070107901120D75
:104C10009B120D6B120D957900120DA7024BB97402
:104C2000F612181174FA1217A19006E3E0640170ED
:104C300008120AB39006E3E4F075E1F19006DA1287
:104C40004F962415F582E438F5837401F09006E55B
:104C5000E064017053908244AC18AD1974061216CA
:104C6000B475D90D9006DC124BC04403F5D975829A
:104C7000DD758306125159E58264E37004E58364AF
:104C80000670F1A818A91988828983125159A8823F
:104C9000A98374061217EDE582687003E5836970D5
:104CA000E675E195790180027900120D41901B6053
:104CB000124D1A7439F0A3740CF0A3124D1A124D50
:104CC0001A124E96743FF0A3740C124EAB9006DC91
:104CD000E0F97ADD7B06120D1D9006EE124D147977
:104CE00001120D4790826A121677120D5F90827E34
:104CF000121677120D297900120DB39006DA124FB1
:104D000096124BC77416F09003697405F0041217DD
:104D1000B7025383E0F9122756227433F0A3740CC0
:104D2000F0A32274F71218118908A808E9125F3756
:104D30009006F3E0F97AF47B06120D1D900701E06E
:104D400070257900120D7DEE240DF582EF3401F50A
:104D500083E07004790080027901EE2407FAEF34D1
:104D600001FB120D2380057901120D7D75E1F175AE
:104D7000D9239006F3124BC04405F5D97582F4751A
:104D80008306125159E58264FA7004E58364067063
:104D9000F175D90075D90075D90075D90075D9009C
:104DA00075D900EE2422F582E43FF583E5822404E0
:104DB000F8E43583F9124E857003E9658370F6EEE9
:104DC0002426F582E43FF583E5822403F8E4358365
:104DD000F9124E857003E9658370F6EE242B1251AB
:104DE000D7242C1251D7242D1251D7242E1251D74B
:104DF000242F1251D724301251D724311251D724E5
:104E0000321251D724331251D7245DF582E43FF595
:104E100083E5822405F8E43583F9124E857003E9B1
:104E2000658370F6EE2437126327541FF8EE242AA8
:104E3000126327C43354E048F5D975E195901B609F
:104E40007403F0A3740CF0A37409F0A3740C124E55
:104E50008D740FF0A3740C124EAB900700124D141A
:104E600090826A121677120D5F90827E1216771268
:104E70000D2990600DE4F07901120DB3900369746F
:104E800006F00256E7E0F5D9A3E8658222F0A31206
:104E90004E96124E9622124E9A2274FDF0A3740B77
:104EA000F0A374FDF0A3740BF0A322124EAF22F016
:104EB000901B6E124EBBA3124EBB22124E9A74FD73
:104EC000F0A3740BF02274EC1218119006F1125F2B
:104ED0004D7810121659900702E0FAF875F012A4F6
:104EE000C8ACF02C1260B1FFEE2EFEEF33FF8E0C3B
:104EF000F50D750E00750F008510088511098512D6
:104F00000A85130B9082D678081215BF7808121AFA
:104F10002085100885110985120A85130B780879F8
:104F20000C1215AC7810790C121505E4F50EF50F7E
:104F30007808790C1215E58A0C750D007403780C4D
:104F400012178E7808790C1215AC908266780812C8
:104F50001620AA08AB09AC0AAD0B1226EE74041297
:104F600017B78A088B09A808A909C3EE98EF9950CA
:104F700006EA2EF8EB3FF9E890600EF0E9A3F0EEB8
:104F8000A3F0EFA3F090600D74C1F07F0C0218E362
:104F9000851882851983125E3822C082C0839006EC
:104FA000DA124FBA9006EE024BB6C082C08390066A
:104FB000F1124FBA900700024BB6125E38124FC47E
:104FC000F0A3F0222406F582E438F583E4220201FE
:104FD0003274F612181112515E60047C1280027C49
:104FE0000EE8C39C12537850030250977C0C900734
:104FF0000CE4F0EA247712643890070DF0EA247884
:105000001250A690070E1250B090070FF0EA247AC3
:105010001250A69007101250B0900711F0EA247CAD
:105020001250A69007121250B0900713F0EA247E97
:105030001250A69007141250B0900715F0EA24758C
:10504000F8E43BF98A828B83A3A3A3A3A3E0FEA386
:10505000E0FF88828983E02EF0A3E03F1261AAE09E
:105060009007161250B0900717125165601375081B
:105070000C7509077808121A2412509E1217B77C73
:105080001012538EECFE125159DEFB75E195790436
:10509000120D657901800279000253837C01790346
:1050A000120BF1740222F8E43BF98882F583E022C6
:1050B0001261AEA3E02274F612181112515E600460
:1050C0007C0E80027C0AE8C39C1253785003025184
:1050D000547E0890070C7401F07CCF7D06780D7922
:1050E000077F051258E7DFFBEA2481FCE43BFD8AD9
:1050F000828B83A3A3A3A3A3125DE48C828D83E0A0
:105100002508F0A3E03509126479E08882898312CA
:105110006479A3E088828983A312516560157508BC
:105120000C7509077808121A247C0812509E121771
:10513000B77E0C74012EF5D975D90375820C758371
:1051400007EEFF125159DFFB75E1957904120D65E9
:10515000790180027900025383E0F5D9A322125429
:105160005012643B22F01264352274F7121811EACF
:10517000FEEBFF9061D0E0704F75D91875D90375BB
:10518000D9037A001251CD249D1251F740F6EE2436
:10519000A51251D724A6126327F5D97A001251CD52
:1051A00024951251F740F67A001251CD24891251FC
:1051B000F140F675E1957908EE24951251EA2489BB
:1051C0001251E2125306800279000256E7EAF8EE25
:1051D00028F8E43BF9E822F582E43FF583E0F5D9CD
:1051E000EE22FAE43FFB120B91221251E27904EE17
:1051F000221251FD9404221251FD940822F582E4FA
:1052000039F583E0F5D90AEAC32274F6121811EAD7
:10521000FEEBFF90070C74061252B2121A241250C1
:105220009C1217B775D90675D90375820C7583075B
:105230001252A97004E583640770F575E195900337
:1052400069E06408700D1252583F12525FEE2471EB
:105250001262C47901025383EE246FF582E422F5D1
:105260008312649E2274F6121811EAFEEBFF90611D
:10527000D0E0703090070C740A1252B2121A241245
:10528000509C1217B775D90675D90375820C7583B2
:10529000071252A97004E583640770F575E1951251
:1052A000530B80027900025383E0F5D9A3E58264B1
:1052B0001122F075080C75090778082274F6121887
:1052C00011EAFEEBFF9061D0E07033780190070C9B
:1052D000740BF0900369E06407701375080C75098E
:1052E000077808121A2412509C1217B77805125525
:1052F0003B125159DAFB75E19512530B800279008C
:1053000002538375E1957904120D65EE246F1264E2
:1053100098EE2471F582E43FF583E8F0A3E9F07993
:10532000012274F612181112544460047A0F80029C
:105330007A0B125375403A7C0990070C740812538B
:105340009D1253ACDDFB126324601975080C7509BE
:10535000077808121A247903EEFAEFFB1250A01214
:1053600017B77C0D12538812543B70FB1253038005
:10537000027900800EE8C39A95E0C365D03322A27B
:10538000E092AF7F020218E312538E8C0822740160
:105390002CF5D975D90375820C75830722F0EE249C
:1053A000E6F8E43FF97A0D7B077D0822888289833D
:1053B000E08A828B831261AEA3A882A9838A828B42
:1053C00083A3AA82AB832274F6121811125444608C
:1053D000047A0C80027A08125375405A78069007B6
:1053E0000C740CF0900386E090070DF0900387E0BA
:1053F00090070EF0900388E090070FF0900389E08B
:10540000900710F090038AE09007111254D86019A9
:1054100075080C7509077808121A247C067903EEC2
:10542000FA1250A01217B7780A1254D212543B70D5
:10543000FB12530380027900025383E0F5D9A315D0
:1054400008E50822EAFEEBFF1254503FF583E02204
:105450009061D0E0F87480C398F8EA2484F582E47F
:105460002274F612181112544460047A0880027AE9
:10547000041253754049780290070CE8F0EE24F8C6
:1054800012632790070D1254D8601975080C75091E
:10549000077808121A247C027903EEFA1250A0123F
:1054A00017B778061254D212543B70FB75E195126F
:1054B00054C47904120D65EE240D12530E80027946
:1054C00000025383EE241DF582E43FF583E4F0A34C
:1054D000F022125541880822F0EE2484F582E43F40
:1054E000F583E02274F612181112515E60047C08F4
:1054F00080027C04E8C39C125378403A78029007FB
:105500000C7407F0EA24F912643890070D12516503
:10551000601575080C7509077808121A247C0212A8
:10552000509E1217B7780612553B125159DAFB7587
:10553000E195790180027900025383125541E8FA1E
:1055400022740128F5D975D90375820C7583072259
:1055500074F6121811E9FEA2AFE433FDC2AF7C006D
:1055600080010CEA246E126438F8ECC3985010ECF9
:10557000F8EA1251D0246A1262116E70E58018EABE
:10558000246EF8E43BF9E0F508EA2508FAE43BFB71
:1055900012559BEE1256D8ED02537FEA246AF5822B
:1055A000E43BF5832274F6121811EAFCEBFDA2AF7E
:1055B000E433F508C2AFEA246EF582E43DF583E0FA
:1055C00014F0EA246AFAE43DFBEA2403F8E43BF928
:1055D000E8FEE9FF8A828B83A3A882A983E08A82FE
:1055E0008B83F0E8FAE9FBEE6A7002EF6B70E5EC92
:1055F000246DF582E43DF58374FFF0EC2469F582B7
:10560000E43DF583E4F0E50802537FC082C083A245
:10561000AFE433F8C2AF12559BE91258FDE07003B6
:105620007401F0E8A2E092AF024BB974F3121811C2
:10563000EAFEEBFFECFAEDFB8C82F583A3A3A3A3B8
:10564000E0541FF0EE2436F582E43FF583E4F07574
:105650000800EE245DFCE43FFD8A828B83E08C82AF
:105660008D83F0750900E50833333354F8F50C8A5F
:10567000828B83E0F50A750B00E509780A12176F33
:10568000E50AA2E05027EE2436F8E43FF98882F5D7
:1056900083E0F50AEE250AF50AE43FF50BE50A2456
:1056A00038F582E4350BF583E50C1256D80509056B
:1056B0000CE509C3940840B705088A828B83A3AA26
:1056C00082AB838C828D83A3AC82AD83E508C394C7
:1056D0000540867F050218E31261AEE004F022F077
:1056E000EEA2E092AF79007F010218E374F712187E
:1056F00011900395E0640370030258A07C00ECF85D
:1057000075F012A4C8AAF02AF9749B28F5827403D4
:105710001262146003025896749928FA740339FBD4
:105720008A82F583A3A3740112645DA3A3A3E4F0AA
:10573000EC8A828B83A3A3A3A3F012642B7401F0E1
:10574000EA2467F582E43BF58374011258BCE4F067
:10575000A31258BCA3A31258CE240FF582E43BF544
:10576000837401F0EA24351258A724181258D32460
:105770001C1258A7241D1258C724801258A724743D
:105780001258A724831258A72468F582E43BF583B6
:1057900074801258FDE4F0EA24EE1258A724EF12A8
:1057A00058A724F01258A724F11258A724F212582F
:1057B000C724F41258C724F71258A724841258A7F4
:1057C00024D41258A724D51258A724D61258D3246B
:1057D000DA1258D324E01258A724E21258A724DE84
:1057E0001258A724E31258A724E41258A724FA1247
:1057F00058C724FC1258C724FE1258C72400F5824B
:10580000EB34011258CB240D1258B124071258B1B1
:1058100024081258B124091258B1240A1258B1248C
:105820000B1258B1240C1258B112559C74FF780415
:10583000F0A3D8FCEA245DF8E43BF97CCF7D0612A6
:1058400058E7EC64D47003ED640670F37C00787D57
:10585000790388828983E0C0E0ECFEEA2EFEE43B17
:10586000FFEE24E6F582E43FF583D0E0F00C888279
:105870008983A3A882A983ECC3940840D59003959B
:10588000E004F06401701D8A828B83A3A3A3A3E0CC
:10589000900397F0800E0CECC3940350030256FE65
:1058A0007A007B000256E7F582E43BF583E4F0EAF8
:1058B00022F582EB3401F583E4F0EA22F08A828B50
:1058C00083A3A3A3A3A322F582E43BF583E4F0A37F
:1058D000F0EA22F582E43BF5831258DEEA22E4F096
:1058E000A3F0A3F0A3F0228C828D83E088828983C9
:1058F0001264CF88828983A3A882A98322F0EA2434
:1059000069F582E43BF583E4F0EA246EF582E43B3A
:10591000F58322C082C0838A828B83A3A3A3E06025
:105920000F8A828B83A3A3A3E4F0900396E014F084
:10593000900395E014F0700690039774FFF08A824C
:105940008B83A3A3E4F09006D4E0700D900396E05F
:10595000640170057900120D2F024BB9C082C0831B
:105960007A00EAF875F012A4C8ABF02BF974952808
:10597000F87403126225A3A3A3A3E41261AAA3A34C
:10598000A3A3A3A3F00AEAC3940340D6900395E42B
:10599000F0A3F0A374FFF075E1F1024BB974E812C3
:1059A000181174FA1217A1851882851983EAF0A3D9
:1059B000EBF0741E1217ED121A3774041217ED1261
:1059C0006459125F4D121677125F311217B7E960F2
:1059D00003025D6A125E29121A3774221217ED1241
:1059E00016771226EE74041217B78A088B098C0AF0
:1059F0008D0B125E487003025CAF124F902475F558
:105A000082E438F583C082C083125E3EF8A3E0F9D9
:105A1000D083D082E0C398F50CA3E099F50D125E17
:105A2000486402851882851983700C124F962410E1
:105A3000F582E834018009124F96242EF582E4386D
:105A4000F583E0F514A3E0F515850C10850D1175AF
:105A50001200751300E4F516F51778107914121476
:105A600085125E2985101485111585121685131768
:105A700078141215BF7814121A2074221217ED121E
:105A80001677125F311217B7E97003025CAF851801
:105A900082851983E0247AFAA3E03400FB78087940
:105AA000101215E5125DFB1215AC9082BE7808123B
:105AB00015BF7808791412150574021217ED7808CD
:105AC00012166874021217ED7808121659125DFB4F
:105AD000121485125E3E250CFAA3E0350DFB74020C
:105AE0001217ED780C121659EA250CF8EB350D1249
:105AF0005E6B2407125EA52478F582E438125DEC13
:105B00007810790C1215AC781079081215AC125E69
:105B10004864016003025D0B851882851983E024C7
:105B200077FCA3E03400FD85188285198312619407
:105B3000120B73124F90125E5F2420125EA5241C7C
