:020000040000FA
:0600000002011A02245265
:03002B00022AEBBB
:030053000224C8BC
:03006B00022AB9AD
:100083000222AFE5C754F84401F5C7790122000005
:100093000080FB120086B90003020104E479217891
:1000A30008B800028004F709D8FCE479297802B87B
:1000B30000028004F709D8FCE4900281789A79134E
:1000C3008002F0A3D8FCD9FA781A90014A7A01BACF
:1000D30000028007E493A3F608DAF97A1A7B1590F5
:1000E300014B78DC79048015E493A3AD82AE838A57
:1000F300828B83F0A3AA82AB838D828E83D8E9D9C6
:10010300E77582D17583CD740312012C75829175C5
:100113008300740012012C75D00075813F7518811E
:10012300751902759F00020096C09FF59FE473D076
:100133009F22D083D082C09FE493C0E0740193C018
:10014300E0740293F59F22010A416363656C2045C5
:100153006E61626C650000021400416363656C208C
:1001630052616E67650000101010416363656C2077
:10017300582D436F6F7264696E617465000041634B
:1001830063656C20592D436F6F7264696E6174658A
:100193000000416363656C205A2D436F6F7264697D
:1001A3006E61746500000253900100002290024FBB
:1001B300900100001A15026D900300008302023EB5
:1001C3008F0100001B15024F9001000029150259F1
:1001D300900100002A15023E8F0100002C15024FEA
:1001E3009001000039150281900000008402023D55
:1001F300900300008702023E8F0100003C15024F6E
:10020300900100003A15025B900000008502023D58
:10021300900300008902023E8F0100005015024F37
:10022300900100003B15025D900000008602023D34
:10023300900300008B02023E8F0100006415110140
:1002430099010F12640400AD270111310401025317
:10025300900100002890024F9001000015160261E2
:10026300900100001616023D900300009502024D16
:10027300900100001E16023F900100001716FF00B8
:1002830000B4000028002800283075A000A000A0BA
:1002930000A00000080008E001F0001000100010AA
:1002A300001000100010005000500050001000100B
:1002B30000D0070000000000000F0001000500301F
:1002C3007507001000010081FF00000000FFFFFF21
:1002D3009C07BA07A207DE07FF02020208025000CA
:1002E300A0000000E8030253900100003490024F85
:1002F30090010000AB16024190010000D502024FAD
:1003030090010000AC16024390010000EB02024F83
:1003130090010000AD16024590010000ED02024F6E
:1003230090010000AE16024790080000EE02024F53
:1003330090010000AF16024990010000B016FF01C2
:1003430000FF200253900100003790024F900100FC
:10035300001417024B900000000000023D900300C0
:10036300001C0317007A0E7A0E7A0E7A0E7A0E7A32
:100373000E7A0E7A0E7A0E7A0E7A0E7A0E7A0E6252
:100383001174115C11020202020202020202010D47
:1003930000000010010253900100002B90024F90C7
:1003A3000100005717027D900100005D07024F9086
:1003B3000100005817027190010000218F024F9035
:1003C3000100005917026F90010000138F024F9034
:1003D3000100005A17026B90010000B58E024F9086
:1003E3000100005B17028390010000A38E024F906F
:1003F3000100005C170269900100007F8E024F909C
:100403000100005D17026790010000918E024F907A
:100413000100005E17026590010000058F024F90F6
:100423000100005F17026390010000601701E803F9
:100433000577100A0B094B6579666F6264656D6F0A
:100443000201050702031802180418544920424CFC
:1004530045204B6579666F620000000000000000D4
:100463002014000026142C14FFFFFF000130750335
:100473000201060000000000000000000000000070
:10048300000000000000000000000000000000FF6A
:10049300FF0600800CE8030A0412025390010000D7
:1004A3003190024F90010000691802799003000017
:1004B30012150253900100003A90024F9001000080
:1004C3006A1802799002000013150253900100008C
:1004D3002590024F900100006B18027B90010000F1
:1004E3001415023D900300001515104B657920503B
:1004F3007265737320537461746500025390010035
:10050300002E90024F90010000BC1802879000005B
:10051300001715023D900300001815023E8F0100DD
:1005230000BD18120135A395031201355596031228
:100533000135729603120135A49703120135EF9723
:1005430003120135A3980312013579A8031201356B
:10055300D7A803120135F4A803120135A5A9031284
:10056300013538AA03120135F0AA031201356DCB08
:10057300031201358ECB031201351FCC0312013553
:1005830008A5031201351BA5031201354AA5031261
:10059300013582A503120135CBA5031201350EA641
:1005A3000312013554A60312013587A60312013540
:1005B300AEA603120135DDA60312013514A70312FB
:1005C30001352DA7031201357CA70312013595A729
:1005D30003120135DDA70312013511A803120135FA
:1005E300FCC202120135FAC30212013560C40212C1
:1005F300013583C40212013585C402120135C3C417
:100603000212013534C502120135F4C50212013557
:1006130016C602120135B2C602120135E9C602122C
:1006230001352EC7021201353BC702120135ABC794
:1006330002120135F5C702120135F8C7021201355E
:100643003EC80212013541C8021201354BC80212DD
:100653000135BEC802120135E6C80212013519C9B7
:10066300021201353DC9021201353ACA021201359F
:10067300DECA021201354ACB0212013586CB0212C1
:100683000135949903120135BC9903120135E99997
:1006930003120135219A03120135879A031201359A
:1006A300D19A03120135359B031201357D9B031249
:1006B3000135BA9B03120135E89B031201357D9C7A
:1006C30003120135879C03120135949C03120135F3
:1006D300C79C03120135D39C03120135EB9C031213
:1006E3000135F59C03120135E1C903120135EFC948
:1006F3000312013507CA031201351ECA031201355D
:1007030017C901120135BAC901120135D3CA011241
:1007130001354BCB0112013572CC01120135ABCC43
:100723000112013543CD0112013530CE01120135DD
:10073300D9CE0112013561D00112013549D101121F
:10074300013540D20112013576D20112013518D399
:10075300011201353ED3011201350AD501120135CB
:1007630050D50112013572D501120135DED50112C2
:100773000135A9D60112013563D7011201356FD9AD
:100783000112013560DB021201353CDC0212013536
:10079300E6DC0212013527DD02120135AEDD02125D
:1007A300013529DE02120135FCDE0212013525DF97
:1007B3000212013519E00212013556E00212013529
:1007C3003EE1021201356FE10212013595E1021299
:1007D30001355AB803120135D9B80312013504B9EA
:1007E3000312013514BA03120135839D0312013537
:1007F300999D03120135B79D03120135C79E03125C
:100803000135D19E03120135FB9F03120135E8A088
:100813000312013554A10312013505E20212013519
:1008230032E30212013569E302120135C0E3021219
:100833000135B8E50212013520A401120135A7A440
:1008430001120135FBA50112013507A6011201357D
:100853007FA60112013558A70112013558A80112CC
:10086300013554A90112013520AA011201357AABD1
:100873000112013590AB01120135B1AB0112013503
:1008830043AC01120135B9AC01120135DFAC0112E1
:1008930001358CAF0112013591AF01120135B5B1AC
:1008A30001120135FCB10112013562B201120135A9
:1008B300A8B20112013578B3011201352DB401122A
:1008C300013589B4011201358CB401120135D8B454
:1008D3000112013514B50112013553B50112013569
:1008E30075B501120135A9B50112013517B601120B
:1008F3000135EFEC02120135FDEC021201354DED2D
:10090300021201356CED02120135B6ED021201350A
:10091300F9EE0212013591EF02120135D5EF021201
:100923000135FFEF021201356AF002120135AEF014
:100933000212013531F102120135E0F102120135E3
:10094300182B00120135282B00120135C22B00127F
:1009530001351E2C00120135DC2C00120135FF2D50
:10096300001201352F2E001201355E2E00120135C3
:10097300143000120135673200120135C6340012FB
:100983000135AF35001201359F360012013572383B
:10099300001201356A3B00120135873C0012013514
:1009A300813E00120135903F001201351F410012B4
:1009B30001350B42001201355A4200120135CA4279
:1009C30000120135E64200120135374300120135AA
:1009D300D74700120135DE480012013540490012A5
:1009E30001356B4900120135234A00120135EB88AA
:1009F30003120135F588031201353D8903120135D0
:100A0300518903120135E28903120135198A031250
:100A13000135548A031201357D8A03120135D18AC7
:100A230003120135E68A03120135088B03120135DF
:100A33001D8B03120135318B03120135468B0312D3
:100A43000135808B03120135AC8B03120135E48B26
:100A530003120135888C03120135CB8C0312013547
:100A6300F58C03120135208D0312013506C40312E0
:100A73000135B2F5011201358BF601120135FAF693
:100A83000112013535F70112013570F801120135F4
:100A930022F901120135CFFB011201357AFC011253
:100AA30001355BFD01120135D1FE0112013539FF1C
:100AB3000112013557FB021201359AFB021201356F
:100AC30005FD0212013543FF0212013561B4031221
:100AD30001350EB50312013507B60312013544B6CD
:100AE300031201351DBC031201357CBC0312013511
:100AF30019BD031201354CBD031201357ABD031232
:100B03000135B5BD03120135D5BD03120135AEF66E
:100B13000212013537F702120135F6F702120135D9
:100B230004F90212013524FB021201350E9A021256
:100B33000135239A02120135EE9A02120135BB9B4D
:100B430002120135289C02120135639C0212013501
:100B5300049D021201350D9E02120135E59E02121B
:100B63000135689F02120135F19F021201355AA027
:100B730002120135E4A00212013531A1021201353E
:100B83009FA10212013541A202120135EFA2021206
:100B930001350FA30212013553A3021201359BA3A2
:100BA30002120135B7A302120135D6A30212013591
:100BB30050A4021201355EA402120135F1A40212FF
:100BC30001355BA5021201350080031201357C80DB
:100BD30003120135BA80031201359E8103120135D8
:100BE3000D820312013551820312013594820312DF
:100BF3000135C18203120135DF82031201351783E8
:100C03000312013554830312013575830312013531
:100C1300EB8303120135358403120135D1B601127A
:100C230001356EB80112013599BA01120135E1BAE5
:100C3300011201350CBB01120135F8BB011201355C
:100C43003CBC01120135A8BC01120135BBBC011229
:100C53000135FCBC0112013529BD0112013572BDFC
:100C630001120135B5BD01120135EBBD011201358C
:100C73003CBE01120135A0BE0112013577C101123C
:100C830001356BC301120135A6C30112013526C517
:100C9300011201356AC501120135DAC501120135A8
:100CA3002FC60112013574C601120135C9C70112DD
:100CB300013501C90112013512C90112013563B0B1
:100CC30002120135CCB0021201358FB60212013582
:100CD30084B7021201350EB902120135A6B9021208
:100CE30001358C4A00120135D44A00120135014BFB
:100CF30000120135334B00120135404B0012013510
:100D03004C4B001201355E4B00120135254C00128D
:100D13000135834C00120135B84C00120135F44DF6
:100D230000120135414E001201355C4E00120135AF
:100D3300D04E00120135874F001201356750001263
:100D43000135CD50001201359F5100120135C151BB
:100D530000120135315200120135C852001201351B
:100D6300EF5200120135675300120135EF530012A1
:100D730001351C5400120135C1540012013541558F
:100D830000120135E05500120135585600120135A5
:100D9300AD5600120135F556001201352A570012DF
:100DA3000135CC5700120135F05800120135305986
:100DB300001201354D5900120135C35F0012013590
:100DC3000C6000120135A86000120135CD600012DD
:100DD3000135E2600012013549610012013590616D
:100DE30000120135A062001201354C630012013577
:100DF300A663001201350264001201351B64001260
:100E03000135CFB9021201351ABA0212013526BAD9
:100E130002120135F6BA021201351FBB0212013567
:100E230052BB02120135BEBB02120135FCBB0212DA
:100E3300013535BC021201354DBC02120135A6BC89
:100E430002120135BFBC0212013504BD0212013585
:100E530017BD0212013531BD0212013547BD021221
:100E630001354EBE021201356FBF0212013558C063
:100E73000212013547C102120135FCFF011201358F
:100E83000D8D02120135408D02120135AA90021216
:100E93000135FF9102120135D292021201351494E9
:100EA300021201350C95021201355A9502120135D1
:100EB300749502120135B69502120135C1950212DD
:100EC30001350A9602120135139602120135BF96B7
:100ED30002120135999702120135E5970212013585
:100EE300459802120135979802120135C5980212EE
:100EF30001350399021201358C90011201356D946D
:100F030001120135739401120135E39A011201357F
:100F1300B69F01120135D0A3011201355EA1031260
:100F23000135D4A103120135EAA10312013567A2E9
:100F3300031201359EA203120135D8A20312013513
:100F430012A30312013585A303120135C0A30312B3
:100F53000135C9A303120135D5A303120135EEA34D
:100F63000312013512A40312013527A4031201351C
:100F730050A403120135B2A403120135D9A40312FC
:100F83000135F2F10212013505F2021201351FF2A9
:100F9300021201354CF20212013592F202120135AE
:100FA300C5F20212013502F30212013568F302128F
:100FB30001357DF30212013588F30212013595F3F1
:100FC30002120135ACF302120135BAF302120135F4
:100FD300C5F302120135D1F302120135E4F3021213
:100FE3000135EFF30212013515F402120135B9F49C
:100FF30002120135C9F402120135E3F4021201357C
:1010030000F5021201351BF50212013542F50212F9
:1010130001354DF50212013562F50212013576F5FF
:1010230002120135D7F502120135DDF50212013541
:10103300E3F502120135E9F50212013501F6021258
:10104300013534F602120135058002120135938011
:101053000212013528810212013504820212013580
:101063003882021201354B8202120135C582021207
:1010730001354D8402120135748402120135FB845B
:10108300021201353A85021201354B8502120135F0
:10109300C08502120135DF8502120135F785021280
:1010A30001353B8702120135458902120135778BE1
:1010B300021201357D8C02120135C08C02120135FA
:1010C3007CD9011201358FDA0112013577DB011268
:1010D300013581DB01120135A3DB01120135AFDBE1
:1010E30001120135FCDC0112013529DD0112013544
:1010F3004ADE011201358CDE01120135C1DF011216
:10110300013591E001120135E0E00112013541E1C1
:101113000112013576E101120135AFE1011201350A
:101123005AE50112013571E501120135EFE50112AE
:101133000135FDE50112013546E60112013554E69C
:1011430001120135D5E60112013544E701120135DB
:1011530090E7011201357EA502120135A0A5021206
:1011630001357CA702120135F4AA021201353EAC07
:101173000212013520AD02120135E3BD0312013520
:1011830008BE0312013579BE0312013562780012DD
:1011930001356B78001201357478001201359879A6
:1011A30000120135897B00120135B77B001201352E
:1011B300E27B00120135107C001201353B7C0012EA
:1011C3000135797C00120135A57C00120135E27CE2
:1011D300001201350D7D00120135597D00120135D4
:1011E300B07D00120135F07D001201353F7E001203
:1011F30001356A7E00120135B07E00120135DE7EB4
:1012030000120135097F00120135367F00120135C6
:10121300597F001201352ACC0312013556CC031233
:101223000135AFCC03120135B9CC03120135C9CC5A
:10123300031201351AC50312013571C503120135B5
:1012430089C503120135A7C503120135C2C50312AF
:101253000135F6C50312013504C603120135D1AEBB
:1012630003120135F8AE0312013523AF0312013522
:1012730029CE031201354D6400120135A466001214
:101283000135546800120135B16800120135B169A6
:10129300001201352E6A00120135B66A00120135BB
:1012A300DB6A00120135B66D001201352A6E001299
:1012B3000135196F001201354F6F00120135926F1E
:1012C30000120135137100120135557100120135F9
:1012D3009E71001201350772001201352972001246
:1012E30001354372001201356173001201357173C8
:1012F30000120135F4740012013514750012013522
:101303004A7500120135C6760012013503770012C3
:1013130001353D7800120135488D03120135988D52
:1013230003120135D28E03120135418F03120135A9
:10133300E58F031201350490031201355290031215
:101343000135949003120135AECA03120135BFCAA9
:101353000312013562CB0312013573CE031201353B
:10136300B2CE03120135E57F0012013502C9031223
:10137300013512C90312013527C903120135DBC92F
:10138300031201351DC603120135A0C60312013530
:1013930006C703120135DAC20312013501C3031272
:1013A300013557C3031201356AC303120135BBC3A9
:1013B30003120135FAC303120135FDC303120135CC
:1013C300A59103120135B99103120135329203122B
:1013D3000135069303120135D894031201353D9567
:1013E30003120135909503120135F87F0012013580
:1013F30043BA03120135B9BB031201351ABC0312F8
:10140300013521D402120135E8D50212013563D723
:101413000212013525D802120135ABD8021201356B
:10142300CED802120135ECD90212013533DA021299
:10143300013581DA0212013515C80312013538C8A6
:101443000312013561C80312013577C80312013550
:10145300B9C803120135A5E702120135AFE702123D
:101463000135EFE70212013538E80212013570E861
:1014730002120135C6E802120135E3E80212013512
:10148300ECE80212013531E9021201355AE9021280
:1014930001356FE902120135DFE9021201356CEA09
:1014A30002120135C0EA02120135E3EA02120135E4
:1014B30062EB021201359DEB02120135D2EB0212EF
:1014C3000135E4EB0212013503EC021201350CEC99
:1014D30002120135C3EC0212013538C10312013582
:1014E30089C10312013512C2031201357CC20312F2
:1014F3000135A6B103120135CEB103120135C3B2D2
:1015030003120135E8B20312013577B30312013533
:101513001FC70312013572CD031201355EB60312E4
:10152300013594B603120135C7B60312013520B84D
:1015330003120135D3CC03120135E9CC0312013573
:10154300F3CC0312013547CD03120135ACCB0212A4
:10155300013566CC02120135A1CC02120135D2CC81
:101563000212013542CD0212013598CD0212013526
:10157300ECCD02120135D9CE02120135D2CF0212BF
:10158300013553D10212013507D20212013570D24F
:101593000212013583D20212013568D302120135DA
:1015A300C1D3021201357C840312013592840312E4
:1015B30001353385031201357285031201358F8599
:1015C30003120135C085031201350D86031201355F
:1015D3004086031201357B86031201357688031298
:1015E3000135DE880312013516E8011201359EEB41
:1015F300011201352DED0112013584ED0112013582
:10160300A3ED0112013521EE01120135A7EF0112FD
:1016130001357AF00112013534F4011201351CF55C
:1016230001120135BAAB031201355FAC0312013568
:101633007CAC031201350FAD031201353AAD031231
:101643000135D4AD0312013594BF03120135F7BF41
:101653000312013559C003120135D8C003120135F5
:10166300BCCE0312013502CF03120135DEFF01E0C8
:1016730066701008A3E066700A08A3E066700408A9
:10168300A3E06622C3E7960809E7960809E79608E8
:1016930009E79622C3E09608A3E09608A3E096081C
:1016A300A3E09622C008C3E096F50808A3E096429B
:1016B3000808A3E096420808A3E09645087001D302
:1016C300D00822080808EAC0E0EBC0E086F0E7A4EF
:1016D300FA180986F0E7A42AFA180986F0E7A42A7B
:1016E300FA180986F0E7A42AFA1986F0E7A4FBE5BD
:1016F300F02AFA190886F0E7A42BFBE5F03AFA1969
:101703000886F0E7A42BFBE5F03AFA18180986F0EF
:10171300E7A4C5F02BFBE43AFA1908E7C5F0C6A421
:1017230026F6E5F03BFBE43AFA1886F0E7A4F6E583
:10173300F00826F6E43B08F6E43A08F6D0E0FBD0DE
:10174300E0FA22E4CFC0E0E4CEC0E0E4CDC0E0E4C0
:10175300CCC0E075F020E626F608E633F608E6335B
:10176300F608E633F6181818EC33FCED33FDEE33C8
:10177300FEEF33FFC3EC9709ED9709EE9709EF9757
:10178300191919400FFFEC97FC09ED97FD09EE9726
:10179300FE191906D5F0BFECF709EDF709EEF709C5
:1017A300EFF7191919D0E0FCD0E0FDD0E0FED0E04E
:1017B300FF2212181D18181812174612180C19199F
:1017C300192212180C191919080808E618181820F4
:1017D300E7E012174612181D18181822090909E71D
:1017E30019191920E7DC080808E618181820E70378
:1017F30002174612181D18181812174612181D182A
:10180300181812180C19191922E4C397F709E49749
:10181300F709E497F709E497F722E4C396F608E497
:1018230096F608E496F608E496F622601708080888
:10183300C6A2E713C618C613C618C613C618C6131E
:10184300C6D5E0E9226016080808C6C313C618C641
:1018530013C618C613C618C613C6D5E0EA22700904
:10186300080808226016181818C6C333C608C633FA
:10187300C608C633C608C633C6D5E0EA22E627F64D
:101883000809E637F60809E637F60809E637F622C7
:10189300E026F608A3E036F608A3E036F608A3E050
:1018A30036F622E026F008A3E036F008A3E036F08F
:1018B30008A3E036F022C3E697F60809E697F60890
:1018C30009E697F60809E697F622C3E0C696F608F6
:1018D300A3E0C696F608A3E0C696F608A3E0C6966C
:1018E300F622C3E096F008A3E096F008A3E096F092
:1018F30008A3E096F022E056F608A3E056F608A304
:10190300E056F608A3E056F622E056F008A3E056A8
:10191300F008A3E056F008A3E056F022E0F608A38F
:10192300E0F608A3E0F608A3E0F622E6F008A3E653
:10193300F008A3E6F008A3E6F022E0FAA3E0FBA395
:10194300E0FCA3E0FD22E0FCA3E0FDA3E0FEA3E0B6
:10195300FF22ECF0A3EDF0A3EEF0A3EFF022E0F80A
:10196300A3E0F9A3E0FAA3E0FB22E8F0A3E9F0A3E4
:10197300EAF0A3EBF022CAC0E0E6F0A308DAFAD05B
:10198300E0FA22CAC0E0E0A3C582CCC582C583CDFC
:10199300C583F0A3C582CCC582C583CDC583DAE6F2
:1019A300D0E0CA22C3E498F8E499F91219E8802632
:1019B300C3E49AFAE49BFBE920E7E91219E8E49807
:1019C300F8E499F922C3E498F8E499F91219E8E4E0
:1019D30098F8E499F9C3E49AFAE49BFB22EB20E735
:1019E300CFE920E7E0B90010BB0008E88AF084F8EB
:1019F300AAF022E4FBC8FA22EB70227B10C833C89A
:101A0300C933C9335007C39AC3DBF280069A500126
:101A13002ADBEAC833F4C8C933F4C9FA2275F008DB
:101A2300E4C833C8C933C933C99AC99B5004C92A06
:101A3300C93BD5F0ECFBC833F4C8E4C9FA22600D06
:101A430008C6A2E713C618C613C6D5E0F322600C76
:101A530008C6C313C618C613C6D5E0F42270042201
:101A6300600D18C6C333C608C633C6D5E0F41822C2
:101A7300251810AF08F518400C15198008F5184003
:101A8300021519D2AF2200C0D0251810AF08F518DF
:101A9300500C05198008F51850020519D2AFD0D0A3
:101AA300222518F58210AF08F518400C1519800887
:101AB300F51840021519D2AF851983222518F5822E
:101AC300E43519F583222518F8E43519F922251888
:101AD300FAE43519FB222518FCE43519FD22E473D9
:101AE3002518C582C0E0E51934FFC583C0E0E518B9
:101AF300C3958224F810AF0885831985821880085E
:101B0300858319858218D2AFCEF0A3E520F0A378A0
:101B130008E608F0A3DEFAEFF0A3E58124FAF8E67D
:101B230008F0A3E608F0A3E608F0A30808E608F027
:101B3300A3E608F0A315811581D0E0FED0E0F815E7
:101B43008115811581E8C0E0EEC0E0222518C58229
:101B5300C0E0E51934FFC583C0E0E518C3958224CE
:101B6300F910AF0885831985821880088583198544
:101B73008218D2AFCEF0A3E520F0A37808E608F0F0
:101B8300A3DEFAEFF0A3E58124FBF8E608F0A3E671
:101B930008F0A30808E608F0A3E608F0A3158115EA
:101BA30081D0E0FED0E0F815811581E8C0E0EEC0F9
:101BB300E022851983851882E0A3FEE0A3F520784F
:101BC30008E0A3F608DFFAE0A3FFE0A3C0E0E0A388
:101BD300C0E0E0A3C0E0E0A3C0E0E0A3C0E010AF3A
:101BE300088582188583198008858218858319D210
:101BF300AFD083D082020132851983851882E0A396
:101C0300FEE0A3F5207808E0A3F608DFFAE0A3FFDF
:101C1300E0A3C0E0E0A3C0E0E0A3C0E0E0A3C0E035
:101C230010AF0885821885831980088582188583FB
:101C330019D2AFD083D08222C0D02518C582C0E08C
:101C4300E51934FFC583C0E0E518C3958224F3107A
:101C5300AF088583198582188008858319858218C2
:101C6300D2AFC8F0A3E9F0A3EAF0A3EBF0A379089D
:101C7300E709F0A3D8FAECF0A3EDF0A3EEF0A3EF9D
:101C8300F0A3D0E0F0A3D0E0F0A3D0E0F0A3E520F0
:101C9300F0A3E5F0F0A322851983851882E0C0E064
:101CA300A3E0F9A3E0FAA3E0FBA37808E0F608A316
:101CB300DFFAE0FCA3E0FDA3E0FEA3E0FFA3E0C0A6
:101CC300E0A3E0C0E0A3E0F5D0A3E0F520A3E0A308
:101CD300F5F010AF0885831985821880088583196C
:101CE300858218D2AFD082D083D0E0F8D0E03274AE
:101CF300048006740280027401C0E0F404121AA482
:101D0300D0E0121979227404800474028000CCC0DC
:101D1300E0EDC0E0E518C39CCCAD1950011D10AF38
:101D2300068C188D1980068C188D19D2AF1219865E
:101D3300D0E0FDD0E0FC22D083D082E9C0E0E49380
:101D4300A3C386F0C5F095F0F908E493A386F0C524
:101D5300F095F0700BE493A3C3994005E904800266
:101D6300A3E475F002A42582F582E5F03583F583BB
:101D7300D0E0F9E493A3C0E0E493C0E022D083D0A1
:101D830082ECC0E0EDC0E0E493A3FCE493A3FDED9B
:101D93004C600D121DCCEC24FFFCED34FFFD80EFF5
:101DA300E493A3FCE493A3FDED4C600D121E0BEC36
:101DB30024FFFCED34FFFD80EFD0E0FDD0E0FCE438
:101DC30093A3C0E0E493C0E022C0E0C3E493960889
:101DD3007401939618400FE4936670080874019396
:101DE300661870007019A3A3C3E493960874019353
:101DF3009618A3A3400DD0E0D0E0D0E0021DBCA311
:101E0300A3A3A3A3A3D0E022C0E0C0F088F0E4938F
:101E13006670080874019366187000A8F0A3A37095
:101E23000BD0F0D0E0D0E0D0E0021DBCA3A3D0F0F3
:031E3300D0E022DA
:101E380074F6121B4FEAFEEBFF8C088D09EA243476
:101E4800F8E43FF9E8FCE9FD121F66E0FAEE2437F2
:101E5800F582E43FF583E0F88508F0A4C885F00A28
:101E68008509F0A4250AF9EA28F8E439F97A257BE6
:101E7800001219E8EA8C828D83F0F9131313541FAA
:101E8800FAEE2AFAE43FFBEA245DF582E43BF583A7
:101E9800E0C0E0740759F8D0E0B800028004C3132A
:101EA800D8FCA2E04021EE2436F582E43FF583E039
:101EB800F5F0E984A8F0EE28F8E43FF9E82438F5CD
:101EC80082E439F583E0F97F03021BFB74F5121BEA
:101ED8004FEAFEEBFFEA2434F582E43FF583E0C0E5
:101EE800E0121F66D0E0F08A828B83A3A3A3A3A38A
:101EF800E0FAA3E0FB8E828F83A3A3A3A3A3A3A3EB
:101F0800E0C39AF508A3E09BF509EE2480F8E43FC6
:101F1800880AF50B8882F583E06401702CEE248131
:101F2800F582E43FF583EA2401F8E43BF9E06870C0
:101F380003A3E06970137CCC7D04EEFAEFFB120D6D
:101F48009C850A82850B83E4F0AC08AD09EEFAEFB4
:101F5800FB121E38E9F9122AAB7F04021BFBEA24A4
:101F680035F582E43FF58322C082C08385188285D7
:101F78001983E0F8A3E0F9C3EA9CEB9D5010C3EC89
:101F880098ED99401BC3EA98EB995014800EC3EA68
:101F980098EB994007C3EC98ED99400479018002C9
:101FA8007900D083D08222EAC39CFAEB9DFB22748D
:101FB800ED121B4F90038CE064086005E064077025
:101FC8002C9061C8E060269003BAE0F874FF68605E
:101FD8001CE875F010A4C8AAF02AF974BC28FE748D
:101FE8000339FF8E82F583A3A3A3E070057900026D
:101FF8002193EE2468F50EE43FF50F906060E085CC
:102008000E82850F83F075103D75110575080075F2
:102018000900E5D914F50AE5D95403F50B6044EE37
:102028002484F50CE43FF50D7403650B6025E50A7F
:10203800600CEE2467F582E43FF583E060259005A7
:1020480038E06401603E850C82850D83E06020786D
:1020580004801E850C82850D83E0603BE50AC394ED
:10206800055034793DEEFAEFFB120DC6021FF578E4
:1020780000E50AC398FA95E0FB120C2E8A088B0932
:10208800EA4B700612102A021FF5850C82850D8313
:10209800E070048A108B1178008014E5D9C0E0E85C
:1020A800FAE5102AF582E43511F583D0E0F008E866
:1020B800C3950A40E6850C82850D83E0602874FC90
:1020C800250AF50A7810121CF6AC0AA90BEEFAEFED
:1020D800FB120E747402121A89E9700AAA08AB0975
:1020E8001214E002206B7403650B6055E50AF50CC9
:1020F800750D00780C121CF6AC10AD11AA08AB09CE
:10210800120E387402121A89850E82850F83E0F840
:102118007480687005750C7F8002880CE50CF50DDD
:10212800780D121CFA780B121CFAA90AAC08AD0932
:102138009003BAE0FA7B00120A6C7402121A8980C2
:1021480045851082851183E0F8C3940E500F74F70B
:1021580028F582E4348EF583E0650A6016EE24F7EC
:10216800F582E43FF583E8F07907EEFAEFFB120D0C
:102178008A801390038CE06408600BAC10AD11EEFC
:10218800FAEFFB120F0A12103679017F0C021BFBC3
:1021980074F1121B4F74FC121A73EAFEEBFF8909E3
:1021A800750C00A2AFE433F508C2AF9004D4E0FA8E
:1021B8009061D0E0F8748098F895E0F9C3EA98E463
:1021C80099A2D265D0335015750C018010AA0AABBC
:1021D8000B120DF01214E09004D3E004F0EE246327
:1021E800F50AE43FF50B850A82F583E0F8A3E0F9E8
:1021F800E849602DE82402FAE439FBEA2402F50EE6
:10220800E43BF50F780E121CF68A828B83E0FCA360
:10221800E0F9EEFAEFFB120DE47402121A89E96094
:10222800AC9061D0E0F87480C3989004D4F0E50CC9
:1022380060539004D3E0604D9004D5E0F89004D347
:10224800E0C398500C74026509703A9004D6E060B7
:10225800348E828F83A3A3A3A3E085188285198374
:1022680012229D7402121ABFE812229D9004D2E035
:1022780028F07402121AD9AA18AB197901120AC0E7
:102288009004D3E4F0E508A2E092AF7404121A892E
:102298007F08021BFBF0A3E4F09004D3E0F82200CF
:1022A8008521878522C622C0E074EB121C3BA2AFB1
:1022B800E433F508C2AF759B00906182E0A2E0505C
:1022C8002DE591A2E050277591FE74016521701EDD
:1022D80012242612243D121D0912285A7404121AB7
:1022E80089E9640170057901120FBE121FB7906168
:1022F80082E0A2E5505AE591A2E550547591DF902D
:10230800038CE064076005E06408702C12242674CE
:10231800016521703B12243D121D0912285A7404CC
:10232800121A89E9640170057901120FBE7901EE6C
:10233800FAEFFB1221988018E0640D70139003AE39
:10234800E004F064287002E4F07A00E0F912103C2E
:10235800906182E0A2E640030223FBE591A2E640F9
:10236800030223FB7591BF90038CE064057008128B
:102378000F4C120F588003120F52752100120FCA0A
:10238800E990038DF07900120FBE120D067A017BD9
:102398000090038BE0F91214B0907803E064427067
:1023A8005290053CE014F0704AC2AF1223B6007890
:1023B8002AD0E0F618D0E0F6E59F540770047BFFBA
:1023C80080027B7FC4C0E07829E6F50A08E65BF561
:1023D8000B740B780A121A51D0E0250AF890627033
:1023E800E0A2E740F8E8C333906272F0906270E0D0
:1023F800D2E0F0906181E0A2E35009E5E9A2E35060
:102408000375E9F7A3E0A2E75009E591A2E75003B5
:1024180075917FE508A2E092AF7F08021C9A9003AD
:10242800BAE0F875F010A4C8AAF02AF974BC28FE1E
:10243800740339FF22120F648E828F83E0F8A3E0C1
:10244800C82416F582E438F58322C0E0C0D0C082E3
:10245800C083906183E0A2E05009E5BFA2E0500389
:1024680075BFFEE0A2E15009E5BFA2E1500375BFC8
:10247800FDE0A2E25009E5BFA2E2500375BFFBE010
:10248800A2E35009E5BFA2E3500375BFF7E0A2E459
:102498005009E5BFA2E4500375BFEFE0A2E550097B
:1024A800E5BFA2E5500375BFDFE0A2E65009E5BF2E
:1024B800A2E6500375BFBFD083D082D0D0D0E0321F
:1024C800C0E074F2121C3BE5A7A2E4500FE5A1A2FC
:1024D800E4500953A7EF75A1EF12251CE5A7A2E563
:1024E800500CE5A1A2E5500653A7DF75A1DFE5A7CB
:1024F800A2E15009E5A1A2E1500375A1FDE5A7A25B
:10250800E2500CE5A1A2E2500653A7FB75A1FB7FA0
:1025180001021C9A74F8121B4F75210190038CE07C
:10252800640670077A007B00120F34A2AFE433FE12
:10253800D2AF900392E0640170187A207B00900378
:102548008BE0F91215CA7A207B0090038BE0F91210
:1025580014B6906182E0D2E6F0900539E0602185FA
:10256800C6228016900391E064017008E5C654F80D
:102578004405F5C653BEFC1222A87401652160E427
:10258800EEA2E092AF7F01021BFB00008E238F2496
:10259800858228858327851882851983E0CEA3E064
:1025A800CF852882852783EBC9EAC8EDCBECCA75AD
:1025B800F010C3E833C8E933C9EA33CAEB33CBC3F5
:1025C800EA9EF526EB9FF525B35004AB25AA26EC29
:1025D80033CCED33CDD5F0DAAE23AF242274E91233
:1025E8001B4F74FA121A73EAFEEBFF8C088D09125E
:1025F8000F76EAF8EBF9ECFAEDFB8E828F8312196D
:102608006D90038CE024F7C3940550067510010201
:10261800271B120EAA8A0A8B0BEA4B700302271893
:10262800120F6A8A0C8B0D120F6AEA650C7003EBA5
:10263800650D60ECEEFCEFFDAA18AB19120F708562
:102648000A82850B83A3A3780C12191F908F8678B2
:102658000C1218F9851882851983781412191F909D
:102668008F8678141218F9780C7914121687501F6F
:10267800780C79141218B9908FBA780C1216A740F2
:102688005D850C10850D11850E12850F138037900E
:102698008FBA8514108515118516128517137810B1
:1026A800790C1218B978101216A7503275100075E7
:1026B8001100751200751301781079141218B97881
:1026C80010790C12188074097810121861908FC64E
:1026D800780C12191F7810790C121746800C751097
:1026E8001475110075120075130090038CE06408CE
:1026F800600AE064066005E064057020908FBE788B
:10270800101216A75016908FC27810121893800CCA
:102718007510007511007512007513008508828503
:102728000983781012192E7406121A897F10021B59
:10273800FB74F7121B4F120F88900537E064017085
:1027480010906245E4F0A3F053F4F343FE0C539069
:10275800F3120F22E5C654B84441F5C6E59E544726
:10276800644170F8906185740FF0900535E0F4705D
:1027780002A3E0602C750801750900900535E07822
:1027880008121A60E508F4FAA3E0600814600A1455
:10279800600C800DEA52808008EA52908003EA5269
:1027A800A079007F02021BFB74F7121B4FE9FEEAB7
:1027B800FF74016E700C7A807B0090038BE0F91235
:1027C80014B0902B10E493F46008E493F9120CE829
:1027D800800953C6B8E59E544770FA120F28900531
:1027E80037E064017003120D1E900535E0F47002A5
:1027F800A3E0602B750801750900900535E078089D
:10280800121A60E508FAA3E0600814600A14600C64
:10281800800DEA42808008EA42908003EA42A012D2
:102828000EAA8B09A909EA496016E5E170FCEA24B9
:1028380014F582E439F583E0F874FF68600288E1F2
:1028480074016F700A7A0190038BE0F91215400247
:1028580027AB74F1121B4F8A088B098C0A8D0B90D9
:102868008F8678081218F9740F121ABF780C12198B
:102878001F908F86780C1218F97808790C12168731
:10288800908FBA50107808790C1218B97808121677
:10289800A74014800E780C79081218B9780C121613
:1028A800A750047901800279007F08021BFB74EDB0
:1028B800121B4F8A088B098C0A8D0B908F8678081B
:1028C8001218F97413121ABF780C12191F908F86F8
:1028D800780C1218F9780C790812168740117808C4
:1028E800790C1218B9AA08AB09AC0AAD0B8022758D
:1028F80010007511007512007513017810790C120B
:1029080018B978107908121880AA10AB11AC12AD5A
:10291800137F0C021BFB908F86780812191F8A827E
:102928008B83780812190C7F04021BFB74F5121BA9
:102938004F8C828D83780812191F8A828B837808BE
:102948001218E5122988C3E098F0A3E09912297AB1
:10295800401E909016780812191F8A828B83780877
:102968001218A68E828F83E02420F0A3E0344EF064
:1029780080A4F08E828F83C3E09420A3E0944E223B
:10298800EA2404F8E43BF9E8FEE9FF8C828D83A38E
:10299800A3A3A3E0F8A3E0F98E828F832274F51233
:1029A8001B4F9004EFE0FAA3E0FBE929F8E433F9C0
:1029B80074E728F582748E39F583E02AF508A3E0D8
:1029C8003BF5097808121CF690900612193D12255D
:1029D800947402121A898A088B098C0A8D0B741058
:1029E8007808121848AA08AB097F04021BFB74F187
:1029F800121B4F8A0C8B0D8C0E8D0F7411121ABF7F
:102A0800121D0D7411121ABFE02401F508A3E03459
:102A180000F509E4F50AF50B780C79081216C6904A
:102A28008FCE780812191F780C79081216C6AA0CCE
:102A3800AB0DAC0EAD0F1225947402121A89EA4B35
:102A480060047A0180027A00EC2AFCE43DFD7413EC
:102A5800121ABFE0F8A3E0F9E8FEE9FFECF8EDF997
:102A68007A717B021219E888088909E4F50AF50BDE
:102A78008E828F83780812192EECF8EDF97A717B23
:102A8800021219E88A088B0974057808121A608EF0
:102A9800828F83A3A3A3A3E508F0A3E509F07F0829
:102AA800021BFBC082C083E9906000F0D083D08213
:102AB80022C0E074F2121C3BA2AFE433FED2AFE5B1
:102AC80089A2E04006E589A2E150031213AE758998
:102AD80000758900C2C5751A00EEA2E092AF7F01A9
:102AE800021C9AC0E0C0D0E8C0E0A8A8D2AFC2C714
:102AF800751A00E8A2E792AFD0E0F8D0D0D0E03263
:062B0800C2AF0200002232
:102B1000FFFFFFFFFFFFFFFFC082C083E990171395
:102B2000F0D083D08202013274F6121AE3E99002E7
:102B3000FEF090035EE0F508750900740278081253
:102B40001A60AA08AB091215289002FF122FFC6028
:102B50006E90035EE075F003A4FAABF012152890B6
:102B6000031C122FFC700B9002FF12384012152E1E
:102B7000804D90031C1247A97AFF7BFF1213187A2D
:102B800000801EEAF50875090074027808121A60C0
:102B900012424574FFF0A31247BDA3A3E4F0A3F0D3
:102BA0000A90035EE0F8EAC39840D8790512095804
:102BB0009002FEE0F91208447AE27B09120BCE0281
:102BC00042E174F4121AE38A088B09EB54806047DF
:102BD0009002FEE0F91214988A0A8B0BAE0AAF0B32
:102BE000EA4F602A8A828B83E064B0701A12096A05
:102BF000E960148E828F83A3A3A3A3E0F9EE2405DA
:102C0000FAE43FFB12093AEEFAEFFB121486AA0827
:102C1000E5096480FB80047A007B00022E2A74F2AE
:102C2000121AE374FB121A73EAFEEBFFEA4F6043D9
:102C30007403121ABF1234A9851882851983ECF027
:102C4000A3EDF07402121ABFE9F0AA18AB1912082A
:102C50003EE9F50870777413121ABFE0F50AA3E095
:102C6000F50BE50A450B60658E828F8312323DEECF
:102C70004F700575080280557A067B001215288A68
:102C80000C8B0DA80CA90DEA497005750813803D41
:102C90008A828B83E4F0122CD4A3EEF0A3EF124AC5
:102CA00082E50AF0A3E50BF0900302122DEE9003EB
:102CB000026017E0FCA3E08003EAFCEBFD8C828D50
:102CC00083122DEE70F38C828D83123E65A90874F9
:102CD00005024A1BA3F08A828B83A32274F2121A84
:102CE000E38908E9F50C750D007403780C121A607D
:102CF000850C0A850D0B900301F09002FF12478EA0
:102D0000122DEC602F12152E7900801EE9F50C753E
:102D10000D007402780C121A609002FF1240FE88B7
:102D200082F583A3A3E4F0A3F00990035EE0F8E941
:102D3000C39840D890035EE0FA850AF0A4CAA8F0D0
:102D4000850BF0A428FB1215288A0C8B0DAE0CAF56
:102D50000DEA4F7003022DE290035EE0FC850AF05D
:102D6000A4CCA8F0850BF0A428FD79001214747C83
:102D7000008032EDF50C750D007403780C121A60AA
:102D80008A828B83122DE78882F583E4F0122DF47A
:102D9000A3A3F0A3F00DEDC3950840D7EE250AFEDE
:102DA000EF350BFF0C90035EE0F8ECC3985029EC74
:102DB000F50C750D007402780C121A609002FF1267
:102DC0002DE7E82402500109FAE9FB8A82F583EE37
:102DD000F0A3EFF07D0080BEE508900301F07900DC
:102DE00080027913024A1E124102F922A3A312346F
:102DF000C1EA4B22A3F088828983A3A3A3A32274F0
:102E0000F4121AE37900EAA2E0501F75085275091E
:102E10008F7808121CF679107C047D007A157B17D8
:102E20001209527402121A89E9F97F04021BB5C013
:102E300082C083900302124204601C88828983A3AB
:102E4000A3E06A7003A3E06B8882898370E8A3A380
:102E5000A3A312384080047A007B00022B2174F275
:102E6000121AE374FD121A73EAFEEBFF85188285CD
:102E70001983E4F0A3F07402121ABF7401F09003F6
:102E8000051242047011120B081215289003051246
:102E90002FFC7003022FF0123596EE2404F50AE49D
:102EA0003FF50B850A82F583E024FE603C24FC603C
:102EB0007424FE607E24FE7003022F4024FE700303
:102EC000022F4D24FE7003022F5A24FE7003022F9E
:102ED0006724FE7003022F7424FC7003022F9524D4
:102EE000FE7003022FAD022FE9120B08900307EAD0
:102EF000F0A3EB12300512058CE96003022FE99074
:102F00000307121D0D8E828F83A3A3A3A3A31247D1
:102F1000A985088285098312384012092274021299
:102F20001A89022FE9AC18AD19EEFAEFFB120970FD
:102F3000022FB8AC18AD19EEFAEFFB1209768078C3
:102F4000AC18AD19EEFAEFFB12097C806BAC18AD32
:102F500019EEFAEFFB120982805EAC18AD19EEFA99
:102F6000EFFB1209888051AC18AD19EEFAEFFB1295
:102F7000098E80447402121AC9880C890D780C12CB
:102F80001CF67402121AD9EEFAEFFB1209947402BD
:102F9000121A898023AC18AD19EEFAEFFB12099AC8
:102FA000E9F870167402121ABFE4F0803CAC18AD58
:102FB00019EEFAEFFB1209A0E9F8E8602C8E828F77
:102FC00083A3E064146022850A82850B83E090036A
:102FD00007F085188285198312384090030812344F
:102FE000A9E8A3123005120586EEFAEFFB1208F8E5
:102FF0007402121ABFE0F97403024A1BEAF0A3EB51
:10300000F0F9EA4922F07C077D038508828509836F
:103010001234C12274E8121AE374FA121A73740497
:10302000121ABFECF0A3EDF08A128B13EA2405F517
:103030000EE43513F50FEA2402F510E43513F5110B
:10304000851082123AE77508007C037D0079007ACA
:10305000077B03121474E50E2402F516E4350FF510
:10306000177402121AC9880C890D780C121CF68587
:103070000E82850F83A3A3A3A3E0F50C750D007842
:103080000C121CF6E50E2405F50CE4350FF50D7851
:103090000C121CF6851682851783123B2F121A8993
:1030A0008A0C8B0DE50C450D700302320C802085D7
:1030B0001882851983E088828983F0050885188243
:1030C000851983A3E0C0E0123247D0E0F00508E59F
:1030D0000A24FBF8E50B34FFF9C3E50898E49940AE
:1030E0000302320C7E007F00851282851383A3A326
:1030F000A3A3E0F5097809121CFAE4F514F5157894
:1031000014121CF67514047515037814121CF6902D
:103110000305121D0D7409121ABF121D0DE50A24B4
:10312000F9F9AC0CAD0D123B41121A89E9600302AA
:1031300031B3850E82850F83A3A3A3A3A3A3A3E02A
:10314000F8900304E068706BE0F5148E15781412A3
:103150001CF61247A6850E82850F83A3A3A3A3A303
:10316000A3A3A312384012146E7402121A89E960E4
:10317000421242017034E4F5147814121CF67CFFFC
:103180007DFF7907123B50121A898B15A91512324F
:103190005C7017850E82850F831249357404121AEC
:1031A000BF1241EE123B6202323A850C82850D83DA
:1031B00012323DA818A919881489157814121CF622
:1031C0007404121ABF121D0D851682851783123BD7
:1031D00011121A898A0C8B0DEE4F70030230A41263
:1031E0003247EE123252123AF8EF123252F8A3E09E
:1031F0003400F9E50C4B60030230AF888289837498
:10320000FFF0050812324774FFF00508E508601466
:103210001313543F1234AF120598E960031241159D
:1032200079008016850E82850F8312493574041249
:103230001ABF1241EE123E65790A023AC8A3A3A34F
:10324000A3E0FEA3E0FF22A808900308E028123ABA
:10325000F822F0050808900308E02822900308EA05
:10326000F0A3EBF0EA492274E8121AE374FA121A96
:10327000737402121ABF1234A97404121ABFECF04C
:10328000A3EDF07402121ABFE02405123AD2F583BE
:10329000E0F50CA3E0F50D7402121ABFE02402F56C
:1032A00010A3E03400F5118510821238447508002F
:1032B000750900EA24FCFEEB34FFFF8008050CE5ED
:1032C0000C7002050DA808C3EE98EF94005003029D
:1032D000345AA818A919880E890F780E121CF68581
:1032E0001482851583A3A3A3A3124785121CF6E5B8
:1032F000142405F50EE43515F50F780E121CF6852D
:103300001482851583A3A31247A9AA0CAB0D12083A
:103310005C7406121A898A0E8B0FEA4B7003023412
:103320005AEA2404F516E4350FF517851682F5835D
:10333000E0F50CA3E0F50D851882851983121D0DAB
:10334000AC0EAD0F851082851183123ADE121A89F8
:10335000E9F509600302345A7402121ABF123B08DD
:10336000F5097809121CFAE4F512F5137812121C0B
:10337000F67512047513037812121CF690030512E9
:103380001D0D7407121ABF121D0DEEF9AC0EAD0F14
:10339000123B41121A89E9F509600302345AE50823
:1033A000703BE4F50EF50F780E121CF67CFF7DFFE6
:1033B0007909123B50121A898B0FA90F9003091239
:1033C000325F700D7404121ABF12349C79110234EA
:1033D0008B900304E02402900308F080149003080B
:1033E000E0FA900304E0790024025001096A497070
:1033F0006DA808900304E0FAE82AFAE43400FBEE32
:103400009AEF9B4055851682851783E0C0E09003B4
:103410000912324CD0E0F00508851682851783A387
:10342000E0C0E00890030912324CD0E0F0050890AB
:103430000304124785121CF61247A6A80812348E00
:10344000121A89900304E02508F50874FF650C70D2
:103450000474FF650D60030232BDE508601C900333
:1034600008E0F5F0E508841234AF12059EE9600625
:1034700090030912411879008011E509700375095C
:103480000A7404121ABF12349CA909023AC89003A4
:1034900009E028FAA3E0340012476322124792E5BC
:1034A0000CF0A3E50DF022A3A3EAF0A3EBF0229029
:1034B0000307F07C077D038510828511831234C1D8
:1034C00022123E55FB2274EC121AE374FC121A739A
:1034D000123F757402121AD9850A82850B8312363F
:1034E000957003023586123596A818A91988108997
:1034F000117810121CF67CFF7DFF790B8508828500
:103500000983123B56121A891235A0700B850A8264
:10351000850B83123B5F807B8E828F83A3A3A3A343
:10352000E0F5127812121CFAE4F512F51378121273
:103530001CF67512077513037812121CF678101218
:103540001CF67409121ABF121D0D7409121ABF124B
:10355000368E850882850983123B47121A89E9FE57
:1035600070157C077D038508828509831238401217
:1035700005A4E97009801A74166E70027E0012416B
:1035800015EE7004800B7E01850A82850B83123E46
:1035900062EEF9023E77EE2402F508E43FF50922D7
:1035A0008A108B11900308EAF0A3EBF0EA4B227427
:1035B000EC121AE374FC121A73EAFEEBFF8C0E8D08
:1035C0000FEA2405F508E43FF5097402121AD985BB
:1035D0000882850983123695700302367EEE240236
:1035E000F50AE43FF50BA818A9198810891178107D
:1035F000121CF67CFF7DFF790D850A82850B8312F4
:103600003B56121A891235A0700B850882850983F2
:10361000123B5F80768E828F83A3A3A3A3E0F51273
:103620007812121CFA850882850983A3A3121D0D46
:103630007512077513037812121CF67810121CF617
:103640007409121ABF121D0D7409121ABF12368E98
:10365000850A82850B83123B47121A89E9FE700F97
:103660007C077D0312383A1205AAE97009801A74A2
:10367000166E70027E00124115EE7004800B7E0102
:10368000850882850983123E62EEF9023E77E0F9F1
:10369000AC0CAD0D22123E4D8A0C8B0DEA4B227400
:1036A000E8121AE374FE121A738A168B178C148DA3
:1036B00015EA2405F50CE43517F50DEA2402F50E9C
:1036C000E43517F50F850E821238448A088B097588
:1036D0000B007C037D0079007A077B03121474755C
:1036E0000A00E50814F5100424FFF508E50934FF85
:1036F000F509804C900307E0FA900304E0F8EA280B
:10370000F8E43400F9E50898E50999500D900307AD
:10371000E0F8E510C398900304F0E0F5127513008B
:103720007812121CF61247A6900308E02A1234936E
:10373000121A89900304E0F8900307E028F0050AC4
:10374000850C82850D83A3A312410E400302381F0E
:10375000900307E0C39508E49509400302381FAEC3
:103760000AEE2EFEE433FF123861AC18AD19124791
:10377000B3E439FB1208628A128B13AC12AD13EA60
:103780004D701B750B01123852123E6690030812E1
:103790002DEE60031214E0A90B7402023ACA8516DA
:1037A00082851783A3A3A3A3E0F50B780B121CFA61
:1037B000E4F512F5137812121CF675120475130352
:1037C0007812121CF6900305121D0D7407121ABF11
:1037D000121D0DA910850E82850F83123B47121A08
:1037E00089E9F50B70A012420160030236F4E4F59A
:1037F00012F5137812121CF67CFF7DFF790F850EEF
:1038000082850F83123B56121A898B13A913123229
:103810005C60030236F4123852123B630237997C23
:10382000077D03850E82850F831238401205B0E9AB
:10383000600302378C7900023799850A82850B83F1
:103840001234C12212384822F583123E55FB12066B
:103850007C22123861123E55F9EA8514828515835F
:1038600022850C82850D83E02EF8A3E03F8882F547
:10387000832274E8121AE374FA121A737404121A87
:10388000BF1234A98C168D177404121ABFE02405D8
:10389000F50EA3E03400F50F7404121ABFE0240201
:1038A000123AD2123AE77F007E00A818A9198808B8
:1038B00089097808121CF6850E82850F83A3A3A3BD
:1038C000A3E0F5088F097808121CF6E50E2405F52B
:1038D00008E4350FF5097808121CF6850E82850F6D
:1038E00083A3A3123B2F121A898A0C8B0D802412FA
:1038F0003B02F00F123B02F00F900304123E38120D
:103900001CF61247A6EFF812348E121A899003049F
:10391000E02FFFE50C450D607A851882851983122A
:103920001D0DAC0CAD0D851482851583123ADE1287
:103930001A89E9FEE50C2404F510E4350DF511E9CA
:10394000704B7404121ABF123B08F5087808121C59
:10395000FAE4F508F5097808121CF67508047509EB
:10396000037808121CF6900305121D0D7407121A35
:10397000BF121D0DE50A24FAF9AC0CAD0D851482B9
:10398000851583123B47121A89E9FE6036123B1EE9
:10399000123E65EF7003023AB5900308E0F5F0EFD0
:1039A00084900307F07C077D0385148285158312BC
:1039B00038401205B6E960069003091241187900F3
:1039C000023AC8EFF508703DE4F512F513781212CB
:1039D0001CF67CFF7DFF7911851482851583123BCF
:1039E00056121A898B13A91390030912325F7009BA
:1039F000123B1E123B62023AC8900304E02404907A
:103A00000308F08035900304E0F8900308E0FCE838
:103A10002404FAE43400FBEA6C4B6003023999E5B4
:103A20000A24FAFAE50B34FFFBE50828F8E4340031
:103A3000F9EA98EB99500302399985108285118330
:103A4000E0C0E0900309E02FF8A3E034008882F59D
:103A500083D0E0F00F851082851183A3E0C0E012CF
:103A60003AEFD0E0F00F7402121AC9880889097879
:103A700008121CF67402121ABF121D0D850E8285E3
:103A80000F83A3A3123B11121A898A0C8B0DEA4BE8
:103A900070030238EF7402121ABFE0C0E0123AEF6E
:103AA000D0E0F00F7402121ABFA3E0C0E0123AEFA8
:103AB000D0E00238F7EE70027E0A850E82850F8311
:103AC000123B24123E65EEF97406121A897F100229
:103AD0001BB5F514A3E03400F515851482221234C9
:103AE000C112084A7402221238488A0A8B0B221229
:103AF0003AF322900309E02FFAA3E034008A82F51A
:103B00008322123AF374FF22124792A3A3A3A3E0E5
:103B1000221247ADAA0CAB0D12086874042285105E
:103B20008285118312493BF98516828517832212FB
:103B300047AD850E82850F831234C112085C74066E
:103B4000228510828511831234C11209CA74092298
:103B50008510828511831234C11209347402221235
:103B60003E6BE8F0A3E9F079112274EA121AE374CB
:103B7000FE121A738A088B098C128D13EA2405FE33
:103B8000E43509FF123E418A0C8B0DEE2406F50E3A
:103B9000E43FF50FEA4B7003023C50E5082402F5C0
:103BA0000AE43509F50B8A828B83A3A3A3E0A2E57F
:103BB0005022123C7A8A108B11EA4B60247912ACA5
:103BC0000CAD0D12383A851082851183121AE1E985
:103BD000F50C707F850E82850F83E0600979528035
:103BE00011750C0E806D850882850983A3A3A3A39C
:103BF000E0F9E4F508F5097808121CF68E828F8347
:103C0000A3A3E0F5087808121CF68E828F83A3A385
:103C1000A3121D0D8E828F831247A9850A82850B00
:103C200083123F87121A89E9F50C7011850E82857F
:103C30000F83E0702C12383A1205BC802474166988
:103C40007011750C007418121ABF12478EE48010A0
:103C5000750C01124931851282851383E8F0A3E9BE
:103C6000F0850E82850F83E0600479008002A90C44
:103C70007402121A897F0E021BB58518828519837A
:103C80001234C11209BE2274EC121AE374F7121A2C
:103C9000738A0A8B0B8C108D11EA2405FEE4350B18
:103CA000FF750C00123E418A088B09EA4B70030233
:103CB0003E23E50A2402F50A5002050B8A828B8313
:103CC000A3A3A3E0A2E55025123C7A8A0C8B0DEA4F
:103CD0004B604F7912AC08AD0912383A850C8285D9
:103CE0000D83121AE1E9F50C6003023E26850A8273
:103CF000850B83E0F508A3E0F509AA08FB1209B2D9
:103D0000EA4B70197AFF7BFF1209B2EA4B7003028B
:103D10003E198A828B83E508F0A3E509F075080057
:103D20008008750C0E023E260508900301E0F8E5B8
:103D300008C3984003023E19E508F50E750F00749C
:103D400003780E121A608A828B83A3A3E0250EF8F3
:103D5000A3E0350F1241F670CF8E828F83123E5A48
:103D60001234A98E828F83A3A3123E5A1234A7EE77
:103D70002404F508E43FF509850882F583E088828C
:103D80008983A3A3A3A3F0A3E4F0EE2405F50EE436
:103D90003FF50F850E82F583123E5AA3A3A3A3120B
:103DA00034A77512077513007812121CF6EEFCEF9B
:103DB000FD7404121AD1124764121A89E4F51278BC
:103DC00012121CF6850882850983E0FC7D007917B4
:103DD000850A82850B83123B56121A897407121AC0
:103DE000BF1235A76038850882850983123E3812D4
:103DF0001CF6850E82850F831247A9124764121A9A
:103E0000897402121AD912383A1205C2E960237471
:103E100007121ABF1241188019750C098008750C19
:103E2000118003750C0112493185108285118312AE
:103E30003E65A90C74098041E0F508750900780811
:103E400022AC18AD198E82F583123E4D22123E55DA
:103E5000FB12086222E0FAA3E0221234C1888289B0
:103E60008322123E6BE8F0A3E9F022E0F8A3E0F928
:103E7000850E82850F83227404121A897F0C021B1F
:103E8000B574EC121AE3123F75751000EA2402F5BE
:103E90000CE43FF50D850C82F5831238401209B20F
:103EA0008A088B09EA4B7003023F59850A82850B09
:103EB00083E064016003023F4EAC08AD09AA0AAB7F
:103EC0000B1209A6E9606F85088285098312323FCB
:103ED000EE2406F50AE43FF50B8E828F83A3A3122E
:103EE0001D0D8E828F83A3A3A3A3121D0D850A82AD
:103EF000850B83121D0D79188E828F831247A98539
:103F00000C82850D83123F87121A89E9F8741668AE
:103F1000700B850A82850B83E4F0A38014E960129C
:103F20008E828F83123840850E82850F83EAF0A33C
:103F3000EBF089108018780E121CF6AC08AD09EE73
:103F4000FAEFFB1209AC7402121A89E9F510AA08FB
:103F5000AB091209B8E510700E850C82850D83122D
:103F600038401205C880097416651070037510007A
:103F7000A910023E7CEAFEEBFF8C0E8D0FEA2405B1
:103F8000F50AE43FF50B221234C11209D07406225F
:103F900074EA121AE37508007509007E007F007547
:103FA0000A00EC2402F510E43DF5118035EC6508BB
:103FB0007003ED6509600302404588828983A3A3ED
:103FC000E06A7003A3E06B707C88828983A3A3A35B
:103FD000A3124935EE28FEEF39FFEA28FAEB39FB48
:103FE000050A12410B503BE50AF50C750D007403F0
:103FF000780C121A608510828511831240FE1241DE
:10400000F6601FE508450970A48C088D098882892F
:104010008312323D88828983A3A3E02EFAA3E03F76
:1040200080BDE50AC3940250030240F9750800758B
:104030000900EE4F600FEEFAEFFB1214DA8A0E8BD6
:104040000FEA4B700579000240FB750B00807FE59D
:104050000BF50C750D007403780C121A6085108234
:10406000851183E0250CF50CA3E0350DF50DE50C6D
:104070002406F514E4350DF5158514821241F96016
:104080003AE50C2404F512E4350DF513851282F59A
:1040900083121D0DE50E2508FAE50F12475D121A71
:1040A00089851282851383E02508F508A3E0350988
:1040B000F509851482851583124118E50B600D7C86
:1040C000087D007900AA0CAB0D121474050BE50BEA
:1040D000C3950A500302404F85108285118312490F
:1040E000358882F583A3A3A3A3A3A3E50EF0A3E5DC
:1040F0000F122DF5EEF0A3EFF07901023C7512419D
:104100000222E0250CF8A3E0350D22900301E0F82F
:10411000E50AC398229003081234C11214E02274F5
:10412000F0121AE38A0E8B0F8C0A8D0B750D007539
:104130000C00804A7916EE2406F508E43FF5098E56
:10414000828F83A3A3121D0D8E828F83A3A3A3A3AB
:10415000121D0D850882850983121D0D850E82852D
:104160000F83A3A3123F87121A89E9F50D7416690C
:104170007064850882850983E4F0A3F0050C900340
:1041800001E0F8E50CC398505EAA0C7B008A088B0E
:104190000974037808121A60850A82850B83A3A329
:1041A000124250E8FEE9FF1241F7603BEA24010A9F
:1041B00050010B900301E06A7001EB601488828962
:1041C00083A3A3A3A3A3A3A3A31242046003024156
:1041D000347918024136E960A31249317410121A79
:1041E000BF1241EE123E65A90D7F08021BB5123EBB
:1041F00055F5838A8222F98882F5831247ADEC4D0A
:104200002290030812493BF9E8492274F6121AE396
:104210007C0080010C90035EE0F8ECC398501FEC2A
:10422000F50875090074027808121A60124245E018
:104230006A7003A3E06B70DCE8FAE9FB80047A00A3
:104240007B000242E19002FF1242508882F58322F5
:10425000E02508F8A3E03509F92274F2121AE38A7E
:10426000088B09750A0080278E828F83A3A3A3A3DE
:10427000122DEC60031214E07C087D007900EEFA48
:10428000EFFB1214748E828F83E4F0A3F0050A1200
:10429000410B5028E50AF50C750D007403780C12DB
:1042A0001A60850882850983A3A3E0250CFEA3E09C
:1042B000350DFF8E82F58312420470AC850882852D
:1042C000098374FFF0A3F0024A1E74F6121AE31277
:1042D00048D270067A007B008007A3A3A3A31238FC
:1042E000407F02021BB574F6121AE3E9FE8C828D40
:1042F00083E06402703D1248C2F508A3E0F9A80803
:1043000074026870037429697029750802750900C0
:104310007808121CF6740E121ABF121D0D740E12BC
:104320001ABF121D0DEEF912132A7406121A89E92A
:10433000F98002790180AA74E8121AE374FB121A58
:1043400073E9851882851983F08A168B17ECFEEDC8
:10435000FF7510008C82F583A3A3A3E0A2E4502A8A
:10436000741D121ABF123C808A828B83E5824583BA
:104370007003024753790AEEFCEFFDAA16AB171241
:104380001AE1E9F5106003024756741F121ABFE0E4
:10439000F508A3E0F5097421121ABFE0F50AA3E0BD
:1043A000F50B7423121ABFE0F50EA3E0F50F8E8211
:1043B0008F83E0640260030246FFA312493585083B
:1043C00082850983A3858212858313EE2406F50C6A
:1043D000E43FF50D888289831247B3F514E439F57B
:1043E000157814121D800100002801280E440700D2
:1043F0000228DA44032843440029FB4501292646C4
:104400000229C4450329FB4504299C46FF46E50EC5
:10441000450F60030246FA850C82850D83124935EB
:10442000E8FAE98882F583E0850A82850B831247E2
:10443000BD12476A121CF68A828983A3E0FCA3E0BE
:10444000024688E50E450F60030246FA850A82851A
:104450000B837401F012479B850882850983F07CE9
:10446000007D008E828F83A3A3A3A3E02401FAA37F
:10447000E03400FB120862EA4B60458A828B83E0DD
:104480002402F8850A82850B83E028F0EA2404F8E8
:10449000E43BF98882F583E0851282851383124715
:1044A000C3F08A828B8312476A121CF68A828B833E
:1044B000A31247A9E5082403FAE43509FB02468D57
:1044C000850A82850B83E02404F07C047D0079005A
:1044D000AA12AB13121474024756E50E450F60037F
:1044E0000246FA12479BFEA3E0FF850A82850B83F2
:1044F0007404F0EE850882850983F0EF85128285C9
:104500001383F07403121AD91248B470030245A53C
:104510008A828B83A3A312323D7401121AC9880EBA
:10452000890F780E121CF67405121ABF121D0D7C2D
:10453000FF7DFF1208687404121A89EA4B703385F4
:104540000C82850D83124785121CF6850C82850D21
:1045500083A3121D0D7C027D007A517B9012066AA6
:104560007404121A89E9700A7401121ABF74FFF0F8
:10457000A3F08E828F83E064027034750C02750D97
:1045800000780C121CF68E828F83A31247A9E508CF
:104590002404FAE412475D121A89850A82850B8386
:1045A000E0240280097401121ABFEEF0A3EFF07448
:1045B00001121ABF12477BF07401121ABFA31247EF
:1045C000730246F4E50E450F60030246FA850C823D
:1045D000850D8312478E1247A9AA16AB1712133006
:1045E000850A82850B837402F0850882850983EA37
:1045F000F0851282851383EB0246F7E50E450F60C6
:10460000030246FA12479BF8A3E0F9850A82850B5C
:10461000837402F0E8850882850983F0E9851282B7
:104620008513830246F7850C82850D83123840126C
:104630001456EAF8C3950EE4950F405AEA650E4504
:104640000F700478008021851882851983E0FCE5CD
:104650000E2CFCE4350FFDC3EC9AED94005003E002
:104660008005E50EC8C398F8E8850A82850B83F0BB
:10467000F50A750B00780A121CF6850C82850D83ED
:10468000E0250EFCA3E0350FFDAA08AB0912476434
:10469000121A89024756751007024756E50E450F54
:1046A0007058850C82850D83124935850A82850BE9
:1046B0008374071247BD1247731247BDA3E08512EA
:1046C00082851383F0E82402FAE439FB8A82F583B9
:1046D000124773A3122CD412477B122DF412477F7A
:1046E000F0E82405F8500109F582898312477FA379
:1046F0001247C3A3A3A3A3F0805C75100B8057746B
:104700001D121ABF1248CB604A12493B880CF50DA6
:10471000E8450D603E7425121ABFE0F510781012BE
:104720001CFA780E121CF6780A121CF67808121C75
:10473000F67407121ABFE0F9EEFCEFFDAA16AB17EC
:10474000850C82850D83121AE17407121A89E9F526
:1047500010800375100EA9107405023ACA350912AB
:10476000476322FB12145C740222E0F50A750B0009
:10477000780A22E0850882850983221247CD221219
:1047800047CDA3A322E0F50E750F00780E22124745
:104790009222E0F8A3E0F583888222850C82850DC1
:1047A00083124792E0229003051247AD22E0FCA35A
:1047B000E0FD22123E55F8E4C8F9EA2822F088828A
:1047C000898322F088828983A31247CD22E085085D
:1047D00082850983A3A32274EE121AE374FE121ACF
:1047E000738A088B09ECFEEDFF890AAC18AD19122B
:1047F00048B470030248A58518828519831248CBF6
:1048000070030248A0A312493A880EF50FE8450F3D
:1048100070030248A07414121ABFE0F510A3E0F56B
:1048200011E50AF50B780B121CFA7419121ABF1253
:104830001D0D7810121CF6741B121ABF12368EAAA8
:1048400008AB09850E82850F83121AE17405121ACE
:1048500089E9F50B705274FE650A604C850C8285FF
:104860000D83E0640270411248C2FAA3E0F9EAF84D
:104870007402687003742969702E85108285118313
:104880001247B3F50CE439F50D780C121CF6EEFC6A
:10489000EFFDAA08AB091209E87402121A89800810
:1048A000750B0E8003750B01A90B7402121A897F18
:1048B0000A021BB5EEFAEFFB1208628A0C8B0DEAB6
:1048C0004B2212493A8882F583E0221234C1124801
:1048D000D2221209648A828B83E58245832274F690
:1048E000121AE374FE121A73740C121ABF124935AD
:1048F000E8851882851983F07401121ABFE9F0E483
:10490000F508F5097808121CF67508027808121CDB
:10491000F67404121AC9880889097808121CF679F5
:10492000FE1209D07406121A897402121A89024200
:10493000E18E828F8312493BF922A3E0F8A3E022A3
:1049400074F7121AE3EAFEEBFF890890031C124782
:10495000A9121330EA5402600BA908EEFAEFFB1219
:104960000856800279017F01021BB574F2121AE326
:1049700074FE121A73EAFEEBFF740169601374028D
:10498000696003024A197901120BECE96003024ADB
:1049900019EEFAEFFB1209B2EA4B60031209B8A84C
:1049A00018A919880889097808121CF67508027573
:1049B00009007808121CF675083D750990780812F0
:1049C0001CF67CFF7DFF7A017B0012085C740612E6
:1049D0001A89803B850882850983A3A3A3A3A3A387
:1049E00012478E1247A9EEFAEFFB121318E4F50CEA
:1049F000F50D780C121CF67402121ABF121D0D7CF4
:104A0000FF7DFFAA08AB091208687404121A898A8C
:104A1000088B09E508450970BB7402121A897F06E4
:104A2000021BB574F4121AE38A088B09ECFEEDFF41
:104A3000901713E0F460487A097B00121480EA4B67
:104A4000603D8A828B8374B1F0A3E4124A82122CF7
:104A5000D5A3E508F0A3E509124A82A3EEF0A3EF7F
:104A6000F0740C121ABF1249358A828B83A3A3A358
:104A7000A3A3A3A3123E65901713E0F912148C02AE
:104A80002E2AF08A828B83A3A3A3A322C082C08391
:104A90009061907404F0A374481260A390618074D4
:104AA00040F09061BC7407F09061877469F0906188
:104AB000B67416F07900120D0C7902120D12902BBB
:104AC00010E493F46006E493F9120CE879051210EF
:104AD0001E025060C082C083E9540FF9906185E0E6
:104AE000696012E5C654B84441F5C6E59E54476472
:104AF0004170F8E9F053C6B8E59E544770FA025089
:104B00006074F7121AE3AEA853A87E120CF4C2BA6E
:104B1000539AFEC289759B00C2C2120CFA75A91184
:104B200075B905120D00D2BA439A0174805E42A88D
:104B30000252C3C082C083906181E4F0A302505747
:104B400075E90075910075BF00020132C082C08313
:104B5000906181E4F0A374C0F0A3E4025059C082D4
:104B6000C08374F8121A7390038E1263E570030207
:104B70004C0790038EE0544060177908AA18AB19CF
:104B8000120E0EAA18AB19120A5490038EE054BFED
:104B9000F0E054806010790C7A5D7B05120E0E9067
:104BA000038EE0547FF0E0A2E050087900124C0F31
:104BB00054FEF0E0540260087901124C0F54FDF0ED
:104BC000E0540460087900124C1A54FBF0E05408D9
:104BD00060087901124C1A54F7F0E054106008791B
:104BE00002124C1A54EFF0E0542060087903124C82
:104BF0001A54DFF0A3E05401600D120D1E120A6674
:104C000090038FE054FEF07408121A89025060126B
:104C10000D0C120A5A90038EE022120D12120A6035
:104C200090038EE022C082C083E9600514602A8070
:104C30004F90619A7433F0A37455F09061A0743A68
:104C4000F0900537E064017009C291900390746799
:104C5000802D9003907461802690619A743FF0A338
:104C6000745AF09061A0747FF0900537E064017091
:104C700009D29190039074718005900390746AF04A
:104C8000025060C082C083E9600B14600D1460178D
:104C900014600C8020902B148015902B15801090A0
:104CA0000537E064017005902B168003902B17E404
:104CB00093906186F002506074EC121AE374F4125F
:104CC0001A73908F82AC18AD197404121986902B48
:104CD0001493F46003024DDB907808E0C394025013
:104CE00003024DBF908F2E7404121AD97408121942
:104CF000867F00750CFF750DFF750EFF7E00EFFCC3
:104D000025E0F8E433F97404121ABFE58228F5822D
:104D1000E58339F583E0F512A3E0F513800F7408FD
:104D20006E605B74096E6056740A6E6051EEF50831
:104D300075090074027808121A60124DE512191FE5
:104D4000A909E50AC9F51074187808121848E51081
:104D50004508F8C3E51298E51399400AE512C3988F
:104D6000F8E513998008E8C39512F8E99513F9C39B
:104D7000E8950CE9950D5006880C890D8E0E0EEE07
:104D8000C39413409974FF650C700474FF650D6043
:104D900024E50EF50874027808121A60124DE51227
:104DA000191F851882851983E5822CF582E43583E5
:104DB000F583E508F00FEFC394045003024CF3753C
:104DC00008017509007808121CF67402121AD97AC3
:104DD000C57B0A12138A7402121A89740C121A897A
:104DE0007F0C021BB574482508F58274783509F5E7
:104DF00083780822C082C083906186E0F8902B17E8
:104E0000E493687009902B16E493906186F09061AA
:104E1000AE7468F0A3746AF090624574FBF0A3046A
:104E2000F053F4FD43FE029005377401F09061A049
:104E3000E0643A7004790080027901120D0C02508E
:104E400060C082C0839004E9E06401700A9004EEBF
:104E5000E06004790C80027900025060C082C08357
:104E600075E1F19004ECE06054146009146058148A
:104E70006050147057120D309004DBE0F97ADC7B3F
:104E800004120FA0908F8A12193D120FD6908F9A9C
:104E900012193D120FAC9004EDE0F9120FB8790130
:104EA0001210129004D91251BB241AF582E438F57D
:104EB000837448F0A3740DF07900025060120D362F
:104EC00080B6120D3C80B1120D4280AC791280EA9E
:104ED00074F4121AE375D90D9004E2E0A2E0E43311
:104EE0001313F8124F75484401F5D97800124FE7B3
:104EF00040FB7800E8FA74E31258D33404124FF1FF
:104F000040F275E1959004E2E0F97AE37B04120F38
:104F1000A690173774BEF0A3740C124FFC125046C3
:104F200012503D1251839004ECE064019004D9705A
:104F30000B124F7F12191F908F8E8009124F7F1214
:104F4000191F908F927808121893908F8678081204
:104F500018F99004D91251BB125034780812192E46
:104F60009004D91251BB12502B7413F090038C741F
:104F700002F0025FFB9004DBE0C4333354C0221222
:104F80005F16A3A3780822C082C08312513F8AD93A
:104F90007800E8FC74DC2C124FEC40F67800800DB1
:104FA000E8FC74F32CF582E43404125212E8C3993D
:104FB00040EE125131124FE740FB78008008125842
:104FC000CF3405125212E8C39940F375E19590175A
:104FD0003774CAF0A3740C124FFC1250067412F00E
:104FE00090038C74018072E8FA74DC2AF582E43450
:104FF00004F583E0F5D908E8C394062212516C74D5
:10500000C4F0A3740C2212504612503D12518790E6
:1050100004D9E0F8A3E0C812503474FF1258C790C6
:1050200004D9E0F8A3E0C812502B222414F582E43E
:1050300038F58322240EF582E438F58322F0A37438
:10504000DCF0A3740C2212504A2212504E22F0A31C
:10505000747AF0A3740E22F0A3F08004A2E092AF61
:10506000D083D082020132C082C0831250AC124F72
:10507000754402F5D97800124FE740FB7800800CA8
:10508000E8FA74F31258D33404125212E8C3994068
:10509000EF75E1959017371250B7F0A31250B71281
:1050A00050097414F090038C740480AD9004F2E005
:1050B000F9740729F5D92274D61250C41250C4F0DD
:1050C000A3740C22F0A3740CF0A374D622C082C087
:1050D0008312513F74064AF5D97800E8FC74DC2C41
:1050E000124FEC40F67800800DE8FC74F32CF5824A
:1050F000E43404125212E8C39940EE125131124FB7
:10510000E740FB780080081258CF3405125212E8AD
:10511000C39940F375E19590173774D0F0A3740CE0
:105120001251621250067415F090038C74030250F1
:10513000599005121250AF74044AF5D97800221222
:1051400050AC9004DBE0C4333354C0FA22F582E45F
:1051500039F583E0F5D90AEAC322EE28F8E43FF9ED
:10516000E82212516C747AF0A3740E22125170224C
:1051700012517D747AF0A3740E12517D2212504E9A
:10518000F0A32212518722F0901745747AF0A3748D
:105190000E125170747AF0A3740E12504AF022C0AD
:1051A00082C0839004D91251BB2406F582E438F5FD
:1051B00083E4025057851882851983E0F8A3E0C87C
:1051C0002274F7121AE39003BA12600074BC28F834
:1051D000740339F9E82405FAE439126291A3A3A310
:1051E000A3A3A3A3A3A312638FA3A3A3A3A3A3A374
:1051F000E024FFF8A3E034FFF98A828B83125F99E1
:105200000252C37F06021BB5E8FA743D2AF582E418
:105210003405F583E0F5D90822EAFEEBFF1254B716
:1052200022EAF8EE28F8E43BF9E82212514D940402
:105230002274F7121AE3EAFEEBFF9061D0E070648B
:1052400075D90E75D90375D9047A00125221248DAF
:105250001252B740F67A00125221248512522B4086
:10526000F675E1957908EE248D1252B0248512521C
:10527000A87C00ECF8C3E498FA95E0FBEE2AFAEF7C
:105280003BFBEA248C126188C0E012515A24ACF531
:1052900082E439F583D0E0F00CECC3940840D412DA
:1052A00053D280027900801BFAE43FFB120E0222E7
:1052B0001252A87904EE2212514D940822A2E092D3
:1052C000AF79007F01021BB5C082C08375D902751A
:1052D000D90375D90575E195EA246FF582E43B128F
:1052E0005342EA2471F582E43B1253E502506074A4
:1052F000F6121AE3EAFEEBFF90053D740612535DC9
:10530000121CF67C017903126346121A8975D906BC
:1053100075D903780012534840FB75E19590038CD2
:10532000E064087016EE246FF582E43F125342EEFB
:105330002471F582E43FF583125F9979010255C02B
:105340008882F583125F7022E8FA743D2AF582E4C0
:105350003405F583E0F5D908E8C3940522F0750813
:105360003D75090578082274F6121AE3EAFEEBFF90
:105370009061D0E0704F780190053D740BF0900380
:105380008CE06407701775083D7509057808121CD4
:10539000F67C017903126346121A89780574012894
:1053A000F5D975D9037900800FE9FA743D1258D305
:1053B0003405F583E0F5D909E9C39840EC75E1952A
:1053C0001253D2800279000255C075E1957904121A
:1053D0000FDCEE246FF582E43FF583125F70EE245C
:1053E00071F582E43FF583E8F0A3E9F079012274D6
:1053F000F7121AE3EAFEEBFF75D90375D90375D9E5
:105400000DEA24DF12540FF5D91253CA0252C3F524
:1054100082E43FF583E0227F03021BB574F5121A84
:10542000E312549F6004780F8002780BEAC398124D
:1054300056514041750A0990053D7409F0790812EA
:105440005485601475083D7509057808121CF6121C
:10545000633E121A89750A0D12547980031252089C
:10546000E8C3950A40F775E1957904120FDC1255EF
:10547000C5790180027900809E7401250AF5D975ED
:10548000D903780022EE24E4FCE43FFD7A3E7B055C
:1054900012549422120DFC850882850983E02212A1
:1054A00054B3FAEE2484F8E43F8808F5098882F5BD
:1054B00083E022EAFEEBFF9061D0E0F87480C398AD
:1054C0002274F2121AE312552D60047A0C80027ACB
:1054D0000812564E4052750A0690053D740CF09025
:1054E00003A9E090053EF079027CAA7D037A3F7B18
:1054F00005120DFC79027CAC7D0312549460167584
:10550000083D7509057808121CF67C0612634012E6
:105510001A89750A0A1254798003125208E8C39551
:105520000A40F71253CA800279000252031254B3A0
:10553000F8EA2484F508E43FF509850882F583E05C
:105540002274F6121AE3125219FAEE2484F8E43F98
:10555000F98882F583E060047C0880027C04EAC359
:105560009C12565140587A0290053DEAF0EE24F61E
:10557000F582E43F1255D3601975083D7509057829
:1055800008121CF67C027903EEFA126346121A899D
:105590007A0674012AF5D975D90378008008E8FCE9
:1055A000743D2C12520DE8C39A40F375E1951255E3
:1055B000C57904120FDCEE240D1253D58002790058
:1055C0007F02021BB5EE241DF582E43FF583E4F073
:1055D000A3F022F583E090053EF088828983E022E3
:1055E00074F6121AE312521DFCEA2484F8E43BF923
:1055F0008882F583E060047E0880027E04ECC39E0E
:1056000012565140447C0290053D7407F0EA24F79D
:10561000F582E43B1255D3601575083D7509057890
:1056200008121CF67903126346121A897C0674016B
:105630002CF5D975D90378008003125208E8C39C71
:1056400040F875E1957901800279000255C0E8C300
:105650009A95E0C365D0332274F7121AE38908A241
:10566000AFE433FFC2AF7E00EA246EF8E43BF9807A
:10567000010E88828983E0FCEEC39C5018EEFCEAA0
:105680002CFCE43BFDEC246AF582E43DF583E06507
:105690000870DE8010EA2CFAE43BFB125713E50891
:1056A0001255D904F0EFA2E092AF0252C3C082C0FB
:1056B00083A2AFE433FDC2AF12618514F07C00EC2D
:1056C000F8EA125224246BF582E439F583E0C0E055
:1056D000E8246AF582E439F583D0E0F00CECC39459
:1056E0000340DCEA246DF582E43BF58374FF125736
:1056F0001DED02505CC082C083A2AFE433F8C2AF9C
:10570000125713E912571D12618570037401F0E8F6
:1057100002505CEA246AF582E43BF58322F0EA2435
:1057200069F582E43BF583E4F02274F0121AE38C0D
:10573000828D83A3A3A3A3E0541FF0EA2436126151
:10574000268882F583E4F0750C00E50CF50AEC255B
:105750000AF8E43D8808F5098882F583E0C0E0EAAC
:10576000250AF8E43BF9E8245DF582E439F583D0B5
:10577000E0F0750A00850882850983E0F50E750F53
:1057800000E50A780E121A41E50EA2E05027E50C5A
:1057900033333354F8250AC0E08E828F83E0F8EA71
:1057A0001252242438F582E439F583D0E0F08E8259
:1057B0008F83E004F0050AE50AC3940840B7050C9E
:1057C000E50CC3940540837F08021BB5C082C083EB
:1057D0009003B8E0640170030258BF78009003BEE4
:1057E000E060030258BF1260A1A3F090041E04F011
:1057F000900423F09003C11258C69003CB04F0909C
:1058000003F1E4F09003D41258D8A3F090043CF0D4
:10581000900430F090043FF090042474801260A350
:1058200090042AF09004A81258E89004B1F0900473
:1058300040F09004901258E8A3F0A3F090049CF07C
:1058400090049EF090049AF09004B41258E89004EA
:10585000C7F09004C11258D874FF9004267904F060
:10586000A3D9FCE8FA74CC1258D33404F583E0C011
:10587000E074191258D33404F583D0E0F008E8C37B
:10588000940540DF7800E8FA74A01258D33403F589
:1058900083E0C0E074A01258D33404F583D0E0F064
:1058A00008E8C3940840DF9003B8E004F064017096
:1058B000089003C0E09003BAF07ABC7B0380047ABE
:1058C000007B00025060E4F0A3F0A3F0A3F022E814
:1058D000FA74132AF582E4221258DC22F0A3F0A312
:1058E000F0A3F0A3F0A3F0221258DCA3F0A3F0225F
:1058F000C082C083EA24031261886008E4F0900348
:10590000B9E014F09003B8E014F070069003BA7494
:10591000FFF08A828B83A3A3E4F09004D1E0700DA2
:105920009003B9E0640170057900120FBE02506067
:10593000C082C0839003BFE4F09003BEF09003B830
:10594000F0A3F0A374FFF075E1F102506074E81267
:105950001AE374E4121A73851882851983125FA3FF
:10596000F58388821253448882F583A3A3121949D0
:105970007412121ABF12195588828983A3A3A3A394
:10598000A3A31253447416121ABF125FAE240B1253
:1059900062817410121ABF125FAE240D12628174FC
:1059A0000E121ABF125FAE24071262817404121A1B
:1059B000BF125F997434121ABF121D097416121A9D
:1059C000BF12193D12285A7404121A89E9600302A1
:1059D0005EA4125F4D121D097438121ABF12193DD0
:1059E0001228B67404121A898A088B098C0A8D0B46
:1059F000851882851983E02405126281740A121ABF
:105A0000BF125F99740A121ABF125F8E85188285C1
:105A10001983E024741262817408121ABF125F990C
:105A20007408121ABF125F32F8851882851983E054
:105A3000242EFCA3E03400FD7402121ABFECF0A384
:105A4000EDF0E87003025D56851882851983E0F950
:105A5000A3E0C92475F582E439F583E0C39AF50C17
:105A6000A3E09BF50D851882851983E0240EFAA327
:105A7000E03401FB740C121ABFEAF0A3EBF07402DD
:105A8000687004740C80027402121ABF125F43859E
:105A90000C14850D15751600751700E4F512F51335
:105AA000781479101216C67418121ABF78141219C5
:105AB0002E125F4D781012191F7418121ABF781029
:105AC0001218937810121CF27438121ABF12193D72
:105AD00012285A7404121A89E97003025D28851885
:105AE00082851983E0247A1262817406121ABF1229
:105AF0005F997406121ABF125F43E4F512F513742E
:105B000018121ABF78081218CD7808791012188068
:105B10009090167808121893851014851115851227
:105B20001685131778087914121746850814850905
:105B300015850A16850B17781479101216C6E50C10
