:020000040000FA
:0600000002011A02231E9A
:03002B00022A5551
:03003300022A3767
:03005300022394F1
:03006B00022A0E58
:1000830002217BE5C754F84401F5C779012200003A
:100093000080FB120086B90003020104E479217891
:1000A30008B800028004F709D8FCE479297802B87B
:1000B30000028004F709D8FCE490028178AD79133B
:1000C3008002F0A3D8FCD9FA781A90014A7A01BACF
:1000D30000028007E493A3F608DAF97A2D7B1590E2
:1000E300014B780879048015E493A3AD82AE838A2B
:1000F300828B83F0A3AA82AB838D828E83D8E9D9C6
:10010300E775829E7583B3740312012C7582917512
:100113008300740012012C75D00075813F7518811E
:10012300751902759F00020096C09FF59FE473D076
:100133009F22D083D082C09FE493C0E0740193C018
:10014300E0740293F59F2201FF0000B40000280031
:100153002800283075A000A000A000A0000008001F
:1001630008E001F000100010001000100010001053
:100173000050005000500010001000D00700000095
:100183000000000F0001000500307507001000019A
:100193000081FF00000000FFFFFF6E068C0674065F
:1001A300B006FF02020208025000A0000000E803AC
:1001B30002D582010000B48202BB820100008815CF
:1001C30002CA81010000BF0202BB8201000089153F
:1001D30002C182010000D50202BB820100008A1520
:1001E30002C582010000D70202BB820100008B1509
:1001F30002C982080000D80202BB820100008C15EC
:1002030002D3820100008D15FF0100FF2002D58279
:10021300010000AB8202BB82010000F11502EF82F4
:10022300000000000002B78203000006031700105D
:100233000D100D100D100D100D100D100D100D10D3
:100243000D100D100D100D100DCE0FE00FC80F0285
:100253000202020202020202010D0000001001026A
:10026300D582010000AE8202BB8201000034160277
:10027300E182010000460702BB820100003516023D
:10028300DF820100006B8102BB820100003616028F
:10029300DD82010000418102BB82010000371602AA
:1002A300D982010000BB8002BB8201000038160224
:1002B300D782010000978002BB8201000039160239
:1002C300D182010000A98002BB820100003A16021C
:1002D300CF82010000DF8002BB820100003B1602D7
:1002E300CD820100005D8102BB820100003C160249
:1002F300CB820100003D1601E8030577100AFFFFDA
:10030300FF00013075030201060000000000000039
:1003130000000000000000000000000000000000DA
:100323000000000000FFFF0600800CE803140953DF
:10033300696D706C65424C45506572697068657291
:10034300616C051250002003020A00020106030239
:10035300F0FF53696D706C6520424C452050657207
:100363006970686572616C6C14000072140A4368EA
:100373006172616374657269737469632031000229
:10038300436861726163746572697374696320326F
:1003930000084368617261637465726973746963A9
:1003A300203300104368617261637465726973740A
:1003B3006963203400024368617261637465726922
:1003C3007374696320350002D582010000B1820293
:1003D300BB82010000521702E782030000221502CC
:1003E300B982010000531702BB82010000641702A7
:1003F300E982010000231502B9820100006517029A
:10040300BB82010000761702EB8202000024150272
:10041300B982010000771702BB820100008817022E
:10042300ED82000000251502B782030000261502A5
:10043300B982010000891702BB820100009A1702EA
:10044300DB82040000281502B9820100009B171209
:1004530001351A93031201352D93031201355C9371
:1004630003120135949303120135DD930312013511
:1004730020940312013566940312013599940312F3
:100483000135C09403120135EF940312013526950B
:10049300031201353F95031201358E950312013581
:1004A300A79503120135EF95031201352396031225
:1004B30001352977001201352778001201358D782F
:1004C30000120135B07800120135B27800120135FF
:1004D300F07800120135617900120135217A00129A
:1004E3000135437A00120135DF7A00120135167B9C
:1004F300001201355B7B00120135687B0012013568
:10050300D87B00120135227C00120135257C0012B4
:1005130001356B7C001201356E7C00120135787C4D
:1005230000120135EB7C00120135137D00120135F9
:10053300467D001201356A7D00120135677E001287
:1005430001350B7F00120135777F00120135B37F30
:10055300001201353F84031201356784031201350C
:10056300948403120135CC840312013532850312BE
:1005730001357C8503120135E08503120135288698
:100583000312013565860312013593860312013583
:100593002887031201353287031201353F8703127F
:1005A30001357287031201357E8703120135968761
:1005B30003120135A0870312013525B1031201355A
:1005C30033B1031201354BB10312013562B103128A
:1005D3000135B1A80112013554A9011201356DAAE3
:1005E30001120135E5AA011201350CAC01120135E6
:1005F30045AC01120135DDAC01120135CAAD011262
:10060300013573AE01120135FBAF01120135E3B0C1
:1006130001120135DAB10112013510B201120135AF
:10062300B2B201120135D8B201120135A4B40112DC
:100633000135EAB4011201350CB50112013578B563
:100643000112013543B601120135FDB60112013520
:1006530009B9011201350CCD02120135E8CD0212A0
:10066300013592CE02120135D3CE021201355ACF93
:1006730002120135D5CF02120135A8D0021201357D
:10068300D1D002120135C5D10212013502D20212B4
:100693000135EAD2021201351BD30212013541D3CF
:1006A300021201354DA103120135CCA1031201350C
:1006B300F7A10312013507A3031201352E88031294
:1006C30001354488031201356288031201357289AA
:1006D300031201357C8903120135A68A0312013501
:1006E300938B03120135FF8B03120135B1D3021231
:1006F3000135DED40212013515D5021201356CD550
:100703000212013564D70212013500960112013538
:10071300879601120135DB9701120135E797011224
:1007230001355F9801120135389901120135389A64
:1007330001120135349B01120135009C0112013570
:100743005A9D01120135709D01120135919D0112CF
:100753000135239E01120135999E01120135BF9E79
:10076300011201356CA10112013571A1011201358C
:1007730095A301120135DCA30112013542A4011234
:10078300013588A40112013558A5011201350DA6C2
:100793000112013569A6011201356CA6011201355A
:1007A300B8A601120135F4A60112013533A70112CF
:1007B300013555A70112013589A701120135F7A7A4
:1007C3000112013551D9021201355FD902120135E7
:1007D300AFD902120135CED90212013518DA02124D
:1007E30001355BDB02120135F3DB0212013537DC25
:1007F3000212013561DC02120135CCDC0212013533
:1008030010DD0212013593DD0212013542DE0212C0
:100813000135802A00120135902A001201352A2B56
:1008230000120135862B00120135442C00120135CC
:10083300672D00120135972D00120135C62D0012C8
:1008430001357C2F00120135CF31001201352E34D2
:100853000012013517350012013507360012013534
:10086300DA3700120135D23A00120135EF3B00129C
:100873000135E93D00120135F83E0012013587408C
:1008830000120135734100120135C24100120135D6
:100893003242001201354E42001201359F420012CE
:1008A30001353F4700120135464800120135A8487B
:1008B30000120135D348001201358B49001201356E
:1008C30096F902120135A0F902120135E8F9021274
:1008D3000135FCF9021201358DFA02120135C4FA11
:1008E30002120135FFFA0212013528FB021201350B
:1008F3007CFB0212013591FB02120135B3FB02129C
:100903000135C8FB02120135DCFB02120135F1FB94
:10091300021201352BFC0212013557FC021201357C
:10092300A0FC0212013516FD0212013559FD021217
:10093300013583FD02120135AEFD021201353CADD6
:1009430003120135F29702120135CB9802120135D9
:100953003A9902120135759902120135B09A0212C1
:100963000135629B021201350F9E02120135BA9EB8
:10097300021201359B9F0212013511A102120135AA
:1009830079A102120135D2E70212013515E80212EC
:10099300013580E902120135BEEB02120135D6FDA5
:1009A3000212013583FE021201357CFF021201356A
:1009B300B9FF0212013510A5031201356FA5031209
:1009C30001350CA6031201353FA6031201356DA6AE
:1009D30003120135A8A603120135C8A60312013577
:1009E30029E302120135B2E30212013571E4021266
:1009F30001357FE5021201359FE702120135D4F379
:100A030001120135E9F301120135B4F40112013584
:100A130081F501120135EEF50112013529F60112B6
:100A23000135CAF601120135D3F701120135ABF8CE
:100A3300011201352EF901120135B7F90112013501
:100A430020FA01120135AAFA01120135F7FA01124F
:100A5300013565FB0112013507FC01120135B5FCB7
:100A630001120135D5FC0112013519FD01120135C1
:100A730061FD011201357DFD011201359CFD01125D
:100A8300013516FE0112013524FE01120135B7FEB0
:100A93000112013521FF011201355BEC0212013510
:100AA300D7EC0212013515ED02120135F9ED0212F0
:100AB300013568EE02120135ACEE02120135EFEE9C
:100AC300021201351CEF021201353AEF0212013511
:100AD30072EF02120135AFEF02120135D0EF0212AD
:100AE300013546F00212013590F00212013516B9B4
:100AF30001120135AABA01120135E8BC0112013510
:100B030030BD011201355BBD0112013551BE011229
:100B1300013581BE01120135D8BE01120135EBBE8C
:100B2300011201352CBF0112013559BF01120135E4
:100B3300A2BF01120135DEBF0112013523C001122C
:100B4300013570C001120135D8C0011201350AC345
:100B530001120135D1C4011201350CC50112013551
:100B63008AC601120135CEC60112013541C70112F1
:100B73000135A2C7011201352AC80112013549C93D
:100B8300011201355AC9011201351EA202120135A3
:100B93008FA20212013558A80212013552A902127E
:100BA300013514AB0212013592AB02120135F4493F
:100BB300001201357B4A00120135A84A00120135A3
:100BC300EA4A00120135E64B001201352B4C0012A4
:100BD3000135A74D00120135244E00120135494E4F
:100BE30000120135BC4E00120135794F0012013558
:100BF300355000120135B5500012013583510012F2
:100C03000135A951001201351B5200120135BF52A3
:100C130000120135E4520012013550530012013520
:100C2300B65300120135EC530012013590540012F3
:100C33000135295500120135AC55001201351856FE
:100C430000120135645600120135CA5600120135EF
:100C5300FB5600120135AF5700120135C55800127B
:100C630001350E59001201352B59001201350B5F66
:100C730000120135535F0012013540600012013547
:100C83006560001201357A6000120135E2600012DE
:100C93000135226100120135356200120135E2622D
:100CA30000120135BBAB0212013506AC021201354D
:100CB30012AC02120135DDAC02120135F3AC0212A3
:100CC30001352FAD0212013568AD02120135A0AD19
:100CD30002120135F6AD021201350CAE02120135D6
:100CE30048AE021201355BAE0212013582AE02122A
:100CF3000135B6AE021201358AAF0212013519B1C0
:100D03000212013515B2021201351EB3021201356A
:100D1300F8FF01120135F9D70112013534D8011258
:100D2300013538DB011201358ADC011201354FDD53
:100D33000112013549E00112013533E10112013598
:100D43007EE10112013598E101120135D5E101126D
:100D53000135E0E1011201351FE20112013528E2FC
:100D630001120135E9E201120135A6E30112013551
:100D730009E4011201356DE401120135EEE40112BB
:100D83000135F382011201354F8601120135558673
:100D930001120135968D011201356E920112013552
:100DA300098C031201359F8C03120135B58C031294
:100DB3000135FB8C031201353F8D03120135798D0B
:100DC300031201350B8E031201357A8E031201359E
:100DD300838E031201358F8E03120135A38E031206
:100DE3000135C78E03120135DC8E031201353E8FA8
:100DF30003120135658F031201350080031201359B
:100E03000D80031201352780031201355A80031226
:100E13000135978003120135FD80031201351281DC
:100E2300031201351D81031201352A810312013595
:100E33004181031201354F81031201355A81031297
:100E430001356681031201357581031201358081F5
:100E530003120135A681031201354A8203120135BB
:100E63005A820312013574820312013591820312EF
:100E73000135AC8203120135D38203120135DE82C0
:100E830003120135F382031201350783031201357F
:100E93006883031201356E830312013574830312D1
:100EA30001357A8303120135928303120135C58319
:100EB30003120135058002120135938002120135B8
:100EC300288102120135048202120135388202128E
:100ED30001354B8202120135C582021201354D8460
:100EE30002120135748402120135FB8402120135AA
:100EF3003A85021201354B8502120135C085021273
:100F03000135DF8502120135F785021201353B8772
:100F130002120135458902120135778B0212013520
:100F23007D8C02120135C08C021201355FC901129A
:100F3300013572CA011201355ACB0112013564CB56
:100F43000112013586CB0112013592CB0112013515
:100F5300DFCC011201350CCD011201352DCE01126A
:100F630001356FCE01120135A4CF0112013574D0C2
:100F730001120135C3D00112013524D1011201350B
:100F830059D10112013592D1011201353DD501121A
:100F9300013554D501120135D2D501120135E0D501
:100FA3000112013529D60112013537D60112013557
:100FB300B8D60112013527D70112013573D70112B3
:100FC30001350D8D021201352F8D021201350B8F64
:100FD30002120135839202120135CD9302120135BB
:100FE300AF9402120135D6A603120135FBA60312F4
:100FF30001356CA70312013589C50212013592C56B
:10100300021201359BC502120135BFC6021201351A
:10101300B0C802120135DEC80212013509C9021235
:10102300013537C90212013562C902120135A0C95F
:1010330002120135CCC90212013509CA0212013567
:1010430034CA0212013580CA02120135D7CA02120C
:10105300013517CB0212013566CB0212013591CB54
:1010630002120135D7CB0212013505CC021201352C
:1010730030CC021201355DCC0212013580CC021254
:101083000135F2B1031201351EB20312013577B2F5
:101093000312013581B20312013591B203120135F6
:1010A300C19903120135E89903120135139A03120A
:1010B3000135F6B3031201351463001201356B6574
:1010C300001201351B6700120135786700120135E4
:1010D300786800120135F568001201357D69001248
:1010E3000135A269001201357D6C00120135F16CE6
:1010F30000120135E06D00120135166E0012013544
:10110300596E00120135DA6F001201351C7000129E
:101113000135657000120135CE7000120135F07093
:10112300001201350A7100120135287200120135CF
:10113300387200120135BB7300120135DB730012E4
:1011430001351174001201358D7500120135CA7510
:101153000012013504770012013539F50212013509
:1011630089F502120135C3F60212013532F7021274
:101173000135D6F702120135F5F70212013543F8AE
:101183000212013585F80212013544FF01120135BF
:1011930055FF0112013540B4031201357FB4031228
:1011A300013545B50312013548B00312013558B076
:1011B300031201356DB0031201351FB1031201355E
:1011C30050AE03120135D3AE0312013539AF03120A
:1011D300013587A803120135B0A80312013516A9FA
:1011E3000312013535A90312013588A9031201350C
:1011F300E1A9031201351CAA031201351FAA031228
:1012030001358B9603120135A096031201359E9783
:1012130003120135369803120135AA9803120135DA
:10122300C49803120135DB9803120135E9980312C0
:1012330001350199031201351699031201353B99C2
:10124300031201358C99031201352FB503120135B1
:101253003FB50312013542B503120135F87F001281
:10126300013536A303120135ACA4031201350DA5D4
:1012730003120135CBAB03120135EEAB031201357B
:1012830017AC03120135B1AC03120135F3AC0312F1
:101293000135C0BD02120135CABD021201350ABEB5
:1012A3000212013553BE021201358BBE0212013503
:1012B300E1BE02120135FEBE021201357DC10212EA
:1012C300013586C102120135CBC102120135F4C1C9
:1012D3000212013509C20212013579C20212013527
:1012E30006C3021201355AC3021201357DC302122D
:1012F3000135FCC30212013537C4021201356CC437
:10130300021201357EC4021201359DC40212013559
:10131300A6C4021201355DC50212013529AA0312C2
:1013230001357AAA0312013503AB031201356DAB04
:1013330003120135969C03120135BE9C031201353D
:10134300B39D03120135D89D03120135679E031225
:10135300013552AF03120135519F03120135879FA7
:1013630003120135BA9F0312013513A1031201358C
:101373009BB203120135B1B203120135BBB20312A2
:1013830001350FB3031201353AB3031201354BB5DF
:101393000212013505B60212013540B602120135BB
:1013A30071B602120135E1B60212013537B70212E6
:1013B30001358BB70212013578B80212013571B9C4
:1013C30002120135F2BA02120135A6BB021201352F
:1013D3000FBC0212013522BC0212013507BD0212F5
:1013E300013560BD02120135D7F002120135EDF06F
:1013F300021201358EF102120135CDF102120135CF
:10140300EAF1021201351BF20212013568F20212EF
:1014130001359BF202120135D6F202120135D1F4E5
:101423000212013538E601120135C0E90112013516
:101433004FEB01120135A6EB01120135C5EB011289
:10144300013543EC01120135C9ED011201359CEE62
:101453000112013556F2011201353EF30112013535
:1014630054DE021201356FE00212013530E102123F
:101473000135C8E202120135948F03120135F78F4B
:1014830003120135149003120135DA90031201356A
:101493002D910312013510920312013589B4031201
:1014A3000135D3FF02120135CFB40312013506B55E
:1014B30003120135D97F00E066701008A3E066705F
:1014C3000A08A3E066700408A3E06622C3E796084F
:1014D30009E7960809E7960809E79622C3E0960804
:1014E300A3E09608A3E09608A3E09622C008C3E011
:1014F30096F50808A3E096420808A3E09642080878
:10150300A3E09645087001D3D00822080808EAC072
:10151300E0EBC0E086F0E7A4FA180986F0E7A42A16
:10152300FA180986F0E7A42AFA180986F0E7A42A2C
:10153300FA1986F0E7A4FBE5F02AFA190886F0E722
:10154300A42BFBE5F03AFA190886F0E7A42BFBE598
:10155300F03AFA18180986F0E7A4C5F02BFBE43A31
:10156300FA1908E7C5F0C6A426F6E5F03BFBE43A12
:10157300FA1886F0E7A4F6E5F00826F6E43B08F649
:10158300E43A08F6D0E0FBD0E0FA22E4CFC0E0E48E
:10159300CEC0E0E4CDC0E0E4CCC0E075F020E626A8
:1015A300F608E633F608E633F608E633F6181818B5
:1015B300EC33FCED33FDEE33FEEF33FFC3EC970961
:1015C300ED9709EE9709EF97191919400FFFEC975B
:1015D300FC09ED97FD09EE97FE191906D5F0BFEC4E
:1015E300F709EDF709EEF709EFF7191919D0E0FC40
:1015F300D0E0FDD0E0FED0E0FF226016080808C668
:10160300C313C618C613C618C613C618C613C6D541
:10161300E0EA227009080808226016181818C6C3E1
:1016230033C608C633C608C633C608C633C6D5E0B4
:10163300EA22E627F60809E637F60809E637F60848
:1016430009E637F622E026F608A3E036F608A3E01B
:1016530036F608A3E036F622E026F008A3E036F0DB
:1016630008A3E036F008A3E036F022C3E697F608B5
:1016730009E697F60809E697F60809E697F622C3FE
:10168300E0C696F608A3E0C696F608A3E0C696F66B
:1016930008A3E0C696F622C3E096F008A3E096F00E
:1016A30008A3E096F008A3E096F022E056F608A31C
:1016B300E056F608A3E056F608A3E056F622E056F5
:1016C300F008A3E056F008A3E056F008A3E056F0B4
:1016D30022E0F608A3E0F608A3E0F608A3E0F6226A
:1016E300E6F008A3E6F008A3E6F008A3E6F022E09C
:1016F300FAA3E0FBA3E0FCA3E0FD22E0FCA3E0FDF2
:10170300A3E0FEA3E0FF22ECF0A3EDF0A3EEF0A331
:10171300EFF022E0F8A3E0F9A3E0FAA3E0FB22E86C
:10172300F0A3E9F0A3EAF0A3EBF022CAC0E0E6F0ED
:10173300A308DAFAD0E0FA22CAC0E0E0A3C582CC5B
:10174300C582C583CDC583F0A3C582CCC582C583BD
:10175300CDC583DAE6D0E0CA22C3E498F8E499F968
:1017630012179D8026C3E49AFAE49BFBE920E7E97C
:1017730012179DE498F8E499F922C3E498F8E499E0
:10178300F912179DE498F8E499F9C3E49AFAE49BF3
:10179300FB22EB20E7CFE920E7E0B90010BB00080C
:1017A300E88AF084F8AAF022E4FBC8FA22EB70225C
:1017B3007B10C833C8C933C9335007C39AC3DBF29C
:1017C30080069A50012ADBEAC833F4C8C933F4C946
:1017D300FA2275F008E4C833C8C933C933C99AC9B2
:1017E3009B5004C92AC93BD5F0ECFBC833F4C8E4C9
:1017F300C9FA22600D08C6A2E713C618C613C6D5D8
:10180300E0F322600C08C6C313C618C613C6D5E09E
:10181300F422700422600D18C6C333C608C633C64B
:10182300D5E0F41822251810AF08F518400C151947
:101833008008F51840021519D2AF2200C0D0251830
:1018430010AF08F518500C05198008F5185002055B
:1018530019D2AFD0D0222518F58210AF08F5184061
:101863000C15198008F51840021519D2AF85198394
:10187300222518F582E43519F583222518F8E43575
:1018830019F9222518FAE43519FB222518FCE43549
:1018930019FD22E4732518C582C0E0E51934FFC59C
:1018A30083C0E0E518C3958224F810AF0885831937
:1018B3008582188008858319858218D2AFCEF0A35C
:1018C300E520F0A37808E608F0A3DEFAEFF0A3E53D
:1018D3008124FAF8E608F0A3E608F0A3E608F0A3EB
:1018E3000808E608F0A3E608F0A315811581D0E007
:1018F300FED0E0F8158115811581E8C0E0EEC0E067
:10190300222518C582C0E0E51934FFC583C0E0E590
:1019130018C3958224F910AF08858319858218802E
:1019230008858319858218D2AFCEF0A3E520F0A3F2
:101933007808E608F0A3DEFAEFF0A3E58124FBF8CC
:10194300E608F0A3E608F0A30808E608F0A3E60813
:10195300F0A315811581D0E0FED0E0F81581158143
:10196300E8C0E0EEC0E022851983851882E0A3FE7B
:10197300E0A3F5207808E0A3F608DFFAE0A3FFE090
:10198300A3C0E0E0A3C0E0E0A3C0E0E0A3C0E0E0C8
:10199300A3C0E010AF08858218858319800885826B
:1019A30018858319D2AFD083D0820201328519837F
:1019B300851882E0A3FEE0A3F5207808E0A3F608EB
:1019C300DFFAE0A3FFE0A3C0E0E0A3C0E0E0A3C030
:1019D300E0E0A3C0E010AF08858218858319800872
:1019E300858218858319D2AFD083D08222C0D025B7
:1019F30018C582C0E0E51934FFC583C0E0E518C30C
:101A0300958224F310AF0885831985821880088591
:101A13008319858218D2AFC8F0A3E9F0A3EAF0A333
:101A2300EBF0A37908E709F0A3D8FAECF0A3EDF003
:101A3300A3EEF0A3EFF0A3D0E0F0A3D0E0F0A3D0A7
:101A4300E0F0A3E520F0A3E5F0F0A3228519838558
:101A53001882E0C0E0A3E0F9A3E0FAA3E0FBA378D7
:101A630008E0F608A3DFFAE0FCA3E0FDA3E0FEA391
:101A7300E0FFA3E0C0E0A3E0C0E0A3E0F5D0A3E073
:101A8300F520A3E0A3F5F010AF088583198582182C
:101A93008008858319858218D2AFD082D083D0E0A5
:101AA300F8D0E03274048006740280027401C0E04E
:101AB300F404121859D0E012172E2274048004740F
:101AC300028000CCC0E0EDC0E0E518C39CCCAD19AA
:101AD30050011D10AF068C188D1980068C188D19B6
:101AE300D2AF12173BD0E0FDD0E0FC22D083D082EE
:101AF300E9C0E0E493A3C386F0C5F095F0F908E4E8
:101B030093A386F0C5F095F0700BE493A3C39940BB
:101B130005E9048002A3E475F002A42582F582E5B9
:101B2300F03583F583D0E0F9E493A3C0E0E493C0F8
:101B3300E022D083D082ECC0E0EDC0E0E493A3FCCC
:101B4300E493A3FDED4C600D121B81EC24FFFCED2F
:101B530034FFFD80EFE493A3FCE493A3FDED4C601D
:101B63000D121BC0EC24FFFCED34FFFD80EFD0E031
:101B7300FDD0E0FCE493A3C0E0E493C0E022C0E026
:101B8300C3E49396087401939618400FE493667028
:101B93000808740193661870007019A3A3C3E49333
:101BA30096087401939618A3A3400DD0E0D0E0D01B
:101BB300E0021B71A3A3A3A3A3A3D0E022C0E0C0B0
:101BC300F088F0E493667008087401936618700057
:101BD300A8F0A3A3700BD0F0D0E0D0E0D0E0021BBC
:081BE30071A3A3D0F0D0E022B1
:101BEC0074F6121904EAFEEBFF8C088D09EA243412
:101BFC00F8E43FF9E8FCE9FDEA2435121F93FAEE0C
:101C0C002437121F93F88508F0A4C885F00A8509BB
:101C1C00F0A4250AF9EA28F8E439F97A257B0012B0
:101C2C00179DEA8C828D83F0FA131313541F121F25
:101C3C0087245DF582E439F583E0C0E074075AF837
:101C4C00D0E0B800028004C313D8FCA2E0EE500828
:101C5C002434F582E43F80142436121F93F5F0EA05
:101C6C0084A8F0121F882438F582E439F583E0F952
:101C7C007F030219B074F7121904EAFEEBFFEA2491
:101C8C0034121F93C0E0EA2435F582E43FF583D08B
:101C9C00E0F08A828B83A3A3A3A3A3A3A3C082C0D7
:101CAC00838A828B83A3A3A3A3A3E0F8A3E0F9D038
:101CBC0083D082E0C398F508A3E099F509EA248063
:101CCC00121F936401703EEA2481F582E43FF58390
:101CDC00C082C0838A828B83A3A3A3A3A3E0240125
:101CEC0008A3E03400F9D083D082E0687003A3E04D
:101CFC006970127CB67D04120C50EE2480F582E4DF
:101D0C003FF583E4F0AC08AD09EEFAEFFB121BECE7
:101D1C00E9F9122A007F020219B0C082C08385182B
:101D2C0082851983E0F8A3E0F9C3EA9CEB9D50107F
:101D3C00C3EC98ED99401BC3EA98EB995014800EB4
:101D4C00C3EA98EB994007C3EC98ED9940047901EC
:101D5C0080027900D083D08222EAC39CFAEB9DFBEF
:101D6C002274EF121904900376E064086005E064B5
:101D7C0007702A9061C8E060249003A4E0F4601D11
:101D8C00E0F875F010A4C8AAF02AF974A628FE741D
:101D9C000339FF8E82F583A3A3A3E07003021E8692
:101DAC00906060E0C0E0EE2468F582E43FF583D0FB
:101DBC00E0F0750C27750D05750800750900E5D95F
:101DCC0014F50AE5D95403F50E602F7403650E6003
:101DDC001DE50A6008EE2467121F93601D90052212
:101DEC00E06401602C121F90601278048010121FA6
:101DFC0090602CE50AC39405502580637800E50AB1
:101E0C00C398FA95E0FB120B008A088B09EA4B7019
:101E1C0005120E968064121F9070048A0C8B0DE5CF
:101E2C000A6012850C82850D83F50BE5D9F0A3159C
:101E3C000BE50B70F6121F90604574FC250AF50A31
:101E4C00780C121AABAC0AA90EEEFAEFFB120D0AC3
:101E5C00740212183EE97027AA08AB0912132279F2
:101E6C003D8E828F83A3A3A3A3E0FA7B00120968A3
:101E7C00EEFAEFFB120C74120D1C7900021F827427
:101E8C0003650E6053E50AF5107511007810121AEF
:101E9C00ABAC0CAD0DAA08AB09120CCE7402121827
:101EAC003EEE2468121F9364807004747F8001E0FE
:101EBC00F50C780C121AAFE50EF50C780C121AAF63
:101ECC00A90AAC08AD099003A4E0FA7B0012093E04
:101EDC00740212183E021F7D850C82850D83E0C3AF
:101EEC00940E5011E0F8744F28F582E43481F58398
:101EFC00E0650A6069850C82850D83E0C0E0EE2404
:101F0C00F7F582E43FF583D0E0F0A2AFE433FCC2F6
:101F1C00AF7A0080010AEE246E121F93F8EAC39880
:101F2C005013EA121F87246AF582E439F583E064C2
:101F3C000770E28022EE246EF8E43FF9E0FAEE2A14
:101F4C00FAE43FFBEA246AF582E43BF5837407F07C
:101F5C0088828983E004F0ECA2E092AF80139003B6
:101F6C0076E06408600BAC0CAD0DEEFAEFFB120DD5
:101F7C0094120EA279017F0A0219B0F8EE28F8E447
:101F8C003FF9E822EE2484F582E43FF583E02274E5
:101F9C00F112190474FC121828EAFEEBFF8909757A
:101FAC000D00A2AFE433F508C2AF9004BEE0FA9086
:101FBC0061D0E0F8748098F895E0F9C3EA98E49958
:101FCC00A2D265D0334003022085750D0102208515
:101FDC00E0601B780A121AABAC0EA90FEEFAEFFBFD
:101FEC00120D04740212183E7404250EF50E7401C1
:101FFC00250EF5D9850FD9E50E6012850A82850B61
:10200C0083F50CE0F5D9A3150CE50C70F675E1958C
:10201C00EE2463F8E43FF97A007B00A2AFE433F5D9
:10202C000AC2AF88828983E0FCA3E0FDEC4D603AE4
:10203C0088828983E0FAA3E0FB8C82F583E0FCA321
:10204C00E0FD88828983ECF0A3EDF08A828B83E437
:10205C00F0A3F088828983E0FCA3E0FDEC4D700ACC
:10206C0088828983A3A3E4F0A3F0E50AA2E092AFEF
:10207C001213229004BDE004F0EE2463121F93F8B7
:10208C00A3E0F9E8496063EE2463121F932402F87D
:10209C00A3E034008882F583E5822402F50AE43556
:1020AC0083F50BE0F50EA3E0F50FEE2462121F93FF
:1020BC00640170369061D0E0F8121F9060047C04CB
:1020CC0080027C007480C398FA95E0FBE50E2CF836
:1020DC00E43400F9E82402F8500109C3EA98EB99BA
:1020EC00A2D265D0334003021FDC9061D0E0F874BB
:1020FC0080C3989004BEF0E50D60539004BDE06081
:10210C004D9004BFE0F89004BDE0C398500C7402ED
:10211C006509703A9004C0E060348E828F83A3A36B
:10212C00A3A3E085188285198312216A7402121800
:10213C0074E812216A9004BCE028F0740212188E24
:10214C00AA18AB1979011209929004BDE4F0E508C4
:10215C00A2E092AF740412183E7F080219B0F0A3EB
:10216C00E4F09004BDE0F8228521878522C622C0C8
:10217C00E074EB1219F0A2AFE433F508C2AF759B13
:10218C0000906182E0A2E0502DE591A2E05027750D
:10219C0091FE74016521701E1222F2122309121A8B
:1021AC00BE1227AF740412183EE964017005790160
:1021BC00120E2A121D6D906182E0A2E5505AE59133
:1021CC00A2E550547591DF900376E064076005E05A
:1021DC006408702C1222F274016521703B122309E1
:1021EC00121ABE1227AF740412183EE9640170056E
:1021FC007901120E2A7901EEFAEFFB121F9B80185F
:10220C00E0640D7013900398E004F064287002E40D
:10221C00F07A00E0F9120EA8906182E0A2E6400389
:10222C000222C7E591A2E640030222C77591BF9036
:10223C000376E064057008120DCA120DD6800312E5
:10224C000DD0752100120E36E9900377F07900124B
:10225C000E2A120BC07A017B00900375E0F9121262
:10226C00F2907803E064427052900526E014F0700E
:10227C004AC2AF12228200782AD0E0F618D0E0F6DB
:10228C00E59F540770047BFF80027B7FC4C0E0781D
:10229C0029E6F50A08E65BF50B740B780A121806AA
:1022AC00D0E0250AF8906270E0A2E740F8E8C3336A
:1022BC00906272F0906270E0D2E0F0906181E0A2E6
:1022CC00E35009E5E9A2E3500375E9F7A3E0A2E7BF
:1022DC005009E591A2E7500375917FE508A2E092C1
:1022EC00AF7F08021A4F9003A4E0F875F010A4C851
:1022FC00AAF02AF974A628FE740339FF22120DE203
:10230C008E828F83E0F8A3E0C82416F582E438F5BA
:10231C008322C0E0C0D0C082C083906183E0A2E081
:10232C005009E5BFA2E0500375BFFEE0A2E15009E1
:10233C00E5BFA2E1500375BFFDE0A2E25009E5BF85
:10234C00A2E2500375BFFBE0A2E35009E5BFA2E394
:10235C00500375BFF7E0A2E45009E5BFA2E45003B7
:10236C0075BFEFE0A2E55009E5BFA2E5500375BFCC
:10237C00DFE0A2E65009E5BFA2E6500375BFBFD06F
:10238C0083D082D0D0D0E032C0E074F21219F0E5E4
:10239C00A7A2E6500FE5A1A2E6500953A7BF75A16D
:1023AC00BF1223E8E5A7A2E5500CE5A1A2E5500673
:1023BC0053A7DF75A1DFE5A7A2E15009E5A1A2E1D2
:1023CC00500375A1FDE5A7A2E2500CE5A1A2E250D5
:1023DC000653A7FB75A1FB7F01021A4F74F7121964
:1023EC0004752101900376E064067015120D408A85
:1023FC00828B83A3A3A3A3A3A3E0FAA3E0FB120DF8
:10240C00B8A2AFE433FED2AF90037CE06401701845
:10241C007A207B00900375E0F912140C7A207B0073
:10242C00900375E0F91212F8906182E0D2E6F09018
:10243C000523E0602185C622801690037BE06401B1
:10244C007008E5C654F84405F5C653BEFC12217459
:10245C007401652160E4EEA2E092AF7F020219B034
:10246C008E238F248582288583278518828519835E
:10247C00E0CEA3E0CF852882852783EBC9EAC8ED9F
:10248C00CBECCA75F010C3E833C8E933C9EA33CAD8
:10249C00EB33CBC3EA9EF526EB9FF525B35004AB8B
:1024AC0025AA26EC33CCED33CDD5F0DAAE23AF2410
:1024BC002274E912190474FA121828EAFEEBFF8C44
:1024CC000A8D0B120DEEEAF8EBF9ECFAEDFB8E82AD
:1024DC008F83121722900376E024F7C394055006DD
:1024EC00751401022623120D408A088B09EA4B70E1
:1024FC0003022620EEFCEFFDAA18AB19120DE8859D
:10250C000882850983A3A3780C1216D490822F78A5
:10251C000C1216AE85188285198378101216D49079
:10252C00822F78101216AE780C79101214CF501F1F
:10253C00780C791012166E908243780C1214EF40BE
:10254C005D850C14850D15850E16850F178037903B
:10255C00824385101485111585121685131778146E
:10256C00790C12166E78141214EF50327514007523
:10257C0015007516007517017814791012166E78FF
:10258C0014790C1216357409781412161690829F51
:10259C00780C1216D47814790C12158E800C7514D4
:1025AC00147515007516007517008508828509834A
:1025BC00A3A3A3A3A3A312264112179D880C890DD4
:1025CC00E4F50EF50F7814790C1216357404121804
:1025DC007412264112179DE8FAF50CE4F50D7814E7
:1025EC00790C1214CF50077814790C12166E9003D4
:1025FC0076E06408600AE064066005E0640570201B
:10260C0090823F78141214EF501690822378141293
:10261C001648800C7514007515007516007517009A
:10262C00850A82850B8378141216E3740612183E01
:10263C007F100219B0E0F8A3E0F97AD07B03227482
:10264C00F7121904120E00900521E064017010902D
:10265C006245E4F0A3F053F4F343FE0C5390F312F1
:10266C000DA6E5C654B84441F5C6E59E54476441F1
:10267C0070F8906185740FF090051FE0F47002A360
:10268C00E0604E900520E0600814601B14602E8002
:10269C004075080175090090051FE078081218159F
:1026AC00E508F45280802A75080175090090051F11
:1026BC00E07808121815E508F4529080147508019A
:1026CC0075090090051FE07808121815E508F452FA
:1026DC00A079007F020219B074F7121904E9FEEA1E
:1026EC00FF120E0074016E700C7A807B00900375E3
:1026FC00E0F91212F2902A78E493F46008E493F96A
:10270C00120BB4800953C6B8E59E544770FA120DEB
:10271C00AC900521E064017003120BD290051FE010
:10272C00F47002A3E0604B900520E0600814601A7E
:10273C0014602C803D75080175090090051FE07828
:10274C0008121815E50842808028750801750900E3
:10275C0090051FE07808121815E508429080137553
:10276C00080175090090051FE07808121815E50896
:10277C0042A0120D408B09A909EA496014E5E170E9
:10278C00FCEA2414F582E439F583E0F46003E0F507
:10279C00E174016F700A7A01900375E0F912137CF1
:1027AC000226DF74F11219048A088B098C0A8D0B2E
:1027BC0090822F78081216AE740F121874780C12BF
:1027CC0016D490822F780C1216AE7808790C12144D
:1027DC00CF90824350107808790C12166E7808123C
:1027EC0014EF4014800E780C790812166E780C12C7
:1027FC0014EF50047901800279007F080219B0743B
:10280C00ED1219048A088B098C0A8D0B90822F7893
:10281C00081216AE7413121874780C1216D4908217
:10282C002F780C1216AE780C79081214CF40117850
:10283C0008790C12166EAA08AB09AC0AAD0B8022F3
:10284C007510007511007512007513017810790C54
:10285C0012166E78107908121635AA10AB11AC123C
:10286C00AD137F0C0219B090822F78081216D48AFF
:10287C00828B8378081216C17F040219B074F5128A
:10288C0019048C828D8378081216D48A828B8378F3
:10289C000812169A1228E1C3E09CF0A3E09D1228BE
:1028AC00D3402290823B78081216D48A828B83788C
:1028BC000812165B8A828B83A3A3A3A3E02420F0C7
:1028CC00A3E0344EF080A0F088828983C3E094208A
:1028DC00A3E0944E22EA2404F8E43BF98C828D8325
:1028EC00A3A3A3A3E0FCA3E0FD888289832274F553
:1028FC001219049004D9E0FAA3E0FBE929F8E433B7
:10290C00F9742228F582748139F583E02AF508A33D
:10291C00E03BF5097808121AAB9082631216F2129A
:10292C00246C740212183E8A088B098C0A8D0B7465
:10293C001078081215FDAA08AB097F040219B074AF
:10294C00F11219048A0C8B0D8C0E8D0F7411121848
:10295C0074121AC27411121874E02401F508A3E061
:10296C003400F509E4F50AF50B780C790812150E0C
:10297C009082A778081216D4780C790812150EAA32
:10298C000CAB0DAC0EAD0F12246C740212183EEA97
:10299C004B60047A0180027A00EC2AFCE43DFD7461
:1029AC0013121874E0F8A3E0F9E8FEE9FFECF8ED77
:1029BC00F97A717B0212179D88088909E4F50AF5EA
:1029CC000B8E828F8378081216E3ECF8EDF97A718E
:1029DC007B0212179D8A088B09740578081218154A
:1029EC008E828F83A3A3A3A3E508F0A3E509F07F50
:1029FC00080219B0C082C083E9906000F0D083D087
:102A0C008222C0E074F21219F0A2AFE433FED2AF0E
:102A1C00E589A2E150031211F0758900C2C5751A3F
:102A2C0000EEA2E092AF7F01021A4FC0E074F212E6
:102A3C0019F0A2AFE433FED2AFE58BA2E050031243
:102A4C0011F0758B00C2E880D5C0E0C0D0E8C0E0C2
:102A5C00A8A8D2AFC2C7751A00E8A2E792AFD0E01F
:102A6C00F8D0D0D0E032C2AF02000022FFFFFFFF4F
:102A7C00FFFFFFFFC082C083E99015F0F0D083D038
:102A8C008202013274F6121898E99002E8F0900371
:102A9C0048E0F50875090074027808121815AA08A0
:102AAC00AB091213649002E9122F64606E90034814
:102ABC00E075F003A4FAABF0121364900306122F26
:102ACC0064700B9002E91237A812136A804D9003C0
:102ADC00061247117AFF7BFF12115A7A00801EEA08
:102AEC00F508750900740278081218151241AD74B6
:102AFC00FFF0A3124725A3A3E4F0A3F00A90034828
:102B0C00E0F8EAC39840D8790512082A9002E8E068
:102B1C00F91207167AB47B08120AA002424974F41F
:102B2C001218988A088B09EB548060479002E8E0F1
:102B3C00F91212DA8A0A8B0BAE0AAF0BEA4F602A33
:102B4C008A828B83E064B0701A12083CE960148EA0
:102B5C00828F83A3A3A3A3E0F9EE2405FAE43FFB41
:102B6C0012080CEEFAEFFB1212C8AA08E5096480F1
:102B7C00FB80047A007B00022D9274F21218987478
:102B8C00FB121828EAFEEBFFEA4F6043740312189D
:102B9C0074123411851882851983ECF0A3EDF0744E
:102BAC0002121874E9F0AA18AB19120710E9F5080B
:102BBC0070777413121874E0F50AA3E0F50BE50AAC
:102BCC00450B60658E828F831231A5EE4F700575B3
:102BDC00080280557A067B001213648A0C8B0DA8B0
:102BEC000CA90DEA497005750813803D8A828B8308
:102BFC00E4F0122C3CA3EEF0A3EF1249EAE50AF044
:102C0C00A3E50BF09002EC122D569002EC6017E04D
:102C1C00FCA3E08003EAFCEBFD8C828D83122D5625
:102C2C0070F38C828D83123DCDA908740502498303
:102C3C00A3F08A828B83A32274F21218988908E974
:102C4C00F50C750D007403780C121815850C0A859B
:102C5C000D0B9002EBF09002E91246F6122D546027
:102C6C002F12136A7900801EE9F50C750D007402A1
:102C7C00780C1218159002E91240668882F583A32D
:102C8C00A3E4F0A3F009900348E0F8E9C39840D816
:102C9C00900348E0FA850AF0A4CAA8F0850BF0A4CA
:102CAC0028FB1213648A0C8B0DAE0CAF0DEA4F701F
:102CBC0003022D4A900348E0FC850AF0A4CCA8F04E
:102CCC00850BF0A428FD79001212B07C008032ED47
:102CDC00F50C750D007403780C1218158A828B8311
:102CEC00122D4F8882F583E4F0122D5CA3A3F0A380
:102CFC00F00DEDC3950840D7EE250AFEEF350BFF1E
:102D0C000C900348E0F8ECC3985029ECF50C750DC9
:102D1C00007402780C1218159002E9122D4FE82459
:102D2C0002500109FAE9FB8A82F583EEF0A3EFF079
:102D3C007D0080BEE5089002EBF0790080027913EB
:102D4C0002498612406AF922A3A3123429EA4B22C3
:102D5C00A3F088828983A3A3A3A32274F4121898E6
:102D6C007900EAA2E0501F7508F075098178081205
:102D7C001AAB79107C047D007AF27B15120824744E
:102D8C000212183EE9F97F0402196AC082C08390CE
:102D9C0002EC12416C601C88828983A3A3E06A70E8
:102DAC0003A3E06B8882898370E8A3A3A3A31237E3
:102DBC00A880047A007B00022A8974F21218987495
:102DCC00FD121828EAFEEBFF851882851983E4F0C2
:102DDC00A3F074021218747401F09002EF12416C9B
:102DEC0070111209DA1213649002EF122F6470033F
:102DFC00022F581234FEEE2404F50AE43FF50B853D
:102E0C000A82F583E024FE603C24FC607424FE609E
:102E1C007E24FE7003022EA824FE7003022EB5241D
:102E2C00FE7003022EC224FE7003022ECF24FE700D
:102E3C0003022EDC24FC7003022EFD24FE70030220
:102E4C002F15022F511209DA9002F1EAF0A3EB12BE
:102E5C002F6D12045EE96003022F519002F1121AD9
:102E6C00C28E828F83A3A3A3A3A3124711850882CA
:102E7C008509831237A81207F4740212183E022F28
:102E8C0051AC18AD19EEFAEFFB120842022F20AC30
:102E9C0018AD19EEFAEFFB1208488078AC18AD1992
:102EAC00EEFAEFFB12084E806BAC18AD19EEFAEF90
:102EBC00FB120854805EAC18AD19EEFAEFFB120849
:102ECC005A8051AC18AD19EEFAEFFB120860804431
:102EDC00740212187E880C890D780C121AAB7402CD
:102EEC0012188EEEFAEFFB120866740212183E806E
:102EFC0023AC18AD19EEFAEFFB12086CE9F870165A
:102F0C007402121874E4F0803CAC18AD19EEFAEFB0
:102F1C00FB120872E9F8E8602C8E828F83A3E064C0
:102F2C00146022850A82850B83E09002F1F08518EB
:102F3C00828519831237A89002F2123411E8A31279
:102F4C002F6D120458EEFAEFFB1207CA7402121816
:102F5C0074E0F97403024983EAF0A3EBF0F9EA494F
:102F6C0022F07CF17D0285088285098312342922A6
:102F7C0074E812189874FA1218287404121874EC65
:102F8C00F0A3EDF08A128B13EA2405F50EE4351349
:102F9C00F50FEA2402F510E43513F51185108212B1
:102FAC003A4F7508007C037D0079007AF17B0212A0
:102FBC0012B0E50E2402F516E4350FF51774021263
:102FCC00187E880C890D780C121AAB850E82850F31
:102FDC0083A3A3A3A3E0F50C750D00780C121AAB18
:102FEC00E50E2405F50CE4350FF50D780C121AAB33
:102FFC00851682851783123A9712183E8A0C8B0D10
:10300C00E50C450D700302317480208518828519FA
:10301C0083E088828983F00508851882851983A34B
:10302C00E0C0E01231AFD0E0F00508E50A24FBF86F
:10303C00E50B34FFF9C3E50898E4994003023174B9
:10304C007E007F00851282851383A3A3A3A3E0F5E2
:10305C00097809121AAFE4F514F5157814121AABA5
:10306C007514EE7515027814121AAB9002EF121A41
:10307C00C27409121874121AC2E50A24F9F9AC0CBC
:10308C00AD0D123AA912183EE9600302311B850EF0
:10309C0082850F83A3A3A3A3A3A3A3E0F89002EEBE
:1030AC00E068706BE0F5148E157814121AAB1247A9
:1030BC000E850E82850F83A3A3A3A3A3A3A3A312A0
:1030CC0037A81212AA740212183EE9604212416922
:1030DC007034E4F5147814121AAB7CFF7DFF790779
:1030EC00123AB812183E8B15A9151231C4701785F7
:1030FC000E82850F8312489D740412187412415667
:10310C00123ACA0231A2850C82850D831231A5A810
:10311C0018A919881489157814121AAB740412188A
:10312C0074121AC2851682851783123A7912183EC8
:10313C008A0C8B0DEE4F700302300C1231AFEE1275
:10314C0031BA123A60EF1231BAF8A3E03400F9E563
:10315C000C4B60030230178882898374FFF00508DA
:10316C001231AF74FFF00508E50860141313543FD7
:10317C0012341712046AE9600312407D790080163C
:10318C00850E82850F8312489D74041218741241A7
:10319C0056123DCD790A023A30A3A3A3A3E0FEA3B5
:1031AC00E0FF22A8089002F2E028123A6022F00513
:1031BC0008089002F2E028229002F2EAF0A3EBF069
:1031CC00EA492274E812189874FA12182874021238
:1031DC0018741234117404121874ECF0A3EDF0741A
:1031EC0002121874E02405123A3AF583E0F50CA3A8
:1031FC00E0F50D7402121874E02402F510A3E0340B
:10320C0000F5118510821237AC750800750900EABB
:10321C0024FCFEEB34FFFF8008050CE50C70020566
:10322C000DA808C3EE98EF940050030233C2A818FF
:10323C00A919880E890F780E121AAB851482851580
:10324C0083A3A3A3A31246ED121AABE5142405F530
:10325C000EE43515F50F780E121AAB851482851510
:10326C0083A3A3124711AA0CAB0D12072E740612DE
:10327C00183E8A0E8B0FEA4B70030233C2EA240409
:10328C00F516E4350FF517851682F583E0F50CA3DA
:10329C00E0F50D851882851983121AC2AC0EAD0F9C
:1032AC00851082851183123A4612183EE9F50960A1
:1032BC00030233C27402121874123A70F5097809B9
:1032CC00121AAFE4F512F5137812121AAB7512EE4E
:1032DC007513027812121AAB9002EF121AC274070D
:1032EC00121874121AC2EEF9AC0EAD0F123AA912E2
:1032FC00183EE9F50960030233C2E508703BE4F5BA
:10330C000EF50F780E121AAB7CFF7DFF7909123A7D
:10331C00B812183E8B0FA90F9002F31231C7700D23
:10332C00740412187412340479110233F39002EEFF
:10333C00E024029002F2F080149002F2E0FA900283
:10334C00EEE0790024025001096A49706DA80890DA
:10335C0002EEE0FAE82AFAE43400FBEE9AEF9B4026
:10336C0055851682851783E0C0E09002F31231B4C4
:10337C00D0E0F00508851682851783A3E0C0E0082D
:10338C009002F31231B4D0E0F005089002EE124630
:10339C00ED121AAB12470EA8081233F612183E9013
:1033AC0002EEE02508F50874FF650C700474FF65E7
:1033BC000D6003023225E508601C9002F2E0F5F086
:1033CC00E50884123417120470E960069002F312B7
:1033DC00408079008011E509700375090A740412A4
:1033EC001874123404A909023A309002F3E028FA56
:1033FC00A3E034001246CB221246FAE50CF0A3E50A
:10340C000DF022A3A3EAF0A3EBF0229002F1F07CE2
:10341C00F17D0285108285118312342922123DBD63
:10342C00FB2274EC12189874FC121828123EDD74EE
:10343C000212188E850A82850B831235FD700302E9
:10344C0034EE1234FEA818A91988108911781012BC
:10345C001AAB7CFF7DFF790B850882850983123AB4
:10346C00BE12183E123508700B850A82850B83122A
:10347C003AC7807B8E828F83A3A3A3A3E0F5127837
:10348C0012121AAFE4F512F5137812121AAB751268
:10349C00F17513027812121AAB7810121AAB740968
:1034AC00121874121AC274091218741235F685089F
:1034BC0082850983123AAF12183EE9FE70157CF131
:1034CC007D028508828509831237A8120476E9707B
:1034DC0009801A74166E70027E0012407DEE700424
:1034EC00800B7E01850A82850B83123DCAEEF902A0
:1034FC003DDFEE2402F508E43FF509228A108B111A
:10350C009002F2EAF0A3EBF0EA4B2274EC1218985A
:10351C0074FC121828EAFEEBFF8C0E8D0FEA2405C2
:10352C00F508E43FF509740212188E8508828509A6
:10353C00831235FD70030235E6EE2402F50AE43FF2
:10354C00F50BA818A919881089117810121AAB7CE0
:10355C00FF7DFF790D850A82850B83123ABE121806
:10356C003E123508700B850882850983123AC78094
:10357C00768E828F83A3A3A3A3E0F5127812121A7E
:10358C00AF850882850983A3A3121AC27512F1753F
:10359C0013027812121AAB7810121AAB74091218A3
:1035AC0074121AC274091218741235F6850A8285BF
:1035BC000B83123AAF12183EE9FE700F7CF17D02BC
:1035CC001237A212047CE97009801A74166E70020C
:1035DC007E0012407DEE7004800B7E018508828592
:1035EC000983123DCAEEF9023DDFE0F9AC0CAD0DDA
:1035FC0022123DB58A0C8B0DEA4B2274E8121898F6
:10360C0074FE1218288A168B178C148D15EA240553
:10361C00F50CE43517F50DEA2402F50EE43517F533
:10362C000F850E821237AC8A088B09750B007C0350
:10363C007D0079007AF17B021212B0750A00E50860
:10364C0014F5100424FFF508E50934FFF509804C46
:10365C009002F1E0FA9002EEE0F8EA28F8E4340087
:10366C00F9E50898E50999500D9002F1E0F8E5109C
:10367C00C3989002EEF0E0F5127513007812121A4E
:10368C00AB12470E9002F2E02A1233FB12183E9056
:10369C0002EEE0F89002F1E028F0050A850C828534
:1036AC000D83A3A312407640030237879002F1E00A
:1036BC00C39508E495094003023787AE0AEE2EFE47
:1036CC00E433FF1237C9AC18AD1912471BE439FBB0
:1036DC001207348A128B13AC12AD13EA4D701B75A2
:1036EC000B011237BA123DCE9002F2122D56600326
:1036FC00121322A90B7402023A32851682851783A3
:10370C00A3A3A3A3E0F50B780B121AAFE4F512F503
:10371C00137812121AAB7512EE7513027812121A74
:10372C00AB9002EF121AC27407121874121AC2A9C3
:10373C0010850E82850F83123AAF12183EE9F50BF5
:10374C0070A0124169600302365CE4F512F513783F
:10375C0012121AAB7CFF7DFF790F850E82850F83C9
:10376C00123ABE12183E8B13A9131231C460030215
:10377C00365C1237BA123ACB0237017CF17D0285E6
:10378C000E82850F831237A8120482E96003023679
:10379C00F47900023701850A82850B8312342922C1
:1037AC001237B022F583123DBDFB12054E221237A3
:1037BC00C9123DBDF9EA85148285158322850C82D8
:1037CC00850D83E02EF8A3E03F8882F5832274E810
:1037DC0012189874FA1218287404121874123411EE
:1037EC008C168D177404121874E02405F50EA3E0E2
:1037FC003400F50F7404121874E02402123A3A12D1
:10380C003A4F7F007E00A818A91988088909780802
:10381C00121AAB850E82850F83A3A3A3A3E0F50830
:10382C008F097808121AABE50E2405F508E4350F5C
:10383C00F5097808121AAB850E82850F83A3A312A3
:10384C003A9712183E8A0C8B0D8024123A6AF00FAC
:10385C00123A6AF00F9002EE123DA0121AAB124708
:10386C000EEFF81233F612183E9002EEE02FFFE541
:10387C000C450D607A851882851983121AC2AC0C1E
:10388C00AD0D851482851583123A4612183EE9FE59
:10389C00E50C2404F510E4350DF511E9704B7404B6
:1038AC00121874123A70F5087808121AAFE4F50879
:1038BC00F5097808121AAB7508EE7509027808122A
:1038CC001AAB9002EF121AC27407121874121AC2B1
:1038DC00E50A24FAF9AC0CAD0D851482851583121A
:1038EC003AAF12183EE9FE6036123A86123DCDEF21
:1038FC007003023A1D9002F2E0F5F0EF849002F1B1
:10390C00F07CF17D028514828515831237A8120490
:10391C0088E960069002F31240807900023A30EF99
:10392C00F508703DE4F512F5137812121AAB7CFF12
:10393C007DFF7911851482851583123ABE12183ECB
:10394C008B13A9139002F31231C77009123A861225
:10395C003ACA023A309002EEE024049002F2F0806F
:10396C00359002EEE0F89002F2E0FCE82404FAE470
:10397C003400FBEA6C4B6003023901E50A24FAFAC5
:10398C00E50B34FFFBE50828F8E43400F9EA98EB82
:10399C00995003023901851082851183E0C0E090B3
:1039AC0002F3E02FF8A3E034008882F583D0E0F036
:1039BC000F851082851183A3E0C0E0123A57D0E046
:1039CC00F00F740212187E880889097808121AAB55
:1039DC007402121874121AC2850E82850F83A3A367
:1039EC00123A7912183E8A0C8B0DEA4B700302388E
:1039FC00577402121874E0C0E0123A57D0E0F00F7E
:103A0C007402121874A3E0C0E0123A57D0E00238E6
:103A1C005FEE70027E0A850E82850F83123A8C123D
:103A2C003DCDEEF9740612183E7F1002196AF5149A
:103A3C00A3E03400F5158514822212342912071CD8
:103A4C007402221237B08A0A8B0B22123A5B229034
:103A5C0002F3E02FFAA3E034008A82F58322123AB3
:103A6C005B74FF221246FAA3A3A3A3E0221247150C
:103A7C00AA0CAB0D12073A740422851082851183AF
:103A8C001248A3F985168285178322124715850ED5
:103A9C0082850F8312342912072E74062285108218
:103AAC0085118312342912089C7409228510828591
:103ABC001183123429120806740222123DD3E8F045
:103ACC00A3E9F079112274EA12189874FE121828DE
:103ADC008A088B098C128D13EA2405FEE43509FF44
:103AEC00123DA98A0C8B0DEE2406F50EE43FF50F62
:103AFC00EA4B7003023BB8E5082402F50AE43509E9
:103B0C00F50B8A828B83A3A3A3E0A2E55022123B80
:103B1C00E28A108B11EA4B60247912AC0CAD0D12B9
:103B2C0037A2851082851183121896E9F50C707FE7
:103B3C00850E82850F83E0600979528011750C0E19
:103B4C00806D850882850983A3A3A3A3E0F9E4F51E
:103B5C0008F5097808121AAB8E828F83A3A3E0F5BF
:103B6C00087808121AAB8E828F83A3A3A3121AC2F1
:103B7C008E828F83124711850A82850B83123EEF4A
:103B8C0012183EE9F50C7011850E82850F83E070DA
:103B9C002C1237A212048E80247416697011750CC5
:103BAC000074181218741246F6E48010750C011289
:103BBC004899851282851383E8F0A3E9F0850E827B
:103BCC00850F83E0600479008002A90C740212183E
:103BDC003E7F0E02196A85188285198312342912C8
:103BEC0008902274EC12189874F71218288A0A8B11
:103BFC000B8C108D11EA2405FEE4350BFF750C00BF
:103C0C00123DA98A088B09EA4B7003023D8BE50A29
:103C1C002402F50A5002050B8A828B83A3A3A3E02E
:103C2C00A2E55025123BE28A0C8B0DEA4B604F79D2
:103C3C0012AC08AD091237A2850C82850D831218BF
:103C4C0096E9F50C6003023D8E850A82850B83E0B4
:103C5C00F508A3E0F509AA08FB120884EA4B7019D1
:103C6C007AFF7BFF120884EA4B7003023D818A8243
:103C7C008B83E508F0A3E509F07508008008750C46
:103C8C000E023D8E05089002EBE0F8E508C3984063
:103C9C0003023D81E508F50E750F007403780E12D2
:103CAC0018158A828B83A3A3E0250EF8A3E0350FA9
:103CBC0012415E70CF8E828F83123DC21234118EF0
:103CCC00828F83A3A3123DC212340FEE2404F50895
:103CDC00E43FF509850882F583E088828983A3A3F4
:103CEC00A3A3F0A3E4F0EE2405F50EE43FF50F8555
:103CFC000E82F583123DC2A3A3A3A312340F751237
:103D0C00077513007812121AABEEFCEFFD74041257
:103D1C0018861246CC12183EE4F5127812121AAB21
:103D2C00850882850983E0FC7D007917850A8285E8
:103D3C000B83123ABE12183E740712187412350F08
:103D4C006038850882850983123DA0121AAB850E56
:103D5C0082850F831247111246CC12183E74021240
:103D6C00188E1237A2120494E96023740712187487
:103D7C001240808019750C098008750C1180037530
:103D8C000C01124899851082851183123DCDA90C26
:103D9C0074098041E0F508750900780822AC18AD6B
:103DAC00198E82F583123DB522123DBDFB120734EC
:103DBC0022E0FAA3E0221234298882898322123D60
:103DCC00D3E8F0A3E9F022E0F8A3E0F9850E8285B0
:103DDC000F8322740412183E7F0C02196A74EC12C1
:103DEC001898123EDD751000EA2402F50CE43FF53C
:103DFC000D850C82F5831237A81208848A088B096A
:103E0C00EA4B7003023EC1850A82850B83E0640194
:103E1C006003023EB6AC08AD09AA0AAB0B120878D7
:103E2C00E9606F8508828509831231A7EE2406F5B7
:103E3C000AE43FF50B8E828F83A3A3121AC28E82E3
:103E4C008F83A3A3A3A3121AC2850A82850B8312A4
:103E5C001AC279188E828F83124711850C82850DB8
:103E6C0083123EEF12183EE9F8741668700B850A3F
:103E7C0082850B83E4F0A38014E960128E828F8319
:103E8C001237A8850E82850F83EAF0A3EBF0891018
:103E9C008018780E121AABAC08AD09EEFAEFFB12D3
:103EAC00087E740212183EE9F510AA08AB09120834
:103EBC008AE510700E850C82850D831237A81204CA
:103ECC009A8009741665107003751000A910023DD4
:103EDC00E4EAFEEBFF8C0E8D0FEA2405F50AE43FB5
:103EEC00F50B221234291208A274062274EA121855
:103EFC00987508007509007E007F00750A00EC2497
:103F0C0002F510E43DF5118035EC65087003ED65A4
:103F1C00096003023FAD88828983A3A3E06A700322
:103F2C00A3E06B707C88828983A3A3A3A312489D12
:103F3C00EE28FEEF39FFEA28FAEB39FB050A1240AE
:103F4C0073503BE50AF50C750D007403780C1218D0
:103F5C001585108285118312406612415E601FE543
:103F6C0008450970A48C088D09888289831231A5B3
:103F7C0088828983A3A3E02EFAA3E03F80BDE50AE3
:103F8C00C394025003024061750800750900EE4F9E
:103F9C00600FEEFAEFFB12131C8A0E8B0FEA4B70BC
:103FAC00057900024063750B00807FE50BF50C75FD
:103FBC000D007403780C121815851082851183E09E
:103FCC00250CF50CA3E0350DF50DE50C2406F514C8
:103FDC00E4350DF515851482124161603AE50C2427
:103FEC0004F512E4350DF513851282F583121AC20D
:103FFC00E50E2508FAE50F1246C512183E85128209
:10400C00851383E02508F508A3E03509F509851427
:10401C0082851583124080E50B600D7C087D00794C
:10402C0000AA0CAB0D1212B0050BE50BC3950A5090
:10403C0003023FB785108285118312489D8882F553
:10404C0083A3A3A3A3A3A3E50EF0A3E50F122D5DF9
:10405C00EEF0A3EFF07901023BDD12406A22E0257D
:10406C000CF8A3E0350D229002EBE0F8E50AC398BA
:10407C00229002F21234291213222274F012189890
:10408C008A0E8B0F8C0A8D0B750D00750C00804AF7
:10409C007916EE2406F508E43FF5098E828F83A38A
:1040AC00A3121AC28E828F83A3A3A3A3121AC28552
:1040BC000882850983121AC2850E82850F83A3A3F9
:1040CC00123EEF12183EE9F50D74166970648508FE
:1040DC0082850983E4F0A3F0050C9002EBE0F8E58F
:1040EC000CC398505EAA0C7B008A088B0974037869
:1040FC0008121815850A82850B83A3A31241B8E810
:10410C00FEE9FF12415F603BEA24010A50010B906B
:10411C0002EBE06A7001EB601488828983A3A3A38D
:10412C00A3A3A3A3A312416C600302409C791802C1
:10413C00409EE960A31248997410121874124156EB
:10414C00123DCDA90D7F0802196A123DBDF5838A77
:10415C008222F98882F583124715EC4D229002F2E7
:10416C001248A3F9E8492274F61218987C008001D1
:10417C000C900348E0F8ECC398501FECF508750957
:10418C0000740278081218151241ADE06A7003A38E
:10419C00E06B70DCE8FAE9FB80047A007B000242F9
:1041AC00499002E91241B88882F58322E02508F88B
:1041BC00A3E03509F92274F21218988A088B097554
:1041CC000A0080278E828F83A3A3A3A3122D546091
:1041DC00031213227C087D007900EEFAEFFB121219
:1041EC00B08E828F83E4F0A3F0050A12407350283E
:1041FC00E50AF50C750D007403780C12181585087A
:10420C0082850983A3A3E0250CFEA3E0350DFF8E68
:10421C0082F58312416C70AC85088285098374FF2A
:10422C00F0A3F002498674F612189812483A7006F8
:10423C007A007B008007A3A3A3A31237A87F0202F6
:10424C00196A74F6121898E9FE8C828D83E0640268
:10425C00703D12482AF508A3E0F9A80874026870AA
:10426C000374296970297508027509007808121AF7
:10427C00AB740E121874121AC2740E121874121A2D
:10428C00C2EEF912116C740612183EE9F98002792B
:10429C000180AA74E812189874FB121828E9851882
:1042AC0082851983F08A168B17ECFEEDFF751000D2
:1042BC008C82F583A3A3A3E0A2E4502A741D1218E8
:1042CC0074123BE88A828B83E58245837003024635
:1042DC00BB790AEEFCEFFDAA16AB17121896E9F59E
:1042EC001060030246BE741F121874E0F508A3E0B8
:1042FC00F5097421121874E0F50AA3E0F50B742388
:10430C00121874E0F50EA3E0F50F8E828F83E06433
:10431C00026003024667A312489D850882850983C3
:10432C00A3858212858313EE2406F50CE43FF50D6C
:10433C008882898312471BF514E439F51578141219
:10434C001B3501000028012876430700022842444F
:10435C000328AB430029634501298E4502292C45CE
:10436C0003296345042904466746E50E450F60039F
:10437C00024662850C82850D8312489DE8FAE98815
:10438C0082F583E0850A82850B831247251246D27B
:10439C00121AAB8A828983A3E0FCA3E00245F0E504
:1043AC000E450F6003024662850A82850B837401F9
:1043BC00F0124703850882850983F07C007D008E0E
:1043CC00828F83A3A3A3A3E02401FAA3E03400FB10
:1043DC00120734EA4B60458A828B83E02402F8850D
:1043EC000A82850B83E028F0EA2404F8E43BF98880
:1043FC0082F583E085128285138312472BF08A8223
:10440C008B831246D2121AAB8A828B83A31247116A
:10441C00E5082403FAE43509FB0245F5850A828593
:10442C000B83E02404F07C047D007900AA12AB130A
:10443C001212B00246BEE50E450F60030246621230
:10444C004703FEA3E0FF850A82850B837404F0EE1C
:10445C00850882850983F0EF851282851383F074B9
:10446C000312188E12481C700302450D8A828B832E
:10447C00A3A31231A5740112187E880E890F780E31
:10448C00121AAB7405121874121AC27CFF7DFF123B
:10449C00073A740412183EEA4B7033850C82850D72
:1044AC00831246ED121AAB850C82850D83A3121A6A
:1044BC00C27C027D007ABF7B8212053C7404121808
:1044CC003EE9700A740112187474FFF0A3F08E8226
:1044DC008F83E064027034750C02750D00780C1239
:1044EC001AAB8E828F83A3124711E5082404FAE4D9
:1044FC001246C512183E850A82850B83E024028081
:10450C00097401121874EEF0A3EFF0740112187410
:10451C001246E3F07401121874A31246DB02465CD7
:10452C00E50E450F6003024662850C82850D8312F1
:10453C0046F6124711AA16AB17121172850A82851C
:10454C000B837402F0850882850983EAF085128258
:10455C00851383EB02465FE50E450F60030246624E
:10456C00124703F8A3E0F9850A82850B837402F0E5
:10457C00E8850882850983F0E98512828513830218
:10458C00465F850C82850D831237A8121292EAF8C9
:10459C00C3950EE4950F405AEA650E450F700478EA
:1045AC00008021851882851983E0FCE50E2CFCE443
:1045BC00350FFDC3EC9AED94005003E08005E50E39
:1045CC00C8C398F8E8850A82850B83F0F50A750B49
:1045DC0000780A121AAB850C82850D83E0250EFC3F
:1045EC00A3E0350FFDAA08AB091246CC12183E0207
:1045FC0046BE7510070246BEE50E450F7058850C79
:10460C0082850D8312489D850A82850B837407125F
:10461C0047251246DB124725A3E0851282851383BA
:10462C00F0E82402FAE439FB8A82F5831246DBA314
:10463C00122C3C1246E3122D5C1246E7F0E82405DE
:10464C00F8500109F58289831246E7A312472BA380
:10465C00A3A3A3F0805C75100B8057741D12187403
:10466C00124833604A1248A3880CF50DE8450D60DA
:10467C003E7425121874E0F5107810121AAF780EEB
:10468C00121AAB780A121AAB7808121AAB7407120A
:10469C001874E0F9EEFCEFFDAA16AB17850C8285B9
:1046AC000D83121896740712183EE9F510800375E5
:1046BC00100EA9107405023A3235091246CB22FBB2
:1046CC00121298740222E0F50A750B00780A22E0A7
:1046DC008508828509832212473522124735A3A308
:1046EC0022E0F50E750F00780E221246FA22E0F841
:1046FC00A3E0F583888222850C82850D831246FA0D
:10470C00E0229002EF12471522E0FCA3E0FD2212FA
:10471C003DBDF8E4C8F9EA2822F08882898322F0AA
:10472C0088828983A312473522E085088285098314
:10473C00A3A32274EE12189874FE1218288A088B00
:10474C0009ECFEEDFF890AAC18AD1912481C700378
:10475C0002480D851882851983124833700302486C
:10476C0008A31248A2880EF50FE8450F7003024803
:10477C00087414121874E0F510A3E0F511E50AF5AD
:10478C000B780B121AAF7419121874121AC2781013
:10479C00121AAB741B1218741235F6AA08AB0985E1
:1047AC000E82850F83121896740512183EE9F50BCC
:1047BC00705274FE650A604C850C82850D83E06432
:1047CC0002704112482AFAA3E0F9EAF87402687000
:1047DC0003742969702E85108285118312471BF58D
:1047EC000CE439F50D780C121AABEEFCEFFDAA08AF
:1047FC00AB091208BA740212183E8008750B0E80B1
:10480C0003750B01A90B740212183E7F0A02196A78
:10481C00EEFAEFFB1207348A0C8B0DEA4B2212488E
:10482C00A28882F583E02212342912483A22120817
:10483C00368A828B83E58245832274F6121898742B
:10484C00FE121828740C12187412489DE8851882F0
:10485C00851983F07401121874E9F0E4F508F50970
:10486C007808121AAB7508027808121AAB74041285
:10487C00187E880889097808121AAB79FE1208A2EA
:10488C00740612183E740212183E0242498E828F30
:10489C00831248A3F922A3E0F8A3E02274F71218BC
:1048AC0098EAFEEBFF890890030612471112117269
:1048BC00EA5402600BA908EEFAEFFB1207288002FB
:1048CC0079017F0102196A74F212189874FE121899
:1048DC0028EAFEEBFF74016960137402696003023D
:1048EC0049817901120ABEE96003024981EEFAEFAF
:1048FC00FB120884EA4B600312088AA818A91988CD
:10490C000889097808121AAB75080275090078082D
:10491C00121AAB7508B77509827808121AAB7CFFAE
:10492C007DFF7A017B0012072E740612183E803B25
:10493C00850882850983A3A3A3A3A3A31246F61219
:10494C004711EEFAEFFB12115AE4F50CF50D780C49
:10495C00121AAB7402121874121AC27CFF7DFFAAD1
:10496C0008AB0912073A740412183E8A088B09E541
:10497C0008450970BB740212183E7F0602196A744E
:10498C00F41218988A088B09ECFEEDFF9015F0E0F4
:10499C00F460487A097B001212C2EA4B603D8A82AD
:1049AC008B8374B1F0A3E41249EA122C3DA3E50801
:1049BC00F0A3E5091249EAA3EEF0A3EFF0740C1290
:1049CC00187412489D8A828B83A3A3A3A3A3A3A3C9
:1049DC00123DCD9015F0E0F91212CE022D92F08A14
:1049EC00828B83A3A3A3A322C082C0839061907403
:1049FC0004F0A37448F0A37402F09061807440F04A
:104A0C009061BC7403F09061877419F090626574C6
:104A1C001BF0906249E0C3941390619C40107409A0
:104A2C00F09060667401F090619F7428800D740B97
:104A3C00F0906066E4F090619F742CF0124BD9708A
:104A4C0009C29190037A7467800590037A7461F0BF
:104A5C00902A7EE493906186F0902A78E493F46037
:104A6C0006E493F9120BB47905120E8A024E42C079
:104A7C0082C083E9540FF9906185E0696012E5C644
:104A8C0054B84441F5C6E59E5447644170F8E9F0CA
:104A9C0053C6B8E59E544770FA024E42C082C0839A
:104AAC00A8A853A87E906181E41258B7C2BA539A51
:104ABC00FEC289759B00C2C275E90075910075BF75
:104ACC000075A91175B905906181F0A374C01260CD
:104ADC003BD2BA439A0174805842A8024E42C0821B
:104AEC00C08374F81218289003781262D0700302F5
:104AFC004BBA900378E0544060177908AA18AB19A8
:104B0C00120CB0AA18AB19120926900378E054BF06
:104B1C00F0E054806010790C7A477B05120CB09051
:104B2C000378E0547FF0E0A2E05019124BD97009E1
:104B3C00C29190037A7467800590037A7461124B6A
:104B4C00C254FEF0E054026019124C1E7009D2914E
:104B5C0090037A7471800590037A746A124BC25474
:104B6C00FDF0E054046009902A7C124BCB54FBF00E
:104B7C00E054086009902A7D124BCB54F7F0E054B6
:104B8C00106009902A7E124BCB54EFF0E054206059
:104B9C000A120932900378E054DFF0A3E05401606C
:104BAC000D120BD2120938900379E054FEF0740800
:104BBC0012183E024E42F012092C900378E022E4C7
:104BCC0093906186F0120932900378E02290619AFA
:104BDC00124E16900521E0640122C082C083E96068
:104BEC00051460178029124BD97009C29190037A71
:104BFC007467801A90037A74618013124C1E7009CA
:104C0C00D29190037A7471800590037A746AF002E1
:104C1C004E4290619A124E08900521E06401227474
:104C2C00EA12189874F4121828908277AC18AD19FF
:104C3C00740412173B902A7C93F46003024D9D90F0
:104C4C007808E0C394025003024D819081C2740431
:104C5C0012188E740812173BA818A91988148915F4
:104C6C00740412187E88088909AE08AF097510FF04
:104C7C007511FF750EFF7C00750C48750D78801250
:104C8C0074086C7003024D1674096C607D740A6CA8
:104C9C006078850C82850D8378081216D48E828FED
:104CAC0083A909E50AC9F512741878081215FDE5EF
:104CBC00124508F8C3E098A3E099850C82850D8312
:104CCC0078081216D440188E828F837418780812C4
:104CDC0015FDE5124508F8E0C398F8A3E0801A74B6
:104CEC001878081215FDE5124508FAE9FB8E828F3B
:104CFC0083125F4FEAC398F8EB99F9C3E89510E972
:104D0C0095115006881089118C0E0CE50C2404F5B5
:104D1C000C5002050DECC394135003024C8C74FF21
:104D2C006510700474FF65116025E50EF5087402BA
:104D3C00780812181574482508F58274783509F529
:104D4C008378081216D4851482851583E508F0EE55
:104D5C002402FE50010F851482851583A3858214CD
:104D6C00858315740C121874E5826E7003E5836FDD
:104D7C006003024C797508017509007808121AABAA
:104D8C00740212188E7A9F7B0A1211C674021218C2
:104D9C003E740C12183E7F0E02196AC082C08390BA
:104DAC0061AE7468F0A3746AF090624574FBF0A372
:104DBC0004F053F4FD43FE029005217401F0906160
:104DCC00A0E0643A90619A7019124E167401640155
:104DDC007009C29190037A7467801E90037A746193
:104DEC008017124E08740164017009D29190037AF5
:104DFC007471800590037A746A025031743FF0A389
:104E0C00745AF09061A0747FF0227433F0A374553F
:104E1C00F09061A0743AF022C082C0839004D3E079
:104E2C006401700A9004D8E06004790C8002790067
:104E3C008004A2E092AFD083D082020132C082C043
:104E4C008375E1F19004D6E0605314600914605747
:104E5C0014604F147056120BE49004C5E0F97AC636
:104E6C007B04120E0C90827B1216F2120E42908270
:104E7C002B1216F2120E189004D7E0F9120E2479A8
:104E8C0001120E7E9004C312519F241AF582E4384D
:104E9C00F58374FCF0A3740BF079008099120BEA83
:104EAC0080B7120BF080B2120BF680AD791280EB4A
:104EBC0074F412189875D90D9004CCE0A2E0E43388
:104ECC001313F812508C484401F5D97582C67583BA
:104EDC00041250967004E583640470F57582CD75E8
:104EEC0083041251F8E58264D37004E58364047082
:104EFC00F175E1959004CCE0F97ACD7B04120E1299
:104F0C00901614748AF0A3740B124FE012501E12F8
:104F1C0050151251679004D6E064019004C3700BD5
:104F2C00124F711216D490827F8009124F71121693
:104F3C00D49082A3780812164890822F7808121603
:104F4C00AE9004C3125E4BE438F58378081216E376
:104F5C009004C312519F12500C7413F0900376748A
:104F6C0002F0025F3C126258A3A3780822C082C0F0
:104F7C008312507CF5D97582C675830412509670D5
:104F8C0004E583640470F59004DCE0600A78C3796E
:104F9C0004FA125130DAFB12511F1250967004E5CC
:104FAC0083640470F59004FCE0600D78C37904FA16
:104FBC00E8243A125133DAF875E195901614749688
:104FCC00F0A3740B124FE0124FEA7412F0900376B8
:104FDC00740180511251507490F0A3740B22125032
:104FEC001E12501512516B9004C3125E4FE438F52B
:104FFC008374FF1258A59004C31251A312500C22B3
:10500C002414F582E438F58322F0A374A8F0A37479
:10501C000B221250222212502622F0A37410F0A35D
:10502C00740D22F0A3F0024E42C082C08312507C59
:10503C004402F5D97582C67583041250967004E546
:10504C0083640470F59004DCE0600A78C37904FA98
:10505C00125130DAFB75E19590161412509FF0A3A3
:10506C0012509F124FED7414F0900376740480B5B7
:10507C009004DC12508322E02407F5D912508C22C4
:10508C009004C5E0C4333354C022E0F5D9A3E582C3
:10509C0064CC2274A21250AC1250ACF0A3740B224C
:1050AC00F0A3740BF0A374A222C082C08312507CB4
:1050BC004406F5D97582C67583041250967004E5C2
:1050CC0083640470F59004DCE0600A78C37904FA18
:1050DC00125130DAFB12511F1250967004E58364A2
:1050EC000470F59004FCE0600D78C37904FAE824B0
:1050FC003A125133DAF875E195901614749CF0A3BA
:10510C00740B125146124FEA7415F0900376740327
:10511C000250319004FC1250834404F5D97582C6B8
:10512C0075830422E8241AF582E439F583E0F5D975
:10513C0088828983A3A882A983221251507410F00B
:10514C00A3740D22125154221251617410F0A374E5
:10515C000D12516122125026F0A32212516B22F033
:10516C009016227410F0A3740D1251547410F0A305
:10517C00740D125022F022C082C0839004C31251CD
:10518C009F2406F582E438F583E402502F851882BB
:10519C008519831251A322E0F8A3E0C82274F712F8
:1051AC0018989003A4125F4174A628F8740339F977
:1051BC00E82405FAE439FB8A82126021A3A3A3A395
:1051CC00A3A3A3A3A31262B7A3A3A3A3A3A3A3E024
:1051DC0024FFF8A3E034FFF98A828B8312628902E0
:1051EC0053DD7C017903120D04740222E0F5D9A37E
:1051FC00221255183BF583E022F0EA2484F582E470
:10520C003BF583E022EAF8EE28F8E43BF9E8227457
:10521C00F7121898EAFEEBFF9061D0E0706875D930
:10522C000E75D90375D9047A00125211248D1252BD
:10523C00AC40F67A0012521124851252A640F67533
:10524C00E1957908EE248D12529F24851252977C99
:10525C0000ECF8C3E498FA95E0FBEE2AFAEF3BFB7E
:10526C00EA248C12622DC0E0EE28F8E43FF9E82421
:10527C00ACF582E439F583D0E0F00CECC394084033
:10528C00D012539F800279000253DDFAE43FFB12E7
:10529C000CA4221252977904EE221252B2940422D8
:1052AC001252B2940822F582E439F583E0F5D90A5A
:1052BC00EAC322C082C08375D90275D90375D9059A
:1052CC0075E195EA1253373B125F4DEA2471F58272
:1052DC00E43B1253AC024E4274F6121898EAFEEB01
:1052EC00FF9005277406125346121AAB1251EE1298
:1052FC00183E75D90675D903758227758305125327
:10530C003D7004E583640570F575E195900376E0D6
:10531C00640870111253363F125F4DEE2471F58202
:10532C00E43F126287790102548BEE246FF582E41C
:10533C0022E0F5D9A3E582642C22F07508277509C3
:10534C000578082274F6121898EAFEEBFF9061D0EB
:10535C00E070337801900527740BF0900376E064CD
:10536C000770137508277509057808121AAB1251C6
:10537C00EE12183E78051256031251F8DAFB75E15D
:10538C009512539F8002790002548B75E195790434
:10539C00120E48EE246F1262D6EE2471F582E43FB1
:1053AC00F583E8F0A3E9F079012274F7121898EA72
:1053BC00FEEBFF75D90375D90375D90DEA24DF12FD
:1053CC00611AF5D91253978008F0EEA2E092AF79EA
:1053DC00007F0102196AE8C39A95E0C365D03322B5
:1053EC0074F612189812550C60047A0F80027A0B1E
:1053FC001253E240437C09900527EC12545D125481
:10540C006CDDFB12611760197508277509057808A2
:10541C00121AAB7903EEFAEFFB1251F212183E7C22
:10542C000D12544812550370FB75E1957904120E58
:10543C004812558C790180027900804312544E8CAD
:10544C00082274012CF5D975D9037582277583054B
:10545C0022F0EE24E4F8E43FF97A287B057D08225B
:10546C0088828983E08A828B831262BFA3A882A977
:10547C00838A828B83A3AA82AB8322A2E092AF7F22
:10548C000202196A74F612189812550C60047A0C00
:10549C0080027A081253E2405A7806900527740C61
:1054AC00F0900393E0900528F0900394E090052988
:1054BC00F0900395E090052AF0900396E090052B70
:1054CC00F0900397E090052C1255A06019750827F1
:1054DC007509057808121AAB7C067903EEFA12519D
:1054EC00F212183E780A12559A12550370FB125399
:1054FC0097800279008088E0F5D9A31508E5082289
:10550C00EAFEEBFF1255183FF583E0229061D0E0E4
:10551C00F87480C398F8EA2484F582E42274F612B5
:10552C00189812550C60047A0880027A041253E21F
:10553C0040497802900527E8F0EE24F612611A90A3
:10554C0005281255A06019750827750905780812E9
:10555C001AAB7C027903EEFA1251F212183E78065D
:10556C0012559A12550370FB75E19512558C7904FE
:10557C00120E48EE240D1253A28002790002548BB5
:10558C00EE241DF582E43FF583E4F0A3F0221256DD
:10559C0009880822F0EE2484F582E43FF583E022AA
:1055AC0074F61218981251FD60047C0880027C0479
:1055BC00E8C39C1253E5403A78029005277407F033
:1055CC00EA24F712622D9005281252056015750811
:1055DC00277509057808121AAB7C021251F01218C3
:1055EC003E78061256031251F8DAFB75E1957901F3
:1055FC008002790002548B125609E8FA22740128B1
:10560C00F5D975D9037582277583052274F612189E
:10561C0098E9FEA2AFE433FDC2AF7C0080010C120E
:10562C00622AF8ECC3985014ECF8EA125214246A6B
:10563C00F582E439F583E06E70E48018EA246EF8A4
:10564C00E43BF9E0F508EA2508FAE43BFB1256F1D5
:10565C00EE1257A8ED02548774F6121898EAFCEB78
:10566C00FDA2AFE433F508C2AFEA246EF582E43D47
:10567C00F583E014F0EA246AFAE43DFBEA2403F82B
:10568C00E43BF9E8FEE9FF8A828B83A3A882A98315
:10569C00E08A828B83F0E8FAE9FBEE6A7002EF6B2A
:1056AC0070E5EC246DF582E43DF58374FFF0EC2499
:1056BC0069F582E43DF583E4F0E508025487C08285
:1056CC00C083A2AFE433F8C2AF1256F1E9F0EA247A
:1056DC0069F582E43BF583E4F012622A70037401ED
:1056EC00F0E8024E3EEA246AF582E43BF58322742C
:1056FC00F3121898EAFEEBFFECFAEDFB8C82F583C3
:10570C00A3A3A3A3E0541FF0EE2436F582E43FF5E7
:10571C0083E4F0750800EE245DFCE43FFD8A828B87
:10572C0083E08C828D83F0750900E50833333354A4
:10573C00F8F50C8A828B83E0F50A750B00E5097885
:10574C000A1217F6E50AA2E05027EE2436F8E43FD9
:10575C00F98882F583E0F50AEE250AF50AE43FF5AF
:10576C000BE50A2438F582E4350BF583E50C12576A
:10577C00A80509050CE509C3940840B705088A82F9
:10578C008B83A3AA82AB838C828D83A3AC82AD83E3
:10579C00E508C3940540867F0502196A1262BFE0D2
:1057AC0004F022C082C0839003A2E0640170030263
:1057BC00589D7C009003A8E0600302589D1260394C
:1057CC00A3F090040804F090040DF09003AB125871
:1057DC00A49003B504F09003DBE4F09003BE1258E0
:1057EC00ABA3F0900426F090041AF0900429F090EA
:1057FC00040E748012603B900414F09004921258C2
:10580C00BD90049BF090042AF090047A1258BDA32A
:10581C00F0A3F0900486F0900488F0900484F0904B
:10582C00049E1258BD9004B1F09004AB1258AB74A6
:10583C00FF9004107804F0A3D8FC7A037B0478B6AC
:10584C00790412546CE864BB7003E9640470F37857
:10585C008A790388828983E0C0E0ECFA748A2AF59D
:10586C0082E43404F583D0E0F00C88828983A3A809
:10587C0082A983ECC3940840DA9003A2E004F0649C
:10588C000170089003AAE09003A4F07AA67B038031
:10589C00047A007B00024E42E41258B7A3F02212A5
:1058AC0058AF221258B7A31258B722F0A3F0A3F0A6
:1058BC00221258AFA3F0A3F022C082C0838A828B3D
:1058CC0083A3A3A3E0600F8A828B83A3A3A3E4F03A
:1058DC009003A3E014F09003A2E014F07006900380
:1058EC00A474FFF08A828B83A3A3E4F09004BBE042
:1058FC00700D9003A3E0640170057900120E2A026A
:10590C004E42C082C0839003A9E4F09003A8F090AB
:10591C0003A2F0A3F0A374FFF075E1F1024E427400
:10592C00E812189874F4121828851882851983EADD
:10593C00F0A3EB125ECD125E771216FE74021218F3
:10594C007412170A88828983A3A3A3A3A3A3125F4B
:10595C004F74061218741262897424121874121A75
:10596C00BE74061218741216F21227AF74041218B1
:10597C003EE96003025DD8125EA1121ABE742812B1
:10598C0018741216F212280B740412183E8A088B23
:10599C00098C0A8D0B125EB67003025C7A12519957
:1059AC002475F582E438F583C082C083851882851E
:1059BC001983125E6BA3125F4FD083D082E0C39821
:1059CC00F50CA3E099F50D125EB66402851882857C
:1059DC0019837008125E4BE834018003125E61F586
:1059EC0083E0F510A3E0F511850C14850D157516E3
:1059FC0000751700E4F512F5137814791012150ED2
:105A0C00740812187478141216E3125EA17810122E
:105A1C0016D4740812187478101216487810121ACA
:105A2C00A774281218741216F21227AF74041218E5
:105A3C003EE97003025C7A851882851983E0125E58
:105A4C0041F583E0F510A3E0F511E4F512F51374BC
:105A5C000812187478081216827808791012163504
:105A6C0090823B7808121648851014851115851202
:105A7C00168513177808791412158E850814850964
:105A8C0015850A16850B177814791012150EE50C6E
:105A9C002508FEE50D3509FF1262657408121874AD
:105AAC00C082C0831251992478F582E438F58312B0
:105ABC005E59E4F50AF50BD083D0827808121648AB
:105ACC0078087914121635125EB664016003025C14
:105ADC00CD851882851983E02477FCA3E03400FD82
:105AEC00851882851983E0FAA3E0FB120C8612510B
:105AFC0099125E882420125EF9241CF582E438F594
:105B0C0083E4125F03241DF582E438F583E4F0A3EB
:105B1C00125F032407125E8A125E38E028F8A3E0B5
:105B2C0039125E94240B125EF9247A125E8A242EAA
