:020000040000FA
:060000000201070229368F
:03002B00022D4E55
:03003B00022D682B
:03004300022D2863
:030053000229ACD3
:10008300022793E5C754F84401F5C779012200001C
:100093000080FB120086B900030200F1E4792178A5
:1000A30008B800028004F709D8FCE479297802B87B
:1000B30000028004F709D8FCE49002817832791AAF
:1000C3008002F0A3D8FCD9FA7AB27B1B900137786F
:1000D3003179028015E493A3AD82AE838A828B8348
:1000E300F0A3AA82AB838D828E83D8E9D9E7758288
:1000F300B77583E8740412011975829175830074CE
:100103000012011975D00075813F751881751902A8
:10011300759F00020096C09FF59FE473D09F22D085
:1001230083D082C09FE493C0E0740193C0E0740263
:1001330093F59F22590465049B049504FF0000B4C2
:10014300000028002800283075A000A000A000A00F
:100153000000080008E001F000100010001000107B
:10016300001000100050005000500010001000D08C
:10017300070000000000000F0001000500307507B4
:10018300001000010081FF00000000FFFFFFF105E8
:100193000F06F7055106FF02020208025000A000F5
:1001A3000000E8030262910100005191026A91018B
:1001B3000000151C026891010000C802026A910147
:1001C3000000161C025C91010000DE02026A91012C
:1001D3000000171C025491010000E002026A910121
:1001E3000000181C025691080000E102026A910106
:1001F3000000191C0258910100001A1CFFFF0100A6
:10020300FF200262910100004E91026A91010000F9
:100213007F1C025A910000000000026C9103000051
:100223001103170049114911491149114911491184
:100233004911491149114911491149114911CB1367
:10024300E913C5130F1521150915544920424C45CF
:1002530020416C6C00000000000000000000001151
:1002630000FFFF0012012267CB041201227ACB04A4
:10027300120122D8CB04120122F9CB041201225815
:10028300CC0412012297CC04120122B8CC0412012F
:1002930022D9CC0412012227CD0412012266CD04F7
:1002A300120122F8CD0412012234CE041201225D80
:1002B300CE04120122A1C404120122B4C404120107
:1002C30022E3C4041201221BC50412012264C504E3
:1002D300120122A7C504120122EDC5041201222036
:1002E300C60412012247C60412012276C604120173
:1002F30022ADC604120122C6C60412012215C70488
:100303001201222EC70412012276C704120122AA67
:10031300C704120122A5B103120122A3B2031201E1
:1003230022DEB20312012223B3031201224EB303CE
:1003330012012271B30312012273B3031201229D2E
:10034300B303120122A0B303120122DEB30312018D
:100353002214B403120122A3B4031201220DB50324
:10036300120122CDB503120122E9B5031201221EA7
:10037300B60312012259B603120122F5B603120184
:10038300222CB7031201225DB70312012260B703C7
:10039300120122A5B703120122B2B703120122CA26
:1003A300B7031201223AB8031201223DB803120126
:1003B300224AB8031201224DB80312012297B8034F
:1003C3001201229AB803120122C6B803120122D9DC
:1003D300B8031201221FB90312012222B903120129
:1003E3002237B9031201223AB9031201229CB9033D
:1003F3001201229FB90312012212BA03120122151C
:10040300BA031201228FBA031201229BBA0312010B
:1004130022CEBA03120122DBBA03120122DEBA038F
:100423001201222DBB031201223ABB031201223710
:10043300BC03120122DBBC0312012247BD031201DC
:100443002283BD0312012294E5031201226CE60309
:100453001201229AE60312012230E70312012271EC
:10046300E703120122D9E70312012267E80312010D
:10047300221CE9031201221BEC0312012286ED0365
:10048300120122A6ED0312012277B00412012213F6
:10049300B20412012233B20412012253B304120133
:1004A300229CB3041201220498041201222C980402
:1004B300120122599804120122919804120122F781
:1004C3009804120122519A041201229B9A041201E8
:1004D30022FF9A04120122479B04120122849B04E7
:1004E300120122B29B04120122479C0412012251E1
:1004F3009C041201225E9C04120122919C041201AD
:10050300229D9C04120122B59C04120122BF9C046B
:100513001201224EE6041201225CE6041201227447
:10052300E6041201228CE604120122A3E60412015E
:100533002296B90212012239BA0212012252BB02D7
:10054300120122CABB02120122F1BC021201222AA9
:10055300BD02120122BFBD0212012257BE021201C7
:100563002244BF02120122EDBF0212012255C00232
:10057300120122DDC102120122C5C202120122BCF4
:10058300C302120122F2C30212012294C402120115
:1005930022BAC40212012286C602120122D1C60265
:1005A300120122F3C6021201225FC7021201222A9C
:1005B300C802120122E4C802120122F0CA02120187
:1005C30022FACA0212012272F5021201224EF60227
:1005D300120122F8F60212012232F702120122CC92
:1005E300F702120122E5F702120122FFF7021201BC
:1005F3002286F80212012201F902120122D4F90221
:10060300120122FDF902120122F1FA021201222E35
:10061300FB02120122E4FB0212012248FC02120136
:1006230022B2FC02120122DFFC0212012244FD026B
:10063300120122FDFE021201222EFF021201225498
:10064300FF0212012264DE04120122E3DE0412011E
:10065300220EDF041201221EE004120122E0BC0478
:10066300120122F6BC0412012214BD041201222439
:10067300BE041201222EBE0412012258BF0412012D
:100683002245C004120122B1C004120122BBC004DE
:10069300120122838704120122B08804120122E787
:1006A30088041201223E8904120122368B041201AE
:1006B300229DE1011201224AE2011201225AE201C2
:1006C300120122A7E20112012230E301120122DE0C
:1006D300E30112012213E40112012248E401120191
:1006E300225FE401120122D8E401120122E2E401B3
:1006F300120122F4E40112012228E5011201226F02
:10070300E501120122B1E5011201220AE6011201FB
:100713002215E60112012220E60112012239E70126
:100723001201223CE7011201223FE701120122429A
:10073300E70112012245E70112012211E80112012A
:1007430022D2E80112012219E9011201227DE901F5
:10075300120122ECE901120122F9EA01120122B18C
:10076300EB01120122B2EE0112012271F00112011A
:100773002213F101120122DFF10112012204F5011A
:10078300120122B2F501120122EBF601120122A895
:10079300F8011201223CF90112012284F90112012C
:1007A30022C3F901120122ACFA01120122E0FA017B
:1007B30012012268FB01120122DDA7021201226449
:1007C300A802120122B8A902120122C4A90212012D
:1007D300223CAA021201221DAB0212012219AC0211
:1007E300120122E5AC021201223FAE021201225590
:1007F300AE0212012276AE0212012208AF021201EA
:10080300227EAF02120122A4AF0212012251B202D0
:1008130012012256B2021201227AB402120122C13B
:10082300B40212012227B5021201226DB502120190
:10083300223DB602120122F2B6021201224EB70283
:1008430012012251B7021201229DB702120122D9CD
:10085300B70212012218B8021201223AB802120199
:10086300226EB802120122DCB8021201224D9D044D
:10087300120122569D04120122649D04120122B426
:100883009D04120122D39D041201221D9E04120114
:1008930022609F04120122F89F041201223CA0044B
:1008A30012012266A004120122D1A0041201221512
:1008B300A10412012298A10412012247A2041201E9
:1008C30022725F00120122825F001201221C60006B
:1008D30012012278600012012236610012012259AE
:1008E3006200120122896200120122B86200120121
:1008F300226E6400120122C16600120122206900E7
:10090300120122096A00120122F96A00120122CCA3
:100913006C00120122C46F00120122E17000120167
:1009230022DB7200120122EA7300120122797500A0
:10093300120122657600120122B4760012012224EC
:1009430077001201224077001201229177001201F1
:1009530022317C00120122477D00120122FF7D001B
:1009630012012204CB021201220ECB0212012256E3
:10097300CB021201226ACB02120122A2CB02120184
:1009830022E9CB021201222ACC021201226DCC02EF
:1009930012012297CC0212012221CD02120122CB95
:1009A300CD02120122FACD0212012231CE0212012E
:1009B300226CCE02120122A1CE02120122CBCE0260
:1009C300120122F4CE0212012242CF021201225757
:1009D300CF021201226CCF0212012281CF02120137
:1009E30022A5CF02120122E8CF02120122FDCF027B
:1009F30012012268D0021201227CD0021201229B32
:100A0300D002120122AFD002120122C4D00212017D
:100A130022D9D002120122EDD0021201222DD102DD
:100A23001201227FD102120122B9D102120122DD69
:100A3300D10212012209D20212012237D20212017B
:100A43002261D20212012276D2021201228BD20239
:100A5300120122BBD20212012205D3021201226724
:100A6300D302120122A2D302120122CDD302120118
:100A730022F8D30212012263D402120122A6D40265
:100A8300120122D1D40212012201D502120122380D
:100A9300D50212012262D5021201229AD502120155
:100AA30022C4D50212012201D6021201222BD60240
:100AB3001201225BD60212012285D602120122AF55
:100AC300D602120122DAD60212012203D702120140
:100AD3002254D7021201229AD702120122C5D70249
:100AE30012012225D80212012250D80212012280BB
:100AF300D802120122C3D802120122EDD802120138
:100B03002212D90212012299D9021201226DE9049B
:100B1300120122687E001201224B99031201222442
:100B23009A03120122939A03120122CE9A0312010D
:100B330022099C03120122899C031201228F9E0326
:100B43001201223CA103120122E7A103120122C8D0
:100B5300A20312012242A403120122AAA403120136
:100B6300224FA503120122B99204120122FC92041E
:100B730012012256940412012229950412012267BC
:100B83009704120122C5C0041201226DC10412018F
:100B930022A5C104120122B9C104120122ACC2046C
:100BA300120122EAC2041201221CC30412012259B7
:100BB300C304120122A0C304120122EEC3041201D2
:100BC300222FC40412012268C40412012257DA043A
:100BD300120122B6DA0412012253DB04120122723B
:100BE300DB04120122B2DB04120122E0DB04120156
:100BF30022FFDB041201223ADC041201225ADC0434
:100C030012012243A704120122CCA7041201228B52
:100C1300A80412012299A904120122B9AB041201FA
:100C23002287A5031201229CA50312012267A603B2
:100C330012012234A703120122A1A703120122E702
:100C4300A70312012288A80312012291A90312010A
:100C53002269AA03120122ECAA0312012275AB0333
:100C6300120122DEAB0312012268AC031201226BD4
:100C7300AC0312012287AC031201228AAC031201D6
:100C830022ACAC0312012258AD03120122C6AD03FC
:100C930012012268AE0312012216AF03120122369B
:100CA300AF031201227AAF03120122C2AF03120172
:100CB30022DEAF03120122FDAF0312012277B0033C
:100CC30012012285B00312012218B10312012282FC
:100CD300B103120122AAB40412012226B50412019F
:100CE3002264B50412012248B604120122B7B604E5
:100CF300120122FBB6041201223EB7041201226B39
:100D0300B70412012289B704120122C1B7041201E8
:100D130022FEB7041201221FB80412012295B8045F
:100D23001201226F91011201225D93011201223AF5
:100D33009601120122829601120122AD960112013F
:100D430022A19701120122E097011201224F98017B
:100D5300120122629801120122A39801120122E5D5
:100D63009801120122F49801120122219901120122
:100D7300226A9901120122999901120122F899011B
:100D8300120122229A011201225B9A011201227E90
:100D93009A011201220D9B011201223B9B011201B8
:100DA30022979B01120122E89B011201224C9C0114
:100DB300120122069F0112012204A00112012267DF
:100DC300A001120122DFA001120122D0A20112010F
:100DD300220DA3011201225DA4011201228EA4019E
:100DE300120122D2A401120122C6A501120122EA94
:100DF300A7011201225AA801120122AFA801120170
:100E030022DCAD011201220FAE0112012255AE0107
:100E13001201222EB00112012235B101120122E486
:100E2300B2011201221BB30112012220B3011201EC
:100E33002222B301120122ABB30112012289B401B0
:100E4300120122AFB401120122D8B401120122010E
:100E5300B50112012236B5011201225BB50112015F
:100E6300227AB501120122A5B5011201220CB601A5
:100E730012012296B601120122DAB601120122FCF6
:100E8300B60112012220B801120122EAB8011201AF
:100E9300221BB9011201227AB9011201229FB90161
:100EA30012012287BA011201229EBA011201221CE9
:100EB300BB01120122A0BB01120122D6BB01120108
:100EC300221DBC0112012256BC0112012278BC0171
:100ED300120122A4BC01120122D2BD01120122E49B
:100EE300BD01120122BED70412012230D80412011F
:100EF3002286D804120122CBD804120122EBD80493
:100F030012012238D90412012280D904120122C508
:100F1300D90412012216DA04120122DBD2031201D0
:100F23002244D30312012207D903120122FCD9035D
:100F330012012286DB031201221EDC0312012201AD
:100F4300BE011201224ABE0112012277BE01120123
:100F530022A9BE01120122B6BE01120122C2BE01A4
:100F6300120122D4BE011201229BBF01120122F9F8
:100F7300BF011201222EC00112012264C00112011D
:100F8300229FC101120122ECC10112012232C201CE
:100F93001201229BC20112012250C3011201221924
:100FA300C40112012270C401120122F5C40112010D
:100FB3002247C5011201227DC601120122EAC7019F
:100FC300120122B2C801120122D2C8011201221257
:100FD300C90112012222C90112012246C9011201CB
:100FE3002249C90112012218CA01120122A8CA0109
:100FF3001201222ECB01120122BBCB01120122E2EC
:10100300CB0112012233CC0112012290CC01120137
:101013002220CD0112012252CD01120122A7CD01BE
:101023001201224CCE01120122CCCE011201226BFD
:10103300CF01120122E3CF0112012242D00112019A
:10104300228DD001120122A8D0011201224AD1011E
:101053001201228FD101120122B5D301120122FD07
:10106300D30112012244D401120122A9DA0112018F
:101073002243DB01120122D7DB01120122EBDC0147
:1010830012012282DD01120122A7DD01120122EEEB
:10109300DD0112012203DE0112012243DE011201EE
:1010A30022AADE01120122E6DE01120122ECDF0197
:1010B300120122A0E00112012204E10112012252D5
:1010C300E1011201226BE10112012247DC0312014B
:1010D3002292DC031201229EDC031201226EDD0345
:1010E30012012297DD03120122CADD031201223607
:1010F300DE031201225CDE0312012294DE031201DD
:1011030022CDDE03120122E5DE031201223EDF03BC
:1011130012012257DF031201229CDF03120122AFC7
:10112300DF03120122C9DF03120122DFDF031201F1
:1011330022E6E00312012207E203120122F0E20396
:10114300120122DFE303120122F97F001201225967
:10115300A204120122CAA504120122F8A604120154
:1011630022008003120122F18203120122F782037B
:10117300120122A78503120122608803120122ECC7
:10118300AB041201227AAC041201223CAD04120119
:101193002261AD0412012239AF041201223EB004D0
:1011A30012012200800212012233800212012278EE
:1011B3008A02120122BF8B02120122DA8C0212016F
:1011C300221C8E021201221E8F021201226C8F0238
:1011D300120122868F02120122C88F02120122D32A
:1011E3008F021201221C9002120122259002120189
:1011F30022D19002120122AB9102120122F7910235
:10120300120122579202120122A99202120122D73D
:101213009202120122159302120122449402120136
:10122300222A9802120122309802120122A09E0261
:1012330012012273A3021201228DA702120122A41A
:10124300CE041201221ACF0412012230CF0412015C
:1012530022ADCF04120122E4CF041201221ED004D6
:1012630012012258D004120122CBD004120122060B
:10127300D1041201220FD1041201221BD104120145
:101283002234D10412012258D1041201226DD10457
:10129300120122B1D104120122E6F603120122F94E
:1012A300F60312012213F70312012240F70312017E
:1012B3002286F703120122B9F703120122F6F7037C
:1012C3001201225CF80312012271F8031201227C3D
:1012D300F80312012289F803120122A0F803120174
:1012E30022AEF803120122BDF803120122D2F80341
:1012F300120122E7F803120122F2F803120122FE7F
:10130300F8031201220BF9031201221EF903120141
:101313002229F90312012251F90312012256F9037A
:10132300120122EDF9031201224CFA031201225C8D
:10133300FA0312012271FA0312012286FA0312013F
:1013430022A0FA03120122C1FA03120122DEFA03D8
:10135300120122E9FA031201229CFB0312012284E7
:10136300FC03120122A2FC03120122BEFC031201A0
:1013730022C9FC03120122DEFC03120122F2FC0348
:1013830012012253FD0312012259FD031201225FB0
:10139300FD0312012265FD0312012279FD031201EF
:1013A30022A0FD03120122DBFD03120122F4FD033F
:1013B30012012238FE031201226BFE031201228E58
:1013C300C803120122B0C80312012275C903120116
:1013D3002204CC0312012223CD031201223FCE03A8
:1013E30012012219CF03120122D0CF031201226A64
:1013F300E802120122F8E8021201228DE902120129
:101403002269EA021201229DEA02120122B0EA02D3
:101413001201222AEB02120122B2EC02120122D99A
:10142300EC0212012260ED021201229FED02120171
:1014330022B0ED0212012225EE0212012244EE0235
:101443001201225CEE02120122A0EF02120122AA73
:10145300F102120122DCF302120122E2F402120170
:101463002225F502120122C1D902120122D4DA0285
:10147300120122BCDB02120122C6DB02120122D0BE
:10148300DB02120122F2DB02120122FEDB02120155
:10149300224BDD0212012278DD0212012299DE02C3
:1014A300120122DBDE0212012210E002120122E00D
:1014B300E0021201222FE10212012290E102120145
:1014C30022C5E102120122FEE102120122A9E50274
:1014D300120122C0E5021201223EE6021201224C51
:1014E300E60212012295E602120122A3E60212018C
:1014F3002224E70212012293E702120122DFE7020C
:10150300120122A9BD03120122CBBD03120122A79E
:10151300BF031201221FC30312012269C403120174
:10152300224BC50312012205E2041201222AE2041E
:101533001201229BE20412012200800412012209FB
:101543008004120122128004120122368104120146
:10155300222783041201225583041201228083046B
:10156300120122AE8304120122D98304120122172D
:101573008404120122438404120122808404120190
:1015830022AB8404120122F784041201224E850443
:101593001201228E8504120122DD85041201220824
:1015A30086041201224E86041201227C8604120153
:1015B30022A78604120122D48604120122F786048C
:1015C300120122E68C03120122198D031201225CFF
:1015D3008D03120122678D03120122728D03120102
:1015E300227D8D03120122888D03120122A0900314
:1015F300120122779103120122D091031201225288
:1016030092031201225F92031201226C92031201D0
:10161300227692031201228092031201228A9203FC
:10162300120122AF9203120122BF92031201220A76
:1016330093031201223293031201223F93031201F7
:10164300224F93031201225993031201226393033E
:101653001201226D93031201227A93031201228451
:1016630093031201228E9303120122989303120112
:1016730022A29303120122EA930312012206940386
:101683001201222294031201223294031201223CFA
:101693009403120122939403120122A094031201D2
:1016A300226395031201226D95031201227795039C
:1016B3001201228195031201229D9503120122B981
:1016C30095031201226E96031201227896031201EA
:1016D300228596031201229296031201229F9603FA
:1016E300120122A89603120122ED9603120122FB96
:1016F30096031201221D970312012226970312015A
:101703002235970312012257970312012260970390
:101713001201226F97031201227E9703120122877F
:101723009703120122969703120122A6970312012F
:1017330022B39703120122C09703120122CD97030C
:10174300120122DD9703120122FB970312012218D3
:1017530098031201222898031201223898031201D8
:1017630022489803120122799803120122839803D5
:10177300120122939803120122A39803120122B0AB
:101783009803120122CF9803120122DC980312015D
:1017930022EC9803120122F6980312012203990303
:1017A3001201220D99031201221D9903120122270E
:1017B3009903120122319903120122419903120163
:1017C30022CBE7041201224DE004120122A9E00416
:1017D3001201224DE1041201226CE104120122BA2A
:1017E300E104120122E7FF03120122B8E904120106
:1017F30022F7E904120122EAFF011201227C7F0091
:101803001201228C7F00120122A47F00120122ED1B
:101813007F00120122E5FE0312012268FF03120179
:1018230022CEFF03120122F67F0012012219D504F2
:101833001201222ED50412012233D604120122A74B
:10184300D604120122C1D604120122D8D6041201F1
:1018530022E6D604120122FED60412012213D70473
:1018630012012238D70412012289D7041201224F10
:10187300FC0112012266FC01120122DFFC011201AC
:1018830022B3FD0112012285FF01120122E0D104DE
:1018930012012270D204120122EED2041201227F1D
:1018A300D30412012211D40412012264D4041201BC
:1018B300226ED4041201227DD40412012293D40493
:1018C300120122A6D40412012202D5041201221607
:1018D300D504120122E02D00120122762E001201FE
:1018E300222F2F001201224F2F00120122863000D7
:1018F300120122CD31001201227532001201221091
:101903003C00120122904300120122214C001201DB
:10191300228B4D001201228758001201222A5900FE
:10192300120122965A00120122055E00120122DCE6
:101933005E00120122115F001201222D5F001201CD
:101943002210E90412012233E7041201229EE70464
:10195300120122A9E704120122B9E704120122C4E9
:10196300E70412012201EA041201222AEA04120105
:1019730022238D041201222D8D041201226D8D0468
:10198300120122B68D04120122EE8D0412012244AB
:101993008E04120122668E041201226F8E0412013C
:1019A30022B48E04120122DD8E04120122F28E046F
:1019B300120122FB8E041201226B8F04120122F802
:1019C3008F041201224C90041201226F9004120121
:1019D30022EE90041201222991041201225E910445
:1019E3001201227D910412012286910412012238F0
:1019F30092041201228D9204120122B6E304120111
:101A03002207E40412012290E404120122FAE404FE
:101A130012012212C8041201223AC8041201222F11
:101A2300C90412012254C904120122EEC90412018D
:101A3300227DCA0412012258E50412012213E9048B
:101A430012012268DC041201229EDC04120122D15D
:101A5300DC041201222ADE0412012243E8041201EB
:101A63002259E80412012263E804120122C5EE039D
:101A73001201227FEF03120122BAEF03120122EBBC
:101A8300EF031201225BF003120122B1F0031201F2
:101A93002205F103120122F2F103120122EBF203F8
:101AA3001201226CF40312012220F5031201228990
:101AB300F5031201229CF50312012281F6031201A0
:101AC30022DCB804120122F2B80412012296B904EE
:101AD300120122D5B904120122F2B9041201222300
:101AE300BA0412012270BA04120122A3BA04120129
:101AF30022DEBA04120122D3BC04120122C4FF0263
:101B03001201222DEA04E066701008A3E066700A51
:101B130008A3E066700408A3E06622C3E7960809F9
:101B2300E7960809E7960809E79622C3E09608A313
:101B3300E09608A3E09608A3E09622C008C3E096C7
:101B4300F50808A3E096420808A3E096420808A314
:101B5300E09645087001D3D00822080808EAC0E0DF
:101B6300EBC0E086F0E7A4FA180986F0E7A42AFAA6
:101B7300180986F0E7A42AFA180986F0E7A42AFAD6
:101B83001986F0E7A4FBE5F02AFA190886F0E7A422
:101B93002BFBE5F03AFA190886F0E7A42BFBE5F0F6
:101BA3003AFA18180986F0E7A4C5F02BFBE43AFAD1
:101BB3001908E7C5F0C6A426F6E5F03BFBE43AFABC
:101BC3001886F0E7A4F6E5F00826F6E43B08F6E409
:101BD3003A08F6D0E0FBD0E0FA22E4CFC0E0E4CE4E
:101BE300C0E0E4CDC0E0E4CCC0E075F020E626F62A
:101BF30008E633F608E633F608E633F6181818EC69
:101C030033FCED33FDEE33FEEF33FFC3EC9709ED09
:101C13009709EE9709EF97191919400FFFEC97FCF5
:101C230009ED97FD09EE97FE191906D5F0BFECF7FC
:101C330009EDF709EEF709EFF7191919D0E0FCD010
:101C4300E0FDD0E0FED0E0FF226016080808C6C31E
:101C530013C618C613C618C613C618C613C6D5E0CE
:101C6300EA227009080808226016181818C6C33338
:101C7300C608C633C608C633C608C633C6D5E0EAA7
:101C830022E627F60809E637F60809E637F60809D3
:101C9300E637F622E026F608A3E036F608A3E03698
:101CA300F608A3E036F622E026F008A3E036F008B3
:101CB300A3E036F008A3E036F022C3E697F608095E
:101CC300E697F60809E697F60809E697F622C3E0D1
:101CD300C696F608A3E0C696F608A3E0C696F608ED
:101CE300A3E0C696F622C3E096F008A3E096F008B8
:101CF300A3E096F008A3E096F022E657F60809E67B
:101D030057F60809E657F60809E657F622E056F6AD
:101D130008A3E056F608A3E056F608A3E056F62219
:101D2300E056F008A3E056F008A3E056F008A3E05D
:101D330056F022E046F608A3E046F608A3E046F68E
:101D430008A3E046F622E066F608A3E066F608A3D9
:101D5300E066F608A3E066F622E0F608A3E0F608DC
:101D6300A3E0F608A3E0F622E6F008A3E6F008A352
:101D7300E6F008A3E6F022E0FAA3E0FBA3E0FCA36D
:101D8300E0FD22EAF0A3EBF0A3ECF0A3EDF022E0F8
:101D9300FCA3E0FDA3E0FEA3E0FF22ECF0A3EDF043
:101DA300A3EEF0A3EFF022E0F8A3E0F9A3E0FAA397
:101DB300E0FB22E8F0A3E9F0A3EAF0A3EBF022CAE8
:101DC300C0E0E6F0A308DAFAD0E0FA22CAC0E0E005
:101DD300A3C582CCC582C583CDC583F0A3C582CC00
:101DE300C582C583CDC583DAE6D0E0CA22C3E498B1
:101DF300F8E499F9121E318026C3E49AFAE49BFBB6
:101E0300E920E7E9121E31E498F8E499F922C3E4E2
:101E130098F8E499F9121E31E498F8E499F9C3E4C7
:101E23009AFAE49BFB22EB20E7CFE920E7E0B90035
:101E330010BB0008E88AF084F8AAF022E4FBC8FA91
:101E430022EB70227B10C833C8C933C9335007C390
:101E53009AC3DBF280069A50012ADBEAC833F4C83E
:101E6300C933F4C9FA2275F008E4C833C8C933C9C1
:101E730033C99AC99B5004C92AC93BD5F0ECFBC8A6
:101E830033F4C8E4C9FA22600D08C6A2E713C618E2
:101E9300C613C6D5E0F322600C08C6C313C618C622
:101EA30013C6D5E0F422700422600D18C6C333C6EE
:101EB30008C633C6D5E0F41822251810AF08F51864
:101EC300400C15198008F51840021519D2AF2200ED
:101ED300C0D0251810AF08F518500C05198008F567
:101EE3001850020519D2AFD0D0222518F58210AFB1
:101EF30008F518400C15198008F51840021519D279
:101F0300AF851983222518F582E43519F583222537
:101F130018F8E43519F9222518FAE43519FB2225B6
:101F230018FCE43519FD22E4732518C582C0E0E5E9
:101F33001934FFC583C0E0E518C3958224F810AFB8
:101F4300088583198582188008858319858218D2AC
:101F5300AFCEF0A3E520F0A37808E608F0A3DEFAFD
:101F6300EFF0A3E58124FAF8E608F0A3E608F0A36E
:101F7300E608F0A30808E608F0A3E608F0A3158135
:101F83001581D0E0FED0E0F8158115811581E8C0F8
:101F9300E0EEC0E0222518C582C0E0E51934FFC594
:101FA30083C0E0E518C3958224F910AF088583192F
:101FB3008582188008858319858218D2AFCEF0A355
:101FC300E520F0A37808E608F0A3DEFAEFF0A3E536
:101FD3008124FBF8E608F0A3E608F0A30808E60866
:101FE300F0A3E608F0A315811581D0E0FED0E0F858
:101FF30015811581E8C0E0EEC0E0228519838518BC
:1020030082E0A3FEE0A3F5207808E0A3F608DFFA58
:10201300E0A3FFE0A3C0E0E0A3C0E0E0A3C0E0E0F2
:10202300A3C0E0E0A3C0E010AF0885821885831940
:102033008008858218858319D2AFD083D0820201AC
:102043001F851983851882E0A3FEE0A3F520780895
:10205300E0A3F608DFFAE0A3FFE0A3C0E0E0A3C03B
:10206300E0E0A3C0E0E0A3C0E010AF0885821885DC
:1020730083198008858218858319D2AFD083D082D3
:1020830022C0D02518C582C0E0E51934FFC583C03E
:10209300E0E518C3958224F310AF08858319858280
:1020A300188008858319858218D2AFC8F0A3E9F098
:1020B300A3EAF0A3EBF0A37908E709F0A3D8FAECBD
:1020C300F0A3EDF0A3EEF0A3EFF0A3D0E0F0A3D0E4
:1020D300E0F0A3D0E0F0A3E520F0A3E5F0F0A32225
:1020E300851983851882E0C0E0A3E0F9A3E0FAA391
:1020F300E0FBA37808E0F608A3DFFAE0FCA3E0FD29
:10210300A3E0FEA3E0FFA3E0C0E0A3E0C0E0A3E000
:10211300F5D0A3E0F520A3E0A3F5F010AF08858385
:10212300198582188008858319858218D2AFD082D9
:10213300D083D0E0F8D0E0327404800674028002C9
:102143007401C0E0F404121EEDD0E0121DC222742B
:1021530004800474028000CCC0E0EDC0E0E518C345
:102163009CCCAD1950011D10AF068C188D1980063B
:102173008C188D19D2AF121DCFD0E0FDD0E0FC2218
:10218300D083D082C5F0E493A3C5F0C395F0F5F0F6
:10219300E493A3C395F04005E5F0048001E475F0F2
:1021A30002A42582F582E5F03583F583E493A3C089
:1021B300E0E493C0E022D083D082E9C0E0E493A3BB
:1021C300C386F0C5F095F0F908E493A386F0C5F053
:1021D30095F0700BE493A3C3994005E9048002A32F
:1021E300E475F002A42582F582E5F03583F583D00A
:1021F300E0F9E493A3C0E0E493C0E022D083D0826B
:10220300CCC0E0E493A360061222291470FAE4938D
:10221300A360061222481470FAD0E0FCE493A3C032
:10222300E0E493C0E022C0E0E493A3D39C5010E425
:1022330093A3C39C400AD0E0D0E0D0E002221CA3C9
:10224300A3A3D0E022C0E0E493A36C7009D0E0D054
:10225300E0D0E002221CA3A3D0E022D083D082EC02
:10226300C0E0EDC0E0E493A3FCE493A3FDED4C6078
:102273000D1222AAEC24FFFCED34FFFD80EFE49362
:10228300A3FCE493A3FDED4C600D1222E9EC24FFC3
:10229300FCED34FFFD80EFD0E0FDD0E0FCE493A340
:1022A300C0E0E493C0E022C0E0C3E4939608740165
:1022B300939618400FE493667008087401936618A8
:1022C30070007019A3A3C3E493960874019396183E
:1022D300A3A3400DD0E0D0E0D0E002229AA3A3A3B1
:1022E300A3A3A3D0E022C0E0C0F088F0E49366701B
:1022F300080874019366187000A8F0A3A3700BD0AC
:10230300F0D0E0D0E0D0E002229AA3A3D0F0D0E056
:102313002274F6121F98EAFEEBFF8C088D09EA245B
:1023230034F8E43FF9E8FCE9FD122442E0FAEE2434
:1023330037F582E43FF583E0F88508F0A4C885F01B
:102343000A8509F0A4250AF9EA28F8E439F97A2577
:102353007B00121E31EA8C828D83F0F91313135420
:102363001FFAEE2AFAE43FFBEA245DF582E43BF52B
:1023730083E0C0E0740759F8D0E0B800028004C3DA
:1023830013D8FCA2E04021EE2436F582E43FF58326
:10239300E0F5F0E984A8F0EE28F8E43FF9E8243802
:1023A300F582E439F583E0F97F0302204474F512E2
:1023B3001F98EAFEEBFFEA2434F582E43FF583E05D
:1023C300C0E0122442D0E0F08A828B83A3A3A3A3AC
:1023D300A3E0FAA3E0FB8E828F83A3A3A3A3A3A30B
:1023E300A3E0C39AF508A3E09BF509EE2480F8E483
:1023F3003F880AF50B8882F583E06401702CEE2494
:1024030081F582E43FF583EA2401F8E43BF9E068CF
:102413007003A3E06970137CE77D06EEFAEFFB120D
:102423001047850A82850B83E4F0AC08AD09EEFA08
:10243300EFFB122314E9F9122D1A7F04022044EA58
:102443002435F582E43FF58322C082C08385188258
:10245300851983E0F8A3E0F9C3EA9CEB9D5010C310
:10246300EC98ED99401BC3EA98EB995014800EC386
:10247300EA98EB994007C3EC98ED99400479018001
:10248300027900D083D08222EAC39CFAEB9DFB221F
:1024930074ED121F98900381E064086005E06407FF
:1024A300702C9061C8E060269003AFE0F874FF6879
:1024B300601CE875F012A4C8AAF02AF974B128FECA
:1024C300740339FF8E82F583A3A3A3E0700579001B
:1024D300022678EE2468F50EE43FF50F906060E085
:1024E300850E82850F83F0751082751107750800BC
:1024F300750900E5D914F50AE5D95403F50B6044D1
:10250300EE2484F50CE43FF50D7403650B6025E5BB
:102513000A600CEE2467F582E43FF583E0602590C2
:10252300077DE06401603E850C82850D83E06020B9
:102533007804801E850C82850D83E0603BE50AC329
:1025430094055034793DEEFAEFFB1210830224D147
:102553007800E50AC398FA95E0FB120D358A088BDB
:1025630009EA4B70061213890224D1850C82850D6A
:1025730083E070048A108B1178008014E5D9C0E0E1
:10258300E8FAE5102AF582E43511F583D0E0F00886
:10259300E8C3950A40E6850C82850D83E0602874C4
:1025A300FC250AF50A781012213FAC0AA90BEEFAB2
:1025B300EFFB1211437402121ED2E9700AAA08AB90
:1025C30009121A010225477403650B6055E50AF5E4
:1025D3000C750D00780C12213FAC10AD11AA08AB9D
:1025E300091211077402121ED2850E82850F83E031
:1025F300F87480687005750C7F8002880CE50CF513
:102603000D780D122143780B122143A90AAC08ADB2
:10261300099003AFE0FA7B00120B137402121ED26F
:10262300804E851082851183E0F8C3940E500F7499
:102633006128F582E43490F583E0650A6016EE24A0
:10264300F9F582E43FF583E8F07907EEFAEFFB1240
:102653001035801C900381E06408AC10AD11700943
:10266300EEFAEFFB1211738007EEFAEFFB12122D55
:1026730012139579017F0C02204474F1121F987490
:10268300FC121EBCEAFEEBFF8909750C00A2AFE445
:1026930033F508C2AF9006EFE0FA9061D0E0F8742A
:1026A3008098F895E0F9C3EA98E499A2D265D0330B
:1026B3005015750C018010AA0AAB0B1210B9121A2F
:1026C300019006EEE004F0EE2463F50AE43FF50B17
:1026D300850A82F583E0F8A3E0F9E849602DE82450
:1026E30002FAE439FBEA2402F50EE43BF50F780E17
:1026F30012213F8A828B83E0FCA3E0F9EEFAEFFB21
:102703001210AD7402121ED2E960AC9061D0E0F8F1
:102713007480C3989006EFF0E50C60539006EEE0EA
:10272300604D9006F0E0F89006EEE0C398500C740C
:10273300026509703A9006F1E060348E828F83A3BC
:10274300A3A3A3E08518828519831227827402123A
:102753001F08E81227829006EDE028F07402121F8A
:1027630022AA18AB197901120B799006EEE4F0E571
:1027730008A2E092AF7404121ED27F08022044F034
:10278300A3E4F09006EEE0F8228521878522C62295
:10279300C0E074EB122084A2AFE433F508C2AF7536
:1027A3009B00906182E0A2E0502DE591A2E05027CA
:1027B3007591FE74016521701E12290A12292112D6
:1027C3002152122AC97404121ED2E96401700579D8
:1027D300011212D5122493906182E0A2E5505AE5CA
:1027E30091A2E550547591DF900381E06407600581
:1027F300E06408702C12290A74016521703B1229C8
:1028030021122152122AC97404121ED2E9640170E2
:102813000579011212D57901EEFAEFFB12267D80BC
:1028230018E0640D70139003A3E004F064287002B1
:10283300E4F07A00E0F91213B3906182E0A2E6407B
:10284300030228DFE591A2E640030228DF7591BF6A
:10285300900381E06405700812126F12127B8003EB
:102863001212757521001212F3E9900382F07900B8
:102873001212D5120F637A017B00900380E0F912E4
:1028830019D1907803E064427052900781E014F00C
:10289300704AC2AF12289A00782AD0E0F618D0E026
:1028A300F6E59F540770047BFF80027B7FC4C0E082
:1028B3007829E6F50A08E65BF50B740B780A121E15
:1028C3009AD0E0250AF8906270E0A2E740F8E8C3E6
:1028D30033906272F0906270E0D2E0F0906181E038
:1028E300A2E35009E5E9A2E3500375E9F7A3E0A2E7
:1028F300E75009E591A2E7500375917FE508A2E04F
:1029030092AF7F080220E39003AFE0F875F012A4C2
:10291300C8AAF02AF974B128FE740339FF221212EF
:10292300878E828F83E0F8A3E0C82416F582E4380B
:10293300F58322C0E0C0D0C082C083906183E0A24F
:10294300E05009E5BFA2E0500375BFFEE0A2E150ED
:1029530009E5BFA2E1500375BFFDE0A2E25009E51E
:10296300BFA2E2500375BFFBE0A2E35009E5BFA29B
:10297300E3500375BFF7E0A2E45009E5BFA2E450BA
:102983000375BFEFE0A2E55009E5BFA2E55003756B
:10299300BFDFE0A2E65009E5BFA2E6500375BFBF63
:1029A300D083D082D0D0D0E032C0E074F212208441
:1029B300E5A7A2E4500FE5A1A2E4500953A7EF75E0
:1029C300A1EF122A00E5A7A2E5500CE5A1A2E5506C
:1029D3000653A7DF75A1DFE5A7A2E15009E5A1A290
:1029E300E1500375A1FDE5A7A2E2500CE5A1A2E227
:1029F300500653A7FB75A1FB7F010220E374F81275
:102A03001F98752101900381E0640670077A007BAB
:102A130000121257A2AFE433FED2AF900387E064F3
:102A23000170187A207B00900380E0F9121AE57A8E
:102A3300207B00900380E0F91219D7906182E0D2E5
:102A4300E6F090077EE0602185C62280169003861B
:102A5300E064017008E5C654F84405F5C653BEFCAE
:102A630012278C7401652160E4EEA2E092AF7F012E
:102A730002204400008E238F2485822885832785A6
:102A83001882851983E0CEA3E0CF8528828527832A
:102A9300EBC9EAC8EDCBECCA75F010C3E833C8E95B
:102AA30033C9EA33CAEB33CBC3EA9EF526EB9FF572
:102AB30025B35004AB25AA26EC33CCED33CDD5F0AA
:102AC300DAAE23AF242274F1121F988A088B098C83
:102AD3000A8D0B9091167808121D10740F121F089F
:102AE300780C121D5C909116780C121D10780879E1
:102AF3000C121B1E90910E50107808790C121CBDFD
:102B03007808121B3E4014800E780C7908121CBD05
:102B1300780C121B3E50047901800279007F080271
:102B2300204474ED121F988A088B098C0A8D0B9030
:102B330091167808121D107413121F08780C121DB9
:102B43005C909116780C121D10780C7908121B1EDC
:102B530040117808790C121CBDAA08AB09AC0AAD68
:102B63000B80227510007511007512007513017822
:102B730010790C121CBD78107908121C84AA10ABB2
:102B830011AC12AD137F0C022044909116780812F9
:102B93001D5C8A828B837808121D237F04022044E4
:102BA30074F5121F988C828D837808121D5C8A82BB
:102BB3008B837808121CE9122BF7C3E098F0A3E08B
:102BC30099122BE9401E90913A7808121D5C8A8273
:102BD3008B837808121CAA8E828F83E02420F0A3B3
:102BE300E0344EF080A4F08E828F83C3E09420A360
:102BF300E0944E22EA2404F8E43BF9E8FEE9FF8C72
:102C0300828D83A3A3A3A3E0F8A3E0F98E828F832D
:102C13002274F5121F9890070AE0FAA3E0FBE92952
:102C2300F8E433F9743328F582749039F583E02A94
:102C3300F508A3E03BF509780812213F90912E1285
:102C43001D7A122A787402121ED28A088B098C0A02
:102C53008D0B74107808121C4CAA08AB097F040270
:102C6300204474F1121F988A0C8B0D8C0E8D0F74F7
:102C730011121F081221567411121F08E02401F5C6
:102C830008A3E03400F509E4F50AF50B780C79089C
:102C9300121B5D90911A7808121D5C780C7908124A
:102CA3001B5DAA0CAB0DAC0EAD0F122A7874021289
:102CB3001ED2EA4B60047A0180027A00EC2AFCE41B
:102CC3003DFD7413121F08E0F8A3E0F9E8FEE9FFE5
:102CD300ECF8EDF97A717B02121E3188088909E458
:102CE300F50AF50B8E828F837808121D6BECF8EDD5
:102CF300F97A717B02121E318A088B0974057808F0
:102D0300121EA98E828F83A3A3A3A3E508F0A3E5D4
:102D130009F07F08022044C082C083E9906000F07C
:102D2300D083D08222C0E074F2122084A2AFE433B5
:102D3300FED2AFC2C0E5D1A2E4500675D10F12187E
:102D4300CFEEA2E092AF7F010220E3C0E0C0D0E863
:102D5300C0E0A8A8D2AFC2C7E8A2E792AFD0E0F81C
:102D6300D0D0D0E032C0E0C0D0E8C0E0E9C0E0EAB3
:102D7300C0E0EBC0E0C082C083A2AFE433F9D2AFBE
:102D8300900F09E0F8A3E0687008539AFBA374015D
:102D93008022C2E9900F09E0F8740128F0748928B1
:102DA300F582E4340EF583E0F5C1900F09E0C39496
:102DB300804002E4F0E9A2E092AFD083D082D0E079
:102DC300FBD0E0FAD0E0F9D0E0F8D0D0D0E032C2C6
:102DD300AF02000022FFFFFFFFFFFFFFFF74F612A9
:102DE3001F2CE9900F0EF01215E1900F0EE0F9126F
:102DF300065D1206B1900F0EE0F91206B7900F0EA2
:102E0300E0F91208C190913A121D7A120699909135
:102E13003A121D7A1208DF7AC87B1C1219717CC81A
:102E23007D1C79001206937CDD7D1C7A02790112E8
:102E3300069379017A6F7B9012183379027A537B68
:102E43009012183379037A7C7B901218337C777D48
:102E53000F7A107902121ABB7C877D0F7A107903DF
:102E6300121ABB7C0F7D0F7A047904121ABB7F02FE
:102E7300021FFE74F4121F2C8A088B09EB54807016
:102E830003022F0F900F0EE0F91219B98A0A8B0B68
:102E9300AF0BEA4F606E8A828B83E0246F60092454
:102EA300FE70541218E78052A3E0F8740E68702085
:102EB3008A828B83A3A3A3A3A3122156EA24FDF53D
:102EC30082EB34FFF583E024F9125A5C790E801DFE
:102ED30074FF6870288A828B83A3A3A3A3A3122100
:102EE300568A828B83A3A3E0125A5C79FF120B2BC1
:102EF3007402121ED2800612190BE96007AA0AEFA8
:102F0300FB1219A1AA08E50964808016EB544060FE
:102F1300147C0F7D0F7A047904121AB5AA08E50907
:102F23006440FB80047A007B00024D86E97900242B
:102F3300FE6008146005146009800C74106A700741
:102F4300800774046A6002790202011F74F4121F7D
:102F53002C74F9121EBCEAFEEBFF851882851983D7
:102F6300E4F08A828B83123268C0E07401121F0876
:102F7300D0E0125A8FA882A983E0FCA3E0FB74027D
:102F8300121F08ECF0A3EB125A8FA3E0C0E0740405
:102F9300121F08D0E0F0E82403F850010974051269
:102FA3001F081230807402121F08E0F508A3E085A1
:102FB300080AF50B7407780A121E9A780A1221B9C7
:102FC3000100043030D22FE52FF42F07301A30AC34
:102FD30018AD197401121F1AE508547FF91218F37A
:102FE30080467401121F1AE508547FF91218F980FC
:102FF30037AC18AD197401121F1AE508547FF91282
:1030030018FF8024AC18AD197401121F1AE5085477
:103013007FF91219058011AC18AD197401121F1A2A
:10302300E508547FF91218EDE9F5088003750801E6
:10303300EEFAEFFB1219A1900F3F747FF0A3740611
:10304300F0E508A3F07402121F08124376900F42B2
:10305300F0E944FCA31256CC900F44F07C3F7D0F63
:10306300851882851983E02406FA79FF120B3179DA
:10307300007407024D83F9851882851983E8F0A34C
:10308300E9F02274EB121F2C8A828B83ECFEEDFF96
:10309300A31231B18C828D83E4F0850A82850B8380
:1030A300A3858208858309E914600C14604F1470AA
:1030B300030231A10231A8850A82850B83E0F50A58
:1030C300850882850983E0F50BC3943240030231FE
:1030D300A4AA0BA90A1218E1E960030231A47C45F2
:1030E3007D0FAA0BA90A121ABBE9FA60030231AADF
:1030F30085088285098312570FF00231AA850A8257
:10310300850B83E0F50C850882850983E0F508FAD1
:10311300A90C1218E1E960030231A4E50A2402FEB6
:10312300E4350BFFEEFCEFFDAA08A90C121AB5E972
:10313300FA7404650C70708E828F83124B89850A32
:1031430082850B83A3A3A31231C6F512F51374086A
:103153007810121C65780C7910121C84850A8285FC
:103163000B83A3A31231BC121C65780C7910121CBB
:1031730084850A82850B83A3A3A3A3A3E0F508E4B4
:10318300F509F50AF50B74187808121C65780C79A3
:1031930008121C84900F0F780C121D6B80091219F2
:1031A3006B7A0280027A01EAF97F0D021FFEA3A364
:1031B300A3E0F50AA3E0F50B22A3A31231C6741012
:1031C300781022E0F510E4F5112274F4121F2C7428
:1031D300EA121EBC89088A82123264FEA3E0FCE470
:1031E300CCFDEE2CE43DFFE82402FCE439FDE508C8
:1031F30024F6602324F8704012325012213F7402E7
:10320300121F1A120C637402121ED2E9F9702B12E8
:103213003242120BE5801D12325012213F7402120A
:103223001F1A120C7B7402121ED2E9F9700C1232AF
:1032330042120BDFE9F9800279017416024D839083
:103243000F0EE0F9AC18AD19EEFAEFFB228A828B70
:1032530083A3A3A3E024FEF50AE434FFF50B780A65
:10326300228B83A3A3A3A3E0F8A3E0F98882F583C9
:10327300E02274EC121F2C74EB121EBC890BEAF8CB
:10328300EBF97E007F00750A40EA2403F50EE4396A
:10329300F50F850E82F583E0FAC394025005794059
:1032A3000236508882123264F508A3E0FDE5082E49
:1032B300E43DF509751262751391E82403F510E4F2
:1032C30039F511E82402F50CE439F50DE50B12216B
:1032D30083011D433B1433403372339E33DF331377
:1032E30034A634DA349435CC35FB355A368B36D69E
:1032F3003616375F37D7370B389138433B433BB9E3
:10330300386939B239593A433B813A433BBE3A1B98
:103313003BA818A919880E890F780E12213F123B7A
:10332300901203217402121ED2E9600302364BACE1
:1033330018AD19AA08AB091202BB023686A818A950
:1033430019880E890F780E12213F123BBB12213FC1
:10335300AC0CAD0D7A00790012032D7404121ED249
:10336300E9600302364B123C021206BD023686A800
:1033730018A919880E890F780E12213F123B90125B
:1033830003397402121ED2E9600302364BAC18AD46
:1033930019AA08AB091202C1023686A818A919880E
:1033A3000E890F780E12213F123BBB12213FAC0C4A
:1033B300AD0D7A0079001203457404121ED2E96040
:1033C3000302364B7402121F08122156900F0EE0AF
:1033D300F97402121F08124351023583123BB57070
:1033E3000302364BA818A919880C890D780C1221F1
:1033F3003F123BEF1203517402121ED2E960030223
:103403003644AC18AD19AA08AB091202C70235C578
:10341300A818A919880E890F780E12213F123BBBF9
:1034230012213FAC0CAD0D7A00790012035D7404D8
:10343300121ED2E9600302364B7404121F08123BBA
:10344300E712213F7407121F0885820C85830D78CC
:103453000C12213F123B5F121ED2E97003023A5352
:10346300851882851983E064017002A3E06003027A
:103473003A537402121F08E0F47003A3E0F46003EC
:10348300023A531243581221437408121F08E0F9F9
:103493007409121F08123BD91206C97401121ED2F5
:1034A300023686123BB5700302364BA818A9198859
:1034B3000C890D780C12213F123BEF120369740241
:1034C300121ED2E96003023644AC18AD19AA08AB48
:1034D300091202CD0235C5A818A919880E890F78DB
:1034E3000E12213F123BBB12213F124300121ED288
:1034F300E9600302364B7404121F08123BE71221E2
:103503003F7407121F0885820C85830D780C1221E6
:103513003F7C027D007A5E7B91123B67121ED2E9EB
:10352300601A7402121F08122156900F0EE0F974EC
:1035330002121F08123BD91206CF80447404121FD3
:1035430008123BE712213F7407121F0885820C857E
:10355300830D780C12213F7C027D007A6A7B9112E5
:103563003B67121ED2E960207402121F0812215613
:10357300900F0EE0F97402121F08123BD91206D500
:103583007402121ED2023686123C021206ED023675
:1035930086123BB5700302364BA818A919880C890B
:1035A3000D780C12213F123BEF1203817402121E9D
:1035B300D2E96003023644AC18AD19AA08AB09126C
:1035C30002D3E9F50A707A807FA818A919880E89B1
:1035D3000F780E12213F123BBB12213FAC0CAD0DF5
:1035E3007A00790012038D7404121ED2E970591205
:1035F3003C021206E7023686EAC394034003123BF9
:10360300A1850E82850F83E0FA74026A6004EE4F8F
:103613006036A818A919880C890D780C12213F125D
:103623003B871203997402121ED2E97010AC18ADD5
:1036330019AA08AB091202D9E9F50A600BEE4F602B
:1036430007EEFAEFFB121A01A90A121935741512C3
:103653001ED27F0C021FFEA818A919880E890F78A5
:103663000E12213F123BBB12213FAC0CAD0D7A0071
:1036730079001203B77404121ED2E970CB123C0214
:103683001206F3E9F50A80C0EAC394034003123B30
:10369300A1850E82850F83E0FA74026A6004EE4FFF
:1036A30060A6A818A919880C890D780C12213F125D
:1036B3003B871203C37402121ED2E97080AC18ADAB
:1036C30019AA08AB091202DFE9F50A6003023640C2
:1036D30002364B123BB5700302364BA818A9198862
:1036E3000C890D780C12213F850E82850F831243BE
:1036F3008312213FEAFCEBFD7A0079001203CF74B9
:1037030004121ED2E96003023644123C021206F987
:103713000235C5EAC394034003123BA1850E82859B
:103723000F83E0FA74026A6007EE4F700302364BB0
:10373300A818A919880C890D780C12213F123B8710
:103743001203DB7402121ED2E96003023640AC1886
:10375300AD19AA08AB091202E50236CBA818A919BC
:10376300880E890F780E12213F123BBB12213F12A4
:103773004300121ED2E9600302364B7404121F0881
:10378300123BE712213F7407121F0885820C8583C1
:103793000D780C12213F123B5F121ED2E970030217
:1037A3003A53851882851983E064017002A3E060AF
:1037B30003023A537402121F08E0F47003A3E0F407
:1037C3006003023A53900F0EE0F9AA08AB09120600
:1037D300C3023686123BB5700302364BA818A919EB
:1037E300880C890D780C12213F123BEF1203E7740A
:1037F30002121ED2E96003023644AC18AD19AA08BE
:10380300AB091202EB0235C5EA24FCFCE434FFFDEC
:10381300E82404FAE439FB12193B8A128B13AE1223
:10382300AF13EA4F700302364BA818A919881289FF
:1038330013781212213F850E82850F83E024FC1238
:103843003BCF12213FEAFCEBFD85108285118312E9
:103853004B73124316121ED2E960030236447406F8
:10386300121F08E07008123C0212070B801874053F
:10387300121F08E0AC18AD19AA08AB0970051206AF
:10388300FF8003120705E9F50AE50A023AB7A8180B
:10389300A919880E890F780E12213F123B9012034B
:1038A300AB7402121ED2E9600302364BAA08AB09BD
:1038B3001202F1023686123B9012193B8A088B09D9
:1038C300AE08AF09EA4F700302364BA818A919884E
:1038D300088909780812213F850E82850F83E02429
:1038E300FEF508E434FFF509780812213FEAFCEB02
:1038F300FD7A0079001203F37404121ED2E9600307
:10390300023644900F98124371700F7A237B001292
:103913001A4F900F98EAF0A3EBF0900F98124371AF
:10392300603E900F97E0C394054003023A5312435D
:103933006429F0750807750900780812213F74029D
:10394300121F22E975F007A4F8A9F0900F98E02858
:10395300FAA3E039123B5A121ED2750A0002364B03
:10396300750A13023644123BB5700302364BA8188E
:10397300A919880C890D780C12213F123BEF120311
:10398300FF7402121ED2E96003023644AC18AD196B
:10399300AA08AB091202F7E9F50A60030236447478
:1039A30005121F08124371700302364402364BA8F6
:1039B30018A919880E890F780E12213F123BBB12EA
:1039C300213FAC0CAD0D7A00790012040B74041284
:1039D3001ED2E9600302364B900F98124371607058
:1039E3001243581221437401121F0812435B122120
:1039F30043900F97E0F9900F98123BD91207177471
:103A030002121ED2E9F50A60397E008022EE75F0BB
:103A130007A4F8A9F0900F98E028FAA3E0398A8266
:103A2300F583A3A3125A61EA4B6003121A010E90A5
:103A33000F97E0F8EEC39840D4900F98125A64128F
:103A43001A55900F98E4F0A3F0900F97F002364BBD
:103A5300750A02023640A818A919880E890F780E34
:103A630012213F123B901204117402121ED2E9601C
:103A73000302364BAA08AB091202FD023686123B3B
:103A83006D700302364BA818A91988108911781094
:103A930012213F123BC212213F123B49121ED2E9AF
:103AA3006003023644850C82850D83123C051207A0
:103AB300FBE9F50A6003023644804D123B6D700347
:103AC30002364BA818A91988108911781012213FC2
:103AD300123BC212213F123B49121ED2E96003027C
:103AE3003644124358122143850C82850D831243B9
:103AF30064121F22AA08AB091207F57401121ED221
:103B0300E9F50A60030236447403121F0812437175
:103B1300700302364002364BA818A919880E890F84
:103B2300780E12213F123B901204237402121ED20C
:103B3300E9600302364BAA08AB091202AF023686CC
:103B4300750A0102364BEAFCEBFD7A007900120498
:103B53001D740422FAE43FFB1256C6227C027D0048
:103B6300AA12AB1312042F740422EA24FDFCE434DA
:103B7300FFFDAA10AB1112193B8A108B11AE10AFC7
:103B830011EA4F22EA123BFAEEFAEFFB22EA123B6A
:103B93009522123B9922123BFAAA0CAB0D22123B3F
:103BA300A522EA123B9912193B8A0C8B0DAE0CAF7E
:103BB3000D22123BA5EA4F22EA24FE123BCF2285B7
:103BC3000E82850F83E024FD123BCF22F50EE434F1
:103BD300FFF50F780E22123BDD22E0FCA3E0FDAAE5
:103BE30008AB0922E0F50C8E0D780C22850E828538
:103BF3000F83E0123BFA2224FEFCE434FFFD229003
:103C03000F0EE0F9AC18AD19AA08AB092274E8123B
:103C13001F2C74EA121EBCE9851882851983F0757E
:103C23000E00750F00750A40EA2403F510E43BF516
:103C330011851082F583E0F9C3940250057940029F
:103C430041978A828B83A3A3A3A3E0FEA3E0FF8E05
:103C530082F583E0FCA3E0FAE4CAFBEC2AF508E46E
:103C63003BF509EE2402F50CE43FF50DEE2403F5D4
:103C730012E43FF513851882851983E01221FF00B2
:103C83001602C83C04CC3D06103D089B3D0A143E79
:103C93000C803E0EBB3E10033D12813F16B93F1B05
:103CA3004E421D974230293D32293D344F3E360561
:103CB3003F38423F3A2F403CA6413EE04140174245
:103CC30042B93FFA427401121F1A8A0E8B0F780E03
:103CD30012213FE9123BBC12213FAC0CAD0D7A001F
:103CE300790012032D7404121ED2E960030241927B
:103CF300124361121F22AA08AB091206BD0241DB5F
:103D0300900F0EE0F9AA081206C30241DB124358D2
:103D13001221431919AC0CAD0DAA081206C974017E
:103D2300121ED20241DBE924FEF8E434FFF97404E5
:103D330068496003024192850C82850D83E0FA8510
:103D43001282851383E0F8E4C8F9EA28FCE439FD1C
:103D53008E828F83A3A3A3A3E0FA8E828F83A3A370
:103D6300A3A3A3E0F9EAF50AE439F50B85188285E4
:103D73001983E06430780A701012213F900F0EE02F
:103D8300F9AA081206CF023E0C12213F900F0EE053
:103D9300F9AA081206D580717401121F1A8A0E8BB4
:103DA3000F780E12213FE9123BBC12213F12430050
:103DB300121ED2E96003024192124361121F22AA2A
:103DC30008AB091206DB0241DB7401121F1A8A0ECB
:103DD3008B0F780E12213FE9123BBC12213FAC0C32
:103DE300AD0D7A0079001203457404121ED2E96006
:103DF300030241927403121F08122156900F0EE022
:103E0300F97403121F081243517402121ED20241A5
:103E1300DB7401121F1A8A0E8B0F780E12213FE9F1
:103E2300123BBC12213FAC0CAD0D7A00790012039A
:103E33008D7404121ED2E96003024192124361128F
:103E43001F22AA08AB091206E70241DB7401121F05
:103E53001A8A0E8B0F780E12213FE9123BBC1221F6
:103E63003F124300121ED2E96003024192124361E2
:103E7300121F22AA08AB091206ED0241DB740112DC
:103E83001F1A8A0E8B0F780E12213FE9123BBC12C8
:103E9300213FAC0CAD0D7A0079001203B774041204
:103EA3001ED2E96003024192124361121F22AA0843
:103EB300AB091206F30241DB12432C700302419259
:103EC3007401121F12880C890D780C12213F1243C2
:103ED3007D12213FAC0EAD0F7A0079001203CF742F
:103EE30004121ED2E9600302418B124361121F22A6
:103EF300AA08AB091206F9E9F50A600302418B022D
:103F0300419212432C70030241927401121F1288D2
:103F13000C890D780C12213F12437D12213FAC0E08
:103F2300AD0F7A01124314121ED2E9600302418BD2
:103F33007401121F22AA08AB091206FF02428D1256
:103F4300432C70030241927401121F12880C890DD5
:103F5300780C12213F12437D12213FAC0EAD0F7A34
:103F6300017901124316121ED2E9600302418B74D8
:103F730001121F22AA08AB0912070502428D124340
:103F83002C70030241927401121F12880C890D7860
:103F93000C12213F12437D12213F12430E121ED2F7
:103FA300E9600302418B124361121F22AA08AB0985
:103FB30012070B02428D12432C70030241927401CB
:103FC300121F12880C890D780C12213F12437D12A7
:103FD300213FAC0EAD0F7A0079001203F374041283
:103FE3001ED2E9600302418B851882851983E06440
:103FF30016900F0E700F124364121F22AA08AB090A
:10400300120711800D124364121F22AA08AB091272
:10401300072FE9F50AE50A600302418B7406121FB4
:1040230008124371700302418B024192E924FEF8A6
:10403300E434FFF9C3E89401E99400A2D265D033D4
:104043005003024192850C82850D83E0F5107003C5
:104053000241A1C3940640030241A1E51075F00794
:10406300A4FEA8F0E8FFEEFAE8FB121A4F8A148BBD
:1040730015EA4B700302419CEEFCEFFD7900121927
:104083008FAE12AF13750B008034E8FEE9FF85167F
:104093000C85170D780C12213F750C04750D0078F3
:1040A3000C12213FEEFCEFFD7A0079001203F3744A
:1040B30004121ED2A811EE28FEE43FFF050BE50B08
:1040C300C39510505E751104E50B75F007A4F8A9AC
:1040D300F0E51428F516E51539F5178E828F83A3BD
:1040E300A882A9838E828F83E0FA609E74042AF5E6
:1040F30011E8FEE9FFE511F50C750D00FCAD0DE8C7
:10410300FAE9FB1243347005750A138041851612D0
:10411300851713781212213F780C12213FAC0EAD94
:104123000F8085E510650B702512435812214375E6
:104133000A01780A122143A910AC14AD15AA08ABE1
:10414300091207177402121ED2E9F50A6034750BBF
:10415300008021E50B75F007A4F8A9F0E51428F514
:1041630082E51539F583A3A3125A61EA4B60031262
:104173001A01050BE50BC3951040D8AA14AB151211
:104183001A55E50E450F6007AA0EAB0F121A01A9C7
:104193000A1219357416025DFD750A1380F1750A4A
:1041A3000280EC7401121F1A8A0E8B0F780E1221F3
:1041B3003FE9123BBC12213FAC0CAD0D7A007900F4
:1041C30012038D7404121ED2E970C4124361121FCC
:1041D30022AA08AB0912071DE9F50A80B27401127D
:1041E3001F1A8A0E8B0F780E12213FE9123BBC1265
:1041F300213FAC0CAD0D7A0079001203B7740412A1
:104203001ED2E9708A124361121F22AA08AB091257
:10421300072380C412432C70030241927401121FBE
:1042230012880C890D780C12213F12437D12213F15
:1042330012430E121ED2E9600302418B1243611234
:104243001F22AA08AB09120729803F12431C7003DF
:104253000241927401121F128812891378121221DB
:104263003F12433E12213FAC0EAD0F123B4D121EC7
:10427300D2E9600302418B850C82850D831243646E
:10428300121F22AA08AB091207FBE9F50A60030211
:10429300418B805312431C70030241927401121F1D
:1042A3001288128913781212213F12433E12213FC2
:1042B300AC0EAD0F123B4D121ED2E9600302418BCF
:1042C300124358122143850C82850D83E0F9740251
:1042D300121F22AA08AB091207F57401121ED2E9B4
:1042E300F50A600302418B7404121F0812437170B4
:1042F30003024185024192750A01024192AC0CAD61
:104303000D7A007900120375740422AC0EAD0F7A96
:1043130000790012039F740422E924FDFCE434FFB6
:10432300FDAA12AB1312433422E9123B9512433414
:104333002212193B8A0E8B0FEA4B228510828511BC
:1043430083E024FDF510E434FFF511781022123BCD
:10435300DD1206E122900F0EE0F50A780A22900F93
:104363000EE0F9740122A3A3A3A3A3A3A3A312435F
:10437300764922E0F8A3E0F9E822851082851183CB
:10438300E024FEF50CE434FFF50D780C2274EA12F8
:104393001F2C74A5121EBC8C0E8D0F8A828B83A3D7
:1043A300A3A3A3E0FEA3E0FF751200EE2404F5101F
:1043B300E43FF511EE2403F50CE43FF50DEE240282
:1043C300F508E43FF5098E828F83A385820A8583EE
:1043D3000BE9700302446F24FD70030245711470EE
:1043E300030245BA1470030245FA147003024659D6
:1043F3001470030246CD1470030246E414700302E2
:1044030046051470030246EF1470030247651470E7
:10441300030249C1147003024A6314700302494141
:104423001470030248C71470030248BE14700302D9
:10443300470824E170030249E3147003024A181485
:1044430070030249D2147003024A6B147003024AC8
:10445300C6147003024AD8147003024AEB147003A3
:10446300024AE0147003024AEB024AF08E828F8301
:10447300E0F5147C107900AA08AB091219F5E9706C
:1044830019750C10750D00780C12213FAC08AD099D
:104493007A777B0F123B5B121ED2EE2412F508E4EF
:1044A3003FF5097C107900AA08FB1219F5E9701988
:1044B300750C10750D00780C12213FAC08AD097A0C
:1044C300877B0F123B5B121ED2EE2422F582E43F60
:1044D300F583124B89EE2423F582E43FF583124BD7
:1044E300A7121C65780C7910121C84EE2424F58223
:1044F300E43FF5831231BE121C65780C7910121C4F
:1045030084EE2425F582E43FF583124B7E121C656D
:10451300780C7910121C84E50C450D450E450F608F
:1045230008900F0F780C121D6B75080F75090F7823
:104533000812213F75088775090F780812213F7CFF
:10454300777D0F850A82850B83E0FBAA14900F0EFB
:10455300E0F91217C17404121ED2E9F512900F0E7E
:10456300E0FC7D007A267B001204A7024AF375085B
:10457300007509009090B4740A121F227406121D6C
:10458300CF750C06F50D780C12213F740C121F2207
:10459300AA0AAB0B1219897402121ED2E9640160D4
:1045A30006850A08850B09AA08AB098E828F83E06A
:1045B300F91204BF024ADB900F0EE0C0E074101240
:1045C3001F08D0E0F08E828F83E0C0E07411121FC9
:1045D30008D0E0124C18C0E07412121F08D0E01289
:1045E3004C0FC0E07413121F08D0E0F07410121FB8
:1045F3001A120447024ADB900F0EE0F912044D022F
:104603004ADB900F0EE0851882851983F08E828F26
:1046130083E0C0E07401121F08D0E0124C18C0E020
:104623007402121F08D0E0124C0FC0E07403121F73
:1046330008D0E01256EB12213FAC0CAD0D740612FC
:104643001F08AA82AB83123B5B121ED2AA18AB19B6
:10465300120489024ADB8E828F83E08518828519D2
:1046630083124C18C0E07401121F08D0E0F00E0E44
:10467300AF09750806750900780812213FEEFCEFB3
:10468300FD7404121F08AA82AB83123B5B121ED275
:104693008E828F83A3A3A3A3A3A3E0C0E074081215
:1046A3001F08D0E0F08E828F83A3A3A3A3A3A3A3A9
:1046B300E0C0E07409121F08D0E0F0AA18AB19900B
:1046C3000F0EE0F91205C7024ADBAC08AD09E0FBA7
:1046D3008E828F83E0FA900F0EE0F91205CD024A25
:1046E300DB900F0EE0F91205D3024ADB85088285C1
:1046F3000983E0FC124BB1E439FB900F0EE0F91291
:104703000531024ADB124B6EEA8518828519831242
:1047130030810E0EAF098E828F83124B7374021297
:104723001F08EA1230810E0EAF118E82124B66748F
:1047330004121F08124C0550010F124B6474061229
:104743001F08EA123081EE240250010F124B6474E9
:1047530008121F08EA123081AA18AB191205370292
:104763004ADB750E00750F007C187D007900741408
:10477300121F1A12198F124B6E7414121F08EAF0CB
:10478300A3E9124C0FC0E07416121F08D0E0125AAE
:104793007DC0E07417121F08D0E0F0AE10AF1175A2
:1047A3000810750900780812213FEEFCEFFD741A1A
:1047B300121F08AA82AB83123B5B121ED2EE241097
:1047C300124B4CC0E07428121F08D0E0F0EE241105
:1047D300124B4CC0E0742B121F08D0E0F0EE2412F1
:1047E300124B94EAA2E35004D2F08002C2F0124BBF
:1047F30054121EA9124AFF121EA9124B36121EA9E9
:10480300124B23121EA9124B10121EA9ED4509F9D2
:104813007429121F08EC123081EE2413124B4C70D2
:10482300030248AFEE2414124B4CC0E0740A121F6B
:1048330008D0E0F0EE2415124B4CC0E0740B121FAD
:1048430008D0E0F0EE2416124B4CC0E0740C121F9B
:1048530008D0E0F0EE2417124B4CC0E0740D121F89
:1048630008D0E0F0EE2418124B94750900EAA2E395
:104873005004D2F08002C2F0124B54121EA9124A05
:10488300FF121EA9124B36121EA9124B23121EA988
:10489300124B10121EA9ED4509F9740E121F08ECF4
:1048A300123081740A121F12880E890FAC0EAD0FDD
:1048B3007414121F1A120543024ADB124BCD120560
:1048C30049024ADB124BE612213FEEFCEFFD744234
:1048D300121F1A123B5B121ED2EE2410FE50010F60
:1048E300124B647450121F08124C0550010F750CC3
:1048F30008780C12213FEEFCEFFD7454121F08AA36
:1049030082AB83123B5B121ED28E828F83A3A3A33F
:10491300A3A3A3A3A3E0C0E0745A121F08D0E0F03E
:1049230075090178091221437441121F22A908AAAB
:104933000AAB0B12055B7401121ED2024ADB124B47
:10494300E612213FEEFCEFFD742E121F1A123B5BA1
:10495300121ED2EE2410FE50010FF5828F83E0F574
:104963000CE4F50EF50FA3124BA7121C65780C7916
:1049730010121C848E828F831231BC121C65780C3A
:104983007910121C848E828F83A3A3A3124B7E12F1
:104993001C65780C7910121C84743C121F08E50CFA
:1049A300F0A3E50DF0A3E50EF0A3E50FF0742C12D0
:1049B3001F22A908AA0AAB0B12053D024ADB124BC0
:1049C300B1FCE439FDAA08AB0912054F024ADBEE3C
:1049D3002410FCE43FFDEEFAEFFB120513024ADB61
:1049E3008E828F83E0FA7B00850A82850B83E0FC4D
:1049F300850882850983E0F9EC2BE439FDEA642616
:104A03007003024AEBEA942795E04003024AEB1253
:104A130004A7024ADB78FF79FF8E828F83E0FA7B5B
:104A230000C394FF95E05022EA6426601DC3EA9414
:104A33002795E050151204AD8A088B09A808A90927
:104A430074FF68700374FF697003751202850E8228
:104A5300850F837402F0E8900F45F0E9A3024AE85A
:104A6300124BCD1206458070E0F50EF50C750D0066
:104A73002404FAE43400FB12566060428E828F8372
:104A83001257F9F0A3E50EF0EA2404FAE4350BFB20
:104A9300850A82850B83A3A3EAF0A3EBF0780C12BB
:104AA300213FAC08AD09123B5B121ED2AA0AAB0B25
:104AB3001205D9E9F5126038AA0AAB0B80127512F8
:104AC30013802D8E828F83E0F91205DFEA4B601885
:104AD300121A55801B1205E5E9F5128013751202AF
:104AE3008C828D83E4F080087512028003751201B5
:104AF300A912745B121ED27F0E021FFEEC450854EE
:104B030007FCA2F0E433F5087403780822ED4509A5
:104B1300FDEAA2E7E433F508750900740B7808226F
:104B2300ED4509FDEAA2E6E433F508750900740AC8
:104B3300780822EC4508FCEAA2E4E433FDEAA2E5A6
:104B4300E433F5087409780822F582E43FF583E03D
:104B53002254FDFCE828F8EC4854FBFC7402780866
:104B630022F5828F83E0FAA3E0F922124BBFF922E8
:104B7300E0FA850C82850D83E0F922E0F510E4F577
:104B8300127418781022E0F50CE4F50DF50EF50F0C
:104B930022F582E43FF583E0FAC313F8EA131354D2
:104BA3003FF508221231C6F5137408781022124B10
:104BB300B522124BBFF8E4C8F9EA28228E828F830C
:104BC300E0FA850A82850B83E022850882850983C2
:104BD300E0F98E828F83E0FC850A82850B83E0FBFC
:104BE300ECFA22124BB5F50AE439F50B85088285F8
:104BF3000983E0F5080E0E0EAF0D750C10880D78C5
:104C03000C22EAF0A3E9F0EE2402FE22F0850882EA
:104C1300850983E022F0850A82850B83E02274F400
:104C2300121F2C74FD121EBCEAFEEBFF8518828551
:104C33001983E4F0F508F50904121F08E4F074027F
:104C4300121F087401F07C2C7D0079007A137B0F0E
:104C530012198F8E828F83E02460606F24FE60516F
:104C630024F27003024CF7147003024D2524E16013
:104C730003024D467402121F12880889097808122C
:104C8300213F7403121F1288088909780812213FF3
:104C93007404121F1288088909780812213F7C13B3
:104CA3007D0FEEFAEFFB1219117406121ED2024D9C
:104CB30042A818A91988088909780812213F7C138A
:104CC3007D0FEEFAEFFB121917806F7401121F129A
:104CD30088088909780812213F7402121F12880874
:104CE3008909780812213F7C137D0FEEFAEFFB123E
:104CF300191D80277401121F128808890978081268
:104D0300213F7402121F1288088909780812213F73
:104D13007C137D0FEEFAEFFB1219237404121ED2DB
:104D2300801DA818A91988088909780812213F7CD1
:104D3300137D0FEEFAEFFB1219297402121ED28AA9
:104D4300088B097402121F08E06007EEFAEFFB12EA
:104D530019A1851882851983E0600AAC08AD09FAA8
:104D630079FF120B31E508450960117401121F0820
:104D7300E064017007AA08AB09121A55790074039D
:104D8300121ED27F04021FFE74E8121F2C74FC1241
:104D93001EBC8A088B09ECFEEDFF751000750A0036
:104DA300750B007420121F08125DF6EC2406F8E45C
:104DB3003FF9EC2405FAE43FFBEC2402F516E43F4B
:104DC300F5178C828D83A3858212858313E50824CE
:104DD30003F50CE43509F50D850882850983A38560
:104DE300820E85830F850882850983A3A3E0605D16
:104DF300147003024ECA147003024FF514700302B9
:104E0300500B1470030250131470030250261470D5
:104E1300030250D61470030250F814700302515E5B
:104E230014700302517714700302521714700302B3
:104E330051E814700302550314700302553A1470B9
:104E43000302543C14700302544F0255C68C828DE6
:104E530083E41257B012213F12567D121ED212570D
:104E6300FFC0E0125620D0E0F075081075090078F5
:104E73000812213F7C777D0FEE240C123B57121E44
:104E8300D2780812213F7C877D0FEE241C123B57FA
:104E9300121ED2850E82850F83E070217C777D0FF1
:104EA3007A107902121AB57C877D0F7A1079031272
:104EB3001AB57C0F7D0F7A047904121AB58E0A8F06
:104EC3000B75102C0255C6850E82850F83E0600397
:104ED300024FCA850C82850D83E07003024FDF33D6
:104EE300333354F8240412565B7003024FC18A8291
:104EF3008B8374011257DFEA2404F8E4350B123074
:104F030079850882850983A3A3A3A3E0F8A3E0F925
:104F13007402121F08123080751100024FA474022C
:104F2300121F08125A70E0C0E0125A6AD0E0F074FF
:104F330002121F08125A70A3E0C0E0125A6AA3D0EB
:104F4300E01256CC2402F8A3E03400F985188285D8
:104F53001983E8F0A3E91256EB12213F7404121FE0
:104F630008E02402FCA3E03400FD7402121F0812BF
:104F73005A64123B5B121ED2851882851983E02482
:104F830006F8A3E0340012307905117402121F08E9
:104F9300E02408F8A3E03400F97402121F08123069
:104FA30080850C82850D83E0F8E511C398500302D8
:104FB3004F21741E121F08125A7074018008850E47
:104FC30082850F837413F0850E82850F83E0700C46
:104FD300850C82850D83E060030255C68E828F8324
:104FE300740112578A8E828F83A3A3A3E4125702FC
:104FF30080108C828D8374021256DD1257BC8C0A8A
:105003008D0B7510040255C68C828D837403800644
:105013008C828D83740412578A8C0A8D0B7510034E
:105023000255C68C828D8374051256D504125862BC
:1050330012213F12566A121ED2850882850983A364
:10504300A3A3A3A3A3A3A3A3A3125EAC12576AC0F3
:10505300E0125620D0E01257D9C0E0125609D0E032
:105063001256F5E0C0E01255E4D0E01256F5A3E085
:10507300C0E0EE240EF582E43FF583D0E0F0E508CE
:10508300240F1255EEC0E0EE240FF582E43FF583C2
:10509300D0E0125A8AC0E0125644D0E0F0E508246A
:1050A300111255EEC0E012563AD0E0125A8AC0E00F
:1050B300EE2412F582E43FF583D0E0F0E5082413F3
:1050C300125617C0E012562AD0E012570275101478
:1050D3000255C68C828D8374061256D51257BC12A4
:1050E300587AA31257818A828B83F08C0A8D0B75B1
:1050F30010060255C68C828D8374071256D514127E
:10510300578D850882850983A3A3A312588012575C
:10511300818C828D83A3A3A3A312571F8A828B83BF
:1051230012572D888289831257A11257418C828D81
:1051330083A3A3A3A3A3A3A3A31257321258811239
:10514300576A8C828D83A3A3A3A3A3A3A3A3A3A31F
:10515300F08C0A8D0B75100B0255C68C828D8374EF
:105163000812585F12213F12566A121ED28E0A8FFE
:105173000B0254FD8C828D83740912585F12213FF8
:1051830012566A121ED2850882850983A3A3A3A39C
:10519300A3A3A3A3A3A3780C121D5C8E828F83A366
:1051A300A3A3A3A3A3A3A3A3A3125762121D5CE506
:1051B3000DF50C125620125762121D5C7410780CF8
:1051C300121C4C125609E50C1257327808121D5C5A
:1051D30074187808121C4C1255E4E508125702752E
:1051E300100E0255C68C828D83740B1257B0122198
:1051F3003F12567D121ED21257FFC0E0125620D026
:10520300E01257D9C0E0125609D0E01257027510C8
:105213000D0255C675106A7A6A12565E70030254FF
:105223001A741E121F08125DF67C6A7D0079001243
:10523300198F850A82850B83740AF0A3AE82AF832C
:105243001255DA125EAC1257151257081257818E97
:10525300828F83A3A3A3A3F0EE242112564E1243FD
:105263006B606E8E828F83A3A3A3A3A374011257D3
:105273005A125EA4A3A3A3A3A3F0EE2407FE500136
:105283000F750E10750F00780E12213F8508828569
:1052930009831256B3121ED28508828509831256DA
:1052A3008BC0E0125644D0E012575A125634C0E075
:1052B30012563AD0E0F0EE2412FE50010F750E089C
:1052C300780E12213F85088285098312569F121E8C
:1052D300D2AE0CAF0DEE241C12564EA3A31243699B
:1052E300606E8E828F837401125779125EA4F0EE82
:1052F3002402FE50010F750E10750F00780E122157
:105303003F850882850983A3A31256B1121ED28555
:105313000882850983A3A3A3A312568BC0E0125668
:1053230044D0E0125779125634C0E012563AD0E016
:10533300F0EE2412FE50010F750E08780E12213F75
:10534300850882850983A3A3A3A312569F121ED2A5
:10535300AE0CAF0DEE2417F50CE43FF50D1255F925
:1053630012437160398E828F837401F0A30EAF8371
:10537300750E10750F00780E12213F1255F9125653
:10538300B9121ED2EE2410FE50010F750E06780ED0
:1053930012213F12561324101256A8121ED2AE0C1D
:1053A300AF0D85088285098312436970030255C6D0
:1053B3008E828F837401F0A30EAF83750C10750D6D
:1053C30000780C12213F8508828509831256B11299
:1053D3001ED2850882850983A3A3125690780C12E6
:1053E3001D5CEE2410125837121D5CE50DF50CEE12
:1053F3002411125837121D5C7410780C121C4CEED9
:105403002412125837121D5C7418780C121C4C129B
:10541300562AE50C0255C58E828F83740A1256DD17
:10542300F08516828517837413125715A312570834
:10543300A3A3A3A3125702800D8C828D83740E1233
:10544300586B8C0A8D0B7510050255C68C828D83A3
:10545300740F12586B850882850983A31257F512BE
:10546300571F8882898312572D8C828D83A3A3A310
:10547300A3A3A3A31257A1A3125741F8A3E0F9E8EA
:10548300A2E0E433F508E8540260047A0280027A69
:1054930000EA4208E8540460047A0480027A00EACD
:1054A3004208E8540860047A0880027A00EA420855
:1054B300E9540160047A1080027A00EA4208E95450
:1054C3000260047A2080027A00EA4208E954046008
:1054D300047A4080027A00EA4208E95408600478BA
:1054E3008080027800E845088C828D83A3A3A3A360
:1054F300A3A3A3A3A3F08C0A8D0B75100A0255C6B0
:105503008C828D83740C12586B750A06780A1221EB
:105513003FE5082405FCE43509FD123B5B121ED26E
:10552300E508240B125617C0E0125620D0E012579C
:105533000275100C0255C6125613240D12565B60E9
:10554300798A828B83740D1257DF850882850983DC
:105553001257F5A3A3A3A3F0EA2405FEE4350BFF3A
:10556300750C06750D00780C12213FE5082405FC27
:10557300E43509FDEEFAEF123B5A121ED2E5082478
:105583000B1256178E828F831257D38E828F83A36B
:105593001257D3F50C780C12213FE508240D12564F
:1055A30017FCA3E0FDEE2408123B57121ED2741E13
:1055B300121F08125A7074018008850E82850F83AA
:1055C3007413F0741C121F08125A70E510F0AA0A23
:1055D300AB0B7404025DFD7406F0850E82850F83A8
:1055E30022EE240DF582E43FF58322F8E43509F930
:1055F3008882F583E0221255FD22E508240CF5820A
:10560300E43509F58322EE240CF582E43FF5832289
:10561300E508240CF582E43509F583E022EE240B3A
:10562300F582E43FF58322EE2413F582E43FF5830C
:105633002212584CA3E022EE2411F582E43FF583B5
:1056430022EE2410F582E43FF58322F50CE43FF5C6
:105653000D85088285098322F510FA7B00121A4F03
:105663008A0A8B0BEA4B22E5082404FCE43509FD86
:10567300EE24041AE43F1256C522AC0CAD0DEE2401
:1056830003FAE43F1256C522125690E022A3A3A3C5
:10569300A3A3A3E0F8A3E0C812585022A3A3A3A393
:1056A300A3A3E02412FCA3E034001256C122A3A357
:1056B300A3A3A3A3A3A3E0FCA3E01256C122FDEE80
:1056C300FAEFFB121977740222F085188285198389
:1056D300E022F0851282851383221256E122F0859F
:1056E3001282851383740622F07508067509007803
:1056F3000822F0E508240DF582E43509F58322F04C
:105703008E0A8F0B22125A4612570F22E08E828F77
:105713008322125A818E828F83A3A32212572322BC
:10572300125ECFA3A3A3A3A3E022125748E0221241
:1057330057362212573A22125750A3A3A3221257C5
:1057430048A3A3E02212574C2212575022125ED3D1
:10575300A3A3A3A3A3A322125723F8A3E0C822E57C
:105763000C125736780C22A3A3A3A3A3A3A3A3A32A
:10577300125736A3E022125832F8A3E0C822125E71
:10578300C8A3A3A3A3E0221256E1125791221257F2
:1057930095221255DCE0851682851783F022125874
:1057A300598C828D83A3A3A3A3A3A3A3221256E19F
:1057B300125791750A06780A221257C0221257957A
:1057C300850C82850D83E08C828D83A3A3A3F022B5
:1057D300A3A3A3A3A3A3F01255FDE022F0A31255A4
:1057E300DA1257F9A3A3125A818A828B83A3A3A344
:1057F300F022A3A3A3A3E08A828B83228508828558
:105803000983A3A3A3A3A3A3A3A3A3125EBBA3A3DD
:105813001258328E828F83A3A3A3A3A3A3A3A3A30C
:10582300A3F0E508240BF582E43509F583E02212A1
:10583300573AE022F582E43FF583E50C125859F814
:10584300A3E0C812584C780C22125850222410F5A9
:1058530082E438F5832212574CA3E0221256E11258
:1058630057C0750A06780A221256E11257C0125819
:105873007AA3A3A3A3F022850C82850D83A3E08CD6
:10588300828D832274F1121F2CEAFEEBFF8C088DAC
:1058930009EA2405F50CE43FF50D8A828B83A38581
:1058A300820A85830B8A828B83A3A3122156850ADE
:1058B30082850B83E0F9850C82850D83E04480FCAF
:1058C30012591E121ED2E9F50E850A82850B83E05A
:1058D3007035E50829FAE43509FBEE2406FCE43FBC
:1058E300FD850C82850D83E014600A24F660102484
:1058F300F860078012120C518008120C69800312A1
:105903000C81EA250EF50E740F121F08125A70E56A
:105913000EF0AA08AB097F07021FFE7D04AA08AB9D
:105923000912192F74022274EA121F2C8A0E8B0F8C
:105933008C128D138A828B83A3E0F50A7418121FCD
:1059430008E0F510A3E0F511851082F583E4F0EA91
:105953002408F50CE4350FF50D850C82F583E0245E
:1059630009FEA3E03400FFC3EE942DEF9400403111
:10597300EEFAEFFB121A4F8A088B09EA4B600B858C
:1059830010828511837401F0801B85120885130929
:10599300850C82850D83E0F8C3EE98FE750A1380AB
:1059A300048C088D09850E82850F83A3A3122156CB
:1059B300A90A7CF012591E121ED2E50E2404F8E443
:1059C300350FF98882F583125A4F125A8A85088255
:1059D300850983A3A3A3A3A3A3125A7D8508828564
:1059E3000983A3A3A3A3A3A3A3125A46125A4FA3A3
:1059F300A3A3F0E50E2406F50E5002050FF58285EC
:105A03000F83E0FCA3E0FDEC4D6027E50A701785EA
:105A13000C82850D83122156E5082409FAE4350921
:105A2300123B5A121ED2850E82850F83125A6412BC
:105A33001A017416121F08125A70EEF0AA08AB0965
:105A4300024AFAF0850C82850D83A322E085088241
:105A5300850983A3A3A3A3A322FC8A828B83A3A385
:105A6300A3E0FAA3E0FB22851882851983125A74F6
:105A730022E0F8A3E0F583888222125A8122F0857E
:105A83000C82850D83E022125A8FE022F0888289EE
:105A930083A32274E8121F2C8A168B178C148D157E
:105AA3007F007E008F0A8F0B8A828B83A3E0F51021
:105AB300741A121F08125A70E4F0EC2406F50CE471
:105AC3003515F50DE5106003025CFAEC2407F8E4E4
:105AD3003515F9EA2405FCE43517FD8A828B83A387
:105AE300A3A3A3E0147003025B81147003025B8B16
:105AF300147003025B95147003025B9F147003021E
:105B03005BA9147003025BB9147003025BD61470B3
:105B130003025C4C147003025BE3147003025BF238
:105B2300147003025BFC147003025C09147003021B
:105B33005C13147003025C20147003025C3614704F
