:020000040000FA
:0600000002010702244288
:03002B0002287731
:0300330002289709
:030053000224B8CC
:03007B0002283424
:1000830002229FE5C754F84401F5C7790122000015
:100093000080FB120086B900030200F1E4792178A5
:1000A30008B800028004F709D8FCE479297802B87B
:1000B30000028004F709D8FCE490028178C2791920
:1000C3008002F0A3D8FCD9FA7A427B1B90013778DF
:1000D3001C79028015E493A3AD82AE838A828B835D
:1000E300F0A3AA82AB838D828E83D8E9D9E7758288
:1000F300177583F374031201197582917583007464
:100103000012011975D00075813F751881751902A8
:10011300759F00020096C09FF59FE473D09F22D085
:1001230083D082C09FE493C0E0740193C0E0740263
:1001330093F59F227E038A03C003BA03FF0000B432
:10014300000028002800283075A000A000A000A00F
:100153000000080008E001F000100010001000107B
:10016300001000100050005000500010001000D08C
:10017300070000000000000F0001000500307507B4
:10018300001000010081FF00000000FFFFFF0202DA
:100193000208025000A0000000E80302738F010070
:1001A300005E8F02778F0100009C1B026B8F0100A2
:1001B30000B60202778F0100009D1B02618F0100D0
:1001C30000CC0202778F0100009E1B02638F0100A7
:1001D30000CE0202778F0100009F1B02658F08008B
:1001E30000CF0202778F010000A01B02678F01007E
:1001F30000A11BFFFFFF1700EE0BEE0BEE0BEE0B48
:10020300EE0BEE0BEE0BEE0BEE0BEE0BEE0BEE0B23
:10021300EE0B400E5E0E3A0E01E803057710020A5C
:100223000000DC110000F411FFFF014849442041A4
:10023300647652656D6F7465FFFFFF00B214661537
:100243004616761676160000000101FF00FF001225
:10025300012202D9031201221FD90312012240D91C
:10026300031201229FD903120122DED903120122B4
:1002730009DA0312012248DA03120122DADA03123D
:10028300012216DB031201223FDB03120122F8E7EE
:10029300031201220BE80312012236E803120122A2
:1002A300BFE803120122F3E8031201222DBD02125B
:1002B30001222BBE0212012266BE02120122CABE15
:1002C30002120122EDBE02120122F0BE021201222D
:1002D3002EBF021201229ABF0212012204C002128F
:1002E3000122C4C002120122F9C00212012234C148
:1002F30002120122E8C10212012219C202120122D2
:100303005EC202120122CEC202120122D1C2021225
:100313000122DEC202120122E1C20212012237C30C
:1003230002120122AEC302120122B1C30212012240
:1003330051C4021201225DC40212012290C40212AE
:1003430001229DC402120122A0C402120122EFC4A1
:1003530002120122ECC50212012290C602120122EE
:10036300FCC60212012238C70212012240DA02122D
:10037300012218DB0212012246DB02120122DCDB1E
:10038300021201221DDC0212012285DC021201226B
:1003930013DD02120122C8DD02120122C7E002129C
:1003A300012232E20212012252E20212012298FBDE
:1003B3000112012234FD0112012254FD0112012216
:1003C30074FE01120122BDFE011201227DC403123B
:1003D3000122A5C403120122D2C4031201220AC5B9
:1003E3000312012270C503120122BAC503120122AE
:1003F3001EC60312012266C603120122A3C60312FC
:100403000122D1C60312012266C70312012270C75B
:10041300031201227DC703120122B0C70312012276
:10042300BCC703120122D4C703120122DEC7031281
:10043300012254ED0312012262ED031201227AED2F
:100443000312012292ED03120122A9ED03120122EC
:10045300E0DD0112012283DE01120122FBDE011223
:10046300012222E0011201225BE001120122F3E0EA
:1004730001120122E0E10112012289E201120122AB
:10048300F1E20112012279E40112012261E5011274
:10049300012258E6011201228EE60112012230E701
:1004A3000112012256E70112012222E9011201225F
:1004B3006DE9011201228FE9011201222EEA0112D4
:1004C3000122E8EA01120122F4EC011201226CC8B4
:1004D3000312012282C803120122A0C803120122BF
:1004E300B0C903120122BAC903120122E4CA0312DA
:1004F3000122D1CB031201223DCC0312012261E67A
:100503000312012295E7031201227B8F01120122BC
:10051300289001120122449001120122F29001124B
:1005230001222791011201226891011201227C917B
:10053300011201224892011201221E93011201228B
:10054300A593011201225D94011201225E9701120B
:1005530001221D9901120122BF99011201228B9AD6
:1005630001120122B09D011201225E9E011201229D
:10057300979F0112012254A101120122E8A1011245
:1005830001222BA2011201226AA20112012253A30A
:100593000112012287A3011201220FA401120122D9
:1005A300D3CC011201225ACD01120122D2CD011264
:1005B3000122ABCE01120122ABCF01120122A7D03F
:1005C3000112012273D101120122CDD201120122A3
:1005D300E3D20112012204D301120122C8D3011272
:1005E3000122EED3011201229BD601120122A0D6D1
:1005F30001120122C4D8011201220BD901120122D6
:1006030071D901120122B7D90112012287DA01122D
:1006130001223CDB0112012298DB011201229BDB48
:1006230001120122E7DB0112012223DC0112012264
:1006330062DC0112012284DC01120122B8DC011206
:10064300012226DD011201228DA90312012296A99E
:1006530003120122B0A903120122CFA9031201221E
:1006630019AA031201225CAB03120122F4AB031299
:10067300012238AC0312012262AC03120122CDAC79
:100683000312012211AD0312012294AD03120122C0
:1006930043AE0312012200800312012228800312B9
:1006A3000122928003120122AE80031201224B85A4
:1006B30003120122528603120122B0860312012281
:1006C300DB860312012205BC031201220FBC0312B5
:1006D300012257BC031201226BBC03120122FCBC92
:1006E3000312012233BD031201226EBD0312012244
:1006F30097BD03120122DABD03120122EFBD0312DB
:1007030001225ABE031201226EBE0312012282BECF
:100713000312012297BE03120122D1BE031201224A
:1007230042BF031201228EBF03120122B9BF03127B
:100733000122FCBF0312012226C00312012251C071
:10074300031201225BE903120122DCA60212012239
:10075300B5A70212012224A8021201225FA80212E5
:1007630001229AA9021201221AAA0212012220AC22
:1007730002120122CDAE0212012278AF021201222F
:1007830059B002120122D3B1021201223BB202126A
:100793000122219503120122649503120122BE96C0
:1007A30003120122919703120122CF99031201220E
:1007B30086DB0312012234DC0312012227DD03123C
:1007C300012269DD0312012261E103120122C0E16A
:1007D300031201225DE20312012289E203120122C4
:1007E300A8E203120122E3E20312012203E303124C
:1007F300012255AE03120122DEAE031201229DAF88
:1008030003120122ABB003120122CBB20312012265
:100813005EC70212012273C70212012240C80212EC
:100823000122ADC802120122F3C80212012294C9A7
:10083300021201229DCA0212012275CB0212012269
:10084300F8CB02120122B1CC021201223BCD0212DB
:1008530001223ECD0212012286CD02120122F4CDE5
:1008630002120122ACCE02120122CCCE02120122CC
:1008730010CF021201222CCF02120122A6CF0212A4
:100883000122B4CF0212012247D002120122B1D0B9
:100893000212012289B70312012205B803120122B1
:1008A30043B80312012227B90312012296B9031296
:1008B3000122DAB9031201221DBA031201224ABA34
:1008C3000312012268BA03120122A0BA0312012201
:1008D300DDBA03120122FEBA0312012274BB031212
:1008E3000122BEBB031201229D4C001201228B4E3A
:1008F30000120122685100120122B051001201229C
:10090300DB5100120122CF52001201220E530012BA
:1009130001227D5300120122905300120122D15370
:1009230000120122FE530012012247540012012239
:100933007C5400120122A75400120122F854001221
:1009430001225C55001201222858001201227D5910
:1009530000120122715A00120122955C0012012239
:10096300EA5C001201221762001201224A6200129D
:1009730001229062001201228B64001201225B6645
:10098300001201228B6700120122BA6700120122B2
:10099300E86800120122FA680012012269D60312E4
:1009A3000122DBD60312012231D70312012276D7AB
:1009B3000312012296D703120122E3D70312012265
:1009C3002BD80312012270D803120122C1D80312BB
:1009D3000122D4D0021201223DD10212012200D7FA
:1009E30002120122F5D7021201227FD9021201223B
:1009F30017DA021201227C2900120122C5290012F2
:100A03000122F22900120122242A00120122312A92
:100A1300001201223D2A001201224F2A0012012254
:100A2300162B00120122742B00120122A92B001293
:100A33000122E42C00120122312D00120122772D14
:100A430000120122E02D00120122952E0012012234
:100A53005E2F00120122B52F001201223A3000123C
:100A630001228C3000120122C231001201222F33E5
:100A730000120122F733001201221734001201225F
:100A83005734001201226734001201228B34001202
:100A930001228E34001201225D3500120122ED3550
:100AA30000120122733600120122003700120122C4
:100AB300273700120122783700120122D53700129E
:100AC3000122653800120122973800120122EC3806
:100AD30000120122913900120122113A001201225F
:100AE300B03A00120122283B00120122873B001278
:100AF3000122D23B00120122ED3B001201228F3C66
:100B030000120122B53E00120122FD3E0012012215
:100B1300443F00120122A94500120122434600125C
:100B23000122D74600120122EB470012012282481C
:100B330000120122A74800120122EE4800120122EE
:100B4300034900120122434900120122AA4900125B
:100B53000122E64900120122EC4A00120122A04BB5
:100B630000120122044C00120122524C00120122F5
:100B73006B4C0012012271E302120122BCE3021248
:100B83000122C8E30212012298E402120122C1E405
:100B930002120122F4E40212012260E50212012290
:100BA3009EE502120122D7E502120122EFE50212AD
:100BB300012248E60212012261E602120122A6E6A0
:100BC30002120122B9E602120122D3E60212012225
:100BD300E9E602120122F0E70212012211E90212F0
:100BE3000122FAE902120122E9EA02120122F37F49
:100BF30000120122A3A40312012214A8031201224A
:100C030042A903120122F69902120122E79C021261
:100C13000122ED9C021201229D9F0212012256A283
:100C230002120122FEB2031201228CB3031201222B
:100C33004EB40312012273B4031201224BB6031202
:100C4300012250B703120122F6A40112012229A5A1
:100C5300011201226EAF01120122B5B0011201226D
:100C6300D0B10112012212B30112012214B40112F4
:100C7300012262B4011201227CB401120122BEB42A
:100C830001120122C9B40112012212B5011201227B
:100C93001BB501120122C7B501120122A1B601122F
:100CA3000122EDB6011201224DB7011201229FB7B5
:100CB30001120122CDB7011201220BB80112012248
:100CC3003AB90112012220BD0112012226BD0112EF
:100CD300012296C30112012269C80112012283CCA9
:100CE300011201222DD303120122A3D303120122E5
:100CF300B9D30312012236D4031201226DD4031295
:100D03000122A7D403120122E1D40312012254D5F4
:100D1300031201228FD50312012298D50312012257
:100D2300A4D503120122BDD503120122E1D503127A
:100D33000122F6D5031201223AD603120122578E5D
:100D4300031201226A8E03120122848E03120122EE
:100D5300B18E03120122F78E031201222A8F03128E
:100D63000122678F03120122CD8F03120122E28F2A
:100D730003120122ED8F03120122FA8F03120122C3
:100D83001190031201221F90031201222E900312CD
:100D9300012243900312012258900312012263900F
:100DA300031201226F90031201227C90031201228D
:100DB3008F90031201229A9003120122C290031210
:100DC30001226691031201227B9103120122909169
:100DD30003120122AA9103120122CB9103120122D1
:100DE300E89103120122F39103120122A692031246
:100DF30001228E9303120122B59303120122C093A1
:100E030003120122D59303120122E9930312012253
:100E13004A9403120122509403120122569403129E
:100E230001225C9403120122749403120122A794F9
:100E330003120122E0B20212012202B302120122C2
:100E4300C7B30212012256B60212012275B702126B
:100E5300012291B8021201226BB90212012222BAB5
:100E63000212012205800212012293800212012242
:100E73002881021201220482021201223882021204
:100E830001224B8202120122C582021201224D84E9
:100E930002120122748402120122FB840212012233
:100EA3003A85021201224B8502120122C0850212E9
:100EB3000122DF8502120122F785021201223B87FC
:100EC30002120122458902120122778B02120122AA
:100ED3007D8C02120122C08C02120122FEEC01124F
:100EE300012211EE01120122F9EE0112012203EF98
:100EF3000112012225EF0112012231EF0112012219
:100F03007EF001120122ABF001120122CCF1011299
:100F130001220EF20112012243F30112012213F402
:100F23000112012262F401120122C3F4011201220F
:100F3300F8F40112012231F501120122DCF8011249
:100F43000122F3F80112012271F9011201227FF942
:100F530001120122C8F901120122D6F9011201225C
:100F630057FA01120122C6FA0112012212FB0112E1
:100F73000122B0DF03120122D5DF0312012246E072
:100F83000312012213F5021201221CF5021201229F
:100F930025F50212012249F6021201223AF8021241
:100FA300012268F80212012293F802120122C1F809
:100FB30002120122ECF8021201222AF90212012282
:100FC30056F90212012293F902120122BEF902120A
:100FD30001220AFA0212012261FA02120122A1FA83
:100FE30002120122F0FA021201221BFB0212012259
:100FF30061FB021201228FFB02120122BAFB0212D1
:101003000122DDFB0212012239EE0312012265EEF9
:1010130003120122BEEE03120122C8EE03120122C3
:10102300D8EE03120122B19F03120122EF9F031294
:10103300012276A0031201228BA003120122DAA05F
:101043000312012219A10312012228A10312012272
:1010530081A103120122D0A10312012227A20312AC
:1010630001223CA3031201222EA4031201226BA42A
:10107300031201225DF203120122176900120122F9
:101083007B6B00120122526C00120122C26D00120E
:1010930001221F6E00120122C16E00120122BC6FD9
:1010A30000120122397000120122C97000120122BC
:1010B300EE7000120122867300120122FA730012ED
:1010C3000122E674001201221C75001201225F75D1
:1010D30000120122E076001201220C770012012295
:1010E3004E77001201229777001201220378001233
:1010F30001222278001201223C78001201225A793F
:10110300001201226A7900120122ED7A00120122F3
:101113000B7B00120122417B00120122BD7C0012D5
:101123000122327D001201226F7D00120122A27E74
:10113300001201229CF103120122BBF103120122CE
:10114300C9F3031201226DF303120122ACF303125C
:101153000122B6F30312012281EF0312012291EF60
:1011630003120122A9EF0312012211F0031201223B
:101173006FEA03120122F2EA0312012258EB03126F
:101183000122E2EE03120122E5EE031201221EEF19
:10119300031201226EEF0312012247CC0312012234
:1011A3005BCC03120122D4CC03120122A8CD03127B
:1011B30001227ACF031201220D8D02120122968E93
:1011C30002120122DE8F02120122E18F021201229A
:1011D300E48F02120122909302120122F993021268
:1011E3000122AA9602120122DD9602120122009721
:1011F30002120122129702120122499802120122BD
:10120300F698021201222E9902120122CA990212A1
:10121300012267EC031201228AEC03120122B3ECD0
:1012230003120122C9EC031201220BED0312012266
:101233006C9A03120122769A03120122B69A0312C0
:101243000122FF9A03120122379B031201228D9B75
:1012530003120122AA9B03120122B39B0312012250
:10126300F89B03120122219C03120122369C0312D4
:101273000122A69C03120122339D03120122879DA2
:1012830003120122AA9D03120122299E03120122A5
:10129300649E03120122999E03120122AB9E031244
:1012A3000122CA9E03120122D39E03120122859FAB
:1012B30003120122BFE40312012210E503120122EB
:1012C30099E50312012203E60312012269FC0212CB
:1012D300012291FC0212012286FD02120122ABFDC2
:1012E3000212012245FE02120122D4FE0212012241
:1012F30071EB03120122BDF203120122B4DD0312CA
:101303000122EADD031201221DDE0312012276DF30
:1013130003120122B4F003120122CAF003120122C4
:10132300D4F0031201229EEC0212012258ED0212A4
:10133300012293ED02120122C4ED0212012234EEC6
:10134300021201228AEE02120122DEEE02120122B1
:10135300CBEF02120122C4F00212012245F2021263
:101363000122F9F20212012262F30212012275F341
:10137300021201225AF402120122B3F402120122D0
:1013830079C0031201228FC00312012233C1031259
:10139300012272C1031201228FC103120122C0C1B3
:1013A300031201220DC20312012240C203120122C1
:1013B3007BC20312012270C40312012211E3031240
:1013C30001225BE3031201226BE303120122C4E354
:1013D300031201221FE40312012268E40312012213
:1013E300D77E00120122487F00120122597F00128A
:1013F3000122A27F00120122D87F00120122DFCF37
:101403000312012239D0031201225DD003120122FB
:10141300B2D203120122CCD203120122F7D2031259
:1014230001221BF00312012230F00312012228F1E2
:101433000312012253F1031201227DF1031201224F
:101443007FF10312012281F10312012292F10312AF
:10145300012294F103120122FDF103120122DCFFA8
:101463000212012244870312012216880312012269
:101473000889031201221989031201222A890312FE
:1014830001227489031201222D8B03120122848C01
:1014930003120122B48C031201227E8D0312012256
:1014A300DE8D03120122CBFF01120122BEFF0212C5
:1014B300010002000000205104B4160001010203E0
:1014C3000109025400030100A019090400000103EB
:1014D300010100092111010001223F0007058103D9
:1014E30008000A0904010001030000000921110199
:1014F3000001226D00070582030C000A09040300A2
:101503000103010200092111010001223400070532
:1015130084030F000A0403090424035400650078BC
:101523000061007300200049006E007300740072B4
:101533000075006D0065006E00740073001E035596
:1015430000530042002000430043003200350034C2
:1015530000300020004800490044000803300030F8
:1015630000310005010906A1019508750105071958
:10157300E029E71500250181029501750881019590
:101583000575010508190129059102950175039156
:10159300019506750805071900296515002565815C
:1015A30000C0050C0901A1010902A10205091901E5
:1015B300290A1501250A750495018100C0050C0946
:1015C3008615FF250175029501814609E909EA158A
:1015D3000075019502810209E20930098309810935
:1015E300CD094009B209B309B409B509B609B7155C
:1015F30001250C7504950181000980A102050919D3
:101603000129031501250375028100C08103C0056B
:10161300010902A1010901A1000509190129031505
:101623000025017501950381027505950181010569
:10163300010930093109381581257F750895038122
:1016430006C0C02200000066153F0022000001A56D
:10165300156D00220000031216340021000000D68D
:1016630014090021000001EF140900210000030800
:10167300150900CD140000E6140000FF140000E07B
:1016830066701008A3E066700A08A3E06670040899
:10169300A3E06622C3E7960809E7960809E79608D8
:1016A30009E79622C3E09608A3E09608A3E096080C
:1016B300A3E09622C008C3E096F50808A3E096428B
:1016C3000808A3E096420808A3E09645087001D3F2
:1016D300D00822BB0102E722C082C08389828A83A9
:1016E300BB0003E08002E493D083D08222BB000ED0
:1016F300C082C0838A838982F0D083D08222BB01D7
:1017030001F722080808EAC0E0EBC0E086F0E7A48E
:10171300FA180986F0E7A42AFA180986F0E7A42A3A
:10172300FA180986F0E7A42AFA1986F0E7A4FBE57C
:10173300F02AFA190886F0E7A42BFBE5F03AFA1928
:101743000886F0E7A42BFBE5F03AFA18180986F0AF
:10175300E7A4C5F02BFBE43AFA1908E7C5F0C6A4E1
:1017630026F6E5F03BFBE43AFA1886F0E7A4F6E543
:10177300F00826F6E43B08F6E43A08F6D0E0FBD09E
:10178300E0FA22E4CFC0E0E4CEC0E0E4CDC0E0E480
:10179300CCC0E075F020E626F608E633F608E6331B
:1017A300F608E633F6181818EC33FCED33FDEE3388
:1017B300FEEF33FFC3EC9709ED9709EE9709EF9717
:1017C300191919400FFFEC97FC09ED97FD09EE97E6
:1017D300FE191906D5F0BFECF709EDF709EEF70985
:1017E300EFF7191919D0E0FCD0E0FDD0E0FED0E00E
:1017F300FF226016080808C6C313C618C613C61806
:10180300C613C618C613C6D5E0EA2270090808082D
:10181300226016181818C6C333C608C633C608C6CE
:1018230033C608C633C6D5E0EA22E627F60809E63A
:1018330037F60809E637F60809E637F622E026F612
:1018430008A3E036F608A3E036F608A3E036F6224E
:10185300E026F008A3E036F008A3E036F008A3E0A2
:1018630036F022C3E697F60809E697F60809E697E5
:10187300F60809E697F622C3E0C696F608A3E0C683
:1018830096F608A3E0C696F608A3E0C696F622C32A
:10189300E096F008A3E096F008A3E096F008A3E032
:1018A30096F022E657F60809E657F60809E657F6D2
:1018B3000809E657F622E056F608A3E056F608A311
:1018C300E056F608A3E056F622E056F008A3E056E9
:1018D300F008A3E056F008A3E056F022E066F6080D
:1018E300A3E066F608A3E066F608A3E066F622E046
:1018F300F608A3E0F608A3E0F608A3E0F622E6F074
:1019030008A3E6F008A3E6F008A3E6F022E0FAA3B2
:10191300E0FBA3E0FCA3E0FD22EAF0A3EBF0A3ECE1
:10192300F0A3EDF022E0FCA3E0FDA3E0FEA3E0FFC3
:1019330022ECF0A3EDF0A3EEF0A3EFF022E0F8A386
:10194300E0F9A3E0FAA3E0FB22E8F0A3E9F0A3EABD
:10195300F0A3EBF022CAC0E0E6F0A308DAFAD0E085
:10196300FA22CAC0E0E0A3C582CCC582C583CDC537
:1019730083F0A3C582CCC582C583CDC583DAE6D007
:10198300E0CA22C3E498F8E499F91219C78026C380
:10199300E49AFAE49BFBE920E7E91219C7E498F813
:1019A300E499F922C3E498F8E499F91219C7E49881
:1019B300F8E499F9C3E49AFAE49BFB22EB20E7CF1E
:1019C300E920E7E0B90010BB0008E88AF084F8AA30
:1019D300F022E4FBC8FA22EB70227B10C833C8C99B
:1019E30033C9335007C39AC3DBF280069A50012AE6
:1019F300DBEAC833F4C8C933F4C9FA2275F008E442
:101A0300C833C8C933C933C99AC99B5004C92AC941
:101A13003BD5F0ECFBC833F4C8E4C9FA22600D08E7
:101A2300C6A2E713C618C613C6D5E0F322600C0896
:101A3300C6C313C618C613C6D5E0F42270042260C9
:101A43000D18C6C333C608C633C6D5E0F41822251D
:101A53001810AF08F518400C15198008F518400246
:101A63001519D2AF2200C0D0251810AF08F51850B1
:101A73000C05198008F51850020519D2AFD0D022F1
:101A83002518F58210AF08F518400C15198008F5D4
:101A93001840021519D2AF851983222518F582E45F
:101AA3003519F583222518F8E43519F9222518FA92
:101AB300E43519FB222518FCE43519FD22E47325CE
:101AC30018C582C0E0E51934FFC583C0E0E518C33B
:101AD300958224F810AF08858319858218800885BC
:101AE3008319858218D2AFCEF0A3E520F0A378083E
:101AF300E608F0A3DEFAEFF0A3E58124FAF8E6089E
:101B0300F0A3E608F0A3E608F0A30808E608F0A3AC
:101B1300E608F0A315811581D0E0FED0E0F8158129
:101B230015811581E8C0E0EEC0E0222518C582C00A
:101B3300E0E51934FFC583C0E0E518C3958224F9B5
:101B430010AF0885831985821880088583198582DB
:101B530018D2AFCEF0A3E520F0A37808E608F0A3EF
:101B6300DEFAEFF0A3E58124FBF8E608F0A3E6082C
:101B7300F0A30808E608F0A3E608F0A31581158191
:101B8300D0E0FED0E0F815811581E8C0E0EEC0E0BA
:101B930022851983851882E0A3FEE0A3F520780847
:101BA300E0A3F608DFFAE0A3FFE0A3C0E0E0A3C0F0
:101BB300E0E0A3C0E0E0A3C0E0E0A3C0E010AF0812
:101BC3008582188583198008858218858319D2AF89
:101BD300D083D08202011F851983851882E0A3FE7A
:101BE300E0A3F5207808E0A3F608DFFAE0A3FFE01E
:101BF300A3C0E0E0A3C0E0E0A3C0E0E0A3C0E01026
:101C0300AF08858218858319800885821885831912
:101C1300D2AFD083D08222C0D02518C582C0E0E5E0
:101C23001934FFC583C0E0E518C3958224F310AFD0
:101C3300088583198582188008858319858218D2BF
:101C4300AFC8F0A3E9F0A3EAF0A3EBF0A37908E7A8
:101C530009F0A3D8FAECF0A3EDF0A3EEF0A3EFF0B4
:101C6300A3D0E0F0A3D0E0F0A3D0E0F0A3E520F010
:101C7300A3E5F0F0A322851983851882E0C0E0A3D1
:101C8300E0F9A3E0FAA3E0FBA37808E0F608A3DFFA
:101C9300FAE0FCA3E0FDA3E0FEA3E0FFA3E0C0E0C5
:101CA300A3E0C0E0A3E0F5D0A3E0F520A3E0A3F513
:101CB300F010AF08858319858218800885831985FC
:101CC3008218D2AFD082D083D0E0F8D0E03274044F
:101CD300800A74038006740280027401C0E0F40475
:101CE300121A83D0E01219582274048008740380F6
:101CF3000474028000CCC0E0EDC0E0E518C39CCCC6
:101D0300AD1950011D10AF068C188D1980068C1863
:101D13008D19D2AF121965D0E0FDD0E0FC22D0833B
:101D2300D082E9C0E0E493A3C386F0C5F095F0F94F
:101D330008E493A386F0C5F095F0700BE493A3C376
:101D4300994005E9048002A3E475F002A42582F515
:101D530082E5F03583F583D0E0F9E493A3C0E0E4B2
:101D630093C0E022D083D082ECC0E0EDC0E0E493E6
:101D7300A3FCE493A3FDED4C600D121DB3EC24FF13
:101D8300FCED34FFFD80EFE493A3FCE493A3FDEDAE
:101D93004C600D121DF2EC24FFFCED34FFFD80EFCF
:101DA300D0E0FDD0E0FCE493A3C0E0E493C0E022E4
:101DB300C0E0C3E49396087401939618400FE4932C
:101DC30066700808740193661870007019A3A3C3A2
:101DD300E49396087401939618A3A3400DD0E0D022
:101DE300E0D0E0021DA3A3A3A3A3A3A3D0E022C03A
:101DF300E0C0F088F0E493667008087401936618F5
:101E03007000A8F0A3A3700BD0F0D0E0D0E0D0E036
:0A1E1300021DA3A3A3D0F0D0E0222B
:101E200074F6121B2EEAFEEBFF8C088D09EA2434AF
:101E3000F8E43FF9E8FCE9FD121F4EE0FAEE243722
:101E4000F582E43FF583E0F88508F0A4C885F00A40
:101E50008509F0A4250AF9EA28F8E439F97A257BFE
:101E6000001219C7EA8C828D83F0F9131313541FE3
:101E7000FAEE2AFAE43FFBEA245DF582E43BF583BF
:101E8000E0C0E0740759F8D0E0B800028004C31342
:101E9000D8FCA2E04021EE2436F582E43FF583E051
:101EA000F5F0E984A8F0EE28F8E43FF9E82438F5E5
:101EB00082E439F583E0F97F03021BDA74F5121B23
:101EC0002EEAFEEBFFEA2434F582E43FF583E0C01E
:101ED000E0121F4ED0E0F08A828B83A3A3A3A3A3BA
:101EE000E0FAA3E0FB8E828F83A3A3A3A3A3A3A303
:101EF000E0C39AF508A3E09BF509EE2480F8E43FDF
:101F0000880AF50B8882F583E06401702CEE248149
:101F1000F582E43FF583EA2401F8E43BF9E06870D8
:101F200003A3E06970137CB87D06EEFAEFFB120A9A
:101F3000F8850A82850B83E4F0AC08AD09EEFAEF70
:101F4000FB121E20E9F91228267F04021BDAEA247C
:101F500035F582E43FF58322C082C08385188285EF
:101F60001983E0F8A3E0F9C3EA9CEB9D5010C3ECA1
:101F700098ED99401BC3EA98EB995014800EC3EA80
:101F800098EB994007C3EC98ED99400479018002E1
:101F90007900D083D08222EAC39CFAEB9DFB2274A5
:101FA000ED121B2E900352E064086005E064077098
:101FB0002C9061C8E06026900380E0F874FF6860B0
:101FC0001CE875F012A4C8AAF02AF9748228FE74DD
:101FD0000339FF8E82F583A3A3A3E0700579000285
:101FE0002184EE2468F50EE43FF50F906060E085F3
:101FF0000E82850F83F075105375110775080075F3
:102000000900E5D914F50AE5D95403F50B6044EE4F
:102010002484F50CE43FF50D7403650B6025E50A97
:10202000600CEE2467F582E43FF583E060259007BD
:102030004EE06401603E850C82850D83E06020786F
:1020400004801E850C82850D83E0603BE50AC39405
:10205000055034793DEEFAEFFB120B2E021FDD78AE
:1020600000E50AC398FA95E0FB1208FA8A088B0982
:10207000EA4B7006120E16021FDD850C82850D8359
:10208000E070048A108B1178008014E5D9C0E0E874
:10209000FAE5102AF582E43511F583D0E0F008E87E
:1020A000C3950A40E6850C82850D83E0602874FCA8
:1020B000250AF50A7810121CD9AC0AA90BEEFAEF22
:1020C000FB120BE87402121A68E9700AAA08AB093D
:1020D0001212BA0220537403650B6055E50AF50C21
:1020E000750D00780C121CD9AC10AD11AA08AB0903
:1020F000120BAC7402121A68850E82850F83E0F809
:102100007480687005750C7F8002880CE50CF50DF5
:10211000780D121CDD780B121CDDA90AAC08AD0984
:10212000900380E0FA7B001207447402121A688060
:102130004E851082851183E0F8C3940E500F74AD64
:1021400028F582E4348EF583E0650A6016EE24F902
:10215000F582E43FF583E8F07907EEFAEFFB120A27
:10216000E6801C900352E06408AC10AD117009EEDB
:10217000FAEFFB120C188007EEFAEFFB120CD212EA
:102180000E2279017F0C021BDA74F1121B2E74FCF3
:10219000121A52EAFEEBFF8909750C00A2AFE43374
:1021A000F508C2AF9006C0E0FA9061D0E0F8748004
:1021B00098F895E0F9C3EA98E499A2D265D0335033
:1021C00015750C018010AA0AAB0B120B641212BA1F
:1021D0009006BFE004F0EE2463F50AE43FF50B85BA
:1021E0000A82F583E0F8A3E0F9E849602DE82402CB
:1021F000FAE439FBEA2402F50EE43BF50F780E12FF
:102200001CD98A828B83E0FCA3E0F9EEFAEFFB1283
:102210000B587402121A68E960AC9061D0E0F8744F
:1022200080C3989006C0F0E50C60539006BFE06054
:102230004D9006C1E0F89006BFE0C398500C7402C0
:102240006509703A9006C2E060348E828F83A3A342
:10225000A3A3E085188285198312228E7402121AB4
:102260009EE812228E9006BEE028F07402121AB880
:10227000AA18AB1979011207A49006BFE4F0E5088B
:10228000A2E092AF7404121A687F08021BDAF0A36E
:10229000E4F09006BFE0F8228521878522C622C09F
:1022A000E074EB121C1AA2AFE433F508C2AF759BC1
:1022B00000906182E0A2E0502DE591A2E0502775E8
:1022C00091FE74016521701E12241612242D121C19
:1022D000EC1225D57404121A68E9640170057901BD
:1022E000120D7A121F9F906182E0A2E5505AE5918B
:1022F000A2E550547591DF900352E064076005E059
:102300006408702C12241674016521703B12242D70
:10231000121CEC1225D57404121A68E964017005C8
:102320007901120D7A7901EEFAEFFB1221898018FA
:10233000E0640D7013900374E004F064287002E40C
:10234000F07A00E0F9120E28906182E0A2E64003E4
:102350000223EBE591A2E640030223EB7591BF90C7
:102360000352E064057008120D14120D2080031250
:102370000D1A752100120D98E9900353F07900129F
:102380000D7A120A1A7A017B00900351E0F91212B9
:102390008A907803E064427052900752E014F07023
:1023A0004AC2AF1223A600782AD0E0F618D0E0F691
:1023B000E59F540770047BFF80027B7FC4C0E078F8
:1023C00029E6F50A08E65BF50B740B780A121A3059
:1023D000D0E0250AF8906270E0A2E740F8E8C33345
:1023E000906272F0906270E0D2E0F0906181E0A2C1
:1023F000E35009E5E9A2E3500375E9F7A3E0A2E79A
:102400005009E591A2E7500375917FE508A2E0929B
:10241000AF7F08021C79900380E0F875F012A4C821
:10242000AAF02AF9748228FE740339FF22120D2CB7
:102430008E828F83E0F8A3E0C82416F582E438F595
:102440008322C0E0C0D0C082C083906183E0A2E05C
:102450005009E5BFA2E0500375BFFEE0A2E15009BC
:10246000E5BFA2E1500375BFFDE0A2E25009E5BF60
:10247000A2E2500375BFFBE0A2E35009E5BFA2E36F
:10248000500375BFF7E0A2E45009E5BFA2E4500392
:1024900075BFEFE0A2E55009E5BFA2E5500375BFA7
:1024A000DFE0A2E65009E5BFA2E6500375BFBFD04A
:1024B00083D082D0D0D0E032C0E074F2121C1AE592
:1024C000A7A2E4500FE5A1A2E4500953A7EF75A11C
:1024D000EF12250CE5A7A2E5500CE5A1A2E55006F8
:1024E00053A7DF75A1DFE5A7A2E15009E5A1A2E1AD
:1024F000500375A1FDE5A7A2E2500CE5A1A2E250B0
:102500000653A7FB75A1FB7F01021C7974F8121B0F
:102510002E752101900352E0640670077A007B005B
:10252000120CFCA2AFE433FED2AF900358E064017A
:1025300070187A207B00900351E0F91213A47A20DE
:102540007B00900351E0F9121290906182E0D2E694
:10255000F090074FE0602185C6228016900357E077
:1025600064017008E5C654F84405F5C653BEFC1274
:1025700022987401652160E4EEA2E092AF7F01022F
:102580001BDA00008E238F248582288583278518F7
:1025900082851983E0CEA3E0CF852882852783EB4F
:1025A000C9EAC8EDCBECCA75F010C3E833C8E9330B
:1025B000C9EA33CAEB33CBC3EA9EF526EB9FF52578
:1025C000B35004AB25AA26EC33CCED33CDD5F0DAED
:1025D000AE23AF242274F1121B2E8A088B098C0AB9
:1025E0008D0B908F3A78081218B9740F121A9E78D2
:1025F0000C1218F2908F3A780C1218B97808790CEE
:10260000121697908F1E50107808790C1218667861
:10261000081216B74014800E780C790812186678E4
:102620000C1216B750047901800279007F08021B52
:10263000DA74ED121B2E8A088B098C0A8D0B908F91
:102640003A78081218B97413121A9E780C1218F2FC
:10265000908F3A780C1218B9780C790812169740B6
:10266000117808790C121866AA08AB09AC0AAD0BF0
:102670008022751000751100751200751301781015
:10268000790C1218667810790812182DAA10AB115F
:10269000AC12AD137F0C021BDA908F3A7808121837
:1026A000F28A828B8378081218CC7F04021BDA74BA
:1026B000F5121B2E8C828D8378081218F28A828B79
:1026C000837808121892122703C3E098F0A3E099C8
:1026D0001226F5401E908F5A78081218F28A828BC3
:1026E0008378081218538E828F83E02420F0A3E0B1
:1026F000344EF080A4F08E828F83C3E09420A3E058
:10270000944E22EA2404F8E43BF9E8FEE9FF8C82C7
:102710008D83A3A3A3A3E0F8A3E0F98E828F832285
:1027200074F5121B2E9006DBE0FAA3E0FBE929F812
:10273000E433F9747D28F582748E39F583E02AF547
:1027400008A3E03BF5097808121CD9908F421219B2
:10275000101225847402121A688A088B098C0A8D5B
:102760000B741078081217F5AA08AB097F04021B36
:10277000DA74F1121B2E8A0C8B0D8C0E8D0F7411D6
:10278000121A9E121CF47411121A9EE02401F5080C
:10279000A3E03400F509E4F50AF50B780C7908128A
:1027A0001706908F2A78081218F2780C79081217F9
:1027B00006AA0CAB0DAC0EAD0F1225847402121AD2
:1027C00068EA4B60047A0180027A00EC2AFCE43D5E
:1027D000FD7413121A9EE0F8A3E0F9E8FEE9FFEC9D
:1027E000F8EDF97A717B021219C788088909E4F5B6
:1027F0000AF50B8E828F837808121901ECF8EDF937
:102800007A717B021219C78A088B0974057808123D
:102810001A3F8E828F83A3A3A3A3E508F0A3E50943
:10282000F07F08021BDAC082C083E9906000F0D01C
:1028300083D08222C0E074F2121C1AA2AFE433FEED
:10284000D2AFE58AA2E25007900E28E0D2E0F0E590
:102850008AA2E35007900E28E0D2E1F0758A00C208
:10286000EB7A107B00900E24E0F912128AEEA2E0BF
:1028700092AF7F01021C79C0E0C0D0E8C0E0A8A8F8
:10288000D2AFC2C7E8A2E792AFD0E0F8D0D0D0E094
:1028900032C2AF02000022C0E074F1121C1AA2AFD3
:1028A000E433FCD2AF7480659E70FA90620F7403BB
:1028B000F0E0A2E750FB906206E0FA74065A700658
:1028C000E58BA2E55042EAA2E25033901B39E0F8D2
:1028D000A3E0E890620B12296874047808121A3099
:1028E000E50890620712296874097808121A30E521
:1028F00008543E906209F0906201E0D2E0F0EAD222
:10290000E1FA901B3BE48016EAA2E0501290620FBD
:10291000E0C2E1F0E0A2E740FB901B3B7401F090C5
:102920006202E0F8906204E0F9E8F50875090074C5
:10293000047808121A3FEA4508FAAB09E9F5087568
:10294000090074097808121A3FEAF8EB4509F99072
:102950001B37E048F0A3E049F0758B00C2E8ECA219
:10296000E092AF7F02021C79F0901B39E0F508A3DA
:10297000E0F50922FFFFFFFFFFFFFFFFC082C083DA
:102980009061907404F0A37448F0A3E4F090618027
:102990007440F09061BC7407F09061877469F090A6
:1029A00061B67416F07900120A207902120A269094
:1029B0002974E493F46006E493F91209FC79051292
:1029C0000E0A023033C082C083E9540FF99061854A
:1029D000E0696012E5C654B84441F5C6E59E544727
:1029E000644170F8E9F053C6B8E59E544770FA02A6
:1029F000303374F7121AC2AEA853A87E120A08C266
:102A0000BA539AFEC289759B00C2C2120A0E75A9FA
:102A10001175B905120A14D2BA439A0174805E4244
:102A2000A8023892C082C083906181E4F0A3022F93
:102A30005875E90075910075BF0002011FC082C082
:102A400083906181E4F0A374C0F0A3E4022F5AC024
:102A500082C08374F8121A52900354124C437003CC
:102A6000022AF8900354E0544060177908AA18AB82
:102A700019120B82AA18AB1912072C900354E054B8
:102A8000BFF0E054806010790C7A737B07120B82E0
:102A9000900354E0547FF0E0A2E050087900122B3C
:102AA0000054FEF0E0540260087901122B0054FD3E
:102AB000F0E0540460087900122B0B54FBF0E05452
:102AC0000860087901122B0B54F7F0E054106008ED
:102AD0007902122B0B54EFF0E054206008790312B6
:102AE0002B0B54DFF0A3E05401600D120A321207E1
:102AF0003E900355E054FEF07408121A6802303319
:102B0000120A20120732900354E022120A261207FA
:102B100038900354E022C082C083E9600514602A23
:102B2000804F90619A7433F0A37455F09061A07453
:102B30003AF090074DE064017009C2919003567419
:102B400067802D9003567461802690619A743FF0DF
:102B5000A3745AF09061A0747FF090074DE0640177
:102B60007009D29190035674718005900356746A6F
:102B7000F0023033C082C083E9600B14600D146032
:102B80001714600C80209029788015902979801086
:102B900090074DE06401700590297A800390297BAD
:102BA000E493906186F002303374EC121AC274F42C
:102BB000121A52908EEAAC18AD197404121965906D
:102BC000297893F46003022CCB907808E0C3940238
:102BD0005003022CAF908ECA7404121AB8740812F3
:102BE00019657F00750CFF750DFF750EFF7E00EFF8
:102BF000FC25E0F8E433F97404121A9EE58228F506
:102C000082E583123E7BF512A3E0F513800F740872
:102C10006E605B74096E6056740A6E6051EEF50862
:102C200075090074027808121A3F122CD51218F296
:102C3000A909E50AC9F510741878081217F5E51006
:102C40004508F8C3E51298E51399400AE512C398C0
:102C5000F8E513998008E8C39512F8E99513F9C3CC
:102C6000E8950CE9950D5006880C890D8E0E0EEE38
:102C7000C39413409974FF650C700474FF650D6074
:102C800024E50EF50874027808121A3F122CD512AA
:102C900018F2851882851983E5822CF582E4358344
:102CA000F583E508F00FEFC394045003022BE4759D
:102CB00008017509007808121CD97402121AB87A32
:102CC0005E7B0A1211767402121A68740C121A686A
:102CD0007F0C021B9474482508F58274783509F539
:102CE00083780822C082C083906186E0F890297BB7
:102CF000E49368700990297AE493906186F090617A
:102D0000AE7468F0A3746AF090624574FBF0A3049B
:102D1000F053F4FD43FE0290074D7401F09061A062
:102D2000E0643A7004790080027901120A200230CE
:102D300033C082C08390072BE06401701390073189
:102D4000E0F87401686027E87006A3E06401601E83
:102D5000900742E064017008900748E06401600E4B
:102D60009006D5E06401700A9006DAE06004790C00
:102D700080027900023033C082C08375E1F1900691
:102D8000D8E0604914600914604D14604514704C1B
:102D9000120A449006C7E0F97AC87B06120D5C90CF
:102DA0008EEE121910123171121910120D68900660
:102DB000D9E0F9120D747901120DFE9006C512309A
:102DC000807474F0A3740AF07900023033120A4A56
:102DD00080C1120A5080BC120A5680B7791280EA6C
:102DE00074F4121AC275D90D9006CEE0A2E0E43355
:102DF0001313F8122EFF484401F5D97800122F0959
:102E000040FB7800E8FA74CF12383B3406122F13D7
:102E100040F275E1959006CEE0F97ACF7B06120D6F
:102E200062901C0674D2F0A37409122F1E123199FD
:102E300074F0F0A374091231AC9006D8E0640190EC
:102E400006C5700B122E831218F2908EF6800912AE
:102E50002E831218F2908EFA7808121840908F3A4A
:102E600078081218B99006C512340D122F4F780841
:102E70001219019006C512317E741312302B7402A0
:102E8000F0800D124508A3A37808227404121A6872
:102E90007F04021B94C082C083122EF5FA8AD9786F
:102EA00000E8FC74C82C122F0E40F67800800DE864
:102EB000FC74DF2CF582E4340612354EE8C39940E9
:102EC000EE123019122F0940FB78008008123837B3
:102ED000340612354EE8C39940F375E195901C060F
:102EE00074DEF0A37409122F1E122F2874121230F0
:102EF0002B740180659006DEE0F9740729F5D990FE
:102F000006C7E0C4333354C022E8FA74C82AF582F5
:102F1000E43406F583E0F5D908E8C39406221233B9
:102F20001374D8F0A374092212319FF0A374F0F047
:102F3000A374091231B09006C5123411122F4F74C8
:102F4000FFF0A3F0A3F0A3F09006C5123182222473
:102F50000EF582E438F58322F0A3F0023033C0820C
:102F6000C083122EF54402F5D97800122F0940FBD8
:102F70007800800CE8FA74DF12383B340612354EC4
:102F8000E8C39940EF75E195901C06122F9FF0A3BE
:102F9000122F9F122F2B741412302B740480BB74C9
:102FA000EA122FAC122FACF0A3740922F0A374091B
:102FB000F0A374EA22C082C083122EF5FA74064A86
:102FC000F5D97800E8FC74C82C122F0E40F6780072
:102FD000800DE8FC74DF2CF582E4340612354EE8EF
:102FE000C39940EE123019122F0940FB7800800877
:102FF000123837340612354EE8C39940F375E1951F
:10300000901C0674E4F0A3740912330C122F287478
:103010001512302B7403022F5A9006FEE0F9740744
:1030200029F5D974044AF5D9780022F09003522288
:10303000123178D083D08202011FC082C0839007F2
:10304000357425F09007337401F0A3E4F07A01FBA6
:10305000120D869007211230807480F0A3740AF05C
:10306000900732E064017016900731E0701079012A
:10307000120DE6120DB6120DE07900120DF280B3BA
:10308000123411241AF582E438F58322C082C083F9
:1030900074FA121A5290072AE064017008120A5C4E
:1030A00090072AE4F075E1F190072112340D241500
:1030B000F582E438F5837401F090072CE064017028
:1030C00046908ED2AC18AD19740612196575D90DDB
:1030D000900723122F024403F5D97800E8FA7424EC
:1030E00012383B3407122F1340F27800E8FA8518A3
:1030F00082851983E58212383B3583122F1340EC09
:1031000075E195790180027900120D8C901C06748E
:1031100024F0A3740CF0A3742AF0A3740C12319061
:103120001231901231991231A5F0A37430F0A374CA
:103130000C1231AC900723E0F97A247B07120D5C66
:103140009007351231787901120D92908EEE121996
:1031500010123171121910120D687900120DFE90C3
:10316000072112317E741612302B7405F004022AE6
:10317000FA120DAA908F5222E0F91228262212315B
:103180008222E0F8A3E0C82414F582E438F5832213
:10319000F0A37424F0A3740C2212319FF0A3221226
:1031A00031A322F0A374EEF0A3740B221231B022EB
:1031B000F0901C141231A51233171231A51231A34D
:1031C000F02274F7121AC28908A808E9124627905B
:1031D000073AE0F97A3B7B07120D5C900748E070F4
:1031E000257900120DC8EE2407FAEF3401FBEE2416
:1031F0000DF582EF3401F583E070047900800279E7
:1032000001120D6280057901120DC875E1F175D9C1
:103210002390073A122F024405F5D97800E8FA7492
:103220003B12383B3407122F1340F275D90075D981
:103230000075D90075D90075D90075D9007A0012CA
:103240003302242212366D40F67A0012330224260D
:103250001232F1940340F4EE242B123662242C1225
:103260003662242D123662242E123662242F123634
:1032700062243012366224311236622432123662EF
:10328000243312364C123302245D1232F19405407D
:10329000F4EE2437123884541FF8EE242A123884AE
:1032A000C43354E048F5D975E195901C0674F4F0E8
:1032B000A3740BF0A374FAF0A3740B12330CF0A3F5
:1032C0007400F0A3740C1231AC900747123178905F
:1032D0008EEE121910123171121910120D689060D1
:1032E0000DE4F07901120DFE9003527406F00238DD
:1032F000921232F522F582E439F583E0F5D90AEA33
:10330000C322EAF8EE28F8E43FF9E8221233131258
:1033100031A5221233172212332474EEF0A3740B5A
:1033200012332422F0A374EEF0A3740BF0A32274E2
:10333000EC121AC290073812463D78101218F2901B
:103340000749E0FAF875F012A4C8ACF02CF912475E
:10335000CFEE2EFEEF33FF8E0CF50D750E00750FC0
:103360000085100885110985120A85130B908EFAC5
:1033700078081218407808121CD1851008851109A8
:1033800085120A85130B7808790C12182D7810799C
:103390000C121786E4F50EF50F7808790C121866F2
:1033A0008A0C750D007403780C121A3F7808790C9A
:1033B00012182D908F3A78081218B9AA08AB09ACE8
:1033C0000AAD0B1226317404121A688A088B09A8F8
:1033D00008A909C3EE98EF995006EA2EF8EB3FF9D9
:1033E000E890600EF0E9A3F0EEA3F0EFA3F0906098
:1033F0000D74C1F0022CD0C082C0839006C5123477
:103400000D123481022F58851882851983123411C8
:1034100022E0F8A3E0C82274F7121AC290038012C7
:1034200047DF748228F8740339F9E82405FAE4398F
:10343000124ADDA3A3A3A3A3A3A3A3A3ECF0A3ED2C
:10344000123F38A3E024FFF8A3E034FFF98A828B0F
:103450008312457F023892C082C0839007211234C4
:1034600077900735023030C082C08390073812341D
:1034700077900747023030123411123481F0A3F0F4
:10348000222406F582E438F583E42202011F74F257
:10349000121AC2123555F8EA2484F50AE43FF50BF6
:1034A000850A82F583E060047A1280027A0E123B6C
:1034B0001E407F75080C900753E4F0EE2477123815
:1034C00084900754F07902EE2478FCE43FFD7A55AD
:1034D0007B07120B707902EE247A123539247C12A4
:1034E0003539247EFCE43FFD120B70EE2475123555
:1034F000CC850A82850B83E0601675085375090731
:103500007808121CD97C0C124B94121A687508109A
:1035100074012508F5D975D9037800800312354464
:10352000E8C3950840F775E1957904120DB079016B
:10353000800279007F06021B94FCE43FFD120B70B1
:103540007902EE22E8FA74532AF582E43407F5830F
:10355000E0F5D90822EAFEEBFF1239872274F21255
:103560001AC21239FD60047A0E80027A0A123B1EDA
:103570004055750A089007537401F079057CB87DB1
:10358000067A547B07120B70EE24811235CC850825
:1035900082850983E060167508537509077808125B
:1035A0001CD97C08124B94121A68750A0C123949FE
:1035B0008003123544E8C3950A40F775E195790414
:1035C000120DB0790180027900023534FCE43FFD30
:1035D0008E828F83A3A3A3A3A31246D18C828D8353
:1035E000E028F0A3E039F07902120B702274F71290
:1035F0001AC2EAFEEBFF9061D0E0704B75D91875E6
:10360000D90375D9037A00123658249D1236FA4030
:10361000F6EE24A512366224A612364C1236582431
:10362000951236FA40F67A00123658248912366D11
:1036300040F675E1957908EE24951236F324891247
:1036400036EB12384380027900023892F582E43F6B
:10365000F583E0F5D97A0022EAF8EE28F8E43BF9A0
:10366000E822F582E43FF583E0F5D9EE221232F547
:1036700094042274F7121AC2EAFEEBFF9061D0E0C4
:10368000706475D90E75D90375D9047A001236584D
:10369000248D1236FA40F67A0012365824851236F6
:1036A0006D40F675E1957908EE248D1236F3248588
:1036B0001236EB7C00ECF8C3E498FA95E0FBEE2AB6
:1036C000FAEF3BFBEA248C123EF5C0E012330424EF
:1036D000ACF582E439F583D0E0F00CECC3940840FB
:1036E000D412384880027900023892FAE43FFB1283
:1036F0000B76221236EB7904EE221232F594082270
:10370000C082C08375D90275D90375D90575E19555
:10371000EA246FF582E43B1246CBEA2471F582E499
:103720003B12385B02303374F6121AC2EAFEEBFF2A
:1037300090075374061237CB121CD97C01790312FF
:103740004B9A121A6875D90675D90378001237B6E4
:1037500040FB75E195900352E064087016EE246F0B
:10376000F582E43F1246CBEE2471F582E43FF58307
:1037700012457F7901023A9074F6121AC2EAFEEB02
:10378000FF9061D0E0702A900753740A1237CB1271
:103790001CD97C017903124B9A121A6875D90675E7
:1037A000D90378001237B640FB75E195123848808E
:1037B000027900023A90E8FA74532AF582E4340759
:1037C000F583E0F5D908E8C3940522F07508537530
:1037D000090778082274F6121AC2EAFEEBFF90611C
:1037E000D0E0704E7801900753740B12302BE064D8
:1037F0000770177508537509077808121CD97C01E2
:103800007903124B9A121A687805740128F5D97554
:10381000D9037900800FE9FA745312383B3407F565
:1038200083E0F5D909E9C39840EC75E19512384871
:1038300080027900023A90E8FA74FF2AF582E422C5
:1038400075E1957904120DB0EE246FF582E43FF531
:10385000831246D1EE2471F582E43FF583E8F0A3AC
:10386000E9F079012274F7121AC2EAFEEBFF75D96A
:103870000375D90375D90DEA24DF123884F5D912FE
:103880003840800EF582E43FF583E022A2E092AF5B
:1038900079007F01021B9474F5121AC212396F600D
:1038A00004780F8002780BEAC398123B21403675EA
:1038B0000A099007537408F0F91239556014750815
:1038C000537509077808121CD9124B92121A6875A1
:1038D0000A0D1239498003123544E8C3950A40F7AE
:1038E000123840800279007F03021B9474F5121A8B
:1038F000C212396F6004780F8002780BEAC3981205
:103900003B214041750A099007537409F079081268
:10391000395560147508537509077808121CD912B7
:103920004B92121A68750A0D1239498003123544F8
:10393000E8C3950A40F775E1957904120DB0123A83
:1039400095790180027900809E7401250AF5D97568
:10395000D903780022EE24E6FCE43FFD7A547B078D
:1039600012396422120B70850882850983E02212C5
:103970003983FAEE2484F8E43F8808F5098882F553
:1039800083E022EAFEEBFF9061D0E0F87480C398F8
:103990002274F2121AC21239FD60047A0C80027A83
:1039A00008123B1E4052750A06900753740CF090A3
:1039B000036FE0900754F079027C707D037A557BA9
:1039C00007120B7079027C727D03123964601675E0
:1039D00008537509077808121CD97C06124B9412FB
:1039E0001A68750A0A1239498003123544E8C395EA
:1039F0000A40F712384080027900023534123983C8
:103A0000F8EA2484F508E43FF509850882F583E0A7
:103A10002274F6121AC2123555FAEE2484F8E43FE5
:103A2000F98882F583E060047C0880027C04EAC3A4
:103A30009C123B2140587A02900753EAF0EE24F89A
:103A4000F582E43F123AA3601975085375090778A7
:103A500008121CD97C027903EEFA124B9A121A68EA
:103A60007A0674012AF5D975D90378008008E8FC34
:103A700074532C123549E8C39A40F375E195123A14
:103A8000957904120DB0EE240D12384B80027900A6
:103A90007F02021B94EE241DF582E43FF583E4F0DF
:103AA000A3F022F583E0900754F088828983E02216
:103AB00074F6121AC2123559FCEA2484F8E43BF970
:103AC0008882F583E060047E0880027E04ECC39E59
:103AD000123B2140447C029007537407F0EA24F91A
:103AE000F582E43B123AA36015750853750907780F
:103AF00008121CD97903124B9A121A687C067401B9
:103B00002CF5D975D90378008003123544E8C39C9D
:103B100040F875E195790180027900023A90E8C396
:103B20009A95E0C365D0332274F7121AC28908A2AD
:103B3000AFE433FFC2AF7E00EA246EF8E43BF980C5
:103B4000010E88828983E0FCEEC39C5018EEFCEAEB
:103B50002CFCE43BFDEC246AF582E43DF583E06552
:103B60000870DE8010EA2CFAE43BFB123B7DE5088E
:103B7000123AA904F0EFA2E092AF023892EA246A66
:103B8000F582E43BF58322C082C083A2AFE433FD1B
:103B9000C2AFEA246E123EF514F07C00ECF8EA1293
:103BA000365B246B123E78C0E0E8246AF582E43983
:103BB000F583D0E0F00CECC3940340E0EA246DF50B
:103BC00082E43BF58374FF123EA4EDA2E092AF02C3
:103BD0003033C082C083A2AFE433F8C2AF123B7D62
:103BE000E9123E97E070037401F0E880DE74F01291
:103BF0001AC28C828D83A3A3A3A3E0541FF0EA24EE
:103C0000361249878882F583E4F0750C00E50CF5DF
:103C10000AEC250AF8E43D8808F5098882F583E076
:103C2000C0E0EA250AF8E43BF9E8245DF582E439CE
:103C3000F583D0E0F0750A00850882850983E0F5F8
:103C40000E750F00E50A780E121A20E50EA2E0505C
:103C500027E50C33333354F8250AC0E08E828F8376
:103C6000E0F8EA12365B2438F582E439F583D0E0D7
:103C7000F08E828F83E004F0050AE50AC3940840C1
:103C8000B7050CE50CC3940540837F08021B9474B0
:103C9000F7121AC290037EE064037003023E5A7C5E
:103CA00000ECF875F012A4C8AAF02AF9747E28F87E
:103CB000740339F9E82406123E786003023E50E8A6
:103CC0002404FAE439FB7401124BF1A3A3A3E4F03A
:103CD000EA2404F8E43BF9EC88828983F0EA246260
:103CE000F582E43BF5837401F0EA2467F582E43B56
:103CF000F5837401123E80E4F0A3123E80A3A31268
:103D00003E92240FF582E43BF5837401F0EA2435FA
:103D1000123E682418123E61123E92241C123E6824
:103D2000241D123E8B2480123E682474123E6824A7
:103D300083123E682468F582E43BF5837480123E6A
:103D400097E4F0EA24EE123E6824EF123E6824F075
:103D5000123E6824F1123E6824F2123E8B24F412C3
:103D60003E8B24F7123EAC124B88E4F0EA24D412C6
:103D70003E6824D5123E6824D6123E61123E92243B
:103D8000DA123E61123E9224E0123E6824E2123EB4
:103D90006824DE123E6824E3123E6824E4123E6882
:103DA00024FA123E8B24FC123E8B24FE123E8B24FE
:103DB00000F582EB3401123E8F240D123E6D240774
:103DC000123E6D2408123E6D2409123E6D240A1223
:103DD0003E6D240B123E6D240C123E6D123B7E7420
:103DE000FF7C04F0A3DCFC7C00ECFE74B82EF582B2
:103DF000E43406F583E0C0E0EA2EFEE43BFFEE2467
:103E00005DF582E43FF583D0E0F00CECC39405400F
:103E1000D87C00ECFE74662EF582E43403F583E072
:103E2000C0E0EA2EFEE43BFFEE24E6F582E43FF537
:103E300083D0E0F00CECC3940840D890037EE004FB
:103E4000F06401701988828983E0900380F0800E0D
:103E50000CECC394035003023CA17A007B000238AF
:103E600092123EACA3F0A322123EACEA22F582EB02
:103E70003401F583E4F0EA22F582E439F583E022A7
:103E8000F08A828B83A3A3A3A3A322F582E43BF54C
:103E900083E4F0A3F0EA22123EA4EA246EF582E461
:103EA0003BF58322F0EA2469123EAC22F582E43B22
:103EB000F583E4F022C082C083EA2403123EF56059
:103EC00008E4F090037FE014F090037EE014F070BB
:103ED0000690038074FFF08A828B83A3A3E4F090A2
:103EE00006BDE0700D90037FE0640170057900125B
:103EF0000D7A023033F582E43BF583E022C082C0C4
:103F0000837A00EAF875F012A4C8ABF02BF9747E3E
:103F100028F874031248E4A3A3A3A3E4123F38F0E3
:103F20000AEAC3940340DC90037EE4F0A3F0A37498
:103F3000FFF075E1F1023033F088828983A3A3A3F7
:103F4000A3A3A32274E8121AC274E4121A528518A9
:103F500082851983124589F58388821246CD88822D
:103F6000F583A3A31219287412121A9E1219348809
:103F7000828983A3A3A3A3A3A31246CD7416121A06
:103F80009E124594240B124ACD7410121A9E1245AB
:103F900094240D124ACD740E121A9E1245942407D1
:103FA000124ACD7404121A9E12457F7434121A9E5E
:103FB000121CEC7416121A9E121910124621121AB3
:103FC00068E96003024493124539121CEC743812FC
:103FD0001A9E1219101226317404121A688A088B5C
:103FE000098C0A8D0B851882851983E02405124AF5
:103FF000CD740A121A9E12457F740A121A9E124537
:1040000074851882851983E02474124ACD740812CD
:104010001A9E12457F7408121A9E12451EF88518C2
:1040200082851983E0242EFCA3E03400FD74021283
:104030001A9EECF0A3EDF0E8700302434585188268
:10404000851983E0F9A3E0C92475123E78C39AF577
:104050000CA3E09BF50D851882851983E02410FAE6
:10406000A3E03401FB740C121A9EEAF0A3EBF07487
:1040700002687004740C80027402121A9E12452F9A
:10408000850C14850D15751600751700E4F512F5ED
:1040900013781479101217067418121A9E781412D5
:1040A000190112453978101218F27418121A9E78F4
:1040B000101218407810121CD17438121A9E12195E
:1040C00010124621121A68E97003024317851882FC
:1040D000851983E0247A124ACD7406121A9E12457D
:1040E0007F7406121A9E12452FE4F512F513741808
:1040F000121A9E780812187A7808791012182D90E2
:104100008F5A7808121840851014851115851216DB
:1041100085131778087914121786850814850915F0
:10412000850A16850B1778147910121706E50C25E9
:1041300008FEE50D3509FF740A121A9E1245273F45
:10414000F97404121A9E12457C7418121A9EC082C9
:10415000C0831234072478F582E438F583E0F50C47
:10416000A3E0F50DE4F50EF50FD083D082780C12A4
:104170001840780C791412182D7408121A9E1245E2
:104180001E64016003024387851882851983E02439
:1041900077F510A3E03400F511AC10FD8518828589
:1041A0001983124996120B46851882851983E024DB
:1041B0007CF508A3E03400F509850882F5831249EF
:1041C000961234072420F582E438F583124589C815
:1041D000241CF582E438F583E4124585F8A3E0C891
:1041E000241DF582E438F583E4F0A3F07404121A78
:1041F0009E124574740E121A9E12451E2AFAA3E0EE
:104200003BFB7410121A9E124504EAF0A3EB124510
:1042100085247EF516A3E03400F517851682F58314
:10422000E0F514A3E0F5157406121A9E12451EFC63
:10423000A3E0FD851882851983E02430F512A3E000
:104240003400F513851882851983E02432F50AA31A
:10425000E03400F50B7402121A9E12451E6C7003B6
:10426000A3E06D701D850A82850B83E065147004E0
:10427000A3E06515700C1244F4E0687003A3E069D4
:10428000603274047814121A307814121CD985081C
:1042900082850983121CF4EDC313FDEC13FC740436
:1042A000121A9E12463DA3A3E0FA7B0012079874EF
:1042B00004121A687402121A9E124574740C121AAF
:1042C0009E124515851082851183E0C0E0123407E7
:1042D000242BF582E438F583D0E0F07406121A9EA0
:1042E0001245747402121A9E1245151244F41245B6
:1042F0007F8516828517831246CD850A82850B83BA
:10430000124594FAA3E0FB120B4C7408121A9E1289
:1043100045047402F080707402121A9E12455C12F9
:10432000182D908F5A780812184085120E85130F99
:104330007808790C121786AE08AF09740A121A9E13
:1043400012452780287402121A9E12455C12182DFD
:10435000908F5A780812184085120E85130F78082E
:10436000790C121786AE08AF09EA2EF8EB3FF97404
:1043700004121A9E12457C8E0C8F0DE4F50EF50F7B
:10438000780C791012170612454FE8FAE98882F581
:1043900083A3A3A3A3A3A3A3A3850C08850D0985C9
:1043A0000E0A850F0B78081218407412121A9E78A4
:1043B000081219018A828983E06440707012340700
:1043C0002418F582E438F583780C121901851882D7
:1043D000851983E02412F508A3E03400F509780874
:1043E000121CD97402121A9E12340D2410F582E4A4
:1043F00038F583121CF4EE24FFF50AEF34FFF50BB9
:10440000780A121CD97408121A9E12451EF50AA3C6
:10441000E0AA0AFBE4FCFD1227717406121A68ACCC
:1044200008AD097412121AB01226AF800974161260
:104430001A9EE4F0A3F012454F8882F583A3A3E807
:104440002408FCE439FD74061219657412121A9ED0
:10445000C082C08385188285198312451E2402FC00
:10446000A3E03400FDD083D08274061219651234A3
:10447000072435F582E438F583E0C0E012340724E0
:1044800034F582E438F583D0E0124585FAA3E0FBE9
:10449000121EBC7410121A9E124504C082C083748E
:1044A00004121A9E124555D083D082E0C398FAA315
:1044B000E099FB851882851983E0240EF8A3E03487
:1044C00001F98882F583EAF0A3EBF0740E121A9ECC
:1044D000E0FCA3E0F5838C82C3E09AA3E09B500A42
:1044E000888289837401F0A3E4F0741C121A687F37
:1044F00010021B948508828509831246D185128299
:10450000851383221245082212450C22E0F8A3E00D
:10451000F583888222124508EAF0A3EBF0221245C7
:10452000222212450CE0221245222EF8A3E022128C
:104530004522F510A3E0F511228518828519831212
:104540004522F8A3E0C82408F582E438F5832285E3
:1045500018828519831245081246D122124522F588
:104560000CA3E0F50D850C10F511E4F512F51378A8
:1045700008791022124522FAA3E0FB22124BE0E850
:10458000F0A3E9F02212459C22EAF0A3EB12459C2D
:10459000F8A3E022E8F0A3E912459C221245A1E02D
:1045A00022F08518828519832274F0121AC27508C8
:1045B00000750900750A00A80AE81246278E82F5E0
:1045C00083A3A3A3E06042120D2C8A0C8B0D8C0EEA
:1045D0008D0F780C121CD1EEFAEFFB120B10740445
:1045E000121A68E5084509601B850882850983124F
:1045F000463D121CEC124639121910124621121AAD
:1046000068E97005EF8E08F509050AE50AC3940309
:1046100040A5850882850983A3A3A3A3E0F9023CF2
:104620008A1225D574042275F012A4C8AAF02AF9BA
:10463000748228FE740339FF228E828F831245080C
:10464000A3A32274F7121AC278FF79FF7E00EEFC52
:1046500075F012A4CCAFF02FFD74822CFC74033DD6
:10466000FD8C82F583A3A3A3E0603CEC2474F58267
:10467000E43DF583E0FF74FF68700374FF69700523
:10468000EF700D8018EF600DEC247A1246BC5017C5
:10469000EC247A800BEC242E1246BC500AEC242E1B
:1046A000F582E43D1246CB0EEEC3940340A0C3EA6C
:1046B00098EB994004E8FAE9FB023892F582E43D70
:1046C000F583C3E098A3E099228882F5831246D14E
:1046D00022E0F8A3E0F92274F0121AC28C088D09C6
:1046E000890EEA2AF50AEB33850A0CF50D90037F53
:1046F000E0F8E9C39850117AFF7BFF120B1C8A0A7D
:104700008B0BAE0AAF0B8010E96009A31247DF12D2
:1047100047CF8004AE0CAF0D90037FE0F50F8E0AFB
:104720008F0B7403780A121A30A80FC3E50A98E5B4
:104730000B940050030247BD850C0A850D0BE5085C
:1047400025E0F508E50933F509AC0AAD0B8007EC67
:104750002402FCE43DFDC3E5089CE5099D404CC3F3
:10476000EC9EED9F402FECF8EDF9EEFAEFFB1219FD
:10477000C78A0C8B0DA80CA90DEA496006EEFAEF6A
:10478000FB80047A007B00EC98FCED99FDEC2AFCA0
:10479000ED3BFD8016E50EC3950F500FEEF8EFF9D7
:1047A000ECFAEDFB1219C7EA4B70A4C3EC950AEDC5
:1047B000950B4009C3E5089CE5099D50067AFF7BEF
:1047C000FF8009ECFAEDC313FBEA13FA023C8A748A
:1047D000B028F582740339F583E0FEA3E0FF22E000
:1047E000F875F012A4C8AAF02AF92274F4121AC2B9
:1047F00074FC121A52EAFEEBFF9006BFE0F8900636
:10480000BEE028F0EA2463F508E43FF5098016AA23
:1048100008AB09120B641212BA9006BEE004F090C5
:1048200006BFE004F0850882850983124C4370DFDF
:104830009006BFE060358E828F83A3A3A3A3E0859B
:104840001882851983F0A3E4F09006BFE0F87402A3
:10485000121A9EE8F0A3E4F07402121AB8AA18AB78
:104860001979011207A49006BFE4F09006C0748085
:10487000F0EEFAEFFB120B04EEFAEFFB120C6C02F7
:104880002E8B74F7121AC2EAFEEBFF8A82F583A31D
:10489000A3A3A3E0FA7B00120774EEFAEFFB120B5E
:1048A00028120C4E023892C082C0837A00EAF87552
:1048B000F012A4C8ABF02BF9748228F874031248E4
:1048C000E4E06014E8246E123E78600CE8246A127A
:1048D0003E787004790180090AEAC3940340CE79D6
:1048E0000002303339F98882F583A3A3A322C08262
:1048F000C083E49003667808F0A3D8FC90036604B4
:10490000022F5AC082C08374FC121A528518828505
:104910001983E4F0A3F0A3F0A3F0120B7CE985184F
:1049200082851983F0120B7C7401121A9EE9F01231
:104930000B7C7402121A9EE91245A112191074041C
:10494000022AFA74F6121AC2EA240D124987EC24DC
:1049500003F8E43D8808F509EC2407F8E43DF9E89C
:10496000FCE9FD1246C91249901219C78E828F8345
:10497000E8F0A3E9124C491249901219C7EA4B60BA
:104980000312499C023A90F8E43BF9E8FEE9FF2261
:10499000850882850983E0FAA3E0FB228E828F835B
:1049A000E02401F0A3E03400F02274F6121AC2EA07
:1049B000242E123EF5FCA3E0FDEA246F124987780D
:1049C0000079FAECFAEDFB1219C78E828F8312453B
:1049D0007F780079FAECFAEDFB1219C7EA4B600315
:1049E00012499C023A9074F4121AC2EAFEEBFF12CA
:1049F0000D2C8A088B098C0A8D0B908EFE7808127C
:104A00001840908F3A78081218B97808121CD11201
:104A10004639121910124621121A68E96003024A37
:104A2000C88E828F83E02402124ACDE8FA740C12F9
:104A30001A9E78081218F28A82898378081218530D
:104A4000908F3A78081218F28A82898378081218AF
:104A5000CCEE240BF582E43FF583C082C0838E82C6
:104A60008F83A3A3A3A3A3E02401124ACDD083D0B4
:104A700082E0687003A3E06970047901804CEE2441
:104A800007F8E43FF98882F5831249A0EE247412F6
:104A9000388464017014EE2475124AD47003A3E0C4
:104AA0006D70078A828B831249A0EE2480123884AD
:104AB00064017014EE2481124AD47003A3E06D7077
:104AC000078A828B831249A07900022E90F8A3E016
:104AD0003400F922FAE43F124ADDE06C22FB8A82BC
:104AE000F583E0FCA3E0FD888289832274F4121A26
:104AF000C28908ECFEEA2462123EF56401600302FA
:104B00004B839061D0E0F8124B88E0FF6005750A96
:104B1000048003750A007480C398FC95E0FDEE25BF
:104B20000AF8E43400F9E82402F8500109C3EC98CB
:104B3000ED99A2D265D0334046740C121A9EE0F56E
:104B40000AA3E0F50BEF6013780A121CD9EEFCA95A
:104B500008124B9A121A6874042EFE74012EF5D9AD
:104B60008508D97800800CE8FAE50A12383B350B45
:104B700012354EE8C39E40EF75E1957900800679C5
:104B800007800279FF022E90EA2484F582E43BF547
:104B900083227C097903EEFAEFFB120BE274022206
:104BA00074F7121AC2A2AFE433F508C2AFEA2402C6
:104BB000F8E43BF98A828B83E0FEA3E0FFEE4F60CE
:104BC0000988828983124BE080048A828B83ECF00F
:104BD000A3EDF088828983124BF7F0E50802388C48
:104BE000E0FAA3E0F5838A82228C828D83E8F0A329
:104BF000E9F08A828B8322ECF0A3EDF08C828D8326
:104C0000E4F0A32274F7121AC2EAFCEBFD7A007BEF
:104C100000A2AFE433FEC2AF8C828D83124C43609E
:104C20001EE8FAE9FB1246C9124BE9E4F0A3124C64
:104C300049E849700A8C828D83A3A3E4F0A3F0EEC7
:104C4000023B761246D1E84922F08C828D831246CF
:104C5000D122C082C0838003124C80E9F874FF28FF
:104C6000F90470F4ECFAEDFB023033C082C08380AB
:104C700003124C80E9F874FF28F90470F402303311
:104C80008C828D83E08A828B83F08C828D83A3ACAF
:104C900082AD838A828B83A3AA82AB832274F612AD
:104CA0001AC2E9900351F0120D3E907800E0C4540E
:104CB0000F540764037004793F8002797F750806FA
:104CC0007509007808121CD97C3F7D037AEA7B07BE
:104CD0001211707402121A6890033FE0F47049A335
:104CE000E0F47044A3E0F4703FA3E0F4703AA3E072
:104CF000F47035A3E0F4703090780EE090033FF04C
:104D000090780FE0900340F0907810E0900341F02D
:104D1000907811E0900342F0907812E0900343F015
:104D2000907813E0900344F0900345124E79126797
:104D30004E90036F7409F0A3740D1258187450F05C
:104D4000A37401F09006C8124E799006C7E4F09063
:104D500006D5F0A374A01258187403F0A3740712B8
:104D60005818742812581804F0A3E4F09006FEF0C6
:104D7000900724124E79900723E4F090072A04123A
:104D80005818124E67E4F0A304F0A31258181258F2
:104D900016F090073B124E7990073AE4F0900741E5
:104DA00004F0A3E4124E67125816F0A37405F090B5
:104DB000074B74FFF0A3E4F090074DF090074F0409
:104DC000F09007507490F0A37401F0120A2C1209AD
:104DD00000120CE479017A527B07120B8290075281
:104DE000E075F01484E5F004F0790C7A737B071217
:104DF0000B82120BA012596D907803E0644270523E
:104E0000900752E014F0704AC2AF124E0D00782A9B
:104E1000D0E0F618D0E0F6E59F540770047BFF80E1
:104E2000027B7FC4C0E07829E6F50808E65BF50957
:104E3000740B7808121A30D0E02508F8906270E000
:104E4000A2E740F8E8C333906272F0906270E0D25B
:104E5000E0F090037CE4F0A3F07A80FB900351E053
:104E6000F912128A025823124E70124E70F0A322C9
:104E7000F0A37480F0A3740222124E80F0A3F022FB
:104E800074FFF0A3F0A3F0A3F0A32274F4121AC2EB
:104E9000EAFEEBFFEAA2E05039900353E0C39480AE
:104EA000E0500F25E0F8E433F9740628F582741C0D
:104EB000800EF425E0F8E433F9741428F582741CAC
:104EC00039F583125C47121AC012596DEE64010263
:104ED00050EB54086046900749125150750800780D
:104EE00008121CDD125125121A307808121CD91232
:104EF00050F93BF583121CF4125136121CD9125191
:104F000000121CD9EA240DF582EB1268C0FD7C006A
:104F100012510D121A68EE64080250EBEA54106048
:104F2000357508007808121CDDE4F5097808121CB4
:104F3000D97808121CD97808121CD97808121CD903
:104F40007D007C007A007B00790212511F121A68E2
:104F5000EE64100250EBEA540260357508007808E0
:104F6000121CDDE4F5097808121CD97808121CD946
:104F70007808121CD97808121CD97D007C017A00AF
:104F80007B00793C12511F121A68EE64020250EB4A
:104F9000EA5404604E900380125150EA242A1254BD
:104FA0009FF5087808121CDD125125121A30780876
:104FB000121CD9EA2420F582E43BF583121CF4127A
:104FC0005136121CD9125100121CD9EA240DF58257
:104FD000EB1268C0FD7C0112510D121A68EE6404D8
:104FE0000250EBEA544060357508007808121CDD69
:104FF000E4F5097808121CD97808121CD97808122F
:105000001CD97808121CD97D007C017A007B0079BC
:105010003B12511F121A68EE64400250EBEA5480B2
:105020006030900750125810496021790012131A0D
:10503000900750125C4F7808121CD17A007B0190C7
:105040000351E0F91213987404121A68EE64800296
:1050500050EBEB5401600D790112131AEEFAEF6474
:10506000010250EDEB5402600AC2AF75C9AB75C9BD
:105070005B80FEEB5404600A122891EEFAEF6404A0
:10508000806B900358E064017066EA542060619080
:105090000352E014601514601214600F14600C14B5
:1050A000601524FE6027146024803D7900120948B1
:1050B00079011209488031900732E0FA790012092B
:1050C00054900732E0FA7901120954801B793F901D
:1050D0000380E0FA75F012A4CAA8F028FB74822AB3
:1050E000FA74033BFB120B2EEE6420FAEFFB8004F4
:1050F0007A007B007F04021B94EA2430F582E422CC
:10510000EA2407F508EB3401F5097808228A828B36
:1051100083A3A3A3A3E0FA7B00790012511F2212FC
:10512000076E740922EA2432F582E43BF583125CAF
:10513000587404780822EA242EF582E43BF583E0D3
:10514000F508A3E0C313F509E50813F5087808226C
:10515000E0F875F012A4C8AAF012515D222AF97481
:105160008228FA740339FB2274F6121AC2EA540F29
:1051700060047901800279008A088B097404780838
:10518000121A30E50829F508750900740478081228
:105190001A3FE5082408FAE43509FB1251D16009E9
:1051A000EA2404FAE439FB80047A007B00025823E5
:1051B00074F6121AC2EA2405FA50010B1251D1609A
:1051C00009EA2405FAE439FB80047A007B000258DE
:1051D000231212B48B09A909EA4922C082C083C2F2
:1051E000AF120D1A1252C2E5E170FC75E101120A0C
:1051F0000275E1F1120D561209F67907120DF879D0
:1052000001120DFE7902120D80120DB6120DE07919
:1052100000120DF27901120DF2908F521219101234
:105220000D689006D5E4F0A3F0A3F09006D97407BA
:10523000F09006D87403F09006DEE4F09006DDF0FE
:105240009006FEF090072BF0900742F0120B0A1226
:105250000C48120B3A7900120E049006B8124E80D8
:10526000741FF0906012E4F0A374FFF0906063E4A8
:10527000F0752100900352F09006BDF09006BE74C8
:105280000CF09006BFE4F09006C07480F09006C168
:105290007401F09006C2E4F09006C304F09006C4D6
:1052A000E4F0900354F0A3F0900357F090035804F7
:1052B000F090036E7403F090074EE4F0D2AFF90261
:1052C00062897A017B00900351E0F912129022C0AA
:1052D00082C08390033F125476125A6B8A828B836A
:1052E000A3125A658A828B83A3A3125A5F8A828B88
:1052F00083A3A3A3125A598A828B83A3A3A3A3F0E7
:10530000900344125476A3A3A3A3A3026286C0828F
:10531000C083900352E064066019E064016014E009
:105320006402600FE06403600AE064046005E06406
:10533000057004790C80328A828B83E090034512D9
:10534000536CE090034612536CA3E0900347125352
:105350006CA3A3E0900348125373E09003491253E7
:1053600073A3E090034AF07900026289F08A828B8D
:1053700083A322F08A828B83A3A3A3A322C082C02B
:1053800083120A38E9F97005120DB67900026289B4
:1053900074F7121AC2EAFEEBFF8908120A38E9F91B
:1053A000702CE508600A74016508600A7912801E95
:1053B0007C00790080047C007901EEFAEFFB120D8D
:1053C000BCE9F87403687004790780027900025917
:1053D0007874F6121AC2EA4B600EEC4D600A740A39
:1053E000121A9E12665370047912800F7808121CEC
:1053F000D9120B9A7402121A68790002582374F4B5
:10540000121AC2EAFEEBFF8908900352E0640960B9
:1054100014E0640A600FE0640B600AE0640C60054D
:10542000E0640D7004790C801B120C72EA4B700B57
:10543000A908EEFAEFFB120B828009900354E044B6
:1054400040F0790D0250F474F6121AC2EAFEEBFF36
:105450008909EA4F6003E970047912801675080023
:10546000120B7C126474E9F00508E508C395094045
:10547000EF7900025823E08A828B8322C082C083A6
:10548000E9F8740168700B90074E7401F07900021E
:105490006289E9700690074EE480F1791280F0F598
:1054A00082E43BF583E02274F6121AC2EAFEEBFFB7
:1054B0008C088D09900352E0640C700590618E8019
:1054C00012126616702F12661C74EA2EF58274038F
:1054D0003FF583E0F8748068700A85088285098347
:1054E000747F800E900356E0F9E8C39985088285A1
:1054F0000983F0790002582374F7121AC2EAFEEB0E
:10550000FF89087405696022741369601D74146949
:1055100060187415696013741A69600E74296960E3
:1055200009743B6960047912802F126616702A1282
:105530005CE5246A12549F64027004793A801A125E
:105540005CDBE508F0EA241DF582E43BF583E4F03A
:10555000A3F07902120AF2790002597874E8121A5B
:10556000C274FF121A52E9851882851983F08A08DD
:105570008B098C0A8D0BEC4D6016E0C3941C501007
:105580007419121A9EE0F50C600B7401650C60052D
:1055900079120258061266166003025806A808E837
:1055A00075F012A4C8AAF02AFA75F012E509A42A27
:1055B000F9748228FE740339FF9006BEE070057905
:1055C00007025806E50A24FEF50AE50B34FFF50B41
:1055D000851882851983E0850A82850B83F0E50CA6
:1055E0007004740280027401A3F0E50A24FEFCE555
:1055F0000B34FFFDEE2463FAE43FFB120B5EA8A818
:10560000C2AF9006BEE014F0E8A2E792AF9003525A
:10561000E064086008E064076003025804900380B7
:10562000E06508450960030258047900EEFAEFFBD3
:105630001221899061D0E070030258049006C3E003
:1056400064016003025804EE241DF582E43FF583F3
:10565000125810497003025804A2AFE4338518822F
:10566000851983F0C2AF120D328A088B09120D32F0
:10567000EA65087003EB650970030257F9120C72B2
:105680008A148B15125C26E5142402F516E43515F0
:10569000F5178A088B098C0A8D0B908F36780812C3
:1056A00018407808121CD1851682851783121910AC
:1056B00012664D121A68E9640160030257F9EE247C
:1056C0002EF508E43FF509850882F583E0240612EB
:1056D0006448780C791012182D780C121CD185169C
:1056E0008285178312191012664D121A68E9640137
:1056F00060030257F9E5142408F50AE43515F50BA3
:10570000850A82F583121CECAA0CAB0DAC0EAD0F12
:10571000126647121A68850882850983121CF412E2
:1057200025847402121A688A0C8B0D8C0E8D0F74EE
:1057300010780C1217F58D118E828F83A3A3A3A36B
:10574000A3A3A3A3A312581E8E828F83A3A3A3A3F4
:10575000A3126211E82CF8E93511F98E828F83A328
:10576000A3A3A3A3A3A312621185088285098312B0
:1057700061CAE4850A82850B838C088D09F50AF5D8
:105780000B7808790C1217067808121840908F3A97
:1057900078081218B98516828517837808121901BE
:1057A0007808790C12182D908F26780812184090DE
:1057B0008F3A78081218B9E514241612641F780875
:1057C000121901851482851583A3A3A3A3A3A3E4BF
:1057D000F0A3F0EE2435F582E43FF583E0C0E0EE7F
:1057E0002434F582E43FF583D0E0F0EEFAEFFB12CB
:1057F0001EBCAA14AB15120C54851882851983E0BF
:10580000A2E092AF79007401121A687F10021B9413
:10581000125C71F9E8227425F0A3E4F0A322125C73
:1058200071F9227F02021B9474F4121AC2E9FF90EC
:105830000352E064097003025923E0640A70030212
:105840005923E0640B7003025923E0640C700302D7
:105850005923E0640D70030259239006D8E0F960E3
:10586000177401696012740369600D74026960083D
:10587000740469600302595C9006C7E0F86008741C
:105880000168600302595C74036960057402697001
:10589000109006D6C3E09420A3E094005003025970
:1058A0005CEF607914600302595C9006D5E06401F6
:1058B0006071E9600A740169600574046970081216
:1058C0000C7EE954FD705C7901120C669006C512DD
:1058D0005C8F9006D57401F0900352E0703A120D7F
:1058E0002C8A088B098C0A8D0B908F067808121869
:1058F00040908F3A78081218B99006C5125C41782A
:10590000081219019006C5125C60120A3EE9600592
:10591000125960800E120C4E79000250F49006D598
:10592000E07004792180F3A2AFE433FEC2AF1259D4
:1059300060120C8AE9701E125C36E5E170FC75E1BC
:10594000017591BF75E1F1900358E0640170031295
:105950005C7612596DEEA2E092AF80BC791280BAEB
:105960007AC57B06120C6C9006D5E4F0227A009082
:105970000351E0F9121320227F01021B9474F712E5
:105980001AC2E9FF600574016F70327409121A9E21
:10599000E0FE600574016E7024125C1D501FEC2443
:1059A000FCF8ED125C225015C3EA9CEB9D400E748E
:1059B0000A121A9EE0F8600A740168600579120202
:1059C0005A5690072BE064017005790C025A56EF85
:1059D000A3F0E8900731F0EE9007237027E4F090F1
:1059E000033FE0900724125A6B900725125A6590E6
:1059F0000726125A5F900727125A59900728F090ED
:105A00000344802E7401F0900345E0900724F09049
:105A10000346E0900725F0900347E0900726F090BA
:105A20000348E0900727F0900349E0900728F090A2
:105A3000034AE0900729F090072D125C8FA3ECF049
:105A4000A3EDF0E8700479008007740168700579AF
:105A500001120DC27900025978F0900343E022F060
:105A6000900342E022F0900341E022F0900340E0F6
:105A70002274F0121AC2E9FEEAFF900352E06409B0
:105A80007003025B7BE0640A7003025B7BE0640BE3
:105A90007003025B7BE0640C7003025B7BE0640DCF
:105AA0007003025B7B90072CE0F86008740168606B
:105AB00003025C18900723E0F86008740168600333
:105AC000025C1890072D126442125C1D4003025CB8
:105AD00018A312581024FCFCE934FFFDC3EC94FD1C
:105AE000ED943F4003025C18C3EA98EB995003021F
:105AF0005C18EF600874016F6003025C18EE60755B
:105B0000146003025C1890072BE06401606D790259
:105B1000120C66900721125C8F90072B7401F09095
:105B2000072AF0EF900732F0900352E07042120A19
:105B300062125C26908F02780C121840908F3A788F
