:020000040000FA
:060000000201070229CAFB
:03002B00022DEEB5
:03003B00022E088A
:03004300022DC8C3
:03005300022A403E
:10008300022827E5C754F84401F5C7790122000087
:100093000080FB120086B900030200F1E4792178A5
:1000A30008B800028004F709D8FCE479297802B87B
:1000B30000028004F709D8FCE49002817832791AAF
:1000C3008002F0A3D8FCD9FA7AB27B1B900137786F
:1000D3003179028015E493A3AD82AE838A828B8348
:1000E300F0A3AA82AB838D828E83D8E9D9E7758288
:1000F300B97583DC740412011975829175830074D8
:100103000012011975D00075813F751881751902A8
:10011300759F00020096C09FF59FE473D09F22D085
:1001230083D082C09FE493C0E0740193C0E0740263
:1001330093F59F22590465049B049504FF0000B4C2
:10014300000028002800283075A000A000A000A00F
:100153000000080008E001F000100010001000107B
:10016300001000100050005000500010001000D08C
:10017300070000000000000F0001000500307507B4
:10018300001000010081FF00000000FFFFFFF105E8
:100193000F06F7055106FF02020208025000A000F5
:1001A3000000E8030264830100005583026C8301AD
:1001B3000000151C026E83010000C802026C83015B
:1001C3000000161C026A83010000DE02026C830138
:1001D3000000171C025E83010000E002026C830131
:1001E3000000181C02A282080000E102026C8301D5
:1001F3000000191C0258830100001A1CFFFF0100B4
:10020300FF200264830100005283026C830100001B
:100213007F1C025A830000000000025C830300007D
:100223001103170001110111011101110111011134
:1002330001110111011101110111011101114113E9
:100243005F133B13851497147F14544920424C4584
:1002530020416C6C00000000000000000000001151
:1002630000FFFF0012012202C20412012215C20480
:1002730012012273C20412012294C204120122F356
:10028300C20412012232C30412012253C304120115
:100293002274C304120122C2C30412012201C40442
:1002A30012012293C404120122CFC404120122F8C2
:1002B300C4041201223CBB041201224FBB041201ED
:1002C300227EBB04120122B6BB04120122FFBB042F
:1002D30012012242BC0412012288BC04120122BB77
:1002E300BC04120122E2BC0412012211BD0412015A
:1002F3002248BD0412012261BD04120122B0BD04D3
:10030300120122C9BD0412012211BE0412012245A9
:10031300BE04120122B2A403120122B0A5031201EA
:1003230022EBA50312012230A6031201225BA603CE
:100333001201227EA60312012280A603120122AA21
:10034300A603120122ADA603120122EBA60312019A
:100353002221A703120122B0A7031201221AA80324
:10036300120122DAA803120122F6A8031201222B9A
:10037300A90312012266A90312012202AA03120190
:100383002239AA031201226AAA031201226DAA03C7
:10039300120122B2AA03120122BFAA03120122D719
:1003A300AA0312012247AB031201224AAB03120133
:1003B3002257AB031201225AAB03120122A4AB034F
:1003C300120122A7AB03120122D3AB03120122E6CF
:1003D300AB031201222CAC031201222FAC03120136
:1003E3002244AC0312012247AC03120122A9AC033D
:1003F300120122ACAC031201221FAD03120122220F
:10040300AD031201229CAD03120122A8AD03120118
:1004130022DBAD03120122E8AD03120122EBAD038F
:100423001201223AAE0312012247AE031201224403
:10043300AF03120122E8AF0312012254B0031201E9
:100443002290B003120122A3D8031201227BD90305
:10045300120122A9D9031201223FDA0312012280D9
:10046300DA03120122E8DA0312012276DB03120116
:10047300222BDC031201222ADF0312012295E0035F
:10048300120122B5E00312012277A3041201221301
:10049300A50412012233A50412012253A60412015A
:1004A300229CA604120122E18A04120122098B0470
:1004B300120122368B041201226E8B04120122D404
:1004C3008B041201222E8D04120122788D04120155
:1004D30022DC8D04120122248E04120122618E0477
:1004E3001201228F8E04120122248F041201222E64
:1004F3008F041201223B8F041201226E8F0412011A
:10050300227A8F04120122928F041201229C8F04FB
:10051300120122D6D904120122E4D904120122FCC9
:10052300D90412012214DA041201222BDA04120173
:10053300228FBB0212012232BC021201224BBD02E6
:10054300120122C3BD02120122EABE0212012223BA
:10055300BF02120122B8BF0212012250C0021201CF
:10056300223DC102120122E6C1021201224EC20241
:10057300120122D6C302120122BEC402120122B505
:10058300C502120122EBC5021201228DC60212011D
:1005930022B3C6021201227FC802120122CAC80274
:1005A300120122ECC80212012258C90212012223AD
:1005B300CA02120122DDCA02120122E9CC0212018F
:1005C30022F3CC02120122B6B00312012292B1032C
:1005D3001201223CB20312012276B203120122104D
:1005E300B30312012229B30312012243B3031201FD
:1005F30022CAB30312012245B40312012218B50320
:1006030012012241B50312012235B60312012272EF
:10061300B60312012228B7031201228CB703120179
:1006230022F6B70312012223B80312012288B8036A
:1006330012012241BA0312012272BA031201229853
:10064300BA03120122E0D1041201225FD204120183
:10065300228AD2041201229AD304120122E0AF04A7
:10066300120122F6AF0412012214B0041201222453
:10067300B1041201222EB10412012258B204120154
:100683002245B304120122B1B304120122BBB30405
:10069300120122FAF80312012227FA031201225E41
:1006A300FA03120122B5FA03120122ADFC0312016F
:1006B30022E1D3011201228ED4011201229ED40120
:1006C300120122EBD40112012274D501120122225C
:1006D300D60112012257D6011201228CD601120132
:1006E30022A3D6011201221CD70112012226D7010F
:1006F30012012238D7011201226CD701120122B351
:10070300D701120122F5D7011201224ED80112019D
:100713002259D80112012264D8011201227DD90184
:1007230012012280D90112012283D90112012286EA
:10073300D90112012289D90112012255DA011201CC
:100743002216DB011201225DDB01120122C1DB0152
:1007530012012230DC011201223DDD01120122F5DA
:10076300DD01120122F6E001120122B5E2011201BC
:100773002257E30112012223E40112012248E70177
:10078300120122F6E7011201222FE901120122ECE4
:10079300EA0112012280EB01120122C8EB011201CE
:1007A3002207EC01120122F0EC0112012224ED01D7
:1007B300120122ACED01120122D6A9021201225D1F
:1007C300AA02120122B1AB02120122BDAB02120135
:1007D3002235AC0212012216AD0212012212AE0220
:1007E300120122DEAE0212012238B0021201224EA1
:1007F300B0021201226FB00212012201B1021201F2
:100803002277B1021201229DB1021201224AB402DF
:100813001201224FB40212012273B602120122BA4C
:10082300B60212012220B70212012266B702120198
:100833002236B802120122EBB80212012247B90292
:100843001201224AB90212012296B902120122D2DE
:10085300B90212012211BA0212012233BA021201A1
:100863002267BA02120122D5BA021201222A900487
:1008730012012233900412012241900412012291A9
:100883009004120122B09004120122FA9004120182
:10089300223D9204120122D59204120122199304DB
:1008A300120122439304120122AE9304120122F295
:1008B3009304120122759404120122249504120157
:1008C30022126000120122226000120122BC600089
:1008D300120122186100120122D66100120122F9CD
:1008E30062001201222963001201225863001201DF
:1008F300220E6500120122616700120122C0690005
:10090300120122A96A00120122996B001201226CC2
:100913006D00120122647000120122817100120124
:10092300227B73001201228A7400120122197600BD
:10093300120122057700120122547700120122C40A
:100943007700120122E077001201223178001201B0
:1009530022D17C00120122E77D001201229F7E003A
:1009630012012293EE011201229DEE01120122E5F2
:10097300EE01120122F9EE0112012231EF011201FF
:100983002278EF01120122B9EF01120122FCEF01DB
:1009930012012226F001120122B0F0011201225AA3
:1009A300F10112012289F101120122C0F1011201A8
:1009B30022FBF10112012230F2011201225AF2014B
:1009C30012012283F201120122D1F201120122E665
:1009D300F201120122FBF20112012210F3011201B2
:1009E3002234F30112012277F3011201228CF30165
:1009F300120122F7F3011201220BF4011201222A40
:100A0300F4011201223EF40112012253F4011201F6
:100A13002268F4011201227CF401120122BCF401C8
:100A23001201220EF50112012248F5011201226C76
:100A3300F50112012298F501120122C6F5011201F6
:100A430022F0F50112012205F6011201221AF60124
:100A53001201224AF60112012294F601120122F632
:100A6300F60112012231F7011201225CF701120192
:100A73002287F701120122F2F70112012235F80150
:100A830012012260F80112012290F801120122C71B
:100A9300F801120122F1F80112012229F9011201D0
:100AA3002253F90112012290F901120122BAF9012C
:100AB300120122EAF90112012214FA011201223E63
:100AC300FA0112012269FA0112012292FA011201BA
:100AD30022E3FA0112012229FB0112012254FB0134
:100AE300120122B4FB01120122DFFB011201220FCA
:100AF300FC0112012252FC011201227CFC011201B1
:100B030022A1FC0112012228FD01120122AEFF03E2
:100B13001201229AFE03120122588C031201223180
:100B23008D03120122A08D03120122DB8D0312011A
:100B330022168F03120122968F031201229C910326
:100B4300120122499403120122F49403120122D5C3
:100B530095031201224F9703120122B79703120143
:100B6300225C9803120122968504120122D985047E
:100B7300120122338704120122068804120122443F
:100B83008A04120122C5B3041201226DB4041201B6
:100B930022A5B404120122B9B404120122ACB50493
:100BA300120122EAB5041201221CB60412012259D1
:100BB300B604120122A0B604120122EEB6041201F9
:100BC300222FB70412012268B704120122D3CD04E5
:100BD30012012232CE04120122CFCE04120122EEE0
:100BE300CE041201222ECF041201225CCF04120183
:100BF300227BCF04120122B6CF04120122D6CF04E6
:100C0300120122319A04120122BA9A0412012279A2
:100C13009B04120122879C04120122A79E04120145
:100C230022949803120122A99803120122749903B2
:100C3300120122419A03120122AE9A03120122F4F5
:100C43009A03120122959B031201229E9C03120117
:100C530022769D03120122F99D03120122829E0333
:100C6300120122EB9E03120122759F0312012278C7
:100C73009F03120122949F03120122979F031201E3
:100C830022B99F0312012265A003120122D3A003FC
:100C930012012275A10312012223A203120122438E
:100CA300A20312012287A203120122CFA20312017F
:100CB30022EBA2031201220AA30312012284A3033B
:100CC30012012292A30312012225A4031201228FEF
:100CD300A403120122AAA70412012226A8041201C6
:100CE3002264A80412012248A904120122B7A9040C
:100CF300120122FBA9041201223EAA041201226B53
:100D0300AA0412012289AA04120122C1AA0412010F
:100D130022FEAA041201221FAB0412012295AB0486
:100D23001201227183011201225F85011201223710
:100D330088011201227F8801120122AA880112016F
:100D4300229D8901120122D889011201222F8A01D1
:100D5300120122428A01120122838A01120122C551
:100D63008A01120122D48A01120122018B0112018C
:100D7300224A8B01120122798B01120122E38B019A
:100D8300120122118C01120122438C0112012266ED
:100D93008C01120122118D011201223E8D011201DB
:100DA30022C38D01120122228E01120122958E018E
:100DB3001201221E910112012223920112012286A5
:100DC3009201120122029301120122C6940112011F
:100DD30022019501120122619601120122869601D8
:100DE300120122CA9601120122D39701120122AFE6
:100DF3009901120122449A01120122B79A011201A8
:100E03002226A00112012262A00112012233A201B3
:100E130012012227A301120122F8A4011201223692
:100E2300A5011201223BA5011201223DA5011201D8
:100E330022C6A50112012298A601120122BEA60113
:100E4300120122E7A60112012210A7011201224971
:100E5300A7011201226EA7011201228DA70112011F
:100E630022B8A7011201221FA801120122A3A8017F
:100E7300120122E7A80112012209A9011201220A83
:100E8300AA01120122D6AA0112012207AB01120103
:100E93002266AB0112012286AB011201228FAC0143
:100EA300120122B8AC0112012253AD01120122D169
:100EB300AD0112012202AE0112012247AE0112015D
:100EC3002280AE01120122A2AE01120122CEAE0196
:100ED300120122FDAF011201220EB0011201226D97
:100EE300CB041201223ECC0412012282CC04120153
:100EF30022D1CC0412012222CD0412012265CD0499
:100F030012012206CF0312012277CF0312012240DE
:100F1300D5031201223AD603120122FCD703120190
:100F2300227AD8031201222BB001120122B2B0019E
:100F3300120122DFB00112012224B1011201223178
:100F4300B1011201222DB20112012272B20112016A
:100F53002297B201120122C8B2011201223EB4014A
:100F6300120122C0B40112012204B5011201226D43
:100F7300B50112012229B601120122D4B6011201D0
:100F8300224CB701120122E1B70112012234B80148
:100F93001201228BB90112012215BB01120122E0B9
:100FA300BB0112012200BC0112012243BC01120148
:100FB3002253BC0112012277BC011201227ABC0127
:100FC3001201225EBD011201220DBE011201228512
:100FD300BE0112012229BF0112012254BF011201D5
:100FE30022ADBF0112012201C0011201226BC00117
:100FF3001201228BC001120122F1C00112012290C1
:10100300C1011201222AC201120122ADC201120141
:101013002219C3011201226EC301120122D4C3019A
:10102300120122F4C301120122AEC40112012207EC
:10103300C5011201222FC70112012278C701120133
:1010430022BCC701120122A6CD0112012242CE0108
:10105300120122BFCF01120122A4D001120122C921
:10106300D00112012214D10112012229D10112014E
:101073002264D101120122CCD1011201220CD2012E
:101083001201221DD301120122ADD30112012255F7
:10109300C503120122A0C503120122ACC50312012C
:1010A3002277C6031201228DC603120122C9C60389
:1010B300120122EAC60312012223C7031201225B93
:1010C300C703120122B1C703120122C7C7031201CA
:1010D3002203C80312012216C8031201223DC803CA
:1010E30012012271C80312012245C903120122D43D
:1010F300CA03120122D0CB03120122D9CC0312015D
:1011030022F8FF01120122369504120122D198041C
:10111300120122E69904120122008003120122D552
:101123008203120122DB8203120122A28503120130
:10113300222E8803120122DA9E04120122689F04E0
:101143001201222AA0041201224FA0041201227BC1
:10115300A204120122008002120122448002120121
:1011630022CC8A02120122268C02120122318D0224
:10117300120122D29002120122C8910212012216F8
:101183009202120122309202120122719202120182
:10119300227C9202120122859202120122459302BD
:1011A300120122079402120122609402120122CC3E
:1011B30094021201224D9502120122BB96021201E2
:1011C30022299A021201222F9A021201226CA102F1
:1011D30012012244A60212012278C80412012242FB
:1011E300C90412012286C904120122C0C9041201D2
:1011F3002252CA04120122C1CA04120122CACA0419
:10120300120122D6CA04120122EACA041201220ED2
:10121300CB041201223ECB0412012278F103120106
:101223002285F1031201229FF103120122D2F1035D
:101233001201220FF20312012275F2031201228A14
:10124300F20312012295F203120122A2F203120108
:1012530022B9F203120122C7F203120122D6F203CA
:10126300120122EBF20312012200F3031201220BFB
:10127300F30312012217F30312012224F3031201D1
:101283002233F3031201223EF30312012266F30316
:101293001201226BF30312012202F40312012261F1
:1012A300F40312012271F40312012286F4031201E2
:1012B300229BF403120122B5F403120122D6F40394
:1012C300120122F3F403120122FEF403120122B1EC
:1012D300F50312012299F603120122B7F603120154
:1012E30022D3F603120122DEF603120122F3F603E0
:1012F30012012207F70312012268F7031201226E7B
:10130300F70312012274F7031201227AF703120181
:10131300228EF703120122B5F703120122F0F7031D
:1013230012012209F8031201224DF803120122804F
:10133300F80312012208BB031201222ABB03120184
:1013430022EFBB031201227EBE031201229DBF03C3
:10135300120122B9C00312012293C1031201224ACE
:10136300C203120122A6DB0212012234DC021201A3
:1013730022C9DC02120122A5DD02120122D9DD02FB
:10138300120122ECDD0212012266DE02120122EEBC
:10139300DF0212012215E0021201229CE002120177
:1013A30022DBE002120122ECE00212012261E102DF
:1013B30012012280E10212012298E102120122DCD1
:1013C300E202120122E6E40212012218E7021201EC
:1013D300221EE80212012261E802120122FDCC0260
:1013E30012012210CE02120122F8CE0212012202B1
:1013F300CF021201220CCF021201222ECF021201C0
:10140300223ACF0212012287D002120122B4D00263
:10141300120122D5D10212012217D2021201224C4B
:10142300D3021201221CD4021201226BD402120134
:1014330022CCD40212012201D5021201223AD50292
:10144300120122E5D802120122FCD8021201227AEB
:10145300D90212012288D902120122D1D902120122
:1014630022DFD90212012260DA02120122CFDA024C
:101473001201221BDB0212012213F5021201223593
:10148300F50212012211F70212012289FA02120156
:1014930022D3FB02120122B5FC0212012281D504E0
:1014A300120122A6D50412012217D604120122F535
:1014B300E903120122FEE90312012207EA031201E2
:1014C300222BEB031201221CED031201224AED032E
:1014D30012012275ED03120122A3ED03120122CEA4
:1014E300ED031201220CEE0312012238EE03120166
:1014F3002275EE03120122A0EE03120122ECEE0389
:1015030012012243EF0312012283EF03120122D2BD
:10151300EF03120122FDEF0312012243F003120134
:101523002271F0031201229CF003120122C9F0037D
:10153300120122ECF003120122AEE802120122E1B1
:10154300E80212012224E9021201222FE902120108
:10155300223AE90212012245E90212012250E9026C
:1015630012012268EC021201223FED0212012298BD
:10157300ED021201221AEE0212012227EE021201DB
:101583002234EE021201223EEE0212012248EE0242
:1015930012012252EE0212012277EE021201228779
:1015A300EE02120122D2EE02120122FAEE0212011F
:1015B3002207EF0212012217EF0212012221EF028A
:1015C3001201222BEF0212012235EF0212012242F5
:1015D300EF021201224CEF0212012256EF02120116
:1015E3002260EF021201226AEF02120122B2EF021D
:1015F300120122CEEF02120122EAEF02120122FAB5
:10160300EF0212012204F0021201225BF002120126
:101613002268F0021201222BF10212012235F1029B
:101623001201223FF10212012249F1021201226545
:10163300F10212012281F10212012236F202120199
:101643002240F2021201224DF2021201225AF20248
:1016530012012267F20212012270F202120122B574
:10166300F202120122C3F202120122E5F202120176
:1016730022EEF202120122FDF2021201221FF302F4
:1016830012012228F30212012237F3021201224629
:10169300F3021201224FF3021201225EF30212013E
:1016A300226EF3021201227BF30212012288F3025B
:1016B30012012295F302120122A5F302120122C3A1
:1016C300F302120122E0F302120122F0F3021201EB
:1016D3002200F40212012210F40212012241F40248
:1016E3001201224BF4021201225BF4021201226B5B
:1016F300F40212012278F40212012297F402120179
:1017030022A4F402120122B4F402120122BEF40252
:10171300120122CBF402120122D5F402120122E5B6
:10172300F402120122EFF402120122F9F40212016F
:101733002209F502120122CDDB04120122C9D304CE
:1017430012012225D404120122C9D404120122E871
:10175300D40412012236D50412012243DE041201FD
:10176300226FDD04120122AEDD041201222EDE04FB
:1017730012012253DB0412012263DB041201227BD8
:10178300DB04120122C4DB04120122D4D8041201A7
:101793002257D904120122BDD904120122F5FF01F7
:1017A30012012250FD0112012265FD011201226A7C
:1017B300FE01120122DEFE01120122F8FE011201D6
:1017C300220FFF011201221DFF0112012235FF0129
:1017D3001201224AFF011201226FFF01120122C0EE
:1017E300FF01120122A1B704120122B8B7041201AA
:1017F3002231B80412012205B904120122D7BA0416
:101803001201223FC504120122CFC5041201224D49
:10181300C604120122DEC60412012270C70412019B
:1018230022C3C704120122CDC704120122DCC7045C
:10183300120122F2C70412012205C8041201226117
:10184300C80412012275C804120122802E0012015D
:1018530022162F00120122CF2F00120122EF2F0098
:101863001201222631001201226D320012012215CB
:101873003300120122B03C00120122304400120155
:1018830022C14C001201222B4E00120122275900C3
:10189300120122CA5900120122365B00120122A54D
:1018A3005E001201227C5F00120122B15F0012016F
:1018B30022CD5F0012012212DD04120122BBDA04E1
:1018C30012012226DB0412012231DB041201224120
:1018D300DB041201224CDB04120122E4DD041201B9
:1018E300220DDE041201220080041201220A800468
:1018F3001201224A8004120122938004120122CB96
:101903008004120122218104120122438104120165
:10191300224C8104120122918104120122BA810412
:10192300120122CF8104120122D88104120122481C
:101933008204120122D58204120122298304120196
:10194300224C8304120122CB830412012206840455
:101953001201223B84041201225A840412012263DD
:1019630084041201221585041201226A85041201DE
:101973002232D70412012283D7041201220CD80485
:1019830012012276D804120122ADBE04120122D51F
:10199300BE04120122CABF04120122EFBF041201C6
:1019A3002289C00412012218C104120122087F00F7
:1019B30012012215DD04120122E4CF041201221ABE
:1019C300D0041201224DD004120122A6D104120127
:1019D3002245DC041201225BDC0412012265DC04D3
:1019E300120122D4E1031201228EE203120122C961
:1019F300E203120122FAE2031201226AE303120153
:101A030022C0E30312012214E40312012201E503BD
:101A1300120122FAE5031201227BE7031201222FAE
:101A2300E80312012298E803120122ABE803120132
:101A33002290E903120122DCAB04120122F2AB046F
:101A430012012296AC04120122D5AC04120122F237
:101A5300AC0412012223AD0412012270AD04120161
:101A630022A3AD04120122DEAD04120122D3AF047E
:101A7300120122B8DD0412012210DE04E0667010A8
:101A830008A3E066700A08A3E066700408A3E06692
:101A930022C3E7960809E7960809E7960809E79637
:101AA30022C3E09608A3E09608A3E09608A3E09675
:101AB30022C008C3E096F50808A3E096420808A3ED
:101AC300E096420808A3E09645087001D3D00822A7
:101AD300080808EAC0E0EBC0E086F0E7A4FA1809BA
:101AE30086F0E7A42AFA180986F0E7A42AFA180967
:101AF30086F0E7A42AFA1986F0E7A4FBE5F02AFAB0
:101B0300190886F0E7A42BFBE5F03AFA190886F0EA
:101B1300E7A42BFBE5F03AFA18180986F0E7A4C509
:101B2300F02BFBE43AFA1908E7C5F0C6A426F6E55C
:101B3300F03BFBE43AFA1886F0E7A4F6E5F0082652
:101B4300F6E43B08F6E43A08F6D0E0FBD0E0FA22EC
:101B5300E4CFC0E0E4CEC0E0E4CDC0E0E4CCC0E03C
:101B630075F020E626F608E633F608E633F608E6CF
:101B730033F6181818EC33FCED33FDEE33FEEF3378
:101B8300FFC3EC9709ED9709EE9709EF9719191918
:101B9300400FFFEC97FC09ED97FD09EE97FE19192D
:101BA30006D5F0BFECF709EDF709EEF709EFF719E2
:101BB3001919D0E0FCD0E0FDD0E0FED0E0FF2260B8
:101BC30016080808C6C313C618C613C618C613C614
:101BD30018C613C6D5E0EA22700908080822601661
:101BE300181818C6C333C608C633C608C633C60892
:101BF300C633C6D5E0EA22E627F60809E637F60833
:101C030009E637F60809E637F622E026F608A3E0E8
:101C130036F608A3E036F608A3E036F622E026F00F
:101C230008A3E036F008A3E036F008A3E036F0227C
:101C3300C3E697F60809E697F60809E697F6080952
:101C4300E697F622C3E0C696F608A3E0C696F60822
:101C5300A3E0C696F608A3E0C696F622C3E096F084
:101C630008A3E096F008A3E096F008A3E096F0221C
:101C7300E657F60809E657F60809E657F60809E6AF
:101C830057F622E056F608A3E056F608A3E056F608
:101C930008A3E056F622E056F008A3E056F008A3A6
:101CA300E056F008A3E056F022E046F608A3E0462B
:101CB300F608A3E046F608A3E046F622E066F60837
:101CC300A3E066F608A3E066F608A3E066F622E062
:101CD300F608A3E0F608A3E0F608A3E0F622E6F090
:101CE30008A3E6F008A3E6F008A3E6F022E0FAA3CF
:101CF300E0FBA3E0FCA3E0FD22EAF0A3EBF0A3ECFE
:101D0300F0A3EDF022E0FCA3E0FDA3E0FEA3E0FFDF
:101D130022ECF0A3EDF0A3EEF0A3EFF022E0F8A3A2
:101D2300E0F9A3E0FAA3E0FB22E8F0A3E9F0A3EAD9
:101D3300F0A3EBF022CAC0E0E6F0A308DAFAD0E0A1
:101D4300FA22CAC0E0E0A3C582CCC582C583CDC553
:101D530083F0A3C582CCC582C583CDC583DAE6D023
:101D6300E0CA22C3E498F8E499F9121DA78026C3B8
:101D7300E49AFAE49BFBE920E7E9121DA7E498F84B
:101D8300E499F922C3E498F8E499F9121DA7E498B9
:101D9300F8E499F9C3E49AFAE49BFB22EB20E7CF3A
:101DA300E920E7E0B90010BB0008E88AF084F8AA4C
:101DB300F022E4FBC8FA22EB70227B10C833C8C9B7
:101DC30033C9335007C39AC3DBF280069A50012A02
:101DD300DBEAC833F4C8C933F4C9FA2275F008E45E
:101DE300C833C8C933C933C99AC99B5004C92AC95E
:101DF3003BD5F0ECFBC833F4C8E4C9FA22600D0804
:101E0300C6A2E713C618C613C6D5E0F322600C08B2
:101E1300C6C313C618C613C6D5E0F42270042260E5
:101E23000D18C6C333C608C633C6D5E0F418222539
:101E33001810AF08F518400C15198008F518400262
:101E43001519D2AF2200C0D0251810AF08F51850CD
:101E53000C05198008F51850020519D2AFD0D0220D
:101E63002518F58210AF08F518400C15198008F5F0
:101E73001840021519D2AF851983222518F582E47B
:101E83003519F583222518F8E43519F9222518FAAE
:101E9300E43519FB222518FCE43519FD22E47325EA
:101EA30018C582C0E0E51934FFC583C0E0E518C357
:101EB300958224F810AF08858319858218800885D8
:101EC3008319858218D2AFCEF0A3E520F0A378085A
:101ED300E608F0A3DEFAEFF0A3E58124FAF8E608BA
:101EE300F0A3E608F0A3E608F0A30808E608F0A3C9
:101EF300E608F0A315811581D0E0FED0E0F8158146
:101F030015811581E8C0E0EEC0E0222518C582C026
:101F1300E0E51934FFC583C0E0E518C3958224F9D1
:101F230010AF0885831985821880088583198582F7
:101F330018D2AFCEF0A3E520F0A37808E608F0A30B
:101F4300DEFAEFF0A3E58124FBF8E608F0A3E60848
:101F5300F0A30808E608F0A3E608F0A315811581AD
:101F6300D0E0FED0E0F815811581E8C0E0EEC0E0D6
:101F730022851983851882E0A3FEE0A3F520780863
:101F8300E0A3F608DFFAE0A3FFE0A3C0E0E0A3C00C
:101F9300E0E0A3C0E0E0A3C0E0E0A3C0E010AF082E
:101FA3008582188583198008858218858319D2AFA5
:101FB300D083D08202011F851983851882E0A3FE96
:101FC300E0A3F5207808E0A3F608DFFAE0A3FFE03A
:101FD300A3C0E0E0A3C0E0E0A3C0E0E0A3C0E01042
:101FE300AF0885821885831980088582188583192F
:101FF300D2AFD083D08222C0D02518C582C0E0E5FD
:102003001934FFC583C0E0E518C3958224F310AFEC
:10201300088583198582188008858319858218D2DB
:10202300AFC8F0A3E9F0A3EAF0A3EBF0A37908E7C4
:1020330009F0A3D8FAECF0A3EDF0A3EEF0A3EFF0D0
:10204300A3D0E0F0A3D0E0F0A3D0E0F0A3E520F02C
:10205300A3E5F0F0A322851983851882E0C0E0A3ED
:10206300E0F9A3E0FAA3E0FBA37808E0F608A3DF16
:10207300FAE0FCA3E0FDA3E0FEA3E0FFA3E0C0E0E1
:10208300A3E0C0E0A3E0F5D0A3E0F520A3E0A3F52F
:10209300F010AF0885831985821880088583198518
:1020A3008218D2AFD082D083D0E0F8D0E03274046B
:1020B3008006740280027401C0E0F404121E63D02F
:1020C300E0121D38227404800474028000CCC0E046
:1020D300EDC0E0E518C39CCCAD1950011D10AF064F
:1020E3008C188D1980068C188D19D2AF121D45D00E
:1020F300E0FDD0E0FC22D083D082C5F0E493A3C5F9
:10210300F0C395F0F5F0E493A3C395F04005E5F033
:10211300048001E475F002A42582F582E5F035839D
:10212300F583E493A3C0E0E493C0E022D083D0829C
:10213300E9C0E0E493A3C386F0C5F095F0F908E4A1
:1021430093A386F0C5F095F0700BE493A3C3994075
:1021530005E9048002A3E475F002A42582F582E573
:10216300F03583F583D0E0F9E493A3C0E0E493C0B2
:10217300E022D083D082CCC0E0E493A36006122196
:102183009F1470FAE493A360061221BE1470FAD070
:10219300E0FCE493A3C0E0E493C0E022C0E0E49356
:1021A300A3D39C5010E493A3C39C400AD0E0D0E097
:1021B300D0E0022192A3A3A3D0E022C0E0E493A342
:1021C3006C7009D0E0D0E0D0E0022192A3A3D0E06C
:1021D30022D083D082ECC0E0EDC0E0E493A3FCE422
:1021E30093A3FDED4C600D122220EC24FFFCED3493
:1021F300FFFD80EFE493A3FCE493A3FDED4C600D9E
:1022030012225FEC24FFFCED34FFFD80EFD0E0FDF4
:10221300D0E0FCE493A3C0E0E493C0E022C0E0C3B9
:10222300E49396087401939618400FE4936670083C
:1022330008740193661870007019A3A3C3E49396FE
:10224300087401939618A3A3400DD0E0D0E0D0E02A
:10225300022210A3A3A3A3A3A3D0E022C0E0C0F053
:1022630088F0E4936670080874019366187000A8F8
:10227300F0A3A3700BD0F0D0E0D0E0D0E0022210A6
:07228300A3A3D0F0D0E0227C
:10228C0074F6121F0EEAFEEBFF8C088D09EA24345B
:10229C00F8E43FF9E8FCE9FDEA243512263CFAEEB5
:1022AC00243712263CF88508F0A4C885F00A850965
:1022BC00F0A4250AF9EA28F8E439F97A257B00120A
:1022CC001DA7EA8C828D83F0FA131313541F122668
:1022DC0030245DF582E439F583E0C0E074075AF8E8
:1022EC00D0E0B800028004C313D8FCA2E0EE500882
:1022FC002434F582E43F8014243612263CF5F0EAAF
:10230C0084A8F01226312438F582E439F583E0F9FB
:10231C007F03021FBA74F7121F0EEAFEEBFFEA24CA
:10232C003412263CC0E0EA2435F582E43FF583D034
:10233C00E0F08A828B83A3A3A3A3A3A3A3C082C030
:10234C00838A828B83A3A3A3A3A3E0F8A3E0F9D091
:10235C0083D082E0C398F508A3E099F509EA2480BC
:10236C0012263C6401703EEA2481F582E43FF58339
:10237C00C082C0838A828B83A3A3A3A3A3E024017E
:10238C0008A3E03400F9D083D082E0687003A3E0A6
:10239C006970127CE77D06121023EE2480F582E42E
:1023AC003FF583E4F0AC08AD09EEFAEFFB12228C9A
:1023BC00E9F9122DBA7F02021FBAC082C0838518B8
:1023CC0082851983E0F8A3E0F9C3EA9CEB9D5010D9
:1023DC00C3EC98ED99401BC3EA98EB995014800E0E
:1023EC00C3EA98EB994007C3EC98ED994004790146
:1023FC0080027900D083D08222EAC39CFAEB9DFB49
:10240C002274EF121F0E900381E064086005E064F3
:10241C0007702A9061C8E060249003AFE0F4601D5F
:10242C00E0F875F012A4C8AAF02AF974B128FE7469
:10243C000339FF8E82F583A3A3A3E0700302252644
:10244C00906060E0C0E0EE2468F582E43FF583D054
:10245C00E0F0750C82750D07750800750900E5D95B
:10246C0014F50AE5D95403F50E602F7403650E605C
:10247C001DE50A6008EE246712263C601D90077D5E
:10248C00E06401602C122639601278048010122648
:10249C0039602CE50AC39405502580637800E50A61
:1024AC00C398FA95E0FB120D358A088B09EA4B703C
:1024BC00051212FF806412263970048A0C8B0DE50C
:1024CC000A6012850C82850D83F50BE5D9F0A315F6
:1024DC000BE50B70F6122639604574FC250AF50ADB
:1024EC00780C1220B5AC0AA90EEEFAEFFB1210FB19
:1024FC007402121E48E97027AA08AB0912197779E1
:10250C003D8E828F83A3A3A3A3E0FA7B00120B431F
:10251C00EEFAEFFB12105312115B790002262B74AA
:10252C0003650E6053E50AF5107511007810122042
:10253C00B5AC0CAD0DAA08AB091210BF7402121E7B
:10254C0048EE246812263C64807004747F8001E09D
:10255C00F50C780C1220B9E50EF50C780C1220B99C
:10256C00A90AAC08AD099003AFE0FA7B00120B137B
:10257C007402121E48022626850C82850D83E0C348
:10258C00940E5011E0F8746328F582E43482F583DC
:10259C00E0650A6069850C82850D83E0C0E0EE245D
:1025AC00F9F582E43FF583D0E0F0A2AFE433FCC24E
:1025BC00AF7A0080010AEE246E12263CF8EAC3982A
:1025CC005013EA122630246AF582E439F583E0646C
:1025DC000770E28022EE246EF8E43FF9E0FAEE2A6E
:1025EC00FAE43FFBEA246AF582E43BF5837407F0D6
:1025FC0088828983E004F0ECA2E092AF801C900307
:10260C0081E06408AC0CAD0D7009EEFAEFFB121111
:10261C002B8007EEFAEFFB1211CD12130B79017F11
:10262C000A021FBAF8EE28F8E43FF9E822EE2484F7
:10263C00F582E43FF583E02274F1121F0E74FC1254
:10264C001E32EAFEEBFF8909750D00A2AFE433F5EB
:10265C0008C2AF9006EFE0FA9061D0E0F874809871
:10266C00F895E0F9C3EA98E499A2D265D033400317
:10267C0002272E750D0102272EE0601B780A12200E
:10268C00B5AC0EA90FEEFAEFFB1210F57402121E88
:10269C00487404250EF50E7401250EF5D9850FD955
:1026AC00E50E6012850A82850B83F50CE0F5D9A343
:1026BC00150CE50C70F675E195EE2463F8E43FF922
:1026CC007A007B00A2AFE433F50AC2AF888289831B
:1026DC00E0FCA3E0FDEC4D603A88828983E0FAA32C
:1026EC00E0FB8C82F583E0FCA3E0FD88828983EC1F
:1026FC00F0A3EDF08A828B83E4F0A3F088828983C7
:10270C00E0FCA3E0FDEC4D700A88828983A3A3E46E
:10271C00F0A3F0E50AA2E092AF1219779006EEE072
:10272C0004F0EE246312263CF8A3E0F9E849606358
:10273C00EE246312263C2402F8A3E034008882F5D0
:10274C0083E5822402F50AE43583F50BE0F50EA34C
:10275C00E0F50FEE246212263C640170369061D0D5
:10276C00E0F812263960047C0480027C007480C37B
:10277C0098FA95E0FBE50E2CF8E43400F9E8240215
:10278C00F8500109C3EA98EB99A2D265D033400303
:10279C000226859061D0E0F87480C3989006EFF023
:1027AC00E50D60539006EEE0604D9006F0E0F89079
:1027BC0006EEE0C398500C74026509703A9006F16D
:1027CC00E060348E828F83A3A3A3A3E08518828557
:1027DC0019831228137402121E7EE8122813900615
:1027EC00EDE028F07402121E98AA18AB19790112A8
:1027FC000B799006EEE4F0E508A2E092AF740412B7
:10280C001E487F08021FBAF0A3E4F09006EEE0F831
:10281C00220000008521878522C622C0E074EB12BD
:10282C001FFAA2AFE433F508C2AF759B009061822A
:10283C00E0A2E0502DE591A2E050277591FE7401C5
:10284C006521701E12299E1229B51220C8122B69FF
:10285C007404121E48E964017005790112124B12BE
:10286C00240D906182E0A2E5505AE591A2E5505406
:10287C007591DF900381E064076005E06408702CBB
:10288C0012299E74016521703B1229B51220C812C1
:10289C002B697404121E48E9640170057901121247
:1028AC004B7901EEFAEFFB1226448018E0640D70B0
:1028BC00139003A3E004F064287002E4F07A00E0C3
:1028CC00F9121329906182E0A2E64003022973E514
:1028DC0091A2E640030229737591BF900381E064D5
:1028EC000570081211F712120380031211FD7521E5
:1028FC0000121269E9900382F0790012124B120F48
:10290C003F7A017B00900380E0F91219479078031D
:10291C00E064427052900781E014F0704AC2AF122A
:10292C00292E00782AD0E0F618D0E0F6E59F54075F
:10293C0070047BFF80027B7FC4C0E07829E6F50A37
:10294C0008E65BF50B740B780A121E10D0E0250A12
:10295C00F8906270E0A2E740F8E8C333906272F03E
:10296C00906270E0D2E0F0906181E0A2E35009E562
:10297C00E9A2E3500375E9F7A3E0A2E75009E5915A
:10298C00A2E7500375917FE508A2E092AF7F0802A1
:10299C0020599003AFE0F875F012A4C8AAF02AF9F8
:1029AC0074B128FE740339FF2212120F8E828F83AA
:1029BC00E0F8A3E0C82416F582E438F58322C0E0E1
:1029CC00C0D0C082C083906183E0A2E05009E5BF13
:1029DC00A2E0500375BFFEE0A2E15009E5BFA2E101
:1029EC00500375BFFDE0A2E25009E5BFA2E250031F
:1029FC0075BFFBE0A2E35009E5BFA2E3500375BF2E
:102A0C00F7E0A2E45009E5BFA2E4500375BFEFE084
:102A1C00A2E55009E5BFA2E5500375BFDFE0A2E6D1
:102A2C005009E5BFA2E6500375BFBFD083D082D05A
:102A3C00D0D0E032C0E074F2121FFAE5A7A2E65043
:102A4C000FE5A1A2E6500953A7BF75A1BF122A94A6
:102A5C00E5A7A2E5500CE5A1A2E5500653A7DF754A
:102A6C00A1DFE5A7A2E15009E5A1A2E1500375A100
:102A7C00FDE5A7A2E2500CE5A1A2E2500653A7FB8C
:102A8C0075A1FB7F0102205974F7121F0E752101ED
:102A9C00900381E06406701512117F8A828B83A3E8
:102AAC00A3A3A3A3A3E0FAA3E0FB1211E5A2AFE456
:102ABC0033FED2AF900387E0640170187A207B005C
:102ACC00900380E0F9121A5B7A207B00900380E07F
:102ADC00F912194D906182E0D2E6F090077EE06029
:102AEC002185C6228016900386E064017008E5C635
:102AFC0054F84405F5C653BEFC1228207401652118
:102B0C0060E4EEA2E092AF7F02021FBA8E238F2404
:102B1C00858228858327851882851983E0CEA3E0DA
:102B2C00CF852882852783EBC9EAC8EDCBECCA7523
:102B3C00F010C3E833C8E933C9EA33CAEB33CBC36B
:102B4C00EA9EF526EB9FF525B35004AB25AA26EC9F
:102B5C0033CCED33CDD5F0DAAE23AF242274F112A1
:102B6C001F0E8A088B098C0A8D0B90833278081201
:102B7C001C86740F121E7E780C121CD29083327835
:102B8C000C121C867808790C121A9490831250102F
:102B9C007808790C121C337808121AB44014800E81
:102BAC00780C7908121C33780C121AB45004790181
:102BBC00800279007F08021FBA74ED121F0E8A087A
:102BCC008B098C0A8D0B9083327808121C86741337
:102BDC00121E7E780C121CD2908332780C121C863A
:102BEC00780C7908121A9440117808790C121C335D
:102BFC00AA08AB09AC0AAD0B802275100075110048
:102C0C007512007513017810790C121C3378107939
:102C1C0008121BFAAA10AB11AC12AD137F0C021FD9
:102C2C00BA9083327808121CD28A828B837808126D
:102C3C001C997F04021FBA74F5121F0E8C828D83AF
:102C4C007808121CD28A828B837808121C5F122C93
:102C5C009BC3E09CF0A3E09D122C8D402290833E00
:102C6C007808121CD28A828B837808121C208A82E4
:102C7C008B83A3A3A3A3E02420F0A3E0344EF08025
:102C8C00A0F088828983C3E09420A3E0944E22EACA
:102C9C002404F8E43BF98C828D83A3A3A3A3E0FC6A
:102CAC00A3E0FD888289832274F5121F0E90070A17
:102CBC00E0FAA3E0FBE929F8E433F9744528F5823E
:102CCC00748239F583E02AF508A3E03BF50978080E
:102CDC001220B590832E121CF0122B187402121EA7
:102CEC00488A088B098C0A8D0B74107808121BC249
:102CFC00AA08AB097F04021FBA74F1121F0E8A0CCA
:102D0C008B0D8C0E8D0F7411121E7E1220CC741133
:102D1C00121E7EE02401F508A3E03400F509E4F569
:102D2C000AF50B780C7908121AD390831E780812C6
:102D3C001CD2780C7908121AD3AA0CAB0DAC0EADC0
:102D4C000F122B187402121E48EA4B60047A018091
:102D5C00027A00EC2AFCE43DFD7413121E7EE0F8AE
:102D6C00A3E0F9E8FEE9FFECF8EDF97A717B0212C9
:102D7C001DA788088909E4F50AF50B8E828F8378E4
:102D8C0008121CE1ECF8EDF97A717B02121DA78A8E
:102D9C00088B0974057808121E1F8E828F83A3A3DB
:102DAC00A3A3E508F0A3E509F07F08021FBAC082CF
:102DBC00C083E9906000F0D083D08222C0E074F22E
:102DCC00121FFAA2AFE433FED2AFC2C0E5D1A2E427
:102DDC00500675D10F121845EEA2E092AF7F01029A
:102DEC002059C0E0C0D0E8C0E0A8A8D2AFC2C7E864
:102DFC00A2E792AFD0E0F8D0D0D0E032C0E0C0D0A3
:102E0C00E8C0E0E9C0E0EAC0E0EBC0E0C082C0830B
:102E1C00A2AFE433F9D2AF900F09E0F8A3E06870E9
:102E2C0008539AFBA374018022C2E9900F09E0F8C1
:102E3C00740128F0748928F582E4340EF583E0F5EA
:102E4C00C1900F09E0C394804002E4F0E9A2E09243
:102E5C00AFD083D082D0E0FBD0E0FAD0E0F9D0E064
:102E6C00F8D0D0D0E032C2AF02000022FFFFFFFF4B
:102E7C00FFFFFFFF74F6121EA2E9900F0EF0121561
:102E8C0057900F0EE0F912065D1206B1900F0EE08E
:102E9C00F91206B7900F0EE0F91208C190833E129A
:102EAC001CF012069990833E121CF01208DF7AC8AF
:102EBC007B1C1218E77CC87D1C79001206937CDD04
:102ECC007D1C7A02790112069379017A717B821248
:102EDC0017A979027A557B821217A979037A7E7B1E
:102EEC00821217A97C777D0F7A107902121A317C25
:102EFC00877D0F7A107903121A317C0F7D0F7A04BB
:102F0C007904121A317F02021F7474F4121EA28A01
:102F1C00088B09EB54807003022FAF900F0EE0F971
:102F2C0012192F8A0A8B0BAF0BEA4F606E8A828BB9
:102F3C0083E0246F600924FE705412185D8052A344
:102F4C00E0F8740E6870208A828B83A3A3A3A3A3DA
:102F5C001220CCEA24FDF582EB34FFF583E024F952
:102F6C00125AFC790E801D74FF6870288A828B833C
:102F7C00A3A3A3A3A31220CC8A828B83A3A3E012C6
:102F8C005AFC79FF120B2B7402121E488006121881
:102F9C0081E96007AA0AEFFB121917AA08E5096470
:102FAC00808016EB544060147C0F7D0F7A047904FA
:102FBC00121A2BAA08E5096440FB80047A007B00F6
:102FCC00024E26E9790024FE60081460051460099D
:102FDC00800C74106A7007800774046A60027902AE
:102FEC0002011F74F4121EA274F9121E32EAFEEBD7
:102FFC00FF851882851983E4F08A828B831233084B
:10300C00C0E07401121E7ED0E0125B2FA882A9834F
:10301C00E0FCA3E0FB7402121E7EECF0A3EB125B4F
:10302C002FA3E0C0E07404121E7ED0E0F0E824036D
:10303C00F85001097405121E7E1231207402121E02
:10304C007EE0F508A3E085080AF50B7407780A12F0
:10305C001E10780A12212F010004D03072308530F6
:10306C009430A730BA30AC18AD197401121E90E52B
:10307C0008547FF912186980467401121E90E508F5
:10308C00547FF912186F8037AC18AD197401121EE9
:10309C0090E508547FF91218758024AC18AD19749A
:1030AC0001121E90E508547FF912187B8011AC18A0
:1030BC00AD197401121E90E508547FF9121863E9DA
:1030CC00F5088003750801EEFAEFFB121917900F43
:1030DC003F747FF0A37406F0E508A3F07402121E8F
:1030EC007E124416900F42F0E944FCA312576C90E8
:1030FC000F44F07C3F7D0F851882851983E02406F0
:10310C00FA79FF120B3179007407024E23F98518F6
:10311C0082851983E8F0A3E9F02274EB121EA28ACF
:10312C00828B83ECFEEDFFA31232518C828D83E4F3
:10313C00F0850A82850B83A3858208858309E914AF
:10314C00600C14604F147003023241023248850A3D
:10315C0082850B83E0F50A850882850983E0F50BEF
:10316C00C394324003023244AA0BA90A121857E93D
:10317C0060030232447C457D0FAA0BA90A121A3156
:10318C00E9FA600302324A8508828509831257AF37
:10319C00F002324A850A82850B83E0F50C850882A1
:1031AC00850983E0F508FAA90C121857E9600302A7
:1031BC003244E50A2402FEE4350BFFEEFCEFFDAAD7
:1031CC0008A90C121A2BE9FA7404650C70708E8223
:1031DC008F83124C29850A82850B83A3A3A31232F9
:1031EC0066F512F51374087810121BDB780C791045
:1031FC00121BFA850A82850B83A3A312325C121B65
:10320C00DB780C7910121BFA850A82850B83A3A339
:10321C00A3A3A3E0F508E4F509F50AF50B741878F7
:10322C0008121BDB780C7908121BFA900F0F780C24
:10323C00121CE180091218E17A0280027A01EAF983
:10324C007F0D021F74A3A3A3E0F50AA3E0F50B22E4
:10325C00A3A31232667410781022E0F510E4F51175
:10326C002274F4121EA274EA121E3289088A821287
:10327C003304FEA3E0FCE4CCFDEE2CE43DFFE8249B
:10328C0002FCE439FDE50824F6602324F8704012B2
:10329C0032F01220B57402121E90120C63740212DA
:1032AC001E48E9F9702B1232E2120BE5801D123226
:1032BC00F01220B57402121E90120C7B7402121EB6
:1032CC0048E9F9700C1232E2120BDFE9F98002794D
:1032DC00017416024E23900F0EE0F9AC18AD19EEE6
:1032EC00FAEFFB228A828B83A3A3A3E024FEF50AC8
:1032FC00E434FFF50B780A228B83A3A3A3A3E0F895
:10330C00A3E0F98882F583E02274EC121EA274EB20
:10331C00121E32890BEAF8EBF97E007F00750A4029
:10332C00EA2403F50EE439F50F850E82F583E0FAF5
:10333C00C39402500579400236F08882123304F5AA
:10334C0008A3E0FDE5082EE43DF50975126475133C
:10335C0083E82403F510E439F511E82402F50CE4B4
:10336C0039F50DE50B1220F9011DE33BB433E033C5
:10337C0012343E347F34B33446357A3534366C36B9
:10338C009B36FA362B377637B637FF377738AB386C
:10339C003139E33BE33B5939093A523AF93AE33BC9
:1033AC00213BE33B5E3BBB3BA818A919880E890F58
:1033BC00780E1220B5123C301203217402121E48F2
:1033CC00E960030236EBAC18AD19AA08AB0912027E
:1033DC00BB023726A818A919880E890F780E12205F
:1033EC00B5123C5B1220B5AC0CAD0D7A0079001215
:1033FC00032D7404121E48E960030236EB123CA242
:10340C001206BD023726A818A919880E890F780E46
:10341C001220B5123C301203397402121E48E960B6
:10342C00030236EBAC18AD19AA08AB091202C102A3
:10343C003726A818A919880E890F780E1220B512F4
:10344C003C5B1220B5AC0CAD0D7A00790012034533
:10345C007404121E48E960030236EB7402121E7EDD
:10346C001220CC900F0EE0F97402121E7E1243F162
:10347C00023623123C5570030236EBA818A91988A2
:10348C000C890D780C1220B5123C8F12035174026A
:10349C00121E48E960030236E4AC18AD19AA08AB59
:1034AC00091202C7023665A818A919880E890F7867
:1034BC000E1220B5123C5B1220B5AC0CAD0D7A008F
:1034CC00790012035D7404121E48E960030236EBA6
:1034DC007404121E7E123C871220B57407121E7ED5
:1034EC0085820C85830D780C1220B5123BFF121EC1
:1034FC0048E97003023AF3851882851983E0640168
:10350C007002A3E06003023AF37402121E7EE0F430
:10351C007003A3E0F46003023AF31243F81220B9EB
:10352C007408121E7EE0F97409121E7E123C791288
:10353C0006C97401121E48023726123C557003024C
:10354C0036EBA818A919880C890D780C1220B51225
:10355C003C8F1203697402121E48E960030236E4C0
:10356C00AC18AD19AA08AB091202CD023665A81821
:10357C00A919880E890F780E1220B5123C5B122007
:10358C00B51243A0121E48E960030236EB74041214
:10359C001E7E123C871220B57407121E7E85820C8B
:1035AC0085830D780C1220B57C027D007A607B83BC
:1035BC00123C07121E48E9601A7402121E7E122079
:1035CC00CC900F0EE0F97402121E7E123C7912069A
:1035DC00CF80447404121E7E123C871220B57407EF
:1035EC00121E7E85820C85830D780C1220B57C0210
:1035FC007D007A6C7B83123C07121E48E9602074B4
:10360C0002121E7E1220CC900F0EE0F97402121ED4
:10361C007E123C791206D57402121E48023726120D
:10362C003CA21206ED023726123C5570030236EB13
:10363C00A818A919880C890D780C1220B5123C8F8A
:10364C001203817402121E48E960030236E4AC18BE
:10365C00AD19AA08AB091202D3E9F50A707A807F7A
:10366C00A818A919880E890F780E1220B5123C5B88
:10367C001220B5AC0CAD0D7A00790012038D7404D8
:10368C00121E48E97059123CA21206E7023726EACC
:10369C00C394034003123C41850E82850F83E0FAEC
:1036AC0074026A6004EE4F6036A818A919880C8958
:1036BC000D780C1220B5123C271203997402121EBD
:1036CC0048E97010AC18AD19AA08AB091202D9E977
:1036DC00F50A600BEE4F6007EEFAEFFB121977A9B3
:1036EC000A1218AB7415121E487F0C021F74A8180E
:1036FC00A919880E890F780E1220B5123C5B122086
:10370C00B5AC0CAD0D7A0079001203B77404121E1F
:10371C0048E970CB123CA21206F3E9F50A80C0EA24
:10372C00C394034003123C41850E82850F83E0FA5B
:10373C0074026A6004EE4F60A6A818A919880C8957
:10374C000D780C1220B5123C271203C37402121E02
:10375C0048E97080AC18AD19AA08AB091202DFE970
:10376C00F50A60030236E00236EB123C5570030298
:10377C0036EBA818A919880C890D780C1220B58580
:10378C000E82850F831244231220B5EAFCEBFD7ADE
:10379C000079001203CF7404121E48E9600302364C
:1037AC00E4123CA21206F9023665EAC39403400304
:1037BC00123C41850E82850F83E0FA74026A600721
:1037CC00EE4F70030236EBA818A919880C890D78F6
:1037DC000C1220B5123C271203DB7402121E48E9AE
:1037EC0060030236E0AC18AD19AA08AB091202E569
:1037FC0002376BA818A919880E890F780E1220B5FC
:10380C00123C5B1220B51243A0121E48E960030261
:10381C0036EB7404121E7E123C871220B57407120C
:10382C001E7E85820C85830D780C1220B5123BFF11
:10383C00121E48E97003023AF3851882851983E059
:10384C0064017002A3E06003023AF37402121E7E5C
:10385C00E0F47003A3E0F46003023AF3900F0EE07F
:10386C00F9AA08AB091206C3023726123C5570039D
:10387C000236EBA818A919880C890D780C1220B502
:10388C00123C8F1203E77402121E48E960030236E1
:10389C00E4AC18AD19AA08AB091202EB023665EAC2
:1038AC0024FCFCE434FFFDE82404FAE439FB121890
:1038BC00B18A128B13AE12AF13EA4F70030236EBC0
:1038CC00A818A9198812891378121220B5850E82AE
:1038DC00850F83E024FC123C6F1220B5EAFCEBFD53
:1038EC00851082851183124C131243B6121E48E9BF
:1038FC0060030236E47406121E7EE07008123CA2CD
:10390C0012070B80187405121E7EE0AC18AD19AAB4
:10391C0008AB0970051206FF8003120705E9F50ACA
:10392C00E50A023B57A818A919880E890F780E12C0
:10393C0020B5123C301203AB7402121E48E960032E
:10394C000236EBAA08AB091202F1023726123C3000
:10395C001218B18A088B09AE08AF09EA4F7003023E
:10396C0036EBA818A9198808890978081220B5859A
:10397C000E82850F83E024FEF508E434FFF5097808
:10398C00081220B5EAFCEBFD7A0079001203F374FF
:10399C0004121E48E960030236E4900F9812441199
:1039AC00700F7A237B001219C5900F98EAF0A3EBE5
:1039BC00F0900F98124411603E900F97E0C394055D
:1039CC004003023AF312440429F075080775090004
:1039DC0078081220B57402121E98E975F007A4F845
:1039EC00A9F0900F98E028FAA3E039123BFA121EC6
:1039FC0048750A000236EB750A130236E4123C5580
:103A0C0070030236EBA818A919880C890D780C12D2
:103A1C0020B5123C8F1203FF7402121E48E960039A
:103A2C000236E4AC18AD19AA08AB091202F7E9F595
:103A3C000A60030236E47405121E7E1244117003F0
:103A4C000236E40236EBA818A919880E890F780EF5
:103A5C001220B5123C5B1220B5AC0CAD0D7A00797E
:103A6C000012040B7404121E48E960030236EB903A
:103A7C000F9812441160701243F81220B97401129D
:103A8C001E7E1243FB1220B9900F97E0F9900F980D
:103A9C00123C791207177402121E48E9F50A6039B4
:103AAC007E008022EE75F007A4F8A9F0900F98E044
:103ABC0028FAA3E0398A82F583A3A3125B01EA4BAF
:103ACC0060031219770E900F97E0F8EEC39840D46C
:103ADC00900F98125B041219CB900F98E4F0A3F09E
:103AEC00900F97F00236EB750A020236E0A818A97F
:103AFC0019880E890F780E1220B5123C3012041161
:103B0C007402121E48E960030236EBAA08AB0912D4
:103B1C0002FD023726123C0D70030236EBA818A9E1
:103B2C00198810891178101220B5123C621220B538
:103B3C00123BE9121E48E960030236E4850C8285CB
:103B4C000D83123CA51207FBE9F50A60030236E46B
:103B5C00804D123C0D70030236EBA818A919881081
:103B6C00891178101220B5123C621220B5123BE973
:103B7C00121E48E960030236E41243F81220B9859C
:103B8C000C82850D83124404121E98AA08AB0912EC
:103B9C0007F57401121E48E9F50A60030236E47455
:103BAC0003121E7E12441170030236E00236EBA89B
:103BBC0018A919880E890F780E1220B5123C3012F4
:103BCC0004237402121E48E960030236EBAA08AB08
:103BDC00091202AF023726750A010236EBEAFCEB3A
:103BEC00FD7A00790012041D740422FAE43FFB12E2
:103BFC005766227C027D00AA12AB1312042F7404A8
:103C0C0022EA24FDFCE434FFFDAA10AB111218B11A
:103C1C008A108B11AE10AF11EA4F22EA123C9AEEC9
:103C2C00FAEFFB22EA123C3522123C3922123C9A62
:103C3C00AA0CAB0D22123C4522EA123C391218B1E7
:103C4C008A0C8B0DAE0CAF0D22123C45EA4F22EACA
:103C5C0024FE123C6F22850E82850F83E024FD1218
:103C6C003C6F22F50EE434FFF50F780E22123C7DEA
:103C7C0022E0FCA3E0FDAA08AB0922E0F50C8E0DB6
:103C8C00780C22850E82850F83E0123C9A2224FE4A
:103C9C00FCE434FFFD22900F0EE0F9AC18AD19AA2C
:103CAC0008AB092274E8121EA274EA121E32E985CE
:103CBC001882851983F0750E00750F00750A40EA9D
:103CCC002403F510E43BF511851082F583E0F9C36C
:103CDC009402500579400242378A828B83A3A3A3B6
:103CEC00A3E0FEA3E0FF8E82F583E0FCA3E0FAE400
:103CFC00CAFBEC2AF508E43BF509EE2402F50CE4CA
:103D0C003FF50DEE2403F512E43FF513851882857B
:103D1C001983E0122175001602683D046C3E06B052
:103D2C003D083B3E0AB43E0C203F0E5B3F10A33DCA
:103D3C001221401659401BEE421D374330C93D320B
:103D4C00C93D34EF3E36A53F38E23F3ACF403C46C2
:103D5C00423E804240B7424259409A437401121E7F
:103D6C00908A0E8B0F780E1220B5E9123C5C122053
:103D7C00B5AC0CAD0D7A00790012032D7404121E33
:103D8C0048E96003024232124401121E98AA08ABA1
:103D9C00091206BD02427B900F0EE0F9AA0812062A
:103DAC00C302427B1243F81220B91919AC0CAD0DA9
:103DBC00AA081206C97401121E4802427BE924FEAD
:103DCC00F8E434FFF9740468496003024232850C4C
:103DDC0082850D83E0FA851282851383E0F8E4C8AE
:103DEC00F9EA28FCE439FD8E828F83A3A3A3A3E018
:103DFC00FA8E828F83A3A3A3A3A3E0F9EAF50AE4C6
:103E0C0039F50B851882851983E06430780A7010B7
:103E1C001220B5900F0EE0F9AA081206CF023EACA4
:103E2C001220B5900F0EE0F9AA081206D580717415
:103E3C0001121E908A0E8B0F780E1220B5E9123CDF
:103E4C005C1220B51243A0121E48E96003024232F4
:103E5C00124401121E98AA08AB091206DB02427B1F
:103E6C007401121E908A0E8B0F780E1220B5E91277
:103E7C003C5C1220B5AC0CAD0D7A007900120345F8
:103E8C007404121E48E960030242327403121E7E4F
:103E9C001220CC900F0EE0F97403121E7E1243F127
:103EAC007402121E4802427B7401121E908A0E8B01
:103EBC000F780E1220B5E9123C5C1220B5AC0CAD9B
:103ECC000D7A00790012038D7404121E48E9600308
:103EDC00024232124401121E98AA08AB091206E7DC
:103EEC0002427B7401121E908A0E8B0F780E1220E8
:103EFC00B5E9123C5C1220B51243A0121E48E960D1
:103F0C0003024232124401121E98AA08AB0912068F
:103F1C00ED02427B7401121E908A0E8B0F780E12EA
:103F2C0020B5E9123C5C1220B5AC0CAD0D7A0079D1
:103F3C00001203B77404121E48E9600302423212E5
:103F4C004401121E98AA08AB091206F302427B1216
:103F5C0043CC70030242327401121E88880C890D06
:103F6C00780C1220B512441D1220B5AC0EAD0F7A90
:103F7C000079001203CF7404121E48E96003024258
:103F8C002B124401121E98AA08AB091206F9E9F586
:103F9C000A600302422B0242321243CC70030242EB
:103FAC00327401121E88880C890D780C1220B512FF
:103FBC00441D1220B5AC0EAD0F7A011243B4121E83
:103FCC0048E9600302422B7401121E98AA08AB093F
:103FDC001206FF02432D1243CC70030242327401CD
:103FEC00121E88880C890D780C1220B512441D12F3
:103FFC0020B5AC0EAD0F7A0179011243B6121E48F2
:10400C00E9600302422B7401121E98AA08AB091234
:10401C00070502432D1243CC700302423274011285
:10402C001E88880C890D780C1220B512441D1220A4
:10403C00B51243AE121E48E9600302422B12440132
:10404C00121E98AA08AB0912070B02432D1243CC7F
:10405C0070030242327401121E88880C890D780C90
:10406C001220B512441D1220B5AC0EAD0F7A00799A
:10407C00001203F37404121E48E9600302422B85FC
:10408C001882851983E06416900F0E700F12440489
:10409C00121E98AA08AB09120711800D12440412C3
:1040AC001E98AA08AB0912072FE9F50AE50A600366
:1040BC0002422B7406121E7E124411700302422B14
:1040CC00024232E924FEF8E434FFF9C3E89401E932
:1040DC009400A2D265D0335003024232850C828503
:1040EC000D83E0F5107003024241C39406400302B5
:1040FC004241E51075F007A4FEA8F0E8FFEEFAE8DF
:10410C00FB1219C58A148B15EA4B700302423CEE64
:10411C00FCEFFD7900121905AE12AF13750B008080
:10412C0034E8FEE9FF85160C85170D780C1220B5C6
:10413C00750C04750D00780C1220B5EEFCEFFD7AB1
:10414C000079001203F37404121E48A811EE28FE25
:10415C00E43FFF050BE50BC39510505E751104E5AC
:10416C000B75F007A4F8A9F0E51428F516E5153938
:10417C00F5178E828F83A3A882A9838E828F83E00A
:10418C00FA609E74042AF511E8FEE9FFE511F50CBE
:10419C00750D00FCAD0DE8FAE9FB1243D470057502
:1041AC000A13804185161285171378121220B578E0
:1041BC000C1220B5AC0EAD0F8085E510650B70258B
:1041CC001243F81220B9750A01780A1220B9A91005
:1041DC00AC14AD15AA08AB091207177402121E48CD
:1041EC00E9F50A6034750B008021E50B75F007A426
:1041FC00F8A9F0E51428F582E51539F583A3A31287
:10420C005B01EA4B6003121977050BE50BC39510A4
:10421C0040D8AA14AB151219CBE50E450F6007AAAE
:10422C000EAB0F121977A90A1218AB7416025E9D09
:10423C00750A1380F1750A0280EC7401121E908AC3
:10424C000E8B0F780E1220B5E9123C5C1220B5AC27
:10425C000CAD0D7A00790012038D7404121E48E91E
:10426C0070C4124401121E98AA08AB0912071DE96A
:10427C00F50A80B27401121E908A0E8B0F780E1202
:10428C0020B5E9123C5C1220B5AC0CAD0D7A00796E
:10429C00001203B77404121E48E9708A124401120A
:1042AC001E98AA08AB0912072380C41243CC7003D2
:1042BC000242327401121E88880C890D780C12206F
:1042CC00B512441D1220B51243AE121E48E960030C
:1042DC0002422B124401121E98AA08AB091207299C
:1042EC00803F1243BC70030242327401121E888854
:1042FC0012891378121220B51243DE1220B5AC0EBF
:10430C00AD0F123BED121E48E9600302422B850CE7
:10431C0082850D83124404121E98AA08AB09120759
:10432C00FBE9F50A600302422B80531243BC700375
:10433C000242327401121E888812891378121220DC
:10434C00B51243DE1220B5AC0EAD0F123BED121EB2
:10435C0048E9600302422B1243F81220B9850C8203
:10436C00850D83E0F97402121E98AA08AB09120796
:10437C00F57401121E48E9F50A600302422B74041D
:10438C00121E7E1244117003024225024232750A3B
:10439C0001024232AC0CAD0D7A0079001203757437
:1043AC000422AC0EAD0F7A00790012039F74042224
:1043BC00E924FDFCE434FFFDAA12AB131243D42212
:1043CC00E9123C351243D4221218B18A0E8B0FEA33
:1043DC004B22851082851183E024FDF510E434FF17
:1043EC00F511781022123C7D1206E122900F0EE09E
:1043FC00F50A780A22900F0EE0F9740122A3A3A308
:10440C00A3A3A3A3A31244164922E0F8A3E0F9E85E
:10441C0022851082851183E024FEF50CE434FFF52F
:10442C000D780C2274EA121EA274A5121E328C0E88
:10443C008D0F8A828B83A3A3A3A3E0FEA3E0FF7559
:10444C001200EE2404F510E43FF511EE2403F50CF4
:10445C00E43FF50DEE2402F508E43FF5098E828F5A
:10446C0083A385820A85830BE9700302450F24FD23
:10447C00700302461114700302465A14700302466C
:10448C009A1470030246F914700302476D147003FA
:10449C000247841470030246A514700302478F145C
:1044AC007003024805147003024A61147003024B36
:1044BC00031470030249E11470030249671470037A
:1044CC0002495E1470030247A824E17003024A8378
:1044DC00147003024AB8147003024A721470030277
:1044EC004B0B147003024B66147003024B78147060
:1044FC0003024B8B147003024B80147003024B8B22
:10450C00024B908E828F83E0F5147C107900AA0800
:10451C00AB0912196BE97019750C10750D00780C3C
:10452C001220B5AC08AD097A777B0F123BFB121E3B
:10453C0048EE2412F508E43FF5097C107900AA082E
:10454C00FB12196BE97019750C10750D00780C12B3
:10455C0020B5AC08AD097A877B0F123BFB121E48C5
:10456C00EE2422F582E43FF583124C29EE2423F548
:10457C0082E43FF583124C47121BDB780C79101246
:10458C001BFAEE2424F582E43FF58312325E121BF3
:10459C00DB780C7910121BFAEE2425F582E43FF53A
:1045AC0083124C1E121BDB780C7910121BFAE50CD3
:1045BC00450D450E450F6008900F0F780C121CE14D
:1045CC0075080F75090F78081220B57508877509DD
:1045DC000F78081220B57C777D0F850A82850B83B6
:1045EC00E0FBAA14900F0EE0F91217377404121E98
:1045FC0048E9F512900F0EE0FC7D007A267B001244
:10460C0004A7024B937508007509009082BC740ACC
:10461C00121E987406121D45750C06F50D780C12B9
:10462C0020B5740C121E98AA0AAB0B1218FF740258
:10463C00121E48E964016006850A08850B09AA0860
:10464C00AB098E828F83E0F91204BF024B7B900F73
:10465C000EE0C0E07410121E7ED0E0F08E828F83CC
:10466C00E0C0E07411121E7ED0E0124CB8C0E074B1
:10467C0012121E7ED0E0124CAFC0E07413121E7EDC
:10468C00D0E0F07410121E90120447024B7B900F76
:10469C000EE0F912044D024B7B900F0EE085188250
:1046AC00851983F08E828F83E0C0E07401121E7E28
:1046BC00D0E0124CB8C0E07402121E7ED0E0124C56
:1046CC00AFC0E07403121E7ED0E012578B1220B5DF
:1046DC00AC0CAD0D7406121E7EAA82AB83123BFB92
:1046EC00121E48AA18AB19120489024B7B8E828FBA
:1046FC0083E0851882851983124CB8C0E0740112CE
:10470C001E7ED0E0F00E0EAF097508067509007814
:10471C00081220B5EEFCEFFD7404121E7EAA82ABCB
:10472C0083123BFB121E488E828F83A3A3A3A3A3E9
:10473C00A3E0C0E07408121E7ED0E0F08E828F835E
:10474C00A3A3A3A3A3A3A3E0C0E07409121E7ED06D
:10475C00E0F0AA18AB19900F0EE0F91205C7024B46
:10476C007BAC08AD09E0FB8E828F83E0FA900F0ED4
:10477C00E0F91205CD024B7B900F0EE0F91205D338
:10478C00024B7B850882850983E0FC124C51E4398D
:10479C00FB900F0EE0F9120531024B7B124C0EEA26
:1047AC008518828519831231210E0EAF098E828FE6
:1047BC0083124C137402121E7EEA1231210E0EAFBC
:1047CC00118E82124C067404121E7E124CA55001DE
:1047DC000F124C047406121E7EEA123121EE2402D2
:1047EC0050010F124C047408121E7EEA123121AAD9
:1047FC0018AB19120537024B7B750E00750F007C38
:10480C00187D0079007414121E90121905124C0EAA
:10481C007414121E7EEAF0A3E9124CAFC0E07416B9
:10482C00121E7ED0E0125B1DC0E07417121E7ED0EB
:10483C00E0F0AE10AF117508107509007808122061
:10484C00B5EEFCEFFD741A121E7EAA82AB83123BEE
:10485C00FB121E48EE2410124BECC0E07428121E02
:10486C007ED0E0F0EE2411124BECC0E0742B121E43
:10487C007ED0E0F0EE2412124C34EAA2E35004D2C3
:10488C00F08002C2F0124BF4121E1F124B9F121E2C
:10489C001F124BD6121E1F124BC3121E1F124BB0EF
:1048AC00121E1FED4509F97429121E7EEC123121DE
:1048BC00EE2413124BEC700302494FEE2414124BEE
:1048CC00ECC0E0740A121E7ED0E0F0EE2415124B00
:1048DC00ECC0E0740B121E7ED0E0F0EE2416124BEE
:1048EC00ECC0E0740C121E7ED0E0F0EE2417124BDC
:1048FC00ECC0E0740D121E7ED0E0F0EE2418124CC9
:10490C0034750900EAA2E35004D2F08002C2F0121E
:10491C004BF4121E1F124B9F121E1F124BD6121E4F
:10492C001F124BC3121E1F124BB0121E1FED450956
:10493C00F9740E121E7EEC123121740A121E888834
:10494C000E890FAC0EAD0F7414121E90120543029B
:10495C004B7B124C6D120549024B7B124C8612207C
:10496C00B5EEFCEFFD7442121E90123BFB121E487A
:10497C00EE2410FE50010F124C047450121E7E12C5
:10498C004CA550010F750C08780C1220B5EEFCEFFD
:10499C00FD7454121E7EAA82AB83123BFB121E487E
:1049AC008E828F83A3A3A3A3A3A3A3A3E0C0E074CD
:1049BC005A121E7ED0E0F075090178091220B974E4
:1049CC0041121E98A908AA0AAB0B12055B740112BE
:1049DC001E48024B7B124C861220B5EEFCEFFD7488
:1049EC002E121E90123BFB121E48EE2410FE50019C
:1049FC000FF5828F83E0F50CE4F50EF50FA3124C46
:104A0C0047121BDB780C7910121BFA8E828F8312E3
:104A1C00325C121BDB780C7910121BFA8E828F839E
:104A2C00A3A3A3124C1E121BDB780C7910121BFAD9
:104A3C00743C121E7EE50CF0A3E50DF0A3E50EF020
:104A4C00A3E50FF0742C121E98A908AA0AAB0B123E
:104A5C00053D024B7B124C51FCE439FDAA08AB0915
:104A6C0012054F024B7BEE2410FCE43FFDEEFAEFF7
:104A7C00FB120513024B7B8E828F83E0FA7B008541
:104A8C000A82850B83E0FC850882850983E0F9ECBA
:104A9C002BE439FDEA64267003024B8BEA942795CC
:104AAC00E04003024B8B1204A7024B7B78FF79FF8B
:104ABC008E828F83E0FA7B00C394FF95E05022EA4C
:104ACC006426601DC3EA942795E050151204AD8A44
:104ADC00088B09A808A90974FF68700374FF697032
:104AEC0003751202850E82850F837402F0E8900F15
:104AFC0045F0E9A3024B88124C6D1206458070E01C
:104B0C00F50EF50C750D002404FAE43400FB125775
:104B1C000060428E828F83125899F0A3E50EF0EA62
:104B2C002404FAE4350BFB850A82850B83A3A3EAE4
:104B3C00F0A3EBF0780C1220B5AC08AD09123BFBDE
:104B4C00121E48AA0AAB0B1205D9E9F5126038AA55
:104B5C000AAB0B8012751213802D8E828F83E0F9B5
:104B6C001205DFEA4B60181219CB801B1205E5E920
:104B7C00F51280137512028C828D83E4F080087517
:104B8C0012028003751201A912745B121E487F0E6B
:104B9C00021F74EC45085407FCA2F0E433F50874CA
:104BAC0003780822ED4509FDEAA2E7E433F5087520
:104BBC000900740B780822ED4509FDEAA2E6E433FE
:104BCC00F508750900740A780822EC4508FCEAA27D
:104BDC00E4E433FDEAA2E5E433F50874097808222D
:104BEC00F582E43FF583E02254FDFCE828F8EC481C
:104BFC0054FBFC7402780822F5828F83E0FAA3E060
:104C0C00F922124C5FF922E0FA850C82850D83E0C3
:104C1C00F922E0F510E4F5127418781022E0F50C86
:104C2C00E4F50DF50EF50F22F582E43FF583E0FA7D
:104C3C00C313F8EA1313543FF50822123266F51326
:104C4C007408781022124C5522124C5FF8E4C8F903
:104C5C00EA28228E828F83E0FA850A82850B83E014
:104C6C0022850882850983E0F98E828F83E0FC859A
:104C7C000A82850B83E0FBECFA22124C55F50AE410
:104C8C0039F50B850882850983E0F5080E0E0EAF09
:104C9C000D750C10880D780C22EAF0A3E9F0EE24C7
:104CAC0002FE22F0850882850983E022F0850A82C3
:104CBC00850B83E02274F4121EA274FD121E32EADC
:104CCC00FEEBFF851882851983E4F0F508F50904DD
:104CDC00121E7EE4F07402121E7E7401F07C2C7D98
:104CEC000079007A137B0F1219058E828F83E024D2
:104CFC0060606F24FE605124F27003024D971470B3
:104D0C0003024DC524E16003024DE67402121E88B5
:104D1C008808890978081220B57403121E8888083F
:104D2C00890978081220B57404121E88880889092C
:104D3C0078081220B57C137D0FEEFAEFFB12188762
:104D4C007406121E48024DE2A818A9198808890990
:104D5C0078081220B57C137D0FEEFAEFFB12188D3C
:104D6C00806F7401121E888808890978081220B592
:104D7C007402121E888808890978081220B57C13E1
:104D8C007D0FEEFAEFFB12189380277401121E8828
:104D9C008808890978081220B57402121E888808C0
:104DAC00890978081220B57C137D0FEEFAEFFB12FF
:104DBC0018997404121E48801DA818A9198808890E
:104DCC000978081220B57C137D0FEEFAEFFB121850
:104DDC009F7402121E488A088B097402121E7EE010
:104DEC006007EEFAEFFB121917851882851983E01C
:104DFC00600AAC08AD09FA79FF120B31E5084509D8
:104E0C0060117401121E7EE064017007AA08AB09E0
:104E1C001219CB79007403121E487F04021F74749C
:104E2C00E8121EA274FC121E328A088B09ECFEEDED
:104E3C00FF751000750A00750B007420121E7E128F
:104E4C005E96EC2406F8E43FF9EC2405FAE43FFB0B
:104E5C00EC2402F516E43FF5178C828D83A3858232
:104E6C0012858313E5082403F50CE43509F50D854B
:104E7C000882850983A385820E85830F8508828528
:104E8C000983A3A3E0605D147003024F6A147003DE
:104E9C000250951470030250AB1470030250B314FB
:104EAC0070030250C6147003025176147003025141
:104EBC00981470030251FE147003025217147003FD
:104ECC000252B71470030252881470030255A314D3
:104EDC0070030255DA1470030254DC14700302548C
:104EEC00EF0256668C828D83E41258501220B51254
:104EFC00571D121E4812589FC0E01256C0D0E0F049
:104F0C0075081075090078081220B57C777D0FEEB6
:104F1C00240C123BF7121E4878081220B57C877DB2
:104F2C000FEE241C123BF7121E48850E82850F8350
:104F3C00E070217C777D0F7A107902121A2B7C8716
:104F4C007D0F7A107903121A2B7C0F7D0F7A04795E
:104F5C0004121A2B8E0A8F0B75102C025666850EB6
:104F6C0082850F83E0600302506A850C82850D8375
:104F7C00E0700302507F33333354F824041256FB91
:104F8C0070030250618A828B83740112587FEA2469
:104F9C0004F8E4350B123119850882850983A3A323
:104FAC00A3A3E0F8A3E0F97402121E7E123120755F
:104FBC0011000250447402121E7E125B10E0C0E01D
:104FCC00125B0AD0E0F07402121E7E125B10A3E09A
:104FDC00C0E0125B0AA3D0E012576C2402F8A3E0E5
:104FEC003400F9851882851983E8F0A3E912578BF0
:104FFC001220B57404121E7EE02402FCA3E03400DF
:10500C00FD7402121E7E125B04123BFB121E4885BD
:10501C001882851983E02406F8A3E03400123119B4
:10502C0005117402121E7EE02408F8A3E03400F986
:10503C007402121E7E123120850C82850D83E0F8DD
:10504C00E511C3985003024FC1741E121E7E125BF1
:10505C001074018008850E82850F837413F0850E01
:10506C0082850F83E0700C850C82850D83E06003D4
:10507C000256668E828F83740112582A8E828F8319
:10508C00A3A3A3E41257A280108C828D8374021206
:10509C00577D12585C8C0A8D0B7510040256668C69
:1050AC00828D83740380068C828D83740412582A3B
:1050BC008C0A8D0B7510030256668C828D837405D9
:1050CC00125775041259021220B512570A121E48B3
:1050DC00850882850983A3A3A3A3A3A3A3A3A3A346
:1050EC00125F4C12580AC0E01256C0D0E012587928
:1050FC00C0E01256A9D0E0125795E0C0E0125684D9
:10510C00D0E0125795A3E0C0E0EE240EF582E43F08
:10511C00F583D0E0F0E508240F12568EC0E0EE24A3
:10512C000FF582E43FF583D0E0125B2AC0E0125603
:10513C00E4D0E0F0E508241112568EC0E01256DAE5
:10514C00D0E0125B2AC0E0EE2412F582E43FF58336
:10515C00D0E0F0E50824131256B7C0E01256CAD0BE
:10516C00E01257A27510140256668C828D83740659
:10517C0012577512585C12591AA31258218A828B35
:10518C0083F08C0A8D0B7510060256668C828D830B
:10519C0074071257751412582D850882850983A33C
:1051AC00A3A31259201258218C828D83A3A3A3A3ED
:1051BC001257BF8A828B831257CD888289831258EB
:1051CC00411257E18C828D83A3A3A3A3A3A3A3A312
:1051DC001257D212592112580A8C828D83A3A3A381
:1051EC00A3A3A3A3A3A3A3F08C0A8D0B75100B028E
:1051FC0056668C828D8374081258FF1220B5125794
:10520C000A121E488E0A8F0B02559D8C828D837458
:10521C00091258FF1220B512570A121E488508822F
:10522C00850983A3A3A3A3A3A3A3A3A3A3780C126D
:10523C001CD28E828F83A3A3A3A3A3A3A3A3A3A3F4
:10524C00125802121CD2E50DF50C1256C01258025F
:10525C00121CD27410780C121BC21256A9E50C1237
:10526C0057D27808121CD274187808121BC2125626
:10527C0084E5081257A275100E0256668C828D8337
:10528C00740B1258501220B512571D121E4812588A
:10529C009FC0E01256C0D0E0125879C0E01256A957
:1052AC00D0E01257A275100D02566675106A7A6A14
:1052BC001256FE70030254BA741E121E7E125E96B3
:1052CC007C6A7D007900121905850A82850B83742E
:1052DC000AF0A3AE82AF8312567A125F4C1257B506
:1052EC001257A81258218E828F83A3A3A3A3F0EE8A
:1052FC0024211256EE12440B606E8E828F83A3A370
:10530C00A3A3A374011257FA125F44A3A3A3A3A3EC
:10531C00F0EE2407FE50010F750E10750F00780E7D
:10532C001220B5850882850983125753121E4885B1
:10533C00088285098312572BC0E01256E4D0E01284
:10534C0057FA1256D4C0E01256DAD0E0F0EE24121E
:10535C00FE50010F750E08780E1220B58508828557
:10536C00098312573F121E48AE0CAF0DEE241C12CF
:10537C0056EEA3A3124409606E8E828F83740112C1
:10538C005819125F44F0EE2402FE50010F750E10F6
:10539C00750F00780E1220B5850882850983A3A3AA
:1053AC00125751121E48850882850983A3A3A3A313
:1053BC0012572BC0E01256E4D0E01258191256D4F2
:1053CC00C0E01256DAD0E0F0EE2412FE50010F7558
:1053DC000E08780E1220B5850882850983A3A3A335
:1053EC00A312573F121E48AE0CAF0DEE2417F50C4E
:1053FC00E43FF50D12569912441160398E828F8359
:10540C007401F0A30EAF83750E10750F00780E1299
:10541C0020B5125699125759121E48EE2410FE5000
:10542C00010F750E06780E1220B51256B324101209
:10543C005748121E48AE0CAF0D85088285098312A1
:10544C00440970030256668E828F837401F0A30E9A
:10545C00AF83750C10750D00780C1220B585088281
:10546C00850983125751121E48850882850983A32A
:10547C00A3125730780C121CD2EE24101258D712EB
:10548C001CD2E50DF50CEE24111258D7121CD27457
:10549C0010780C121BC2EE24121258D7121CD274A4
:1054AC0018780C121BC21256CAE50C0256658E8275
:1054BC008F83740A12577DF08516828517837413B7
:1054CC001257B5A31257A8A3A3A3A31257A2800DDA
:1054DC008C828D83740E12590B8C0A8D0B751005F2
:1054EC000256668C828D83740F12590B8508828547
:1054FC000983A31258951257BF888289831257CDFE
:10550C008C828D83A3A3A3A3A3A3A3125841A3129C
:10551C0057E1F8A3E0F9E8A2E0E433F508E8540217
:10552C0060047A0280027A00EA4208E854046004BB
:10553C007A0480027A00EA4208E8540860047A0887
:10554C0080027A00EA4208E9540160047A10800271
:10555C007A00EA4208E9540260047A2080027A0058
:10556C00EA4208E9540460047A4080027A00EA4274
:10557C0008E954086004788080027800E845088CBB
:10558C00828D83A3A3A3A3A3A3A3A3A3F08C0A8DAF
:10559C000B75100A0256668C828D83740C12590B93
:1055AC00750A06780A1220B5E5082405FCE43509CD
:1055BC00FD123BFB121E48E508240B1256B7C0E047
:1055CC001256C0D0E01257A275100C025666125635
:1055DC00B3240D1256FB60798A828B83740D12589A
:1055EC007F850882850983125895A3A3A3A3F0EAAB
:1055FC002405FEE4350BFF750C06750D00780C12B6
:10560C0020B5E5082405FCE43509FDEEFAEF123B64
:10561C00FA121E48E508240B1256B78E828F83129D
:10562C0058738E828F83A3125873F50C780C12204A
:10563C00B5E508240D1256B7FCA3E0FDEE240812C4
:10564C003BF7121E48741E121E7E125B10740180F2
:10565C0008850E82850F837413F0741C121E7E1243
:10566C005B10E510F0AA0AAB0B7404025E9D740685
:10567C00F0850E82850F8322EE240DF582E43FF532
:10568C008322F8E43509F98882F583E02212569DCD
:10569C0022E508240CF582E43509F58322EE240C6E
:1056AC00F582E43FF58322E508240CF582E4350904
:1056BC00F583E022EE240BF582E43FF58322EE2401
:1056CC0013F582E43FF583221258ECA3E022EE247A
:1056DC0011F582E43FF58322EE2410F582E43FF5C8
:1056EC008322F50CE43FF50D85088285098322F5AC
:1056FC0010FA7B001219C58A0A8B0BEA4B22E508BB
:10570C002404FCE43509FDEE24041AE43F12576529
:10571C0022AC0CAD0DEE2403FAE43F1257652212B5
:10572C005730E022A3A3A3A3A3A3E0F8A3E0C812DD
:10573C0058F022A3A3A3A3A3A3E02412FCA3E03458
:10574C000012576122A3A3A3A3A3A3A3A3E0FCA3CA
:10575C00E012576122FDEEFAEFFB1218ED740222F3
:10576C00F0851882851983E022F0851282851383D7
:10577C002212578122F0851282851383740622F03F
:10578C00750806750900780822F0E508240DF582E5
:10579C00E43509F58322F08E0A8F0B22125AE61299
:1057AC0057AF22E08E828F8322125B218E828F83F1
:1057BC00A3A3221257C322125F6FA3A3A3A3A3E038
:1057CC00221257E8E0221257D6221257DA22125729
:1057DC00F0A3A3A3221257E8A3A3E0221257EC22B2
:1057EC001257F022125F73A3A3A3A3A3A3221257F1
:1057FC00C3F8A3E0C822E50C1257D6780C22A3A359
:10580C00A3A3A3A3A3A3A31257D6A3E0221258D2F7
:10581C00F8A3E0C822125F68A3A3A3A3E022125747
:10582C0081125831221258352212567CE08516828C
:10583C00851783F0221258F98C828D83A3A3A3A31E
:10584C00A3A3A322125781125831750A06780A2293
:10585C0012586022125835850C82850D83E08C829B
:10586C008D83A3A3A3F022A3A3A3A3A3A3F01256F7
:10587C009DE022F0A312567A125899A3A3125B2131
:10588C008A828B83A3A3A3F022A3A3A3A3E08A827F
:10589C008B8322850882850983A3A3A3A3A3A3A337
:1058AC00A3A3125F5BA3A31258D28E828F83A3A3F0
:1058BC00A3A3A3A3A3A3A3A3F0E508240BF582E45D
:1058CC003509F583E0221257DAE022F582E43FF540
:1058DC0083E50C1258F9F8A3E0C81258EC780C22A6
:1058EC001258F0222410F582E438F583221257EC7A
:1058FC00A3E022125781125860750A06780A221208
:10590C00578112586012591AA3A3A3A3F022850C35
:10591C0082850D83A3E08C828D832274F1121EA2EA
:10592C00EAFEEBFF8C088D09EA2405F50CE43FF543
:10593C000D8A828B83A385820A85830B8A828B8353
:10594C00A3A31220CC850A82850B83E0F9850C82F7
:10595C00850D83E04480FC1259BE121E48E9F50EF9
:10596C00850A82850B83E07035E50829FAE4350950
:10597C00FBEE2406FCE43FFD850C82850D83E014D0
:10598C00600A24F6601024F860078012120C518013
:10599C0008120C698003120C81EA250EF50E740FA7
:1059AC00121E7E125B10E50EF0AA08AB097F0702EF
:1059BC001F747D04AA08AB091218A574022274EA9C
:1059CC00121EA28A0E8B0F8C128D138A828B83A3CC
:1059DC00E0F50A7418121E7EE0F510A3E0F51185AF
:1059EC001082F583E4F0EA2408F50CE4350FF50D8C
:1059FC00850C82F583E02409FEA3E03400FFC3EE9E
:105A0C00942DEF94004031EEFAEFFB1219C58A0881
:105A1C008B09EA4B600B8510828511837401F08031
:105A2C001B851208851309850C82850D83E0F8C34C
:105A3C00EE98FE750A1380048C088D09850E8285FC
:105A4C000F83A3A31220CCA90A7CF01259BE121EFC
:105A5C0048E50E2404F8E4350FF98882F583125AD0
:105A6C00EF125B2A850882850983A3A3A3A3A3A3B2
:105A7C00125B1D850882850983A3A3A3A3A3A3A3FB
:105A8C00125AE6125AEFA3A3A3F0E50E2406F50E64
:105A9C005002050FF582850F83E0FCA3E0FDEC4D71
:105AAC006027E50A7017850C82850D831220CCE5E2
:105ABC00082409FAE43509123BFA121E48850E82B5
:105ACC00850F83125B041219777416121E7E125BFB
:105ADC0010EEF0AA08AB09024B9AF0850C82850DEA
:105AEC0083A322E0850882850983A3A3A3A3A32211
:105AFC00FC8A828B83A3A3A3E0FAA3E0FB22851884
:105B0C0082851983125B1422E0F8A3E0F583888266
:105B1C0022125B2122F0850C82850D83E022125B20
:105B2C002FE022F088828983A32274E8121EA28AB5
