:020000040000FA
:06000000020107022AB212
:03002B00022EA4FE
:03003300022EC4D6
:03005300022B2855
:1000830002290FE5C754F84401F5C779012200009E
:100093000080FB120086B900030200F1E4792178A5
:1000A3000FB800028004F709D8FCE479307802B86D
:1000B30000028004F709D8FCE4900281787C791867
:1000C3008002F0A3D8FCD9FA7AFC7B199001377827
:1000D3006779028015E493A3AD82AE838A828B8312
:1000E300F0A3AA82AB838D828E83D8E9D9E7758288
:1000F300007583F774041201197582917583007476
:100103000012011975D00075813F751881751902A8
:10011300759F00020096C09FF59FE473D09F22D085
:1001230083D082C09FE493C0E0740193C0E0740263
:1001330093F59F228F049B04D104CB04FF0000B4EA
:10014300000028002800283075A000A000A000A00F
:100153000000080008E001F000100010001000107B
:10016300001000100050005000500010001000D08C
:10017300070000000000000F0001000500307507B4
:10018300001000010081FF00000000FFFFFF2706B1
:1001930045062D068706FF02020208025000A00052
:1001A3000000E80302AE910100009D9102B69101A7
:1001B30000005F1A02A491010000C80202B6910177
:1001C3000000601A02A291010000DE0202B6910152
:1001D3000000611A02B891010000E00202B6910129
:1001E3000000621A02B291080000E10202B6910116
:1001F3000000631A02A891010000641AFFFF0100C6
:10020300FF2002AE910100009A9102B69101000015
:10021300C91A02A091000000000002A69103000089
:10022300110317007F117F117F117F117F117F1140
:100233007F117F117F117F117F117F117F110114B6
:100243001F14FB13451557153F15544920424C45C0
:1002530020416C6C00000000000000000000001151
:1002630000FFFF0000033000310032003300340090
:1002730035003600370038003900300031003200D5
:100283003300340035003600370038003900ED1BE9
:10029300421C421C421C421C4A1C120122C8D204AA
:1002A300120122DBD20412012239D3041201225A91
:1002B300D304120122B9D304120122F8D304120188
:1002C3002219D4041201223AD40412012288D4043C
:1002D300120122C7D40412012259D5041201229516
:1002E300D504120122BED50412012257CF041201F4
:1002F300226ACF0412012299CF04120122D1CF0422
:100303001201221AD0041201225DD004120122A389
:10031300D004120122D6D004120122FDD00412010E
:10032300222CD10412012263D1041201227CD104B4
:10033300120122CBD104120122E4D1041201222C96
:10034300D20412012260D204120122A5B1031201C8
:1003530022A3B203120122DEB20312012223B3034A
:100363001201224EB30312012271B303120122734D
:10037300B3031201229DB303120122A0B30312019E
:1003830022DEB30312012214B403120122A3B40325
:100393001201220DB503120122CDB503120122E988
:1003A300B5031201221EB60312012259B60312012C
:1003B30022F5B6031201222CB7031201225DB70303
:1003C30012012260B703120122A5B703120122B260
:1003D300B703120122CAB7031201223AB80312016A
:1003E300223DB8031201224AB8031201224DB80379
:1003F30012012297B8031201229AB803120122C6EE
:10040300B803120122D9B8031201221FB903120142
:100413002222B90312012237B9031201223AB90386
:100423001201229CB9031201229FB9031201221265
:10043300BA0312012215BA031201228FBA03120161
:10044300229BBA03120122CEBA03120122DBBA03A2
:10045300120122DEBA031201222DBB031201223A3A
:10046300BB0312012237BC03120122DBBC031201BE
:100473002247BD0312012283BD0312012294E50327
:100483001201226CE6031201229AE60312012230C2
:10049300E70312012271E703120122D9E7031201D4
:1004A3002267E8031201221CE9031201221BEC0359
:1004B30012012286ED03120122A6ED0312012295F9
:1004C300B70412012231B90412012251B9041201F5
:1004D3002271BA04120122BABA04120122229F0421
:1004E3001201224A9F04120122779F04120122AFB4
:1004F3009F0412012215A0041201226FA10412010C
:1005030022B9A1041201221DA20412012265A20430
:10051300120122A2A204120122D0A2041201226516
:10052300A3041201226FA3041201227CA30412016B
:1005330022AFA304120122BBA304120122D3A304FA
:10054300120122DDA3041201229BF304120122A94A
:10055300F304120122C1F304120122D9F30412019C
:1005630022F0F30412012296B90212012239BA02CF
:1005730012012252BB02120122CABB02120122F152
:10058300BC021201222ABD02120122BFBD021201C6
:100593002257BE0212012244BF02120122EDBF0202
:1005A30012012255C002120122DDC102120122C52D
:1005B300C202120122BCC302120122F2C3021201BF
:1005C3002294C402120122BAC40212012286C60274
:1005D300120122D1C602120122F3C6021201225FC6
:1005E300C7021201222AC802120122E4C802120120
:1005F30022F0CA02120122FACA0212012272F50281
:100603001201224EF602120122F8F60212012232E0
:10061300F702120122CCF702120122E5F7021201BE
:1006230022FFF70212012286F80212012201F902C7
:10063300120122D4F902120122FDF902120122F160
:10064300FA021201222EFB02120122E4FB02120122
:100653002248FC02120122B2FC02120122DFFC0238
:1006630012012244FD02120122FDFE021201222E7A
:10067300FF0212012254FF02120122AFEA04120107
:10068300222EEB0412012259EB0412012269EC041D
:10069300120122FEC30412012214C40412012232E5
:1006A300C40412012242C5041201224CC5041201E2
:1006B3002276C60412012263C704120122CFC704A3
:1006C300120122D9C704120122A18E04120122CEE3
:1006D3008F041201220590041201225C900412017E
:1006E30022549204120122E9E10112012296E2014D
:1006F300120122A6E201120122F3E2011201227C7D
:10070300E3011201222AE4011201225FE401120132
:100713002294E401120122ABE40112012224E50137
:100723001201222EE50112012240E5011201227479
:10073300E501120122BBE501120122FDE5011201CF
:100743002256E60112012261E6011201226CE60142
:1007530012012285E70112012288E7011201228B8F
:10076300E7011201228EE70112012291E701120132
:10077300225DE8011201221EE90112012265E9014D
:10078300120122C9E90112012238EA0112012245AC
:10079300EB01120122FDEB01120122FEEE01120117
:1007A30022BDF0011201225FF1011201222BF2019D
:1007B30012012250F501120122FEF5011201223726
:1007C300F701120122F4F80112012288F901120142
:1007D30022D0F9011201220FFA01120122F8FA01C3
:1007E3001201222CFB01120122B4FB01120122DDB2
:1007F300A70212012264A802120122B8A90212015F
:1008030022C4A9021201223CAA021201221DAB0238
:1008130012012219AC02120122E5AC021201223F9D
:10082300AE0212012255AE0212012276AE0212016D
:100833002208AF021201227EAF02120122A4AF02EC
:1008430012012251B20212012256B2021201227A7D
:10085300B402120122C1B40212012227B50212010D
:10086300226DB5021201223DB602120122F2B60236
:100873001201224EB70212012251B7021201229D28
:10088300B702120122D9B70212012218B8021201CB
:10089300223AB8021201226EB802120122DCB80217
:1008A3001201226BA40412012274A40412012282F5
:1008B300A404120122D2A404120122F1A4041201FD
:1008C300223BA5041201227EA60412012216A704CC
:1008D3001201225AA70412012284A704120122EF53
:1008E300A70412012233A804120122B6A80412019C
:1008F3002265A9041201220A61001201221A610071
:10090300120122B46100120122106200120122CEF0
:100913006200120122F1630012012221640012011C
:100923002250640012012206660012012259680057
:10093300120122B86A00120122A16B001201229156
:100943006C00120122646E001201225C710012011C
:10095300227972001201227374001201228275003F
:10096300120122117700120122FD77001201224C9D
:100973007800120122BC7800120122D878001201FB
:1009830022297900120122C97D00120122DF7E0093
:10099300120122977F0012012204CB021201220EC0
:1009A300CB0212012256CB021201226ACB021201A0
:1009B30022A2CB02120122E9CB021201222ACC028B
:1009C3001201226DCC0212012297CC0212012221C4
:1009D300CD02120122CBCD02120122FACD02120165
:1009E3002231CE021201226CCE02120122A1CE02CA
:1009F300120122CBCE02120122F4CE0212012242B4
:100A0300CF0212012257CF021201226CCF02120130
:100A13002281CF02120122A5CF02120122E8CF02C6
:100A2300120122FDCF0212012268D0021201227CA0
:100A3300D0021201229BD002120122AFD002120176
:100A430022C4D002120122D9D002120122EDD00217
:100A53001201222DD1021201227FD102120122B9E9
:100A6300D102120122DDD10212012209D2021201A6
:100A73002237D20212012261D20212012276D2025D
:100A83001201228BD202120122BBD20212012205D1
:100A9300D30212012267D302120122A2D30212014E
:100AA30022CDD302120122F8D30212012263D4020F
:100AB300120122A6D402120122D1D4021201220170
:100AC300D50212012238D50212012262D502120187
:100AD300229AD502120122C4D50212012201D602A2
:100AE3001201222BD6021201225BD60212012285A9
:100AF300D602120122AFD602120122DAD602120165
:100B03002203D70212012254D7021201229AD702DA
:100B1300120122C5D70212012225D8021201225046
:100B2300D80212012280D802120122C3D802120174
:100B330022EDD80212012212D90212012299D902FE
:100B4300120122B6F704120122E5FE031201224B21
:100B53009903120122249A03120122939A03120188
:100B630022CE9A03120122099C03120122899C03BB
:100B73001201228F9E031201223CA103120122E7DC
:100B8300A103120122C8A20312012242A4031201EB
:100B930022AAA4031201224FA503120122D799040A
:100BA3001201221A9A04120122749B041201224791
:100BB3009C04120122859E04120122E3C704120140
:100BC300228BC804120122C3C804120122D7C8040D
:100BD300120122CAC90412012208CA041201223ACC
:100BE300CA0412012277CA04120122BECA041201E6
:100BF300220CCB041201224DCB0412012286CB041A
:100C0300120122A3E60412012202E7041201229F29
:100C1300E704120122BEE704120122FEE7041201D7
:100C2300222CE8041201224BE80412012286E80474
:100C3300120122A6E80412012261AE04120122EA83
:100C4300AE04120122A9AF04120122B7B0041201AB
:100C530022D7B20412012287A5031201229CA50305
:100C630012012267A60312012234A703120122A153
:100C7300A703120122E7A70312012288A803120186
:100C83002291A90312012269AA03120122ECAA03E9
:100C930012012275AB03120122DEAB03120122689B
:100CA300AC031201226BAC0312012287AC031201C5
:100CB300228AAC03120122ACAC0312012258AD0309
:100CC300120122C6AD0312012268AE0312012216DD
:100CD300AF0312012236AF031201227AAF031201CE
:100CE30022C2AF03120122DEAF03120122FDAF03C2
:100CF30012012277B00312012285B00312012218D8
:100D0300B10312012282B103120122C8BB041201F2
:100D13002244BC0412012282BC0412012266BD04D7
:100D2300120122D5BD0412012219BE041201225C54
:100D3300BE0412012289BE04120122A7BE041201BD
:100D430022DFBE041201221CBF041201223DBF0494
:100D5300120122B3BF04120122BB9101120122A985
:100D63009301120122869601120122CE96011201ED
:100D730022F99601120122ED97011201222C98010A
:100D83001201229B9801120122AE9801120122EF57
:100D93009801120122319901120122409901120195
:100DA300226D9901120122B69901120122E59901DE
:100DB300120122449A011201226E9A01120122A702
:100DC3009A01120122CA9A01120122599B011201AE
:100DD30022879B01120122E39B01120122349C0111
:100DE300120122989C01120122529F0112012250EA
:100DF300A001120122B3A0011201222BA1011201B1
:100E0300221CA30112012259A301120122A9A40148
:100E1300120122DAA4011201221EA50112012212DB
:100E2300A60112012236A801120122A6A80112016D
:100E330022FBA80112012228AE011201225BAE019E
:100E4300120122A1AE011201227AB0011201228104
:100E5300B10112012230B30112012267B301120161
:100E6300226CB3011201226EB301120122F7B30106
:100E7300120122D5B401120122FBB4011201222472
:100E8300B5011201224DB50112012282B5011201F1
:100E930022A7B501120122C6B501120122F1B50143
:100EA30012012258B601120122E2B60112012226D2
:100EB300B70112012248B7011201226CB8011201D5
:100EC3002236B90112012267B901120122C6B90102
:100ED300120122EBB901120122D3BA01120122EA53
:100EE300BA0112012268BB01120122ECBB011201FB
:100EF3002222BC0112012269BC01120122A2BC01FF
:100F0300120122C4BC01120122F0BC011201221EF3
:100F1300BE0112012230BE01120122A3E10412011B
:100F23002215E2041201226BE204120122B0E20450
:100F3300120122D0E2041201221DE30412012265F0
:100F4300E304120122AAE304120122FBE3041201C7
:100F530022DBD20312012244D30312012207D90355
:100F6300120122FCD90312012286DB031201221E85
:100F7300DC031201224DBE0112012296BE011201B1
:100F830022C3BE01120122F5BE0112012202BF01DA
:100F93001201220EBF0112012220BF01120122E71A
:100FA300BF0112012245C0011201227AC0011201C0
:100FB30022B0C001120122EBC10112012238C20189
:100FC3001201227EC201120122E7C2011201229CF8
:100FD300C30112012265C401120122BCC401120122
:100FE3002241C50112012293C501120122C9C60182
:100FF30012012236C801120122FEC8011201221E6B
:10100300C9011201225EC9011201226EC901120136
:101013002292C90112012295C90112012264CA0157
:10102300120122F4CA011201227ACB011201220712
:10103300CC011201222ECC011201227FCC0112011C
:1010430022DCCC011201226CCD011201229ECD01C2
:10105300120122F3CD0112012298CE0112012218AE
:10106300CF01120122B7CF011201222FD0011201A9
:10107300228ED001120122D9D001120122F4D00113
:1010830012012296D101120122DBD10112012201A8
:10109300D40112012249D40112012290D401120178
:1010A30022F5DA011201228FDB0112012223DC0176
:1010B30012012237DD01120122CEDD01120122F3DA
:1010C300DD011201223ADE011201224FDE0112017B
:1010D300228FDE01120122F6DE0112012232DF012C
:1010E30012012238E001120122ECE0011201225028
:1010F300E1011201229EE101120122B7E101120175
:101103002247DC0312012292DC031201229EDC033C
:101113001201226EDD0312012297DD03120122CA9E
:10112300DD0312012236DE031201225CDE0312010B
:101133002294DE03120122CDDE03120122E5DE0337
:101143001201223EDF0312012257DF031201229C08
:10115300DF03120122AFDF03120122C9DF031201F1
:1011630022DFDF03120122E6E00312012207E2037A
:10117300120122F0E203120122DFE303120122F043
:10118300FF0112012277A904120122E8AC04120123
:101193002216AE04120122008003120122F18203FF
:1011A300120122F78203120122A785031201226092
:1011B30088031201220AB30412012298B304120114
:1011C300225AB4041201227FB40412012257B60436
:1011D3001201225CB70412012200800212012233A1
:1011E3008002120122788A02120122BF8B021201AD
:1011F30022DA8C021201221C8E021201221E8F029D
:101203001201226C8F02120122868F02120122C860
:101213008F02120122D38F021201221C90021201AB
:1012230022259002120122D19002120122AB9102D7
:10123300120122F79102120122579202120122A9EE
:101243009202120122D79202120122159302120175
:10125300224494021201222A980212012230980297
:10126300120122A09E0212012273A3021201228DF7
:10127300A70212012205D6041201227BD604120111
:101283002291D6041201220ED70412012245D7045B
:101293001201227FD704120122B9D7041201222C92
:1012A300D80412012267D80412012270D804120153
:1012B300227CD80412012295D804120122B9D80441
:1012C300120122CED80412012212D904120122E6FD
:1012D300F603120122F9F60312012213F703120196
:1012E3002240F70312012286F703120122B9F70302
:1012F300120122F6F7031201225CF8031201227194
:10130300F8031201227CF80312012289F803120167
:1013130022A0F803120122AEF803120122BDF80342
:10132300120122D2F803120122E7F803120122F27A
:10133300F803120122FEF8031201220BF903120132
:10134300221EF90312012229F90312012251F90382
:1013530012012256F903120122EDF9031201224C64
:10136300FA031201225CFA0312012271FA03120139
:101373002286FA03120122A0FA03120122C1FA0300
:10138300120122DEFA03120122E9FA031201229C5E
:10139300FB0312012284FC03120122A2FC031201AB
:1013A30022BEFC03120122C9FC03120122DEFC034C
:1013B300120122F2FC0312012253FD0312012259EE
:1013C300FD031201225FFD0312012265FD031201D9
:1013D3002279FD03120122A0FD03120122DBFD038A
:1013E300120122F4FD0312012238FE031201226BC3
:1013F300FE031201228EC803120122B0C803120198
:101403002275C90312012204CC0312012223CD0346
:101413001201223FCE0312012219CF03120122D05F
:10142300CF031201226AE802120122F8E802120134
:10143300228DE90212012269EA021201229DEA02C7
:10144300120122B0EA021201222AEB02120122B295
:10145300EC02120122D9EC0212012260ED02120108
:10146300229FED02120122B0ED0212012225EE02AB
:1014730012012244EE021201225CEE02120122A0AA
:10148300EF02120122AAF102120122DCF30212017D
:1014930022E2F40212012225F502120122C1D9022D
:1014A300120122D4DA02120122BCDB02120122C68B
:1014B300DB02120122D0DB02120122F2DB02120153
:1014C30022FEDB021201224BDD0212012278DD0231
:1014D30012012299DE02120122DBDE021201221026
:1014E300E002120122E0E0021201222FE1021201C6
:1014F3002290E102120122C5E102120122FEE10261
:10150300120122A9E502120122C0E5021201223EC4
:10151300E6021201224CE60212012295E6021201B2
:1015230022A3E60212012224E70212012293E70218
:10153300120122DFE702120122A9BD03120122CB0D
:10154300BD03120122A7BF031201221FC30312010D
:101553002269C4031201224BC50312012250EE0477
:1015630012012275EE04120122E6EE04120122009A
:101573008004120122098004120122128004120144
:101583002236810412012227830412012255830487
:10159300120122808304120122AE8304120122D994
:1015A30083041201221784041201224384041201CA
:1015B30022808404120122AB8404120122F78404E2
:1015C3001201224E85041201228E8504120122DDAE
:1015D30085041201220886041201224E8604120198
:1015E300227C8604120122A78604120122D48604D7
:1015F300120122F78604120122E68C03120122193A
:101603008D031201225C8D03120122678D031201E7
:1016130022728D031201227D8D03120122888D0314
:10162300120122A09003120122779103120122D00A
:1016330091031201225292031201225F92031201BB
:10164300226C9203120122769203120122809203EA
:101653001201228A9203120122AF9203120122BFC6
:1016630092031201220A93031201223293031201FD
:10167300223F93031201224F930312012259930332
:101683001201226393031201226D93031201227A42
:1016930093031201228493031201228E93031201F6
:1016A30022989303120122A29303120122EA9303C5
:1016B3001201220694031201222294031201223200
:1016C30094031201223C9403120122939403120106
:1016D30022A094031201226395031201226D950344
:1016E3001201227795031201228195031201229D93
:1016F3009503120122B995031201226E960312017A
:1017030022789603120122859603120122929603F0
:101713001201229F9603120122A89603120122EDC1
:101723009603120122FB96031201221D9703120155
:10173300222697031201223597031201225797039A
:101743001201226097031201226F97031201227E76
:10175300970312012287970312012296970312011E
:1017630022A69703120122B39703120122C0970303
:10177300120122CD9703120122DD9703120122FBEE
:1017830097031201221898031201222898031201C9
:1017930022389803120122489803120122799803F0
:1017A300120122839803120122939803120122A3A8
:1017B3009803120122B09803120122CF9803120159
:1017C30022DC9803120122EC9803120122F69803FB
:1017D3001201220399031201220D99031201221D02
:1017E300990312012227990312012231990312014D
:1017F3002241990312012214F60412012298EC04E7
:10180300120122F4EC0412012298ED04120122B712
:10181300ED0412012205EE04120122F2F804120172
:10182300224CF8041201228BF804120122DFF8047F
:101833001201229AF504120122AAF504120122C20E
:10184300F5041201220BF604120122A3F104120182
:101853002226F2041201228CF2041201226D2F00BF
:101863001201225EDC0412012273DC0412012278CD
:10187300DD04120122ECDD0412012206DE04120152
:10188300221DDE041201222BDE0412012243DE0498
:1018930012012258DE041201227DDE04120122CE3F
:1018A300DE04120122BFCB04120122D3CB041201A6
:1018B300224CCC0412012220CD04120122F2CE04C8
:1018C30012012203DF04120122ADDF04120122E61A
:1018D300DF041201222DE004120122ECE0041201C4
:1018E3002214E1041201223AE1041201224EE1041E
:1018F30012012263E1041201226CE1041201227835
:101903002F001201220E3000120122C730001201F3
:1019130022E730001201221E320012012265330039
:101923001201220D3400120122A83D0012012228C7
:101933004500120122B94D00120122234F0012016A
:10194300221F5A00120122C25A001201222E5C00E9
:101953001201229D5F00120122746000120122A96C
:101963006000120122C5600012012259F70412011E
:101973002280F404120122EBF404120122F6F4048F
:1019830012012206F50412012211F504120122C4E8
:10199300FF02120122EDFF021201224194041201FF
:1019A300224B94041201228B9404120122D4940436
:1019B3001201220C95041201226295041201228461
:1019C30095041201228D9504120122D2950412016D
:1019D30022FB950412012210960412012219960487
:1019E3001201228996041201221697041201226A17
:1019F30097041201228D97041201220C98041201FC
:101A0300224798041201227C98041201229B980415
:101A1300120122A49804120122569904120122AB46
:101A2300990412012201F00412012252F00412015E
:101A330022DBF00412012245F1041201229BFC0176
:101A4300120122C3FC01120122B8FD01120122DDA1
:101A5300FD0112012277FE0112012206FF0112018C
:101A630022A5F2041201225CF704120122B4E80455
:101A7300120122E9E8041201221CE9041201227571
:101A8300EA041201228CF604120122A2F6041201C6
:101A930022ACF604120122C5EE031201227FEF03EA
:101AA300120122BAEF03120122EBEF031201225BB0
:101AB300F003120122B1F00312012205F103120116
:101AC30022F2F103120122EBF2031201226CF4035E
:101AD30012012220F50312012289F5031201229C2F
:101AE300F50312012281F603120122FABF04120147
:101AF3002210C004120122B4C004120122F3C00454
:101B030012012210C10412012241C1041201228ECA
:101B1300C104120122C1C104120122FCC104120139
:101B230022F1C30412012218F50412012248F5041C
:101B33001201227DF5041201227FF5041201228194
:101B4300F50412012292F50412012294F504120104
:101B53002297F50412012243E404120122B4E4049F
:101B6300120122D6E4041201220EE50412012244DA
:101B7300E50412012241D90412012288D904120179
:101B830022ABD904120122E3DB04120122FDDB04A0
:101B930012012228DC0412012201F804120122831B
:101BA30087041201225C88041201224B890412016A
:101BB300225C89041201226D8904120122B789046F
:101BC300120122708B04120122CE8C04120122FE18
:101BD3008C04120122C88D04120122288E041201E2
:101BE3002295F804120122C1F80412010002020036
:101BF30000205104AA16090001020301090243004F
:101C030002010080190904000001020201000524F9
:101C1300001001042402020524060001052401002A
:101C2300010705820340004009040100020A000085
:101C33000007058402400001070504024000010873
:101C43001C00002B1C0000E066701008A3E0667007
:101C53000A08A3E066700408A3E06622C3E79608B7
:101C630009E7960809E7960809E79622C3E096086C
:101C7300A3E09608A3E09608A3E09622C008C3E079
:101C830096F50808A3E096420808A3E096420808E0
:101C9300A3E09645087001D3D00822BB0102E722D6
:101CA300C082C08389828A83BB0003E08002E493FD
:101CB300D083D08222BB000EC082C0838A838982F4
:101CC300F0D083D08222BB0101F722080808EAC0C2
:101CD300E0EBC0E086F0E7A4FA180986F0E7A42A4F
:101CE300FA180986F0E7A42AFA180986F0E7A42A65
:101CF300FA1986F0E7A4FBE5F02AFA190886F0E75B
:101D0300A42BFBE5F03AFA190886F0E7A42BFBE5D0
:101D1300F03AFA18180986F0E7A4C5F02BFBE43A69
:101D2300FA1908E7C5F0C6A426F6E5F03BFBE43A4A
:101D3300FA1886F0E7A4F6E5F00826F6E43B08F681
:101D4300E43A08F6D0E0FBD0E0FA22E4CFC0E0E4C6
:101D5300CEC0E0E4CDC0E0E4CCC0E075F020E626E0
:101D6300F608E633F608E633F608E633F6181818ED
:101D7300EC33FCED33FDEE33FEEF33FFC3EC970999
:101D8300ED9709EE9709EF97191919400FFFEC9793
:101D9300FC09ED97FD09EE97FE191906D5F0BFEC86
:101DA300F709EDF709EEF709EFF7191919D0E0FC78
:101DB300D0E0FDD0E0FED0E0FF226016080808C6A0
:101DC300C313C618C613C618C613C618C613C6D57A
:101DD300E0EA227009080808226016181818C6C31A
:101DE30033C608C633C608C633C608C633C6D5E0ED
:101DF300EA22E627F60809E637F60809E637F60881
:101E030009E637F622E026F608A3E036F608A3E053
:101E130036F608A3E036F622E026F008A3E036F013
:101E230008A3E036F008A3E036F022C3E697F608ED
:101E330009E697F60809E697F60809E697F622C336
:101E4300E0C696F608A3E0C696F608A3E0C696F6A3
:101E530008A3E0C696F622C3E096F008A3E096F046
:101E630008A3E096F008A3E096F022E657F60809E7
:101E7300E657F60809E657F60809E657F622E0564C
:101E8300F608A3E056F608A3E056F608A3E056F6D4
:101E930022E056F008A3E056F008A3E056F008A3AA
:101EA300E056F022E046F608A3E046F608A3E04633
:101EB300F608A3E046F622E066F608A3E066F60815
:101EC300A3E066F608A3E066F622E0F608A3E0F6D0
:101ED30008A3E0F608A3E0F622E6F008A3E6F0087C
:101EE300A3E6F008A3E6F022E0FAA3E0FBA3E0FCFC
:101EF300A3E0FD22EAF0A3EBF0A3ECF0A3EDF022C4
:101F0300E0FCA3E0FDA3E0FEA3E0FF22ECF0A3EDE1
:101F1300F0A3EEF0A3EFF022E0F8A3E0F9A3E0FAD8
:101F2300A3E0FB22E8F0A3E9F0A3EAF0A3EBF0229D
:101F3300CAC0E0E6F0A308DAFAD0E0FA22CAC0E0A9
:101F4300E0A3C582CCC582C583CDC583F0A3C5827A
:101F5300CCC582C583CDC583DAE6D0E0CA22C3E40B
:101F630098F8E499F9121FA28026C3E49AFAE49B35
:101F7300FBE920E7E9121FA2E498F8E499F922C3E8
:101F8300E498F8E499F9121FA2E498F8E499F9C3E4
:101F9300E49AFAE49BFB22EB20E7CFE920E7E0B9E0
:101FA3000010BB0008E88AF084F8AAF022E4FBC81A
:101FB300FA22EB70227B10C833C8C933C9335007E8
:101FC300C39AC3DBF280069A50012ADBEAC833F4D2
:101FD300C8C933F4C9FA2275F008E4C833C8C93351
:101FE300C933C99AC99B5004C92AC93BD5F0ECFB34
:101FF300C833F4C8E4C9FA22600D08C6A2E713C6C1
:1020030018C613C6D5E0F322600C08C6C313C6185E
:10201300C613C6D5E0F422700422600D18C6C3337C
:10202300C608C633C6D5E0F41822251810AF08F544
:1020330018400C15198008F51840021519D2AF2263
:1020430000C0D0251810AF08F518500C05198008EA
:10205300F51850020519D2AFD0D0222518F58210F9
:10206300AF08F518400C15198008F518400215192A
:10207300D2AF851983222518F582E43519F5832219
:102083002518F8E43519F9222518FAE43519FB2245
:102093002518FCE43519FD22E4732518C582C0E038
:1020A300E51934FFC583C0E0E518C3958224F81011
:1020B300AF0885831985821880088583198582185E
:1020C300D2AFCEF0A3E520F0A37808E608F0A3DEB4
:1020D300FAEFF0A3E58124FAF8E608F0A3E608F0A6
:1020E300A3E608F0A30808E608F0A3E608F0A315A2
:1020F300811581D0E0FED0E0F8158115811581E8C6
:10210300C0E0EEC0E0222518C582C0E0E51934FF27
:10211300C583C0E0E518C3958224F910AF08858311
:10212300198582188008858319858218D2AFCEF06D
:10213300A3E520F0A37808E608F0A3DEFAEFF0A306
:10214300E58124FBF8E608F0A3E608F0A30808E617
:1021530008F0A3E608F0A315811581D0E0FED0E0D6
:10216300F815811581E8C0E0EEC0E022851983856A
:102173001882E0A3FEE0A3F5207808E0A3F608DFC9
:10218300FAE0A3FFE0A3C0E0E0A3C0E0E0A3C0E067
:10219300E0A3C0E0E0A3C0E010AF08858218858308
:1021A300198008858218858319D2AFD083D0820223
:1021B300011F851983851882E0A3FEE0A3F520782B
:1021C30008E0A3F608DFFAE0A3FFE0A3C0E0E0A382
:1021D300C0E0E0A3C0E0E0A3C0E010AF0885821830
:1021E3008583198008858218858319D2AFD083D05F
:1021F3008222C0D02518C582C0E0E51934FFC5830B
:10220300C0E0E518C3958224F310AF0885831985D0
:1022130082188008858319858218D2AFC8F0A3E994
:10222300F0A3EAF0A3EBF0A37908E709F0A3D8FA47
:10223300ECF0A3EDF0A3EEF0A3EFF0A3D0E0F0A356
:10224300D0E0F0A3D0E0F0A3E520F0A3E5F0F0A305
:1022530022851983851882E0C0E0A3E0F9A3E0FAA0
:10226300A3E0FBA37808E0F608A3DFFAE0FCA3E011
:10227300FDA3E0FEA3E0FFA3E0C0E0A3E0C0E0A372
:10228300E0F5D0A3E0F520A3E0A3F5F010AF0885B7
:1022930083198582188008858319858218D2AFD067
:1022A30082D083D0E0F8D0E0327404800A740380D3
:1022B30006740280027401C0E0F40412205ED0E0D0
:1022C300121F332274048008740380047402800094
:1022D300CCC0E0EDC0E0E518C39CCCAD1950011DA6
:1022E30010AF068C188D1980068C188D19D2AF1279
:1022F3001F40D0E0FDD0E0FC22D083D082C5F0E4C3
:1023030093A3C5F0C395F0F5F0E493A3C395F04010
:1023130005E5F0048001E475F002A42582F582E569
:10232300F03583F583E493A3C0E0E493C0E022D0C7
:1023330083D082E9C0E0E493A3C386F0C5F095F0AF
:10234300F908E493A386F0C5F095F0700BE493A32A
:10235300C3994005E9048002A3E475F002A4258231
:10236300F582E5F03583F583D0E0F9E493A3C0E08B
:10237300E493C0E022D083D082CCC0E0E493A36096
:10238300061223A21470FAE493A360061223C11465
:1023930070FAD0E0FCE493A3C0E0E493C0E022C071
:1023A300E0E493A3D39C5010E493A3C39C400AD0CE
:1023B300E0D0E0D0E0022395A3A3A3D0E022C0E0C5
:1023C300E493A36C7009D0E0D0E0D0E0022395A39E
:1023D300A3D0E022D083D082ECC0E0EDC0E0E49350
:1023E300A3FCE493A3FDED4C600D122423EC24FF26
:1023F300FCED34FFFD80EFE493A3FCE493A3FDED38
:102403004C600D122462EC24FFFCED34FFFD80EFE1
:10241300D0E0FDD0E0FCE493A3C0E0E493C0E0226D
:10242300C0E0C3E49396087401939618400FE493B5
:1024330066700808740193661870007019A3A3C32B
:10244300E49396087401939618A3A3400DD0E0D0AB
:10245300E0D0E0022413A3A3A3A3A3A3D0E022C04C
:10246300E0C0F088F0E4936670080874019366187E
:102473007000A8F0A3A3700BD0F0D0E0D0E0D0E0C0
:0A248300022413A3A3D0F0D0E0223E
:1024900074F6122109EAFEEBFF8C088D09EA243458
:1024A000F8E43FF9E8FCE9FD1225BEE0FAEE243736
:1024B000F582E43FF583E0F88508F0A4C885F00ACA
:1024C0008509F0A4250AF9EA28F8E439F97A257B88
:1024D00000121FA2EA8C828D83F0F9131313541F8C
:1024E000FAEE2AFAE43FFBEA245DF582E43BF58349
:1024F000E0C0E0740759F8D0E0B800028004C313CC
:10250000D8FCA2E04021EE2436F582E43FF583E0DA
:10251000F5F0E984A8F0EE28F8E43FF9E82438F56E
:1025200082E439F583E0F97F030221B574F51221C5
:1025300009EAFEEBFFEA2434F582E43FF583E0C0CC
:10254000E01225BED0E0F08A828B83A3A3A3A3A3CD
:10255000E0FAA3E0FB8E828F83A3A3A3A3A3A3A38C
:10256000E0C39AF508A3E09BF509EE2480F8E43F68
:10257000880AF50B8882F583E06401702CEE2481D3
:10258000F582E43FF583EA2401F8E43BF9E0687062
:1025900003A3E06970137CE77D06EEFAEFFB1210EF
:1025A0007D850A82850B83E4F0AC08AD09EEFAEF75
:1025B000FB122490E9F9122E967F040221B5EA2439
:1025C00035F582E43FF58322C082C0838518828579
:1025D0001983E0F8A3E0F9C3EA9CEB9D5010C3EC2B
:1025E00098ED99401BC3EA98EB995014800EC3EA0A
:1025F00098EB994007C3EC98ED994004790180026B
:102600007900D083D08222EAC39CFAEB9DFB22742E
:10261000ED122109900381E064086005E064077011
:102620002C9061C8E060269003AFE0F874FF68600A
:102630001CE875F012A4C8AAF02AF974B128FE7437
:102640000339FF8E82F583A3A3A3E070057900020E
:1026500027F4EE2468F50EE43FF50F906060E08506
:102660000E82850F83F0751082751107750800754D
:102670000900E5D914F50AE5D95403F50B6044EED9
:102680002484F50CE43FF50D7403650B6025E50A21
:10269000600CEE2467F582E43FF583E06025900747
:1026A0007DE06401603E850C82850D83E0602078CA
:1026B00004801E850C82850D83E0603BE50AC3948F
:1026C000055034793DEEFAEFFB1210B902264D7831
:1026D00000E50AC398FA95E0FB120D6B8A088B0996
:1026E000EA4B70061213BF02264D850C82850D83BE
:1026F000E070048A108B1178008014E5D9C0E0E8FE
:10270000FAE5102AF582E43511F583D0E0F008E807
:10271000C3950A40E6850C82850D83E0602874FC31
:10272000250AF50A78101222B4AC0AA90BEEFAEFCA
:10273000FB1211797402122043E9700AAA08AB094E
:10274000121A2B0226C37403650B6055E50AF50CBB
:10275000750D00780C1222B4AC10AD11AA08AB09AB
:1027600012113D7402122043850E82850F83E0F81A
:102770007480687005750C7F8002880CE50CF50D7F
:10278000780D1222B8780B1222B8A90AAC08AD094C
:102790009003AFE0FA7B00120B49740212204380D1
:1027A0004E851082851183E0F8C3940E500F74A9F2
:1027B00028F582E43490F583E0650A6016EE24F98A
:1027C000F582E43FF583E8F07907EEFAEFFB1210AB
:1027D0006B801C900381E06408AC10AD117009EEB1
:1027E000FAEFFB1211A98007EEFAEFFB1212631247
:1027F00013CB79017F0C0221B574F112210974FC0D
:1028000012202DEAFEEBFF8909750C00A2AFE4331C
:10281000F508C2AF9006EFE0FA9061D0E0F874805E
:1028200098F895E0F9C3EA98E499A2D265D03350BC
:1028300015750C018010AA0AAB0B1210EF121A2B9F
:102840009006EEE004F0EE2463F50AE43FF50B8514
:102850000A82F583E0F8A3E0F9E849602DE8240254
:10286000FAE439FBEA2402F50EE43BF50F780E1288
:1028700022B48A828B83E0FCA3E0F9EEFAEFFB122C
:1028800010E37402122043E960AC9061D0E0F87468
:1028900080C3989006EFF0E50C60539006EEE06080
:1028A0004D9006F0E0F89006EEE0C398500C7402EC
:1028B0006509703A9006F1E060348E828F83A3A39D
:1028C000A3A3E08518828519831228FE74021220C2
:1028D00079E81228FE9006EDE028F07402122093A9
:1028E000AA18AB197901120BAF9006EEE4F0E508D7
:1028F000A2E092AF74041220437F080221B5F0A336
:10290000E4F09006EEE0F8228521878522C622C0F9
:10291000E074EB1221F5A2AFE433F508C2AF759B6A
:1029200000906182E0A2E0502DE591A2E050277571
:1029300091FE74016521701E122A86122A9D1222B0
:10294000C7122C457404122043E964017005790113
:1029500012130B12260F906182E0A2E5505AE59106
:10296000A2E550547591DF900381E064076005E0B3
:102970006408702C122A8674016521703B122A9D0E
:102980001222C7122C457404122043E96401700519
:10299000790112130B7901EEFAEFFB1227F9801877
:1029A000E0640D70139003A3E004F064287002E467
:1029B000F07A00E0F91213E9906182E0A2E64003A8
:1029C000022A5BE591A2E64003022A5B7591BF9063
:1029D0000381E0640570081212A51212B18003127F
:1029E00012AB752100121329E9900382F0790012CD
:1029F000130B120F997A017B00900380E0F91219F2
:102A0000FB907803E064427052900781E014F0700C
:102A10004AC2AF122A16007831D0E0F618D0E0F69C
:102A2000E59F540770047BFF80027B7FC4C0E07881
:102A300030E6F50A08E65BF50B740B780A12200BFA
:102A4000D0E0250AF8906270E0A2E740F8E8C333CE
:102A5000906272F0906270E0D2E0F0906181E0A24A
:102A6000E35009E5E9A2E3500375E9F7A3E0A2E723
:102A70005009E591A2E7500375917FE508A2E09225
:102A8000AF7F080222549003AFE0F875F012A4C89B
:102A9000AAF02AF974B128FE740339FF221212BD7C
:102AA0008E828F83E0F8A3E0C82416F582E438F51F
:102AB0008322C0E0C0D0C082C083906183E0A2E0E6
:102AC0005009E5BFA2E0500375BFFEE0A2E1500946
:102AD000E5BFA2E1500375BFFDE0A2E25009E5BFEA
:102AE000A2E2500375BFFBE0A2E35009E5BFA2E3F9
:102AF000500375BFF7E0A2E45009E5BFA2E450031C
:102B000075BFEFE0A2E55009E5BFA2E5500375BF30
:102B1000DFE0A2E65009E5BFA2E6500375BFBFD0D3
:102B200083D082D0D0D0E032C0E074F21221F5E53B
:102B3000A7A2E4500FE5A1A2E4500953A7EF75A1A5
:102B4000EF122B7CE5A7A2E5500CE5A1A2E550060B
:102B500053A7DF75A1DFE5A7A2E15009E5A1A2E136
:102B6000500375A1FDE5A7A2E2500CE5A1A2E25039
:102B70000653A7FB75A1FB7F0102225474F81221B2
:102B800009752101900381E0640670077A007B00DB
:102B900012128DA2AFE433FED2AF900387E064013E
:102BA00070187A207B00900380E0F9121B0F7A20C6
:102BB0007B00900380E0F9121A01906182E0D2E676
:102BC000F090077EE0602185C6228016900386E0A3
:102BD00064017008E5C654F84405F5C653BEFC12FE
:102BE00029087401652160E4EEA2E092AF7F010242
:102BF00021B500008E238F248582288583278518A0
:102C000082851983E0CEA3E0CF852882852783EBD8
:102C1000C9EAC8EDCBECCA75F010C3E833C8E93394
:102C2000C9EA33CAEB33CBC3EA9EF526EB9FF52501
:102C3000B35004AB25AA26EC33CCED33CDD5F0DA76
:102C4000AE23AF242274F11221098A088B098C0A61
:102C50008D0B9091327808121E81740F12207978B2
:102C60000C121ECD909132780C121E817808790CCE
:102C7000121C5F90914E50107808790C121E2E781D
:102C800008121C7F4014800E780C7908121E2E78D2
:102C90000C121C7F50047901800279007F08022108
:102CA000B574ED1221098A088B098C0A8D0B90915D
:102CB000327808121E817413122079780C121ECDFE
:102CC000909132780C121E81780C7908121C5F40AA
:102CD000117808790C121E2EAA08AB09AC0AAD0BAC
:102CE000802275100075110075120075130178109F
:102CF000790C121E2E78107908121DF5AA10AB114E
:102D0000AC12AD137F0C0221B59091327808121EDF
:102D1000CD8A828B837808121E947F040221B574B9
:102D2000F51221098C828D837808121ECD8A828B40
:102D3000837808121E5A122D73C3E098F0A3E0990D
:102D4000122D65401E90917A7808121ECD8A828BD2
:102D5000837808121E1B8E828F83E02420F0A3E06C
:102D6000344EF080A4F08E828F83C3E09420A3E0E1
:102D7000944E22EA2404F8E43BF9E8FEE9FF8C8251
:102D80008D83A3A3A3A3E0F8A3E0F98E828F83220F
:102D900074F512210990070AE0FAA3E0FBE929F88B
:102DA000E433F9747B28F582749039F583E02AF5D1
:102DB00008A3E03BF50978081222B490916E121E28
:102DC000EB122BF474021220438A088B098C0A8DB3
:102DD0000B74107808121DBDAA08AB097F040221EC
:102DE000B574F11221098A0C8B0D8C0E8D0F7411A4
:102DF0001220791222CF7411122079E02401F508F3
:102E0000A3E03400F509E4F50AF50B780C79081213
:102E10001CCE90915A7808121ECD780C7908121C9D
:102E2000CEAA0CAB0DAC0EAD0F122BF47402122017
:102E300043EA4B60047A0180027A00EC2AFCE43D0C
:102E4000FD7413122079E0F8A3E0F9E8FEE9FFEC45
:102E5000F8EDF97A717B02121FA288088909E4F55E
:102E60000AF50B8E828F837808121EDCECF8EDF9E0
:102E70007A717B02121FA28A088B097405780812E6
:102E8000201A8E828F83A3A3A3A3E508F0A3E509EC
:102E9000F07F080221B5C082C083E9906000F0D0C5
:102EA00083D08222C0E0C0D0E8C0E0A8A8D2AFC2E0
:102EB000C7E8A2E792AFD0E0F8D0D0D0E032C2AFFE
:102EC00002000022C0E074F11221F5E59DA2E65057
:102ED000FA906206E0F9A2E25034AA2EEA90620B60
:102EE000F0F508852F097404780812200BE5089086
:102EF0006207F08A08852F097409780812200BE50B
:102F000008543E906209F0906201E0D2E0F0E97866
:102F10002B46F6906202E0F5087509007404780803
:102F200012201A782BE50846F608E50946F6906265
:102F300004E0F5087509007409780812201A782C45
:102F4000E50946F6E9A2E05003752D0174065960C3
:102F500003752D00E58BA2E55006758BDF752D00FE
:102F6000121B51758B00C2E87F0202225402011F1E
:102F7000FFFFFFFFFFFFFFFF74F612209DE9900D9A
:102F800090F0121617900D90E0F91206931206E7D2
:102F9000900D90E0F91206ED900D90E0F91208F70F
:102FA00090917A121EEB1206CF90917A121EEB12BC
:102FB00009157A127B1B12199B7C127D1B7900125A
:102FC00006C97C277D1B7A0279011206C979017A2C
:102FD000B77B9012186979027A9B7B9012186979F5
:102FE000037AC47B901218697CF97D0D7A107902FE
:102FF000121AE57C097D0E7A107903121AE57C918C
:103000007D0D7A047904121AE57F0202216F74F4AF
:1030100012209D8A088B09EB548070030230A79020
:103020000D90E0F91219E38A0A8B0BAF0BEA4F609F
:103030006E8A828B83E0246F600924FE705412191B
:10304000118052A3E0F8740E6870208A828B83A3EB
:10305000A3A3A3A31222CFEA24FDF582EB34FFF54C
:1030600083E024F9125BF4790E801D74FF687028E8
:103070008A828B83A3A3A3A3A31222CF8A828B83EA
:10308000A3A3E0125BF479FF120B617402122043D8
:103090008006121935E96007AA0AEFFB1219CBAABC
:1030A00008E50964808016EB544060147C917D0D26
:1030B0007A047904121ADFAA08E5096440FB800447
:1030C0007A007B00024F1EE9790024FE600814603C
:1030D00005146009800C74106A7007800774046A14
:1030E0006002790202011F74F412209D74F912200B
:1030F0002DEAFEEBFF851882851983E4F08A828B26
:1031000083123400C0E07401122079D0E0125C27F1
:10311000A882A983E0FCA3E0FB7402122079ECF002
:10312000A3EB125C27A3E0C0E07404122079D0E086
:10313000F0E82403F85001097405122079123218BE
:103140007402122079E0F508A3E085080AF50B74F3
:1031500007780A12200B780A122332010004C831C2
:103160006A317D318C319F31B231AC18AD197401A7
:1031700012208BE508547FF912191D804674011244
:10318000208BE508547FF91219238037AC18AD194C
:10319000740112208BE508547FF91219298024ACA0
:1031A00018AD19740112208BE508547FF912192FFC
:1031B0008011AC18AD19740112208BE508547FF909
:1031C000121917E9F5088003750801EEFAEFFB12F2
:1031D00019CB900DC1747FF0A37406F0E508A3F03D
:1031E000740212207912450E900DC4F0E944FCA33C
:1031F000125864900DC6F07CC17D0D85188285192A
:1032000083E02406FA79FF120B6779007407024FF6
:103210001BF9851882851983E8F0A3E9F02274EB85
:1032200012209D8A828B83ECFEEDFFA31233498C22
:10323000828D83E4F0850A82850B83A385820885CD
:103240008309E914600C14604F14700302333902CF
:103250003340850A82850B83E0F50A85088285095B
:1032600083E0F50BC39432400302333CAA0BA90A56
:1032700012190BE9600302333C7CC77D0DAA0BA930
:103280000A121AE5E9FA60030233428508828509C9
:10329000831258A7F0023342850A82850B83E0F53A
:1032A0000C850882850983E0F508FAA90C12190B30
:1032B000E9600302333CE50A2402FEE4350BFFEE2D
:1032C000FCEFFDAA08A90C121ADFE9FA7404650CD8
:1032D00070708E828F83124D21850A82850B83A3A5
:1032E000A3A312335EF512F51374087810121DD6DD
:1032F000780C7910121DF5850A82850B83A3A31221
:103300003354121DD6780C7910121DF5850A82856A
:103310000B83A3A3A3A3A3E0F508E4F509F50AF53D
:103320000B74187808121DD6780C7908121DF590C8
:103330000D91780C121EDC80091219957A02800218
:103340007A01EAF97F0D02216FA3A3A3E0F50AA396
:10335000E0F50B22A3A312335E7410781022E0F57F
:1033600010E4F5112274F412209D74EA12202D89C4
:10337000088A821233FCFEA3E0FCE4CCFDEE2CE4D0
:103380003DFFE82402FCE439FDE50824F66023242F
:10339000F870401233E81222B4740212208B120C1F
:1033A000997402122043E9F9702B1233DA120C1BC4
:1033B000801D1233E81222B4740212208B120CB159
:1033C0007402122043E9F9700C1233DA120C15E979
:1033D000F9800279017416024F1B900D90E0F9AC50
:1033E00018AD19EEFAEFFB228A828B83A3A3A3E028
:1033F00024FEF50AE434FFF50B780A228B83A3A39D
:10340000A3A3E0F8A3E0F98882F583E02274EC122C
:10341000209D74EB12202D890BEAF8EBF97E007FDA
:1034200000750A40EA2403F50EE439F50F850E8293
:10343000F583E0FAC39402500579400237E88882A8
:103440001233FCF508A3E0FDE5082EE43DF509750F
:1034500012AE751391E82403F510E439F511E82450
:1034600002F50CE439F50DE50B1222FC011DDB3CE5
:10347000AC34D8340A3536357735AB353E3672360E
:103480002C3764379337F23723386E38AE38F73835
:103490006F39A339293ADB3CDB3C513A013B4A3BCB
:1034A000F13BDB3C193CDB3C563CB33CA818A9196A
:1034B000880E890F780E1222B4123D281203577419
:1034C00002122043E960030237E3AC18AD19AA08E1
:1034D000AB091202F102381EA818A919880E890F2B
:1034E000780E1222B4123D531222B4AC0CAD0D7AF8
:1034F0000079001203637404122043E96003023769
:10350000E3123D9A1206F302381EA818A919880E74
:10351000890F780E1222B4123D2812036F74021222
:103520002043E960030237E3AC18AD19AA08AB09E0
:103530001202F702381EA818A919880E890F780EF2
:103540001222B4123D531222B4AC0CAD0D7A0079A4
:103550000012037B7404122043E960030237E37412
:10356000021220791222CF900D90E0F974021220FD
:10357000791244E902371B123D4D70030237E3A86C
:1035800018A919880C890D780C1222B4123D8712E3
:1035900003877402122043E960030237DCAC18ADE4
:1035A00019AA08AB091202FD02375DA818A91988EB
:1035B0000E890F780E1222B4123D531222B4AC0CB5
:1035C000AD0D7A0079001203937404122043E96070
:1035D000030237E37404122079123D7F1222B4747F
:1035E0000712207985820C85830D780C1222B41283
:1035F0003CF7122043E97003023BEB8518828519E2
:1036000083E064017002A3E06003023BEB740212EA
:103610002079E0F47003A3E0F46003023BEB124472
:10362000F01222B87408122079E0F9740912207996
:10363000123D711206FF740112204302381E123D22
:103640004D70030237E3A818A919880C890D780C6E
:103650001222B4123D8712039F7402122043E960C4
:10366000030237DCAC18AD19AA08AB091203030238
:10367000375DA818A919880E890F780E1222B41286
:103680003D531222B4124498122043E960030237DA
:10369000E37404122079123D7F1222B474071220C1
:1036A0007985820C85830D780C1222B47C027D0012
:1036B0007AAA7B91123CFF122043E9601A7402122D
:1036C00020791222CF900D90E0F974021220791225
:1036D0003D7112070580447404122079123D7F1257
:1036E00022B4740712207985820C85830D780C1220
:1036F00022B47C027D007AB67B91123CFF122043FB
:10370000E9602074021220791222CF900D90E0F926
:103710007402122079123D7112070B7402122043B9
:1037200002381E123D9A12072302381E123D4D70B8
:10373000030237E3A818A919880C890D780C122206
:10374000B4123D871203B77402122043E9600302EA
:1037500037DCAC18AD19AA08AB09120309E9F50A60
:10376000707A807FA818A919880E890F780E122206
:10377000B4123D531222B4AC0CAD0D7A0079001294
:1037800003C37404122043E97059123D9A12071DB5
:1037900002381EEAC394034003123D39850E828528
:1037A0000F83E0FA74026A6004EE4F6036A818A92D
:1037B00019880C890D780C1222B4123D1F1203CF08
:1037C0007402122043E97010AC18AD19AA08AB09B5
:1037D00012030FE9F50A600BEE4F6007EEFAEFFBFC
:1037E000121A2BA90A12195F74151220437F0C02BA
:1037F000216FA818A919880E890F780E1222B41209
:103800003D531222B4AC0CAD0D7A0079001203EDD9
:103810007404122043E970CB123D9A120729E9F58E
:103820000A80C0EAC394034003123D39850E8285A5
:103830000F83E0FA74026A6004EE4F60A6A818A92C
:1038400019880C890D780C1222B4123D1F1203F94D
:103850007402122043E97080AC18AD19AA08AB09B4
:10386000120315E9F50A60030237D80237E3123D67
:103870004D70030237E3A818A919880C890D780C3C
:103880001222B4850E82850F8312451B1222B4EAE0
:10389000FCEBFD7A0079001204057404122043E960
:1038A00060030237DC123D9A12072F02375DEAC32C
:1038B00094034003123D39850E82850F83E0FA742C
:1038C000026A6007EE4F70030237E3A818A919884F
:1038D0000C890D780C1222B4123D1F1204117402CF
:1038E000122043E960030237D8AC18AD19AA08AB1F
:1038F0000912031B023863A818A919880E890F78CA
:103900000E1222B4123D531222B4124498122043D4
:10391000E960030237E37404122079123D7F12221A
:10392000B4740712207985820C85830D780C1222DD
:10393000B4123CF7122043E97003023BEB85188276
:10394000851983E064017002A3E06003023BEB741D
:1039500002122079E0F47003A3E0F46003023BEB71
:10396000900D90E0F9AA08AB091206F902381E1270
:103970003D4D70030237E3A818A919880C890D780A
:103980000C1222B4123D8712041D7402122043E966
:1039900060030237DCAC18AD19AA08AB0912032189
:1039A00002375DEA24FCFCE434FFFDE82404FAE479
:1039B00039FB1219658A128B13AE12AF13EA4F70DE
:1039C000030237E3A818A919881289137812122262
:1039D000B4850E82850F83E024FC123D671222B469
:1039E000EAFCEBFD851082851183124D0B1244AE6B
:1039F000122043E960030237DC7406122079E0707C
:103A000008123D9A12074180187405122079E0AC23
:103A100018AD19AA08AB0970051207358003120703
:103A20003BE9F50AE50A023C4FA818A919880E8956
:103A30000F780E1222B4123D281203E174021220F4
:103A400043E960030237E3AA08AB091203270238EF
:103A50001E123D281219658A088B09AE08AF09EAC3
:103A60004F70030237E3A818A91988088909780854
:103A70001222B4850E82850F83E024FEF508E4341B
:103A8000FFF50978081222B4EAFCEBFD7A00790010
:103A90001204297404122043E960030237DC900EFB
:103AA0001A124509700F7A237B00121A79900E1AA8
:103AB000EAF0A3EBF0900E1A124509603E900E1941
:103AC000E0C394054003023BEB1244FC29F0750867
:103AD0000775090078081222B47402122093E97560
:103AE000F007A4F8A9F0900E1AE028FAA3E0391222
:103AF0003CF2122043750A000237E3750A130237BD
:103B0000DC123D4D70030237E3A818A919880C890F
:103B10000D780C1222B4123D871204357402122063
:103B200043E960030237DCAC18AD19AA08AB0912EF
:103B3000032DE9F50A60030237DC740512207912BF
:103B4000450970030237DC0237E3A818A919880E6B
:103B5000890F780E1222B4123D531222B4AC0CAD70
:103B60000D7A0079001204417404122043E96003C5
:103B70000237E3900E1A12450960701244F01222C7
:103B8000B874011220791244F31222B8900E19E091
:103B9000F9900E1A123D7112074D7402122043E97A
:103BA000F50A60397E008022EE75F007A4F8A9F0CE
:103BB000900E1AE028FAA3E0398A82F583A3A312B3
:103BC0005BF9EA4B6003121A2B0E900E19E0F8EE27
:103BD000C39840D4900E1A125BFC121A7F900E1AF2
:103BE000E4F0A3F0900E19F00237E3750A020237F1
:103BF000D8A818A919880E890F780E1222B4123D80
:103C0000281204477402122043E960030237E3AA32
:103C100008AB0912033302381E123D057003023748
:103C2000E3A818A9198810891178101222B4123D3E
:103C30005A1222B4123CE1122043E960030237DC3D
:103C4000850C82850D83123D9D120831E9F50A60CD
:103C5000030237DC804D123D0570030237E3A818DC
:103C6000A9198810891178101222B4123D5A122213
:103C7000B4123CE1122043E960030237DC1244F045
:103C80001222B8850C82850D831244FC122093AA5F
:103C900008AB0912082B7401122043E9F50A6003EE
:103CA0000237DC740312207912450970030237D8F9
:103CB0000237E3A818A919880E890F780E1222B4CA
:103CC000123D281204597402122043E9600302379E
:103CD000E3AA08AB091202E502381E750A01023791
:103CE000E3EAFCEBFD7A007900120453740422FA33
:103CF000E43FFB12585E227C027D00AA12AB131235
:103D00000465740422EA24FDFCE434FFFDAA10AB30
:103D1000111219658A108B11AE10AF11EA4F22EA09
:103D2000123D92EEFAEFFB22EA123D2D22123D31B6
:103D300022123D92AA0CAB0D22123D3D22EA123D09
:103D4000311219658A0C8B0DAE0CAF0D22123D3D60
:103D5000EA4F22EA24FE123D6722850E82850F83F8
:103D6000E024FD123D6722F50EE434FFF50F780ED6
:103D700022123D7522E0FCA3E0FDAA08AB0922E077
:103D8000F50C8E0D780C22850E82850F83E0123D96
:103D9000922224FEFCE434FFFD22900D90E0F9AC69
:103DA00018AD19AA08AB092274E812209D74EA1212
:103DB000202DE9851882851983F0750E00750F0096
:103DC000750A40EA2403F510E43BF511851082F5ED
:103DD00083E0F9C394025005794002432F8A828B15
:103DE00083A3A3A3A3E0FEA3E0FF8E82F583E0FC00
:103DF000A3E0FAE4CAFBEC2AF508E43BF509EE245B
:103E000002F50CE43FF50DEE2403F512E43FF51343
:103E1000851882851983E0122378001602603E041B
:103E2000643F06A83E08333F0AAC3F0C18400E53CF
:103E300040109B3E1219411651411BE6431D2F4471
:103E400030C13E32C13E34E73F369D4038DA403A19
:103E5000C7413C3E433E784340AF434251419244C8
:103E6000740112208B8A0E8B0F780E1222B4E91285
:103E70003D541222B4AC0CAD0D7A007900120363EC
:103E80007404122043E9600302432A1244F9122009
:103E900093AA08AB091206F3024373900D90E0F960
:103EA000AA081206F90243731244F01222B8191933
:103EB000AC0CAD0DAA081206FF7401122043024398
:103EC00073E924FEF8E434FFF974046849600302DE
:103ED000432A850C82850D83E0FA8512828513833F
:103EE000E0F8E4C8F9EA28FCE439FD8E828F83A368
:103EF000A3A3A3E0FA8E828F83A3A3A3A3A3E0F9D5
:103F0000EAF50AE439F50B851882851983E06430F7
:103F1000780A70101222B4900D90E0F9AA081207E6
:103F200005023FA41222B4900D90E0F9AA081207EE
:103F30000B8071740112208B8A0E8B0F780E122267
:103F4000B4E9123D541222B4124498122043E9609D
:103F50000302432A1244F9122093AA08AB0912075C
:103F600011024373740112208B8A0E8B0F780E128C
:103F700022B4E9123D541222B4AC0CAD0D7A007992
:103F80000012037B7404122043E9600302432A7485
:103F9000031220791222CF900D90E0F974031220C1
:103FA000791244E97402122043024373740112200F
:103FB0008B8A0E8B0F780E1222B4E9123D54122216
:103FC000B4AC0CAD0D7A0079001203C37404122056
:103FD00043E9600302432A1244F9122093AA08AB72
:103FE0000912071D024373740112208B8A0E8B0F76
:103FF000780E1222B4E9123D541222B412449812DF
:104000002043E9600302432A1244F9122093AA08CC
:10401000AB09120723024373740112208B8A0E8BA3
:104020000F780E1222B4E9123D541222B4AC0CAD3A
:104030000D7A0079001203ED7404122043E9600345
:1040400002432A1244F9122093AA08AB0912072945
:104050000243731244C4700302432A740112208382
:10406000880C890D780C1222B41245151222B4ACBA
:104070000EAD0F7A0079001204057404122043E992
:1040800060030243231244F9122093AA08AB0912D9
:10409000072FE9F50A600302432302432A1244C4AE
:1040A000700302432A7401122083880C890D780C56
:1040B0001222B41245151222B4AC0EAD0F7A0112C1
:1040C00044AC122043E9600302432374011220939D
:1040D000AA08AB091207350244251244C470030232
:1040E000432A7401122083880C890D780C1222B4A3
:1040F0001245151222B4AC0EAD0F7A0179011244AB
:10410000AE122043E960030243237401122093AAF4
:1041100008AB0912073B0244251244C47003024352
:104120002A7401122083880C890D780C1222B41293
:1041300045151222B41244A6122043E9600302433B
:10414000231244F9122093AA08AB09120741024432
:10415000251244C4700302432A7401122083880C80
:10416000890D780C1222B41245151222B4AC0EAD92
:104170000F7A0079001204297404122043E96003C5
:10418000024323851882851983E06416900D907090
:104190000F1244FC122093AA08AB09120747800DA6
:1041A0001244FC122093AA08AB09120765E9F50A2C
:1041B000E50A600302432374061220791245097050
:1041C0000302432302432AE924FEF8E434FFF9C33F
:1041D000E89401E99400A2D265D033500302432A47
:1041E000850C82850D83E0F5107003024339C3947A
:1041F000064003024339E51075F007A4FEA8F0E875
:10420000FFEEFAE8FB121A798A148B15EA4B700359
:10421000024334EEFCEFFD79001219B9AE12AF1370
:10422000750B008034E8FEE9FF85160C85170D78C4
:104230000C1222B4750C04750D00780C1222B4EE29
:10424000FCEFFD7A0079001204297404122043A8BF
:1042500011EE28FEE43FFF050BE50BC39510505E01
:10426000751104E50B75F007A4F8A9F0E51428F51D
:1042700016E51539F5178E828F83A3A882A9838E40
:10428000828F83E0FA609E74042AF511E8FEE9FF4C
:10429000E511F50C750D00FCAD0DE8FAE9FB1244D3
:1042A000CC7005750A138041851612851713781294
:1042B0001222B4780C1222B4AC0EAD0F8085E5103A
:1042C000650B70251244F01222B8750A01780A12A3
:1042D00022B8A910AC14AD15AA08AB0912074D7489
:1042E00002122043E9F50A6034750B008021E50BCA
:1042F00075F007A4F8A9F0E51428F582E51539F55D
:1043000083A3A3125BF9EA4B6003121A2B050BE59A
:104310000BC3951040D8AA14AB15121A7FE50E45B1
:104320000F6007AA0EAB0F121A2BA90A12195F749D
:1043300016025F95750A1380F1750A0280EC74010C
:1043400012208B8A0E8B0F780E1222B4E9123D5484
:104350001222B4AC0CAD0D7A0079001203C37404C0
:10436000122043E970C41244F9122093AA08AB0941
:10437000120753E9F50A80B2740112208B8A0E8B62
:104380000F780E1222B4E9123D541222B4AC0CADD7
:104390000D7A0079001203ED7404122043E9708A4B
:1043A0001244F9122093AA08AB0912075980C412CB
:1043B00044C4700302432A7401122083880C890DBF
:1043C000780C1222B41245151222B41244A61220FF
:1043D00043E960030243231244F9122093AA08AB75
:1043E0000912075F803F1244B4700302432A74012C
:1043F0001220838812891378121222B41244D61222
:1044000022B4AC0EAD0F123CE5122043E96003026A
:104410004323850C82850D831244FC122093AA0845
:10442000AB09120831E9F50A6003024323805312F5
:1044300044B4700302432A74011220838812891342
:1044400078121222B41244D61222B4AC0EAD0F125E
:104450003CE5122043E960030243231244F0122298
:10446000B8850C82850D83E0F97402122093AA08A6
:10447000AB0912082B7401122043E9F50A6003020C
:1044800043237404122079124509700302431D026C
:10449000432A750A0102432AAC0CAD0D7A0079005B
:1044A0001203AB740422AC0EAD0F7A007900120334
:1044B000D5740422E924FDFCE434FFFDAA12AB13F9
:1044C0001244CC22E9123D2D1244CC221219658AE5
:1044D0000E8B0FEA4B22851082851183E024FDF5B7
:1044E00010E434FFF511781022123D7512071722DF
:1044F000900D90E0F50A780A22900D90E0F9740191
:1045000022A3A3A3A3A3A3A3A312450E4922E0F8C9
:10451000A3E0F9E822851082851183E024FEF50CE2
:10452000E434FFF50D780C2274EA12209D74A51274
:10453000202D8C0E8D0F8A828B83A3A3A3A3E0FE74
:10454000A3E0FF751200EE2404F510E43FF511EE30
:104550002403F50CE43FF50DEE2402F508E43FF5E5
:10456000098E828F83A385820A85830BE9700302FB
:10457000460724FD700302470914700302475214D2
:1045800070030247921470030247F114700302484B
:104590006514700302487C14700302479D14700375
:1045A0000248871470030248FD147003024B59142B
:1045B0007003024BFB147003024AD9147003024AC1
:1045C0005F147003024A561470030248A024E1707D
:1045D00003024B7B147003024BB0147003024B6A4E
:1045E000147003024C03147003024C5E1470030237
:1045F0004C70147003024C83147003024C781470D6
:1046000003024C83024C888E828F83E0F5147C1069
:104610007900AA08AB09121A1FE97019750C1075F8
:104620000D00780C1222B4AC08AD097AF97B0D129A
:104630003CF3122043EE2412F508E43FF5097C1008
:104640007900AA08FB121A1FE97019750C10750D74
:1046500000780C1222B4AC08AD097A097B0E123C2A
:10466000F3122043EE2422F582E43FF583124D211C
:10467000EE2423F582E43FF583124D3F121DD678D8
:104680000C7910121DF5EE2424F582E43FF5831217
:104690003356121DD6780C7910121DF5EE2425F52F
:1046A00082E43FF583124D16121DD6780C79101254
:1046B0001DF5E50C450D450E450F6008900D9178F0
:1046C0000C121EDC75089175090D78081222B4755C
:1046D000080975090E78081222B47CF97D0D850A47
:1046E00082850B83E0FBAA14900D90E0F91217F776
:1046F0007404122043E9F512900D90E0FC7D007ADD
:10470000267B001204DD024C8B75080075090090B1
:104710009106740A1220937406121F40750C06F558
:104720000D780C1222B4740C122093AA0AAB0B124F
:1047300019B37402122043E964016006850A0885F2
:104740000B09AA08AB098E828F83E0F91204F502E7
:104750004C73900D90E0C0E07410122079D0E0F01E
:104760008E828F83E0C0E07411122079D0E0124D68
:10477000B0C0E07412122079D0E0124DA7C0E074EE
:1047800013122079D0E0F0741012208B12047D02F5
:104790004C73900D90E0F9120483024C73900D90CD
:1047A000E0851882851983F08E828F83E0C0E074E3
:1047B00001122079D0E0124DB0C0E07402122079CD
:1047C000D0E0124DA7C0E07403122079D0E0125857
:1047D000831222B4AC0CAD0D7406122079AA82AB00
:1047E00083123CF3122043AA18AB191204BF024CE7
:1047F000738E828F83E0851882851983124DB0C035
:10480000E07401122079D0E0F00E0EAF09750806B1
:1048100075090078081222B4EEFCEFFD7404122032
:1048200079AA82AB83123CF31220438E828F83A33A
:10483000A3A3A3A3A3E0C0E07408122079D0E0F002
:104840008E828F83A3A3A3A3A3A3A3E0C0E07409D4
:10485000122079D0E0F0AA18AB19900D90E0F9126F
:1048600005FD024C73AC08AD09E0FB8E828F83E03E
:10487000FA900D90E0F9120603024C73900D90E04F
:10488000F9120609024C73850882850983E0FC123F
:104890004D49E439FB900D90E0F9120567024C7325
:1048A000124D06EA8518828519831232190E0EAF51
:1048B000098E828F83124D0B7402122079EA123214
:1048C000190E0EAF118E82124CFE74041220791252
:1048D0004D9D50010F124CFC7406122079EA1232E1
:1048E00019EE240250010F124CFC7408122079EAD0
:1048F000123219AA18AB1912056D024C73750E000D
:10490000750F007C187D007900741412208B121929
:10491000B9124D067414122079EAF0A3E9124DA7DA
:10492000C0E07416122079D0E0125C15C0E0741754
:10493000122079D0E0F0AE10AF11750810750900A3
:1049400078081222B4EEFCEFFD741A122079AA82C4
:10495000AB83123CF3122043EE2410124CE4C0E06F
:104960007428122079D0E0F0EE2411124CE4C0E05B
:10497000742B122079D0E0F0EE2412124D2CEAA212
:10498000E35004D2F08002C2F0124CEC12201A1252
:104990004C9712201A124CCE12201A124CBB122025
:1049A0001A124CA812201AED4509F974291220791F
:1049B000EC123219EE2413124CE47003024A47EE53
:1049C0002414124CE4C0E0740A122079D0E0F0EE16
:1049D0002415124CE4C0E0740B122079D0E0F0EE04
:1049E0002416124CE4C0E0740C122079D0E0F0EEF2
:1049F0002417124CE4C0E0740D122079D0E0F0EEE0
:104A00002418124D2C750900EAA2E35004D2F0805C
:104A100002C2F0124CEC12201A124C9712201A12F9
:104A20004CCE12201A124CBB12201A124CA8122083
:104A30001AED4509F9740E122079EC123219740A34
:104A4000122083880E890FAC0EAD0F741412208BC8
:104A5000120579024C73124D6512057F024C7312D8
:104A60004D7E1222B4EEFCEFFD744212208B123CFC
:104A7000F3122043EE2410FE50010F124CFC745030
:104A8000122079124D9D50010F750C08780C1222DE
:104A9000B4EEFCEFFD7454122079AA82AB83123C71
:104AA000F31220438E828F83A3A3A3A3A3A3A3A364
:104AB000E0C0E0745A122079D0E0F075090178095D
:104AC0001222B87441122093A908AA0AAB0B12054E
:104AD000917401122043024C73124D7E1222B4EEE7
:104AE000FCEFFD742E12208B123CF3122043EE24B7
:104AF00010FE50010FF5828F83E0F50CE4F50EF502
:104B00000FA3124D3F121DD6780C7910121DF58E91
:104B1000828F83123354121DD6780C7910121DF532
:104B20008E828F83A3A3A3124D16121DD6780C7903
:104B300010121DF5743C122079E50CF0A3E50DF080
:104B4000A3E50EF0A3E50FF0742C122093A908AA98
:104B50000AAB0B120573024C73124D49FCE439FD8C
:104B6000AA08AB09120585024C73EE2410FCE43F41
:104B7000FDEEFAEFFB120549024C738E828F83E043
:104B8000FA7B00850A82850B83E0FC850882850913
:104B900083E0F9EC2BE439FDEA64267003024C83D0
:104BA000EA942795E04003024C831204DD024C7323
:104BB00078FF79FF8E828F83E0FA7B00C394FF95A4
:104BC000E05022EA6426601DC3EA942795E0501560
:104BD0001204E38A088B09A808A90974FF68700306
:104BE00074FF697003751202850E82850F8374024B
:104BF000F0E8900DC7F0E9A3024C80124D65120653
:104C00007B8070E0F50EF50C750D002404FAE43499
:104C100000FB1257F860428E828F83125991F0A3E5
:104C2000E50EF0EA2404FAE4350BFB850A82850BD5
:104C300083A3A3EAF0A3EBF0780C1222B4AC08AD86
:104C400009123CF3122043AA0AAB0B12060FE9F536
:104C5000126038AA0AAB0B8012751213802D8E8257
:104C60008F83E0F9120615EA4B6018121A7F801B39
:104C700012061BE9F51280137512028C828D83E4F3
:104C8000F080087512028003751201A912745B127C
:104C900020437F0E02216FEC45085407FCA2F0E48C
:104CA00033F5087403780822ED4509FDEAA2E7E42C
:104CB00033F508750900740B780822ED4509FDEA03
:104CC000A2E6E433F508750900740A780822EC4579
:104CD00008FCEAA2E4E433FDEAA2E5E433F5087453
:104CE00009780822F582E43FF583E02254FDFCE8D0
:104CF00028F8EC4854FBFC7402780822F5828F8374
:104D0000E0FAA3E0F922124D57F922E0FA850C826D
:104D1000850D83E0F922E0F510E4F512741878109F
:104D200022E0F50CE4F50DF50EF50F22F582E43FD7
:104D3000F583E0FAC313F8EA1313543FF50822127F
:104D4000335EF5137408781022124D4D22124D5720
:104D5000F8E4C8F9EA28228E828F83E0FA850A8275
:104D6000850B83E022850882850983E0F98E828F96
:104D700083E0FC850A82850B83E0FBECFA22124D6E
:104D80004DF50AE439F50B850882850983E0F508BD
:104D90000E0E0EAF0D750C10880D780C22EAF0A3E4
:104DA000E9F0EE2402FE22F0850882850983E022E4
:104DB000F0850A82850B83E02274F412209D74FD35
:104DC00012202DEAFEEBFF851882851983E4F0F5A9
:104DD00008F50904122079E4F074021220797401B4
:104DE000F07C2C7D0079007A957B0D1219B98E82AA
:104DF0008F83E02460606F24FE605124F270030210
:104E00004E8F147003024EBD24E16003024EDE7427
:104E1000021220838808890978081222B4740312C8
:104E200020838808890978081222B4740412208328
:104E30008808890978081222B47C957D0DEEFAEF76
:104E4000FB12193B7406122043024EDAA818A91966
:104E50008808890978081222B47C957D0DEEFAEF56
:104E6000FB121941806F7401122083880889097828
:104E7000081222B474021220838808890978081263
:104E800022B47C957D0DEEFAEFFB12194780277452
:104E9000011220838808890978081222B47402124A
:104EA00020838808890978081222B47C957D0DEE4C
:104EB000FAEFFB12194D7404122043801DA818A9A3
:104EC000198808890978081222B47C957D0DEEFABC
:104ED000EFFB12195374021220438A088B097402E3
:104EE000122079E06007EEFAEFFB1219CB851882E9
:104EF000851983E0600AAC08AD09FA79FF120B67E7
:104F0000E508450960117401122079E06401700719
:104F1000AA08AB09121A7F790074031220437F0498
:104F200002216F74E812209D74FC12202D8A088BD8
:104F300009ECFEEDFF751000750A00750B0074207A
:104F4000122079125F8EEC2406F8E43FF9EC240578
:104F5000FAE43FFBEC2402F516E43FF5178C828D52
:104F600083A3858212858313E5082403F50CE435B9
:104F700009F50D850882850983A385820E85830F37
:104F8000850882850983A3A3E0605D147003025045
:104F90006214700302518D1470030251A314700344
:104FA0000251AB1470030251BE14700302526E140E
:104FB00070030252901470030252F61470030253ED
:104FC0000F1470030253AF14700302538014700364
:104FD00002569B1470030256D21470030255D41467
:104FE00070030255E702575E8C828D83E4125948A4
:104FF0001222B4125815122043125997C0E01257CA
:10500000B8D0E0F075081075090078081222B47C59
:10501000F97D0DEE240C123CEF1220437808122289
:10502000B47C097D0EEE241C123CEF122043850E49
:1050300082850F83E070217CF97D0D7A1079021250
:105040001ADF7C097D0E7A107903121ADF7C917DBC
:105050000D7A047904121ADF8E0A8F0B75102C0258
:10506000575E850E82850F83E06003025162850CD6
:1050700082850D83E0700302517733333354F82473
:10508000041257F370030251598A828B8374011200
:105090005977EA2404F8E4350B1232118508828529
:1050A0000983A3A3A3A3E0F8A3E0F9740212207973
:1050B00012321875110002513C7402122079125CF0
:1050C00008E0C0E0125C02D0E0F074021220791215
:1050D0005C08A3E0C0E0125C02A3D0E01258642494
:1050E00002F8A3E03400F9851882851983E8F0A35B
:1050F000E91258831222B47404122079E02402FCCD
:10510000A3E03400FD7402122079125BFC123CF320
:10511000122043851882851983E02406F8A3E03421
:105120000012321105117402122079E02408F8A34C
:10513000E03400F97402122079123218850C82854D
:105140000D83E0F8E511C39850030250B9741E12A4
:105150002079125C0874018008850E82850F8374A3
:1051600013F0850E82850F83E0700C850C82850D0F
:1051700083E0600302575E8E828F8374011259228E
:105180008E828F83A3A3A3E412589A80108C828D01
:105190008374021258751259548C0A8D0B751004C1
:1051A00002575E8C828D83740380068C828D83749B
:1051B000041259228C0A8D0B75100302575E8C82E3
:1051C0008D83740512586D041259FA1222B41258C4
:1051D00002122043850882850983A3A3A3A3A3A366
:1051E000A3A3A3A3126044125902C0E01257B8D07F
:1051F000E0125971C0E01257A1D0E012588DE0C002
:10520000E012577CD0E012588DA3E0C0E0EE240EEF
:10521000F582E43FF583D0E0F0E508240F125786CD
:10522000C0E0EE240FF582E43FF583D0E0125C226B
:10523000C0E01257DCD0E0F0E5082411125786C018
:10524000E01257D2D0E0125C22C0E0EE2412F582C8
:10525000E43FF583D0E0F0E50824131257AFC0E037
:105260001257C2D0E012589A75101402575E8C8201
:105270008D83740612586D125954125A12A3125982
:10528000198A828B83F08C0A8D0B75100602575E8B
:105290008C828D83740712586D14125925850882EB
:1052A000850983A3A3A3125A181259198C828D83DE
:1052B000A3A3A3A31258B78A828B831258C58882EE
:1052C00089831259391258D98C828D83A3A3A3A341
:1052D000A3A3A3A31258CA125A191259028C828D81
:1052E00083A3A3A3A3A3A3A3A3A3A3F08C0A8D0BBF
:1052F00075100B02575E8C828D8374081259F71259
:1053000022B41258021220438E0A8F0B0256958C3B
:10531000828D8374091259F71222B4125802122096
:1053200043850882850983A3A3A3A3A3A3A3A3A35F
:10533000A3780C121ECD8E828F83A3A3A3A3A3A355
:10534000A3A3A3A31258FA121ECDE50DF50C125714
:10535000B81258FA121ECD7410780C121DBD1257D7
:10536000A1E50C1258CA7808121ECD7418780812DC
:105370001DBD12577CE50812589A75100E02575E33
:105380008C828D83740B1259481222B41258151254
:105390002043125997C0E01257B8D0E0125971C09B
:1053A000E01257A1D0E012589A75100D02575E75A1
:1053B000106A7A6A1257F670030255B2741E1220F0
:1053C00079125F8E7C6A7D0079001219B9850A8294
:1053D000850B83740AF0A3AE82AF831257721260FA
:1053E000441258AD1258A01259198E828F83A3A36C
:1053F000A3A3F0EE24211257E6124503606E8E82BD
:105400008F83A3A3A3A3A374011258F212603CA339
:10541000A3A3A3A3F0EE2407FE50010F750E107591
:105420000F00780E1222B485088285098312584B2A
:10543000122043850882850983125823C0E0125741
:10544000DCD0E01258F21257CCC0E01257D2D0E0B4
:10545000F0EE2412FE50010F750E08780E1222B4E1
:10546000850882850983125837122043AE0CAF0D90
:10547000EE241C1257E6A3A3124501606E8E828FA4
:1054800083740112591112603CF0EE2402FE5001A7
:105490000F750E10750F00780E1222B485088285E4
:1054A0000983A3A3125849122043850882850983E2
:1054B000A3A3A3A3125823C0E01257DCD0E01259D3
:1054C000111257CCC0E01257D2D0E0F0EE2412FEF9
:1054D00050010F750E08780E1222B48508828509D6
:1054E00083A3A3A3A3125837122043AE0CAF0DEE33
:1054F0002417F50CE43FF50D125791124509603958
:105500008E828F837401F0A30EAF83750E10750F1A
:1055100000780E1222B4125791125851122043EE05
:105520002410FE50010F750E06780E1222B4125789
:10553000AB2410125840122043AE0CAF0D850882E8
:10554000850983124501700302575E8E828F837432
:1055500001F0A30EAF83750C10750D00780C1222AC
:10556000B485088285098312584912204385088230
:10557000850983A3A3125828780C121ECDEE24109F
:105580001259CF121ECDE50DF50CEE24111259CF94
:10559000121ECD7410780C121DBDEE24121259CFBC
:1055A000121ECD7418780C121DBD1257C2E50C02E4
:1055B000575D8E828F83740A125875F08516828526
:1055C000178374131258ADA31258A0A3A3A3A31258
:1055D000589A800D8C828D83740E125A038C0A8D1A
:1055E0000B75100502575E8C828D83740F125A035F
:1055F000850882850983A312598D1258B78882893C
:10560000831258C58C828D83A3A3A3A3A3A3A31243
:105610005939A31258D9F8A3E0F9E8A2E0E433F528
:1056200008E8540260047A0280027A00EA4208E83C
:10563000540460047A0480027A00EA4208E85408BC
:1056400060047A0880027A00EA4208E954016004A2
:105650007A1080027A00EA4208E9540260047A2053
:1056600080027A00EA4208E9540460047A40800229
:105670007A00EA4208E954086004788080027800E1
:10568000E845088C828D83A3A3A3A3A3A3A3A3A30C
:10569000F08C0A8D0B75100A02575E8C828D837414
:1056A0000C125A03750A06780A1222B4E50824057A
:1056B000FCE43509FD123CF3122043E508240B12EB
:1056C00057AFC0E01257B8D0E012589A75100C02CC
:1056D000575E1257AB240D1257F360798A828B8381
:1056E000740D12597785088285098312598DA3A3F9
:1056F000A3A3F0EA2405FEE4350BFF750C06750D37
:1057000000780C1222B4E5082405FCE43509FDEE0E
:10571000FAEF123CF2122043E508240B1257AF8E29
:10572000828F8312596B8E828F83A312596BF50C73
:10573000780C1222B4E508240D1257AFFCA3E0FD4B
:10574000EE2408123CEF122043741E122079125CE2
:105750000874018008850E82850F837413F0741C11
:10576000122079125C08E510F0AA0AAB0B7404024F
:105770005F957406F0850E82850F8322EE240DF569
:1057800082E43FF58322F8E43509F98882F583E065
:105790002212579522E508240CF582E43509F58399
:1057A00022EE240CF582E43FF58322E508240CF573
:1057B00082E43509F583E022EE240BF582E43FF51F
:1057C0008322EE2413F582E43FF583221259E4A3E9
:1057D000E022EE2411F582E43FF58322EE2410F559
:1057E00082E43FF58322F50CE43FF50D85088285C0
:1057F000098322F510FA7B00121A798A0A8B0BEAC8
:105800004B22E5082404FCE43509FDEE24041AE4E7
:105810003F12585D22AC0CAD0DEE2403FAE43F12AA
:10582000585D22125828E022A3A3A3A3A3A3E0F863
:10583000A3E0C81259E822A3A3A3A3A3A3E02412C0
:10584000FCA3E0340012585922A3A3A3A3A3A3A34B
:10585000A3E0FCA3E012585922FDEEFAEFFB121967
:10586000A1740222F0851882851983E022F0851246
:10587000828513832212587922F085128285138340
:10588000740622F0750806750900780822F0E5080C
:10589000240DF582E43509F58322F08E0A8F0B2260
:1058A000125BDE1258A722E08E828F8322125C19CF
:1058B0008E828F83A3A3221258BB22126067A3A3F8
:1058C000A3A3A3E0221258E0E0221258CE221258DD
:1058D000D2221258E8A3A3A3221258E0A3A3E022E5
:1058E0001258E4221258E82212606BA3A3A3A3A3C8
:1058F000A3221258BBF8A3E0C822E50C1258CE78B8
:105900000C22A3A3A3A3A3A3A3A3A31258CEA3E0F3
:10591000221259CAF8A3E0C822126060A3A3A3A36D
:10592000E0221258791259292212592D2212577445
:10593000E0851682851783F0221259F18C828D83BF
:10594000A3A3A3A3A3A3A322125879125929750ACA
:1059500006780A221259582212592D850C82850D7B
:1059600083E08C828D83A3A3A3F022A3A3A3A3A38C
:10597000A3F0125795E022F0A3125772125991A387
:10598000A3125C198A828B83A3A3A3F022A3A3A3EF
:10599000A3E08A828B8322850882850983A3A3A33F
:1059A000A3A3A3A3A3A3126053A3A31259CA8E82D5
:1059B0008F83A3A3A3A3A3A3A3A3A3A3F0E5082476
:1059C0000BF582E43509F583E0221258D2E022F586
:1059D00082E43FF583E50C1259F1F8A3E0C81259AF
:1059E000E4780C221259E8222410F582E438F58379
:1059F000221258E4A3E022125879125958750A0667
:105A0000780A22125879125958125A12A3A3A3A342
:105A1000F022850C82850D83A3E08C828D83227415
:105A2000F112209DEAFEEBFF8C088D09EA2405F5B2
:105A30000CE43FF50D8A828B83A385820A85830B54
:105A40008A828B83A3A31222CF850A82850B83E0EF
:105A5000F9850C82850D83E04480FC125AB6122031
:105A600043E9F50E850A82850B83E07035E5082948
:105A7000FAE43509FBEE2406FCE43FFD850C828543
:105A80000D83E014600A24F6601024F86007801289
:105A9000120C878008120C9F8003120CB7EA250EA7
:105AA000F50E740F122079125C08E50EF0AA08AB0F
:105AB000097F0702216F7D04AA08AB0912195974E6
:105AC000022274EA12209D8A0E8B0F8C128D138A8B
:105AD000828B83A3E0F50A7418122079E0F510A3F5
:105AE000E0F511851082F583E4F0EA2408F50CE472
:105AF000350FF50D850C82F583E02409FEA3E03413
:105B000000FFC3EE942DEF94004031EEFAEFFB124C
:105B10001A798A088B09EA4B600B851082851183FC
:105B20007401F0801B851208851309850C82850D90
:105B300083E0F8C3EE98FE750A1380048C088D0983
