:020000040000FA
:0600000002011A02226E4B
:03002B0002291C8B
:030033000228FEA2
:030053000222E4A2
:03006B000228D593
:100083000220CBE5C754F84401F5C77901220000EB
:100093000080FB120086B90003020104E479217891
:1000A30008B800028004F709D8FCE479297802B87B
:1000B30000028004F709D8FCE490028178AD79133B
:1000C3008002F0A3D8FCD9FA781A90014A7A01BACF
:1000D30000028007E493A3F608DAF97A2D7B1590E2
:1000E300014B780879048015E493A3AD82AE838A2B
:1000F300828B83F0A3AA82AB838D828E83D8E9D9C6
:10010300E77582957583C1740312012C758291750D
:100113008300740012012C75D00075813F7518811E
:10012300751902759F00020096C09FF59FE473D076
:100133009F22D083D082C09FE493C0E0740193C018
:10014300E0740293F59F2201FF0000B40000280031
:100153002800283075A000A000A000A0000008001F
:1001630008E001F000100010001000100010001053
:100173000050005000500010001000D00700000095
:100183000000000F0001000500307507001000019A
:100193000081FF00000000FFFFFF6E068C0674065F
:1001A300B006FF02020208025000A0000000E803AC
:1001B30002C390010000AE9002BD900100008815BB
:1001C30002B990010000BF0202BD90010000891531
:1001D30002B790010000D50202BD900100008A150C
:1001E30002BF90010000D70202BD900100008B15F1
:1001F30002C790080000D80202BD900100008C15D0
:1002030002CB900100008D15FF0100FF2002C39077
:10021300010000B49002BD90010000F11502CF90DF
:10022300000000000002BB90030000060317004C0F
:100233000D4C0D4C0D4C0D4C0D4C0D4C0D4C0D4CF3
:100243000D4C0D4C0D4C0D4C0D341046102E100260
:100253000202020202020202010D0000001001026A
:10026300C390010000AB9002BD9001000034160260
:10027300E390010000460702BD900100003516021D
:10028300E190010000698F02BD9001000036160263
:10029300DF900100004D8F02BD9001000037160270
:1002A300DB90010000A78E02BD900100003816020A
:1002B300D990010000DD8E02BD90010000391602C5
:1002C300D790010000CB8E02BD900100003A1602C8
:1002D300D590010000958E02BD900100003B1602EF
:1002E300D3900100005B8F02BD900100003C160219
:1002F300D1900100003D1601E8030577100AFFFFC6
:10030300FF00013075030201060000000000000039
:1003130000000000000000000000000000000000DA
:100323000000000000FFFF0600800CE803140953DF
:10033300696D706C65424C45506572697068657291
:10034300616C051250002003020A00020106030239
:10035300F0FF53696D706C6520424C452050657207
:100363006970686572616CD2140000D8140A43681E
:100373006172616374657269737469632031000229
:10038300436861726163746572697374696320326F
:1003930000084368617261637465726973746963A9
:1003A300203300104368617261637465726973740A
:1003B3006963203400024368617261637465726922
:1003C3007374696320350002C390010000B1900289
:1003D300BD90010000521702E990030000221502AC
:1003E300F190010000531702BD9001000064170251
:1003F300EB90010000231502F19001000065170244
:10040300BD90010000761702ED9002000024150252
:10041300F190010000771702BD90010000881702D8
:10042300EF90000000251502BB9003000026150283
:10043300F190010000891702BD900100009A170294
:10044300DD90040000281502F1900100009B1712B3
:10045300013575A00312013588A003120135B7A039
:1004630003120135EFA00312013538A10312013540
:100473007BA103120135C1A103120135F4A10312BB
:1004830001351BA2031201354AA20312013581A2D1
:10049300031201359AA203120135E9A203120135B1
:1004A30002A3031201354AA3031201357EA30312EB
:1004B3000135CFB902120135CDBA0212013533BB72
:1004C3000212013556BB0212013558BB0212013527
:1004D30096BB0212013507BC02120135C7BC0212DA
:1004E3000135E9BC0212013585BD02120135BCBDDF
:1004F3000212013501BE021201350EBE0212013590
:100503007EBE02120135C8BE02120135CBBE0212F5
:10051300013511BF0212013514BF021201351EBF8E
:100523000212013591BF02120135B9BF0212013522
:10053300ECBF0212013510C0021201350DC10212C7
:100543000135B1C1021201351DC20212013559C272
:10055300021201357B9103120135A3910312013578
:10056300D091031201350892031201356E920312E2
:100573000135B892031201351C93031201356493BC
:1005830003120135A19303120135CF9303120135F1
:100593006494031201356E94031201357B940312A4
:1005A3000135AE9403120135BA9403120135D29486
:1005B30003120135DC9403120135CCBE031201355D
:1005C300DABE03120135F2BE0312013509BF03126D
:1005D3000135D4C80112013577C90112013590CA1A
:1005E3000112013508CB011201352FCC011201355F
:1005F30068CC0112013500CD01120135EDCD011298
:10060300013596CE011201351ED00112013506D1F6
:1006130001120135FDD10112013533D20112013529
:10062300D5D201120135FBD201120135C7D4011213
:1006330001350DD5011201352FD5011201359BD599
:100643000112013566D60112013520D70112013599
:100653002CD90112013540DA021201351CDB0212DA
:100663000135C6DB0212013507DC021201358EDCCF
:100673000212013509DD02120135DCDD02120135FA
:1006830005DE02120135F9DE0212013536DF0212F0
:1006930001351EE0021201354FE00212013575E00B
:1006A30002120135A5B00312013524B1031201353D
:1006B3004FB1031201355FB2031201356A9503127C
:1006C30001358095031201359E9503120135AE96CF
:1006D30003120135B89603120135E297031201356F
:1006E300CF98031201353B9903120135E5E002125D
:1006F300013512E20212013549E202120135A0E28C
:100703000212013598E40212013589A40112013560
:1007130010A50112013564A60112013570A601125C
:100723000135E8A601120135C1A701120135C1A89F
:1007330001120135BDA90112013589AA0112013542
:10074300E3AB01120135F9AB011201351AAC011209
:100753000135ACAC0112013522AD0112013548ADB2
:1007630001120135F5AF01120135FAAF011201355E
:100773001EB20112013565B201120135CBB201126D
:10078300013511B301120135E1B30112013596B4FC
:1007930001120135F2B401120135F5B4011201352C
:1007A30041B5011201357DB501120135BCB5011208
:1007B3000135DEB50112013512B60112013580B6DD
:1007C3000112013585E60212013593E60212013565
:1007D300E3E60212013502E7021201354CE7021289
:1007E30001358FE80212013527E9021201356BE961
:1007F3000212013595E90212013500EA02120135B0
:1008030044EA02120135C7EA0212013576EB0212FD
:100813000135482900120135582900120135F22902
:10082300001201354E2A001201350C2B001201353E
:100833002F2C001201355F2C001201358E2C001273
:100843000135442E00120135973000120135F6327E
:1008530000120135DF3300120135CF3400120135A8
:10086300A236001201359A3900120135B73A001247
:100873000135B13C00120135C03D001201354F3F37
:10088300001201353B40001201358A400012013548
:10089300FA4000120135164100120135674100127A
:1008A30001350746001201350E4700120135704726
:1008B300001201359B4700120135534800120135E0
:1008C3003B8D03120135458D031201358D8D0312C6
:1008D3000135A18D03120135328E03120135698E64
:1008E30003120135A48E03120135CD8E0312013597
:1008F300218F03120135368F03120135588F0312EE
:1009030001356D8F03120135818F03120135968FE7
:1009130003120135D08F03120135FC8F0312013509
:10092300459003120135BB9003120135FE9003126B
:100933000135289103120135539103120135E3BAAE
:10094300031201356FF50112013548F60112013525
:10095300B7F601120135F2F6011201352DF8011235
:100963000135DFF8011201358CFB0112013537FC2B
:100973000112013518FD011201358EFE01120135F8
:10098300F6FE01120135C2F90212013505FA02120F
:10099300013570FB02120135AEFD02120135ACAC1C
:1009A3000312013559AD0312013552AE031201355D
:1009B3008FAE0312013568B403120135C7B40312B5
:1009C300013564B50312013597B503120135C5B579
:1009D3000312013500B60312013520B603120135A7
:1009E30019F502120135A2F50212013561F6021260
:1009F30001356FF7021201358FF9021201350E9A94
:100A030002120135239A02120135EE9A02120135C0
:100A1300BB9B02120135289C02120135639C021212
:100A23000135049D021201350D9E02120135E59E2A
:100A330002120135689F02120135F19F021201353E
:100A43005AA002120135E4A00212013531A10212AB
:100A530001359FA10212013541A202120135EFA215
:100A6300021201350FA30212013553A302120135FD
:100A73009BA302120135B7A302120135D6A30212BA
:100A8300013550A4021201355EA402120135F1A40E
:100A9300021201355BA502120135008003120135F4
:100AA3007C8003120135BA80031201359E81031243
:100AB30001350D82031201355182031201359482EF
:100AC30003120135C18203120135DF82031201359E
:100AD30017830312013554830312013575830312FF
:100AE3000135EB83031201353584031201353AB71F
:100AF30001120135D7B80112013502BB01120135CC
:100B03004ABB0112013575BB0112013561BC0112EB
:100B13000135A5BC0112013511BD0112013524BDFA
:100B23000112013565BD0112013592BD0112013576
:100B3300DBBD011201351EBE0112013554BE011287
:100B43000135A5BE0112013509BF01120135E0C10E
:100B530001120135D4C3011201350FC4011201354D
:100B63008FC501120135D3C50112013543C60112E8
:100B7300013598C601120135E4C60112013586C755
:100B830001120135BEC801120135CFC8011201356A
:100B930063B002120135CCB0021201358FB60212D6
:100BA300013584B7021201350EB902120135A6B917
:100BB30002120135BC480012013504490012013507
:100BC30031490012013563490012013570490012A1
:100BD30001357C49001201358E4900120135554A11
:100BE30000120135B34A00120135E84A00120135FB
:100BF300244C00120135714C001201358C4C00124B
:100C03000135004D00120135B74D00120135974EE5
:100C130000120135FD4E00120135CF4F0012013590
:100C2300F14F00120135615000120135F8500012E6
:100C330001351F51001201359751001201351F5222
:100C4300001201354C5200120135F15200120135E8
:100C530071530012013510540012013588540012EB
:100C63000135DD54001201352555001201355A5561
:100C730000120135FC5500120135205700120135D1
:100C83006057001201357D5700120135F35D0012E4
:100C930001353C5E00120135D85E00120135FD5E60
:100CA30000120135125F00120135795F0012013520
:100CB300C05F00120135D060001201357C61001263
:100CC3000135D661001201353262001201354B62E3
:100CD30000120135927600120135DD7600120135DE
:100CE300E97600120135B97700120135E277001277
:100CF3000135157800120135817800120135BF786E
:100D030000120135F878001201351079001201350F
:100D1300697900120135827900120135C779001211
:100D23000135DA7900120135F479001201350A7AB6
:100D330000120135117B00120135327C001201359E
:100D43001B7D001201350A7E00120135FCFF0212E1
:100D530001350D8D02120135408D02120135AA9025
:100D630002120135FF9102120135D29202120135AE
:100D73001494021201350C95021201355A95021290
:100D83000135749502120135B69502120135C195EC
:100D9300021201350A960212013513960212013529
:100DA300BF9602120135999702120135E597021297
:100DB3000135459802120135979802120135C598FD
:100DC30002120135039902120135F5900112013522
:100DD300D69401120135DC94011201354C9B0112AA
:100DE30001351FA00112013539A4011201354599BE
:100DF30003120135BB9903120135D1990312013551
:100E03004E9A03120135859A03120135BF9A0312D4
:100E13000135F99A031201356C9B03120135A79B27
:100E230003120135B09B03120135BC9B031201353C
:100E3300D59B03120135F99B031201350E9C031256
:100E43000135379C03120135999C03120135C09C6F
:100E5300031201355DF00212013570F00212013503
:100E63008AF002120135B7F002120135FDF00212C9
:100E7300013530F1021201356DF102120135D3F162
:100E830002120135E8F102120135F3F102120135C4
:100E930000F20212013517F20212013525F2021295
:100EA300013530F2021201353CF2021201354FF2E4
:100EB300021201355AF20212013580F20212013593
:100EC30024F30212013534F3021201354EF30212F8
:100ED30001356BF30212013586F302120135ADF3CE
:100EE30002120135B8F302120135CDF302120135B6
:100EF300E1F30212013542F40212013548F4021201
:100F030001354EF40212013554F4021201356CF42A
:100F1300021201359FF402120135058002120135D8
:100F230093800212013528810212013504820212D4
:100F330001353882021201354B8202120135C58216
:100F4300021201354D8402120135748402120135F7
:100F5300FB84021201353A85021201354B850212D8
:100F63000135C08502120135DF8502120135F7858F
:100F7300021201353B870212013545890212013500
:100F8300778B021201357D8C02120135C08C02125F
:100F9300013539D9011201354CDA0112013534DB3F
:100FA300011201353EDB0112013560DB011201350F
:100FB3006CDB01120135B9DC01120135E6DC0112EB
:100FC300013507DE0112013549DE011201357EDFED
:100FD300011201354EE0011201359DE00112013588
:100FE300FEE00112013533E1011201356CE101121A
:100FF300013517E5011201352EE501120135ACE586
:1010030001120135BAE50112013503E6011201357A
:1010130011E60112013592E60112013501E70112D1
:1010230001354DE7011201357EA502120135A0A558
:10103300021201357CA702120135F4AA021201350E
:101043003EAC0212013520AD021201354BFE0212F5
:10105300013570FE02120135E1FE02120135BDD2E7
:1010630002120135C6D202120135CFD20212013566
:10107300F3D302120135E4D50212013512D602125E
:1010830001353DD6021201356BD60212013596D6D3
:1010930002120135D4D60212013500D702120135EE
:1010A3003DD70212013568D702120135B4D70212B7
:1010B30001350BD8021201354BD8021201359AD8EB
:1010C30002120135C5D8021201350BD902120135BE
:1010D30039D90212013564D90212013591D90212AC
:1010E3000135B4D9021201354DC00312013579C05F
:1010F30003120135D2C003120135DCC003120135DE
:10110300ECC0031201351CA70312013543A70312D8
:1011130001356EA703120135EDC1031201357D625E
:1011230000120135D46400120135846600120135C2
:10113300E16600120135E167001201355E680012B5
:101143000135E668001201350B6900120135E66BC3
:10115300001201355A6C00120135496D0012013538
:101163007F6D00120135C26D00120135436F00120D
:101173000135856F00120135CE6F001201353770CE
:1011830000120135597000120135737000120135D8
:10119300917100120135A1710012013524730012FF
:1011A30001354473001201357A7300120135F67468
:1011B300001201353375001201356D7600120135C9
:1011C300DE88031201352E8903120135688A031262
:1011D3000135D78A031201357B8B031201359A8BB4
:1011E30003120135E88B031201352A8C03120135F2
:1011F30099BF03120135AABF0312013537C2031287
:10120300013576C2031201354FC303120135EFBD19
:1012130003120135FFBD0312013514BE031201355C
:10122300C6BE03120135F7BB031201357ABC0312A4
:101233000135E0BC031201352EB60312013557B652
:1012430003120135BDB603120135DCB603120135B5
:101253002FB70312013588B703120135C3B7031241
:101263000135C6B703120135E6A303120135FBA30B
:1012730003120135F9A40312013591A503120135B7
:1012830005A6031201351FA60312013536A6031264
:10129300013544A6031201355CA60312013571A67C
:1012A3000312013596A603120135E7A60312013591
:1012B30039C30312013549C3031201354CC3031269
:1012C3000135F87F001201358EB20312013504B4E3
:1012D3000312013565B40312013572B903120135E6
:1012E30095B903120135BEB90312013558BA031279
:1012F30001359ABA03120135F4CA02120135FECA46
:10130300021201353ECB0212013587CB02120135A1
:10131300BFCB0212013515CC0212013532CC0212B9
:101323000135B1CE02120135BACE02120135FFCE1C
:101333000212013528CF021201353DCF02120135C9
:10134300ADCF021201353AD0021201358ED002120E
:101353000135B1D00212013530D1021201356BD102
:1013630002120135A0D102120135B2D102120135A8
:10137300D1D102120135DAD10212013591D2021212
:101383000135D0B70312013521B803120135AAB8CC
:101393000312013514B903120135F1A90312013502
:1013A30019AA031201350EAB0312013533AB031235
:1013B3000135C2AB03120135F9BC03120135A9AEE5
:1013C30003120135DFAE0312013512AF03120135EB
:1013D3006BB003120135F6C0031201350CC10312C1
:1013E300013516C1031201356AC1031201359BFF92
:1013F300011201357FC20212013539C302120135D0
:1014030074C302120135A5C30212013515C40212B9
:1014130001356BC402120135BFC402120135ACC5DC
:1014230002120135A5C60212013526C80212013582
:10143300DAC80212013543C90212013556C9021234
:1014430001353BCA0212013594CA021201357C846C
:1014530003120135928403120135338503120135DA
:101463007285031201358F8503120135C08503127E
:1014730001350D86031201354086031201357B8643
:1014830003120135768803120135D3E701120135C2
:101493005BEB01120135EAEC0112013541ED01125A
:1014A300013560ED01120135DEED0112013564EF06
:1014B3000112013537F001120135F1F30112013543
:1014C300D9F40112013588EB02120135A3ED0212A2
:1014D300013564EE02120135FCEF02120135EF9C77
:1014E30003120135529D031201356F9D031201351D
:1014F300359E03120135889E031201356B9F03123B
:10150300013580C203120135C6C203120135BF7F04
:1015130000120135F2C2031201351BC303E06670EA
:101523001008A3E066700A08A3E066700408A3E04D
:101533006622C3E7960809E7960809E7960809E7CC
:101543009622C3E09608A3E09608A3E09608A3E0DA
:101553009622C008C3E096F50808A3E0964208085F
:10156300A3E096420808A3E09645087001D3D0088B
:1015730022080808EAC0E0EBC0E086F0E7A4FA1806
:101583000986F0E7A42AFA180986F0E7A42AFA18CC
:101593000986F0E7A42AFA1986F0E7A4FBE5F02A06
:1015A300FA190886F0E7A42BFBE5F03AFA19088646
:1015B300F0E7A42BFBE5F03AFA18180986F0E7A444
:1015C300C5F02BFBE43AFA1908E7C5F0C6A426F6E2
:1015D300E5F03BFBE43AFA1886F0E7A4F6E5F008F9
:1015E30026F6E43B08F6E43A08F6D0E0FBD0E0FA4E
:1015F30022E4CFC0E0E4CEC0E0E4CDC0E0E4CCC060
:10160300E075F020E626F608E633F608E633F6083A
:10161300E633F6181818EC33FCED33FDEE33FEEF2A
:1016230033FFC3EC9709ED9709EE9709EF97191963
:1016330019400FFFEC97FC09ED97FD09EE97FE1992
:101643001906D5F0BFECF709EDF709EEF709EFF747
:10165300191919D0E0FCD0E0FDD0E0FED0E0FF2264
:101663006016080808C6C313C618C613C618C613DF
:10167300C618C613C6D5E0EA227009080808226016
:1016830016181818C6C333C608C633C608C633C6E9
:1016930008C633C6D5E0EA22E627F60809E637F698
:1016A3000809E637F60809E637F622E026F608A326
:1016B300E036F608A3E036F608A3E036F622E02685
:1016C300F008A3E036F008A3E036F008A3E036F014
:1016D30022C3E697F60809E697F60809E697F6089F
:1016E30009E697F622C3E0C696F608A3E0C696F687
:1016F30008A3E0C696F608A3E0C696F622C3E096D2
:10170300F008A3E096F008A3E096F008A3E096F0B3
:1017130022E056F608A3E056F608A3E056F608A31F
:10172300E056F622E056F008A3E056F008A3E05690
:10173300F008A3E056F022E0F608A3E0F608A3E0E1
:10174300F608A3E0F622E6F008A3E6F008A3E6F025
:1017530008A3E6F022E0FAA3E0FBA3E0FCA3E0FD8C
:1017630022E0FCA3E0FDA3E0FEA3E0FF22ECF0A354
:10177300EDF0A3EEF0A3EFF022E0F8A3E0F9A3E08D
:10178300FAA3E0FB22E8F0A3E9F0A3EAF0A3EBF06D
:1017930022CAC0E0E6F0A308DAFAD0E0FA22CAC00F
:1017A300E0E0A3C582CCC582C583CDC583F0A3C5C4
:1017B30082CCC582C583CDC583DAE6D0E0CA22C315
:1017C300E498F8E499F91218038026C3E49AFAE43A
:1017D3009BFBE920E7E9121803E498F8E499F9225E
:1017E300C3E498F8E499F9121803E498F8E499F932
:1017F300C3E49AFAE49BFB22EB20E7CFE920E7E07E
:10180300B90010BB0008E88AF084F8AAF022E4FBD0
:10181300C8FA22EB70227B10C833C8C933C93350CE
:1018230007C39AC3DBF280069A50012ADBEAC83366
:10183300F4C8C933F4C9FA2275F008E4C833C8C937
:1018430033C933C99AC99B5004C92AC93BD5F0ECA3
:10185300FBC833F4C8E4C9FA22600D08C6A2E71333
:10186300C618C613C6D5E0F322600C08C6C313C658
:1018730018C613C6D5E0F422700422600D18C6C33F
:1018830033C608C633C6D5E0F41822251810AF08AE
:10189300F518400C15198008F51840021519D2AF38
:1018A3002200C0D0251810AF08F518500C05198078
:1018B30008F51850020519D2AFD0D0222518F582A9
:1018C30010AF08F518400C15198008F518400215DB
:1018D30019D2AF851983222518F582E43519F583CA
:1018E300222518F8E43519F9222518FAE43519FBED
:1018F300222518FCE43519FD22E4732518C582C09E
:10190300E0E51934FFC583C0E0E518C3958224F8E8
:1019130010AF08858319858218800885831985820D
:1019230018D2AFCEF0A3E520F0A37808E608F0A321
:10193300DEFAEFF0A3E58124FAF8E608F0A3E6085F
:10194300F0A3E608F0A30808E608F0A3E608F0A36E
:1019530015811581D0E0FED0E0F815811581158140
:10196300E8C0E0EEC0E0222518C582C0E0E51934E6
:10197300FFC583C0E0E518C3958224F910AF08853D
:1019830083198582188008858319858218D2AFCE82
:10199300F0A3E520F0A37808E608F0A3DEFAEFF061
:1019A300A3E58124FBF8E608F0A3E608F0A3080802
:1019B300E608F0A3E608F0A315811581D0E0FED078
:1019C300E0F815811581E8C0E0EEC0E022851983B7
:1019D300851882E0A3FEE0A3F5207808E0A3F608CB
:1019E300DFFAE0A3FFE0A3C0E0E0A3C0E0E0A3C010
:1019F300E0E0A3C0E0E0A3C0E010AF088582188553
:101A030083198008858218858319D2AFD083D08249
:101A1300020132851983851882E0A3FEE0A3F52035
:101A23007808E0A3F608DFFAE0A3FFE0A3C0E0E054
:101A3300A3C0E0E0A3C0E0E0A3C0E010AF0885824C
:101A4300188583198008858218858319D2AFD083BE
:101A5300D08222C0D02518C582C0E0E51934FFC565
:101A630083C0E0E518C3958224F310AF088583197A
:101A73008582188008858319858218D2AFC8F0A3A0
:101A8300E9F0A3EAF0A3EBF0A37908E709F0A3D800
:101A9300FAECF0A3EDF0A3EEF0A3EFF0A3D0E0F0A7
:101AA300A3D0E0F0A3D0E0F0A3E520F0A3E5F0F0AD
:101AB300A322851983851882E0C0E0A3E0F9A3E09F
:101AC300FAA3E0FBA37808E0F608A3DFFAE0FCA39F
:101AD300E0FDA3E0FEA3E0FFA3E0C0E0A3E0C0E0DD
:101AE300A3E0F5D0A3E0F520A3E0A3F5F010AF0841
:101AF3008583198582188008858319858218D2AF5A
:101B0300D082D083D0E0F8D0E0327404800674022F
:101B130080027401C0E0F4041218BFD0E0121794DD
:101B2300227404800474028000CCC0E0EDC0E0E5C0
:101B330018C39CCCAD1950011D10AF068C188D191C
:101B430080068C188D19D2AF1217A1D0E0FDD0E01A
:101B5300FC22D083D082E9C0E0E493A3C386F0C51E
:101B6300F095F0F908E493A386F0C5F095F0700BB7
:101B7300E493A3C3994005E9048002A3E475F0024A
:101B8300A42582F582E5F03583F583D0E0F9E4936B
:101B9300A3C0E0E493C0E022D083D082ECC0E0EDA8
:101BA300C0E0E493A3FCE493A3FDED4C600D121B92
:101BB300E7EC24FFFCED34FFFD80EFE493A3FCE4AA
:101BC30093A3FDED4C600D121C26EC24FFFCED34B9
:101BD300FFFD80EFD0E0FDD0E0FCE493A3C0E0E4A0
:101BE30093C0E022C0E0C3E493960874019396186F
:101BF300400FE493667008087401936618700070D0
:101C030019A3A3C3E49396087401939618A3A3405E
:101C13000DD0E0D0E0D0E0021BD7A3A3A3A3A3A3DE
:101C2300D0E022C0E0C0F088F0E493667008087446
:101C3300019366187000A8F0A3A3700BD0F0D0E056
:0E1C4300D0E0D0E0021BD7A3A3D0F0D0E02267
:101C540074F612196AEAFEEBFF8C088D09EA243443
:101C6400F8E43FF9E8FCE9FD121D82E0FAEE2437BE
:101C7400F582E43FF583E0F88508F0A4C885F00A0E
:101C84008509F0A4250AF9EA28F8E439F97A257BCC
:101C940000121803EA8C828D83F0F9131313541F76
:101CA400FAEE2AFAE43FFBEA245DF582E43BF5838D
:101CB400E0C0E0740759F8D0E0B800028004C31310
:101CC400D8FCA2E04021EE2436F582E43FF583E01F
:101CD400F5F0E984A8F0EE28F8E43FF9E82438F5B3
:101CE40082E439F583E0F97F03021A1674F51219B8
:101CF4006AEAFEEBFFEA2434F582E43FF583E0C0B0
:101D0400E0121D82D0E0F08A828B83A3A3A3A3A355
:101D1400E0FAA3E0FB8E828F83A3A3A3A3A3A3A3D0
:101D2400E0C39AF508A3E09BF509EE2480F8E43FAC
:101D3400880AF50B8882F583E06401702CEE248117
:101D4400F582E43FF583EA2401F8E43BF9E06870A6
:101D540003A3E06970137CB67D04EEFAEFFB120C6A
:101D64006E850A82850B83E4F0AC08AD09EEFAEFC8
:101D7400FB121C54E9F91228C77F04021A16EA243C
:101D840035F582E43FF58322C082C08385188285BD
:101D94001983E0F8A3E0F9C3EA9CEB9D5010C3EC6F
:101DA40098ED99401BC3EA98EB995014800EC3EA4E
:101DB40098EB994007C3EC98ED99400479018002AF
:101DC4007900D083D08222EAC39CFAEB9DFB227473
:101DD400ED12196A900376E064086005E064077008
:101DE4002C9061C8E060269003A4E0F874FF68605A
:101DF4001CE875F010A4C8AAF02AF974A628FE7489
:101E04000339FF8E82F583A3A3A3E0700579000252
:101E14001FAFEE2468F50EE43FF50F906060E08597
:101E24000E82850F83F075102775110575080075EE
:101E34000900E5D914F50AE5D95403F50B6044EE1D
:101E44002484F50CE43FF50D7403650B6025E50A65
:101E5400600CEE2467F582E43FF583E0602590058D
:101E640022E06401603E850C82850D83E060207869
:101E740004801E850C82850D83E0603BE50AC394D3
:101E8400055034793DEEFAEFFB120C98021E1178DE
:101E940000E50AC398FA95E0FB120B008A088B0947
:101EA400EA4B7006120EFC021E11850C82850D830E
:101EB400E070048A108B1178008014E5D9C0E0E842
:101EC400FAE5102AF582E43511F583D0E0F008E84C
:101ED400C3950A40E6850C82850D83E0602874FC76
:101EE400250AF50A7810121B11AC0AA90BEEFAEFB9
:101EF400FB120D4674021218A4E9700AAA08AB0971
:101F0400121388021E877403650B6055E50AF50CED
:101F1400750D00780C121B11AC10AD11AA08AB0999
:101F2400120D0A74021218A4850E82850F83E0F83C
:101F34007480687005750C7F8002880CE50CF50DC3
:101F4400780D121B15780B121B15A90AAC08AD09E4
:101F54009003A4E0FA7B0012093E74021218A480D4
:101F640045851082851183E0F8C3940E500F743FA9
:101F740028F582E4348FF583E0650A6016EE24F7D1
:101F8400F582E43FF583E8F07907EEFAEFFB120CF3
:101F94005C8013900376E06408600BAC10AD11EE26
:101FA400FAEFFB120DDC120F0879017F0C021A16EE
:101FB40074F112196A74FC12188EEAFEEBFF890997
:101FC400750C00A2AFE433F508C2AF9004BEE0FA8A
:101FD4009061D0E0F8748098F895E0F9C3EA98E449
:101FE40099A2D265D0335015750C018010AA0AABA2
:101FF4000B120CC21213889004BDE004F0EE2463AB
:10200400F50AE43FF50B850A82F583E0F8A3E0F9CD
:10201400E849602DE82402FAE439FBEA2402F50ECB
:10202400E43BF50F780E121B118A828B83E0FCA32C
:10203400E0F9EEFAEFFB120CB674021218A4E96090
:10204400AC9061D0E0F87480C3989004BEF0E50CC5
:1020540060539004BDE0604D9004BFE0F89004BD6F
:10206400E0C398500C74026509703A9004C0E060B3
:10207400348E828F83A3A3A3A3E08518828519835A
:102084001220B974021218DAE81220B99004BCE0E4
:1020940028F074021218F4AA18AB197901120992E3
:1020A4009004BDE4F0E508A2E092AF74041218A411
:1020B4007F08021A16F0A3E4F09004BDE0F82200B1
:1020C4008521878522C622C0E074EB121A56A2AF7E
:1020D400E433F508C2AF759B00906182E0A2E05042
:1020E4002DE591A2E050277591FE74016521701EC3
:1020F400122242122259121B241226767404121838
:10210400A4E9640170057901120E90121DD3906147
:1021140082E0A2E5505AE591A2E550547591DF9012
:102124000376E064076005E06408702C12224274B0
:10213400016521703B122259121B24122676740465
:102144001218A4E9640170057901120E907901EE68
:10215400FAEFFB121FB48018E0640D70139003981B
:10216400E004F064287002E4F07A00E0F9120F0E43
:10217400906182E0A2E64003022217E591A2E640C4
:10218400030222177591BF900376E064057008126C
:102194000E1E120E2A8003120E24752100120E9CAC
:1021A400E9900377F07900120E90120BD87A017B34
:1021B40000900375E0F9121358907803E0644270BC
:1021C40052900526E014F0704AC2AF1221D2007872
:1021D4002AD0E0F618D0E0F6E59F540770047BFFA0
:1021E40080027B7FC4C0E07829E6F50A08E65BF547
:1021F4000B740B780A12186CD0E0250AF890627000
:10220400E0A2E740F8E8C333906272F0906270E0B5
:10221400D2E0F0906181E0A2E35009E5E9A2E35045
:102224000375E9F7A3E0A2E75009E591A2E750039B
:1022340075917FE508A2E092AF7F08021AB590037A
:10224400A4E0F875F010A4C8AAF02AF974A628FE30
:10225400740339FF22120E368E828F83E0F8A3E0D6
:10226400C82416F582E438F58322C0E0C0D0C082C9
:10227400C083906183E0A2E05009E5BFA2E050036F
:1022840075BFFEE0A2E15009E5BFA2E1500375BFAE
:10229400FDE0A2E25009E5BFA2E2500375BFFBE0F6
:1022A400A2E35009E5BFA2E3500375BFF7E0A2E43F
:1022B4005009E5BFA2E4500375BFEFE0A2E5500961
:1022C400E5BFA2E5500375BFDFE0A2E65009E5BF14
:1022D400A2E6500375BFBFD083D082D0D0D0E03205
:1022E400C0E074F2121A56E5A7A2E4500FE5A1A2C9
:1022F400E4500953A7EF75A1EF122338E5A7A2E52F
:10230400500CE5A1A2E5500653A7DF75A1DFE5A7B0
:10231400A2E15009E5A1A2E1500375A1FDE5A7A240
:10232400E2500CE5A1A2E2500653A7FB75A1FB7F86
:1023340001021AB574F812196A752101900376E046
:10234400640670077A007B00120E06A2AFE433FE27
:10235400D2AF90037CE0640170187A207B00900374
:1023640075E0F91214727A207B00900375E0F9127B
:10237400135E906182E0D2E6F0900523E06021854F
:10238400C622801690037BE064017008E5C654F809
:102394004405F5C653BEFC1220C47401652160E4F3
:1023A400EEA2E092AF7F01021A1600008E238F2462
:1023B400858228858327851882851983E0CEA3E04A
:1023C400CF852882852783EBC9EAC8EDCBECCA7593
:1023D400F010C3E833C8E933C9EA33CAEB33CBC3DB
:1023E400EA9EF526EB9FF525B35004AB25AA26EC0F
:1023F40033CCED33CDD5F0DAAE23AF242274E91219
:10240400196A74FA12188EEAFEEBFF8C088D091211
:102414000E48EAF8EBF9ECFAEDFB8E828F83121783
:1024240088900376E024F7C39405500675100102E2
:102434002537120D7C8A0A8B0BEA4B700302253474
:10244400120E3C8A0C8B0D120E3CEA650C7003EBE9
:10245400650D60ECEEFCEFFDAA18AB19120E428577
:102464000A82850B83A3A3780C12173A90900F78F5
:102474000C121714851882851983781412173A9050
:10248400900F7814121714780C7914121535501F04
:10249400780C79141216D490902F780C121555409C
:1024A4005D850C10850D11850E12850F13803790F4
:1024B400902F851410851511851612851713781021
:1024C400790C1216D4781012155550327510007507
:1024D4001100751200751301781079141216D4784E
:1024E40010790C12169B7409781012167C90909F28
:1024F400780C12173A7810790C1215F4800C7510B8
:1025040014751100751200751300900376E06408C9
:10251400600AE064066005E0640570209090277806
:1025240010121555501690902378101216AE800C88
:1025340075100075110075120075130085088285E9
:102544000983781012174974061218A47F10021A0E
:102554001674F712196A120E5A900521E06401707C
:1025640010906245E4F0A3F053F4F343FE0C53904F
:10257400F3120DF4E5C654B84441F5C6E59E54473C
:10258400644170F8906185740FF090051FE0F47059
:1025940002A3E0602C75080175090090051FE0781E
:1025A4000812187BE508F4FAA3E0600814600A1422
:1025B400600C800DEA52808008EA52908003EA524F
:1025C400A079007F02021A1674F712196AE9FEEA6A
:1025D400FF74016E700C7A807B00900375E0F91231
:1025E4001358902940E493F46008E493F9120BBA69
:1025F400800953C6B8E59E544770FA120DFA900547
:1026040021E064017003120BF090051FE0F47002E6
:10261400A3E0602B75080175090090051FE0780898
:1026240012187BE508FAA3E0600814600A14600C31
:10263400800DEA42808008EA42908003EA42A012B8
:102644000D7C8B09A909EA496016E5E170FCEA24CE
:1026540014F582E439F583E0F874FF68600288E1D8
:1026640074016F700A7A01900375E0F91213E202A3
:1026740025C774F112196A8A088B098C0A8D0B908C
:10268400900F7808121714740F1218DA780C1217B6
:102694003A90900F780C1217147808790C121535AB
:1026A40090902F50107808790C1216D478081215CF
:1026B400554014800E780C79081216D4780C121533
:1026C4005550047901800279007F08021A1674EDCE
:1026D40012196A8A088B098C0A8D0B90900F78085E
:1026E40012171474131218DA780C12173A90900F08
:1026F400780C121714780C790812153540117808E3
:10270400790C1216D4AA08AB09AC0AAD0B80227559
:1027140010007511007512007513017810790C12F0
:1027240016D47810790812169BAA10AB11AC12AD0E
:10273400137F0C021A1690900F780812173A8A82A7
:102744008B8378081217277F04021A1674F512195E
:102754006A8C828D83780812173A8A828B83780870
:102764001217001227A4C3E098F0A3E09912279649
:10277400401E909057780812173A8A828B83780803
:102784001216C18E828F83E02420F0A3E0344EF031
:1027940080A4F08E828F83C3E09420A3E0944E2221
:1027A400EA2404F8E43BF9E8FEE9FF8C828D83A374
:1027B400A3A3A3E0F8A3E0F98E828F832274F51219
:1027C400196A9004D9E0FAA3E0FBE929F8E433F9A3
:1027D400740028F582748F39F583E02AF508A3E0A4
:1027E4003BF5097808121B119090631217581223B5
:1027F400B074021218A48A088B098C0A8D0B741009
:102804007808121663AA08AB097F04021A1674F139
:1028140012196A8A0C8B0D8C0E8D0F74111218DA32
:10282400121B2874111218DAE02401F508A3E0340D
:1028340000F509E4F50AF50B780C79081215749083
:10284400901B780812173A780C7908121574AA0CA0
:10285400AB0DAC0EAD0F1223B074021218A4EA4BE8
:1028640060047A0180027A00EC2AFCE43DFD7413D2
:102874001218DAE0F8A3E0F9E8FEE9FFECF8EDF964
:102884007A717B0212180388088909E4F50AF50BAA
:102894008E828F837808121749ECF8EDF97A717BF0
:1028A400021218038A088B097405780812187B8EA3
:1028B400828F83A3A3A3A3E508F0A3E509F07F080F
:1028C400021A16C082C083E9906000F0D083D082DF
:1028D40022C0E074F2121A56A2AFE433FED2AFE57E
:1028E40089A2E15003121256758900C2C5751A00F7
:1028F400EEA2E092AF7F01021AB5C0E074F2121AA0
:1029040056A2AFE433FED2AFE58BA2E0500312121D
:1029140056758B00C2E880D5C0E0C0D0E8C0E0A8FE
:10292400A8D2AFC2C7751A00E8A2E792AFD0E0F808
:0B293400D0D0D0E032C2AF0200002281
:10294000FFFFFFFFFFFFFFFFC082C083E99015F08C
:10295000F0D083D08202013274F61218FEE99002A0
:10296000E8F0900348E0F508750900740278081251
:10297000187BAA08AB091213CA9002E9122E2C6028
:102980006E900348E075F003A4FAABF01213CA90FE
:102990000306122E2C700B9002E91236701213D01F
:1029A000804D9003061245D97AFF7BFF1211C07A41
:1029B00000801EEAF5087509007402780812187B79
:1029C00012407574FFF0A31245EDA3A3E4F0A3F049
:1029D0000A900348E0F8EAC39840D8790512082A1B
:1029E0009002E8E0F91207167AB47B08120AA002F6
:1029F000411174F41218FE8A088B09EB5480604769
:102A00009002E8E0F91213408A0A8B0BAE0AAF0B72
:102A1000EA4F602A8A828B83E064B0701A12083C05
:102A2000E960148E828F83A3A3A3A3E0F9EE2405AB
:102A3000FAE43FFB12080CEEFAEFFB12132EAA0881
:102A4000E5096480FB80047A007B00022C5A74F252
:102A50001218FE74FB12188EEAFEEBFFEA4F604379
:102A600074031218DA1232D9851882851983ECF0B2
:102A7000A3EDF074021218DAE9F0AA18AB191207E4
:102A800010E9F508707774131218DAE0F50AA3E07C
:102A9000F50BE50A450B60658E828F8312306DEE73
:102AA0004F700575080280557A067B001213CA8A9A
:102AB0000C8B0DA80CA90DEA497005750813803D13
:102AC0008A828B83E4F0122B04A3EEF0A3EF12486A
:102AD000B2E50AF0A3E50BF09002EC122C1E900276
:102AE000EC6017E0FCA3E08003EAFCEBFD8C828D38
:102AF00083122C1E70F38C828D83123C95A908746E
:102B00000502484BA3F08A828B83A32274F2121829
:102B1000FE8908E9F50C750D007403780C12187B1A
:102B2000850C0A850D0B9002EBF09002E91245BE70
:102B3000122C1C602F1213D07900801EE9F50C7541
:102B40000D007402780C12187B9002E9123F2E8857
:102B500082F583A3A3E4F0A3F009900348E0F8E929
:102B6000C39840D8900348E0FA850AF0A4CAA8F0B8
:102B7000850BF0A428FB1213CA8A0C8B0DAE0CAF88
:102B80000DEA4F7003022C12900348E0FC850AF016
:102B9000A4CCA8F0850BF0A428FD79001213167CB4
:102BA000008032EDF50C750D007403780C12187B63
:102BB0008A828B83122C178882F583E4F0122C24EE
:102BC000A3A3F0A3F00DEDC3950840D7EE250AFEB0
:102BD000EF350BFF0C900348E0F8ECC3985029EC5C
:102BE000F50C750D007402780C12187B9002E91236
:102BF0002C17E82402500109FAE9FB8A82F583EEDA
:102C0000F0A3EFF07D0080BEE5089002EBF07900C4
:102C10008002791302484E123F32F922A3A31232E6
:102C2000F1EA4B22A3F088828983A3A3A3A3227491
:102C3000F41218FE7900EAA2E0501F7508F2750937
:102C40008F7808121B1179107C047D007AF27B15B5
:102C500012082474021218A4E9F97F040219D0C0E2
:102C600082C0839002EC124034601C88828983A366
:102C7000A3E06A7003A3E06B8882898370E8A3A352
:102C8000A3A312367080047A007B0002295174F2EB
:102C90001218FE74FD12188EEAFEEBFF851882856D
:102CA0001983E4F0A3F074021218DA7401F09002B0
:102CB000EF12403470111209DA1213CA9002EF12A7
:102CC0002E2C7003022E201233C6EE2404F50AE4E3
:102CD0003FF50B850A82F583E024FE603C24FC600E
:102CE0007424FE607E24FE7003022D7024FE7003A7
:102CF000022D7D24FE7003022D8A24FE7003022D16
:102D00009724FE7003022DA424FC7003022DC52419
:102D1000FE7003022DDD022E191209DA9002F1EA8B
:102D2000F0A3EB122E3512045EE96003022E199017
:102D300002F1121B288E828F83A3A3A3A3A31245A3
:102D4000D98508828509831236701207F47402123D
:102D500018A4022E19AC18AD19EEFAEFFB120842B6
:102D6000022DE8AC18AD19EEFAEFFB120848807896
:102D7000AC18AD19EEFAEFFB12084E806BAC18AD33
:102D800019EEFAEFFB120854805EAC18AD19EEFA9A
:102D9000EFFB12085A8051AC18AD19EEFAEFFB1296
:102DA0000860804474021218E4880C890D780C12B3
:102DB0001B1174021218F4EEFAEFFB12086674028B
:102DC0001218A48023AC18AD19EEFAEFFB12086CB0
:102DD000E9F8701674021218DAE4F0803CAC18AD11
:102DE00019EEFAEFFB120872E9F8E8602C8E828F78
:102DF00083A3E064146022850A82850B83E090023D
:102E0000F1F08518828519831236709002F2123221
:102E1000D9E8A3122E35120458EEFAEFFB1207CAB6
:102E200074021218DAE0F9740302484BEAF0A3EBDB
:102E3000F0F9EA4922F07CF17D0285088285098358
:102E40001232F12274E81218FE74FA12188E740409
:102E50001218DAECF0A3EDF08A128B13EA2405F5D0
:102E60000EE43513F50FEA2402F510E43513F511DD
:102E70008510821239177508007C037D0079007A6D
:102E8000F17B02121316E50E2402F516E4350FF558
:102E90001774021218E4880C890D780C121B118526
:102EA0000E82850F83A3A3A3A3E0F50C750D007814
:102EB0000C121B11E50E2405F50CE4350FF50D7809
:102EC0000C121B1185168285178312395F1218A404
:102ED0008A0C8B0DE50C450D700302303C8020857B
:102EE0001882851983E088828983F0050885188215
:102EF000851983A3E0C0E0123077D0E0F00508E543
:102F00000A24FBF8E50B34FFF9C3E50898E499407F
:102F10000302303C7E007F00851282851383A3A3C9
:102F2000A3A3E0F5097809121B15E4F514F515784B
:102F300014121B117514EE7515027814121B1190E2
:102F400002EF121B2874091218DA121B28E50A2452
:102F5000F9F9AC0CAD0D1239711218A4E960030235
:102F60002FE3850E82850F83A3A3A3A3A3A3A3E0CE
:102F7000F89002EEE068706BE0F5148E157814128C
:102F80001B111245D6850E82850F83A3A3A3A3A38D
:102F9000A3A3A312367012131074021218A4E960CE
:102FA000421240317034E4F5147814121B117CFF86
:102FB0007DFF79071239801218A48B15A9151230DC
:102FC0008C7017850E82850F831247657404121862
:102FD000DA12401E12399202306A850C82850D8306
:102FE00012306DA818A919881489157814121B11AC
:102FF00074041218DA121B28851682851783123979
:10300000411218A48A0C8B0DEE4F7003022ED412BD
:103010003077EE123082123928EF123082F8A3E0B6
:103020003400F9E50C4B6003022EDF88828983743B
:10303000FFF0050812307774FFF00508E50860140A
:103040001313543F1232DF12046AE96003123F4542
:1030500079008016850E82850F83124765740412ED
:1030600018DA12401E123C95790A0238F8A3A3A37D
:10307000A3E0FEA3E0FF22A8089002F2E0281239A4
:103080002822F00508089002F2E028229002F2EAD5
:10309000F0A3EBF0EA492274E81218FE74FA121851
:1030A0008E74021218DA1232D974041218DAECF0A3
:1030B000A3EDF074021218DAE02405123902F58348
:1030C000E0F50CA3E0F50D74021218DAE02402F525
:1030D00010A3E03400F511851082123674750800D3
:1030E000750900EA24FCFEEB34FFFF8008050CE5BF
:1030F0000C7002050DA808C3EE98EF94005003026F
:10310000328AA818A919880E890F780E121B11850A
:103110001482851583A3A3A3A31245B5121B11E541
:10312000142405F50EE43515F50F780E121B1185E4
:103130001482851583A3A31245D9AA0CAB0D1207DF
:103140002E74061218A48A0E8B0FEA4B70030232FB
:103150008AEA2404F516E4350FF517851682F583FF
:10316000E0F50CA3E0F50D851882851983121B2864
:10317000AC0EAD0F85108285118312390E1218A482
:10318000E9F509600302328A74021218DA1239383A
:10319000F5097809121B15E4F512F5137812121BC4
:1031A000117512EE7513027812121B119002EF12B4
:1031B0001B2874071218DA121B28EEF9AC0EAD0F9B
:1031C0001239711218A4E9F509600302328AE50880
:1031D000703BE4F50EF50F780E121B117CFF7DFF9E
:1031E00079091239801218A48B0FA90F9002F312DB
:1031F000308F700D74041218DA1232CC7911023249
:10320000BB9002EEE024029002F2F080149002F2F1
:10321000E0FA9002EEE0790024025001096A497058
:103220006DA8089002EEE0FAE82AFAE43400FBEE1A
:103230009AEF9B4055851682851783E0C0E0900287
:10324000F312307CD0E0F00508851682851783A341
:10325000E0C0E0089002F312307CD0E0F005089066
:1032600002EE1245B5121B111245D6A8081232BE45
:103270001218A49002EEE02508F50874FF650C70A2
:103280000474FF650D60030230EDE508601C9002D8
:10329000F2E0F5F0E508841232DF120470E960060E
:1032A0009002F3123F4879008011E5097003750917
:1032B0000A74041218DA1232CCA9090238F8900202
:1032C000F3E028FAA3E03400124593221245C2E548
:1032D0000CF0A3E50DF022A3A3EAF0A3EBF02290FB
:1032E00002F1F07CF17D028510828511831232F1AA
:1032F00022123C85FB2274EC1218FE74FC12188E0C
:10330000123DA574021218F4850A82850B831234CB
:10331000C570030233B61233C6A818A919881089DC
:10332000117810121B117CFF7DFF790B85088285B7
:1033300009831239861218A41233D0700B850A82C1
:10334000850B8312398F807B8E828F83A3A3A3A3E7
:10335000E0F5127812121B15E4F512F5137812122B
:103360001B117512F17513027812121B11781012CD
:103370001B1174091218DA121B2874091218DA12B8
:1033800034BE8508828509831239771218A4E9FEB4
:1033900070157CF17D0285088285098312367012D2
:1033A0000476E97009801A74166E70027E00123F6E
:1033B00045EE7004800B7E01850A82850B83123CEA
:1033C00092EEF9023CA7EE2402F508E43FF509224B
:1033D0008A108B119002F2EAF0A3EBF0EA4B227410
:1033E000EC1218FE74FC12188EEAFEEBFF8C0E8DA8
:1033F0000FEA2405F508E43FF50974021218F48574
:1034000008828509831234C570030234AEEE2402AB
:10341000F50AE43FF50BA818A9198810891178104E
:10342000121B117CFF7DFF790D850A82850B8312AB
:1034300039861218A41233D0700B8508828509834F
:1034400012398F80768E828F83A3A3A3A3E0F51217
:103450007812121B15850882850983A3A3121B28E5
:103460007512F17513027812121B117810121B11CC
:1034700074091218DA121B2874091218DA1234BEF1
:10348000850A82850B831239771218A4E9FE700F22
:103490007CF17D0212366A12047CE97009801A748C
:1034A000166E70027E00123F45EE7004800B7E01A6
:1034B000850882850983123C92EEF9023CA7E0F967
:1034C000AC0CAD0D22123C7D8A0C8B0DEA4B2274A4
:1034D000E81218FE74FE12188E8A168B178C148D43
:1034E00015EA2405F50CE43517F50DEA2402F50E6E
:1034F000E43517F50F850E821236748A088B09752C
:103500000B007C037D0079007AF17B0212131675A3
:103510000A00E50814F5100424FFF508E50934FF56
:10352000F509804C9002F1E0FA9002EEE0F8EA280A
:10353000F8E43400F9E50898E50999500D9002F196
:10354000E0F8E510C3989002EEF0E0F51275130074
:103550007812121B111245D69002F2E02A1232C3E1
:103560001218A49002EEE0F89002F1E028F0050AAB
:10357000850C82850D83A3A3123F3E400302364F84
:103580009002F1E0C39508E49509400302364FAE7E
:103590000AEE2EFEE433FF123691AC18AD19124537
:1035A000E3E439FB1207348A128B13AC12AD13EA31
:1035B0004D701B750B01123682123C969002F2126E
:1035C0002C1E6003121388A90B74020238FA8516A8
:1035D00082851783A3A3A3A3E0F50B780B121B1519
:1035E000E4F512F5137812121B117512EE75130221
:1035F0007812121B119002EF121B2874071218DAAE
:10360000121B28A910850E82850F83123977121894
:10361000A4E9F50B70A01240316003023524E4F5F3
:1036200012F5137812121B117CFF7DFF790F850EA6
:1036300082850F831239861218A48B13A9131230B6
:103640008C60030235241236821239930235C97C0C
:10365000F17D02850E82850F83123670120482E995
:1036600060030235BC79000235C9850A82850B8367
:103670001232F12212367822F583123C85FB1205B4
:103680004E22123691123C85F9EA85148285158303
:1036900022850C82850D83E02EF8A3E03F8882F519
:1036A000832274E81218FE74FA12188E7404121829
:1036B000DA1232D98C168D1774041218DAE0240548
:1036C000F50EA3E03400F50F74041218DAE02402BA
:1036D0001239021239177F007E00A818A91988082C
:1036E00089097808121B11850E82850F83A3A3A375
:1036F000A3E0F5088F097808121B11E50E2405F5E3
:1037000008E4350FF5097808121B11850E82850F24
:1037100083A3A312395F1218A48A0C8B0D80241284
:103720003932F00F123932F00F9002EE123C68126B
:103730001B111245D6EFF81232BE1218A49002EEF9
:10374000E02FFFE50C450D607A85188285198312FC
:103750001B28AC0CAD0D85148285158312390E1211
:1037600018A4E9FEE50C2404F510E4350DF511E983
:10377000704B74041218DA123938F5087808121BE5
:1037800015E4F508F5097808121B117508EE75099E
:10379000027808121B119002EF121B2874071218EE
:1037A000DA121B28E50A24FAF9AC0CAD0D85148257
:1037B0008515831239771218A4E9FE603612394E46
:1037C000123C95EF70030238E59002F2E0F5F0EF5D
:1037D000849002F1F07CF17D0285148285158312BC
:1037E0003670120488E960069002F3123F487900AF
:1037F0000238F8EFF508703DE4F512F5137812126F
:103800001B117CFF7DFF7911851482851583123988
:10381000861218A48B13A9139002F312308F70092B
:1038200012394E1239920238F89002EEE0240490D8
:1038300002F2F080359002EEE0F89002F2E0FCE84F
:103840002404FAE43400FBEA6C4B60030237C9E558
:103850000A24FAFAE50B34FFFBE50828F8E4340003
:10386000F9EA98EB9950030237C9851082851183D4
:10387000E0C0E09002F3E02FF8A3E034008882F586
:1038800083D0E0F00F851082851183A3E0C0E012A1
:10389000391FD0E0F00F74021218E4880889097803
:1038A00008121B1174021218DA121B28850E828569
:1038B0000F83A3A31239411218A48A0C8B0DEA4B73
:1038C000700302371F74021218DAE0C0E012391FC9
:1038D000D0E0F00F74021218DAA3E0C0E012391F32
:1038E000D0E0023727EE70027E0A850E82850F83B4
:1038F000123954123C95EEF974061218A47F100286
:1039000019D0F514A3E03400F51585148222123283
:10391000F112071C7402221236788A0A8B0B2212CB
:103920003923229002F3E02FFAA3E034008A82F5D3
:10393000832212392374FF221245C2A3A3A3A3E05A
:10394000221245DDAA0CAB0D12073A740422851031
:103950008285118312476BF985168285178322129F
:1039600045DD850E82850F831232F112072E740613
:10397000228510828511831232F112089C7409226B
:103980008510828511831232F11208067402221208
:103990003C9BE8F0A3E9F079112274EA1218FE7456
:1039A000FE12188E8A088B098C128D13EA2405FEEC
:1039B000E43509FF123C718A0C8B0DEE2406F50EDE
:1039C000E43FF50FEA4B7003023A80E5082402F564
:1039D0000AE43509F50B8A828B83A3A3A3E0A2E551
:1039E0005022123AAA8A108B11EA4B60247912AC49
:1039F0000CAD0D12366A8510828511831218FCE910
:103A0000F50C707F850E82850F83E0600979528006
:103A100011750C0E806D850882850983A3A3A3A36D
:103A2000E0F9E4F508F5097808121B118E828F83FE
:103A3000A3A3E0F5087808121B118E828F83A3A33D
:103A4000A3121B288E828F831245D9850A82850B8B
:103A500083123DB71218A4E9F50C7011850E82850A
:103A60000F83E0702C12366A12048E80247416695B
:103A70007011750C0074181218DA1245BEE480102B
:103A8000750C01124761851282851383E8F0A3E962
:103A9000F0850E82850F83E0600479008002A90C16
:103AA00074021218A47F0E0219D08518828519831A
:103AB0001232F11208902274EC1218FE74F71218E8
:103AC0008E8A0A8B0B8C108D11EA2405FEE4350BCF
:103AD000FF750C00123C718A088B09EA4B700302D7
:103AE0003C53E50A2402F50A5002050B8A828B83B7
:103AF000A3A3A3E0A2E55025123AAA8A0C8B0DEAF3
:103B00004B604F7912AC08AD0912366A850C82857C
:103B10000D831218FCE9F50C6003023C56850A82FD
:103B2000850B83E0F508A3E0F509AA08FB120884D9
:103B3000EA4B70197AFF7BFF120884EA4B7003028C
:103B40003C498A828B83E508F0A3E509F0750800FB
:103B50008008750C0E023C5605089002EBE0F8E573
:103B600008C3984003023C49E508F50E750F007440
:103B700003780E12187B8A828B83A3A3E0250EF8AC
:103B8000A3E0350F12402670CF8E828F83123C8ABD
:103B90001232D98E828F83A3A3123C8A1232D7EEBF
:103BA0002404F508E43FF509850882F583E088825E
:103BB0008983A3A3A3A3F0A3E4F0EE2405F50EE408
:103BC0003FF50F850E82F583123C8AA3A3A3A312AF
:103BD00032D77512077513007812121B11EEFCEF25
:103BE000FD74041218EC1245941218A4E4F512782E
:103BF00012121B11850882850983E0FC7D0079176C
:103C0000850A82850B831239861218A4740712184C
:103C1000DA1233D76038850882850983123C68122E
:103C20001B11850E82850F831245D91245941218F7
:103C3000A474021218F412366A120494E960237410
:103C4000071218DA123F488019750C098008750CA4
:103C5000118003750C011247618510828511831252
:103C60003C95A90C74098041E0F5087509007808B5
:103C700022AC18AD198E82F583123C7D22123C8550
:103C8000FB12073422E0FAA3E0221232F188828983
:103C90008322123C9BE8F0A3E9F022E0F8A3E0F9CC
:103CA000850E82850F832274041218A47F0C0219DA
:103CB000D074EC1218FE123DA5751000EA2402F52E
:103CC0000CE43FF50D850C82F583123670120884E2
:103CD0008A088B09EA4B7003023D89850A82850BAD
:103CE00083E064016003023D7EAC08AD09AA0AAB23
:103CF0000B120878E9606F85088285098312306F9E
:103D0000EE2406F50AE43FF50B8E828F83A3A312FF
:103D10001B288E828F83A3A3A3A3121B28850A824C
:103D2000850B83121B2879188E828F831245D985C3
:103D30000C82850D83123DB71218A4E9F874166839
:103D4000700B850A82850B83E4F0A38014E960126E
:103D50008E828F83123670850E82850F83EAF0A3E0
:103D6000EBF089108018780E121B11AC08AD09EE2B
:103D7000FAEFFB12087E74021218A4E9F510AA08E3
:103D8000AB0912088AE510700E850C82850D83122E
:103D9000367012049A80097416651070037510004D
:103DA000A910023CACEAFEEBFF8C0E8D0FEA240555
:103DB000F50AE43FF50B221232F11208A274062232
:103DC00074EA1218FE7508007509007E007F007500
:103DD0000A00EC2402F510E43DF5118035EC65088D
:103DE0007003ED65096003023E7588828983A3A391
:103DF000E06A7003A3E06B707C88828983A3A3A32D
:103E0000A3124765EE28FEEF39FFEA28FAEB39FBEB
:103E1000050A123F3B503BE50AF50C750D00740393
:103E2000780C12187B851082851183123F2E124068
:103E300026601FE508450970A48C088D09888289D1
:103E40008312306D88828983A3A3E02EFAA3E03F1A
:103E500080BDE50AC394025003023F29750800752E
:103E60000900EE4F600FEEFAEFFB1213828A0E8B01
:103E70000FEA4B70057900023F2B750B00807FE540
:103E80000BF50C750D007403780C12187B851082ED
:103E9000851183E0250CF50CA3E0350DF50DE50C3F
:103EA0002406F514E4350DF51585148212402960B9
:103EB0003AE50C2404F512E4350DF513851282F56C
:103EC00083121B28E50E2508FAE50F12458D1218FE
:103ED000A4851282851383E02508F508A3E035093F
:103EE000F509851482851583123F48E50B600D7C2A
:103EF000087D007900AA0CAB0D121316050BE50B1B
:103F0000C3950A5003023E7F8510828511831247B4
:103F1000658882F583A3A3A3A3A3A3E50EF0A3E57D
:103F20000F122C25EEF0A3EFF07901023AA5123F13
:103F30003222E0250CF8A3E0350D229002EBE0F8E8
:103F4000E50AC398229002F21232F1121388227409
:103F5000F01218FE8A0E8B0F8C0A8D0B750D0075F2
:103F60000C00804A7916EE2406F508E43FF5098E28
:103F7000828F83A3A3121B288E828F83A3A3A3A364
:103F8000121B28850882850983121B28850E8285CD
:103F90000F83A3A3123DB71218A4E9F50D74166997
:103FA0007064850882850983E4F0A3F0050C900213
:103FB000EBE0F8E50CC398505EAA0C7B008A088BF6
:103FC000097403780812187B850A82850B83A3A3E2
:103FD000124080E8FEE9FF124027603BEA24010A14
:103FE00050010B9002EBE06A7001EB60148882894B
:103FF00083A3A3A3A3A3A3A3A31240346003023FFC
:10400000647918023F66E960A312476174101218C0
:10401000DA12401E123C95A90D7F080219D0123CFD
:1040200085F5838A8222F98882F5831245DDEC4D7D
:10403000229002F212476BF9E8492274F61218FE38
:104040007C0080010C900348E0F8ECC398501FEC12
:10405000F5087509007402780812187B124075E0A3
:104060006A7003A3E06B70DCE8FAE9FB80047A0075
:104070007B000241119002E91240808882F5832280
:10408000E02508F8A3E03509F92274F21218FE8A37
:10409000088B09750A0080278E828F83A3A3A3A3B0
:1040A000122C1C60031213887C087D007900EEFA44
:1040B000EFFB1213168E828F83E4F0A3F0050A1231
:1040C0003F3B5028E50AF50C750D007403780C127F
:1040D000187B850882850983A3A3E0250CFEA3E055
:1040E000350DFF8E82F58312403470AC85088285D1
:1040F000098374FFF0A3F002484E74F61218FE1202
:10410000470270067A007B008007A3A3A3A31236A0
:10411000707F020219D074F61218FEE9FE8C828DAF
:1041200083E06402703D1246F2F508A3E0F9A808A6
:104130007402687003742969702975080275090092
:104140007808121B11740E1218DA121B28740E1242
:1041500018DA121B28EEF91211D274061218A4E90B
:10416000F98002790180AA74E81218FE74FB121813
:104170008EE9851882851983F08A168B17ECFEED7F
:10418000FF7510008C82F583A3A3A3E0A2E4502A5C
:10419000741D1218DA123AB08A828B83E582458345
:1041A0007003024583790AEEFCEFFDAA16AB1712E5
:1041B00018FCE9F5106003024586741F1218DAE056
:1041C000F508A3E0F50974211218DAE0F50AA3E076
:1041D000F50B74231218DAE0F50EA3E0F50F8E82CA
:1041E0008F83E06402600302452FA31247658508B0
:1041F00082850983A3858212858313EE2406F50C3C
:10420000E43FF50D888289831245E3F514E439F51E
:10421000157814121B9B0100002801283E4207005C
:1042200002280A430328734200292B4401295644DB
:104230000229F44303292B440429CC442F45E50EDD
:10424000450F600302452A850C82850D8312476560
:10425000E8FAE98882F583E0850A82850B831245B6
:10426000ED12459A121B118A828983A3E0FCA3E018
:104270000244B8E50E450F600302452A850A82858F
:104280000B837401F01245CB850882850983F07C8D
:10429000007D008E828F83A3A3A3A3E02401FAA351
:1042A000E03400FB120734EA4B60458A828B83E0DE
:1042B0002402F8850A82850B83E028F0EA2404F8BA
:1042C000E43BF98882F583E08512828513831245E9
:1042D000F3F08A828B8312459A121B118A828B8398
:1042E000A31245D9E5082403FAE43509FB0244BDCD
:1042F000850A82850B83E02404F07C047D0079002C
:10430000AA12AB13121316024586E50E450F600381
:1043100002452A1245CBFEA3E0FF850A82850B8366
:104320007404F0EE850882850983F0EF851282859A
:104330001383F074031218F41246E470030243D599
:104340008A828B83A3A312306D74011218E4880E45
:10435000890F780E121B1174051218DA121B287CB3
:10436000FF7DFF12073A74041218A4EA4B703385DC
:104370000C82850D831245B5121B11850C82850DAB
:1043800083A3121B287C027D007AC17B9012053C1E
:1043900074041218A4E9700A74011218DA74FFF098
:1043A000A3F08E828F83E064027034750C02750D69
:1043B00000780C121B118E828F83A31245D9E50859
:1043C0002404FAE412458D1218A4850A82850B8311
:1043D000E02402800974011218DAEEF0A3EFF07401
:1043E000011218DA1245ABF074011218DAA3124563
:1043F000A3024524E50E450F600302452A850C8281
:10440000850D831245BE1245D9AA16AB171211D8D5
:10441000850A82850B837402F0850882850983EA08
:10442000F0851282851383EB024527E50E450F6068
:104430000302452A1245CBF8A3E0F9850A82850BD1
:10444000837402F0E8850882850983F0E985128289
:10445000851383024527850C82850D8312367012E1
:1044600012F8EAF8C3950EE4950F405AEA650E4536
:104470000F700478008021851882851983E0FCE59F
:104480000E2CFCE4350FFDC3EC9AED94005003E0D4
:104490008005E50EC8C398F8E8850A82850B83F08D
:1044A000F50A750B00780A121B11850C82850D83A5
:1044B000E0250EFCA3E0350FFDAA08AB09124594D8
:1044C0001218A4024586751007024586E50E450FB1
:1044D0007058850C82850D83124765850A82850B8D
:1044E0008374071245ED1245A31245EDA3E0851232
:1044F00082851383F0E82402FAE439FB8A82F5838B
:104500001245A3A3122B041245AB122C241245AF63
:10451000F0E82405F8500109F58289831245AFA31C
:104520001245F3A3A3A3A3F0805C75100B8057740E
:104530001D1218DA1246FB604A12476B880CF50D03
:10454000E8450D603E74251218DAE0F51078101277
:104550001B15780E121B11780A121B117808121BFA
:104560001174071218DAE0F9EEFCEFFDAA16AB178A
:10457000850C82850D831218FC74071218A4E9F5C6
:1045800010800375100EA91074050238FA3509124F
:10459000459322FB1212FE740222E0F50A750B000D
:1045A000780A22E0850882850983221245FD2212BD
:1045B00045FDA3A322E0F50E750F00780E221245EB
:1045C000C222E0F8A3E0F583888222850C82850D63
:1045D000831245C2E0229002EF1245DD22E0FCA3E7
:1045E000E0FD22123C85F8E4C8F9EA2822F088822E
:1045F000898322F088828983A31245FD22E0850801
:1046000082850983A3A32274EE1218FE74FE121889
:104610008E8A088B09ECFEEDFF890AAC18AD1912E1
:1046200046E470030246D58518828519831246FB3D
:1046300070030246D0A312476A880EF50FE8450FB3
:1046400070030246D074141218DAE0F510A3E0F5F6
:1046500011E50AF50B780B121B1574191218DA12F2
:104660001B287810121B11741B1218DA1234BEAA00
:1046700008AB09850E82850F831218FC7405121889
:10468000A4E9F50B705274FE650A604C850C8285B6
:104690000D83E0640270411246F2FAA3E0F9EAF8F1
:1046A0007402687003742969702E851082851183E5
:1046B0001245E3F50CE439F50D780C121B11EEFCF4
:1046C000EFFDAA08AB091208BA74021218A48008F8
:1046D000750B0E8003750B01A90B74021218A47FD1
:1046E0000A0219D0EEFAEFFB1207348A0C8B0DEA9E
:1046F0004B2212476A8882F583E0221232F1124778
:1047000002221208368A828B83E58245832274F660
:104710001218FE74FE12188E740C1218DA12476505
:10472000E8851882851983F074011218DAE9F0E43B
:10473000F508F5097808121B117508027808121B94
:104740001174041218E4880889097808121B117979
:10475000FE1208A274061218A474021218A40241D0
:10476000118E828F8312476BF922A3E0F8A3E02217
:1047700074F71218FEEAFEEBFF8908900306124553
:10478000D91211D8EA5402600BA908EEFAEFFB1215
:104790000728800279017F010219D074F21218FEF5
:1047A00074FE12188EEAFEEBFF7401696013740246
:1047B0006960030248497901120ABEE960030248B0
:1047C00049EEFAEFFB120884EA4B600312088AA84C
:1047D00018A919880889097808121B11750802752B
:1047E00009007808121B117508BB7509907808122A
:1047F0001B117CFF7DFF7A017B0012072E740612CD
:1048000018A4803B850882850983A3A3A3A3A3A33F
:104810001245BE1245D9EEFAEFFB1211C0E4F50CB9
:10482000F50D780C121B1174021218DA121B287C79
:10483000FF7DFFAA08AB0912073A74041218A48A74
:10484000088B09E508450970BB74021218A47F069D
:104850000219D074F41218FE8A088B09ECFEEDFFE1
:104860009015F0E0F460487A097B00121328EA4BB7
:10487000603D8A828B8374B1F0A3E41248B2122B9C
:1048800005A3E508F0A3E5091248B2A3EEF0A3EFF3
:10489000F0740C1218DA1247658A828B83A3A3A3E3
:1048A000A3A3A3A3123C959015F0E0F912133402D0
:1048B0002C5AF08A828B83A3A3A3A322C082C08335
:1048C0009061907404F0A37448125ED39061807478
:1048D00040F09061BC7407F09061877469F090615A
:1048E000B67416F07900120BDE7902120BE49029EF
:1048F00040E493F46006E493F9120BBA7905120EC2
:10490000F0024E90C082C083E9540FF9906185E0B7
:10491000696012E5C654B84441F5C6E59E54476443
:104920004170F8E9F053C6B8E59E544770FA024E5C
:104930009074F71218FEAEA853A87E120BC6C2BA26
:10494000539AFEC289759B00C2C2120BCC75A91185
:1049500075B905120BD2D2BA439A0174805E42A88F
:104960000250F3C082C083906181E4F0A3024E87BD
:1049700075E90075910075BF00020132C082C083E5
:10498000906181E4F0A374C0F0A3E4024E89C08278
:10499000C08374F812188E900378126215700302A7
:1049A0004A37900378E0544060177908AA18AB1989
:1049B000120CE0AA18AB19120926900378E054BF34
:1049C000F0E054806010790C7A477B05120CE0907F
:1049D0000378E0547FF0E0A2E050087900124A3FEB
:1049E00054FEF0E0540260087901124A3F54FDF091
:1049F000E0540460087900124A4A54FBF0E054087D
:104A000060087901124A4A54F7F0E05410600879BE
:104A100002124A4A54EFF0E0542060087903124A27
:104A20004A54DFF0A3E05401600D120BF012093874
:104A3000900379E054FEF074081218A4024E90120C
:104A40000BDE12092C900378E022120BE4120932DB
:104A5000900378E022C082C083E9600514602A8058
:104A60004F90619A7433F0A37455F09061A0743A3A
:104A7000F0900521E064017009C29190037A746797
:104A8000802D90037A7461802690619A743FF0A320
:104A9000745AF09061A0747FF0900521E064017079
:104AA00009D29190037A7471800590037A746AF048
:104AB000024E90C082C083E9600B14600D14601731
:104AC00014600C8020902944801590294580109016
:104AD0000521E0640170059029468003902947E490
:104AE00093906186F0024E9074EC1218FE74F412EA
:104AF000188E90901FAC18AD1974041217A190294C
:104B00004493F46003024C0B907808E0C394025085
:104B100003024BEF908FDE74041218F4740812171E
:104B2000A17F00750CFF750DFF750EFF7E00EFFC79
:104B300025E0F8E433F974041218DAE58228F582E6
:104B4000E58339F583E0F512A3E0F513800F7408CF
:104B50006E605B74096E6056740A6E6051EEF50803
:104B60007509007402780812187B124C1512173A56
:104B7000A909E50AC9F51074187808121663E5103A
:104B80004508F8C3E51298E51399400AE512C39861
:104B9000F8E513998008E8C39512F8E99513F9C36D
:104BA000E8950CE9950D5006880C890D8E0E0EEED9
:104BB000C39413409974FF650C700474FF650D6015
:104BC00024E50EF5087402780812187B124C1512B1
:104BD000173A851882851983E5822CF582E435839E
:104BE000F583E508F00FEFC394045003024B2375DF
:104BF00008017509007808121B1174021218F47A62
:104C0000517B0A12122C74021218A4740C1218A4EC
:104C10007F0C0219D074482508F58274783509F59F
:104C200083780822C082C083906186E0F89029478B
:104C3000E493687009902946E493906186F090614E
:104C4000AE7468F0A3746AF090624574FBF0A3043C
:104C5000F053F4FD43FE029005217401F09061A031
:104C6000E0643A7004790080027901120BDE024E92
:104C700090C082C0839004D3E06401700A9004D88D
:104C8000E06004790C80027900024E90C082C083FB
:104C900075E1F19004D6E060541460091460581472
:104CA0006050147057120C029004C5E0F97AC67B6C
:104CB00004120E7290907B121758120EA890904317
:104CC000121758120E7E9004D7E0F9120E8A79015D
:104CD000120EE49004C3124FEB241AF582E438F567
:104CE00083741AF0A3740CF07900024E90120C0831
:104CF00080B6120C0E80B1120C1480AC791280EACE
:104D000074F41218FE75D90D9004CCE0A2E0E433DF
:104D10001313F8124DA5484401F5D97800124E1727
:104D200040FB7800E8FA74CD1257033404124E2188
:104D300040F275E1959004CCE0F97ACD7B04120E37
:104D4000789016147490F0A3740B124E2C124E76B9
:104D5000124E6D124FB39004D6E064019004C370FC
:104D60000B124DAF12173A90907F8009124DAF127F
:104D7000173A90907778081216AE90900F78081234
:104D800017149004C3124FEB124E6478081217499F
:104D90009004C3124FEB124E5B7413F090037674C1
:104DA00002F0025E2B9004C5E0C4333354C02212DB
:104DB0005D46A3A3780822C082C083124F6F8AD9B0
:104DC0007800E8FC74C62C124E1C40F67800800D6A
:104DD000E8FC74DD2CF582E43404125042E8C399F7
:104DE00040EE124F61124E1740FB780080081256B9
:104DF000FF3404125042E8C39940F375E1959016D0
:104E000014749CF0A3740B124E2C124E367412F0D4
:104E100090037674018072E8FA74C62AF582E4344D
:104E200004F583E0F5D908E8C3940622124F9C7478
:104E300096F0A3740B22124E76124E6D124FB7905D
:104E400004C3E0F8A3E0C8124E6474FF1256F79052
:104E500004C3E0F8A3E0C8124E5B222414F582E4F8
:104E600038F58322240EF582E438F58322F0A3740A
:104E7000AEF0A3740B22124E7A22124E7E22F0A3C1
:104E8000744CF0A3740D22F0A3F08004A2E092AF62
:104E9000D083D082020132C082C083124EDC124D18
:104EA000A54402F5D97800124E1740FB7800800C1B
:104EB000E8FA74DD1257033404125042E8C39940F3
:104EC000EF75E195901614124EE7F0A3124EE7121B
:104ED0004E397414F0900376740480AD9004DCE0D5
:104EE000F9740729F5D92274A8124EF4124EF4F081
:104EF000A3740B22F0A3740BF0A374A822C082C089
:104F000083124F6F74064AF5D97800E8FC74C62CFA
:104F1000124E1C40F67800800DE8FC74DD2CF58202
:104F2000E43404125042E8C39940EE124F61124E2D
:104F30001740FB780080081256FF3404125042E8F4
:104F4000C39940F375E19590161474A2F0A3740B05
:104F5000124F92124E367415F09003767403024E7F
:104F6000899004FC124EDF74044AF5D978002212AD
:104F70004EDC9004C5E0C4333354C0FA22F582E419
:104F800039F583E0F5D90AEAC322EE28F8E43FF9BF
:104F9000E822124F9C744CF0A3740D22124FA022F1
:104FA000124FAD744CF0A3740D124FAD22124E7E11
:104FB000F0A322124FB722F0901622744CF0A37483
:104FC0000D124FA0744CF0A3740D124E7AF022C053
:104FD00082C0839004C3124FEB2406F582E438F5B7
:104FE00083E4024E87851882851983E0F8A3E0C820
:104FF0002274F71218FE9003A4125E3074A628F8EB
:10500000740339F9E82405FAE4391260C1A3A3A3B3
:10501000A3A3A3A3A3A31261BFA3A3A3A3A3A3A317
:10502000E024FFF8A3E034FFF98A828B83125DC984
:105030000250F37F060219D0E8FA74272AF582E4B9
:105040003405F583E0F5D90822EAFEEBFF1252E7BA
:1050500022EAF8EE28F8E43BF9E822124F7D9404A6
:105060002274F71218FEEAFEEBFF9061D0E0706444
:1050700075D90E75D90375D9047A00125051248D53
:105080001250E740F67A00125051248512505B40CE
:10509000F675E1957908EE248D1250E024851250C2
:1050A000D87C00ECF8C3E498FA95E0FBEE2AFAEF1E
:1050B0003BFBEA248C125FB8C0E0124F8A24ACF5A7
:1050C00082E439F583D0E0F00CECC3940840D412AC
:1050D000520280027900801BFAE43FFB120CD422BA
:1050E0001250D87904EE22124F7D940822A2E09249
:1050F000AF79007F010219D0C082C08375D90275D3
:10510000D90375D90575E195EA246FF582E43B1260
:105110005172EA2471F582E43B125215024E9074EA
:10512000F61218FEEAFEEBFF900527740612518D69
:10513000121B117C0179031261761218A475D9062D
:1051400075D903780012517840FB75E1959003768C
:10515000E064087016EE246FF582E43F125172EE9F
:105160002471F582E43FF583125DC979010253F0A1
:105170008882F583125DA022E8FA74272AF582E47A
:105180003405F583E0F5D908E8C3940522F07508E5
:105190002775090578082274F61218FEEAFEEBFF5F
:1051A0009061D0E0704F7801900527740BF0900368
:1051B00076E0640770177508277509057808121BD3
:1051C000117C0179031261761218A4780574012804
:1051D000F5D975D9037900800FE9FA7427125703BE
:1051E0003405F583E0F5D909E9C39840EC75E195FC
:1051F000125202800279000253F075E1957904128F
:105200000EAEEE246FF582E43FF583125DA0EE242E
:1052100071F582E43FF583E8F0A3E9F079012274A7
:10522000F71218FEEAFEEBFF75D90375D90375D99D
:105230000DEA24DF12523FF5D91251FA0250F3F56C
:1052400082E43FF583E0227F030219D074F512183F
:10525000FE1252CF6004780F8002780BEAC39812D6
:1052600054814041750A099005277409F0790812A4
:1052700052B560147508277509057808121B1112BC
:10528000616E1218A4750A0D1252A98003125038CB
:10529000E8C3950A40F775E1957904120EAE1253F2
:1052A000F5790180027900809E7401250AF5D9758F
:1052B000D903780022EE24E4FCE43FFD7A287B0544
:1052C0001252C422120CCE850882850983E0221274
:1052D00052E3FAEE2484F8E43F8808F5098882F561
:1052E00083E022EAFEEBFF9061D0E0F87480C3987F
:1052F0002274F21218FE12535D60047A0C80027A56
:105300000812547E4052750A06900527740CF090DE
:105310000393E0900528F079027C947D037A297B41
:1053200005120CCE79027C967D031252C46016756C
:1053300008277509057808121B117C061261701286
:1053400018A4750A0A1252A98003125038E8C395AE
:105350000A40F71251FA800279000250331252E3E8
:10536000F8EA2484F508E43FF509850882F583E02E
:105370002274F61218FE125049FAEE2484F8E43F23
:10538000F98882F583E060047C0880027C04EAC32B
:105390009C12548140587A02900527EAF0EE24F6D8
:1053A000F582E43F125403601975082775090578E2
:1053B00008121B117C027903EEFA1261761218A40E
:1053C0007A0674012AF5D975D90378008008E8FCBB
:1053D00074272C12503DE8C39A40F375E19512539F
:1053E000F57904120EAEEE240D12520580027900FA
:1053F0007F020219D0EE241DF582E43FF583E4F02C
:10540000A3F022F583E0900528F088828983E022CA
:1054100074F61218FE12504DFCEA2484F8E43BF9AD
:105420008882F583E060047E0880027E04ECC39EDF
:1054300012548140447C029005277407F0EA24F757
:10544000F582E43B12540360157508277509057849
:1054500008121B1179031261761218A47C067401DC
:105460002CF5D975D90378008003125038E8C39C15
:1054700040F875E1957901800279000253F0E8C3A4
:105480009A95E0C365D0332274F71218FE8908A2FA
:10549000AFE433FFC2AF7E00EA246EF8E43BF9804C
:1054A000010E88828983E0FCEEC39C5018EEFCEA72
:1054B0002CFCE43BFDEC246AF582E43DF583E065D9
:1054C0000870DE8010EA2CFAE43BFB125543E50835
:1054D00012540904F0EFA2E092AF0250F3C082C070
:1054E00083A2AFE433FDC2AF125FB514F07C00ECD1
:1054F000F8EA125054246BF582E439F583E0C0E0F9
:10550000E8246AF582E439F583D0E0F00CECC3942A
:105510000340DCEA246DF582E43BF58374FF125509
:105520004DED024E8CC082C083A2AFE433F8C2AF0F
:10553000125543E912554D125FB570037401F0E83E
:10554000024E8CEA246AF582E43BF58322F0EA24D9
:1055500069F582E43BF583E4F02274F01218FE8CC6
:10556000828D83A3A3A3A3E0541FF0EA2436125F25
:10557000568882F583E4F0750C00E50CF50AEC25FD
:105580000AF8E43D8808F5098882F583E0C0E0EA7E
:10559000250AF8E43BF9E8245DF582E439F583D087
:1055A000E0F0750A00850882850983E0F50E750F25
:1055B00000E50A780E12185CE50EA2E05027E50C13
:1055C00033333354F8250AC0E08E828F83E0F8EA43
:1055D0001250542438F582E439F583D0E0F08E82FD
:1055E0008F83E004F0050AE50AC3940840B7050C70
:1055F000E50CC3940540837F080219D0C082C083A4
:105600009003A2E0640170030256EF78009003A8B3
:10561000E060030256EF125ED1A3F090040804F09C
:1056200090040DF09003AB1256F69003B504F09081
:1056300003DBE4F09003BE125708A3F0900426F0B9
:1056400090041AF0900429F090040E7480125ED336
:10565000900414F090049212571890049BF0900458
:105660002AF090047A125718A3F0A3F0900486F061
:10567000900488F0900484F090049E1257189004CF
:10568000B1F09004AB12570874FF9004107904F045
:10569000A3D9FCE8FA74B61257033404F583E0C0CA
:1056A000E074031257033404F583D0E0F008E8C334
:1056B000940540DF7800E8FA748A1257033403F542
:1056C00083E0C0E0748A1257033404F583D0E0F01D
:1056D00008E8C3940840DF9003A2E004F06401707E
:1056E000089003AAE09003A4F07AA67B0380047AD2
:1056F000007B00024E90E4F0A3F0A3F0A3F022E8B8
:10570000FA74FD2AF582E42212570C22F0A3F0A3CA
:10571000F0A3F0A3F0A3F02212570CA3F0A3F02201
:10572000C082C083EA2403125FB86008E4F09003EB
:10573000A3E014F09003A2E014F070069003A474A8
:10574000FFF08A828B83A3A3E4F09004BBE0700D8A
:105750009003A3E0640170057900120E90024E9050
:10576000C082C0839003A9E4F09003A8F09003A244
:10577000F0A3F0A374FFF075E1F1024E9074E8120B
:1057800018FE74E412188E851882851983125DD371
:10579000F58388821251748882F583A3A31217645B
:1057A00074121218DA12177088828983A3A3A3A334
:1057B000A3A312517474161218DA125DDE240B12B0
:1057C00060B174101218DA125DDE240D1260B1742B
:1057D0000E1218DA125DDE24071260B1740412187A
:1057E000DA125DC974341218DA121B2474161218F6
:1057F000DA12175812267674041218A4E96003020C
:105800005CD4125D7D121B2474381218DA121758FA
:105810001226D274041218A48A088B098C0A8D0BE4
:10582000851882851983E024051260B1740A121864
:10583000DA125DC9740A1218DA125DBE8518828503
:105840001983E024741260B174081218DA125DC969
:1058500074081218DA125D62F8851882851983E0DF
:10586000242EFCA3E03400FD74021218DAECF0A33D
:10587000EDF0E87003025B86851882851983E0F9F4
:10588000A3E0C92475F582E439F583E0C39AF50CE9
:10589000A3E09BF50D851882851983E0240EFAA3F9
:1058A000E03401FB740C1218DAEAF0A3EBF0740296
:1058B000687004740C800274021218DA125D738529
:1058C0000C14850D15751600751700E4F512F51307
:1058D0007814791012157474181218DA78141217D3
:1058E00049125D7D781012173A74181218DA781080
:1058F0001216AE7810121B0D74381218DA121758DF
:1059000012267674041218A4E97003025B588518F5
:1059100082851983E0247A1260B174061218DA12B3
:105920005DC974061218DA125D73E4F512F513748A
:10593000181218DA78081216E87808791012169BEF
:1059400090905778081216AE85101485111585129F
:1059500016851317780879141215F485081485092B
:1059600015850A16850B1778147910121574E50C35
:105970002508FEE50D3509FF740A1218DA125D6B71
:105980003FF974041218DA125DC674181218DAC0DE
:1059900082C083124FE52478F582E438F583E0F580
:1059A0000CA3E0F50DE4F50EF50FD083D082780C52
:1059B0001216AE780C791412169B74081218DA12AB
:1059C0005D6264016003025BC8851882851983E00B
:1059D0002477F510A3E03400F511AC10FD85188292
:1059E000851983125F65120CA4851882851983E0DE
:1059F000247CF508A3E03400F509850882F58312BC
:105A00005F65124FE52420F582E438F583125DD3FB
:105A1000C8241CF582E438F583E4125DCFF8A3E0D6
:105A2000C8241DF582E438F583E4F0A3F074041271
:105A300018DA125DBE740E1218DA125D622AFAA329
:105A4000E03BFB74101218DA125D42EAF0A3EB128D
:105A50005DCF247EF516A3E03400F517851682F598
:105A600083E0F514A3E0F51574061218DA125D62EE
:105A7000FCA3E0FD851882851983E02430F512A38C
:105A8000E03400F513851882851983E02432F50A85
:105A9000A3E03400F50B74021218DA125D626C7028
:105AA00003A3E06D701D850A82850B83E065147089
:105AB00004A3E06515700C125D32E0687003A3E08A
:105AC0006960327404781412186C7814121B1185F2
:105AD0000882850983121B28EDC313FDEC13FC74A7
:105AE000041218DA125D53A3A3E0FA7B0012098CAA
:105AF00074041218A474021218DA125DBE740C1227
:105B000018DA125D59851082851183E0C0E0124FCA
:105B1000E5242BF582E438F583D0E0F07406121802
:105B2000DA125DBE74021218DA125D59125D321279
:105B30005DC9851682851783125174850A82850B8B
