:020000040000FA
:0600000002011A022516A0
:03002B00022C386C
:0300530002258CF7
:03006B00022C065E
:10008300022373E5C754F84401F5C7790122000040
:100093000080FB120086B90003020104E479217891
:1000A30008B800028004F709D8FCE479297802B87B
:1000B30000028004F709D8FCE4900281789A79134E
:1000C3008002F0A3D8FCD9FA781A90014A7A01BACF
:1000D30000028007E493A3F608DAF97A1A7B1590F5
:1000E300014B78DC79048015E493A3AD82AE838A57
:1000F300828B83F0A3AA82AB838D828E83D8E9D9C6
:10010300E77582A17583C1740312012C7582917501
:100113008300740012012C75D00075813F7518811E
:10012300751902759F00020096C09FF59FE473D076
:100133009F22D083D082C09FE493C0E0740193C018
:10014300E0740293F59F22010A416363656C2045C5
:100153006E61626C650000021400416363656C208C
:1001630052616E67650000101010416363656C2077
:10017300582D436F6F7264696E617465000041634B
:1001830063656C20592D436F6F7264696E6174658A
:100193000000416363656C205A2D436F6F7264697D
:1001A3006E617465000002578201000024820253CD
:1001B300820100001A150271820300008302023FCC
:1001C300820100001B150253820100002915025D04
:1001D300820100002A15023F820100002C15025300
:1001E3008201000039150285820000008402024169
:1001F300820300008702023F820100003C15025384
:10020300820100003A15025F82000000850202416C
:10021300820300008902023F82010000501502534D
:10022300820100003B150261820000008602024148
:10023300820300008B02023F82010000641511015A
:1002430099010F12640400AD270111310401025713
:10025300820100002A820253820100001516026502
:10026300820100001616024182030000950202512A
:10027300820100001E160243820100001716FF00D0
:1002830000B4000028002800283075A000A000A0BA
:1002930000A00000080008E001F0001000100010AA
:1002A300001000100010005000500050001000100B
:1002B30000D0070000000000000F0001000500301F
:1002C3007507001000010081FF00000000FFFFFF21
:1002D300C607E407CC070808FF0202020802500021
:1002E300A0000000E8030257820100003682025397
:1002F30082010000AB16024582010000D6020253C0
:1003030082010000AC16024782010000EC02025396
:1003130082010000AD16024982010000EE02025381
:1003230082010000AE16024B82080000EF02025366
:1003330082010000AF16024D82010000B016FF01DA
:1003430000FF20025782010000398202538201001C
:10035300001417024F8200000000000241820300D4
:10036300001D0317007A0E7A0E7A0E7A0E7A0E7A31
:100373000E7A0E7A0E7A0E7A0E7A0E7A0E7A0E387C
:10038300114A113211020202020202020202010D9B
:1003930000000010010257820100002D82025382E7
:1003A30001000057170281820100005D070253829A
:1003B3000100005817027582010000238102538255
:1003C3000100005917027382010000158102538254
:1003D3000100005A17026F820100009380025382CA
:1003E3000100005B17028782010000B7800253827D
:1003F3000100005C17026D82010000A58002538298
:100403000100005D17026B820100008180025382AC
:100413000100005E17026982010000F98002538225
:100423000100005F17026782010000601701E80303
:100433000577100A0B094B6579666F6264656D6F0A
:100443000201050702031802180418544920424CFC
:1004530045204B6579666F620000000000000000D4
:10046300CC130000D213D813FFFFFF000130750334
:100473000201060000000000000000000000000070
:10048300000000000000000000000000000000FF6A
:10049300FF0600800CE8030A0412025782010000E1
:1004A30033820253820100006918027D8203000037
:1004B30012150257820100003C82025382010000A0
:1004C3006A18027D820200001315025782010000A0
:1004D30027820253820100006B18027F8201000011
:1004E30014150241820300001515104B6579205045
:1004F300726573732053746174650002578201003F
:10050300003082025382010000BC18028B8200007B
:100513000017150241820300001815023F820100F3
:1005230000BD181201359A8C031201354C8D03124C
:100533000135698D031201359B8E03120135E68E59
:10054300031201359A8F03120135519F03120135AE
:10055300AF9F03120135CC9F031201357DA0031217
:10056300013510A103120135C8A103120135DDB60F
:10057300031201355AB7031201356AB70312013565
:1005830082B7031201359FB70312013525B8031251
:10059300013533B803120135DCBF03120135FDBF4A
:1005A300031201358EC003120135E09B031201359E
:1005B300F39B03120135229C031201355A9C03124B
:1005C3000135A39C03120135E69C031201352C9DD2
:1005D300031201355F9D03120135869D0312013518
:1005E300B59D03120135EC9D03120135059E0312DF
:1005F3000135549E031201356D9E03120135B59EDC
:1006030003120135E99E031201358FB6021201353B
:100613008DB702120135F3B70212013516B8021273
:10062300013518B80212013556B802120135C7B8A0
:100633000212013587B902120135A9B90212013537
:1006430045BA021201357CBA02120135C1BA02124F
:100653000135CEBA021201353EBB0212013588BB09
:10066300021201358BBB02120135D1BB02120135D7
:10067300D4BB02120135DEBB0212013551BC02129A
:10068300013579BC02120135ACBC02120135D0BC74
:1006930002120135CDBD0212013571BE02120135C0
:1006A300DDBE0212013519BF021201358B90031210
:1006B3000135B39003120135E0900312013518910F
:1006C300031201357E9103120135C89103120135DE
:1006D3002C9203120135749203120135B192031265
:1006E3000135DF92031201357493031201357E93B2
:1006F300031201358B9303120135BE9303120135A7
:10070300CA9303120135E29303120135EC930312EA
:10071300013550BE031201355EBE0312013576BEAC
:10072300031201358DBE0312013553BA011201358F
:10073300F6BA011201350FBC0112013587BC011253
:100743000135AEBD01120135E7BD011201357FBE92
:10075300011201356CBF0112013515C001120135BB
:100763009DC10112013585C2011201357CC30112FD
:100773000135B2C30112013554C4011201357AC4E3
:100783000112013546C6011201358CC6011201352D
:10079300AEC6011201351AC701120135E5C70112B0
:1007A30001359FC801120135ABCA011201353279F7
:1007B300001201350E7A00120135B87A00120135A4
:1007C300F97A00120135807B00120135FB7B0012A0
:1007D3000135CE7C00120135F77C00120135EB7D2B
:1007E30000120135287E00120135107F00120135F9
:1007F300417F00120135677F001201355DAC0312A2
:100803000135DCAC0312013507AD0312013517AE18
:10081300031201357A9403120135909403120135C2
:10082300AE9403120135BE9503120135C895031228
:100833000135F29603120135DF97031201354B9808
:10084300031201357DD602120135AAD702120135F2
:10085300E1D70212013538D80212013530DA02121B
:1008630001359D95011201352496011201357897C2
:1008730001120135849701120135FC9701120135EC
:10088300D59801120135D59901120135D19A01127A
:1008930001359D9B01120135F79C011201350D9D18
:1008A300011201352E9D01120135C09D0112013542
:1008B300369E011201355C9E0112013509A1011218
:1008C30001350EA10112013532A30112013579A3BD
:1008D30001120135DFA30112013525A401120135EF
:1008E300F5A401120135AAA50112013506A60112CC
:1008F300013509A60112013555A60112013591A64C
:1009030001120135D0A601120135F2A601120135FB
:1009130026A70112013594A70112013567E10212DE
:10092300013575E102120135C5E102120135E4E139
:10093300021201352EE20212013571E30212013572
:1009430009E4021201354DE40212013577E4021283
:100953000135E2E40212013526E502120135A9E56B
:100963000212013558E602120135642C00120135DA
:10097300742C001201350E2D001201356A2D001260
:100983000135282E001201354B2F001201357B2F24
:1009930000120135AA2F0012013560310012013512
:1009A300B33300120135123600120135FB36001243
:1009B3000135EB3700120135BE3900120135B63C63
:1009C30000120135D33D00120135CD3F0012013530
:1009D300DC40001201356B4200120135574300120F
:1009E3000135A64300120135164400120135324485
:1009F30000120135834400120135234900120135E9
:100A03002A4A001201358C4A00120135B74A0012F6
:100A130001356F4B0012013513EB021201351DEB4B
:100A23000212013565EB0212013579EB0212013531
:100A33000AEC0212013541EC021201357CEC021280
:100A43000135A5EC02120135F9EC021201350EED68
:100A53000212013530ED0212013545ED0212013566
:100A630059ED021201356EED02120135A8ED0212A5
:100A73000135D4ED021201350CEE02120135B4EE4C
:100A830002120135E4EE0212013527EF021201359D
:100A930051EF021201357CEF0212013578B90312CE
:100AA30001352DF50112013506F60112013575F6F2
:100AB30001120135B0F601120135EBF701120135D0
:100AC3009DF8011201354AFB01120135F5FB0112B4
:100AD3000135D6FC011201354CFE01120135B4FE7D
:100AE30001120135A4EF02120135E7EF02120135BD
:100AF30052F10212013590F30212013564A8031278
:100B0300013511A9031201350AAA0312013547AAB7
:100B13000312013520B0031201357FB003120135F2
:100B23001CB1031201354FB1031201357DB103121C
:100B33000135B8B103120135D8B1031201356AE6A4
:100B430002120135F3E602120135B2E70212013552
:100B5300C0E802120135E0EA021201350D8D0212DE
:100B63000135228D02120135ED8D02120135BA8E47
:100B730002120135278F02120135628F02120135ED
:100B83000390021201350C9102120135E491021215
:100B93000135679202120135F09202120135599321
:100BA30002120135E393021201353094021201352A
:100BB3009E9402120135409502120135EE95021200
:100BC30001350E96021201355296021201359A969C
:100BD30002120135B69602120135D596021201357D
:100BE3004F97021201355D9702120135F0970212F9
:100BF30001355A98021201352DF402120135A9F478
:100C030002120135E7F402120135CBF50212013568
:100C13003AF6021201357EF602120135C1F60212CE
:100C23000135EEF6021201350CF70212013544F7D5
:100C33000212013581F702120135A2F702120135C2
:100C430018F80212013562F8021201354EA801129A
:100C53000135E2A90112013520AC0112013568AC5E
:100C63000112013593AC0112013589AD0112013531
:100C7300B9AD0112013510AE0112013523AE0112D7
:100C8300013564AE0112013591AE01120135DAAEC0
:100C93000112013516AF011201355BAF01120135A7
:100CA300A8AF0112013510B00112013542B2011291
:100CB300013509B40112013544B401120135C2B53D
:100CC3000112013506B60112013579B6011201355B
:100CD300D3B601120135F7B7011201351EB901125E
:100CE30001353DBA011201354EBA0112013562A335
:100CF30002120135D3A3021201359CA90212013558
:100D030096AA0212013558AC02120135D6AC021272
:100D13000135D84B001201355F4C001201358C4C64
:100D230000120135CE4C00120135CA4D00120135B7
:100D33000F4E00120135344E00120135B04F001230
:100D430001352D5000120135525000120135C550A6
:100D5300001201358251001201353E520012013555
:100D6300BE52001201358C5300120135B2530012EA
:100D73000135245400120135C85400120135ED54D5
:100D830000120135595500120135BF5500120135C6
:100D9300F5550012013599560012013532570012EC
:100DA3000135B557001201352158001201356D5830
:100DB30000120135D35800120135045900120135D0
:100DC300B85900120135CE5A00120135175B0012D3
:100DD3000135345B001201351461001201355C6189
:100DE300001201354962001201356E6200120135AD
:100DF300836200120135EB62001201352B6300128E
:100E030001353E6400120135EB6400120135FFAC7D
:100E1300021201354AAD0212013556AD02120135F7
:100E230021AE0212013537AE0212013573AE021242
:100E33000135ACAE02120135E4AE021201353AAF10
:100E43000212013550AF021201358CAF0212013587
:100E53009FAF02120135C6AF02120135FAAF02127B
:100E63000135CEB0021201355DB20212013559B31C
:100E73000212013562B402120135F57F0012013509
:100E830052D9011201358DD90112013591DC0112BC
:100E93000135E3DD01120135A8DE01120135A2E1BE
:100EA300011201358CE201120135D7E2011201353D
:100EB300F1E2011201352EE30112013539E301128A
:100EC300013578E30112013581E30112013542E472
:100ED30001120135FFE40112013562E5011201350A
:100EE300C6E50112013547E6011201359082011270
:100EF3000135EC8501120135F28501120135338D7F
:100F0300011201350B920112013555980312013577
:100F1300EB98031201350199031201354799031226
:100F230001358B9903120135C59903120135579A7F
:100F330003120135C69A03120135CF9A0312013504
:100F4300DB9A03120135EF9A03120135139B031247
:100F53000135289B031201358A9B03120135B19B8E
:100F6300031201355D84031201356A8403120135CE
:100F7300848403120135B78403120135F484031208
:100F830001355A85031201356F85031201357A85C0
:100F9300031201358785031201359E85031201353E
:100FA300AC8503120135B78503120135C3850312DE
:100FB3000135D28503120135DD8503120135038620
:100FC30003120135A78603120135B78603120135D3
:100FD300D18603120135EE86031201350987031208
:100FE30001353087031201353B87031201355087E2
:100FF30003120135648703120135C58703120135D6
:10100300CB8703120135D18703120135D78703122A
:101013000135EF870312013522880312013505805C
:101023000212013593800212013528810212013523
:101033000482021201353882021201354B820212F8
:101043000135C582021201354D84021201357484C3
:1010530002120135FB84021201353A850212013571
:101063004B8502120135C08502120135DF8502125C
:101073000135F785021201353B8702120135458997
:1010830002120135778B021201357D8C0212013574
:10109300C08C02120135B8CA01120135CBCB011243
:1010A3000135B3CC01120135BDCC01120135DFCCC2
:1010B30001120135EBCC0112013538CE0112013595
:1010C30065CE0112013586CF01120135C8CF011259
:1010D3000135FDD001120135CDD1011201351CD2EC
:1010E300011201357DD201120135B2D2011201354F
:1010F300EBD20112013596D601120135ADD601129C
:1011030001352BD70112013539D70112013582D7A9
:101113000112013590D70112013511D801120135A1
:1011230080D801120135CCD8011201357D98021205
:1011330001359F98021201357B9A02120135F39D06
:10114300021201353D9F021201351FA00212013523
:10115300E6B1031201350BB2031201357CB203125F
:101163000135B4C702120135BDC702120135C6C726
:1011730002120135EAC802120135DBCA0212013537
:1011830009CB0212013534CB0212013562CB0212B4
:1011930001358DCB02120135CBCB02120135F7CBD2
:1011A3000212013534CC021201355FCC0212013533
:1011B300ABCC0212013502CD0212013542CD02122F
:1011C300013591CD02120135BCCD0212013502CE9B
:1011D3000212013530CE021201355BCE0212013507
:1011E30088CE02120135ABCE0212013599C003122B
:1011F3000135C5C0031201351EC10312013528C1D3
:101203000312013538C10312013518FD02120135ED
:101213003FFD021201356AFD02120135F9C10312C5
:1012230001351D650012013574670012013524690B
:1012330000120135816900120135816A00120135FE
:10124300FE6A00120135866B00120135AB6B00128A
:101253000135866E00120135FA6E00120135E96F11
:10126300001201351F700012013562700012013542
:10127300E371001201352572001201356E720012FE
:101283000135D77200120135F9720012013513735B
:101293000012013531740012013541740012013519
:1012A300C47500120135E475001201351A76001277
:1012B3000135967700120135D377001201350D7988
:1012C30000120135008003120135508003120135ED
:1012D3008A8103120135F981031201359D820312BC
:1012E3000135BC82031201350A83031201354C8395
:1012F300031201351DBF031201352EBF0312013541
:10130300D1BF0312013543C20312013582C2031256
:101313000135EDFF0212013571BD0312013581BDA7
:101323000312013596BD031201354ABE031201357E
:101333008CBA031201350FBB0312013575BB0312BF
:1013430001354CB80312013573B803120135C9B81E
:1013530003120135DCB8031201352DB9031201352F
:101363006CB9031201356FB9031201359C8803125E
:101373000135B08803120135298903120135FD892E
:1013830003120135CF8B03120135348C031201355F
:10139300878C03120135F87F0012013546AE031224
:1013A3000135BCAF031201351DB00312013537CF30
:1013B3000212013505D10212013580D20212013524
:1013C30042D302120135C8D302120135EBD3021204
:1013D300013509D50212013550D5021201359ED5CA
:1013E3000212013584BC03120135A7BC0312013577
:1013F300D0BC03120135E6BC0312013528BD03122C
:1014030001351DDC0212013527DC0212013567DCD0
:1014130002120135B0DC02120135E8DC021201359B
:101423003EDD021201355BDD0212013564DD02127D
:101433000135A9DD02120135D2DD02120135E7DDE6
:101443000212013557DE02120135E4DE02120135C4
:1014530038DF021201355BDF02120135DADF0212D7
:10146300013515E0021201354AE0021201355CE054
:10147300021201357BE00212013584E002120135CC
:101483003BE1021201353BB5031201358CB5031262
:10149300013515B6031201357FB603120135A9A52F
:1014A30003120135D1A503120135C6A60312013576
:1014B300EBA6031201357AA7031201358EBB031283
:1014C300013542C10312013561AA0312013597AAFE
:1014D30003120135CAAA0312013523AC03120135E5
:1014E30059FF011201356FFF0112013579FF011216
:1014F3000135CDFF011201353FBF02120135F9BF9E
:101503000212013534C00212013565C002120135E1
:10151300D5C0021201352BC1021201357FC102125F
:1015230001356CC20212013565C302120135E6C4EE
:10153300021201359AC50212013503C602120135A2
:1015430016C602120135FBC60212013554C7021238
:101553000135A9F802120135BFF80212013560F90D
:10156300021201359FF902120135BCF9021201354D
:10157300EDF9021201353AFA021201356DFA02123F
:101583000135A8FA02120135A3FC021201350BFD45
:101593000212013591E70112013519EB01120135F0
:1015A300A8EC01120135FFEC011201351EED011209
:1015B30001359CED0112013522EF01120135F5EFE2
:1015C30001120135AFF30112013597F40112013510
:1015D30092A20312013537A30312013554A3031258
:1015E3000135E7A30312013512A403120135ACA49C
:1015F3000312013597B303120135FAB30312013510
:101603005CB403120135DBB4031201358CC203123F
:101613000135D2C203120135D77F00E0667010088E
:10162300A3E066700A08A3E066700408A3E06622DC
:10163300C3E7960809E7960809E7960809E796229B
:10164300C3E09608A3E09608A3E09608A3E09622D9
:10165300C008C3E096F50808A3E096420808A3E093
:1016630096420808A3E09645087001D3D0082208E3
:101673000808EAC0E0EBC0E086F0E7A4FA180986A0
:10168300F0E7A42AFA180986F0E7A42AFA180986CB
:10169300F0E7A42AFA1986F0E7A4FBE5F02AFA1981
:1016A3000886F0E7A42BFBE5F03AFA190886F0E781
:1016B300A42BFBE5F03AFA18180986F0E7A4C5F065
:1016C3002BFBE43AFA1908E7C5F0C6A426F6E5F0C1
:1016D3003BFBE43AFA1886F0E7A4F6E5F00826F6B1
:1016E300E43B08F6E43A08F6D0E0FBD0E0FA22E463
:1016F300CFC0E0E4CEC0E0E4CDC0E0E4CCC0E07510
:10170300F020E626F608E633F608E633F608E63375
:10171300F6181818EC33FCED33FDEE33FEEF33FF10
:10172300C3EC9709ED9709EE9709EF97191919403B
:101733000FFFEC97FC09ED97FD09EE97FE191906CB
:10174300D5F0BFECF709EDF709EEF709EFF7191933
:1017530019D0E0FCD0E0FDD0E0FED0E0FF2212176C
:10176300C91818181216F21217B8191919221217D4
:10177300B8191919080808E618181820E7E012160E
:10178300F21217C918181822090909E7191919209B
:10179300E7DC080808E618181820E7030216F21217
:1017A30017C91818181216F21217C9181818121791
:1017B300B819191922E4C397F709E497F709E497CD
:1017C300F709E497F722E4C396F608E496F608E4EB
:1017D30096F608E496F6226017080808C6A2E713EF
:1017E300C618C613C618C613C618C613C6D5E0E96D
:1017F300226016080808C6C313C618C613C618C63F
:1018030013C618C613C6D5E0EA22700908080822D1
:101813006016181818C6C333C608C633C608C633BD
:10182300C608C633C6D5E0EA22E627F60809E63736
:10183300F60809E637F60809E637F622E026F60841
:10184300A3E036F608A3E036F608A3E036F622E076
:1018530026F008A3E036F008A3E036F008A3E0364C
:10186300F022C3E697F60809E697F60809E697F625
:101873000809E697F622C3E0C696F608A3E0C696E3
:10188300F608A3E0C696F608A3E0C696F622C3E0E0
:1018930096F008A3E096F008A3E096F008A3E0967C
:1018A300F022E056F608A3E056F608A3E056F60841
:1018B300A3E056F622E056F008A3E056F008A3E0B2
:1018C30056F008A3E056F022E0F608A3E0F608A3DA
:1018D300E0F608A3E0F622E6F008A3E6F008A3E6A4
:1018E300F008A3E6F022E0FAA3E0FBA3E0FCA3E008
:1018F300FD22E0FCA3E0FDA3E0FEA3E0FF22ECF069
:10190300A3EDF0A3EEF0A3EFF022E0F8A3E0F9A338
:10191300E0FAA3E0FB22E8F0A3E9F0A3EAF0A3EBEB
:10192300F022CAC0E0E6F0A308DAFAD0E0FA22CA4D
:10193300C0E0E0A3C582CCC582C583CDC583F0A337
:10194300C582CCC582C583CDC583DAE6D0E0CA2281
:10195300C3E498F8E499F91219948026C3E49AFA37
:10196300E49BFBE920E7E9121994E498F8E499F978
:1019730022C3E498F8E499F9121994E498F8E499E5
:10198300F9C3E49AFAE49BFB22EB20E7CFE920E7D3
:10199300E0B90010BB0008E88AF084F8AAF022E45A
:1019A300FBC8FA22EB70227B10C833C8C933C93392
:1019B3005007C39AC3DBF280069A50012ADBEAC8B8
:1019C30033F4C8C933F4C9FA2275F008E4C833C83C
:1019D300C933C933C99AC99B5004C92AC93BD5F035
:1019E300ECFBC833F4C8E4C9FA22600D08C6A2E7C9
:1019F30013C618C613C6D5E0F322600C08C6C3137A
:101A0300C618C613C6D5E0F422700422600D18C6AA
:101A1300C333C608C633C6D5E0F41822251810AF61
:101A230008F518400C15198008F51840021519D24D
:101A3300AF2200C0D0251810AF08F518500C0519B7
:101A43008008F51850020519D2AFD0D0222518F519
:101A53008210AF08F518400C15198008F5184002DC
:101A63001519D2AF851983222518F582E43519F5A6
:101A730083222518F8E43519F9222518FAE43519D3
:101A8300FB222518FCE43519FD22E4732518C582D1
:101A9300C0E0E51934FFC583C0E0E518C39582248F
:101AA300F810AF0885831985821880088583198506
:101AB3008218D2AFCEF0A3E520F0A37808E608F0B1
:101AC300A3DEFAEFF0A3E58124FAF8E608F0A3E633
:101AD30008F0A3E608F0A30808E608F0A3E608F078
:101AE300A315811581D0E0FED0E0F815811581158D
:101AF30081E8C0E0EEC0E0222518C582C0E0E51908
:101B030034FFC583C0E0E518C3958224F910AF08FC
:101B13008583198582188008858319858218D2AF39
:101B2300CEF0A3E520F0A37808E608F0A3DEFAEFF1
:101B3300F0A3E58124FBF8E608F0A3E608F0A30888
:101B430008E608F0A3E608F0A315811581D0E0FEAE
:101B5300D0E0F815811581E8C0E0EEC0E0228519D8
:101B630083851882E0A3FEE0A3F5207808E0A3F6BE
:101B730008DFFAE0A3FFE0A3C0E0E0A3C0E0E0A336
:101B8300C0E0E0A3C0E0E0A3C0E010AF0885821886
:101B93008583198008858218858319D2AFD083D0B5
:101BA30082020132851983851882E0A3FEE0A3F542
:101BB300207808E0A3F608DFFAE0A3FFE0A3C0E083
:101BC300E0A3C0E0E0A3C0E0E0A3C0E010AF08855D
:101BD30082188583198008858218858319D2AFD02E
:101BE30083D08222C0D02518C582C0E0E51934FF16
:101BF300C583C0E0E518C3958224F310AF0885833D
:101C0300198582188008858319858218D2AFC8F098
:101C1300A3E9F0A3EAF0A3EBF0A37908E709F0A3A3
:101C2300D8FAECF0A3EDF0A3EEF0A3EFF0A3D0E02D
:101C3300F0A3D0E0F0A3D0E0F0A3E520F0A3E5F01B
:101C4300F0A322851983851882E0C0E0A3E0F9A3FD
:101C5300E0FAA3E0FBA37808E0F608A3DFFAE0FCD0
:101C6300A3E0FDA3E0FEA3E0FFA3E0C0E0A3E0C088
:101C7300E0A3E0F5D0A3E0F520A3E0A3F5F010AFD7
:101C8300088583198582188008858319858218D26F
:101C9300AFD082D083D0E0F8D0E0327404800674F1
:101CA3000280027401C0E0F404121A50D0E0121949
:101CB30025227404800474028000CCC0E0EDC0E0EF
:101CC300E518C39CCCAD1950011D10AF068C188DBF
:101CD3001980068C188D19D2AF121932D0E0FDD0BD
:101CE300E0FC22D083D082E9C0E0E493A3C386F072
:101CF300C5F095F0F908E493A386F0C5F095F0706C
:101D03000BE493A3C3994005E9048002A3E475F0AF
:101D130002A42582F582E5F03583F583D0E0F9E46A
:101D230093A3C0E0E493C0E022D083D082ECC0E070
:101D3300EDC0E0E493A3FCE493A3FDED4C600D122E
:101D43001D78EC24FFFCED34FFFD80EFE493A3FC4E
:101D5300E493A3FDED4C600D121DB7EC24FFFCEDE5
:101D630034FFFD80EFD0E0FDD0E0FCE493A3C0E0BE
:101D7300E493C0E022C0E0C3E49396087401939611
:101D830018400FE493667008087401936618700096
:101D93007019A3A3C3E49396087401939618A3A39D
:101DA300400DD0E0D0E0D0E0021D68A3A3A3A3A31D
:101DB300A3D0E022C0E0C0F088F0E4936670080886
:101DC30074019366187000A8F0A3A3700BD0F0D031
:0F1DD300E0D0E0D0E0021D68A3A3D0F0D0E02262
:101DE40074F6121AFBEAFEEBFF8C088D09EA243420
:101DF400F8E43FF9E8FCE9FDEA243512218BFAEE18
:101E0400243712218BF88508F0A4C885F00A8509C7
:101E1400F0A4250AF9EA28F8E439F97A257B0012B6
:101E24001994EA8C828D83F0FA131313541F122130
:101E34007F245DF582E439F583E0C0E074075AF845
:101E4400D0E0B800028004C313D8FCA2E0EE50082E
:101E54002434F582E43F8014243612218BF5F0EA11
:101E640084A8F01221802438F582E439F583E0F95E
:101E74007F03021BA774F7121AFBEAFEEBFFEA24A6
:101E84003412218BC0E0EA2435F582E43FF583D097
:101E9400E0F08A828B83A3A3A3A3A3A3A3C082C0DD
:101EA400838A828B83A3A3A3A3A3E0F8A3E0F9D03E
:101EB40083D082E0C398F508A3E099F509EA248069
:101EC40012218B6401703EEA2481F582E43FF5839C
:101ED400C082C0838A828B83A3A3A3A3A3E024012B
:101EE40008A3E03400F9D083D082E0687003A3E053
:101EF4006970127CCD7D04120DBAEE2480F582E463
:101F04003FF583E4F0AC08AD09EEFAEFFB121DE4F3
:101F1400E9F9122BF87F02021BA7C082C08385183F
:101F240082851983E0F8A3E0F9C3EA9CEB9D501085
:101F3400C3EC98ED99401BC3EA98EB995014800EBA
:101F4400C3EA98EB994007C3EC98ED9940047901F2
:101F540080027900D083D08222EAC39CFAEB9DFBF5
:101F64002274EF121AFB90038DE064086005E064AC
:101F740007702A9061C8E060249003BBE0F4601D00
:101F8400E0F875F010A4C8AAF02AF974BD28FE740C
:101F94000339FF8E82F583A3A3A3E0700302207E9E
:101FA400906060E0C0E0EE2468F582E43FF583D001
:101FB400E0F0750C3E750D05750800750900E5D94E
:101FC40014F50AE5D95403F50E602F7403650E6009
:101FD4001DE50A6008EE246712218B601D90053907
:101FE400E06401602C1221886012780480101221B0
:101FF40088602CE50AC39405502580637800E50ABF
:10200400C398FA95E0FB120C5E8A088B09EA4B70C0
:1020140005121000806412218870048A0C8B0DE56F
:102024000A6012850C82850D83F50BE5D9F0A315A2
:102034000BE50B70F6122188604574FC250AF50A3D
:10204400780C121CA2AC0AA90EEEFAEFFB120E7465
:102054007402121A35E97027AA08AB0912148C7994
:102064003D8E828F83A3A3A3A3E0FA7B00120AC64A
:10207400EEFAEFFB120DDE120E86790002217A745D
:1020840003650E6053E50AF5107511007810121CF3
:10209400A2AC0CAD0DAA08AB09120E387402121AC8
:1020A40035EE246812218B64807004747F8001E013
:1020B400F50C780C121CA6E50EF50C780C121CA677
:1020C400A90AAC08AD099003BBE0FA7B00120A9C94
:1020D4007402121A35022175850C82850D83E0C3C2
:1020E400940E5011E0F8740728F582E43481F583E6
:1020F400E0650A6069850C82850D83E0C0E0EE240A
:10210400F7F582E43FF583D0E0F0A2AFE433FCC2FC
:10211400AF7A0080010AEE246E12218BF8EAC3988C
:102124005013EA12217F246AF582E439F583E064CE
:102134000770E28022EE246EF8E43FF9E0FAEE2A1A
:10214400FAE43FFBEA246AF582E43BF5837407F082
:1021540088828983E004F0ECA2E092AF80139003BC
:102164008DE06408600BAC0CAD0DEEFAEFFB120EC3
:10217400FE12100C79017F0A021BA7F8EE28F8E47E
:102184003FF9E822EE2484F582E43FF583E02274EB
:10219400F1121AFB74FC121A1FEAFEEBFF8909758F
:1021A4000D00A2AFE433F508C2AF9004D5E0FA9075
:1021B40061D0E0F8748098F895E0F9C3EA98E4995E
:1021C400A2D265D033400302227D750D0102227D27
:1021D400E0601B780A121CA2AC0EA90FEEFAEFFB0A
:1021E400120E6E7402121A357404250EF50E740163
:1021F400250EF5D9850FD9E50E6012850A82850B67
:1022040083F50CE0F5D9A3150CE50C70F675E19592
:10221400EE2463F8E43FF97A007B00A2AFE433F5DF
:102224000AC2AF88828983E0FCA3E0FDEC4D603AEA
:1022340088828983E0FAA3E0FB8C82F583E0FCA327
:10224400E0FD88828983ECF0A3EDF08A828B83E43D
:10225400F0A3F088828983E0FCA3E0FDEC4D700AD2
:1022640088828983A3A3E4F0A3F0E50AA2E092AFF5
:1022740012148C9004D4E004F0EE246312218BF841
:10228400A3E0F9E8496063EE246312218B2402F889
:10229400A3E034008882F583E5822402F50AE4355C
:1022A40083F50BE0F50EA3E0F50FEE246212218B0B
:1022B400640170369061D0E0F812218860047C04D7
:1022C40080027C007480C398FA95E0FBE50E2CF83C
:1022D400E43400F9E82402F8500109C3EA98EB99C0
:1022E400A2D265D03340030221D49061D0E0F874C7
:1022F40080C3989004D5F0E50D60539004D4E06059
:102304004D9004D6E0F89004D4E0C398500C7402C5
:102314006509703A9004D7E060348E828F83A3A35A
:10232400A3A3E08518828519831223627402121A0A
:102334006BE81223629004D3E028F07402121A8529
:10234400AA18AB197901120AF09004D4E4F0E50854
:10235400A2E092AF7404121A357F08021BA7F0A3FF
:10236400E4F09004D4E0F8228521878522C622C0B7
:10237400E074EB121BE7A2AFE433F508C2AF759B20
:1023840000906182E0A2E0502DE591A2E050277513
:1023940091FE74016521701E1224EA122501121C9B
:1023A400B51229A77404121A35E96401700579017C
:1023B400120F94121F65906182E0A2E5505AE591D4
:1023C400A2E550547591DF90038DE064076005E049
:1023D4006408702C1224EA74016521703B122501F3
:1023E400121CB51229A77404121A35E96401700588
:1023F4007901120F947901EEFAEFFB122193801800
:10240400E0640D70139003AFE004F064287002E4FC
:10241400F07A00E0F9121012906182E0A2E6400323
:102424000224BFE591A2E640030224BF7591BF9048
:10243400038DE064057008120F34120F40800312FC
:102444000F3A752100120FA0E990038EF079001263
:102454000F94120D247A017B0090038CE0F912147E
:102464005C907803E06442705290053DE014F07093
:102474004AC2AF12247A00782AD0E0F618D0E0F6E7
:10248400E59F540770047BFF80027B7FC4C0E07823
:1024940029E6F50A08E65BF50B740B780A1219FDB8
:1024A400D0E0250AF8906270E0A2E740F8E8C33370
:1024B400906272F0906270E0D2E0F0906181E0A2EC
:1024C400E35009E5E9A2E3500375E9F7A3E0A2E7C5
:1024D4005009E591A2E7500375917FE508A2E092C7
:1024E400AF7F08021C469003BBE0F875F010A4C847
:1024F400AAF02AF974BD28FE740339FF22120F4C86
:102504008E828F83E0F8A3E0C82416F582E438F5C0
:102514008322C0E0C0D0C082C083906183E0A2E087
:102524005009E5BFA2E0500375BFFEE0A2E15009E7
:10253400E5BFA2E1500375BFFDE0A2E25009E5BF8B
:10254400A2E2500375BFFBE0A2E35009E5BFA2E39A
:10255400500375BFF7E0A2E45009E5BFA2E45003BD
:1025640075BFEFE0A2E55009E5BFA2E5500375BFD2
:10257400DFE0A2E65009E5BFA2E6500375BFBFD075
:1025840083D082D0D0D0E032C0E074F2121BE7E5F1
:10259400A7A2E6500FE5A1A2E6500953A7BF75A173
:1025A400BF1225E0E5A7A2E5500CE5A1A2E550067F
:1025B40053A7DF75A1DFE5A7A2E15009E5A1A2E1D8
:1025C400500375A1FDE5A7A2E2500CE5A1A2E250DB
:1025D4000653A7FB75A1FB7F01021C4674F7121A70
:1025E400FB75210190038DE064067015120EAA8A12
:1025F400828B83A3A3A3A3A3A3E0FAA3E0FB120FFC
:1026040022A2AFE433FED2AF900393E064017018CA
:102614007A207B0090038CE0F91215767A207B00F7
:1026240090038CE0F9121462906182E0D2E6F0909B
:10263400053AE0602185C6228016900392E0640189
:102644007008E5C654F84405F5C653BEFC12236C65
:102654007401652160E4EEA2E092AF7F02021BA741
:102664008E238F2485822885832785188285198364
:10267400E0CEA3E0CF852882852783EBC9EAC8EDA5
:10268400CBECCA75F010C3E833C8E933C9EA33CADE
:10269400EB33CBC3EA9EF526EB9FF525B35004AB91
:1026A40025AA26EC33CCED33CDD5F0DAAE23AF2416
:1026B4002274E9121AFB74FA121A1FEAFEEBFF8C59
:1026C4000A8D0B120F58EAF8EBF9ECFAEDFB8E8247
:1026D4008F8312191990038DE024F7C394055006D3
:1026E40075140102281B120EAA8A088B09EA4B7082
:1026F40003022818EEFCEFFDAA18AB19120F52853D
:102704000882850983A3A3780C1218CB908188785A
:102714000C1218A585188285198378101218CB908D
:10272400818878101218A5780C7910121633501F6E
:10273400780C79101218659081C0780C12165340E9
:102744005D850C14850D15850E16850F1780379041
:1027540081C08510148511158512168513177814F8
:10276400790C1218657814121653503275140075CA
:10277400150075160075170178147910121865780C
:1027840014790C12182C7409781412180D9081A461
:10279400780C1218CB7814790C1216F2800C75147C
:1027A4001475150075160075170085088285098350
:1027B400A3A3A3A3A3A3122839121994880C890DE7
:1027C400E4F50EF50F7814790C12182C7404121A0F
:1027D4006B122839121994E8FAF50CE4F50D781403
:1027E400790C12163350077814790C12186590037B
:1027F4008DE06408600AE064066005E0640570200A
:102804009081C4781412165350169081C87814120B
:10281400183F800C751400751500751600751700A7
:10282400850A82850B8378141218DA7406121A3515
:102834007F10021BA7E0F8A3E0F97AD07B0322748F
:10284400F7121AFB120F6A900538E06401701090B9
:102854006245E4F0A3F053F4F343FE0C5390F312F7
:102864000F10E5C654B84441F5C6E59E544764418B
:1028740070F8906185740FF0900536E0F47002A34F
:10288400E0604E900537E0600814601B14602E80F1
:1028940040750801750900900536E07808121A0C95
:1028A400E508F45280802A75080175090090053600
:1028B400E07808121A0CE508F452908014750801A7
:1028C400750900900536E07808121A0CE508F452F0
:1028D400A079007F02021BA774F7121AFBE9FEEA33
:1028E400FF120F6A74016E700C7A807B0090038C67
:1028F400E0F912145C902C5CE493F46008E493F91E
:10290400120D18800953C6B8E59E544770FA120F89
:1029140016900538E064017003120D3C900536E012
:10292400F47002A3E0604B900537E0600814601A6D
:1029340014602C803D750801750900900536E07817
:1029440008121A0CE50842808028750801750900F0
:10295400900536E07808121A0CE508429080137549
:102964000801750900900536E07808121A0CE5088C
:1029740042A0120EAA8B09A909EA496014E5E17084
:10298400FCEA2414F582E439F583E0F46003E0F50D
:10299400E174016F700A7A0190038CE0F91214EC6F
:1029A4000228D774F1121AFB8A088B098C0A8D0B42
:1029B40090818878081218A5740F121A6B780C127B
:1029C40018CB908188780C1218A57808790C121607
:1029D400339081C050107808790C12186578081269
:1029E40016534014800E780C7908121865780C126E
:1029F400165350047901800279007F08021BA774E2
:102A0400ED121AFB8A088B098C0A8D0B9081887849
:102A1400081218A57413121A6B780C1218CB908133
:102A240088780C1218A5780C79081216334011789E
:102A340008790C121865AA08AB09AC0AAD0B802200
:102A44007510007511007512007513017810790C5A
:102A54001218657810790812182CAA10AB11AC1250
:102A6400AD137F0C021BA790818878081218CB8ABB
:102A7400828B8378081218B87F04021BA774F5129E
:102A84001AFB8C828D8378081218CB8A828B837808
:102A940008121891122AD9C3E09CF0A3E09D122ACF
:102AA400CB402290821878081218CB8A828B8378C4
:102AB400081218528A828B83A3A3A3A3E02420F0D4
:102AC400A3E0344EF080A0F088828983C3E0942090
:102AD400A3E0944E22EA2404F8E43BF98C828D832B
:102AE400A3A3A3A3E0FCA3E0FD888289832274F559
:102AF400121AFB9004F0E0FAA3E0FBE929F8E433AE
:102B0400F974C928F582748039F583E02AF508A39D
:102B1400E03BF5097808121CA29082081218E91209
:102B240026647402121A358A088B098C0A8D0B7478
:102B34001078081217F4AA08AB097F04021BA774C3
:102B4400F1121AFB8A0C8B0D8C0E8D0F7411121A54
:102B54006B121CB97411121A6BE02401F508A3E07E
:102B64003400F509E4F50AF50B780C7908121672AD
:102B74009081D478081218CB780C7908121672AAAE
:102B84000CAB0DAC0EAD0F1226647402121A35EAAA
:102B94004B60047A0180027A00EC2AFCE43DFD7467
:102BA40013121A6BE0F8A3E0F9E8FEE9FFECF8ED84
:102BB400F97A717B0212199488088909E4F50AF5F7
:102BC4000B8E828F8378081218DAECF8EDF97A719B
:102BD4007B021219948A088B0974057808121A0C5E
:102BE4008E828F83A3A3A3A3E508F0A3E509F07F56
:102BF40008021BA7C082C083E9906000F0D083D094
:102C04008222C0E074F2121BE7A2AFE433FED2AF1B
:102C1400E589A2E04006E589A2E1500312135A7542
:102C24008900758900C2C5751A00EEA2E092AF7FD3
:102C340001021C46C0E0C0D0E8C0E0A8A8D2AFC2E0
:102C4400C7751A00E8A2E792AFD0E0F8D0D0D0E080
:072C540032C2AF02000022B2
:102C5C00FFFFFFFFFFFFFFFFC082C083E990171348
:102C6C00F0D083D08202013274F6121A8FE99002EE
:102C7C00FFF090035FE0F508750900740278081204
:102C8C001A0CAA08AB091214D49003001231486034
:102C9C006E90035FE075F003A4FAABF01214D490BD
:102CAC00031D123148700B90030012398C1214DA88
:102CBC00804D90031D1248F57AFF7BFF1212C47AE7
:102CCC0000801EEAF50875090074027808121A0CC7
:102CDC0012439174FFF0A3124909A3A3E4F0A3F0EB
:102CEC000A90035FE0F8EAC39840D879051209828C
:102CFC009002FFE0F912086E7A0C7B0A120BFE02AE
:102D0C00442D74F4121A8F8A088B09EB5480604797
:102D1C009002FFE0F91214448A0A8B0BAE0AAF0B37
:102D2C00EA4F602A8A828B83E064B0701A1209948D
:102D3C00E960148E828F83A3A3A3A3E0F9EE24058C
:102D4C00FAE43FFB120964EEFAEFFB121432AA0804
:102D5C00E5096480FB80047A007B00022F7674F214
:102D6C00121A8F74FB121A1FEAFEEBFFEA4F604334
:102D7C007403121A6B1235F5851882851983ECF0E1
:102D8C00A3EDF07402121A6BE9F0AA18AB19120831
:102D9C0068E9F50870777413121A6BE0F50AA3E072
:102DAC00F50BE50A450B60658E828F83123389EE35
:102DBC004F700575080280557A067B001214D48A70
:102DCC000C8B0DA80CA90DEA497005750813803DF4
:102DDC008A828B83E4F0122E20A3EEF0A3EF124B29
:102DEC00CEE50AF0A3E50BF0900303122F3A900303
:102DFC00036017E0FCA3E08003EAFCEBFD8C828D02
:102E0C0083122F3A70F38C828D83123FB1A9087410
:102E1C0005024B67A3F08A828B83A32274F2121AE9
:102E2C008F8908E9F50C750D007403780C121A0CD7
:102E3C00850C0A850D0B900302F09003001248DA02
:102E4C00122F38602F1214DA7900801EE9F50C75F8
:102E5C000D007402780C121A0C90030012424A886E
:102E6C0082F583A3A3E4F0A3F00990035FE0F8E9F3
:102E7C00C39840D890035FE0FA850AF0A4CAA8F082
:102E8C00850BF0A428FB1214D48A0C8B0DAE0CAF5E
:102E9C000DEA4F7003022F2E90035FE0FC850AF0C1
:102EAC00A4CCA8F0850BF0A428FD79001214207C8A
:102EBC00008032EDF50C750D007403780C121A0CB1
:102ECC008A828B83122F338882F583E4F0122F4091
:102EDC00A3A3F0A3F00DEDC3950840D7EE250AFE91
:102EEC00EF350BFF0C90035FE0F8ECC3985029EC26
:102EFC00F50C750D007402780C121A0C900300126C
:102F0C002F33E82402500109FAE9FB8A82F583EE9B
:102F1C00F0A3EFF07D0080BEE508900302F079008D
:102F2C0080027913024B6A12424EF922A3A3123685
:102F3C000DEA4B22A3F088828983A3A3A3A3227456
:102F4C00F4121A8F7900EAA2E0501F75085E750919
:102F5C00817808121CA279107C047D007A157B17ED
:102F6C0012097C7402121A35E9F97F04021B61C044
:102F7C0082C083900303124350601C88828983A310
:102F8C00A3E06A7003A3E06B8882898370E8A3A333
:102F9C00A3A312398C80047A007B00022C6D74F28E
:102FAC00121A8F74FD121A1FEAFEEBFF8518828528
:102FBC001983E4F0A3F07402121A6B7401F09003FD
:102FCC00061243507011120B381214D490030612CF
:102FDC003148700302313C1236E2EE2404F50AE467
:102FEC003FF50B850A82F583E024FE603C24FC60EF
:102FFC007424FE607E24FE700302308C24FE700369
:10300C0002309924FE70030230A624FE70030230B5
:10301C00B324FE70030230C024FC70030230E124A0
:10302C00FE70030230F9023135120B38900308EAB6
:10303C00F0A3EB1231511205B6E960030231359061
:10304C000308121CB98E828F83A3A3A3A3A31248D7
:10305C00F585088285098312398C12094C74021289
:10306C001A35023135AC18AD19EEFAEFFB12099A8C
:10307C00023104AC18AD19EEFAEFFB1209A08078FE
:10308C00AC18AD19EEFAEFFB1209A6806BAC18ADBB
:10309C0019EEFAEFFB1209AC805EAC18AD19EEFA22
:1030AC00EFFB1209B28051AC18AD19EEFAEFFB121E
:1030BC0009B880447402121A75880C890D780C12A8
:1030CC001CA27402121A85EEFAEFFB1209BE7402EE
:1030DC00121A358023AC18AD19EEFAEFFB1209C4A5
:1030EC00E9F870167402121A6BE4F0803CAC18AD5F
:1030FC0019EEFAEFFB1209CAE9F8E8602C8E828F00
:10310C0083A3E064146022850A82850B83E090031C
:10311C0008F085188285198312398C9003091235B1
:10312C00F5E8A31231511205B0EEFAEFFB120922A9
:10313C007402121A6BE0F97403024B67EAF0A3EB0A
:10314C00F0F9EA4922F07C087D0385088285098321
:10315C0012360D2274E8121A8F74FA121A1F7404A4
:10316C00121A6BECF0A3EDF08A128B13EA2405F51E
:10317C000EE43513F50FEA2402F510E43513F511BE
:10318C00851082123C337508007C037D0079007A2F
:10319C00087B03121420E50E2402F516E4350FF516
:1031AC00177402121A75880C890D780C121CA285E2
:1031BC000E82850F83A3A3A3A3E0F50C750D0078F5
:1031CC000C121CA2E50E2405F50CE4350FF50D7858
:1031DC000C121CA2851682851783123C7B121A35A1
:1031EC008A0C8B0DE50C450D70030233588020853D
:1031FC001882851983E088828983F00508851882F6
:10320C00851983A3E0C0E0123393D0E0F00508E504
:10321C000A24FBF8E50B34FFF9C3E50898E4994060
:10322C00030233587E007F00851282851383A3A38B
:10323C00A3A3E0F5097809121CA6E4F514F515789A
:10324C0014121CA27514057515037814121CA29087
:10325C000306121CB97409121A6B121CB9E50A2464
:10326C00F9F9AC0CAD0D123C8D121A35E960030264
:10327C0032FF850E82850F83A3A3A3A3A3A3A3E090
:10328C00F8900305E068706BE0F5148E1578141255
:10329C001CA21248F2850E82850F83A3A3A3A3A3BD
:1032AC00A3A3A312398C12141A7402121A35E960F2
:1032BC004212434D7034E4F5147814121CA27CFFB6
:1032CC007DFF7907123C9C121A358B15A915123308
:1032DC00A87017850E82850F83124A817404121A06
:1032EC006B12433A123CAE023386850C82850D83F9
:1032FC00123389A818A919881489157814121CA2DC
:10330C007404121A6B121CB9851682851783123C31
:10331C005D121A358A0C8B0DEE4F70030231F012D0
:10332C003393EE12339E123C44EF12339EF8A3E01B
:10333C003400F9E50C4B60030231FB8882898374FD
:10334C00FFF0050812339374FFF00508E5086014CC
:10335C001313543F1235FB1205C2E960031242618C
:10336C0079008016850E82850F83124A81740412AF
:10337C001A6B12433A123FB1790A023C14A3A3A36D
:10338C00A3E0FEA3E0FF22A808900309E028123C6A
:10339C004422F0050808900309E02822900309EA6A
:1033AC00F0A3EBF0EA492274E8121A8F74FA121A9D
:1033BC001F7402121A6B1235F57404121A6BECF0AE
:1033CC00A3EDF07402121A6BE02405123C1EF58377
:1033DC00E0F50CA3E0F50D7402121A6BE02402F573
:1033EC0010A3E03400F51185108212399075080095
:1033FC00750900EA24FCFEEB34FFFF8008050CE5A0
:10340C000C7002050DA808C3EE98EF94005003024F
:10341C0035A6A818A919880E890F780E121CA2853A
:10342C001482851583A3A3A3A31248D1121CA2E571
:10343C00142405F50EE43515F50F780E121CA28533
:10344C001482851583A3A31248F5AA0CAB0D1208A0
:10345C00867406121A358A0E8B0FEA4B70030235EE
:10346C00A6EA2404F516E4350FF517851682F583C4
:10347C00E0F50CA3E0F50D851882851983121CB9B3
:10348C00AC0EAD0F851082851183123C2A121A35B1
:10349C00E9F50960030235A67402121A6B123C544A
:1034AC00F5097809121CA6E4F512F5137812121C12
:1034BC00A27512057513037812121CA29003061242
:1034CC001CB97407121A6B121CB9EEF9AC0EAD0FC5
:1034DC00123C8D121A35E9F50960030235A6E50890
:1034EC00703BE4F50EF50F780E121CA27CFF7DFFED
:1034FC007909123C9C121A358B0FA90F90030A12F2
:10350C0033AB700D7404121A6B1235E87911023555
:10351C00D7900305E02402900309F080149003096E
:10352C00E0FA900305E0790024025001096A497021
:10353C006DA808900305E0FAE82AFAE43400FBEEE3
:10354C009AEF9B4055851682851783E0C0E0900367
:10355C000A123398D0E0F00508851682851783A3EC
:10356C00E0C0E00890030A123398D0E0F005089010
:10357C0003051248D1121CA21248F2A8081235DA1F
:10358C00121A35900305E02508F50874FF650C70D8
:10359C000474FF650D6003023409E508601C900398
:1035AC0009E0F5F0E508841235FB1205C8E9600660
:1035BC0090030A12426479008011E50970037509C1
:1035CC000A7404121A6B1235E8A909023C14900310
:1035DC000AE028FAA3E034001248AF221248DEE5D4
:1035EC000CF0A3E50DF022A3A3EAF0A3EBF02290DC
:1035FC000308F07C087D0385108285118312360D3B
:10360C0022123FA1FB2274EC121A8F74FC121A1FA7
:10361C001240C17402121A85850A82850B831237F7
:10362C00E170030236D21236E2A818A91988108963
:10363C00117810121CA27CFF7DFF790B8508828506
:10364C000983123CA2121A351236EC700B850A82D1
:10365C00850B83123CAB807B8E828F83A3A3A3A3A9
:10366C00E0F5127812121CA6E4F512F5137812127A
:10367C001CA27512087513037812121CA278101272
:10368C001CA27409121A6B121CB97409121A6B124F
:10369C0037DA850882850983123C93121A35E9FEC4
:1036AC0070157C087D0385088285098312398C127C
:1036BC0005CEE97009801A74166E70027E001242F3
:1036CC0061EE7004800B7E01850A82850B83123FAC
:1036DC00AEEEF9023FC3EE2402F508E43FF50922F1
:1036EC008A108B11900309EAF0A3EBF0EA4B2274D9
:1036FC00EC121A8F74FC121A1FEAFEEBFF8C0E8D63
:10370C000FEA2405F508E43FF5097402121A8585C1
:10371C0008828509831237E170030237CAEE24024E
:10372C00F50AE43FF50BA818A9198810891178102F
:10373C00121CA27CFF7DFF790D850A82850B8312FA
:10374C003CA2121A351236EC700B8508828509835F
:10375C00123CAB80768E828F83A3A3A3A3E0F512D9
:10376C007812121CA6850882850983A3A3121CB9A2
:10377C007512087513037812121CA27810121CA271
:10378C007409121A6B121CB97409121A6B1237DAFB
:10379C00850A82850B83123C93121A35E9FE700F51
:1037AC007C087D031239861205D4E97009801A74DD
:1037BC00166E70027E00124261EE7004800B7E0168
:1037CC00850882850983123FAEEEF9023FC3E0F90A
:1037DC00AC0CAD0D22123F998A0C8B0DEA4B227466
:1037EC00E8121A8F74FE121A1F8A168B178C148DFE
:1037FC0015EA2405F50CE43517F50DEA2402F50E4F
:10380C00E43517F50F850E821239908A088B0975ED
:10381C000B007C037D0079007A087B031214207561
:10382C000A00E50814F5100424FFF508E50934FF37
:10383C00F509804C900308E0FA900305E0F8EA28BB
:10384C00F8E43400F9E50898E50999500D9003085F
:10385C00E0F8E510C398900305F0E0F5127513003D
:10386C007812121CA21248F2900309E02A1235DFDA
:10387C00121A35900305E0F8900308E028F0050AC9
:10388C00850C82850D83A3A312425A400302396B27
:10389C00900308E0C39508E49509400302396BAE28
:1038AC000AEE2EFEE433FF1239ADAC18AD191248F6
:1038BC00FFE439FB12088C8A128B13AC12AD13EA9D
:1038CC004D701B750B0112399E123FB290030912F9
:1038DC002F3A600312148CA90B7402023C16851645
:1038EC0082851783A3A3A3A3E0F50B780B121CA668
:1038FC00E4F512F5137812121CA275120575130358
:10390C007812121CA2900306121CB97407121A6BBF
:10391C00121CB9A910850E82850F83123C93121AC2
:10392C0035E9F50B70A012434D6003023840E4F505
:10393C0012F5137812121CA27CFF7DFF790F850EF5
:10394C0082850F83123CA2121A358B13A9131233E2
:10395C00A8600302384012399E123CAF0238E57C55
:10396C00087D03850E82850F8312398C1205DAE9E6
:10397C0060030238D879000238E5850A82850B830A
:10398C0012360D2212399422F583123FA1FB120636
:10399C00A6221239AD123FA1F9EA8514828515834E
:1039AC0022850C82850D83E02EF8A3E03F8882F5FA
:1039BC00832274E8121A8F74FA121A1F7404121AE2
:1039CC006B1235F58C168D177404121A6BE02405E6
:1039DC00F50EA3E03400F50F7404121A6BE0240208
:1039EC00123C1E123C337F007E00A818A9198808CF
:1039FC0089097808121CA2850E82850F83A3A3A3C4
:103A0C00A3E0F5088F097808121CA2E50E2405F531
:103A1C0008E4350FF5097808121CA2850E82850F73
:103A2C0083A3A3123C7B121A358A0C8B0D802412B3
:103A3C003C4EF00F123C4EF00F900305123F8412D7
:103A4C001CA21248F2EFF81235DA121A359003055F
:103A5C00E02FFFE50C450D607A85188285198312DD
:103A6C001CB9AC0CAD0D851482851583123C2A1241
:103A7C001A35E9FEE50C2404F510E4350DF511E9D1
:103A8C00704B7404121A6B123C54F5087808121C13
:103A9C00A6E4F508F5097808121CA2750805750945
:103AAC00037808121CA2900306121CB97407121A90
:103ABC006B121CB9E50A24FAF9AC0CAD0D85148215
:103ACC00851583123C93121A35E9FE6036123C6A56
:103ADC00123FB1EF7003023C01900309E0F5F0EFE7
:103AEC0084900308F07C087D03851482851583126D
:103AFC00398C1205E0E9600690030A1242647900E1
:103B0C00023C14EFF508703DE4F512F5137812122F
:103B1C001CA27CFF7DFF7911851482851583123CD4
:103B2C00A2121A358B13A91390030A1233AB700926
:103B3C00123C6A123CAE023C14900305E024049043
:103B4C000309F08035900305E0F8900309E0FCE8E8
:103B5C002404FAE43400FBEA6C4B6003023AE5E51A
:103B6C000A24FAFAE50B34FFFBE50828F8E43400E4
:103B7C00F9EA98EB995003023AE585108285118396
:103B8C00E0C0E090030AE02FF8A3E034008882F54F
:103B9C0083D0E0F00F851082851183A3E0C0E01282
:103BAC003C3BD0E0F00F7402121A75880889097832
:103BBC0008121CA27402121A6B121CB9850E828593
:103BCC000F83A3A3123C5D121A358A0C8B0DEA4BA2
:103BDC007003023A3B7402121A6BE0C0E0123C3BD9
:103BEC00D0E0F00F7402121A6BA3E0C0E0123C3B61
:103BFC00D0E0023A43EE70027E0A850E82850F8376
:103C0C00123C70123FB1EEF97406121A357F100295
:103C1C001B61F514A3E03400F515851482221236CD
:103C2C000D1208747402221239948A0A8B0B221218
:103C3C003C3F2290030AE02FFAA3E034008A82F57D
:103C4C008322123C3F74FF221248DEA3A3A3A3E0FD
:103C5C00221248F9AA0CAB0D12089274042285109A
:103C6C0082851183124A87F9851682851783221261
:103C7C0048F9850E82850F8312360D12088674065C
:103C8C002285108285118312360D1209F4740922D3
:103C9C0085108285118312360D12095E7402221270
:103CAC003FB7E8F0A3E9F079112274EA121A8F7485
:103CBC00FE121A1F8A088B098C128D13EA2405FE3A
:103CCC00E43509FF123F8D8A0C8B0DEE2406F50EA0
:103CDC00E43FF50FEA4B7003023D9CE5082402F526
:103CEC000AE43509F50B8A828B83A3A3A3E0A2E532
:103CFC005022123DC68A108B11EA4B60247912AC0B
:103D0C000CAD0D123986851082851183121A8DE93E
:103D1C00F50C707F850E82850F83E06009795280E7
:103D2C0011750C0E806D850882850983A3A3A3A34E
:103D3C00E0F9E4F508F5097808121CA28E828F834D
:103D4C00A3A3E0F5087808121CA28E828F83A3A38C
:103D5C00A3121CB98E828F831248F5850A82850BBB
:103D6C00831240D3121A35E9F50C7011850E828539
:103D7C000F83E0702C1239861205E68024741669C4
:103D8C007011750C007418121A6B1248DAE480105A
:103D9C00750C01124A7D851282851383E8F0A3E924
:103DAC00F0850E82850F83E0600479008002A90CF7
:103DBC007402121A357F0E021B61851882851983D5
:103DCC0012360D1209E82274EC121A8F74F7121ABB
:103DDC001F8A0A8B0B8C108D11EA2405FEE4350B1F
:103DEC00FF750C00123F8D8A088B09EA4B70030299
:103DFC003F6FE50A2402F50A5002050B8A828B8379
:103E0C00A3A3A3E0A2E55025123DC68A0C8B0DEAB4
:103E1C004B604F7912AC08AD09123986850C82853E
:103E2C000D83121A8DE9F50C6003023F72850A822C
:103E3C00850B83E0F508A3E0F509AA08FB1209DC61
:103E4C00EA4B70197AFF7BFF1209DCEA4B70030214
:103E5C003F658A828B83E508F0A3E509F0750800BD
:103E6C008008750C0E023F720508900302E0F8E51D
:103E7C0008C3984003023F65E508F50E750F007402
:103E8C0003780E121A0C8A828B83A3A3E0250EF8FA
:103E9C00A3E0350F12434270CF8E828F83123FA660
:103EAC001235F58E828F83A3A3123FA61235F3EE43
:103EBC002404F508E43FF509850882F583E088823F
:103ECC008983A3A3A3A3F0A3E4F0EE2405F50EE4E9
:103EDC003FF50F850E82F583123FA6A3A3A3A31271
:103EEC0035F37512077513007812121CA2EEFCEF55
:103EFC00FD7404121A7D1248B0121A35E4F51278CA
:103F0C0012121CA2850882850983E0FC7D007917BA
:103F1C00850A82850B83123CA2121A357407121A79
:103F2C006B1236F36038850882850983123F841240
:103F3C001CA2850E82850F831248F51248B0121A06
:103F4C00357402121A851239861205ECE960237455
:103F5C0007121A6B1242648019750C098008750CD3
:103F6C00118003750C01124A7D8510828511831214
:103F7C003FB1A90C74098041E0F508750900780877
:103F8C0022AC18AD198E82F583123F9922123FA1F3
:103F9C00FB12088C22E0FAA3E02212360D888289EB
:103FAC008322123FB7E8F0A3E9F022E0F8A3E0F98E
:103FBC00850E82850F83227404121A357F0C021B26
:103FCC006174EC121A8F1240C1751000EA2402F5CC
:103FDC000CE43FF50D850C82F58312398C1209DC4B
:103FEC008A088B09EA4B70030240A5850A82850B6F
:103FFC0083E06401600302409AAC08AD09AA0AABE5
:10400C000B1209D0E9606F85088285098312338B06
:10401C00EE2406F50AE43FF50B8E828F83A3A312E0
:10402C001CB98E828F83A3A3A3A3121CB9850A8209
:10403C00850B83121CB979188E828F831248F585F3
:10404C000C82850D831240D3121A35E9F874166868
:10405C00700B850A82850B83E4F0A38014E960124F
:10406C008E828F8312398C850E82850F83EAF0A3A2
:10407C00EBF089108018780E121CA2AC08AD09EE7A
:10408C00FAEFFB1209D67402121A35E9F510AA08D8
:10409C00AB091209E2E510700E850C82850D8312B6
:1040AC00398C1205F28009741665107003751000B6
:1040BC00A910023FC8EAFEEBFF8C0E8D0FEA240517
:1040CC00F50AE43FF50B2212360D1209FA7406229A
:1040DC0074EA121A8F7508007509007E007F00754E
:1040EC000A00EC2402F510E43DF5118035EC65086E
:1040FC007003ED6509600302419188828983A3A353
:10410C00E06A7003A3E06B707C88828983A3A3A30D
:10411C00A3124A81EE28FEEF39FFEA28FAEB39FBAD
:10412C00050A124257503BE50AF50C750D00740355
:10413C00780C121A0C85108285118312424A124394
:10414C0042601FE508450970A48C088D0988828996
:10415C008312338988828983A3A3E02EFAA3E03FDC
:10416C0080BDE50AC39402500302424575080075F0
:10417C000900EE4F600FEEFAEFFB1214868A0E8BDD
:10418C000FEA4B70057900024247750B00807FE502
:10419C000BF50C750D007403780C121A0C8510823B
:1041AC00851183E0250CF50CA3E0350DF50DE50C20
:1041BC002406F514E4350DF515851482124345607B
:1041CC003AE50C2404F512E4350DF513851282F54D
:1041DC0083121CB9E50E2508FAE50F1248A9121A2C
:1041EC0035851282851383E02508F508A3E035098F
:1041FC00F509851482851583124264E50B600D7CEC
:10420C00087D007900AA0CAB0D121420050BE50BF0
:10421C00C3950A500302419B851082851183124A73
:10422C00818882F583A3A3A3A3A3A3E50EF0A3E542
:10423C000F122F41EEF0A3EFF07901023DC11242B3
:10424C004E22E0250CF8A3E0350D22900302E0F895
:10425C00E50AC3982290030912360D12148C2274AD
:10426C00F0121A8F8A0E8B0F8C0A8D0B750D007540
:10427C000C00804A7916EE2406F508E43FF5098E09
:10428C00828F83A3A3121CB98E828F83A3A3A3A3B3
:10429C00121CB9850882850983121CB9850E82858A
:1042AC000F83A3A31240D3121A35E9F50D741669C6
:1042BC007064850882850983E4F0A3F0050C9003F3
:1042CC0002E0F8E50CC398505EAA0C7B008A088BC0
:1042DC000974037808121A0C850A82850B83A3A330
:1042EC0012439CE8FEE9FF124343603BEA24010AB7
:1042FC0050010B900302E06A7001EB601488828914
:10430C0083A3A3A3A3A3A3A3A312435060030242BA
:10431C00807918024282E960A3124A7D7410121A45
:10432C006B12433A123FB1A90D7F08021B61123F79
:10433C00A1F5838A8222F98882F5831248F9EC4D23
:10434C0022900309124A87F9E8492274F6121A8F4F
:10435C007C0080010C90035FE0F8ECC398501FECDC
:10436C00F50875090074027808121A0C124391E0D2
:10437C006A7003A3E06B70DCE8FAE9FB80047A0056
:10438C007B0002442D90030012439C8882F583220B
:10439C00E02508F8A3E03509F92274F2121A8F8A85
:1043AC00088B09750A0080278E828F83A3A3A3A391
:1043BC00122F38600312148C7C087D007900EEFA01
:1043CC00EFFB1214208E828F83E4F0A3F0050A1207
:1043DC0042575028E50AF50C750D007403780C1241
:1043EC001A0C850882850983A3A3E0250CFEA3E0A3
:1043FC00350DFF8E82F58312435070AC8508828593
:10440C00098374FFF0A3F0024B6A74F6121A8F1230
:10441C004A1E70067A007B008007A3A3A3A312395F
:10442C008C7F02021B6174F6121A8FE9FE8C828D4E
:10443C0083E06402703D124A0EF508A3E0F9A80867
:10444C007402687003742969702975080275090073
:10445C007808121CA2740E121A6B121CB9740E126C
:10446C001A6B121CB9EEF91212D67406121A35E92F
:10447C00F98002790180AA74E8121A8F74FB121A5F
:10448C001FE9851882851983F08A168B17ECFEEDCF
:10449C00FF7510008C82F583A3A3A3E0A2E4502A3D
:1044AC00741D121A6B123DCC8A828B83E582458374
:1044BC00700302489F790AEEFCEFFDAA16AB1712A7
:1044CC001A8DE9F51060030248A2741F121A6BE0F2
:1044DC00F508A3E0F5097421121A6BE0F50AA3E0C4
:1044EC00F50B7423121A6BE0F50EA3E0F50F8E8218
:1044FC008F83E06402600302484BA3124A81850853
:10450C0082850983A3858212858313EE2406F50C1C
:10451C00E43FF50D888289831248FFF514E439F5E0
:10452C00157814121D2C0100002801285A4507008B
:10453C000228264603288F45002947470129724740
:10454C0002291047032947470429E8474B48E50E41
:10455C00450F6003024846850C82850D83124A8103
:10456C00E8FAE98882F583E0850A82850B83124993
:10457C00091248B6121CA28A828983A3E0FCA3E02C
:10458C000247D4E50E450F6003024846850A828532
:10459C000B837401F01248E7850882850983F07C4F
:1045AC00007D008E828F83A3A3A3A3E02401FAA332
:1045BC00E03400FB12088CEA4B60458A828B83E066
:1045CC002402F8850A82850B83E028F0EA2404F89B
:1045DC00E43BF98882F583E08512828513831249C6
:1045EC000FF08A828B831248B6121CA28A828B83AC
:1045FC00A31248F5E5082403FAE43509FB0247D970
:10460C00850A82850B83E02404F07C047D0079000C
:10461C00AA12AB131214200248A2E50E450F600338
:10462C000248461248E7FEA3E0FF850A82850B8309
:10463C007404F0EE850882850983F0EF851282857B
:10464C001383F07403121A85124A0070030246F1A8
:10465C008A828B83A3A31233897401121A75880E74
:10466C00890F780E121CA27405121A6B121CB97CDD
:10467C00FF7DFF1208927404121A35EA4B703385D1
:10468C000C82850D831248D1121CA2850C82850DDB
:10469C0083A3121CB97C027D007A557B821206948E
:1046AC007404121A35E9700A7401121A6B74FFF053
:1046BC00A3F08E828F83E064027034750C02750D4A
:1046CC0000780C121CA28E828F83A31248F5E50889
:1046DC002404FAE41248A9121A35850A82850B8340
:1046EC00E0240280097401121A6BEEF0A3EFF0744F
:1046FC0001121A6B1248C7F07401121A6BA31248FC
:10470C00BF024840E50E450F6003024846850C8207
:10471C00850D831248DA1248F5AA16AB171212DC73
:10472C00850A82850B837402F0850882850983EAE9
:10473C00F0851282851383EB024843E50E450F602A
:10474C00030248461248E7F8A3E0F9850A82850B74
:10475C00837402F0E8850882850983F0E98512826A
:10476C00851383024843850C82850D8312398C1284
:10477C001402EAF8C3950EE4950F405AEA650E450B
:10478C000F700478008021851882851983E0FCE580
:10479C000E2CFCE4350FFDC3EC9AED94005003E0B5
:1047AC008005E50EC8C398F8E8850A82850B83F06E
:1047BC00F50A750B00780A121CA2850C82850D83F4
:1047CC00E0250EFCA3E0350FFDAA08AB091248B09A
:1047DC00121A350248A27510070248A2E50E450FC1
:1047EC007058850C82850D83124A81850A82850B4F
:1047FC008374071249091248BF124909A3E08512B4
:10480C0082851383F0E82402FAE439FB8A82F5836B
:10481C001248BFA3122E201248C7122F401248CBA9
:10482C00F0E82405F8500109F58289831248CBA3DE
:10483C0012490FA3A3A3A3F0805C75100B805774CF
:10484C001D121A6B124A17604A124A87880CF50D12
:10485C00E8450D603E7425121A6BE0F510781012C5
:10486C001CA6780E121CA2780A121CA27808121C24
:10487C00A27407121A6BE0F9EEFCEFFDAA16AB1747
:10488C00850C82850D83121A8D7407121A35E9F581
:10489C0010800375100EA9107405023C1635091210
:1048AC0048AF22FB121408740222E0F50A750B00C3
:1048BC00780A22E08508828509832212491922127E
:1048CC004919A3A322E0F50E750F00780E221248A9
:1048DC00DE22E0F8A3E0F583888222850C82850D28
:1048EC00831248DEE0229003061248F922E0FCA372
:1048FC00E0FD22123FA1F8E4C8F9EA2822F08882F0
:10490C00898322F088828983A312491922E08508C1
:10491C0082850983A3A32274EE121A8F74FE121AD5
:10492C001F8A088B09ECFEEDFF890AAC18AD191231
:10493C004A0070030249F1851882851983124A17BF
:10494C0070030249ECA3124A86880EF50FE8450F56
:10495C0070030249EC7414121A6BE0F510A3E0F525
:10496C0011E50AF50B780B121CA67419121A6B12AE
:10497C001CB97810121CA2741B121A6B1237DAAA0B
:10498C0008AB09850E82850F83121A8D7405121AD5
:10499C0035E9F50B705274FE650A604C850C828506
:1049AC000D83E064027041124A0EFAA3E0F9EAF8B2
:1049BC007402687003742969702E851082851183C6
:1049CC001248FFF50CE439F50D780C121CA2EEFC24
:1049DC00EFFDAA08AB09120A127402121A358008EC
:1049EC00750B0E8003750B01A90B7402121A357F1F
:1049FC000A021B61EEFAEFFB12088C8A0C8B0DEA93
:104A0C004B22124A868882F583E02212360D124A16
:104A1C001E2212098E8A828B83E58245832274F6CC
:104A2C00121A8F74FE121A1F740C121A6B124A810E
:104A3C00E8851882851983F07401121A6BE9F0E489
:104A4C00F508F5097808121CA27508027808121CE2
:104A5C00A27404121A75880889097808121CA279A4
:104A6C00FE1209FA7406121A357402121A3502442F
:104A7C002D8E828F83124A87F922A3E0F8A3E022BD
:104A8C0074F7121A8FEAFEEBFF890890031D124887
:104A9C00F51212DCEA5402600BA908EEFAEFFB12D5
:104AAC000880800279017F01021B6174F2121A8F57
:104ABC0074FE121A1FEAFEEBFF7401696013740294
:104ACC00696003024B657901120C1CE96003024B0F
:104ADC0065EEFAEFFB1209DCEA4B60031209E2A85F
:104AEC0018A919880889097808121CA2750802757A
:104AFC0009007808121CA275084175098278081201
:104B0C001CA27CFF7DFF7A017B00120886740612C2
:104B1C001A35803B850882850983A3A3A3A3A3A38D
:104B2C001248DA1248F5EEFAEFFB1212C4E4F50C57
:104B3C00F50D780C121CA27402121A6B121CB97CA3
:104B4C00FF7DFFAA08AB091208927404121A358A69
:104B5C00088B09E508450970BB7402121A357F06EB
:104B6C00021B6174F4121A8F8A088B09ECFEEDFF9C
:104B7C00901713E0F460487A097B0012142CEA4B6E
:104B8C00603D8A828B8374B1F0A3E4124BCE122E5B
:104B9C0021A3E508F0A3E509124BCEA3EEF0A3EF99
:104BAC00F0740C121A6B124A818A828B83A3A3A312
:104BBC00A3A3A3A3123FB1901713E0F91214380268
:104BCC002F76F08A828B83A3A3A3A322C082C083F7
:104BDC009061907404F0A37448F0A37402F0906197
:104BEC00807440F09061BC7403F09061877419F08C
:104BFC00906265741BF0906249E0C3941390619CC1
:104C0C0040107409F09060667401F090619F7428F4
:104C1C00800D740BF0906066E4F090619F742CF042
:104C2C00124DBD7009C29190039174678005900379
:104C3C00917461F0902C62E493906186F0902C5CFE
:104C4C00E493F46006E493F9120D187905120FF44D
:104C5C0002504BC082C083E9540FF9906185E06922
:104C6C006012E5C654B84441F5C6E59E544764410C
:104C7C0070F8E9F053C6B8E59E544770FA02504BF1
:104C8C00C082C083A8A853A87E906181E4125AC048
:104C9C00C2BA539AFEC289759B00C2C275E90075EF
:104CAC00910075BF0075A91175B905906181F0A3CC
:104CBC0074C0126244D2BA439A0174805842A8025A
:104CCC00504BC082C08374F8121A1F90038F126469
:104CDC00D97003024D9E90038FE054406017790801
:104CEC00AA18AB19120E1AAA18AB19120A8490033F
:104CFC008FE054BFF0E054806010790C7A5E7B0535
:104D0C00120E1A90038FE0547FF0E0A2E0501912BB
:104D1C004DBD7009C2919003917467800590039109
:104D2C007461124DA654FEF0E054026019124E024A
:104D3C007009D29190039174718005900391746AFB
:104D4C00124DA654FDF0E054046009902C60124DF5
:104D5C00AF54FBF0E054086009902C61124DAF5435
:104D6C00F7F0E054106009902C62124DAF54EFF044
:104D7C00E05420600A120A9090038FE054DFF0A3F5
:104D8C00E05401600D120D3C120A96900390E05411
:104D9C00FEF07408121A3502504BF0120A8A900376
:104DAC008FE022E493906186F0120A9090038FE0DA
:104DBC002290619A12501F900538E0640122C08243
:104DCC00C083E960051460178029124DBD7009C2BB
:104DDC00919003917467801A9003917461801312FF
:104DEC004E027009D29190039174718005900391D9
:104DFC00746AF002504B90619A125011900538E091
:104E0C00640122C082C083E9600814600A14600C3B
:104E1C008013902C608008902C618003902C62E4AD
:104E2C0093906186F002504B74EA121A8F74F4124C
:104E3C001A1F90818CAC18AD197404121932902C75
:104E4C006093F46003024FA6907808E0C39402507C
:104E5C0003024F8A9081307404121A857408121957
:104E6C0032A818A919881489157404121A7588089F
:104E7C008909AE08AF097510FF7511FF750EFF7C1F
:104E8C0000750C48750D78801274086C7003024F15
:104E9C001F74096C607D740A6C6078850C82850DBA
:104EAC008378081218CB8E828F83A909E50AC9F57D
:104EBC0012741878081217F4E5124508F8C3E09834
:104ECC00A3E099850C82850D8378081218CB4018C5
:104EDC008E828F83741878081217F4E5124508F83F
:104EEC00E0C398F8A3E0801A741878081217F4E558
:104EFC00124508FAE9FB8E828F83126158EAC39837
:104F0C00F8EB99F9C3E89510E995115006881089CA
:104F1C00118C0E0CE50C2404F50C5002050DECC3A1
:104F2C0094135003024E9574FF6510700474FF6562
:104F3C00116025E50EF50874027808121A0C7448F5
:104F4C002508F58274783509F58378081218CB8515
:104F5C001482851583E508F0EE2402FE50010F85BE
:104F6C001482851583A3858214858315740C121AFB
:104F7C006BE5826E7003E5836F6003024E827508E9
:104F8C00017509007808121CA27402121A857A188D
:104F9C007B0B1213367402121A35740C121A357FED
:104FAC000E021B61C082C0839061AE7468F0A37462
:104FBC006AF090624574FBF0A304F053F4FD43FED9
:104FCC00029005387401F09061A0E0643A90619A07
:104FDC00701912501F740164017009C291900391F1
:104FEC007467801E900391746180171250117401C4
:104FFC0064017009D29190039174718005900391B2
:10500C00746A02523A743FF0A3745AF09061A0741F
:10501C007FF0227433F0A37455F09061A0743AF0D1
:10502C0022C082C0839004EAE06401700A9004EF0D
:10503C00E06004790C800279008004A2E092AFD089
:10504C0083D082020132C082C08375E1F19004EDFD
:10505C00E0605314600914605714604F14705612BA
:10506C000D4E9004DCE0F97ADD7B04120F76908112
:10507C00941218E9120FAC9081901218E9120F8259
:10508C009004EEE0F9120F8E7901120FE89004DA19
:10509C001253A8241AF582E438F5837466F0A374CD
:1050AC000DF079008099120D5480B7120D5A80B210
:1050BC00120D6080AD791280EB74F4121A8F75D9D1
:1050CC000D9004E3E0A2E0E4331313F81252954878
:1050DC004401F5D97582DD75830412529F7004E585
:1050EC0083640470F57582E4758304125401E582BF
:1050FC0064EA7004E583640470F175E1959004E34F
:10510C00E0F97AE47B04120F7C90173774EEF0A36D
:10511C00740C1251E912522712521E125370900441
:10512C00EDE064019004DA700B12517A1218CB90F6
:10513C008198800912517A1218CB90819C780812B0
:10514C00183F90818878081218A59004DA126054E0
:10515C00E438F58378081218DA9004DA1253A8129E
:10516C0052157413F090038D7402F00261451264B1
:10517C0061A3A3780822C082C083125285F5D97529
:10518C0082DD75830412529F7004E583640470F50C
:10519C009004F3E0600A78DA7904FA125339DAFBF6
:1051AC0012532812529F7004E583640470F5900525
:1051BC0013E0600D78DA7904FAE8243A12533CDAF9
:1051CC00F875E19590173774FAF0A3740C1251E945
:1051DC001251F37412F090038D74018051125359D3
:1051EC0074F4F0A3740C2212522712521E12537430
:1051FC009004DA126058E438F58374FF125AAE90BA
:10520C0004DA1253AC125215222414F582E438F548
:10521C008322F0A3740CF0A3740D2212522B2212D1
:10522C00522F22F0A3747AF0A3740E22F0A3F00292
:10523C00504BC082C0831252854402F5D97582DD71
:10524C0075830412529F7004E583640470F5900416
:10525C00F3E0600A78DA7904FA125339DAFB75E173
:10526C00959017371252A8F0A31252A81251F67447
:10527C0014F090038D740480B59004F312528C22B8
:10528C00E02407F5D9125295229004DCE0C43333A4
:10529C0054C022E0F5D9A3E58264E32274061252CD
:1052AC00B51252B5F0A3740D22F0A3740DF0A374D3
:1052BC000622C082C0831252854406F5D97582DD60
:1052CC0075830412529F7004E583640470F5900496
:1052DC00F3E0600A78DA7904FA125339DAFB1253E4
:1052EC002812529F7004E583640470F5900513E056
:1052FC00600D78DA7904FAE8243A12533CDAF8753E
:10530C00E1959017377400F0A3740D12534F12519E
:10531C00F37415F090038D740302523A9005131236
:10532C00528C4404F5D97582DD75830422E8241A65
:10533C00F582E439F583E0F5D988828983A3A882C4
:10534C00A98322125359747AF0A3740E2212535D5E
:10535C002212536A747AF0A3740E12536A221252F8
:10536C002FF0A32212537422F0901745747AF0A3F5
:10537C00740E12535D747AF0A3740E12522BF02239
:10538C00C082C0839004DA1253A82406F582E43854
:10539C00F583E40252388518828519831253AC22A6
:1053AC00E0F8A3E0C82274F7121A8F9003BB1261C5
:1053BC004A74BD28F8740339F9E82405FAE439FB7A
:1053CC008A8212622AA3A3A3A3A3A3A3A3A31264F6
:1053DC00C0A3A3A3A3A3A3A3E024FFF8A3E034FFDB
:1053EC00F98A828B831264920255E67C017903124E
:1053FC000E6E740222E0F5D9A3221257213BF583DD
:10540C00E022F0EA2484F582E43BF583E022EAF81A
:10541C00EE28F8E43BF9E82274F7121A8FEAFEEB57
:10542C00FF9061D0E0706875D90E75D90375D904F9
:10543C007A0012541A248D1254B540F67A00125484
:10544C001A24851254AF40F675E1957908EE248D37
:10545C001254A824851254A07C00ECF8C3E498FAEA
:10546C0095E0FBEE2AFAEF3BFBEA248C126436C083
:10547C00E0EE28F8E43FF9E824ACF582E439F58352
:10548C00D0E0F00CECC3940840D01255A8800279FF
:10549C00000255E6FAE43FFB120E0E221254A079DC
:1054AC0004EE221254BB9404221254BB940822F52D
:1054BC0082E439F583E0F5D90AEAC322C082C083BD
:1054CC0075D90275D90375D90575E195EA12554060
:1054DC003B126156EA2471F582E43B1255B5025039
:1054EC004B74F6121A8FEAFEEBFF90053E7406120F
:1054FC00554F121CA21253F7121A3575D90675D9CD
:10550C000375823E7583051255467004E583640568
:10551C0070F575E19590038DE06408701112553F9C
:10552C003F126156EE2471F582E43F1264907901CA
:10553C00025694EE246FF582E422E0F5D9A3E582BD
:10554C00644322F075083E75090578082274F6123A
:10555C001A8FEAFEEBFF9061D0E070337801900572
:10556C003E740BF090038DE06407701375083E7564
:10557C0009057808121CA21253F7121A3578051275
:10558C00580C125401DAFB75E1951255A88002797A
:10559C000002569475E1957904120FB2EE246F1245
:1055AC0064DFEE2471F582E43FF583E8F0A3E9F0C3
:1055BC0079012274F7121A8FEAFEEBFF75D9037585
:1055CC00D90375D90DEA24DF126323F5D91255A03E
:1055DC008008F0EEA2E092AF79007F01021B61E837
:1055EC00C39A95E0C365D0332274F6121A8F125702
:1055FC001560047A0F80027A0B1255EB40437C093C
:10560C0090053EEC125666125675DDFB1263206057
:10561C001975083E7509057808121CA27903EEFA73
:10562C00EFFB1253FB121A357C0D12565112570C0C
:10563C0070FB75E1957904120FB2125795790180C0
:10564C0002790080431256578C082274012CF5D92C
:10565C0075D90375823E75830522F0EE24E4F8E4D7
:10566C003FF97A3F7B057D082288828983E08A8214
:10567C008B831264C8A3A882A9838A828B83A3AA72
:10568C0082AB8322A2E092AF7F02021B6174F612FE
:10569C001A8F12571560047A0C80027A081255EB97
:1056AC00405A780690053E740CF09003AAE09005E1
:1056BC003FF09003ABE0900540F09003ACE0900518
:1056CC0041F09003ADE0900542F09003AEE0900500
:1056DC00431257A9601975083E7509057808121C04
:1056EC00A27C067903EEFA1253FB121A35780A12D1
:1056FC0057A312570C70FB1255A0800279008088BA
:10570C00E0F5D9A31508E50822EAFEEBFF125721B4
:10571C003FF583E0229061D0E0F87480C398F8EAFA
:10572C002484F582E42274F6121A8F125715600441
:10573C007A0880027A041255EB4049780290053EB3
:10574C00E8F0EE24F612632390053F1257A9601976
:10575C0075083E7509057808121CA27C027903EEC7
:10576C00FA1253FB121A3578061257A312570C7003
:10577C00FB75E1951257957904120FB2EE240D12B8
:10578C0055AB80027900025694EE241DF582E43F5D
:10579C00F583E4F0A3F022125812880822F0EE24CC
:1057AC0084F582E43FF583E02274F6121A8F1254CA
:1057BC000660047C0880027C04E8C39C1255EE4011
:1057CC003A780290053E7407F0EA24F7126436909A
:1057DC00053F12540E601575083E750905780812C0
:1057EC001CA27C021253F9121A35780612580C12AC
:1057FC005401DAFB75E19579018002790002569427
:10580C00125812E8FA22740128F5D975D903758259
:10581C003E7583052274F6121A8FE9FEA2AFE433AB
:10582C00FDC2AF7C0080010C126433F8ECC39850BD
:10583C0014ECF8EA12541D246AF582E439F583E07D
:10584C006E70E48018EA246EF8E43BF9E0F508EA9F
:10585C002508FAE43BFB1258FAEE1259B1ED025648
:10586C009074F6121A8FEAFCEBFDA2AFE433F50844
:10587C00C2AFEA246EF582E43DF583E014F0EA242D
:10588C006AFAE43DFBEA2403F8E43BF9E8FEE9FF9D
:10589C008A828B83A3A882A983E08A828B83F0E817
:1058AC00FAE9FBEE6A7002EF6B70E5EC246DF582A1
:1058BC00E43DF58374FFF0EC2469F582E43DF58357
:1058CC00E4F0E508025690C082C083A2AFE433F83E
:1058DC00C2AF1258FAE9F0EA2469F582E43BF58389
:1058EC00E4F012643370037401F0E8025047EA24C8
:1058FC006AF582E43BF5832274F3121A8FEAFEEB0D
:10590C00FFECFAEDFB8C82F583A3A3A3A3E0541F59
:10591C00F0EE2436F582E43FF583E4F0750800EEF2
:10592C00245DFCE43FFD8A828B83E08C828D83F0C6
:10593C00750900E50833333354F8F50C8A828B83F0
:10594C00E0F50A750B00E509780A1219EDE50AA2D3
:10595C00E05027EE2436F8E43FF98882F583E0F531
:10596C000AEE250AF50AE43FF50BE50A2438F58220
:10597C00E4350BF583E50C1259B10509050CE50965
:10598C00C3940840B705088A828B83A3AA82AB8391
:10599C008C828D83A3AC82AD83E508C394054086CD
:1059AC007F05021B611264C8E004F022C082C08330
:1059BC009003B9E064017003025AA67C009003BF07
:1059CC00E06003025AA6126242A3F090041F04F096
:1059DC00900424F09003C2125AAD9003CC04F090C2
:1059EC0003F2E4F09003D5125AB4A3F090043DF006
:1059FC00900431F0900440F09004257480126244BD
:105A0C0090042BF09004A9125AC69004B2F09004A2
:105A1C0041F0900491125AC6A3F0A3F090049DF0AB
:105A2C0090049FF090049BF09004B5125AC6900419
:105A3C00C8F09004C2125AB474FF9004277804F092
:105A4C00A3D8FC7A1A7B0478CD7904125675E864D5
:105A5C00D27003E9640470F378A179038882898396
:105A6C00E0C0E0ECFA74A12AF582E43404F583D0AA
:105A7C00E0F00C88828983A3A882A983ECC39408E4
:105A8C0040DA9003B9E004F0640170089003C1E0BF
:105A9C009003BBF07ABD7B0380047A007B0002503C
:105AAC004BE4125AC0A3F022125AB822125AC0A3C5
:105ABC00125AC022F0A3F0A3F022125AB8A3F0A3FA
:105ACC00F022C082C0838A828B83A3A3A3E0600FE1
:105ADC008A828B83A3A3A3E4F09003BAE014F09022
:105AEC0003B9E014F070069003BB74FFF08A828B4C
:105AFC0083A3A3E4F09004D2E0700D9003BAE064A9
:105B0C000170057900120F9402504BC082C0839033
:105B1C0003C0E4F09003BFF09003B9F0A3F0A374BA
:105B2C00FFF075E1F102504B74E8121A8F74F41205
